{
	"data": {
		"bytecode": {
			"linkReferences": {},
			"object": "6080604052600a6000806101000a81548160ff021916908360ff160217905550735b38da6a701c568545dcfcb03fcb875f56beddc4600060016101000a81548173ffffffffffffffffffffffffffffffffffffffff021916908373ffffffffffffffffffffffffffffffffffffffff1602179055506040518060400160405280600161ffff16815260200161010161ffff168152506001906002620000a692919062000102565b506040518060400160405280600b81526020017f48656c6c6f20576f726c6400000000000000000000000000000000000000000081525060039081620000ed9190620003e6565b50348015620000fb57600080fd5b50620004cd565b82600281019282156200013a579160200282015b8281111562000139578251829061ffff1690559160200191906001019062000116565b5b5090506200014991906200014d565b5090565b5b80821115620001685760008160009055506001016200014e565b5090565b600081519050919050565b7f4e487b7100000000000000000000000000000000000000000000000000000000600052604160045260246000fd5b7f4e487b7100000000000000000000000000000000000000000000000000000000600052602260045260246000fd5b60006002820490506001821680620001ee57607f821691505b602082108103620002045762000203620001a6565b5b50919050565b60008190508160005260206000209050919050565b60006020601f8301049050919050565b600082821b905092915050565b6000600883026200026e7fffffffffffffffffffffffffffffffffffffffffffffffffffffffffffffffff826200022f565b6200027a86836200022f565b95508019841693508086168417925050509392505050565b6000819050919050565b6000819050919050565b6000620002c7620002c1620002bb8462000292565b6200029c565b62000292565b9050919050565b6000819050919050565b620002e383620002a6565b620002fb620002f282620002ce565b8484546200023c565b825550505050565b600090565b6200031262000303565b6200031f818484620002d8565b505050565b5b8181101562000347576200033b60008262000308565b60018101905062000325565b5050565b601f821115620003965762000360816200020a565b6200036b846200021f565b810160208510156200037b578190505b620003936200038a856200021f565b83018262000324565b50505b505050565b600082821c905092915050565b6000620003bb600019846008026200039b565b1980831691505092915050565b6000620003d68383620003a8565b9150826002028217905092915050565b620003f1826200016c565b67ffffffffffffffff8111156200040d576200040c62000177565b5b620004198254620001d5565b620004268282856200034b565b600060209050601f8311600181146200045e576000841562000449578287015190505b620004558582620003c8565b865550620004c5565b601f1984166200046e866200020a565b60005b82811015620004985784890151825560018201915060208501945060208101905062000471565b86831015620004b85784890151620004b4601f891682620003a8565b8355505b6001600288020188555050505b505050505050565b610e3a80620004dd6000396000f3fe608060405234801561001057600080fd5b50600436106100575760003560e01c806353d9c5061461005c578063bd14598f1461007a578063d1bd363d14610098578063e4f2a84a146100b6578063e5c5e9a3146100d4575b600080fd5b610064610107565b604051610071919061043e565b60405180910390f35b610082610165565b60405161008f919061043e565b60405180910390f35b6100a06101c3565b6040516100ad919061043e565b60405180910390f35b6100be610290565b6040516100cb919061043e565b60405180910390f35b6100ee60048036038101906100e991906105a9565b61035c565b6040516100fe9493929190610759565b60405180910390f35b606060008054906101000a900460ff16600060019054906101000a900473ffffffffffffffffffffffffffffffffffffffff16600160036040516020016101519493929190610a1c565b604051602081830303815290604052905090565b606060008054906101000a900460ff16600060019054906101000a900473ffffffffffffffffffffffffffffffffffffffff16600160036040516020016101af9493929190610b48565b604051602081830303815290604052905090565b60607f782625b87b0506624fb709cb3f4bd3f92b25e8753c2a021c3673d750ef97f0c160008054906101000a900460ff16600060019054906101000a900473ffffffffffffffffffffffffffffffffffffffff166001600360405160240161022e9493929190610b48565b604051602081830303815290604052907bffffffffffffffffffffffffffffffffffffffffffffffffffffffff19166020820180517bffffffffffffffffffffffffffffffffffffffffffffffffffffffff8381831617835250505050905090565b606060008054906101000a900460ff16600060019054906101000a900473ffffffffffffffffffffffffffffffffffffffff16600160036040516024016102da9493929190610b48565b6040516020818303038152906040527f782625b8000000000000000000000000000000000000000000000000000000007bffffffffffffffffffffffffffffffffffffffffffffffffffffffff19166020820180517bffffffffffffffffffffffffffffffffffffffffffffffffffffffff8381831617835250505050905090565b60008061036761038c565b60608480602001905181019061037d9190610d81565b93509350935093509193509193565b6040518060400160405280600290602082028036833780820191505090505090565b600081519050919050565b600082825260208201905092915050565b60005b838110156103e85780820151818401526020810190506103cd565b60008484015250505050565b6000601f19601f8301169050919050565b6000610410826103ae565b61041a81856103b9565b935061042a8185602086016103ca565b610433816103f4565b840191505092915050565b600060208201905081810360008301526104588184610405565b905092915050565b6000604051905090565b600080fd5b600080fd5b600080fd5b600080fd5b7f4e487b7100000000000000000000000000000000000000000000000000000000600052604160045260246000fd5b6104b6826103f4565b810181811067ffffffffffffffff821117156104d5576104d461047e565b5b80604052505050565b60006104e8610460565b90506104f482826104ad565b919050565b600067ffffffffffffffff8211156105145761051361047e565b5b61051d826103f4565b9050602081019050919050565b82818337600083830152505050565b600061054c610547846104f9565b6104de565b90508281526020810184848401111561056857610567610479565b5b61057384828561052a565b509392505050565b600082601f8301126105905761058f610474565b5b81356105a0848260208601610539565b91505092915050565b6000602082840312156105bf576105be61046a565b5b600082013567ffffffffffffffff8111156105dd576105dc61046f565b5b6105e98482850161057b565b91505092915050565b600060ff82169050919050565b610608816105f2565b82525050565b600073ffffffffffffffffffffffffffffffffffffffff82169050919050565b60006106398261060e565b9050919050565b6106498161062e565b82525050565b600060029050919050565b600081905092915050565b6000819050919050565b6000819050919050565b6106828161066f565b82525050565b60006106948383610679565b60208301905092915050565b6000602082019050919050565b6106b68161064f565b6106c0818461065a565b92506106cb82610665565b8060005b838110156106fc5781516106e38782610688565b96506106ee836106a0565b9250506001810190506106cf565b505050505050565b600081519050919050565b600082825260208201905092915050565b600061072b82610704565b610735818561070f565b93506107458185602086016103ca565b61074e816103f4565b840191505092915050565b600060a08201905061076e60008301876105ff565b61077b6020830186610640565b61078860408301856106ad565b818103608083015261079a8184610720565b905095945050505050565b60008160f81b9050919050565b60006107bd826107a5565b9050919050565b6107d56107d0826105f2565b6107b2565b82525050565b60008160601b9050919050565b60006107f3826107db565b9050919050565b6000610805826107e8565b9050919050565b61081d6108188261062e565b6107fa565b82525050565b600060029050919050565b600081905092915050565b6000819050919050565b61084c8161066f565b82525050565b600061085e8383610843565b60208301905092915050565b60008160001c9050919050565b6000819050919050565b600061089461088f8361086a565b610877565b9050919050565b60006108a78254610881565b9050919050565b6000600182019050919050565b6108c481610823565b6108ce818461082e565b92506108d982610839565b8060005b83811015610911576108ee8261089b565b6108f88782610852565b9650610903836108ae565b9250506001810190506108dd565b505050505050565b7f4e487b7100000000000000000000000000000000000000000000000000000000600052602260045260246000fd5b6000600282049050600182168061096057607f821691505b60208210810361097357610972610919565b5b50919050565b600081905092915050565b60008190508160005260206000209050919050565b600081546109a681610948565b6109b08186610979565b945060018216600081146109cb57600181146109e057610a13565b60ff1983168652811515820286019350610a13565b6109e985610984565b60005b83811015610a0b578154818901526001820191506020810190506109ec565b838801955050505b50505092915050565b6000610a2882876107c4565b600182019150610a38828661080c565b601482019150610a4882856108bb565b604082019150610a588284610999565b915081905095945050505050565b610a6f81610823565b610a79818461065a565b9250610a8482610839565b8060005b83811015610abc57610a998261089b565b610aa38782610688565b9650610aae836108ae565b925050600181019050610a88565b505050505050565b60008154610ad181610948565b610adb818661070f565b94506001821660008114610af65760018114610b0c57610b3f565b60ff198316865281151560200286019350610b3f565b610b1585610984565b60005b83811015610b3757815481890152600182019150602081019050610b18565b808801955050505b50505092915050565b600060a082019050610b5d60008301876105ff565b610b6a6020830186610640565b610b776040830185610a66565b8181036080830152610b898184610ac4565b905095945050505050565b610b9d816105f2565b8114610ba857600080fd5b50565b600081519050610bba81610b94565b92915050565b6000610bcb8261060e565b9050919050565b610bdb81610bc0565b8114610be657600080fd5b50565b600081519050610bf881610bd2565b92915050565b600067ffffffffffffffff821115610c1957610c1861047e565b5b602082029050919050565b600080fd5b610c328161066f565b8114610c3d57600080fd5b50565b600081519050610c4f81610c29565b92915050565b6000610c68610c6384610bfe565b6104de565b90508060208402830185811115610c8257610c81610c24565b5b835b81811015610cab5780610c978882610c40565b845260208401935050602081019050610c84565b5050509392505050565b600082601f830112610cca57610cc9610474565b5b6002610cd7848285610c55565b91505092915050565b600067ffffffffffffffff821115610cfb57610cfa61047e565b5b610d04826103f4565b9050602081019050919050565b6000610d24610d1f84610ce0565b6104de565b905082815260208101848484011115610d4057610d3f610479565b5b610d4b8482856103ca565b509392505050565b600082601f830112610d6857610d67610474565b5b8151610d78848260208601610d11565b91505092915050565b60008060008060a08587031215610d9b57610d9a61046a565b5b6000610da987828801610bab565b9450506020610dba87828801610be9565b9350506040610dcb87828801610cb5565b925050608085015167ffffffffffffffff811115610dec57610deb61046f565b5b610df887828801610d53565b9150509295919450925056fea2646970667358221220e01ba4da90a1cdaf7e859053042a42ecee473a2e8d3766b7b3015fe006c4b25464736f6c63430008120033",
			"opcodes": "PUSH1 0x80 PUSH1 0x40 MSTORE PUSH1 0xA PUSH1 0x0 DUP1 PUSH2 0x100 EXP DUP2 SLOAD DUP2 PUSH1 0xFF MUL NOT AND SWAP1 DUP4 PUSH1 0xFF AND MUL OR SWAP1 SSTORE POP PUSH20 0x5B38DA6A701C568545DCFCB03FCB875F56BEDDC4 PUSH1 0x0 PUSH1 0x1 PUSH2 0x100 EXP DUP2 SLOAD DUP2 PUSH20 0xFFFFFFFFFFFFFFFFFFFFFFFFFFFFFFFFFFFFFFFF MUL NOT AND SWAP1 DUP4 PUSH20 0xFFFFFFFFFFFFFFFFFFFFFFFFFFFFFFFFFFFFFFFF AND MUL OR SWAP1 SSTORE POP PUSH1 0x40 MLOAD DUP1 PUSH1 0x40 ADD PUSH1 0x40 MSTORE DUP1 PUSH1 0x1 PUSH2 0xFFFF AND DUP2 MSTORE PUSH1 0x20 ADD PUSH2 0x101 PUSH2 0xFFFF AND DUP2 MSTORE POP PUSH1 0x1 SWAP1 PUSH1 0x2 PUSH3 0xA6 SWAP3 SWAP2 SWAP1 PUSH3 0x102 JUMP JUMPDEST POP PUSH1 0x40 MLOAD DUP1 PUSH1 0x40 ADD PUSH1 0x40 MSTORE DUP1 PUSH1 0xB DUP2 MSTORE PUSH1 0x20 ADD PUSH32 0x48656C6C6F20576F726C64000000000000000000000000000000000000000000 DUP2 MSTORE POP PUSH1 0x3 SWAP1 DUP2 PUSH3 0xED SWAP2 SWAP1 PUSH3 0x3E6 JUMP JUMPDEST POP CALLVALUE DUP1 ISZERO PUSH3 0xFB JUMPI PUSH1 0x0 DUP1 REVERT JUMPDEST POP PUSH3 0x4CD JUMP JUMPDEST DUP3 PUSH1 0x2 DUP2 ADD SWAP3 DUP3 ISZERO PUSH3 0x13A JUMPI SWAP2 PUSH1 0x20 MUL DUP3 ADD JUMPDEST DUP3 DUP2 GT ISZERO PUSH3 0x139 JUMPI DUP3 MLOAD DUP3 SWAP1 PUSH2 0xFFFF AND SWAP1 SSTORE SWAP2 PUSH1 0x20 ADD SWAP2 SWAP1 PUSH1 0x1 ADD SWAP1 PUSH3 0x116 JUMP JUMPDEST JUMPDEST POP SWAP1 POP PUSH3 0x149 SWAP2 SWAP1 PUSH3 0x14D JUMP JUMPDEST POP SWAP1 JUMP JUMPDEST JUMPDEST DUP1 DUP3 GT ISZERO PUSH3 0x168 JUMPI PUSH1 0x0 DUP2 PUSH1 0x0 SWAP1 SSTORE POP PUSH1 0x1 ADD PUSH3 0x14E JUMP JUMPDEST POP SWAP1 JUMP JUMPDEST PUSH1 0x0 DUP2 MLOAD SWAP1 POP SWAP2 SWAP1 POP JUMP JUMPDEST PUSH32 0x4E487B7100000000000000000000000000000000000000000000000000000000 PUSH1 0x0 MSTORE PUSH1 0x41 PUSH1 0x4 MSTORE PUSH1 0x24 PUSH1 0x0 REVERT JUMPDEST PUSH32 0x4E487B7100000000000000000000000000000000000000000000000000000000 PUSH1 0x0 MSTORE PUSH1 0x22 PUSH1 0x4 MSTORE PUSH1 0x24 PUSH1 0x0 REVERT JUMPDEST PUSH1 0x0 PUSH1 0x2 DUP3 DIV SWAP1 POP PUSH1 0x1 DUP3 AND DUP1 PUSH3 0x1EE JUMPI PUSH1 0x7F DUP3 AND SWAP2 POP JUMPDEST PUSH1 0x20 DUP3 LT DUP2 SUB PUSH3 0x204 JUMPI PUSH3 0x203 PUSH3 0x1A6 JUMP JUMPDEST JUMPDEST POP SWAP2 SWAP1 POP JUMP JUMPDEST PUSH1 0x0 DUP2 SWAP1 POP DUP2 PUSH1 0x0 MSTORE PUSH1 0x20 PUSH1 0x0 KECCAK256 SWAP1 POP SWAP2 SWAP1 POP JUMP JUMPDEST PUSH1 0x0 PUSH1 0x20 PUSH1 0x1F DUP4 ADD DIV SWAP1 POP SWAP2 SWAP1 POP JUMP JUMPDEST PUSH1 0x0 DUP3 DUP3 SHL SWAP1 POP SWAP3 SWAP2 POP POP JUMP JUMPDEST PUSH1 0x0 PUSH1 0x8 DUP4 MUL PUSH3 0x26E PUSH32 0xFFFFFFFFFFFFFFFFFFFFFFFFFFFFFFFFFFFFFFFFFFFFFFFFFFFFFFFFFFFFFFFF DUP3 PUSH3 0x22F JUMP JUMPDEST PUSH3 0x27A DUP7 DUP4 PUSH3 0x22F JUMP JUMPDEST SWAP6 POP DUP1 NOT DUP5 AND SWAP4 POP DUP1 DUP7 AND DUP5 OR SWAP3 POP POP POP SWAP4 SWAP3 POP POP POP JUMP JUMPDEST PUSH1 0x0 DUP2 SWAP1 POP SWAP2 SWAP1 POP JUMP JUMPDEST PUSH1 0x0 DUP2 SWAP1 POP SWAP2 SWAP1 POP JUMP JUMPDEST PUSH1 0x0 PUSH3 0x2C7 PUSH3 0x2C1 PUSH3 0x2BB DUP5 PUSH3 0x292 JUMP JUMPDEST PUSH3 0x29C JUMP JUMPDEST PUSH3 0x292 JUMP JUMPDEST SWAP1 POP SWAP2 SWAP1 POP JUMP JUMPDEST PUSH1 0x0 DUP2 SWAP1 POP SWAP2 SWAP1 POP JUMP JUMPDEST PUSH3 0x2E3 DUP4 PUSH3 0x2A6 JUMP JUMPDEST PUSH3 0x2FB PUSH3 0x2F2 DUP3 PUSH3 0x2CE JUMP JUMPDEST DUP5 DUP5 SLOAD PUSH3 0x23C JUMP JUMPDEST DUP3 SSTORE POP POP POP POP JUMP JUMPDEST PUSH1 0x0 SWAP1 JUMP JUMPDEST PUSH3 0x312 PUSH3 0x303 JUMP JUMPDEST PUSH3 0x31F DUP2 DUP5 DUP5 PUSH3 0x2D8 JUMP JUMPDEST POP POP POP JUMP JUMPDEST JUMPDEST DUP2 DUP2 LT ISZERO PUSH3 0x347 JUMPI PUSH3 0x33B PUSH1 0x0 DUP3 PUSH3 0x308 JUMP JUMPDEST PUSH1 0x1 DUP2 ADD SWAP1 POP PUSH3 0x325 JUMP JUMPDEST POP POP JUMP JUMPDEST PUSH1 0x1F DUP3 GT ISZERO PUSH3 0x396 JUMPI PUSH3 0x360 DUP2 PUSH3 0x20A JUMP JUMPDEST PUSH3 0x36B DUP5 PUSH3 0x21F JUMP JUMPDEST DUP2 ADD PUSH1 0x20 DUP6 LT ISZERO PUSH3 0x37B JUMPI DUP2 SWAP1 POP JUMPDEST PUSH3 0x393 PUSH3 0x38A DUP6 PUSH3 0x21F JUMP JUMPDEST DUP4 ADD DUP3 PUSH3 0x324 JUMP JUMPDEST POP POP JUMPDEST POP POP POP JUMP JUMPDEST PUSH1 0x0 DUP3 DUP3 SHR SWAP1 POP SWAP3 SWAP2 POP POP JUMP JUMPDEST PUSH1 0x0 PUSH3 0x3BB PUSH1 0x0 NOT DUP5 PUSH1 0x8 MUL PUSH3 0x39B JUMP JUMPDEST NOT DUP1 DUP4 AND SWAP2 POP POP SWAP3 SWAP2 POP POP JUMP JUMPDEST PUSH1 0x0 PUSH3 0x3D6 DUP4 DUP4 PUSH3 0x3A8 JUMP JUMPDEST SWAP2 POP DUP3 PUSH1 0x2 MUL DUP3 OR SWAP1 POP SWAP3 SWAP2 POP POP JUMP JUMPDEST PUSH3 0x3F1 DUP3 PUSH3 0x16C JUMP JUMPDEST PUSH8 0xFFFFFFFFFFFFFFFF DUP2 GT ISZERO PUSH3 0x40D JUMPI PUSH3 0x40C PUSH3 0x177 JUMP JUMPDEST JUMPDEST PUSH3 0x419 DUP3 SLOAD PUSH3 0x1D5 JUMP JUMPDEST PUSH3 0x426 DUP3 DUP3 DUP6 PUSH3 0x34B JUMP JUMPDEST PUSH1 0x0 PUSH1 0x20 SWAP1 POP PUSH1 0x1F DUP4 GT PUSH1 0x1 DUP2 EQ PUSH3 0x45E JUMPI PUSH1 0x0 DUP5 ISZERO PUSH3 0x449 JUMPI DUP3 DUP8 ADD MLOAD SWAP1 POP JUMPDEST PUSH3 0x455 DUP6 DUP3 PUSH3 0x3C8 JUMP JUMPDEST DUP7 SSTORE POP PUSH3 0x4C5 JUMP JUMPDEST PUSH1 0x1F NOT DUP5 AND PUSH3 0x46E DUP7 PUSH3 0x20A JUMP JUMPDEST PUSH1 0x0 JUMPDEST DUP3 DUP2 LT ISZERO PUSH3 0x498 JUMPI DUP5 DUP10 ADD MLOAD DUP3 SSTORE PUSH1 0x1 DUP3 ADD SWAP2 POP PUSH1 0x20 DUP6 ADD SWAP5 POP PUSH1 0x20 DUP2 ADD SWAP1 POP PUSH3 0x471 JUMP JUMPDEST DUP7 DUP4 LT ISZERO PUSH3 0x4B8 JUMPI DUP5 DUP10 ADD MLOAD PUSH3 0x4B4 PUSH1 0x1F DUP10 AND DUP3 PUSH3 0x3A8 JUMP JUMPDEST DUP4 SSTORE POP JUMPDEST PUSH1 0x1 PUSH1 0x2 DUP9 MUL ADD DUP9 SSTORE POP POP POP JUMPDEST POP POP POP POP POP POP JUMP JUMPDEST PUSH2 0xE3A DUP1 PUSH3 0x4DD PUSH1 0x0 CODECOPY PUSH1 0x0 RETURN INVALID PUSH1 0x80 PUSH1 0x40 MSTORE CALLVALUE DUP1 ISZERO PUSH2 0x10 JUMPI PUSH1 0x0 DUP1 REVERT JUMPDEST POP PUSH1 0x4 CALLDATASIZE LT PUSH2 0x57 JUMPI PUSH1 0x0 CALLDATALOAD PUSH1 0xE0 SHR DUP1 PUSH4 0x53D9C506 EQ PUSH2 0x5C JUMPI DUP1 PUSH4 0xBD14598F EQ PUSH2 0x7A JUMPI DUP1 PUSH4 0xD1BD363D EQ PUSH2 0x98 JUMPI DUP1 PUSH4 0xE4F2A84A EQ PUSH2 0xB6 JUMPI DUP1 PUSH4 0xE5C5E9A3 EQ PUSH2 0xD4 JUMPI JUMPDEST PUSH1 0x0 DUP1 REVERT JUMPDEST PUSH2 0x64 PUSH2 0x107 JUMP JUMPDEST PUSH1 0x40 MLOAD PUSH2 0x71 SWAP2 SWAP1 PUSH2 0x43E JUMP JUMPDEST PUSH1 0x40 MLOAD DUP1 SWAP2 SUB SWAP1 RETURN JUMPDEST PUSH2 0x82 PUSH2 0x165 JUMP JUMPDEST PUSH1 0x40 MLOAD PUSH2 0x8F SWAP2 SWAP1 PUSH2 0x43E JUMP JUMPDEST PUSH1 0x40 MLOAD DUP1 SWAP2 SUB SWAP1 RETURN JUMPDEST PUSH2 0xA0 PUSH2 0x1C3 JUMP JUMPDEST PUSH1 0x40 MLOAD PUSH2 0xAD SWAP2 SWAP1 PUSH2 0x43E JUMP JUMPDEST PUSH1 0x40 MLOAD DUP1 SWAP2 SUB SWAP1 RETURN JUMPDEST PUSH2 0xBE PUSH2 0x290 JUMP JUMPDEST PUSH1 0x40 MLOAD PUSH2 0xCB SWAP2 SWAP1 PUSH2 0x43E JUMP JUMPDEST PUSH1 0x40 MLOAD DUP1 SWAP2 SUB SWAP1 RETURN JUMPDEST PUSH2 0xEE PUSH1 0x4 DUP1 CALLDATASIZE SUB DUP2 ADD SWAP1 PUSH2 0xE9 SWAP2 SWAP1 PUSH2 0x5A9 JUMP JUMPDEST PUSH2 0x35C JUMP JUMPDEST PUSH1 0x40 MLOAD PUSH2 0xFE SWAP5 SWAP4 SWAP3 SWAP2 SWAP1 PUSH2 0x759 JUMP JUMPDEST PUSH1 0x40 MLOAD DUP1 SWAP2 SUB SWAP1 RETURN JUMPDEST PUSH1 0x60 PUSH1 0x0 DUP1 SLOAD SWAP1 PUSH2 0x100 EXP SWAP1 DIV PUSH1 0xFF AND PUSH1 0x0 PUSH1 0x1 SWAP1 SLOAD SWAP1 PUSH2 0x100 EXP SWAP1 DIV PUSH20 0xFFFFFFFFFFFFFFFFFFFFFFFFFFFFFFFFFFFFFFFF AND PUSH1 0x1 PUSH1 0x3 PUSH1 0x40 MLOAD PUSH1 0x20 ADD PUSH2 0x151 SWAP5 SWAP4 SWAP3 SWAP2 SWAP1 PUSH2 0xA1C JUMP JUMPDEST PUSH1 0x40 MLOAD PUSH1 0x20 DUP2 DUP4 SUB SUB DUP2 MSTORE SWAP1 PUSH1 0x40 MSTORE SWAP1 POP SWAP1 JUMP JUMPDEST PUSH1 0x60 PUSH1 0x0 DUP1 SLOAD SWAP1 PUSH2 0x100 EXP SWAP1 DIV PUSH1 0xFF AND PUSH1 0x0 PUSH1 0x1 SWAP1 SLOAD SWAP1 PUSH2 0x100 EXP SWAP1 DIV PUSH20 0xFFFFFFFFFFFFFFFFFFFFFFFFFFFFFFFFFFFFFFFF AND PUSH1 0x1 PUSH1 0x3 PUSH1 0x40 MLOAD PUSH1 0x20 ADD PUSH2 0x1AF SWAP5 SWAP4 SWAP3 SWAP2 SWAP1 PUSH2 0xB48 JUMP JUMPDEST PUSH1 0x40 MLOAD PUSH1 0x20 DUP2 DUP4 SUB SUB DUP2 MSTORE SWAP1 PUSH1 0x40 MSTORE SWAP1 POP SWAP1 JUMP JUMPDEST PUSH1 0x60 PUSH32 0x782625B87B0506624FB709CB3F4BD3F92B25E8753C2A021C3673D750EF97F0C1 PUSH1 0x0 DUP1 SLOAD SWAP1 PUSH2 0x100 EXP SWAP1 DIV PUSH1 0xFF AND PUSH1 0x0 PUSH1 0x1 SWAP1 SLOAD SWAP1 PUSH2 0x100 EXP SWAP1 DIV PUSH20 0xFFFFFFFFFFFFFFFFFFFFFFFFFFFFFFFFFFFFFFFF AND PUSH1 0x1 PUSH1 0x3 PUSH1 0x40 MLOAD PUSH1 0x24 ADD PUSH2 0x22E SWAP5 SWAP4 SWAP3 SWAP2 SWAP1 PUSH2 0xB48 JUMP JUMPDEST PUSH1 0x40 MLOAD PUSH1 0x20 DUP2 DUP4 SUB SUB DUP2 MSTORE SWAP1 PUSH1 0x40 MSTORE SWAP1 PUSH28 0xFFFFFFFFFFFFFFFFFFFFFFFFFFFFFFFFFFFFFFFFFFFFFFFFFFFFFFFF NOT AND PUSH1 0x20 DUP3 ADD DUP1 MLOAD PUSH28 0xFFFFFFFFFFFFFFFFFFFFFFFFFFFFFFFFFFFFFFFFFFFFFFFFFFFFFFFF DUP4 DUP2 DUP4 AND OR DUP4 MSTORE POP POP POP POP SWAP1 POP SWAP1 JUMP JUMPDEST PUSH1 0x60 PUSH1 0x0 DUP1 SLOAD SWAP1 PUSH2 0x100 EXP SWAP1 DIV PUSH1 0xFF AND PUSH1 0x0 PUSH1 0x1 SWAP1 SLOAD SWAP1 PUSH2 0x100 EXP SWAP1 DIV PUSH20 0xFFFFFFFFFFFFFFFFFFFFFFFFFFFFFFFFFFFFFFFF AND PUSH1 0x1 PUSH1 0x3 PUSH1 0x40 MLOAD PUSH1 0x24 ADD PUSH2 0x2DA SWAP5 SWAP4 SWAP3 SWAP2 SWAP1 PUSH2 0xB48 JUMP JUMPDEST PUSH1 0x40 MLOAD PUSH1 0x20 DUP2 DUP4 SUB SUB DUP2 MSTORE SWAP1 PUSH1 0x40 MSTORE PUSH32 0x782625B800000000000000000000000000000000000000000000000000000000 PUSH28 0xFFFFFFFFFFFFFFFFFFFFFFFFFFFFFFFFFFFFFFFFFFFFFFFFFFFFFFFF NOT AND PUSH1 0x20 DUP3 ADD DUP1 MLOAD PUSH28 0xFFFFFFFFFFFFFFFFFFFFFFFFFFFFFFFFFFFFFFFFFFFFFFFFFFFFFFFF DUP4 DUP2 DUP4 AND OR DUP4 MSTORE POP POP POP POP SWAP1 POP SWAP1 JUMP JUMPDEST PUSH1 0x0 DUP1 PUSH2 0x367 PUSH2 0x38C JUMP JUMPDEST PUSH1 0x60 DUP5 DUP1 PUSH1 0x20 ADD SWAP1 MLOAD DUP2 ADD SWAP1 PUSH2 0x37D SWAP2 SWAP1 PUSH2 0xD81 JUMP JUMPDEST SWAP4 POP SWAP4 POP SWAP4 POP SWAP4 POP SWAP2 SWAP4 POP SWAP2 SWAP4 JUMP JUMPDEST PUSH1 0x40 MLOAD DUP1 PUSH1 0x40 ADD PUSH1 0x40 MSTORE DUP1 PUSH1 0x2 SWAP1 PUSH1 0x20 DUP3 MUL DUP1 CALLDATASIZE DUP4 CALLDATACOPY DUP1 DUP3 ADD SWAP2 POP POP SWAP1 POP POP SWAP1 JUMP JUMPDEST PUSH1 0x0 DUP2 MLOAD SWAP1 POP SWAP2 SWAP1 POP JUMP JUMPDEST PUSH1 0x0 DUP3 DUP3 MSTORE PUSH1 0x20 DUP3 ADD SWAP1 POP SWAP3 SWAP2 POP POP JUMP JUMPDEST PUSH1 0x0 JUMPDEST DUP4 DUP2 LT ISZERO PUSH2 0x3E8 JUMPI DUP1 DUP3 ADD MLOAD DUP2 DUP5 ADD MSTORE PUSH1 0x20 DUP2 ADD SWAP1 POP PUSH2 0x3CD JUMP JUMPDEST PUSH1 0x0 DUP5 DUP5 ADD MSTORE POP POP POP POP JUMP JUMPDEST PUSH1 0x0 PUSH1 0x1F NOT PUSH1 0x1F DUP4 ADD AND SWAP1 POP SWAP2 SWAP1 POP JUMP JUMPDEST PUSH1 0x0 PUSH2 0x410 DUP3 PUSH2 0x3AE JUMP JUMPDEST PUSH2 0x41A DUP2 DUP6 PUSH2 0x3B9 JUMP JUMPDEST SWAP4 POP PUSH2 0x42A DUP2 DUP6 PUSH1 0x20 DUP7 ADD PUSH2 0x3CA JUMP JUMPDEST PUSH2 0x433 DUP2 PUSH2 0x3F4 JUMP JUMPDEST DUP5 ADD SWAP2 POP POP SWAP3 SWAP2 POP POP JUMP JUMPDEST PUSH1 0x0 PUSH1 0x20 DUP3 ADD SWAP1 POP DUP2 DUP2 SUB PUSH1 0x0 DUP4 ADD MSTORE PUSH2 0x458 DUP2 DUP5 PUSH2 0x405 JUMP JUMPDEST SWAP1 POP SWAP3 SWAP2 POP POP JUMP JUMPDEST PUSH1 0x0 PUSH1 0x40 MLOAD SWAP1 POP SWAP1 JUMP JUMPDEST PUSH1 0x0 DUP1 REVERT JUMPDEST PUSH1 0x0 DUP1 REVERT JUMPDEST PUSH1 0x0 DUP1 REVERT JUMPDEST PUSH1 0x0 DUP1 REVERT JUMPDEST PUSH32 0x4E487B7100000000000000000000000000000000000000000000000000000000 PUSH1 0x0 MSTORE PUSH1 0x41 PUSH1 0x4 MSTORE PUSH1 0x24 PUSH1 0x0 REVERT JUMPDEST PUSH2 0x4B6 DUP3 PUSH2 0x3F4 JUMP JUMPDEST DUP2 ADD DUP2 DUP2 LT PUSH8 0xFFFFFFFFFFFFFFFF DUP3 GT OR ISZERO PUSH2 0x4D5 JUMPI PUSH2 0x4D4 PUSH2 0x47E JUMP JUMPDEST JUMPDEST DUP1 PUSH1 0x40 MSTORE POP POP POP JUMP JUMPDEST PUSH1 0x0 PUSH2 0x4E8 PUSH2 0x460 JUMP JUMPDEST SWAP1 POP PUSH2 0x4F4 DUP3 DUP3 PUSH2 0x4AD JUMP JUMPDEST SWAP2 SWAP1 POP JUMP JUMPDEST PUSH1 0x0 PUSH8 0xFFFFFFFFFFFFFFFF DUP3 GT ISZERO PUSH2 0x514 JUMPI PUSH2 0x513 PUSH2 0x47E JUMP JUMPDEST JUMPDEST PUSH2 0x51D DUP3 PUSH2 0x3F4 JUMP JUMPDEST SWAP1 POP PUSH1 0x20 DUP2 ADD SWAP1 POP SWAP2 SWAP1 POP JUMP JUMPDEST DUP3 DUP2 DUP4 CALLDATACOPY PUSH1 0x0 DUP4 DUP4 ADD MSTORE POP POP POP JUMP JUMPDEST PUSH1 0x0 PUSH2 0x54C PUSH2 0x547 DUP5 PUSH2 0x4F9 JUMP JUMPDEST PUSH2 0x4DE JUMP JUMPDEST SWAP1 POP DUP3 DUP2 MSTORE PUSH1 0x20 DUP2 ADD DUP5 DUP5 DUP5 ADD GT ISZERO PUSH2 0x568 JUMPI PUSH2 0x567 PUSH2 0x479 JUMP JUMPDEST JUMPDEST PUSH2 0x573 DUP5 DUP3 DUP6 PUSH2 0x52A JUMP JUMPDEST POP SWAP4 SWAP3 POP POP POP JUMP JUMPDEST PUSH1 0x0 DUP3 PUSH1 0x1F DUP4 ADD SLT PUSH2 0x590 JUMPI PUSH2 0x58F PUSH2 0x474 JUMP JUMPDEST JUMPDEST DUP2 CALLDATALOAD PUSH2 0x5A0 DUP5 DUP3 PUSH1 0x20 DUP7 ADD PUSH2 0x539 JUMP JUMPDEST SWAP2 POP POP SWAP3 SWAP2 POP POP JUMP JUMPDEST PUSH1 0x0 PUSH1 0x20 DUP3 DUP5 SUB SLT ISZERO PUSH2 0x5BF JUMPI PUSH2 0x5BE PUSH2 0x46A JUMP JUMPDEST JUMPDEST PUSH1 0x0 DUP3 ADD CALLDATALOAD PUSH8 0xFFFFFFFFFFFFFFFF DUP2 GT ISZERO PUSH2 0x5DD JUMPI PUSH2 0x5DC PUSH2 0x46F JUMP JUMPDEST JUMPDEST PUSH2 0x5E9 DUP5 DUP3 DUP6 ADD PUSH2 0x57B JUMP JUMPDEST SWAP2 POP POP SWAP3 SWAP2 POP POP JUMP JUMPDEST PUSH1 0x0 PUSH1 0xFF DUP3 AND SWAP1 POP SWAP2 SWAP1 POP JUMP JUMPDEST PUSH2 0x608 DUP2 PUSH2 0x5F2 JUMP JUMPDEST DUP3 MSTORE POP POP JUMP JUMPDEST PUSH1 0x0 PUSH20 0xFFFFFFFFFFFFFFFFFFFFFFFFFFFFFFFFFFFFFFFF DUP3 AND SWAP1 POP SWAP2 SWAP1 POP JUMP JUMPDEST PUSH1 0x0 PUSH2 0x639 DUP3 PUSH2 0x60E JUMP JUMPDEST SWAP1 POP SWAP2 SWAP1 POP JUMP JUMPDEST PUSH2 0x649 DUP2 PUSH2 0x62E JUMP JUMPDEST DUP3 MSTORE POP POP JUMP JUMPDEST PUSH1 0x0 PUSH1 0x2 SWAP1 POP SWAP2 SWAP1 POP JUMP JUMPDEST PUSH1 0x0 DUP2 SWAP1 POP SWAP3 SWAP2 POP POP JUMP JUMPDEST PUSH1 0x0 DUP2 SWAP1 POP SWAP2 SWAP1 POP JUMP JUMPDEST PUSH1 0x0 DUP2 SWAP1 POP SWAP2 SWAP1 POP JUMP JUMPDEST PUSH2 0x682 DUP2 PUSH2 0x66F JUMP JUMPDEST DUP3 MSTORE POP POP JUMP JUMPDEST PUSH1 0x0 PUSH2 0x694 DUP4 DUP4 PUSH2 0x679 JUMP JUMPDEST PUSH1 0x20 DUP4 ADD SWAP1 POP SWAP3 SWAP2 POP POP JUMP JUMPDEST PUSH1 0x0 PUSH1 0x20 DUP3 ADD SWAP1 POP SWAP2 SWAP1 POP JUMP JUMPDEST PUSH2 0x6B6 DUP2 PUSH2 0x64F JUMP JUMPDEST PUSH2 0x6C0 DUP2 DUP5 PUSH2 0x65A JUMP JUMPDEST SWAP3 POP PUSH2 0x6CB DUP3 PUSH2 0x665 JUMP JUMPDEST DUP1 PUSH1 0x0 JUMPDEST DUP4 DUP2 LT ISZERO PUSH2 0x6FC JUMPI DUP2 MLOAD PUSH2 0x6E3 DUP8 DUP3 PUSH2 0x688 JUMP JUMPDEST SWAP7 POP PUSH2 0x6EE DUP4 PUSH2 0x6A0 JUMP JUMPDEST SWAP3 POP POP PUSH1 0x1 DUP2 ADD SWAP1 POP PUSH2 0x6CF JUMP JUMPDEST POP POP POP POP POP POP JUMP JUMPDEST PUSH1 0x0 DUP2 MLOAD SWAP1 POP SWAP2 SWAP1 POP JUMP JUMPDEST PUSH1 0x0 DUP3 DUP3 MSTORE PUSH1 0x20 DUP3 ADD SWAP1 POP SWAP3 SWAP2 POP POP JUMP JUMPDEST PUSH1 0x0 PUSH2 0x72B DUP3 PUSH2 0x704 JUMP JUMPDEST PUSH2 0x735 DUP2 DUP6 PUSH2 0x70F JUMP JUMPDEST SWAP4 POP PUSH2 0x745 DUP2 DUP6 PUSH1 0x20 DUP7 ADD PUSH2 0x3CA JUMP JUMPDEST PUSH2 0x74E DUP2 PUSH2 0x3F4 JUMP JUMPDEST DUP5 ADD SWAP2 POP POP SWAP3 SWAP2 POP POP JUMP JUMPDEST PUSH1 0x0 PUSH1 0xA0 DUP3 ADD SWAP1 POP PUSH2 0x76E PUSH1 0x0 DUP4 ADD DUP8 PUSH2 0x5FF JUMP JUMPDEST PUSH2 0x77B PUSH1 0x20 DUP4 ADD DUP7 PUSH2 0x640 JUMP JUMPDEST PUSH2 0x788 PUSH1 0x40 DUP4 ADD DUP6 PUSH2 0x6AD JUMP JUMPDEST DUP2 DUP2 SUB PUSH1 0x80 DUP4 ADD MSTORE PUSH2 0x79A DUP2 DUP5 PUSH2 0x720 JUMP JUMPDEST SWAP1 POP SWAP6 SWAP5 POP POP POP POP POP JUMP JUMPDEST PUSH1 0x0 DUP2 PUSH1 0xF8 SHL SWAP1 POP SWAP2 SWAP1 POP JUMP JUMPDEST PUSH1 0x0 PUSH2 0x7BD DUP3 PUSH2 0x7A5 JUMP JUMPDEST SWAP1 POP SWAP2 SWAP1 POP JUMP JUMPDEST PUSH2 0x7D5 PUSH2 0x7D0 DUP3 PUSH2 0x5F2 JUMP JUMPDEST PUSH2 0x7B2 JUMP JUMPDEST DUP3 MSTORE POP POP JUMP JUMPDEST PUSH1 0x0 DUP2 PUSH1 0x60 SHL SWAP1 POP SWAP2 SWAP1 POP JUMP JUMPDEST PUSH1 0x0 PUSH2 0x7F3 DUP3 PUSH2 0x7DB JUMP JUMPDEST SWAP1 POP SWAP2 SWAP1 POP JUMP JUMPDEST PUSH1 0x0 PUSH2 0x805 DUP3 PUSH2 0x7E8 JUMP JUMPDEST SWAP1 POP SWAP2 SWAP1 POP JUMP JUMPDEST PUSH2 0x81D PUSH2 0x818 DUP3 PUSH2 0x62E JUMP JUMPDEST PUSH2 0x7FA JUMP JUMPDEST DUP3 MSTORE POP POP JUMP JUMPDEST PUSH1 0x0 PUSH1 0x2 SWAP1 POP SWAP2 SWAP1 POP JUMP JUMPDEST PUSH1 0x0 DUP2 SWAP1 POP SWAP3 SWAP2 POP POP JUMP JUMPDEST PUSH1 0x0 DUP2 SWAP1 POP SWAP2 SWAP1 POP JUMP JUMPDEST PUSH2 0x84C DUP2 PUSH2 0x66F JUMP JUMPDEST DUP3 MSTORE POP POP JUMP JUMPDEST PUSH1 0x0 PUSH2 0x85E DUP4 DUP4 PUSH2 0x843 JUMP JUMPDEST PUSH1 0x20 DUP4 ADD SWAP1 POP SWAP3 SWAP2 POP POP JUMP JUMPDEST PUSH1 0x0 DUP2 PUSH1 0x0 SHR SWAP1 POP SWAP2 SWAP1 POP JUMP JUMPDEST PUSH1 0x0 DUP2 SWAP1 POP SWAP2 SWAP1 POP JUMP JUMPDEST PUSH1 0x0 PUSH2 0x894 PUSH2 0x88F DUP4 PUSH2 0x86A JUMP JUMPDEST PUSH2 0x877 JUMP JUMPDEST SWAP1 POP SWAP2 SWAP1 POP JUMP JUMPDEST PUSH1 0x0 PUSH2 0x8A7 DUP3 SLOAD PUSH2 0x881 JUMP JUMPDEST SWAP1 POP SWAP2 SWAP1 POP JUMP JUMPDEST PUSH1 0x0 PUSH1 0x1 DUP3 ADD SWAP1 POP SWAP2 SWAP1 POP JUMP JUMPDEST PUSH2 0x8C4 DUP2 PUSH2 0x823 JUMP JUMPDEST PUSH2 0x8CE DUP2 DUP5 PUSH2 0x82E JUMP JUMPDEST SWAP3 POP PUSH2 0x8D9 DUP3 PUSH2 0x839 JUMP JUMPDEST DUP1 PUSH1 0x0 JUMPDEST DUP4 DUP2 LT ISZERO PUSH2 0x911 JUMPI PUSH2 0x8EE DUP3 PUSH2 0x89B JUMP JUMPDEST PUSH2 0x8F8 DUP8 DUP3 PUSH2 0x852 JUMP JUMPDEST SWAP7 POP PUSH2 0x903 DUP4 PUSH2 0x8AE JUMP JUMPDEST SWAP3 POP POP PUSH1 0x1 DUP2 ADD SWAP1 POP PUSH2 0x8DD JUMP JUMPDEST POP POP POP POP POP POP JUMP JUMPDEST PUSH32 0x4E487B7100000000000000000000000000000000000000000000000000000000 PUSH1 0x0 MSTORE PUSH1 0x22 PUSH1 0x4 MSTORE PUSH1 0x24 PUSH1 0x0 REVERT JUMPDEST PUSH1 0x0 PUSH1 0x2 DUP3 DIV SWAP1 POP PUSH1 0x1 DUP3 AND DUP1 PUSH2 0x960 JUMPI PUSH1 0x7F DUP3 AND SWAP2 POP JUMPDEST PUSH1 0x20 DUP3 LT DUP2 SUB PUSH2 0x973 JUMPI PUSH2 0x972 PUSH2 0x919 JUMP JUMPDEST JUMPDEST POP SWAP2 SWAP1 POP JUMP JUMPDEST PUSH1 0x0 DUP2 SWAP1 POP SWAP3 SWAP2 POP POP JUMP JUMPDEST PUSH1 0x0 DUP2 SWAP1 POP DUP2 PUSH1 0x0 MSTORE PUSH1 0x20 PUSH1 0x0 KECCAK256 SWAP1 POP SWAP2 SWAP1 POP JUMP JUMPDEST PUSH1 0x0 DUP2 SLOAD PUSH2 0x9A6 DUP2 PUSH2 0x948 JUMP JUMPDEST PUSH2 0x9B0 DUP2 DUP7 PUSH2 0x979 JUMP JUMPDEST SWAP5 POP PUSH1 0x1 DUP3 AND PUSH1 0x0 DUP2 EQ PUSH2 0x9CB JUMPI PUSH1 0x1 DUP2 EQ PUSH2 0x9E0 JUMPI PUSH2 0xA13 JUMP JUMPDEST PUSH1 0xFF NOT DUP4 AND DUP7 MSTORE DUP2 ISZERO ISZERO DUP3 MUL DUP7 ADD SWAP4 POP PUSH2 0xA13 JUMP JUMPDEST PUSH2 0x9E9 DUP6 PUSH2 0x984 JUMP JUMPDEST PUSH1 0x0 JUMPDEST DUP4 DUP2 LT ISZERO PUSH2 0xA0B JUMPI DUP2 SLOAD DUP2 DUP10 ADD MSTORE PUSH1 0x1 DUP3 ADD SWAP2 POP PUSH1 0x20 DUP2 ADD SWAP1 POP PUSH2 0x9EC JUMP JUMPDEST DUP4 DUP9 ADD SWAP6 POP POP POP JUMPDEST POP POP POP SWAP3 SWAP2 POP POP JUMP JUMPDEST PUSH1 0x0 PUSH2 0xA28 DUP3 DUP8 PUSH2 0x7C4 JUMP JUMPDEST PUSH1 0x1 DUP3 ADD SWAP2 POP PUSH2 0xA38 DUP3 DUP7 PUSH2 0x80C JUMP JUMPDEST PUSH1 0x14 DUP3 ADD SWAP2 POP PUSH2 0xA48 DUP3 DUP6 PUSH2 0x8BB JUMP JUMPDEST PUSH1 0x40 DUP3 ADD SWAP2 POP PUSH2 0xA58 DUP3 DUP5 PUSH2 0x999 JUMP JUMPDEST SWAP2 POP DUP2 SWAP1 POP SWAP6 SWAP5 POP POP POP POP POP JUMP JUMPDEST PUSH2 0xA6F DUP2 PUSH2 0x823 JUMP JUMPDEST PUSH2 0xA79 DUP2 DUP5 PUSH2 0x65A JUMP JUMPDEST SWAP3 POP PUSH2 0xA84 DUP3 PUSH2 0x839 JUMP JUMPDEST DUP1 PUSH1 0x0 JUMPDEST DUP4 DUP2 LT ISZERO PUSH2 0xABC JUMPI PUSH2 0xA99 DUP3 PUSH2 0x89B JUMP JUMPDEST PUSH2 0xAA3 DUP8 DUP3 PUSH2 0x688 JUMP JUMPDEST SWAP7 POP PUSH2 0xAAE DUP4 PUSH2 0x8AE JUMP JUMPDEST SWAP3 POP POP PUSH1 0x1 DUP2 ADD SWAP1 POP PUSH2 0xA88 JUMP JUMPDEST POP POP POP POP POP POP JUMP JUMPDEST PUSH1 0x0 DUP2 SLOAD PUSH2 0xAD1 DUP2 PUSH2 0x948 JUMP JUMPDEST PUSH2 0xADB DUP2 DUP7 PUSH2 0x70F JUMP JUMPDEST SWAP5 POP PUSH1 0x1 DUP3 AND PUSH1 0x0 DUP2 EQ PUSH2 0xAF6 JUMPI PUSH1 0x1 DUP2 EQ PUSH2 0xB0C JUMPI PUSH2 0xB3F JUMP JUMPDEST PUSH1 0xFF NOT DUP4 AND DUP7 MSTORE DUP2 ISZERO ISZERO PUSH1 0x20 MUL DUP7 ADD SWAP4 POP PUSH2 0xB3F JUMP JUMPDEST PUSH2 0xB15 DUP6 PUSH2 0x984 JUMP JUMPDEST PUSH1 0x0 JUMPDEST DUP4 DUP2 LT ISZERO PUSH2 0xB37 JUMPI DUP2 SLOAD DUP2 DUP10 ADD MSTORE PUSH1 0x1 DUP3 ADD SWAP2 POP PUSH1 0x20 DUP2 ADD SWAP1 POP PUSH2 0xB18 JUMP JUMPDEST DUP1 DUP9 ADD SWAP6 POP POP POP JUMPDEST POP POP POP SWAP3 SWAP2 POP POP JUMP JUMPDEST PUSH1 0x0 PUSH1 0xA0 DUP3 ADD SWAP1 POP PUSH2 0xB5D PUSH1 0x0 DUP4 ADD DUP8 PUSH2 0x5FF JUMP JUMPDEST PUSH2 0xB6A PUSH1 0x20 DUP4 ADD DUP7 PUSH2 0x640 JUMP JUMPDEST PUSH2 0xB77 PUSH1 0x40 DUP4 ADD DUP6 PUSH2 0xA66 JUMP JUMPDEST DUP2 DUP2 SUB PUSH1 0x80 DUP4 ADD MSTORE PUSH2 0xB89 DUP2 DUP5 PUSH2 0xAC4 JUMP JUMPDEST SWAP1 POP SWAP6 SWAP5 POP POP POP POP POP JUMP JUMPDEST PUSH2 0xB9D DUP2 PUSH2 0x5F2 JUMP JUMPDEST DUP2 EQ PUSH2 0xBA8 JUMPI PUSH1 0x0 DUP1 REVERT JUMPDEST POP JUMP JUMPDEST PUSH1 0x0 DUP2 MLOAD SWAP1 POP PUSH2 0xBBA DUP2 PUSH2 0xB94 JUMP JUMPDEST SWAP3 SWAP2 POP POP JUMP JUMPDEST PUSH1 0x0 PUSH2 0xBCB DUP3 PUSH2 0x60E JUMP JUMPDEST SWAP1 POP SWAP2 SWAP1 POP JUMP JUMPDEST PUSH2 0xBDB DUP2 PUSH2 0xBC0 JUMP JUMPDEST DUP2 EQ PUSH2 0xBE6 JUMPI PUSH1 0x0 DUP1 REVERT JUMPDEST POP JUMP JUMPDEST PUSH1 0x0 DUP2 MLOAD SWAP1 POP PUSH2 0xBF8 DUP2 PUSH2 0xBD2 JUMP JUMPDEST SWAP3 SWAP2 POP POP JUMP JUMPDEST PUSH1 0x0 PUSH8 0xFFFFFFFFFFFFFFFF DUP3 GT ISZERO PUSH2 0xC19 JUMPI PUSH2 0xC18 PUSH2 0x47E JUMP JUMPDEST JUMPDEST PUSH1 0x20 DUP3 MUL SWAP1 POP SWAP2 SWAP1 POP JUMP JUMPDEST PUSH1 0x0 DUP1 REVERT JUMPDEST PUSH2 0xC32 DUP2 PUSH2 0x66F JUMP JUMPDEST DUP2 EQ PUSH2 0xC3D JUMPI PUSH1 0x0 DUP1 REVERT JUMPDEST POP JUMP JUMPDEST PUSH1 0x0 DUP2 MLOAD SWAP1 POP PUSH2 0xC4F DUP2 PUSH2 0xC29 JUMP JUMPDEST SWAP3 SWAP2 POP POP JUMP JUMPDEST PUSH1 0x0 PUSH2 0xC68 PUSH2 0xC63 DUP5 PUSH2 0xBFE JUMP JUMPDEST PUSH2 0x4DE JUMP JUMPDEST SWAP1 POP DUP1 PUSH1 0x20 DUP5 MUL DUP4 ADD DUP6 DUP2 GT ISZERO PUSH2 0xC82 JUMPI PUSH2 0xC81 PUSH2 0xC24 JUMP JUMPDEST JUMPDEST DUP4 JUMPDEST DUP2 DUP2 LT ISZERO PUSH2 0xCAB JUMPI DUP1 PUSH2 0xC97 DUP9 DUP3 PUSH2 0xC40 JUMP JUMPDEST DUP5 MSTORE PUSH1 0x20 DUP5 ADD SWAP4 POP POP PUSH1 0x20 DUP2 ADD SWAP1 POP PUSH2 0xC84 JUMP JUMPDEST POP POP POP SWAP4 SWAP3 POP POP POP JUMP JUMPDEST PUSH1 0x0 DUP3 PUSH1 0x1F DUP4 ADD SLT PUSH2 0xCCA JUMPI PUSH2 0xCC9 PUSH2 0x474 JUMP JUMPDEST JUMPDEST PUSH1 0x2 PUSH2 0xCD7 DUP5 DUP3 DUP6 PUSH2 0xC55 JUMP JUMPDEST SWAP2 POP POP SWAP3 SWAP2 POP POP JUMP JUMPDEST PUSH1 0x0 PUSH8 0xFFFFFFFFFFFFFFFF DUP3 GT ISZERO PUSH2 0xCFB JUMPI PUSH2 0xCFA PUSH2 0x47E JUMP JUMPDEST JUMPDEST PUSH2 0xD04 DUP3 PUSH2 0x3F4 JUMP JUMPDEST SWAP1 POP PUSH1 0x20 DUP2 ADD SWAP1 POP SWAP2 SWAP1 POP JUMP JUMPDEST PUSH1 0x0 PUSH2 0xD24 PUSH2 0xD1F DUP5 PUSH2 0xCE0 JUMP JUMPDEST PUSH2 0x4DE JUMP JUMPDEST SWAP1 POP DUP3 DUP2 MSTORE PUSH1 0x20 DUP2 ADD DUP5 DUP5 DUP5 ADD GT ISZERO PUSH2 0xD40 JUMPI PUSH2 0xD3F PUSH2 0x479 JUMP JUMPDEST JUMPDEST PUSH2 0xD4B DUP5 DUP3 DUP6 PUSH2 0x3CA JUMP JUMPDEST POP SWAP4 SWAP3 POP POP POP JUMP JUMPDEST PUSH1 0x0 DUP3 PUSH1 0x1F DUP4 ADD SLT PUSH2 0xD68 JUMPI PUSH2 0xD67 PUSH2 0x474 JUMP JUMPDEST JUMPDEST DUP2 MLOAD PUSH2 0xD78 DUP5 DUP3 PUSH1 0x20 DUP7 ADD PUSH2 0xD11 JUMP JUMPDEST SWAP2 POP POP SWAP3 SWAP2 POP POP JUMP JUMPDEST PUSH1 0x0 DUP1 PUSH1 0x0 DUP1 PUSH1 0xA0 DUP6 DUP8 SUB SLT ISZERO PUSH2 0xD9B JUMPI PUSH2 0xD9A PUSH2 0x46A JUMP JUMPDEST JUMPDEST PUSH1 0x0 PUSH2 0xDA9 DUP8 DUP3 DUP9 ADD PUSH2 0xBAB JUMP JUMPDEST SWAP5 POP POP PUSH1 0x20 PUSH2 0xDBA DUP8 DUP3 DUP9 ADD PUSH2 0xBE9 JUMP JUMPDEST SWAP4 POP POP PUSH1 0x40 PUSH2 0xDCB DUP8 DUP3 DUP9 ADD PUSH2 0xCB5 JUMP JUMPDEST SWAP3 POP POP PUSH1 0x80 DUP6 ADD MLOAD PUSH8 0xFFFFFFFFFFFFFFFF DUP2 GT ISZERO PUSH2 0xDEC JUMPI PUSH2 0xDEB PUSH2 0x46F JUMP JUMPDEST JUMPDEST PUSH2 0xDF8 DUP8 DUP3 DUP9 ADD PUSH2 0xD53 JUMP JUMPDEST SWAP2 POP POP SWAP3 SWAP6 SWAP2 SWAP5 POP SWAP3 POP JUMP INVALID LOG2 PUSH5 0x6970667358 0x22 SLT KECCAK256 0xE0 SHL LOG4 0xDA SWAP1 LOG1 0xCD 0xAF PUSH31 0x859053042A42ECEE473A2E8D3766B7B3015FE006C4B25464736F6C63430008 SLT STOP CALLER "
		},
		"gasEstimates": {
			"creation": {
				"codeDepositCost": "728400",
				"executionCost": "infinite",
				"totalCost": "infinite"
			},
			"external": {
				"decode(bytes)": "infinite",
				"encode()": "infinite",
				"encodePacked()": "infinite",
				"encodeWithSelector()": "infinite",
				"encodeWithSignature()": "infinite"
			}
		},
		"methodIdentifiers": {
			"decode(bytes)": "e5c5e9a3",
			"encode()": "bd14598f",
			"encodePacked()": "53d9c506",
			"encodeWithSelector()": "d1bd363d",
			"encodeWithSignature()": "e4f2a84a"
		}
	},
	"abi": [
		{
			"inputs": [
				{
					"internalType": "bytes",
					"name": "_data",
					"type": "bytes"
				}
			],
			"name": "decode",
			"outputs": [
				{
					"internalType": "uint8",
					"name": "",
					"type": "uint8"
				},
				{
					"internalType": "address",
					"name": "",
					"type": "address"
				},
				{
					"internalType": "uint256[2]",
					"name": "",
					"type": "uint256[2]"
				},
				{
					"internalType": "string",
					"name": "",
					"type": "string"
				}
			],
			"stateMutability": "pure",
			"type": "function"
		},
		{
			"inputs": [],
			"name": "encode",
			"outputs": [
				{
					"internalType": "bytes",
					"name": "",
					"type": "bytes"
				}
			],
			"stateMutability": "view",
			"type": "function"
		},
		{
			"inputs": [],
			"name": "encodePacked",
			"outputs": [
				{
					"internalType": "bytes",
					"name": "",
					"type": "bytes"
				}
			],
			"stateMutability": "view",
			"type": "function"
		},
		{
			"inputs": [],
			"name": "encodeWithSelector",
			"outputs": [
				{
					"internalType": "bytes",
					"name": "",
					"type": "bytes"
				}
			],
			"stateMutability": "view",
			"type": "function"
		},
		{
			"inputs": [],
			"name": "encodeWithSignature",
			"outputs": [
				{
					"internalType": "bytes",
					"name": "",
					"type": "bytes"
				}
			],
			"stateMutability": "view",
			"type": "function"
		}
	]
}