{
	"data": {
		"bytecode": {
			"linkReferences": {},
			"object": "608060405260008055610101600160006101000a81548161ffff021916908361ffff160217905550607b600160026101000a81548160ff021916908360ff16021790555034801561004f57600080fd5b506102ed8061005f6000396000f3fe608060405234801561001057600080fd5b506004361061004c5760003560e01c806301dca4ff146100515780630dbe671f1461006d5780634df7e3d01461008b578063c3da42b8146100a9575b600080fd5b61006b600480360381019061006691906101e6565b6100c7565b005b61007561010b565b6040516100829190610248565b60405180910390f35b610093610111565b6040516100a09190610272565b60405180910390f35b6100b1610125565b6040516100be919061029c565b60405180910390f35b8260008190555081600160006101000a81548161ffff021916908361ffff16021790555080600160026101000a81548160ff021916908360ff160217905550505050565b60005481565b600160009054906101000a900461ffff1681565b600160029054906101000a900460ff1681565b600080fd5b6000819050919050565b6101508161013d565b811461015b57600080fd5b50565b60008135905061016d81610147565b92915050565b600061ffff82169050919050565b61018a81610173565b811461019557600080fd5b50565b6000813590506101a781610181565b92915050565b600060ff82169050919050565b6101c3816101ad565b81146101ce57600080fd5b50565b6000813590506101e0816101ba565b92915050565b6000806000606084860312156101ff576101fe610138565b5b600061020d8682870161015e565b935050602061021e86828701610198565b925050604061022f868287016101d1565b9150509250925092565b6102428161013d565b82525050565b600060208201905061025d6000830184610239565b92915050565b61026c81610173565b82525050565b60006020820190506102876000830184610263565b92915050565b610296816101ad565b82525050565b60006020820190506102b1600083018461028d565b9291505056fea2646970667358221220219e8efe24208e029c86c5e56e1990a4cc7a3434288d75453977c9568e0d691f64736f6c63430008120033",
			"opcodes": "PUSH1 0x80 PUSH1 0x40 MSTORE PUSH1 0x0 DUP1 SSTORE PUSH2 0x101 PUSH1 0x1 PUSH1 0x0 PUSH2 0x100 EXP DUP2 SLOAD DUP2 PUSH2 0xFFFF MUL NOT AND SWAP1 DUP4 PUSH2 0xFFFF AND MUL OR SWAP1 SSTORE POP PUSH1 0x7B PUSH1 0x1 PUSH1 0x2 PUSH2 0x100 EXP DUP2 SLOAD DUP2 PUSH1 0xFF MUL NOT AND SWAP1 DUP4 PUSH1 0xFF AND MUL OR SWAP1 SSTORE POP CALLVALUE DUP1 ISZERO PUSH2 0x4F JUMPI PUSH1 0x0 DUP1 REVERT JUMPDEST POP PUSH2 0x2ED DUP1 PUSH2 0x5F PUSH1 0x0 CODECOPY PUSH1 0x0 RETURN INVALID PUSH1 0x80 PUSH1 0x40 MSTORE CALLVALUE DUP1 ISZERO PUSH2 0x10 JUMPI PUSH1 0x0 DUP1 REVERT JUMPDEST POP PUSH1 0x4 CALLDATASIZE LT PUSH2 0x4C JUMPI PUSH1 0x0 CALLDATALOAD PUSH1 0xE0 SHR DUP1 PUSH4 0x1DCA4FF EQ PUSH2 0x51 JUMPI DUP1 PUSH4 0xDBE671F EQ PUSH2 0x6D JUMPI DUP1 PUSH4 0x4DF7E3D0 EQ PUSH2 0x8B JUMPI DUP1 PUSH4 0xC3DA42B8 EQ PUSH2 0xA9 JUMPI JUMPDEST PUSH1 0x0 DUP1 REVERT JUMPDEST PUSH2 0x6B PUSH1 0x4 DUP1 CALLDATASIZE SUB DUP2 ADD SWAP1 PUSH2 0x66 SWAP2 SWAP1 PUSH2 0x1E6 JUMP JUMPDEST PUSH2 0xC7 JUMP JUMPDEST STOP JUMPDEST PUSH2 0x75 PUSH2 0x10B JUMP JUMPDEST PUSH1 0x40 MLOAD PUSH2 0x82 SWAP2 SWAP1 PUSH2 0x248 JUMP JUMPDEST PUSH1 0x40 MLOAD DUP1 SWAP2 SUB SWAP1 RETURN JUMPDEST PUSH2 0x93 PUSH2 0x111 JUMP JUMPDEST PUSH1 0x40 MLOAD PUSH2 0xA0 SWAP2 SWAP1 PUSH2 0x272 JUMP JUMPDEST PUSH1 0x40 MLOAD DUP1 SWAP2 SUB SWAP1 RETURN JUMPDEST PUSH2 0xB1 PUSH2 0x125 JUMP JUMPDEST PUSH1 0x40 MLOAD PUSH2 0xBE SWAP2 SWAP1 PUSH2 0x29C JUMP JUMPDEST PUSH1 0x40 MLOAD DUP1 SWAP2 SUB SWAP1 RETURN JUMPDEST DUP3 PUSH1 0x0 DUP2 SWAP1 SSTORE POP DUP2 PUSH1 0x1 PUSH1 0x0 PUSH2 0x100 EXP DUP2 SLOAD DUP2 PUSH2 0xFFFF MUL NOT AND SWAP1 DUP4 PUSH2 0xFFFF AND MUL OR SWAP1 SSTORE POP DUP1 PUSH1 0x1 PUSH1 0x2 PUSH2 0x100 EXP DUP2 SLOAD DUP2 PUSH1 0xFF MUL NOT AND SWAP1 DUP4 PUSH1 0xFF AND MUL OR SWAP1 SSTORE POP POP POP POP JUMP JUMPDEST PUSH1 0x0 SLOAD DUP2 JUMP JUMPDEST PUSH1 0x1 PUSH1 0x0 SWAP1 SLOAD SWAP1 PUSH2 0x100 EXP SWAP1 DIV PUSH2 0xFFFF AND DUP2 JUMP JUMPDEST PUSH1 0x1 PUSH1 0x2 SWAP1 SLOAD SWAP1 PUSH2 0x100 EXP SWAP1 DIV PUSH1 0xFF AND DUP2 JUMP JUMPDEST PUSH1 0x0 DUP1 REVERT JUMPDEST PUSH1 0x0 DUP2 SWAP1 POP SWAP2 SWAP1 POP JUMP JUMPDEST PUSH2 0x150 DUP2 PUSH2 0x13D JUMP JUMPDEST DUP2 EQ PUSH2 0x15B JUMPI PUSH1 0x0 DUP1 REVERT JUMPDEST POP JUMP JUMPDEST PUSH1 0x0 DUP2 CALLDATALOAD SWAP1 POP PUSH2 0x16D DUP2 PUSH2 0x147 JUMP JUMPDEST SWAP3 SWAP2 POP POP JUMP JUMPDEST PUSH1 0x0 PUSH2 0xFFFF DUP3 AND SWAP1 POP SWAP2 SWAP1 POP JUMP JUMPDEST PUSH2 0x18A DUP2 PUSH2 0x173 JUMP JUMPDEST DUP2 EQ PUSH2 0x195 JUMPI PUSH1 0x0 DUP1 REVERT JUMPDEST POP JUMP JUMPDEST PUSH1 0x0 DUP2 CALLDATALOAD SWAP1 POP PUSH2 0x1A7 DUP2 PUSH2 0x181 JUMP JUMPDEST SWAP3 SWAP2 POP POP JUMP JUMPDEST PUSH1 0x0 PUSH1 0xFF DUP3 AND SWAP1 POP SWAP2 SWAP1 POP JUMP JUMPDEST PUSH2 0x1C3 DUP2 PUSH2 0x1AD JUMP JUMPDEST DUP2 EQ PUSH2 0x1CE JUMPI PUSH1 0x0 DUP1 REVERT JUMPDEST POP JUMP JUMPDEST PUSH1 0x0 DUP2 CALLDATALOAD SWAP1 POP PUSH2 0x1E0 DUP2 PUSH2 0x1BA JUMP JUMPDEST SWAP3 SWAP2 POP POP JUMP JUMPDEST PUSH1 0x0 DUP1 PUSH1 0x0 PUSH1 0x60 DUP5 DUP7 SUB SLT ISZERO PUSH2 0x1FF JUMPI PUSH2 0x1FE PUSH2 0x138 JUMP JUMPDEST JUMPDEST PUSH1 0x0 PUSH2 0x20D DUP7 DUP3 DUP8 ADD PUSH2 0x15E JUMP JUMPDEST SWAP4 POP POP PUSH1 0x20 PUSH2 0x21E DUP7 DUP3 DUP8 ADD PUSH2 0x198 JUMP JUMPDEST SWAP3 POP POP PUSH1 0x40 PUSH2 0x22F DUP7 DUP3 DUP8 ADD PUSH2 0x1D1 JUMP JUMPDEST SWAP2 POP POP SWAP3 POP SWAP3 POP SWAP3 JUMP JUMPDEST PUSH2 0x242 DUP2 PUSH2 0x13D JUMP JUMPDEST DUP3 MSTORE POP POP JUMP JUMPDEST PUSH1 0x0 PUSH1 0x20 DUP3 ADD SWAP1 POP PUSH2 0x25D PUSH1 0x0 DUP4 ADD DUP5 PUSH2 0x239 JUMP JUMPDEST SWAP3 SWAP2 POP POP JUMP JUMPDEST PUSH2 0x26C DUP2 PUSH2 0x173 JUMP JUMPDEST DUP3 MSTORE POP POP JUMP JUMPDEST PUSH1 0x0 PUSH1 0x20 DUP3 ADD SWAP1 POP PUSH2 0x287 PUSH1 0x0 DUP4 ADD DUP5 PUSH2 0x263 JUMP JUMPDEST SWAP3 SWAP2 POP POP JUMP JUMPDEST PUSH2 0x296 DUP2 PUSH2 0x1AD JUMP JUMPDEST DUP3 MSTORE POP POP JUMP JUMPDEST PUSH1 0x0 PUSH1 0x20 DUP3 ADD SWAP1 POP PUSH2 0x2B1 PUSH1 0x0 DUP4 ADD DUP5 PUSH2 0x28D JUMP JUMPDEST SWAP3 SWAP2 POP POP JUMP INVALID LOG2 PUSH5 0x6970667358 0x22 SLT KECCAK256 0x21 SWAP15 DUP15 INVALID 0x24 KECCAK256 DUP15 MUL SWAP13 DUP7 0xC5 0xE5 PUSH15 0x1990A4CC7A3434288D75453977C956 DUP15 0xD PUSH10 0x1F64736F6C6343000812 STOP CALLER "
		},
		"gasEstimates": {
			"creation": {
				"codeDepositCost": "149800",
				"executionCost": "53786",
				"totalCost": "203586"
			},
			"external": {
				"a()": "2429",
				"b()": "2493",
				"c()": "2565",
				"setA(uint256,uint16,uint8)": "71437"
			}
		},
		"methodIdentifiers": {
			"a()": "0dbe671f",
			"b()": "4df7e3d0",
			"c()": "c3da42b8",
			"setA(uint256,uint16,uint8)": "01dca4ff"
		}
	},
	"abi": [
		{
			"inputs": [],
			"name": "a",
			"outputs": [
				{
					"internalType": "uint256",
					"name": "",
					"type": "uint256"
				}
			],
			"stateMutability": "view",
			"type": "function"
		},
		{
			"inputs": [],
			"name": "b",
			"outputs": [
				{
					"internalType": "uint16",
					"name": "",
					"type": "uint16"
				}
			],
			"stateMutability": "view",
			"type": "function"
		},
		{
			"inputs": [],
			"name": "c",
			"outputs": [
				{
					"internalType": "uint8",
					"name": "",
					"type": "uint8"
				}
			],
			"stateMutability": "view",
			"type": "function"
		},
		{
			"inputs": [
				{
					"internalType": "uint256",
					"name": "newA",
					"type": "uint256"
				},
				{
					"internalType": "uint16",
					"name": "newB",
					"type": "uint16"
				},
				{
					"internalType": "uint8",
					"name": "newC",
					"type": "uint8"
				}
			],
			"name": "setA",
			"outputs": [],
			"stateMutability": "nonpayable",
			"type": "function"
		}
	]
}