{
	"data": {
		"bytecode": {
			"linkReferences": {},
			"object": "6080604052600560015534801561001557600080fd5b5061028f806100256000396000f3fe608060405234801561001057600080fd5b50600436106100575760003560e01c80630b14a1991461005c5780632e52d6061461007a578063abc6d02a14610098578063c2985578146100b6578063e3269bbe146100c0575b600080fd5b6100646100de565b6040516100719190610193565b60405180910390f35b6100826100e4565b60405161008f9190610193565b60405180910390f35b6100a06100ea565b6040516100ad9190610193565b60405180910390f35b6100be61012d565b005b6100c861013d565b6040516100d59190610193565b60405180910390f35b60005481565b60015481565b600080600090506000600154905060005b8181101561012457808361010f91906101dd565b9250808061011c90610211565b9150506100fb565b50819250505090565b6000607b90506000805490505050565b6000806000905060005b60015481101561017257808261015d91906101dd565b9150808061016a90610211565b915050610147565b508091505090565b6000819050919050565b61018d8161017a565b82525050565b60006020820190506101a86000830184610184565b92915050565b7f4e487b7100000000000000000000000000000000000000000000000000000000600052601160045260246000fd5b60006101e88261017a565b91506101f38361017a565b925082820190508082111561020b5761020a6101ae565b5b92915050565b600061021c8261017a565b91507fffffffffffffffffffffffffffffffffffffffffffffffffffffffffffffffff820361024e5761024d6101ae565b5b60018201905091905056fea2646970667358221220b7bdea35a85e6f48165b34922e043137772abfcec505823ebdecf315d12c8c7f64736f6c63430008120033",
			"opcodes": "PUSH1 0x80 PUSH1 0x40 MSTORE PUSH1 0x5 PUSH1 0x1 SSTORE CALLVALUE DUP1 ISZERO PUSH2 0x15 JUMPI PUSH1 0x0 DUP1 REVERT JUMPDEST POP PUSH2 0x28F DUP1 PUSH2 0x25 PUSH1 0x0 CODECOPY PUSH1 0x0 RETURN INVALID PUSH1 0x80 PUSH1 0x40 MSTORE CALLVALUE DUP1 ISZERO PUSH2 0x10 JUMPI PUSH1 0x0 DUP1 REVERT JUMPDEST POP PUSH1 0x4 CALLDATASIZE LT PUSH2 0x57 JUMPI PUSH1 0x0 CALLDATALOAD PUSH1 0xE0 SHR DUP1 PUSH4 0xB14A199 EQ PUSH2 0x5C JUMPI DUP1 PUSH4 0x2E52D606 EQ PUSH2 0x7A JUMPI DUP1 PUSH4 0xABC6D02A EQ PUSH2 0x98 JUMPI DUP1 PUSH4 0xC2985578 EQ PUSH2 0xB6 JUMPI DUP1 PUSH4 0xE3269BBE EQ PUSH2 0xC0 JUMPI JUMPDEST PUSH1 0x0 DUP1 REVERT JUMPDEST PUSH2 0x64 PUSH2 0xDE JUMP JUMPDEST PUSH1 0x40 MLOAD PUSH2 0x71 SWAP2 SWAP1 PUSH2 0x193 JUMP JUMPDEST PUSH1 0x40 MLOAD DUP1 SWAP2 SUB SWAP1 RETURN JUMPDEST PUSH2 0x82 PUSH2 0xE4 JUMP JUMPDEST PUSH1 0x40 MLOAD PUSH2 0x8F SWAP2 SWAP1 PUSH2 0x193 JUMP JUMPDEST PUSH1 0x40 MLOAD DUP1 SWAP2 SUB SWAP1 RETURN JUMPDEST PUSH2 0xA0 PUSH2 0xEA JUMP JUMPDEST PUSH1 0x40 MLOAD PUSH2 0xAD SWAP2 SWAP1 PUSH2 0x193 JUMP JUMPDEST PUSH1 0x40 MLOAD DUP1 SWAP2 SUB SWAP1 RETURN JUMPDEST PUSH2 0xBE PUSH2 0x12D JUMP JUMPDEST STOP JUMPDEST PUSH2 0xC8 PUSH2 0x13D JUMP JUMPDEST PUSH1 0x40 MLOAD PUSH2 0xD5 SWAP2 SWAP1 PUSH2 0x193 JUMP JUMPDEST PUSH1 0x40 MLOAD DUP1 SWAP2 SUB SWAP1 RETURN JUMPDEST PUSH1 0x0 SLOAD DUP2 JUMP JUMPDEST PUSH1 0x1 SLOAD DUP2 JUMP JUMPDEST PUSH1 0x0 DUP1 PUSH1 0x0 SWAP1 POP PUSH1 0x0 PUSH1 0x1 SLOAD SWAP1 POP PUSH1 0x0 JUMPDEST DUP2 DUP2 LT ISZERO PUSH2 0x124 JUMPI DUP1 DUP4 PUSH2 0x10F SWAP2 SWAP1 PUSH2 0x1DD JUMP JUMPDEST SWAP3 POP DUP1 DUP1 PUSH2 0x11C SWAP1 PUSH2 0x211 JUMP JUMPDEST SWAP2 POP POP PUSH2 0xFB JUMP JUMPDEST POP DUP2 SWAP3 POP POP POP SWAP1 JUMP JUMPDEST PUSH1 0x0 PUSH1 0x7B SWAP1 POP PUSH1 0x0 DUP1 SLOAD SWAP1 POP POP POP JUMP JUMPDEST PUSH1 0x0 DUP1 PUSH1 0x0 SWAP1 POP PUSH1 0x0 JUMPDEST PUSH1 0x1 SLOAD DUP2 LT ISZERO PUSH2 0x172 JUMPI DUP1 DUP3 PUSH2 0x15D SWAP2 SWAP1 PUSH2 0x1DD JUMP JUMPDEST SWAP2 POP DUP1 DUP1 PUSH2 0x16A SWAP1 PUSH2 0x211 JUMP JUMPDEST SWAP2 POP POP PUSH2 0x147 JUMP JUMPDEST POP DUP1 SWAP2 POP POP SWAP1 JUMP JUMPDEST PUSH1 0x0 DUP2 SWAP1 POP SWAP2 SWAP1 POP JUMP JUMPDEST PUSH2 0x18D DUP2 PUSH2 0x17A JUMP JUMPDEST DUP3 MSTORE POP POP JUMP JUMPDEST PUSH1 0x0 PUSH1 0x20 DUP3 ADD SWAP1 POP PUSH2 0x1A8 PUSH1 0x0 DUP4 ADD DUP5 PUSH2 0x184 JUMP JUMPDEST SWAP3 SWAP2 POP POP JUMP JUMPDEST PUSH32 0x4E487B7100000000000000000000000000000000000000000000000000000000 PUSH1 0x0 MSTORE PUSH1 0x11 PUSH1 0x4 MSTORE PUSH1 0x24 PUSH1 0x0 REVERT JUMPDEST PUSH1 0x0 PUSH2 0x1E8 DUP3 PUSH2 0x17A JUMP JUMPDEST SWAP2 POP PUSH2 0x1F3 DUP4 PUSH2 0x17A JUMP JUMPDEST SWAP3 POP DUP3 DUP3 ADD SWAP1 POP DUP1 DUP3 GT ISZERO PUSH2 0x20B JUMPI PUSH2 0x20A PUSH2 0x1AE JUMP JUMPDEST JUMPDEST SWAP3 SWAP2 POP POP JUMP JUMPDEST PUSH1 0x0 PUSH2 0x21C DUP3 PUSH2 0x17A JUMP JUMPDEST SWAP2 POP PUSH32 0xFFFFFFFFFFFFFFFFFFFFFFFFFFFFFFFFFFFFFFFFFFFFFFFFFFFFFFFFFFFFFFFF DUP3 SUB PUSH2 0x24E JUMPI PUSH2 0x24D PUSH2 0x1AE JUMP JUMPDEST JUMPDEST PUSH1 0x1 DUP3 ADD SWAP1 POP SWAP2 SWAP1 POP JUMP INVALID LOG2 PUSH5 0x6970667358 0x22 SLT KECCAK256 0xB7 0xBD 0xEA CALLDATALOAD 0xA8 0x5E PUSH16 0x48165B34922E043137772ABFCEC50582 RETURNDATACOPY 0xBD 0xEC RETURN ISZERO 0xD1 0x2C DUP13 PUSH32 0x64736F6C63430008120033000000000000000000000000000000000000000000 "
		},
		"gasEstimates": {
			"creation": {
				"codeDepositCost": "131000",
				"executionCost": "22283",
				"totalCost": "153283"
			},
			"external": {
				"foo()": "2314",
				"n()": "2429",
				"noCache()": "infinite",
				"someStorageData()": "2407",
				"withCache()": "infinite"
			}
		},
		"methodIdentifiers": {
			"foo()": "c2985578",
			"n()": "2e52d606",
			"noCache()": "e3269bbe",
			"someStorageData()": "0b14a199",
			"withCache()": "abc6d02a"
		}
	},
	"abi": [
		{
			"inputs": [],
			"name": "foo",
			"outputs": [],
			"stateMutability": "nonpayable",
			"type": "function"
		},
		{
			"inputs": [],
			"name": "n",
			"outputs": [
				{
					"internalType": "uint256",
					"name": "",
					"type": "uint256"
				}
			],
			"stateMutability": "view",
			"type": "function"
		},
		{
			"inputs": [],
			"name": "noCache",
			"outputs": [
				{
					"internalType": "uint256",
					"name": "",
					"type": "uint256"
				}
			],
			"stateMutability": "view",
			"type": "function"
		},
		{
			"inputs": [],
			"name": "someStorageData",
			"outputs": [
				{
					"internalType": "uint256",
					"name": "",
					"type": "uint256"
				}
			],
			"stateMutability": "view",
			"type": "function"
		},
		{
			"inputs": [],
			"name": "withCache",
			"outputs": [
				{
					"internalType": "uint256",
					"name": "",
					"type": "uint256"
				}
			],
			"stateMutability": "view",
			"type": "function"
		}
	]
}