{
	"appworks_blockchain_batch2/contracts/wk4/call_chains/CallerCallee.sol": {
		"Caller": {
			"abi": [
				{
					"inputs": [],
					"name": "addrs",
					"outputs": [
						{
							"internalType": "address",
							"name": "calleeSender",
							"type": "address"
						},
						{
							"internalType": "address",
							"name": "calleeOrigin",
							"type": "address"
						},
						{
							"internalType": "address",
							"name": "thisSender",
							"type": "address"
						},
						{
							"internalType": "address",
							"name": "thisOrigin",
							"type": "address"
						}
					],
					"stateMutability": "view",
					"type": "function"
				},
				{
					"inputs": [
						{
							"internalType": "address",
							"name": "_callee",
							"type": "address"
						}
					],
					"name": "getDataFromCallee",
					"outputs": [],
					"stateMutability": "nonpayable",
					"type": "function"
				}
			],
			"devdoc": {
				"kind": "dev",
				"methods": {},
				"version": 1
			},
			"evm": {
				"assembly": "    /* \"appworks_blockchain_batch2/contracts/wk4/call_chains/CallerCallee.sol\":395:869  contract Caller {... */\n  mstore(0x40, 0x80)\n  callvalue\n  dup1\n  iszero\n  tag_1\n  jumpi\n  0x00\n  dup1\n  revert\ntag_1:\n  pop\n  dataSize(sub_0)\n  dup1\n  dataOffset(sub_0)\n  0x00\n  codecopy\n  0x00\n  return\nstop\n\nsub_0: assembly {\n        /* \"appworks_blockchain_batch2/contracts/wk4/call_chains/CallerCallee.sol\":395:869  contract Caller {... */\n      mstore(0x40, 0x80)\n      callvalue\n      dup1\n      iszero\n      tag_1\n      jumpi\n      0x00\n      dup1\n      revert\n    tag_1:\n      pop\n      jumpi(tag_2, lt(calldatasize, 0x04))\n      shr(0xe0, calldataload(0x00))\n      dup1\n      0xcec85cea\n      eq\n      tag_3\n      jumpi\n      dup1\n      0xee305887\n      eq\n      tag_4\n      jumpi\n    tag_2:\n      0x00\n      dup1\n      revert\n        /* \"appworks_blockchain_batch2/contracts/wk4/call_chains/CallerCallee.sol\":559:577  Addrs public addrs */\n    tag_3:\n      tag_5\n      tag_6\n      jump\t// in\n    tag_5:\n      mload(0x40)\n      tag_7\n      swap5\n      swap4\n      swap3\n      swap2\n      swap1\n      tag_8\n      jump\t// in\n    tag_7:\n      mload(0x40)\n      dup1\n      swap2\n      sub\n      swap1\n      return\n        /* \"appworks_blockchain_batch2/contracts/wk4/call_chains/CallerCallee.sol\":584:867  function getDataFromCallee(address _callee) public {... */\n    tag_4:\n      tag_9\n      0x04\n      dup1\n      calldatasize\n      sub\n      dup2\n      add\n      swap1\n      tag_10\n      swap2\n      swap1\n      tag_11\n      jump\t// in\n    tag_10:\n      tag_12\n      jump\t// in\n    tag_9:\n      stop\n        /* \"appworks_blockchain_batch2/contracts/wk4/call_chains/CallerCallee.sol\":559:577  Addrs public addrs */\n    tag_6:\n      0x00\n      dup1\n      0x00\n      add\n      0x00\n      swap1\n      sload\n      swap1\n      0x0100\n      exp\n      swap1\n      div\n      0xffffffffffffffffffffffffffffffffffffffff\n      and\n      swap1\n      dup1\n      0x01\n      add\n      0x00\n      swap1\n      sload\n      swap1\n      0x0100\n      exp\n      swap1\n      div\n      0xffffffffffffffffffffffffffffffffffffffff\n      and\n      swap1\n      dup1\n      0x02\n      add\n      0x00\n      swap1\n      sload\n      swap1\n      0x0100\n      exp\n      swap1\n      div\n      0xffffffffffffffffffffffffffffffffffffffff\n      and\n      swap1\n      dup1\n      0x03\n      add\n      0x00\n      swap1\n      sload\n      swap1\n      0x0100\n      exp\n      swap1\n      div\n      0xffffffffffffffffffffffffffffffffffffffff\n      and\n      swap1\n      pop\n      dup5\n      jump\t// out\n        /* \"appworks_blockchain_batch2/contracts/wk4/call_chains/CallerCallee.sol\":584:867  function getDataFromCallee(address _callee) public {... */\n    tag_12:\n        /* \"appworks_blockchain_batch2/contracts/wk4/call_chains/CallerCallee.sol\":653:660  _callee */\n      dup1\n        /* \"appworks_blockchain_batch2/contracts/wk4/call_chains/CallerCallee.sol\":645:669  ICallee(_callee).getData */\n      0xffffffffffffffffffffffffffffffffffffffff\n      and\n      0x3bc5de30\n        /* \"appworks_blockchain_batch2/contracts/wk4/call_chains/CallerCallee.sol\":645:671  ICallee(_callee).getData() */\n      mload(0x40)\n      dup2\n      0xffffffff\n      and\n      0xe0\n      shl\n      dup2\n      mstore\n      0x04\n      add\n      0x00\n      mload(0x40)\n      dup1\n      dup4\n      sub\n      dup2\n      0x00\n      dup8\n      dup1\n      extcodesize\n      iszero\n      dup1\n      iszero\n      tag_14\n      jumpi\n      0x00\n      dup1\n      revert\n    tag_14:\n      pop\n      gas\n      call\n      iszero\n      dup1\n      iszero\n      tag_16\n      jumpi\n      returndatasize\n      0x00\n      dup1\n      returndatacopy\n      revert(0x00, returndatasize)\n    tag_16:\n      pop\n      pop\n      pop\n      pop\n        /* \"appworks_blockchain_batch2/contracts/wk4/call_chains/CallerCallee.sol\":710:717  _callee */\n      dup1\n        /* \"appworks_blockchain_batch2/contracts/wk4/call_chains/CallerCallee.sol\":702:725  ICallee(_callee).sender */\n      0xffffffffffffffffffffffffffffffffffffffff\n      and\n      0x67e404ce\n        /* \"appworks_blockchain_batch2/contracts/wk4/call_chains/CallerCallee.sol\":702:727  ICallee(_callee).sender() */\n      mload(0x40)\n      dup2\n      0xffffffff\n      and\n      0xe0\n      shl\n      dup2\n      mstore\n      0x04\n      add\n      0x20\n      mload(0x40)\n      dup1\n      dup4\n      sub\n      dup2\n      dup7\n      gas\n      staticcall\n      iszero\n      dup1\n      iszero\n      tag_18\n      jumpi\n      returndatasize\n      0x00\n      dup1\n      returndatacopy\n      revert(0x00, returndatasize)\n    tag_18:\n      pop\n      pop\n      pop\n      pop\n      mload(0x40)\n      returndatasize\n      not(0x1f)\n      0x1f\n      dup3\n      add\n      and\n      dup3\n      add\n      dup1\n      0x40\n      mstore\n      pop\n      dup2\n      add\n      swap1\n      tag_19\n      swap2\n      swap1\n      tag_20\n      jump\t// in\n    tag_19:\n        /* \"appworks_blockchain_batch2/contracts/wk4/call_chains/CallerCallee.sol\":681:686  addrs */\n      0x00\n        /* \"appworks_blockchain_batch2/contracts/wk4/call_chains/CallerCallee.sol\":681:699  addrs.calleeSender */\n      dup1\n      add\n      0x00\n        /* \"appworks_blockchain_batch2/contracts/wk4/call_chains/CallerCallee.sol\":681:727  addrs.calleeSender = ICallee(_callee).sender() */\n      0x0100\n      exp\n      dup2\n      sload\n      dup2\n      0xffffffffffffffffffffffffffffffffffffffff\n      mul\n      not\n      and\n      swap1\n      dup4\n      0xffffffffffffffffffffffffffffffffffffffff\n      and\n      mul\n      or\n      swap1\n      sstore\n      pop\n        /* \"appworks_blockchain_batch2/contracts/wk4/call_chains/CallerCallee.sol\":766:773  _callee */\n      dup1\n        /* \"appworks_blockchain_batch2/contracts/wk4/call_chains/CallerCallee.sol\":758:781  ICallee(_callee).origin */\n      0xffffffffffffffffffffffffffffffffffffffff\n      and\n      0x938b5f32\n        /* \"appworks_blockchain_batch2/contracts/wk4/call_chains/CallerCallee.sol\":758:783  ICallee(_callee).origin() */\n      mload(0x40)\n      dup2\n      0xffffffff\n      and\n      0xe0\n      shl\n      dup2\n      mstore\n      0x04\n      add\n      0x20\n      mload(0x40)\n      dup1\n      dup4\n      sub\n      dup2\n      dup7\n      gas\n      staticcall\n      iszero\n      dup1\n      iszero\n      tag_22\n      jumpi\n      returndatasize\n      0x00\n      dup1\n      returndatacopy\n      revert(0x00, returndatasize)\n    tag_22:\n      pop\n      pop\n      pop\n      pop\n      mload(0x40)\n      returndatasize\n      not(0x1f)\n      0x1f\n      dup3\n      add\n      and\n      dup3\n      add\n      dup1\n      0x40\n      mstore\n      pop\n      dup2\n      add\n      swap1\n      tag_23\n      swap2\n      swap1\n      tag_20\n      jump\t// in\n    tag_23:\n        /* \"appworks_blockchain_batch2/contracts/wk4/call_chains/CallerCallee.sol\":737:742  addrs */\n      0x00\n        /* \"appworks_blockchain_batch2/contracts/wk4/call_chains/CallerCallee.sol\":737:755  addrs.calleeOrigin */\n      0x01\n      add\n      0x00\n        /* \"appworks_blockchain_batch2/contracts/wk4/call_chains/CallerCallee.sol\":737:783  addrs.calleeOrigin = ICallee(_callee).origin() */\n      0x0100\n      exp\n      dup2\n      sload\n      dup2\n      0xffffffffffffffffffffffffffffffffffffffff\n      mul\n      not\n      and\n      swap1\n      dup4\n      0xffffffffffffffffffffffffffffffffffffffff\n      and\n      mul\n      or\n      swap1\n      sstore\n      pop\n        /* \"appworks_blockchain_batch2/contracts/wk4/call_chains/CallerCallee.sol\":812:822  msg.sender */\n      caller\n        /* \"appworks_blockchain_batch2/contracts/wk4/call_chains/CallerCallee.sol\":793:798  addrs */\n      0x00\n        /* \"appworks_blockchain_batch2/contracts/wk4/call_chains/CallerCallee.sol\":793:809  addrs.thisSender */\n      0x02\n      add\n      0x00\n        /* \"appworks_blockchain_batch2/contracts/wk4/call_chains/CallerCallee.sol\":793:822  addrs.thisSender = msg.sender */\n      0x0100\n      exp\n      dup2\n      sload\n      dup2\n      0xffffffffffffffffffffffffffffffffffffffff\n      mul\n      not\n      and\n      swap1\n      dup4\n      0xffffffffffffffffffffffffffffffffffffffff\n      and\n      mul\n      or\n      swap1\n      sstore\n      pop\n        /* \"appworks_blockchain_batch2/contracts/wk4/call_chains/CallerCallee.sol\":851:860  tx.origin */\n      origin\n        /* \"appworks_blockchain_batch2/contracts/wk4/call_chains/CallerCallee.sol\":832:837  addrs */\n      0x00\n        /* \"appworks_blockchain_batch2/contracts/wk4/call_chains/CallerCallee.sol\":832:848  addrs.thisOrigin */\n      0x03\n      add\n      0x00\n        /* \"appworks_blockchain_batch2/contracts/wk4/call_chains/CallerCallee.sol\":832:860  addrs.thisOrigin = tx.origin */\n      0x0100\n      exp\n      dup2\n      sload\n      dup2\n      0xffffffffffffffffffffffffffffffffffffffff\n      mul\n      not\n      and\n      swap1\n      dup4\n      0xffffffffffffffffffffffffffffffffffffffff\n      and\n      mul\n      or\n      swap1\n      sstore\n      pop\n        /* \"appworks_blockchain_batch2/contracts/wk4/call_chains/CallerCallee.sol\":584:867  function getDataFromCallee(address _callee) public {... */\n      pop\n      jump\t// out\n        /* \"#utility.yul\":7:133   */\n    tag_24:\n        /* \"#utility.yul\":44:51   */\n      0x00\n        /* \"#utility.yul\":84:126   */\n      0xffffffffffffffffffffffffffffffffffffffff\n        /* \"#utility.yul\":77:82   */\n      dup3\n        /* \"#utility.yul\":73:127   */\n      and\n        /* \"#utility.yul\":62:127   */\n      swap1\n      pop\n        /* \"#utility.yul\":7:133   */\n      swap2\n      swap1\n      pop\n      jump\t// out\n        /* \"#utility.yul\":139:235   */\n    tag_25:\n        /* \"#utility.yul\":176:183   */\n      0x00\n        /* \"#utility.yul\":205:229   */\n      tag_36\n        /* \"#utility.yul\":223:228   */\n      dup3\n        /* \"#utility.yul\":205:229   */\n      tag_24\n      jump\t// in\n    tag_36:\n        /* \"#utility.yul\":194:229   */\n      swap1\n      pop\n        /* \"#utility.yul\":139:235   */\n      swap2\n      swap1\n      pop\n      jump\t// out\n        /* \"#utility.yul\":241:359   */\n    tag_26:\n        /* \"#utility.yul\":328:352   */\n      tag_38\n        /* \"#utility.yul\":346:351   */\n      dup2\n        /* \"#utility.yul\":328:352   */\n      tag_25\n      jump\t// in\n    tag_38:\n        /* \"#utility.yul\":323:326   */\n      dup3\n        /* \"#utility.yul\":316:353   */\n      mstore\n        /* \"#utility.yul\":241:359   */\n      pop\n      pop\n      jump\t// out\n        /* \"#utility.yul\":365:918   */\n    tag_8:\n        /* \"#utility.yul\":542:546   */\n      0x00\n        /* \"#utility.yul\":580:583   */\n      0x80\n        /* \"#utility.yul\":569:578   */\n      dup3\n        /* \"#utility.yul\":565:584   */\n      add\n        /* \"#utility.yul\":557:584   */\n      swap1\n      pop\n        /* \"#utility.yul\":594:665   */\n      tag_40\n        /* \"#utility.yul\":662:663   */\n      0x00\n        /* \"#utility.yul\":651:660   */\n      dup4\n        /* \"#utility.yul\":647:664   */\n      add\n        /* \"#utility.yul\":638:644   */\n      dup8\n        /* \"#utility.yul\":594:665   */\n      tag_26\n      jump\t// in\n    tag_40:\n        /* \"#utility.yul\":675:747   */\n      tag_41\n        /* \"#utility.yul\":743:745   */\n      0x20\n        /* \"#utility.yul\":732:741   */\n      dup4\n        /* \"#utility.yul\":728:746   */\n      add\n        /* \"#utility.yul\":719:725   */\n      dup7\n        /* \"#utility.yul\":675:747   */\n      tag_26\n      jump\t// in\n    tag_41:\n        /* \"#utility.yul\":757:829   */\n      tag_42\n        /* \"#utility.yul\":825:827   */\n      0x40\n        /* \"#utility.yul\":814:823   */\n      dup4\n        /* \"#utility.yul\":810:828   */\n      add\n        /* \"#utility.yul\":801:807   */\n      dup6\n        /* \"#utility.yul\":757:829   */\n      tag_26\n      jump\t// in\n    tag_42:\n        /* \"#utility.yul\":839:911   */\n      tag_43\n        /* \"#utility.yul\":907:909   */\n      0x60\n        /* \"#utility.yul\":896:905   */\n      dup4\n        /* \"#utility.yul\":892:910   */\n      add\n        /* \"#utility.yul\":883:889   */\n      dup5\n        /* \"#utility.yul\":839:911   */\n      tag_26\n      jump\t// in\n    tag_43:\n        /* \"#utility.yul\":365:918   */\n      swap6\n      swap5\n      pop\n      pop\n      pop\n      pop\n      pop\n      jump\t// out\n        /* \"#utility.yul\":1005:1122   */\n    tag_28:\n        /* \"#utility.yul\":1114:1115   */\n      0x00\n        /* \"#utility.yul\":1111:1112   */\n      dup1\n        /* \"#utility.yul\":1104:1116   */\n      revert\n        /* \"#utility.yul\":1251:1373   */\n    tag_30:\n        /* \"#utility.yul\":1324:1348   */\n      tag_48\n        /* \"#utility.yul\":1342:1347   */\n      dup2\n        /* \"#utility.yul\":1324:1348   */\n      tag_25\n      jump\t// in\n    tag_48:\n        /* \"#utility.yul\":1317:1322   */\n      dup2\n        /* \"#utility.yul\":1314:1349   */\n      eq\n        /* \"#utility.yul\":1304:1367   */\n      tag_49\n      jumpi\n        /* \"#utility.yul\":1363:1364   */\n      0x00\n        /* \"#utility.yul\":1360:1361   */\n      dup1\n        /* \"#utility.yul\":1353:1365   */\n      revert\n        /* \"#utility.yul\":1304:1367   */\n    tag_49:\n        /* \"#utility.yul\":1251:1373   */\n      pop\n      jump\t// out\n        /* \"#utility.yul\":1379:1518   */\n    tag_31:\n        /* \"#utility.yul\":1425:1430   */\n      0x00\n        /* \"#utility.yul\":1463:1469   */\n      dup2\n        /* \"#utility.yul\":1450:1470   */\n      calldataload\n        /* \"#utility.yul\":1441:1470   */\n      swap1\n      pop\n        /* \"#utility.yul\":1479:1512   */\n      tag_51\n        /* \"#utility.yul\":1506:1511   */\n      dup2\n        /* \"#utility.yul\":1479:1512   */\n      tag_30\n      jump\t// in\n    tag_51:\n        /* \"#utility.yul\":1379:1518   */\n      swap3\n      swap2\n      pop\n      pop\n      jump\t// out\n        /* \"#utility.yul\":1524:1853   */\n    tag_11:\n        /* \"#utility.yul\":1583:1589   */\n      0x00\n        /* \"#utility.yul\":1632:1634   */\n      0x20\n        /* \"#utility.yul\":1620:1629   */\n      dup3\n        /* \"#utility.yul\":1611:1618   */\n      dup5\n        /* \"#utility.yul\":1607:1630   */\n      sub\n        /* \"#utility.yul\":1603:1635   */\n      slt\n        /* \"#utility.yul\":1600:1719   */\n      iszero\n      tag_53\n      jumpi\n        /* \"#utility.yul\":1638:1717   */\n      tag_54\n      tag_28\n      jump\t// in\n    tag_54:\n        /* \"#utility.yul\":1600:1719   */\n    tag_53:\n        /* \"#utility.yul\":1758:1759   */\n      0x00\n        /* \"#utility.yul\":1783:1836   */\n      tag_55\n        /* \"#utility.yul\":1828:1835   */\n      dup5\n        /* \"#utility.yul\":1819:1825   */\n      dup3\n        /* \"#utility.yul\":1808:1817   */\n      dup6\n        /* \"#utility.yul\":1804:1826   */\n      add\n        /* \"#utility.yul\":1783:1836   */\n      tag_31\n      jump\t// in\n    tag_55:\n        /* \"#utility.yul\":1773:1836   */\n      swap2\n      pop\n        /* \"#utility.yul\":1729:1846   */\n      pop\n        /* \"#utility.yul\":1524:1853   */\n      swap3\n      swap2\n      pop\n      pop\n      jump\t// out\n        /* \"#utility.yul\":1859:2002   */\n    tag_32:\n        /* \"#utility.yul\":1916:1921   */\n      0x00\n        /* \"#utility.yul\":1947:1953   */\n      dup2\n        /* \"#utility.yul\":1941:1954   */\n      mload\n        /* \"#utility.yul\":1932:1954   */\n      swap1\n      pop\n        /* \"#utility.yul\":1963:1996   */\n      tag_57\n        /* \"#utility.yul\":1990:1995   */\n      dup2\n        /* \"#utility.yul\":1963:1996   */\n      tag_30\n      jump\t// in\n    tag_57:\n        /* \"#utility.yul\":1859:2002   */\n      swap3\n      swap2\n      pop\n      pop\n      jump\t// out\n        /* \"#utility.yul\":2008:2359   */\n    tag_20:\n        /* \"#utility.yul\":2078:2084   */\n      0x00\n        /* \"#utility.yul\":2127:2129   */\n      0x20\n        /* \"#utility.yul\":2115:2124   */\n      dup3\n        /* \"#utility.yul\":2106:2113   */\n      dup5\n        /* \"#utility.yul\":2102:2125   */\n      sub\n        /* \"#utility.yul\":2098:2130   */\n      slt\n        /* \"#utility.yul\":2095:2214   */\n      iszero\n      tag_59\n      jumpi\n        /* \"#utility.yul\":2133:2212   */\n      tag_60\n      tag_28\n      jump\t// in\n    tag_60:\n        /* \"#utility.yul\":2095:2214   */\n    tag_59:\n        /* \"#utility.yul\":2253:2254   */\n      0x00\n        /* \"#utility.yul\":2278:2342   */\n      tag_61\n        /* \"#utility.yul\":2334:2341   */\n      dup5\n        /* \"#utility.yul\":2325:2331   */\n      dup3\n        /* \"#utility.yul\":2314:2323   */\n      dup6\n        /* \"#utility.yul\":2310:2332   */\n      add\n        /* \"#utility.yul\":2278:2342   */\n      tag_32\n      jump\t// in\n    tag_61:\n        /* \"#utility.yul\":2268:2342   */\n      swap2\n      pop\n        /* \"#utility.yul\":2224:2352   */\n      pop\n        /* \"#utility.yul\":2008:2359   */\n      swap3\n      swap2\n      pop\n      pop\n      jump\t// out\n\n    auxdata: 0xa2646970667358221220e40a8402c71994074ad1c3ca57daf9436801a857153637f721b2b1ee4c441bbf64736f6c63430008130033\n}\n",
				"bytecode": {
					"linkReferences": {},
					"object": "608060405234801561001057600080fd5b506104c0806100206000396000f3fe608060405234801561001057600080fd5b50600436106100365760003560e01c8063cec85cea1461003b578063ee3058871461005c575b600080fd5b610043610078565b60405161005394939291906103a5565b60405180910390f35b6100766004803603810190610071919061041b565b610116565b005b60008060000160009054906101000a900473ffffffffffffffffffffffffffffffffffffffff16908060010160009054906101000a900473ffffffffffffffffffffffffffffffffffffffff16908060020160009054906101000a900473ffffffffffffffffffffffffffffffffffffffff16908060030160009054906101000a900473ffffffffffffffffffffffffffffffffffffffff16905084565b8073ffffffffffffffffffffffffffffffffffffffff16633bc5de306040518163ffffffff1660e01b8152600401600060405180830381600087803b15801561015e57600080fd5b505af1158015610172573d6000803e3d6000fd5b505050508073ffffffffffffffffffffffffffffffffffffffff166367e404ce6040518163ffffffff1660e01b8152600401602060405180830381865afa1580156101c1573d6000803e3d6000fd5b505050506040513d601f19601f820116820180604052508101906101e5919061045d565b6000800160006101000a81548173ffffffffffffffffffffffffffffffffffffffff021916908373ffffffffffffffffffffffffffffffffffffffff1602179055508073ffffffffffffffffffffffffffffffffffffffff1663938b5f326040518163ffffffff1660e01b8152600401602060405180830381865afa158015610272573d6000803e3d6000fd5b505050506040513d601f19601f82011682018060405250810190610296919061045d565b600060010160006101000a81548173ffffffffffffffffffffffffffffffffffffffff021916908373ffffffffffffffffffffffffffffffffffffffff16021790555033600060020160006101000a81548173ffffffffffffffffffffffffffffffffffffffff021916908373ffffffffffffffffffffffffffffffffffffffff16021790555032600060030160006101000a81548173ffffffffffffffffffffffffffffffffffffffff021916908373ffffffffffffffffffffffffffffffffffffffff16021790555050565b600073ffffffffffffffffffffffffffffffffffffffff82169050919050565b600061038f82610364565b9050919050565b61039f81610384565b82525050565b60006080820190506103ba6000830187610396565b6103c76020830186610396565b6103d46040830185610396565b6103e16060830184610396565b95945050505050565b600080fd5b6103f881610384565b811461040357600080fd5b50565b600081359050610415816103ef565b92915050565b600060208284031215610431576104306103ea565b5b600061043f84828501610406565b91505092915050565b600081519050610457816103ef565b92915050565b600060208284031215610473576104726103ea565b5b600061048184828501610448565b9150509291505056fea2646970667358221220e40a8402c71994074ad1c3ca57daf9436801a857153637f721b2b1ee4c441bbf64736f6c63430008130033",
					"opcodes": "PUSH1 0x80 PUSH1 0x40 MSTORE CALLVALUE DUP1 ISZERO PUSH2 0x10 JUMPI PUSH1 0x0 DUP1 REVERT JUMPDEST POP PUSH2 0x4C0 DUP1 PUSH2 0x20 PUSH1 0x0 CODECOPY PUSH1 0x0 RETURN INVALID PUSH1 0x80 PUSH1 0x40 MSTORE CALLVALUE DUP1 ISZERO PUSH2 0x10 JUMPI PUSH1 0x0 DUP1 REVERT JUMPDEST POP PUSH1 0x4 CALLDATASIZE LT PUSH2 0x36 JUMPI PUSH1 0x0 CALLDATALOAD PUSH1 0xE0 SHR DUP1 PUSH4 0xCEC85CEA EQ PUSH2 0x3B JUMPI DUP1 PUSH4 0xEE305887 EQ PUSH2 0x5C JUMPI JUMPDEST PUSH1 0x0 DUP1 REVERT JUMPDEST PUSH2 0x43 PUSH2 0x78 JUMP JUMPDEST PUSH1 0x40 MLOAD PUSH2 0x53 SWAP5 SWAP4 SWAP3 SWAP2 SWAP1 PUSH2 0x3A5 JUMP JUMPDEST PUSH1 0x40 MLOAD DUP1 SWAP2 SUB SWAP1 RETURN JUMPDEST PUSH2 0x76 PUSH1 0x4 DUP1 CALLDATASIZE SUB DUP2 ADD SWAP1 PUSH2 0x71 SWAP2 SWAP1 PUSH2 0x41B JUMP JUMPDEST PUSH2 0x116 JUMP JUMPDEST STOP JUMPDEST PUSH1 0x0 DUP1 PUSH1 0x0 ADD PUSH1 0x0 SWAP1 SLOAD SWAP1 PUSH2 0x100 EXP SWAP1 DIV PUSH20 0xFFFFFFFFFFFFFFFFFFFFFFFFFFFFFFFFFFFFFFFF AND SWAP1 DUP1 PUSH1 0x1 ADD PUSH1 0x0 SWAP1 SLOAD SWAP1 PUSH2 0x100 EXP SWAP1 DIV PUSH20 0xFFFFFFFFFFFFFFFFFFFFFFFFFFFFFFFFFFFFFFFF AND SWAP1 DUP1 PUSH1 0x2 ADD PUSH1 0x0 SWAP1 SLOAD SWAP1 PUSH2 0x100 EXP SWAP1 DIV PUSH20 0xFFFFFFFFFFFFFFFFFFFFFFFFFFFFFFFFFFFFFFFF AND SWAP1 DUP1 PUSH1 0x3 ADD PUSH1 0x0 SWAP1 SLOAD SWAP1 PUSH2 0x100 EXP SWAP1 DIV PUSH20 0xFFFFFFFFFFFFFFFFFFFFFFFFFFFFFFFFFFFFFFFF AND SWAP1 POP DUP5 JUMP JUMPDEST DUP1 PUSH20 0xFFFFFFFFFFFFFFFFFFFFFFFFFFFFFFFFFFFFFFFF AND PUSH4 0x3BC5DE30 PUSH1 0x40 MLOAD DUP2 PUSH4 0xFFFFFFFF AND PUSH1 0xE0 SHL DUP2 MSTORE PUSH1 0x4 ADD PUSH1 0x0 PUSH1 0x40 MLOAD DUP1 DUP4 SUB DUP2 PUSH1 0x0 DUP8 DUP1 EXTCODESIZE ISZERO DUP1 ISZERO PUSH2 0x15E JUMPI PUSH1 0x0 DUP1 REVERT JUMPDEST POP GAS CALL ISZERO DUP1 ISZERO PUSH2 0x172 JUMPI RETURNDATASIZE PUSH1 0x0 DUP1 RETURNDATACOPY RETURNDATASIZE PUSH1 0x0 REVERT JUMPDEST POP POP POP POP DUP1 PUSH20 0xFFFFFFFFFFFFFFFFFFFFFFFFFFFFFFFFFFFFFFFF AND PUSH4 0x67E404CE PUSH1 0x40 MLOAD DUP2 PUSH4 0xFFFFFFFF AND PUSH1 0xE0 SHL DUP2 MSTORE PUSH1 0x4 ADD PUSH1 0x20 PUSH1 0x40 MLOAD DUP1 DUP4 SUB DUP2 DUP7 GAS STATICCALL ISZERO DUP1 ISZERO PUSH2 0x1C1 JUMPI RETURNDATASIZE PUSH1 0x0 DUP1 RETURNDATACOPY RETURNDATASIZE PUSH1 0x0 REVERT JUMPDEST POP POP POP POP PUSH1 0x40 MLOAD RETURNDATASIZE PUSH1 0x1F NOT PUSH1 0x1F DUP3 ADD AND DUP3 ADD DUP1 PUSH1 0x40 MSTORE POP DUP2 ADD SWAP1 PUSH2 0x1E5 SWAP2 SWAP1 PUSH2 0x45D JUMP JUMPDEST PUSH1 0x0 DUP1 ADD PUSH1 0x0 PUSH2 0x100 EXP DUP2 SLOAD DUP2 PUSH20 0xFFFFFFFFFFFFFFFFFFFFFFFFFFFFFFFFFFFFFFFF MUL NOT AND SWAP1 DUP4 PUSH20 0xFFFFFFFFFFFFFFFFFFFFFFFFFFFFFFFFFFFFFFFF AND MUL OR SWAP1 SSTORE POP DUP1 PUSH20 0xFFFFFFFFFFFFFFFFFFFFFFFFFFFFFFFFFFFFFFFF AND PUSH4 0x938B5F32 PUSH1 0x40 MLOAD DUP2 PUSH4 0xFFFFFFFF AND PUSH1 0xE0 SHL DUP2 MSTORE PUSH1 0x4 ADD PUSH1 0x20 PUSH1 0x40 MLOAD DUP1 DUP4 SUB DUP2 DUP7 GAS STATICCALL ISZERO DUP1 ISZERO PUSH2 0x272 JUMPI RETURNDATASIZE PUSH1 0x0 DUP1 RETURNDATACOPY RETURNDATASIZE PUSH1 0x0 REVERT JUMPDEST POP POP POP POP PUSH1 0x40 MLOAD RETURNDATASIZE PUSH1 0x1F NOT PUSH1 0x1F DUP3 ADD AND DUP3 ADD DUP1 PUSH1 0x40 MSTORE POP DUP2 ADD SWAP1 PUSH2 0x296 SWAP2 SWAP1 PUSH2 0x45D JUMP JUMPDEST PUSH1 0x0 PUSH1 0x1 ADD PUSH1 0x0 PUSH2 0x100 EXP DUP2 SLOAD DUP2 PUSH20 0xFFFFFFFFFFFFFFFFFFFFFFFFFFFFFFFFFFFFFFFF MUL NOT AND SWAP1 DUP4 PUSH20 0xFFFFFFFFFFFFFFFFFFFFFFFFFFFFFFFFFFFFFFFF AND MUL OR SWAP1 SSTORE POP CALLER PUSH1 0x0 PUSH1 0x2 ADD PUSH1 0x0 PUSH2 0x100 EXP DUP2 SLOAD DUP2 PUSH20 0xFFFFFFFFFFFFFFFFFFFFFFFFFFFFFFFFFFFFFFFF MUL NOT AND SWAP1 DUP4 PUSH20 0xFFFFFFFFFFFFFFFFFFFFFFFFFFFFFFFFFFFFFFFF AND MUL OR SWAP1 SSTORE POP ORIGIN PUSH1 0x0 PUSH1 0x3 ADD PUSH1 0x0 PUSH2 0x100 EXP DUP2 SLOAD DUP2 PUSH20 0xFFFFFFFFFFFFFFFFFFFFFFFFFFFFFFFFFFFFFFFF MUL NOT AND SWAP1 DUP4 PUSH20 0xFFFFFFFFFFFFFFFFFFFFFFFFFFFFFFFFFFFFFFFF AND MUL OR SWAP1 SSTORE POP POP JUMP JUMPDEST PUSH1 0x0 PUSH20 0xFFFFFFFFFFFFFFFFFFFFFFFFFFFFFFFFFFFFFFFF DUP3 AND SWAP1 POP SWAP2 SWAP1 POP JUMP JUMPDEST PUSH1 0x0 PUSH2 0x38F DUP3 PUSH2 0x364 JUMP JUMPDEST SWAP1 POP SWAP2 SWAP1 POP JUMP JUMPDEST PUSH2 0x39F DUP2 PUSH2 0x384 JUMP JUMPDEST DUP3 MSTORE POP POP JUMP JUMPDEST PUSH1 0x0 PUSH1 0x80 DUP3 ADD SWAP1 POP PUSH2 0x3BA PUSH1 0x0 DUP4 ADD DUP8 PUSH2 0x396 JUMP JUMPDEST PUSH2 0x3C7 PUSH1 0x20 DUP4 ADD DUP7 PUSH2 0x396 JUMP JUMPDEST PUSH2 0x3D4 PUSH1 0x40 DUP4 ADD DUP6 PUSH2 0x396 JUMP JUMPDEST PUSH2 0x3E1 PUSH1 0x60 DUP4 ADD DUP5 PUSH2 0x396 JUMP JUMPDEST SWAP6 SWAP5 POP POP POP POP POP JUMP JUMPDEST PUSH1 0x0 DUP1 REVERT JUMPDEST PUSH2 0x3F8 DUP2 PUSH2 0x384 JUMP JUMPDEST DUP2 EQ PUSH2 0x403 JUMPI PUSH1 0x0 DUP1 REVERT JUMPDEST POP JUMP JUMPDEST PUSH1 0x0 DUP2 CALLDATALOAD SWAP1 POP PUSH2 0x415 DUP2 PUSH2 0x3EF JUMP JUMPDEST SWAP3 SWAP2 POP POP JUMP JUMPDEST PUSH1 0x0 PUSH1 0x20 DUP3 DUP5 SUB SLT ISZERO PUSH2 0x431 JUMPI PUSH2 0x430 PUSH2 0x3EA JUMP JUMPDEST JUMPDEST PUSH1 0x0 PUSH2 0x43F DUP5 DUP3 DUP6 ADD PUSH2 0x406 JUMP JUMPDEST SWAP2 POP POP SWAP3 SWAP2 POP POP JUMP JUMPDEST PUSH1 0x0 DUP2 MLOAD SWAP1 POP PUSH2 0x457 DUP2 PUSH2 0x3EF JUMP JUMPDEST SWAP3 SWAP2 POP POP JUMP JUMPDEST PUSH1 0x0 PUSH1 0x20 DUP3 DUP5 SUB SLT ISZERO PUSH2 0x473 JUMPI PUSH2 0x472 PUSH2 0x3EA JUMP JUMPDEST JUMPDEST PUSH1 0x0 PUSH2 0x481 DUP5 DUP3 DUP6 ADD PUSH2 0x448 JUMP JUMPDEST SWAP2 POP POP SWAP3 SWAP2 POP POP JUMP INVALID LOG2 PUSH5 0x6970667358 0x22 SLT KECCAK256 0xE4 EXP DUP5 MUL 0xC7 NOT SWAP5 SMOD 0x4A 0xD1 0xC3 0xCA JUMPI 0xDA 0xF9 NUMBER PUSH9 0x1A857153637F721B2 0xB1 0xEE 0x4C PREVRANDAO SHL 0xBF PUSH5 0x736F6C6343 STOP ADDMOD SGT STOP CALLER "
				},
				"gasEstimates": {
					"creation": {
						"codeDepositCost": "243200",
						"executionCost": "281",
						"totalCost": "243481"
					},
					"external": {
						"addrs()": "infinite",
						"getDataFromCallee(address)": "infinite"
					}
				},
				"methodIdentifiers": {
					"addrs()": "cec85cea",
					"getDataFromCallee(address)": "ee305887"
				}
			},
			"storageLayout": {
				"storage": [
					{
						"astId": 46,
						"contract": "appworks_blockchain_batch2/contracts/wk4/call_chains/CallerCallee.sol:Caller",
						"label": "addrs",
						"offset": 0,
						"slot": "0",
						"type": "t_struct(Addrs)43_storage"
					}
				],
				"types": {
					"t_address": {
						"encoding": "inplace",
						"label": "address",
						"numberOfBytes": "20"
					},
					"t_struct(Addrs)43_storage": {
						"encoding": "inplace",
						"label": "struct Caller.Addrs",
						"members": [
							{
								"astId": 36,
								"contract": "appworks_blockchain_batch2/contracts/wk4/call_chains/CallerCallee.sol:Caller",
								"label": "calleeSender",
								"offset": 0,
								"slot": "0",
								"type": "t_address"
							},
							{
								"astId": 38,
								"contract": "appworks_blockchain_batch2/contracts/wk4/call_chains/CallerCallee.sol:Caller",
								"label": "calleeOrigin",
								"offset": 0,
								"slot": "1",
								"type": "t_address"
							},
							{
								"astId": 40,
								"contract": "appworks_blockchain_batch2/contracts/wk4/call_chains/CallerCallee.sol:Caller",
								"label": "thisSender",
								"offset": 0,
								"slot": "2",
								"type": "t_address"
							},
							{
								"astId": 42,
								"contract": "appworks_blockchain_batch2/contracts/wk4/call_chains/CallerCallee.sol:Caller",
								"label": "thisOrigin",
								"offset": 0,
								"slot": "3",
								"type": "t_address"
							}
						],
						"numberOfBytes": "128"
					}
				}
			},
			"userdoc": {
				"kind": "user",
				"methods": {},
				"version": 1
			}
		}
	}
}