{
	"appworks_blockchain_batch2/contracts/wk4/call_chains/CallerCallee.sol": {
		"AnotherCaller": {
			"abi": [
				{
					"inputs": [
						{
							"internalType": "uint256",
							"name": "",
							"type": "uint256"
						}
					],
					"name": "addrs",
					"outputs": [
						{
							"internalType": "address",
							"name": "",
							"type": "address"
						}
					],
					"stateMutability": "view",
					"type": "function"
				},
				{
					"inputs": [
						{
							"internalType": "address",
							"name": "_caller",
							"type": "address"
						}
					],
					"name": "getDataFromCaller",
					"outputs": [],
					"stateMutability": "nonpayable",
					"type": "function"
				}
			],
			"devdoc": {
				"kind": "dev",
				"methods": {},
				"version": 1
			},
			"evm": {
				"assembly": "    /* \"appworks_blockchain_batch2/contracts/wk4/call_chains/CallerCallee.sol\":1136:1603  contract AnotherCaller {... */\n  mstore(0x40, 0x80)\n  callvalue\n  dup1\n  iszero\n  tag_1\n  jumpi\n  0x00\n  dup1\n  revert\ntag_1:\n  pop\n  dataSize(sub_0)\n  dup1\n  dataOffset(sub_0)\n  0x00\n  codecopy\n  0x00\n  return\nstop\n\nsub_0: assembly {\n        /* \"appworks_blockchain_batch2/contracts/wk4/call_chains/CallerCallee.sol\":1136:1603  contract AnotherCaller {... */\n      mstore(0x40, 0x80)\n      callvalue\n      dup1\n      iszero\n      tag_1\n      jumpi\n      0x00\n      dup1\n      revert\n    tag_1:\n      pop\n      jumpi(tag_2, lt(calldatasize, 0x04))\n      shr(0xe0, calldataload(0x00))\n      dup1\n      0x371eb669\n      eq\n      tag_3\n      jumpi\n      dup1\n      0x4ca01756\n      eq\n      tag_4\n      jumpi\n    tag_2:\n      0x00\n      dup1\n      revert\n        /* \"appworks_blockchain_batch2/contracts/wk4/call_chains/CallerCallee.sol\":1165:1188  address[6] public addrs */\n    tag_3:\n      tag_5\n      0x04\n      dup1\n      calldatasize\n      sub\n      dup2\n      add\n      swap1\n      tag_6\n      swap2\n      swap1\n      tag_7\n      jump\t// in\n    tag_6:\n      tag_8\n      jump\t// in\n    tag_5:\n      mload(0x40)\n      tag_9\n      swap2\n      swap1\n      tag_10\n      jump\t// in\n    tag_9:\n      mload(0x40)\n      dup1\n      swap2\n      sub\n      swap1\n      return\n        /* \"appworks_blockchain_batch2/contracts/wk4/call_chains/CallerCallee.sol\":1195:1601  function getDataFromCaller(address _caller) public {... */\n    tag_4:\n      tag_11\n      0x04\n      dup1\n      calldatasize\n      sub\n      dup2\n      add\n      swap1\n      tag_12\n      swap2\n      swap1\n      tag_13\n      jump\t// in\n    tag_12:\n      tag_14\n      jump\t// in\n    tag_11:\n      stop\n        /* \"appworks_blockchain_batch2/contracts/wk4/call_chains/CallerCallee.sol\":1165:1188  address[6] public addrs */\n    tag_8:\n      0x00\n      dup2\n      0x06\n      dup2\n      lt\n      tag_15\n      jumpi\n      0x00\n      dup1\n      revert\n    tag_15:\n      add\n      0x00\n      swap2\n      pop\n      sload\n      swap1\n      0x0100\n      exp\n      swap1\n      div\n      0xffffffffffffffffffffffffffffffffffffffff\n      and\n      dup2\n      jump\t// out\n        /* \"appworks_blockchain_batch2/contracts/wk4/call_chains/CallerCallee.sol\":1195:1601  function getDataFromCaller(address _caller) public {... */\n    tag_14:\n        /* \"appworks_blockchain_batch2/contracts/wk4/call_chains/CallerCallee.sol\":1264:1271  _caller */\n      dup1\n        /* \"appworks_blockchain_batch2/contracts/wk4/call_chains/CallerCallee.sol\":1256:1290  ICaller(_caller).getDataFromCallee */\n      0xffffffffffffffffffffffffffffffffffffffff\n      and\n      0x996c66c7\n        /* \"appworks_blockchain_batch2/contracts/wk4/call_chains/CallerCallee.sol\":1256:1292  ICaller(_caller).getDataFromCallee() */\n      mload(0x40)\n      dup2\n      0xffffffff\n      and\n      0xe0\n      shl\n      dup2\n      mstore\n      0x04\n      add\n      0x00\n      mload(0x40)\n      dup1\n      dup4\n      sub\n      dup2\n      0x00\n      dup8\n      dup1\n      extcodesize\n      iszero\n      dup1\n      iszero\n      tag_18\n      jumpi\n      0x00\n      dup1\n      revert\n    tag_18:\n      pop\n      gas\n      call\n      iszero\n      dup1\n      iszero\n      tag_20\n      jumpi\n      returndatasize\n      0x00\n      dup1\n      returndatacopy\n      revert(0x00, returndatasize)\n    tag_20:\n      pop\n      pop\n      pop\n      pop\n        /* \"appworks_blockchain_batch2/contracts/wk4/call_chains/CallerCallee.sol\":1323:1330  _caller */\n      dup1\n        /* \"appworks_blockchain_batch2/contracts/wk4/call_chains/CallerCallee.sol\":1315:1337  ICaller(_caller).addrs */\n      0xffffffffffffffffffffffffffffffffffffffff\n      and\n      0xcec85cea\n        /* \"appworks_blockchain_batch2/contracts/wk4/call_chains/CallerCallee.sol\":1315:1339  ICaller(_caller).addrs() */\n      mload(0x40)\n      dup2\n      0xffffffff\n      and\n      0xe0\n      shl\n      dup2\n      mstore\n      0x04\n      add\n      0x80\n      mload(0x40)\n      dup1\n      dup4\n      sub\n      dup2\n      dup7\n      gas\n      staticcall\n      iszero\n      dup1\n      iszero\n      tag_22\n      jumpi\n      returndatasize\n      0x00\n      dup1\n      returndatacopy\n      revert(0x00, returndatasize)\n    tag_22:\n      pop\n      pop\n      pop\n      pop\n      mload(0x40)\n      returndatasize\n      not(0x1f)\n      0x1f\n      dup3\n      add\n      and\n      dup3\n      add\n      dup1\n      0x40\n      mstore\n      pop\n      dup2\n      add\n      swap1\n      tag_23\n      swap2\n      swap1\n      tag_24\n      jump\t// in\n    tag_23:\n        /* \"appworks_blockchain_batch2/contracts/wk4/call_chains/CallerCallee.sol\":1315:1352  ICaller(_caller).addrs().calleeSender */\n      0x00\n      add\n      mload\n        /* \"appworks_blockchain_batch2/contracts/wk4/call_chains/CallerCallee.sol\":1303:1308  addrs */\n      0x00\n        /* \"appworks_blockchain_batch2/contracts/wk4/call_chains/CallerCallee.sol\":1309:1310  0 */\n      dup1\n        /* \"appworks_blockchain_batch2/contracts/wk4/call_chains/CallerCallee.sol\":1303:1311  addrs[0] */\n      0x06\n      dup2\n      lt\n      tag_25\n      jumpi\n      tag_26\n      tag_27\n      jump\t// in\n    tag_26:\n    tag_25:\n      add\n      0x00\n        /* \"appworks_blockchain_batch2/contracts/wk4/call_chains/CallerCallee.sol\":1303:1353  addrs[0] = (ICaller(_caller).addrs().calleeSender) */\n      0x0100\n      exp\n      dup2\n      sload\n      dup2\n      0xffffffffffffffffffffffffffffffffffffffff\n      mul\n      not\n      and\n      swap1\n      dup4\n      0xffffffffffffffffffffffffffffffffffffffff\n      and\n      mul\n      or\n      swap1\n      sstore\n      pop\n        /* \"appworks_blockchain_batch2/contracts/wk4/call_chains/CallerCallee.sol\":1383:1390  _caller */\n      dup1\n        /* \"appworks_blockchain_batch2/contracts/wk4/call_chains/CallerCallee.sol\":1375:1397  ICaller(_caller).addrs */\n      0xffffffffffffffffffffffffffffffffffffffff\n      and\n      0xcec85cea\n        /* \"appworks_blockchain_batch2/contracts/wk4/call_chains/CallerCallee.sol\":1375:1399  ICaller(_caller).addrs() */\n      mload(0x40)\n      dup2\n      0xffffffff\n      and\n      0xe0\n      shl\n      dup2\n      mstore\n      0x04\n      add\n      0x80\n      mload(0x40)\n      dup1\n      dup4\n      sub\n      dup2\n      dup7\n      gas\n      staticcall\n      iszero\n      dup1\n      iszero\n      tag_30\n      jumpi\n      returndatasize\n      0x00\n      dup1\n      returndatacopy\n      revert(0x00, returndatasize)\n    tag_30:\n      pop\n      pop\n      pop\n      pop\n      mload(0x40)\n      returndatasize\n      not(0x1f)\n      0x1f\n      dup3\n      add\n      and\n      dup3\n      add\n      dup1\n      0x40\n      mstore\n      pop\n      dup2\n      add\n      swap1\n      tag_31\n      swap2\n      swap1\n      tag_24\n      jump\t// in\n    tag_31:\n        /* \"appworks_blockchain_batch2/contracts/wk4/call_chains/CallerCallee.sol\":1375:1412  ICaller(_caller).addrs().calleeOrigin */\n      0x20\n      add\n      mload\n        /* \"appworks_blockchain_batch2/contracts/wk4/call_chains/CallerCallee.sol\":1363:1368  addrs */\n      0x00\n        /* \"appworks_blockchain_batch2/contracts/wk4/call_chains/CallerCallee.sol\":1369:1370  1 */\n      0x01\n        /* \"appworks_blockchain_batch2/contracts/wk4/call_chains/CallerCallee.sol\":1363:1371  addrs[1] */\n      0x06\n      dup2\n      lt\n      tag_32\n      jumpi\n      tag_33\n      tag_27\n      jump\t// in\n    tag_33:\n    tag_32:\n      add\n      0x00\n        /* \"appworks_blockchain_batch2/contracts/wk4/call_chains/CallerCallee.sol\":1363:1413  addrs[1] = (ICaller(_caller).addrs().calleeOrigin) */\n      0x0100\n      exp\n      dup2\n      sload\n      dup2\n      0xffffffffffffffffffffffffffffffffffffffff\n      mul\n      not\n      and\n      swap1\n      dup4\n      0xffffffffffffffffffffffffffffffffffffffff\n      and\n      mul\n      or\n      swap1\n      sstore\n      pop\n        /* \"appworks_blockchain_batch2/contracts/wk4/call_chains/CallerCallee.sol\":1443:1450  _caller */\n      dup1\n        /* \"appworks_blockchain_batch2/contracts/wk4/call_chains/CallerCallee.sol\":1435:1457  ICaller(_caller).addrs */\n      0xffffffffffffffffffffffffffffffffffffffff\n      and\n      0xcec85cea\n        /* \"appworks_blockchain_batch2/contracts/wk4/call_chains/CallerCallee.sol\":1435:1459  ICaller(_caller).addrs() */\n      mload(0x40)\n      dup2\n      0xffffffff\n      and\n      0xe0\n      shl\n      dup2\n      mstore\n      0x04\n      add\n      0x80\n      mload(0x40)\n      dup1\n      dup4\n      sub\n      dup2\n      dup7\n      gas\n      staticcall\n      iszero\n      dup1\n      iszero\n      tag_36\n      jumpi\n      returndatasize\n      0x00\n      dup1\n      returndatacopy\n      revert(0x00, returndatasize)\n    tag_36:\n      pop\n      pop\n      pop\n      pop\n      mload(0x40)\n      returndatasize\n      not(0x1f)\n      0x1f\n      dup3\n      add\n      and\n      dup3\n      add\n      dup1\n      0x40\n      mstore\n      pop\n      dup2\n      add\n      swap1\n      tag_37\n      swap2\n      swap1\n      tag_24\n      jump\t// in\n    tag_37:\n        /* \"appworks_blockchain_batch2/contracts/wk4/call_chains/CallerCallee.sol\":1435:1470  ICaller(_caller).addrs().thisSender */\n      0x40\n      add\n      mload\n        /* \"appworks_blockchain_batch2/contracts/wk4/call_chains/CallerCallee.sol\":1423:1428  addrs */\n      0x00\n        /* \"appworks_blockchain_batch2/contracts/wk4/call_chains/CallerCallee.sol\":1429:1430  2 */\n      0x02\n        /* \"appworks_blockchain_batch2/contracts/wk4/call_chains/CallerCallee.sol\":1423:1431  addrs[2] */\n      0x06\n      dup2\n      lt\n      tag_38\n      jumpi\n      tag_39\n      tag_27\n      jump\t// in\n    tag_39:\n    tag_38:\n      add\n      0x00\n        /* \"appworks_blockchain_batch2/contracts/wk4/call_chains/CallerCallee.sol\":1423:1471  addrs[2] = (ICaller(_caller).addrs().thisSender) */\n      0x0100\n      exp\n      dup2\n      sload\n      dup2\n      0xffffffffffffffffffffffffffffffffffffffff\n      mul\n      not\n      and\n      swap1\n      dup4\n      0xffffffffffffffffffffffffffffffffffffffff\n      and\n      mul\n      or\n      swap1\n      sstore\n      pop\n        /* \"appworks_blockchain_batch2/contracts/wk4/call_chains/CallerCallee.sol\":1501:1508  _caller */\n      dup1\n        /* \"appworks_blockchain_batch2/contracts/wk4/call_chains/CallerCallee.sol\":1493:1515  ICaller(_caller).addrs */\n      0xffffffffffffffffffffffffffffffffffffffff\n      and\n      0xcec85cea\n        /* \"appworks_blockchain_batch2/contracts/wk4/call_chains/CallerCallee.sol\":1493:1517  ICaller(_caller).addrs() */\n      mload(0x40)\n      dup2\n      0xffffffff\n      and\n      0xe0\n      shl\n      dup2\n      mstore\n      0x04\n      add\n      0x80\n      mload(0x40)\n      dup1\n      dup4\n      sub\n      dup2\n      dup7\n      gas\n      staticcall\n      iszero\n      dup1\n      iszero\n      tag_42\n      jumpi\n      returndatasize\n      0x00\n      dup1\n      returndatacopy\n      revert(0x00, returndatasize)\n    tag_42:\n      pop\n      pop\n      pop\n      pop\n      mload(0x40)\n      returndatasize\n      not(0x1f)\n      0x1f\n      dup3\n      add\n      and\n      dup3\n      add\n      dup1\n      0x40\n      mstore\n      pop\n      dup2\n      add\n      swap1\n      tag_43\n      swap2\n      swap1\n      tag_24\n      jump\t// in\n    tag_43:\n        /* \"appworks_blockchain_batch2/contracts/wk4/call_chains/CallerCallee.sol\":1493:1528  ICaller(_caller).addrs().thisOrigin */\n      0x60\n      add\n      mload\n        /* \"appworks_blockchain_batch2/contracts/wk4/call_chains/CallerCallee.sol\":1481:1486  addrs */\n      0x00\n        /* \"appworks_blockchain_batch2/contracts/wk4/call_chains/CallerCallee.sol\":1487:1488  3 */\n      0x03\n        /* \"appworks_blockchain_batch2/contracts/wk4/call_chains/CallerCallee.sol\":1481:1489  addrs[3] */\n      0x06\n      dup2\n      lt\n      tag_44\n      jumpi\n      tag_45\n      tag_27\n      jump\t// in\n    tag_45:\n    tag_44:\n      add\n      0x00\n        /* \"appworks_blockchain_batch2/contracts/wk4/call_chains/CallerCallee.sol\":1481:1529  addrs[3] = (ICaller(_caller).addrs().thisOrigin) */\n      0x0100\n      exp\n      dup2\n      sload\n      dup2\n      0xffffffffffffffffffffffffffffffffffffffff\n      mul\n      not\n      and\n      swap1\n      dup4\n      0xffffffffffffffffffffffffffffffffffffffff\n      and\n      mul\n      or\n      swap1\n      sstore\n      pop\n        /* \"appworks_blockchain_batch2/contracts/wk4/call_chains/CallerCallee.sol\":1551:1561  msg.sender */\n      caller\n        /* \"appworks_blockchain_batch2/contracts/wk4/call_chains/CallerCallee.sol\":1539:1544  addrs */\n      0x00\n        /* \"appworks_blockchain_batch2/contracts/wk4/call_chains/CallerCallee.sol\":1545:1546  4 */\n      0x04\n        /* \"appworks_blockchain_batch2/contracts/wk4/call_chains/CallerCallee.sol\":1539:1547  addrs[4] */\n      0x06\n      dup2\n      lt\n      tag_47\n      jumpi\n      tag_48\n      tag_27\n      jump\t// in\n    tag_48:\n    tag_47:\n      add\n      0x00\n        /* \"appworks_blockchain_batch2/contracts/wk4/call_chains/CallerCallee.sol\":1539:1562  addrs[4] = (msg.sender) */\n      0x0100\n      exp\n      dup2\n      sload\n      dup2\n      0xffffffffffffffffffffffffffffffffffffffff\n      mul\n      not\n      and\n      swap1\n      dup4\n      0xffffffffffffffffffffffffffffffffffffffff\n      and\n      mul\n      or\n      swap1\n      sstore\n      pop\n        /* \"appworks_blockchain_batch2/contracts/wk4/call_chains/CallerCallee.sol\":1584:1593  tx.origin */\n      origin\n        /* \"appworks_blockchain_batch2/contracts/wk4/call_chains/CallerCallee.sol\":1572:1577  addrs */\n      0x00\n        /* \"appworks_blockchain_batch2/contracts/wk4/call_chains/CallerCallee.sol\":1578:1579  5 */\n      0x05\n        /* \"appworks_blockchain_batch2/contracts/wk4/call_chains/CallerCallee.sol\":1572:1580  addrs[5] */\n      0x06\n      dup2\n      lt\n      tag_50\n      jumpi\n      tag_51\n      tag_27\n      jump\t// in\n    tag_51:\n    tag_50:\n      add\n      0x00\n        /* \"appworks_blockchain_batch2/contracts/wk4/call_chains/CallerCallee.sol\":1572:1594  addrs[5] = (tx.origin) */\n      0x0100\n      exp\n      dup2\n      sload\n      dup2\n      0xffffffffffffffffffffffffffffffffffffffff\n      mul\n      not\n      and\n      swap1\n      dup4\n      0xffffffffffffffffffffffffffffffffffffffff\n      and\n      mul\n      or\n      swap1\n      sstore\n      pop\n        /* \"appworks_blockchain_batch2/contracts/wk4/call_chains/CallerCallee.sol\":1195:1601  function getDataFromCaller(address _caller) public {... */\n      pop\n      jump\t// out\n        /* \"#utility.yul\":7:82   */\n    tag_53:\n        /* \"#utility.yul\":40:46   */\n      0x00\n        /* \"#utility.yul\":73:75   */\n      0x40\n        /* \"#utility.yul\":67:76   */\n      mload\n        /* \"#utility.yul\":57:76   */\n      swap1\n      pop\n        /* \"#utility.yul\":7:82   */\n      swap1\n      jump\t// out\n        /* \"#utility.yul\":88:205   */\n    tag_54:\n        /* \"#utility.yul\":197:198   */\n      0x00\n        /* \"#utility.yul\":194:195   */\n      dup1\n        /* \"#utility.yul\":187:199   */\n      revert\n        /* \"#utility.yul\":334:411   */\n    tag_56:\n        /* \"#utility.yul\":371:378   */\n      0x00\n        /* \"#utility.yul\":400:405   */\n      dup2\n        /* \"#utility.yul\":389:405   */\n      swap1\n      pop\n        /* \"#utility.yul\":334:411   */\n      swap2\n      swap1\n      pop\n      jump\t// out\n        /* \"#utility.yul\":417:539   */\n    tag_57:\n        /* \"#utility.yul\":490:514   */\n      tag_78\n        /* \"#utility.yul\":508:513   */\n      dup2\n        /* \"#utility.yul\":490:514   */\n      tag_56\n      jump\t// in\n    tag_78:\n        /* \"#utility.yul\":483:488   */\n      dup2\n        /* \"#utility.yul\":480:515   */\n      eq\n        /* \"#utility.yul\":470:533   */\n      tag_79\n      jumpi\n        /* \"#utility.yul\":529:530   */\n      0x00\n        /* \"#utility.yul\":526:527   */\n      dup1\n        /* \"#utility.yul\":519:531   */\n      revert\n        /* \"#utility.yul\":470:533   */\n    tag_79:\n        /* \"#utility.yul\":417:539   */\n      pop\n      jump\t// out\n        /* \"#utility.yul\":545:684   */\n    tag_58:\n        /* \"#utility.yul\":591:596   */\n      0x00\n        /* \"#utility.yul\":629:635   */\n      dup2\n        /* \"#utility.yul\":616:636   */\n      calldataload\n        /* \"#utility.yul\":607:636   */\n      swap1\n      pop\n        /* \"#utility.yul\":645:678   */\n      tag_81\n        /* \"#utility.yul\":672:677   */\n      dup2\n        /* \"#utility.yul\":645:678   */\n      tag_57\n      jump\t// in\n    tag_81:\n        /* \"#utility.yul\":545:684   */\n      swap3\n      swap2\n      pop\n      pop\n      jump\t// out\n        /* \"#utility.yul\":690:1019   */\n    tag_7:\n        /* \"#utility.yul\":749:755   */\n      0x00\n        /* \"#utility.yul\":798:800   */\n      0x20\n        /* \"#utility.yul\":786:795   */\n      dup3\n        /* \"#utility.yul\":777:784   */\n      dup5\n        /* \"#utility.yul\":773:796   */\n      sub\n        /* \"#utility.yul\":769:801   */\n      slt\n        /* \"#utility.yul\":766:885   */\n      iszero\n      tag_83\n      jumpi\n        /* \"#utility.yul\":804:883   */\n      tag_84\n      tag_54\n      jump\t// in\n    tag_84:\n        /* \"#utility.yul\":766:885   */\n    tag_83:\n        /* \"#utility.yul\":924:925   */\n      0x00\n        /* \"#utility.yul\":949:1002   */\n      tag_85\n        /* \"#utility.yul\":994:1001   */\n      dup5\n        /* \"#utility.yul\":985:991   */\n      dup3\n        /* \"#utility.yul\":974:983   */\n      dup6\n        /* \"#utility.yul\":970:992   */\n      add\n        /* \"#utility.yul\":949:1002   */\n      tag_58\n      jump\t// in\n    tag_85:\n        /* \"#utility.yul\":939:1002   */\n      swap2\n      pop\n        /* \"#utility.yul\":895:1012   */\n      pop\n        /* \"#utility.yul\":690:1019   */\n      swap3\n      swap2\n      pop\n      pop\n      jump\t// out\n        /* \"#utility.yul\":1025:1151   */\n    tag_59:\n        /* \"#utility.yul\":1062:1069   */\n      0x00\n        /* \"#utility.yul\":1102:1144   */\n      0xffffffffffffffffffffffffffffffffffffffff\n        /* \"#utility.yul\":1095:1100   */\n      dup3\n        /* \"#utility.yul\":1091:1145   */\n      and\n        /* \"#utility.yul\":1080:1145   */\n      swap1\n      pop\n        /* \"#utility.yul\":1025:1151   */\n      swap2\n      swap1\n      pop\n      jump\t// out\n        /* \"#utility.yul\":1157:1253   */\n    tag_60:\n        /* \"#utility.yul\":1194:1201   */\n      0x00\n        /* \"#utility.yul\":1223:1247   */\n      tag_88\n        /* \"#utility.yul\":1241:1246   */\n      dup3\n        /* \"#utility.yul\":1223:1247   */\n      tag_59\n      jump\t// in\n    tag_88:\n        /* \"#utility.yul\":1212:1247   */\n      swap1\n      pop\n        /* \"#utility.yul\":1157:1253   */\n      swap2\n      swap1\n      pop\n      jump\t// out\n        /* \"#utility.yul\":1259:1377   */\n    tag_61:\n        /* \"#utility.yul\":1346:1370   */\n      tag_90\n        /* \"#utility.yul\":1364:1369   */\n      dup2\n        /* \"#utility.yul\":1346:1370   */\n      tag_60\n      jump\t// in\n    tag_90:\n        /* \"#utility.yul\":1341:1344   */\n      dup3\n        /* \"#utility.yul\":1334:1371   */\n      mstore\n        /* \"#utility.yul\":1259:1377   */\n      pop\n      pop\n      jump\t// out\n        /* \"#utility.yul\":1383:1605   */\n    tag_10:\n        /* \"#utility.yul\":1476:1480   */\n      0x00\n        /* \"#utility.yul\":1514:1516   */\n      0x20\n        /* \"#utility.yul\":1503:1512   */\n      dup3\n        /* \"#utility.yul\":1499:1517   */\n      add\n        /* \"#utility.yul\":1491:1517   */\n      swap1\n      pop\n        /* \"#utility.yul\":1527:1598   */\n      tag_92\n        /* \"#utility.yul\":1595:1596   */\n      0x00\n        /* \"#utility.yul\":1584:1593   */\n      dup4\n        /* \"#utility.yul\":1580:1597   */\n      add\n        /* \"#utility.yul\":1571:1577   */\n      dup5\n        /* \"#utility.yul\":1527:1598   */\n      tag_61\n      jump\t// in\n    tag_92:\n        /* \"#utility.yul\":1383:1605   */\n      swap3\n      swap2\n      pop\n      pop\n      jump\t// out\n        /* \"#utility.yul\":1611:1733   */\n    tag_62:\n        /* \"#utility.yul\":1684:1708   */\n      tag_94\n        /* \"#utility.yul\":1702:1707   */\n      dup2\n        /* \"#utility.yul\":1684:1708   */\n      tag_60\n      jump\t// in\n    tag_94:\n        /* \"#utility.yul\":1677:1682   */\n      dup2\n        /* \"#utility.yul\":1674:1709   */\n      eq\n        /* \"#utility.yul\":1664:1727   */\n      tag_95\n      jumpi\n        /* \"#utility.yul\":1723:1724   */\n      0x00\n        /* \"#utility.yul\":1720:1721   */\n      dup1\n        /* \"#utility.yul\":1713:1725   */\n      revert\n        /* \"#utility.yul\":1664:1727   */\n    tag_95:\n        /* \"#utility.yul\":1611:1733   */\n      pop\n      jump\t// out\n        /* \"#utility.yul\":1739:1878   */\n    tag_63:\n        /* \"#utility.yul\":1785:1790   */\n      0x00\n        /* \"#utility.yul\":1823:1829   */\n      dup2\n        /* \"#utility.yul\":1810:1830   */\n      calldataload\n        /* \"#utility.yul\":1801:1830   */\n      swap1\n      pop\n        /* \"#utility.yul\":1839:1872   */\n      tag_97\n        /* \"#utility.yul\":1866:1871   */\n      dup2\n        /* \"#utility.yul\":1839:1872   */\n      tag_62\n      jump\t// in\n    tag_97:\n        /* \"#utility.yul\":1739:1878   */\n      swap3\n      swap2\n      pop\n      pop\n      jump\t// out\n        /* \"#utility.yul\":1884:2213   */\n    tag_13:\n        /* \"#utility.yul\":1943:1949   */\n      0x00\n        /* \"#utility.yul\":1992:1994   */\n      0x20\n        /* \"#utility.yul\":1980:1989   */\n      dup3\n        /* \"#utility.yul\":1971:1978   */\n      dup5\n        /* \"#utility.yul\":1967:1990   */\n      sub\n        /* \"#utility.yul\":1963:1995   */\n      slt\n        /* \"#utility.yul\":1960:2079   */\n      iszero\n      tag_99\n      jumpi\n        /* \"#utility.yul\":1998:2077   */\n      tag_100\n      tag_54\n      jump\t// in\n    tag_100:\n        /* \"#utility.yul\":1960:2079   */\n    tag_99:\n        /* \"#utility.yul\":2118:2119   */\n      0x00\n        /* \"#utility.yul\":2143:2196   */\n      tag_101\n        /* \"#utility.yul\":2188:2195   */\n      dup5\n        /* \"#utility.yul\":2179:2185   */\n      dup3\n        /* \"#utility.yul\":2168:2177   */\n      dup6\n        /* \"#utility.yul\":2164:2186   */\n      add\n        /* \"#utility.yul\":2143:2196   */\n      tag_63\n      jump\t// in\n    tag_101:\n        /* \"#utility.yul\":2133:2196   */\n      swap2\n      pop\n        /* \"#utility.yul\":2089:2206   */\n      pop\n        /* \"#utility.yul\":1884:2213   */\n      swap3\n      swap2\n      pop\n      pop\n      jump\t// out\n        /* \"#utility.yul\":2219:2336   */\n    tag_64:\n        /* \"#utility.yul\":2328:2329   */\n      0x00\n        /* \"#utility.yul\":2325:2326   */\n      dup1\n        /* \"#utility.yul\":2318:2330   */\n      revert\n        /* \"#utility.yul\":2342:2444   */\n    tag_65:\n        /* \"#utility.yul\":2383:2389   */\n      0x00\n        /* \"#utility.yul\":2434:2436   */\n      0x1f\n        /* \"#utility.yul\":2430:2437   */\n      not\n        /* \"#utility.yul\":2425:2427   */\n      0x1f\n        /* \"#utility.yul\":2418:2423   */\n      dup4\n        /* \"#utility.yul\":2414:2428   */\n      add\n        /* \"#utility.yul\":2410:2438   */\n      and\n        /* \"#utility.yul\":2400:2438   */\n      swap1\n      pop\n        /* \"#utility.yul\":2342:2444   */\n      swap2\n      swap1\n      pop\n      jump\t// out\n        /* \"#utility.yul\":2450:2630   */\n    tag_66:\n        /* \"#utility.yul\":2498:2575   */\n      0x4e487b7100000000000000000000000000000000000000000000000000000000\n        /* \"#utility.yul\":2495:2496   */\n      0x00\n        /* \"#utility.yul\":2488:2576   */\n      mstore\n        /* \"#utility.yul\":2595:2599   */\n      0x41\n        /* \"#utility.yul\":2592:2593   */\n      0x04\n        /* \"#utility.yul\":2585:2600   */\n      mstore\n        /* \"#utility.yul\":2619:2623   */\n      0x24\n        /* \"#utility.yul\":2616:2617   */\n      0x00\n        /* \"#utility.yul\":2609:2624   */\n      revert\n        /* \"#utility.yul\":2636:2917   */\n    tag_67:\n        /* \"#utility.yul\":2719:2746   */\n      tag_106\n        /* \"#utility.yul\":2741:2745   */\n      dup3\n        /* \"#utility.yul\":2719:2746   */\n      tag_65\n      jump\t// in\n    tag_106:\n        /* \"#utility.yul\":2711:2717   */\n      dup2\n        /* \"#utility.yul\":2707:2747   */\n      add\n        /* \"#utility.yul\":2849:2855   */\n      dup2\n        /* \"#utility.yul\":2837:2847   */\n      dup2\n        /* \"#utility.yul\":2834:2856   */\n      lt\n        /* \"#utility.yul\":2813:2831   */\n      0xffffffffffffffff\n        /* \"#utility.yul\":2801:2811   */\n      dup3\n        /* \"#utility.yul\":2798:2832   */\n      gt\n        /* \"#utility.yul\":2795:2857   */\n      or\n        /* \"#utility.yul\":2792:2880   */\n      iszero\n      tag_107\n      jumpi\n        /* \"#utility.yul\":2860:2878   */\n      tag_108\n      tag_66\n      jump\t// in\n    tag_108:\n        /* \"#utility.yul\":2792:2880   */\n    tag_107:\n        /* \"#utility.yul\":2900:2910   */\n      dup1\n        /* \"#utility.yul\":2896:2898   */\n      0x40\n        /* \"#utility.yul\":2889:2911   */\n      mstore\n        /* \"#utility.yul\":2679:2917   */\n      pop\n        /* \"#utility.yul\":2636:2917   */\n      pop\n      pop\n      jump\t// out\n        /* \"#utility.yul\":2923:3052   */\n    tag_68:\n        /* \"#utility.yul\":2957:2963   */\n      0x00\n        /* \"#utility.yul\":2984:3004   */\n      tag_110\n      tag_53\n      jump\t// in\n    tag_110:\n        /* \"#utility.yul\":2974:3004   */\n      swap1\n      pop\n        /* \"#utility.yul\":3013:3046   */\n      tag_111\n        /* \"#utility.yul\":3041:3045   */\n      dup3\n        /* \"#utility.yul\":3033:3039   */\n      dup3\n        /* \"#utility.yul\":3013:3046   */\n      tag_67\n      jump\t// in\n    tag_111:\n        /* \"#utility.yul\":2923:3052   */\n      swap2\n      swap1\n      pop\n      jump\t// out\n        /* \"#utility.yul\":3181:3324   */\n    tag_70:\n        /* \"#utility.yul\":3238:3243   */\n      0x00\n        /* \"#utility.yul\":3269:3275   */\n      dup2\n        /* \"#utility.yul\":3263:3276   */\n      mload\n        /* \"#utility.yul\":3254:3276   */\n      swap1\n      pop\n        /* \"#utility.yul\":3285:3318   */\n      tag_114\n        /* \"#utility.yul\":3312:3317   */\n      dup2\n        /* \"#utility.yul\":3285:3318   */\n      tag_62\n      jump\t// in\n    tag_114:\n        /* \"#utility.yul\":3181:3324   */\n      swap3\n      swap2\n      pop\n      pop\n      jump\t// out\n        /* \"#utility.yul\":3358:4334   */\n    tag_71:\n        /* \"#utility.yul\":3440:3445   */\n      0x00\n        /* \"#utility.yul\":3484:3488   */\n      0x80\n        /* \"#utility.yul\":3472:3481   */\n      dup3\n        /* \"#utility.yul\":3467:3470   */\n      dup5\n        /* \"#utility.yul\":3463:3482   */\n      sub\n        /* \"#utility.yul\":3459:3489   */\n      slt\n        /* \"#utility.yul\":3456:3573   */\n      iszero\n      tag_116\n      jumpi\n        /* \"#utility.yul\":3492:3571   */\n      tag_117\n      tag_64\n      jump\t// in\n    tag_117:\n        /* \"#utility.yul\":3456:3573   */\n    tag_116:\n        /* \"#utility.yul\":3591:3612   */\n      tag_118\n        /* \"#utility.yul\":3607:3611   */\n      0x80\n        /* \"#utility.yul\":3591:3612   */\n      tag_68\n      jump\t// in\n    tag_118:\n        /* \"#utility.yul\":3582:3612   */\n      swap1\n      pop\n        /* \"#utility.yul\":3679:3680   */\n      0x00\n        /* \"#utility.yul\":3719:3779   */\n      tag_119\n        /* \"#utility.yul\":3775:3778   */\n      dup5\n        /* \"#utility.yul\":3766:3772   */\n      dup3\n        /* \"#utility.yul\":3755:3764   */\n      dup6\n        /* \"#utility.yul\":3751:3773   */\n      add\n        /* \"#utility.yul\":3719:3779   */\n      tag_70\n      jump\t// in\n    tag_119:\n        /* \"#utility.yul\":3712:3716   */\n      0x00\n        /* \"#utility.yul\":3705:3710   */\n      dup4\n        /* \"#utility.yul\":3701:3717   */\n      add\n        /* \"#utility.yul\":3694:3780   */\n      mstore\n        /* \"#utility.yul\":3622:3791   */\n      pop\n        /* \"#utility.yul\":3858:3860   */\n      0x20\n        /* \"#utility.yul\":3899:3959   */\n      tag_120\n        /* \"#utility.yul\":3955:3958   */\n      dup5\n        /* \"#utility.yul\":3946:3952   */\n      dup3\n        /* \"#utility.yul\":3935:3944   */\n      dup6\n        /* \"#utility.yul\":3931:3953   */\n      add\n        /* \"#utility.yul\":3899:3959   */\n      tag_70\n      jump\t// in\n    tag_120:\n        /* \"#utility.yul\":3892:3896   */\n      0x20\n        /* \"#utility.yul\":3885:3890   */\n      dup4\n        /* \"#utility.yul\":3881:3897   */\n      add\n        /* \"#utility.yul\":3874:3960   */\n      mstore\n        /* \"#utility.yul\":3801:3971   */\n      pop\n        /* \"#utility.yul\":4036:4038   */\n      0x40\n        /* \"#utility.yul\":4077:4137   */\n      tag_121\n        /* \"#utility.yul\":4133:4136   */\n      dup5\n        /* \"#utility.yul\":4124:4130   */\n      dup3\n        /* \"#utility.yul\":4113:4122   */\n      dup6\n        /* \"#utility.yul\":4109:4131   */\n      add\n        /* \"#utility.yul\":4077:4137   */\n      tag_70\n      jump\t// in\n    tag_121:\n        /* \"#utility.yul\":4070:4074   */\n      0x40\n        /* \"#utility.yul\":4063:4068   */\n      dup4\n        /* \"#utility.yul\":4059:4075   */\n      add\n        /* \"#utility.yul\":4052:4138   */\n      mstore\n        /* \"#utility.yul\":3981:4149   */\n      pop\n        /* \"#utility.yul\":4214:4216   */\n      0x60\n        /* \"#utility.yul\":4255:4315   */\n      tag_122\n        /* \"#utility.yul\":4311:4314   */\n      dup5\n        /* \"#utility.yul\":4302:4308   */\n      dup3\n        /* \"#utility.yul\":4291:4300   */\n      dup6\n        /* \"#utility.yul\":4287:4309   */\n      add\n        /* \"#utility.yul\":4255:4315   */\n      tag_70\n      jump\t// in\n    tag_122:\n        /* \"#utility.yul\":4248:4252   */\n      0x60\n        /* \"#utility.yul\":4241:4246   */\n      dup4\n        /* \"#utility.yul\":4237:4253   */\n      add\n        /* \"#utility.yul\":4230:4316   */\n      mstore\n        /* \"#utility.yul\":4159:4327   */\n      pop\n        /* \"#utility.yul\":3358:4334   */\n      swap3\n      swap2\n      pop\n      pop\n      jump\t// out\n        /* \"#utility.yul\":4340:4736   */\n    tag_24:\n        /* \"#utility.yul\":4432:4438   */\n      0x00\n        /* \"#utility.yul\":4481:4484   */\n      0x80\n        /* \"#utility.yul\":4469:4478   */\n      dup3\n        /* \"#utility.yul\":4460:4467   */\n      dup5\n        /* \"#utility.yul\":4456:4479   */\n      sub\n        /* \"#utility.yul\":4452:4485   */\n      slt\n        /* \"#utility.yul\":4449:4569   */\n      iszero\n      tag_124\n      jumpi\n        /* \"#utility.yul\":4488:4567   */\n      tag_125\n      tag_54\n      jump\t// in\n    tag_125:\n        /* \"#utility.yul\":4449:4569   */\n    tag_124:\n        /* \"#utility.yul\":4608:4609   */\n      0x00\n        /* \"#utility.yul\":4633:4719   */\n      tag_126\n        /* \"#utility.yul\":4711:4718   */\n      dup5\n        /* \"#utility.yul\":4702:4708   */\n      dup3\n        /* \"#utility.yul\":4691:4700   */\n      dup6\n        /* \"#utility.yul\":4687:4709   */\n      add\n        /* \"#utility.yul\":4633:4719   */\n      tag_71\n      jump\t// in\n    tag_126:\n        /* \"#utility.yul\":4623:4719   */\n      swap2\n      pop\n        /* \"#utility.yul\":4579:4729   */\n      pop\n        /* \"#utility.yul\":4340:4736   */\n      swap3\n      swap2\n      pop\n      pop\n      jump\t// out\n        /* \"#utility.yul\":4742:4922   */\n    tag_27:\n        /* \"#utility.yul\":4790:4867   */\n      0x4e487b7100000000000000000000000000000000000000000000000000000000\n        /* \"#utility.yul\":4787:4788   */\n      0x00\n        /* \"#utility.yul\":4780:4868   */\n      mstore\n        /* \"#utility.yul\":4887:4891   */\n      0x32\n        /* \"#utility.yul\":4884:4885   */\n      0x04\n        /* \"#utility.yul\":4877:4892   */\n      mstore\n        /* \"#utility.yul\":4911:4915   */\n      0x24\n        /* \"#utility.yul\":4908:4909   */\n      0x00\n        /* \"#utility.yul\":4901:4916   */\n      revert\n\n    auxdata: 0xa26469706673582212205cbf23b150a0684848e192a6e79c5ab479441638f8f370081da880045b5521c464736f6c63430008130033\n}\n",
				"bytecode": {
					"linkReferences": {},
					"object": "608060405234801561001057600080fd5b506107bc806100206000396000f3fe608060405234801561001057600080fd5b50600436106100365760003560e01c8063371eb6691461003b5780634ca017561461006b575b600080fd5b6100556004803603810190610050919061052a565b610087565b6040516100629190610598565b60405180910390f35b610085600480360381019061008091906105df565b6100bd565b005b6000816006811061009757600080fd5b016000915054906101000a900473ffffffffffffffffffffffffffffffffffffffff1681565b8073ffffffffffffffffffffffffffffffffffffffff1663996c66c76040518163ffffffff1660e01b8152600401600060405180830381600087803b15801561010557600080fd5b505af1158015610119573d6000803e3d6000fd5b505050508073ffffffffffffffffffffffffffffffffffffffff1663cec85cea6040518163ffffffff1660e01b8152600401608060405180830381865afa158015610168573d6000803e3d6000fd5b505050506040513d601f19601f8201168201806040525081019061018c919061072a565b60000151600080600681106101a4576101a3610757565b5b0160006101000a81548173ffffffffffffffffffffffffffffffffffffffff021916908373ffffffffffffffffffffffffffffffffffffffff1602179055508073ffffffffffffffffffffffffffffffffffffffff1663cec85cea6040518163ffffffff1660e01b8152600401608060405180830381865afa15801561022e573d6000803e3d6000fd5b505050506040513d601f19601f82011682018060405250810190610252919061072a565b60200151600060016006811061026b5761026a610757565b5b0160006101000a81548173ffffffffffffffffffffffffffffffffffffffff021916908373ffffffffffffffffffffffffffffffffffffffff1602179055508073ffffffffffffffffffffffffffffffffffffffff1663cec85cea6040518163ffffffff1660e01b8152600401608060405180830381865afa1580156102f5573d6000803e3d6000fd5b505050506040513d601f19601f82011682018060405250810190610319919061072a565b60400151600060026006811061033257610331610757565b5b0160006101000a81548173ffffffffffffffffffffffffffffffffffffffff021916908373ffffffffffffffffffffffffffffffffffffffff1602179055508073ffffffffffffffffffffffffffffffffffffffff1663cec85cea6040518163ffffffff1660e01b8152600401608060405180830381865afa1580156103bc573d6000803e3d6000fd5b505050506040513d601f19601f820116820180604052508101906103e0919061072a565b6060015160006003600681106103f9576103f8610757565b5b0160006101000a81548173ffffffffffffffffffffffffffffffffffffffff021916908373ffffffffffffffffffffffffffffffffffffffff16021790555033600060046006811061044e5761044d610757565b5b0160006101000a81548173ffffffffffffffffffffffffffffffffffffffff021916908373ffffffffffffffffffffffffffffffffffffffff1602179055503260006005600681106104a3576104a2610757565b5b0160006101000a81548173ffffffffffffffffffffffffffffffffffffffff021916908373ffffffffffffffffffffffffffffffffffffffff16021790555050565b6000604051905090565b600080fd5b6000819050919050565b610507816104f4565b811461051257600080fd5b50565b600081359050610524816104fe565b92915050565b6000602082840312156105405761053f6104ef565b5b600061054e84828501610515565b91505092915050565b600073ffffffffffffffffffffffffffffffffffffffff82169050919050565b600061058282610557565b9050919050565b61059281610577565b82525050565b60006020820190506105ad6000830184610589565b92915050565b6105bc81610577565b81146105c757600080fd5b50565b6000813590506105d9816105b3565b92915050565b6000602082840312156105f5576105f46104ef565b5b6000610603848285016105ca565b91505092915050565b600080fd5b6000601f19601f8301169050919050565b7f4e487b7100000000000000000000000000000000000000000000000000000000600052604160045260246000fd5b61065a82610611565b810181811067ffffffffffffffff8211171561067957610678610622565b5b80604052505050565b600061068c6104e5565b90506106988282610651565b919050565b6000815190506106ac816105b3565b92915050565b6000608082840312156106c8576106c761060c565b5b6106d26080610682565b905060006106e28482850161069d565b60008301525060206106f68482850161069d565b602083015250604061070a8482850161069d565b604083015250606061071e8482850161069d565b60608301525092915050565b6000608082840312156107405761073f6104ef565b5b600061074e848285016106b2565b91505092915050565b7f4e487b7100000000000000000000000000000000000000000000000000000000600052603260045260246000fdfea26469706673582212205cbf23b150a0684848e192a6e79c5ab479441638f8f370081da880045b5521c464736f6c63430008130033",
					"opcodes": "PUSH1 0x80 PUSH1 0x40 MSTORE CALLVALUE DUP1 ISZERO PUSH2 0x10 JUMPI PUSH1 0x0 DUP1 REVERT JUMPDEST POP PUSH2 0x7BC DUP1 PUSH2 0x20 PUSH1 0x0 CODECOPY PUSH1 0x0 RETURN INVALID PUSH1 0x80 PUSH1 0x40 MSTORE CALLVALUE DUP1 ISZERO PUSH2 0x10 JUMPI PUSH1 0x0 DUP1 REVERT JUMPDEST POP PUSH1 0x4 CALLDATASIZE LT PUSH2 0x36 JUMPI PUSH1 0x0 CALLDATALOAD PUSH1 0xE0 SHR DUP1 PUSH4 0x371EB669 EQ PUSH2 0x3B JUMPI DUP1 PUSH4 0x4CA01756 EQ PUSH2 0x6B JUMPI JUMPDEST PUSH1 0x0 DUP1 REVERT JUMPDEST PUSH2 0x55 PUSH1 0x4 DUP1 CALLDATASIZE SUB DUP2 ADD SWAP1 PUSH2 0x50 SWAP2 SWAP1 PUSH2 0x52A JUMP JUMPDEST PUSH2 0x87 JUMP JUMPDEST PUSH1 0x40 MLOAD PUSH2 0x62 SWAP2 SWAP1 PUSH2 0x598 JUMP JUMPDEST PUSH1 0x40 MLOAD DUP1 SWAP2 SUB SWAP1 RETURN JUMPDEST PUSH2 0x85 PUSH1 0x4 DUP1 CALLDATASIZE SUB DUP2 ADD SWAP1 PUSH2 0x80 SWAP2 SWAP1 PUSH2 0x5DF JUMP JUMPDEST PUSH2 0xBD JUMP JUMPDEST STOP JUMPDEST PUSH1 0x0 DUP2 PUSH1 0x6 DUP2 LT PUSH2 0x97 JUMPI PUSH1 0x0 DUP1 REVERT JUMPDEST ADD PUSH1 0x0 SWAP2 POP SLOAD SWAP1 PUSH2 0x100 EXP SWAP1 DIV PUSH20 0xFFFFFFFFFFFFFFFFFFFFFFFFFFFFFFFFFFFFFFFF AND DUP2 JUMP JUMPDEST DUP1 PUSH20 0xFFFFFFFFFFFFFFFFFFFFFFFFFFFFFFFFFFFFFFFF AND PUSH4 0x996C66C7 PUSH1 0x40 MLOAD DUP2 PUSH4 0xFFFFFFFF AND PUSH1 0xE0 SHL DUP2 MSTORE PUSH1 0x4 ADD PUSH1 0x0 PUSH1 0x40 MLOAD DUP1 DUP4 SUB DUP2 PUSH1 0x0 DUP8 DUP1 EXTCODESIZE ISZERO DUP1 ISZERO PUSH2 0x105 JUMPI PUSH1 0x0 DUP1 REVERT JUMPDEST POP GAS CALL ISZERO DUP1 ISZERO PUSH2 0x119 JUMPI RETURNDATASIZE PUSH1 0x0 DUP1 RETURNDATACOPY RETURNDATASIZE PUSH1 0x0 REVERT JUMPDEST POP POP POP POP DUP1 PUSH20 0xFFFFFFFFFFFFFFFFFFFFFFFFFFFFFFFFFFFFFFFF AND PUSH4 0xCEC85CEA PUSH1 0x40 MLOAD DUP2 PUSH4 0xFFFFFFFF AND PUSH1 0xE0 SHL DUP2 MSTORE PUSH1 0x4 ADD PUSH1 0x80 PUSH1 0x40 MLOAD DUP1 DUP4 SUB DUP2 DUP7 GAS STATICCALL ISZERO DUP1 ISZERO PUSH2 0x168 JUMPI RETURNDATASIZE PUSH1 0x0 DUP1 RETURNDATACOPY RETURNDATASIZE PUSH1 0x0 REVERT JUMPDEST POP POP POP POP PUSH1 0x40 MLOAD RETURNDATASIZE PUSH1 0x1F NOT PUSH1 0x1F DUP3 ADD AND DUP3 ADD DUP1 PUSH1 0x40 MSTORE POP DUP2 ADD SWAP1 PUSH2 0x18C SWAP2 SWAP1 PUSH2 0x72A JUMP JUMPDEST PUSH1 0x0 ADD MLOAD PUSH1 0x0 DUP1 PUSH1 0x6 DUP2 LT PUSH2 0x1A4 JUMPI PUSH2 0x1A3 PUSH2 0x757 JUMP JUMPDEST JUMPDEST ADD PUSH1 0x0 PUSH2 0x100 EXP DUP2 SLOAD DUP2 PUSH20 0xFFFFFFFFFFFFFFFFFFFFFFFFFFFFFFFFFFFFFFFF MUL NOT AND SWAP1 DUP4 PUSH20 0xFFFFFFFFFFFFFFFFFFFFFFFFFFFFFFFFFFFFFFFF AND MUL OR SWAP1 SSTORE POP DUP1 PUSH20 0xFFFFFFFFFFFFFFFFFFFFFFFFFFFFFFFFFFFFFFFF AND PUSH4 0xCEC85CEA PUSH1 0x40 MLOAD DUP2 PUSH4 0xFFFFFFFF AND PUSH1 0xE0 SHL DUP2 MSTORE PUSH1 0x4 ADD PUSH1 0x80 PUSH1 0x40 MLOAD DUP1 DUP4 SUB DUP2 DUP7 GAS STATICCALL ISZERO DUP1 ISZERO PUSH2 0x22E JUMPI RETURNDATASIZE PUSH1 0x0 DUP1 RETURNDATACOPY RETURNDATASIZE PUSH1 0x0 REVERT JUMPDEST POP POP POP POP PUSH1 0x40 MLOAD RETURNDATASIZE PUSH1 0x1F NOT PUSH1 0x1F DUP3 ADD AND DUP3 ADD DUP1 PUSH1 0x40 MSTORE POP DUP2 ADD SWAP1 PUSH2 0x252 SWAP2 SWAP1 PUSH2 0x72A JUMP JUMPDEST PUSH1 0x20 ADD MLOAD PUSH1 0x0 PUSH1 0x1 PUSH1 0x6 DUP2 LT PUSH2 0x26B JUMPI PUSH2 0x26A PUSH2 0x757 JUMP JUMPDEST JUMPDEST ADD PUSH1 0x0 PUSH2 0x100 EXP DUP2 SLOAD DUP2 PUSH20 0xFFFFFFFFFFFFFFFFFFFFFFFFFFFFFFFFFFFFFFFF MUL NOT AND SWAP1 DUP4 PUSH20 0xFFFFFFFFFFFFFFFFFFFFFFFFFFFFFFFFFFFFFFFF AND MUL OR SWAP1 SSTORE POP DUP1 PUSH20 0xFFFFFFFFFFFFFFFFFFFFFFFFFFFFFFFFFFFFFFFF AND PUSH4 0xCEC85CEA PUSH1 0x40 MLOAD DUP2 PUSH4 0xFFFFFFFF AND PUSH1 0xE0 SHL DUP2 MSTORE PUSH1 0x4 ADD PUSH1 0x80 PUSH1 0x40 MLOAD DUP1 DUP4 SUB DUP2 DUP7 GAS STATICCALL ISZERO DUP1 ISZERO PUSH2 0x2F5 JUMPI RETURNDATASIZE PUSH1 0x0 DUP1 RETURNDATACOPY RETURNDATASIZE PUSH1 0x0 REVERT JUMPDEST POP POP POP POP PUSH1 0x40 MLOAD RETURNDATASIZE PUSH1 0x1F NOT PUSH1 0x1F DUP3 ADD AND DUP3 ADD DUP1 PUSH1 0x40 MSTORE POP DUP2 ADD SWAP1 PUSH2 0x319 SWAP2 SWAP1 PUSH2 0x72A JUMP JUMPDEST PUSH1 0x40 ADD MLOAD PUSH1 0x0 PUSH1 0x2 PUSH1 0x6 DUP2 LT PUSH2 0x332 JUMPI PUSH2 0x331 PUSH2 0x757 JUMP JUMPDEST JUMPDEST ADD PUSH1 0x0 PUSH2 0x100 EXP DUP2 SLOAD DUP2 PUSH20 0xFFFFFFFFFFFFFFFFFFFFFFFFFFFFFFFFFFFFFFFF MUL NOT AND SWAP1 DUP4 PUSH20 0xFFFFFFFFFFFFFFFFFFFFFFFFFFFFFFFFFFFFFFFF AND MUL OR SWAP1 SSTORE POP DUP1 PUSH20 0xFFFFFFFFFFFFFFFFFFFFFFFFFFFFFFFFFFFFFFFF AND PUSH4 0xCEC85CEA PUSH1 0x40 MLOAD DUP2 PUSH4 0xFFFFFFFF AND PUSH1 0xE0 SHL DUP2 MSTORE PUSH1 0x4 ADD PUSH1 0x80 PUSH1 0x40 MLOAD DUP1 DUP4 SUB DUP2 DUP7 GAS STATICCALL ISZERO DUP1 ISZERO PUSH2 0x3BC JUMPI RETURNDATASIZE PUSH1 0x0 DUP1 RETURNDATACOPY RETURNDATASIZE PUSH1 0x0 REVERT JUMPDEST POP POP POP POP PUSH1 0x40 MLOAD RETURNDATASIZE PUSH1 0x1F NOT PUSH1 0x1F DUP3 ADD AND DUP3 ADD DUP1 PUSH1 0x40 MSTORE POP DUP2 ADD SWAP1 PUSH2 0x3E0 SWAP2 SWAP1 PUSH2 0x72A JUMP JUMPDEST PUSH1 0x60 ADD MLOAD PUSH1 0x0 PUSH1 0x3 PUSH1 0x6 DUP2 LT PUSH2 0x3F9 JUMPI PUSH2 0x3F8 PUSH2 0x757 JUMP JUMPDEST JUMPDEST ADD PUSH1 0x0 PUSH2 0x100 EXP DUP2 SLOAD DUP2 PUSH20 0xFFFFFFFFFFFFFFFFFFFFFFFFFFFFFFFFFFFFFFFF MUL NOT AND SWAP1 DUP4 PUSH20 0xFFFFFFFFFFFFFFFFFFFFFFFFFFFFFFFFFFFFFFFF AND MUL OR SWAP1 SSTORE POP CALLER PUSH1 0x0 PUSH1 0x4 PUSH1 0x6 DUP2 LT PUSH2 0x44E JUMPI PUSH2 0x44D PUSH2 0x757 JUMP JUMPDEST JUMPDEST ADD PUSH1 0x0 PUSH2 0x100 EXP DUP2 SLOAD DUP2 PUSH20 0xFFFFFFFFFFFFFFFFFFFFFFFFFFFFFFFFFFFFFFFF MUL NOT AND SWAP1 DUP4 PUSH20 0xFFFFFFFFFFFFFFFFFFFFFFFFFFFFFFFFFFFFFFFF AND MUL OR SWAP1 SSTORE POP ORIGIN PUSH1 0x0 PUSH1 0x5 PUSH1 0x6 DUP2 LT PUSH2 0x4A3 JUMPI PUSH2 0x4A2 PUSH2 0x757 JUMP JUMPDEST JUMPDEST ADD PUSH1 0x0 PUSH2 0x100 EXP DUP2 SLOAD DUP2 PUSH20 0xFFFFFFFFFFFFFFFFFFFFFFFFFFFFFFFFFFFFFFFF MUL NOT AND SWAP1 DUP4 PUSH20 0xFFFFFFFFFFFFFFFFFFFFFFFFFFFFFFFFFFFFFFFF AND MUL OR SWAP1 SSTORE POP POP JUMP JUMPDEST PUSH1 0x0 PUSH1 0x40 MLOAD SWAP1 POP SWAP1 JUMP JUMPDEST PUSH1 0x0 DUP1 REVERT JUMPDEST PUSH1 0x0 DUP2 SWAP1 POP SWAP2 SWAP1 POP JUMP JUMPDEST PUSH2 0x507 DUP2 PUSH2 0x4F4 JUMP JUMPDEST DUP2 EQ PUSH2 0x512 JUMPI PUSH1 0x0 DUP1 REVERT JUMPDEST POP JUMP JUMPDEST PUSH1 0x0 DUP2 CALLDATALOAD SWAP1 POP PUSH2 0x524 DUP2 PUSH2 0x4FE JUMP JUMPDEST SWAP3 SWAP2 POP POP JUMP JUMPDEST PUSH1 0x0 PUSH1 0x20 DUP3 DUP5 SUB SLT ISZERO PUSH2 0x540 JUMPI PUSH2 0x53F PUSH2 0x4EF JUMP JUMPDEST JUMPDEST PUSH1 0x0 PUSH2 0x54E DUP5 DUP3 DUP6 ADD PUSH2 0x515 JUMP JUMPDEST SWAP2 POP POP SWAP3 SWAP2 POP POP JUMP JUMPDEST PUSH1 0x0 PUSH20 0xFFFFFFFFFFFFFFFFFFFFFFFFFFFFFFFFFFFFFFFF DUP3 AND SWAP1 POP SWAP2 SWAP1 POP JUMP JUMPDEST PUSH1 0x0 PUSH2 0x582 DUP3 PUSH2 0x557 JUMP JUMPDEST SWAP1 POP SWAP2 SWAP1 POP JUMP JUMPDEST PUSH2 0x592 DUP2 PUSH2 0x577 JUMP JUMPDEST DUP3 MSTORE POP POP JUMP JUMPDEST PUSH1 0x0 PUSH1 0x20 DUP3 ADD SWAP1 POP PUSH2 0x5AD PUSH1 0x0 DUP4 ADD DUP5 PUSH2 0x589 JUMP JUMPDEST SWAP3 SWAP2 POP POP JUMP JUMPDEST PUSH2 0x5BC DUP2 PUSH2 0x577 JUMP JUMPDEST DUP2 EQ PUSH2 0x5C7 JUMPI PUSH1 0x0 DUP1 REVERT JUMPDEST POP JUMP JUMPDEST PUSH1 0x0 DUP2 CALLDATALOAD SWAP1 POP PUSH2 0x5D9 DUP2 PUSH2 0x5B3 JUMP JUMPDEST SWAP3 SWAP2 POP POP JUMP JUMPDEST PUSH1 0x0 PUSH1 0x20 DUP3 DUP5 SUB SLT ISZERO PUSH2 0x5F5 JUMPI PUSH2 0x5F4 PUSH2 0x4EF JUMP JUMPDEST JUMPDEST PUSH1 0x0 PUSH2 0x603 DUP5 DUP3 DUP6 ADD PUSH2 0x5CA JUMP JUMPDEST SWAP2 POP POP SWAP3 SWAP2 POP POP JUMP JUMPDEST PUSH1 0x0 DUP1 REVERT JUMPDEST PUSH1 0x0 PUSH1 0x1F NOT PUSH1 0x1F DUP4 ADD AND SWAP1 POP SWAP2 SWAP1 POP JUMP JUMPDEST PUSH32 0x4E487B7100000000000000000000000000000000000000000000000000000000 PUSH1 0x0 MSTORE PUSH1 0x41 PUSH1 0x4 MSTORE PUSH1 0x24 PUSH1 0x0 REVERT JUMPDEST PUSH2 0x65A DUP3 PUSH2 0x611 JUMP JUMPDEST DUP2 ADD DUP2 DUP2 LT PUSH8 0xFFFFFFFFFFFFFFFF DUP3 GT OR ISZERO PUSH2 0x679 JUMPI PUSH2 0x678 PUSH2 0x622 JUMP JUMPDEST JUMPDEST DUP1 PUSH1 0x40 MSTORE POP POP POP JUMP JUMPDEST PUSH1 0x0 PUSH2 0x68C PUSH2 0x4E5 JUMP JUMPDEST SWAP1 POP PUSH2 0x698 DUP3 DUP3 PUSH2 0x651 JUMP JUMPDEST SWAP2 SWAP1 POP JUMP JUMPDEST PUSH1 0x0 DUP2 MLOAD SWAP1 POP PUSH2 0x6AC DUP2 PUSH2 0x5B3 JUMP JUMPDEST SWAP3 SWAP2 POP POP JUMP JUMPDEST PUSH1 0x0 PUSH1 0x80 DUP3 DUP5 SUB SLT ISZERO PUSH2 0x6C8 JUMPI PUSH2 0x6C7 PUSH2 0x60C JUMP JUMPDEST JUMPDEST PUSH2 0x6D2 PUSH1 0x80 PUSH2 0x682 JUMP JUMPDEST SWAP1 POP PUSH1 0x0 PUSH2 0x6E2 DUP5 DUP3 DUP6 ADD PUSH2 0x69D JUMP JUMPDEST PUSH1 0x0 DUP4 ADD MSTORE POP PUSH1 0x20 PUSH2 0x6F6 DUP5 DUP3 DUP6 ADD PUSH2 0x69D JUMP JUMPDEST PUSH1 0x20 DUP4 ADD MSTORE POP PUSH1 0x40 PUSH2 0x70A DUP5 DUP3 DUP6 ADD PUSH2 0x69D JUMP JUMPDEST PUSH1 0x40 DUP4 ADD MSTORE POP PUSH1 0x60 PUSH2 0x71E DUP5 DUP3 DUP6 ADD PUSH2 0x69D JUMP JUMPDEST PUSH1 0x60 DUP4 ADD MSTORE POP SWAP3 SWAP2 POP POP JUMP JUMPDEST PUSH1 0x0 PUSH1 0x80 DUP3 DUP5 SUB SLT ISZERO PUSH2 0x740 JUMPI PUSH2 0x73F PUSH2 0x4EF JUMP JUMPDEST JUMPDEST PUSH1 0x0 PUSH2 0x74E DUP5 DUP3 DUP6 ADD PUSH2 0x6B2 JUMP JUMPDEST SWAP2 POP POP SWAP3 SWAP2 POP POP JUMP JUMPDEST PUSH32 0x4E487B7100000000000000000000000000000000000000000000000000000000 PUSH1 0x0 MSTORE PUSH1 0x32 PUSH1 0x4 MSTORE PUSH1 0x24 PUSH1 0x0 REVERT INVALID LOG2 PUSH5 0x6970667358 0x22 SLT KECCAK256 0x5C 0xBF 0x23 0xB1 POP LOG0 PUSH9 0x4848E192A6E79C5AB4 PUSH26 0x441638F8F370081DA880045B5521C464736F6C63430008130033 "
				},
				"gasEstimates": {
					"creation": {
						"codeDepositCost": "396000",
						"executionCost": "430",
						"totalCost": "396430"
					},
					"external": {
						"addrs(uint256)": "2783",
						"getDataFromCaller(address)": "infinite"
					}
				},
				"methodIdentifiers": {
					"addrs(uint256)": "371eb669",
					"getDataFromCaller(address)": "4ca01756"
				}
			},
			"storageLayout": {
				"storage": [
					{
						"astId": 116,
						"contract": "appworks_blockchain_batch2/contracts/wk4/call_chains/CallerCallee.sol:AnotherCaller",
						"label": "addrs",
						"offset": 0,
						"slot": "0",
						"type": "t_array(t_address)6_storage"
					}
				],
				"types": {
					"t_address": {
						"encoding": "inplace",
						"label": "address",
						"numberOfBytes": "20"
					},
					"t_array(t_address)6_storage": {
						"base": "t_address",
						"encoding": "inplace",
						"label": "address[6]",
						"numberOfBytes": "192"
					}
				}
			},
			"userdoc": {
				"kind": "user",
				"methods": {},
				"version": 1
			}
		}
	}
}