{
	"appworks_blockchain_batch2/contracts/wk3/DefaultValues.sol": {
		"DefaultValues": {
			"abi": [
				{
					"inputs": [],
					"name": "addr",
					"outputs": [
						{
							"internalType": "address",
							"name": "",
							"type": "address"
						}
					],
					"stateMutability": "view",
					"type": "function"
				},
				{
					"inputs": [],
					"name": "b",
					"outputs": [
						{
							"internalType": "bool",
							"name": "",
							"type": "bool"
						}
					],
					"stateMutability": "view",
					"type": "function"
				},
				{
					"inputs": [],
					"name": "b32",
					"outputs": [
						{
							"internalType": "bytes32",
							"name": "",
							"type": "bytes32"
						}
					],
					"stateMutability": "view",
					"type": "function"
				},
				{
					"inputs": [],
					"name": "i",
					"outputs": [
						{
							"internalType": "int256",
							"name": "",
							"type": "int256"
						}
					],
					"stateMutability": "view",
					"type": "function"
				},
				{
					"inputs": [],
					"name": "u",
					"outputs": [
						{
							"internalType": "uint256",
							"name": "",
							"type": "uint256"
						}
					],
					"stateMutability": "view",
					"type": "function"
				}
			],
			"devdoc": {
				"kind": "dev",
				"methods": {},
				"version": 1
			},
			"evm": {
				"assembly": "    /* \"appworks_blockchain_batch2/contracts/wk3/DefaultValues.sol\":173:420  contract DefaultValues {... */\n  mstore(0x40, 0x80)\n  callvalue\n  dup1\n  iszero\n  tag_1\n  jumpi\n  0x00\n  dup1\n  revert\ntag_1:\n  pop\n  dataSize(sub_0)\n  dup1\n  dataOffset(sub_0)\n  0x00\n  codecopy\n  0x00\n  return\nstop\n\nsub_0: assembly {\n        /* \"appworks_blockchain_batch2/contracts/wk3/DefaultValues.sol\":173:420  contract DefaultValues {... */\n      mstore(0x40, 0x80)\n      callvalue\n      dup1\n      iszero\n      tag_1\n      jumpi\n      0x00\n      dup1\n      revert\n    tag_1:\n      pop\n      jumpi(tag_2, lt(calldatasize, 0x04))\n      shr(0xe0, calldataload(0x00))\n      dup1\n      0x4df7e3d0\n      eq\n      tag_3\n      jumpi\n      dup1\n      0x767800de\n      eq\n      tag_4\n      jumpi\n      dup1\n      0xc6a898c5\n      eq\n      tag_5\n      jumpi\n      dup1\n      0xe5aa3d58\n      eq\n      tag_6\n      jumpi\n      dup1\n      0xf8aab238\n      eq\n      tag_7\n      jumpi\n    tag_2:\n      0x00\n      dup1\n      revert\n        /* \"appworks_blockchain_batch2/contracts/wk3/DefaultValues.sol\":202:215  bool public b */\n    tag_3:\n      tag_8\n      tag_9\n      jump\t// in\n    tag_8:\n      mload(0x40)\n      tag_10\n      swap2\n      swap1\n      tag_11\n      jump\t// in\n    tag_10:\n      mload(0x40)\n      dup1\n      swap2\n      sub\n      swap1\n      return\n        /* \"appworks_blockchain_batch2/contracts/wk3/DefaultValues.sol\":278:297  address public addr */\n    tag_4:\n      tag_12\n      tag_13\n      jump\t// in\n    tag_12:\n      mload(0x40)\n      tag_14\n      swap2\n      swap1\n      tag_15\n      jump\t// in\n    tag_14:\n      mload(0x40)\n      dup1\n      swap2\n      sub\n      swap1\n      return\n        /* \"appworks_blockchain_batch2/contracts/wk3/DefaultValues.sol\":230:243  uint public u */\n    tag_5:\n      tag_16\n      tag_17\n      jump\t// in\n    tag_16:\n      mload(0x40)\n      tag_18\n      swap2\n      swap1\n      tag_19\n      jump\t// in\n    tag_18:\n      mload(0x40)\n      dup1\n      swap2\n      sub\n      swap1\n      return\n        /* \"appworks_blockchain_batch2/contracts/wk3/DefaultValues.sol\":254:267  int  public i */\n    tag_6:\n      tag_20\n      tag_21\n      jump\t// in\n    tag_20:\n      mload(0x40)\n      tag_22\n      swap2\n      swap1\n      tag_23\n      jump\t// in\n    tag_22:\n      mload(0x40)\n      dup1\n      swap2\n      sub\n      swap1\n      return\n        /* \"appworks_blockchain_batch2/contracts/wk3/DefaultValues.sol\":339:357  bytes32 public b32 */\n    tag_7:\n      tag_24\n      tag_25\n      jump\t// in\n    tag_24:\n      mload(0x40)\n      tag_26\n      swap2\n      swap1\n      tag_27\n      jump\t// in\n    tag_26:\n      mload(0x40)\n      dup1\n      swap2\n      sub\n      swap1\n      return\n        /* \"appworks_blockchain_batch2/contracts/wk3/DefaultValues.sol\":202:215  bool public b */\n    tag_9:\n      0x00\n      dup1\n      sload\n      swap1\n      0x0100\n      exp\n      swap1\n      div\n      0xff\n      and\n      dup2\n      jump\t// out\n        /* \"appworks_blockchain_batch2/contracts/wk3/DefaultValues.sol\":278:297  address public addr */\n    tag_13:\n      0x03\n      0x00\n      swap1\n      sload\n      swap1\n      0x0100\n      exp\n      swap1\n      div\n      0xffffffffffffffffffffffffffffffffffffffff\n      and\n      dup2\n      jump\t// out\n        /* \"appworks_blockchain_batch2/contracts/wk3/DefaultValues.sol\":230:243  uint public u */\n    tag_17:\n      sload(0x01)\n      dup2\n      jump\t// out\n        /* \"appworks_blockchain_batch2/contracts/wk3/DefaultValues.sol\":254:267  int  public i */\n    tag_21:\n      sload(0x02)\n      dup2\n      jump\t// out\n        /* \"appworks_blockchain_batch2/contracts/wk3/DefaultValues.sol\":339:357  bytes32 public b32 */\n    tag_25:\n      sload(0x04)\n      dup2\n      jump\t// out\n        /* \"#utility.yul\":7:97   */\n    tag_28:\n        /* \"#utility.yul\":41:48   */\n      0x00\n        /* \"#utility.yul\":84:89   */\n      dup2\n        /* \"#utility.yul\":77:90   */\n      iszero\n        /* \"#utility.yul\":70:91   */\n      iszero\n        /* \"#utility.yul\":59:91   */\n      swap1\n      pop\n        /* \"#utility.yul\":7:97   */\n      swap2\n      swap1\n      pop\n      jump\t// out\n        /* \"#utility.yul\":103:212   */\n    tag_29:\n        /* \"#utility.yul\":184:205   */\n      tag_42\n        /* \"#utility.yul\":199:204   */\n      dup2\n        /* \"#utility.yul\":184:205   */\n      tag_28\n      jump\t// in\n    tag_42:\n        /* \"#utility.yul\":179:182   */\n      dup3\n        /* \"#utility.yul\":172:206   */\n      mstore\n        /* \"#utility.yul\":103:212   */\n      pop\n      pop\n      jump\t// out\n        /* \"#utility.yul\":218:428   */\n    tag_11:\n        /* \"#utility.yul\":305:309   */\n      0x00\n        /* \"#utility.yul\":343:345   */\n      0x20\n        /* \"#utility.yul\":332:341   */\n      dup3\n        /* \"#utility.yul\":328:346   */\n      add\n        /* \"#utility.yul\":320:346   */\n      swap1\n      pop\n        /* \"#utility.yul\":356:421   */\n      tag_44\n        /* \"#utility.yul\":418:419   */\n      0x00\n        /* \"#utility.yul\":407:416   */\n      dup4\n        /* \"#utility.yul\":403:420   */\n      add\n        /* \"#utility.yul\":394:400   */\n      dup5\n        /* \"#utility.yul\":356:421   */\n      tag_29\n      jump\t// in\n    tag_44:\n        /* \"#utility.yul\":218:428   */\n      swap3\n      swap2\n      pop\n      pop\n      jump\t// out\n        /* \"#utility.yul\":434:560   */\n    tag_30:\n        /* \"#utility.yul\":471:478   */\n      0x00\n        /* \"#utility.yul\":511:553   */\n      0xffffffffffffffffffffffffffffffffffffffff\n        /* \"#utility.yul\":504:509   */\n      dup3\n        /* \"#utility.yul\":500:554   */\n      and\n        /* \"#utility.yul\":489:554   */\n      swap1\n      pop\n        /* \"#utility.yul\":434:560   */\n      swap2\n      swap1\n      pop\n      jump\t// out\n        /* \"#utility.yul\":566:662   */\n    tag_31:\n        /* \"#utility.yul\":603:610   */\n      0x00\n        /* \"#utility.yul\":632:656   */\n      tag_47\n        /* \"#utility.yul\":650:655   */\n      dup3\n        /* \"#utility.yul\":632:656   */\n      tag_30\n      jump\t// in\n    tag_47:\n        /* \"#utility.yul\":621:656   */\n      swap1\n      pop\n        /* \"#utility.yul\":566:662   */\n      swap2\n      swap1\n      pop\n      jump\t// out\n        /* \"#utility.yul\":668:786   */\n    tag_32:\n        /* \"#utility.yul\":755:779   */\n      tag_49\n        /* \"#utility.yul\":773:778   */\n      dup2\n        /* \"#utility.yul\":755:779   */\n      tag_31\n      jump\t// in\n    tag_49:\n        /* \"#utility.yul\":750:753   */\n      dup3\n        /* \"#utility.yul\":743:780   */\n      mstore\n        /* \"#utility.yul\":668:786   */\n      pop\n      pop\n      jump\t// out\n        /* \"#utility.yul\":792:1014   */\n    tag_15:\n        /* \"#utility.yul\":885:889   */\n      0x00\n        /* \"#utility.yul\":923:925   */\n      0x20\n        /* \"#utility.yul\":912:921   */\n      dup3\n        /* \"#utility.yul\":908:926   */\n      add\n        /* \"#utility.yul\":900:926   */\n      swap1\n      pop\n        /* \"#utility.yul\":936:1007   */\n      tag_51\n        /* \"#utility.yul\":1004:1005   */\n      0x00\n        /* \"#utility.yul\":993:1002   */\n      dup4\n        /* \"#utility.yul\":989:1006   */\n      add\n        /* \"#utility.yul\":980:986   */\n      dup5\n        /* \"#utility.yul\":936:1007   */\n      tag_32\n      jump\t// in\n    tag_51:\n        /* \"#utility.yul\":792:1014   */\n      swap3\n      swap2\n      pop\n      pop\n      jump\t// out\n        /* \"#utility.yul\":1020:1097   */\n    tag_33:\n        /* \"#utility.yul\":1057:1064   */\n      0x00\n        /* \"#utility.yul\":1086:1091   */\n      dup2\n        /* \"#utility.yul\":1075:1091   */\n      swap1\n      pop\n        /* \"#utility.yul\":1020:1097   */\n      swap2\n      swap1\n      pop\n      jump\t// out\n        /* \"#utility.yul\":1103:1221   */\n    tag_34:\n        /* \"#utility.yul\":1190:1214   */\n      tag_54\n        /* \"#utility.yul\":1208:1213   */\n      dup2\n        /* \"#utility.yul\":1190:1214   */\n      tag_33\n      jump\t// in\n    tag_54:\n        /* \"#utility.yul\":1185:1188   */\n      dup3\n        /* \"#utility.yul\":1178:1215   */\n      mstore\n        /* \"#utility.yul\":1103:1221   */\n      pop\n      pop\n      jump\t// out\n        /* \"#utility.yul\":1227:1449   */\n    tag_19:\n        /* \"#utility.yul\":1320:1324   */\n      0x00\n        /* \"#utility.yul\":1358:1360   */\n      0x20\n        /* \"#utility.yul\":1347:1356   */\n      dup3\n        /* \"#utility.yul\":1343:1361   */\n      add\n        /* \"#utility.yul\":1335:1361   */\n      swap1\n      pop\n        /* \"#utility.yul\":1371:1442   */\n      tag_56\n        /* \"#utility.yul\":1439:1440   */\n      0x00\n        /* \"#utility.yul\":1428:1437   */\n      dup4\n        /* \"#utility.yul\":1424:1441   */\n      add\n        /* \"#utility.yul\":1415:1421   */\n      dup5\n        /* \"#utility.yul\":1371:1442   */\n      tag_34\n      jump\t// in\n    tag_56:\n        /* \"#utility.yul\":1227:1449   */\n      swap3\n      swap2\n      pop\n      pop\n      jump\t// out\n        /* \"#utility.yul\":1455:1531   */\n    tag_35:\n        /* \"#utility.yul\":1491:1498   */\n      0x00\n        /* \"#utility.yul\":1520:1525   */\n      dup2\n        /* \"#utility.yul\":1509:1525   */\n      swap1\n      pop\n        /* \"#utility.yul\":1455:1531   */\n      swap2\n      swap1\n      pop\n      jump\t// out\n        /* \"#utility.yul\":1537:1652   */\n    tag_36:\n        /* \"#utility.yul\":1622:1645   */\n      tag_59\n        /* \"#utility.yul\":1639:1644   */\n      dup2\n        /* \"#utility.yul\":1622:1645   */\n      tag_35\n      jump\t// in\n    tag_59:\n        /* \"#utility.yul\":1617:1620   */\n      dup3\n        /* \"#utility.yul\":1610:1646   */\n      mstore\n        /* \"#utility.yul\":1537:1652   */\n      pop\n      pop\n      jump\t// out\n        /* \"#utility.yul\":1658:1876   */\n    tag_23:\n        /* \"#utility.yul\":1749:1753   */\n      0x00\n        /* \"#utility.yul\":1787:1789   */\n      0x20\n        /* \"#utility.yul\":1776:1785   */\n      dup3\n        /* \"#utility.yul\":1772:1790   */\n      add\n        /* \"#utility.yul\":1764:1790   */\n      swap1\n      pop\n        /* \"#utility.yul\":1800:1869   */\n      tag_61\n        /* \"#utility.yul\":1866:1867   */\n      0x00\n        /* \"#utility.yul\":1855:1864   */\n      dup4\n        /* \"#utility.yul\":1851:1868   */\n      add\n        /* \"#utility.yul\":1842:1848   */\n      dup5\n        /* \"#utility.yul\":1800:1869   */\n      tag_36\n      jump\t// in\n    tag_61:\n        /* \"#utility.yul\":1658:1876   */\n      swap3\n      swap2\n      pop\n      pop\n      jump\t// out\n        /* \"#utility.yul\":1882:1959   */\n    tag_37:\n        /* \"#utility.yul\":1919:1926   */\n      0x00\n        /* \"#utility.yul\":1948:1953   */\n      dup2\n        /* \"#utility.yul\":1937:1953   */\n      swap1\n      pop\n        /* \"#utility.yul\":1882:1959   */\n      swap2\n      swap1\n      pop\n      jump\t// out\n        /* \"#utility.yul\":1965:2083   */\n    tag_38:\n        /* \"#utility.yul\":2052:2076   */\n      tag_64\n        /* \"#utility.yul\":2070:2075   */\n      dup2\n        /* \"#utility.yul\":2052:2076   */\n      tag_37\n      jump\t// in\n    tag_64:\n        /* \"#utility.yul\":2047:2050   */\n      dup3\n        /* \"#utility.yul\":2040:2077   */\n      mstore\n        /* \"#utility.yul\":1965:2083   */\n      pop\n      pop\n      jump\t// out\n        /* \"#utility.yul\":2089:2311   */\n    tag_27:\n        /* \"#utility.yul\":2182:2186   */\n      0x00\n        /* \"#utility.yul\":2220:2222   */\n      0x20\n        /* \"#utility.yul\":2209:2218   */\n      dup3\n        /* \"#utility.yul\":2205:2223   */\n      add\n        /* \"#utility.yul\":2197:2223   */\n      swap1\n      pop\n        /* \"#utility.yul\":2233:2304   */\n      tag_66\n        /* \"#utility.yul\":2301:2302   */\n      0x00\n        /* \"#utility.yul\":2290:2299   */\n      dup4\n        /* \"#utility.yul\":2286:2303   */\n      add\n        /* \"#utility.yul\":2277:2283   */\n      dup5\n        /* \"#utility.yul\":2233:2304   */\n      tag_38\n      jump\t// in\n    tag_66:\n        /* \"#utility.yul\":2089:2311   */\n      swap3\n      swap2\n      pop\n      pop\n      jump\t// out\n\n    auxdata: 0xa264697066735822122091914fff391c7e0231e10fb495edac24128afb9b1c3d63bab5ceb2562237c08064736f6c63430008130033\n}\n",
				"bytecode": {
					"linkReferences": {},
					"object": "608060405234801561001057600080fd5b5061029f806100206000396000f3fe608060405234801561001057600080fd5b50600436106100575760003560e01c80634df7e3d01461005c578063767800de1461007a578063c6a898c514610098578063e5aa3d58146100b6578063f8aab238146100d4575b600080fd5b6100646100f2565b6040516100719190610156565b60405180910390f35b610082610103565b60405161008f91906101b2565b60405180910390f35b6100a0610129565b6040516100ad91906101e6565b60405180910390f35b6100be61012f565b6040516100cb919061021a565b60405180910390f35b6100dc610135565b6040516100e9919061024e565b60405180910390f35b60008054906101000a900460ff1681565b600360009054906101000a900473ffffffffffffffffffffffffffffffffffffffff1681565b60015481565b60025481565b60045481565b60008115159050919050565b6101508161013b565b82525050565b600060208201905061016b6000830184610147565b92915050565b600073ffffffffffffffffffffffffffffffffffffffff82169050919050565b600061019c82610171565b9050919050565b6101ac81610191565b82525050565b60006020820190506101c760008301846101a3565b92915050565b6000819050919050565b6101e0816101cd565b82525050565b60006020820190506101fb60008301846101d7565b92915050565b6000819050919050565b61021481610201565b82525050565b600060208201905061022f600083018461020b565b92915050565b6000819050919050565b61024881610235565b82525050565b6000602082019050610263600083018461023f565b9291505056fea264697066735822122091914fff391c7e0231e10fb495edac24128afb9b1c3d63bab5ceb2562237c08064736f6c63430008130033",
					"opcodes": "PUSH1 0x80 PUSH1 0x40 MSTORE CALLVALUE DUP1 ISZERO PUSH2 0x10 JUMPI PUSH1 0x0 DUP1 REVERT JUMPDEST POP PUSH2 0x29F DUP1 PUSH2 0x20 PUSH1 0x0 CODECOPY PUSH1 0x0 RETURN INVALID PUSH1 0x80 PUSH1 0x40 MSTORE CALLVALUE DUP1 ISZERO PUSH2 0x10 JUMPI PUSH1 0x0 DUP1 REVERT JUMPDEST POP PUSH1 0x4 CALLDATASIZE LT PUSH2 0x57 JUMPI PUSH1 0x0 CALLDATALOAD PUSH1 0xE0 SHR DUP1 PUSH4 0x4DF7E3D0 EQ PUSH2 0x5C JUMPI DUP1 PUSH4 0x767800DE EQ PUSH2 0x7A JUMPI DUP1 PUSH4 0xC6A898C5 EQ PUSH2 0x98 JUMPI DUP1 PUSH4 0xE5AA3D58 EQ PUSH2 0xB6 JUMPI DUP1 PUSH4 0xF8AAB238 EQ PUSH2 0xD4 JUMPI JUMPDEST PUSH1 0x0 DUP1 REVERT JUMPDEST PUSH2 0x64 PUSH2 0xF2 JUMP JUMPDEST PUSH1 0x40 MLOAD PUSH2 0x71 SWAP2 SWAP1 PUSH2 0x156 JUMP JUMPDEST PUSH1 0x40 MLOAD DUP1 SWAP2 SUB SWAP1 RETURN JUMPDEST PUSH2 0x82 PUSH2 0x103 JUMP JUMPDEST PUSH1 0x40 MLOAD PUSH2 0x8F SWAP2 SWAP1 PUSH2 0x1B2 JUMP JUMPDEST PUSH1 0x40 MLOAD DUP1 SWAP2 SUB SWAP1 RETURN JUMPDEST PUSH2 0xA0 PUSH2 0x129 JUMP JUMPDEST PUSH1 0x40 MLOAD PUSH2 0xAD SWAP2 SWAP1 PUSH2 0x1E6 JUMP JUMPDEST PUSH1 0x40 MLOAD DUP1 SWAP2 SUB SWAP1 RETURN JUMPDEST PUSH2 0xBE PUSH2 0x12F JUMP JUMPDEST PUSH1 0x40 MLOAD PUSH2 0xCB SWAP2 SWAP1 PUSH2 0x21A JUMP JUMPDEST PUSH1 0x40 MLOAD DUP1 SWAP2 SUB SWAP1 RETURN JUMPDEST PUSH2 0xDC PUSH2 0x135 JUMP JUMPDEST PUSH1 0x40 MLOAD PUSH2 0xE9 SWAP2 SWAP1 PUSH2 0x24E JUMP JUMPDEST PUSH1 0x40 MLOAD DUP1 SWAP2 SUB SWAP1 RETURN JUMPDEST PUSH1 0x0 DUP1 SLOAD SWAP1 PUSH2 0x100 EXP SWAP1 DIV PUSH1 0xFF AND DUP2 JUMP JUMPDEST PUSH1 0x3 PUSH1 0x0 SWAP1 SLOAD SWAP1 PUSH2 0x100 EXP SWAP1 DIV PUSH20 0xFFFFFFFFFFFFFFFFFFFFFFFFFFFFFFFFFFFFFFFF AND DUP2 JUMP JUMPDEST PUSH1 0x1 SLOAD DUP2 JUMP JUMPDEST PUSH1 0x2 SLOAD DUP2 JUMP JUMPDEST PUSH1 0x4 SLOAD DUP2 JUMP JUMPDEST PUSH1 0x0 DUP2 ISZERO ISZERO SWAP1 POP SWAP2 SWAP1 POP JUMP JUMPDEST PUSH2 0x150 DUP2 PUSH2 0x13B JUMP JUMPDEST DUP3 MSTORE POP POP JUMP JUMPDEST PUSH1 0x0 PUSH1 0x20 DUP3 ADD SWAP1 POP PUSH2 0x16B PUSH1 0x0 DUP4 ADD DUP5 PUSH2 0x147 JUMP JUMPDEST SWAP3 SWAP2 POP POP JUMP JUMPDEST PUSH1 0x0 PUSH20 0xFFFFFFFFFFFFFFFFFFFFFFFFFFFFFFFFFFFFFFFF DUP3 AND SWAP1 POP SWAP2 SWAP1 POP JUMP JUMPDEST PUSH1 0x0 PUSH2 0x19C DUP3 PUSH2 0x171 JUMP JUMPDEST SWAP1 POP SWAP2 SWAP1 POP JUMP JUMPDEST PUSH2 0x1AC DUP2 PUSH2 0x191 JUMP JUMPDEST DUP3 MSTORE POP POP JUMP JUMPDEST PUSH1 0x0 PUSH1 0x20 DUP3 ADD SWAP1 POP PUSH2 0x1C7 PUSH1 0x0 DUP4 ADD DUP5 PUSH2 0x1A3 JUMP JUMPDEST SWAP3 SWAP2 POP POP JUMP JUMPDEST PUSH1 0x0 DUP2 SWAP1 POP SWAP2 SWAP1 POP JUMP JUMPDEST PUSH2 0x1E0 DUP2 PUSH2 0x1CD JUMP JUMPDEST DUP3 MSTORE POP POP JUMP JUMPDEST PUSH1 0x0 PUSH1 0x20 DUP3 ADD SWAP1 POP PUSH2 0x1FB PUSH1 0x0 DUP4 ADD DUP5 PUSH2 0x1D7 JUMP JUMPDEST SWAP3 SWAP2 POP POP JUMP JUMPDEST PUSH1 0x0 DUP2 SWAP1 POP SWAP2 SWAP1 POP JUMP JUMPDEST PUSH2 0x214 DUP2 PUSH2 0x201 JUMP JUMPDEST DUP3 MSTORE POP POP JUMP JUMPDEST PUSH1 0x0 PUSH1 0x20 DUP3 ADD SWAP1 POP PUSH2 0x22F PUSH1 0x0 DUP4 ADD DUP5 PUSH2 0x20B JUMP JUMPDEST SWAP3 SWAP2 POP POP JUMP JUMPDEST PUSH1 0x0 DUP2 SWAP1 POP SWAP2 SWAP1 POP JUMP JUMPDEST PUSH2 0x248 DUP2 PUSH2 0x235 JUMP JUMPDEST DUP3 MSTORE POP POP JUMP JUMPDEST PUSH1 0x0 PUSH1 0x20 DUP3 ADD SWAP1 POP PUSH2 0x263 PUSH1 0x0 DUP4 ADD DUP5 PUSH2 0x23F JUMP JUMPDEST SWAP3 SWAP2 POP POP JUMP INVALID LOG2 PUSH5 0x6970667358 0x22 SLT KECCAK256 SWAP2 SWAP2 0x4F SELFDESTRUCT CODECOPY SHR PUSH31 0x231E10FB495EDAC24128AFB9B1C3D63BAB5CEB2562237C08064736F6C6343 STOP ADDMOD SGT STOP CALLER "
				},
				"gasEstimates": {
					"creation": {
						"codeDepositCost": "134200",
						"executionCost": "177",
						"totalCost": "134377"
					},
					"external": {
						"addr()": "2514",
						"b()": "2446",
						"b32()": "2495",
						"i()": "2473",
						"u()": "2451"
					}
				},
				"methodIdentifiers": {
					"addr()": "767800de",
					"b()": "4df7e3d0",
					"b32()": "f8aab238",
					"i()": "e5aa3d58",
					"u()": "c6a898c5"
				}
			},
			"storageLayout": {
				"storage": [
					{
						"astId": 3,
						"contract": "appworks_blockchain_batch2/contracts/wk3/DefaultValues.sol:DefaultValues",
						"label": "b",
						"offset": 0,
						"slot": "0",
						"type": "t_bool"
					},
					{
						"astId": 5,
						"contract": "appworks_blockchain_batch2/contracts/wk3/DefaultValues.sol:DefaultValues",
						"label": "u",
						"offset": 0,
						"slot": "1",
						"type": "t_uint256"
					},
					{
						"astId": 7,
						"contract": "appworks_blockchain_batch2/contracts/wk3/DefaultValues.sol:DefaultValues",
						"label": "i",
						"offset": 0,
						"slot": "2",
						"type": "t_int256"
					},
					{
						"astId": 9,
						"contract": "appworks_blockchain_batch2/contracts/wk3/DefaultValues.sol:DefaultValues",
						"label": "addr",
						"offset": 0,
						"slot": "3",
						"type": "t_address"
					},
					{
						"astId": 11,
						"contract": "appworks_blockchain_batch2/contracts/wk3/DefaultValues.sol:DefaultValues",
						"label": "b32",
						"offset": 0,
						"slot": "4",
						"type": "t_bytes32"
					}
				],
				"types": {
					"t_address": {
						"encoding": "inplace",
						"label": "address",
						"numberOfBytes": "20"
					},
					"t_bool": {
						"encoding": "inplace",
						"label": "bool",
						"numberOfBytes": "1"
					},
					"t_bytes32": {
						"encoding": "inplace",
						"label": "bytes32",
						"numberOfBytes": "32"
					},
					"t_int256": {
						"encoding": "inplace",
						"label": "int256",
						"numberOfBytes": "32"
					},
					"t_uint256": {
						"encoding": "inplace",
						"label": "uint256",
						"numberOfBytes": "32"
					}
				}
			},
			"userdoc": {
				"kind": "user",
				"methods": {},
				"version": 1
			}
		}
	}
}