{
	"appworks_blockchain_batch2/contracts/wk3/LocalVariables.sol": {
		"LocalVariables": {
			"abi": [
				{
					"inputs": [],
					"name": "b",
					"outputs": [
						{
							"internalType": "bool",
							"name": "",
							"type": "bool"
						}
					],
					"stateMutability": "view",
					"type": "function"
				},
				{
					"inputs": [],
					"name": "foo",
					"outputs": [],
					"stateMutability": "nonpayable",
					"type": "function"
				},
				{
					"inputs": [],
					"name": "i",
					"outputs": [
						{
							"internalType": "uint256",
							"name": "",
							"type": "uint256"
						}
					],
					"stateMutability": "view",
					"type": "function"
				},
				{
					"inputs": [],
					"name": "myAddr",
					"outputs": [
						{
							"internalType": "address",
							"name": "",
							"type": "address"
						}
					],
					"stateMutability": "view",
					"type": "function"
				}
			],
			"devdoc": {
				"kind": "dev",
				"methods": {},
				"version": 1
			},
			"evm": {
				"assembly": "    /* \"appworks_blockchain_batch2/contracts/wk3/LocalVariables.sol\":111:486  contract LocalVariables {... */\n  mstore(0x40, 0x80)\n  callvalue\n  dup1\n  iszero\n  tag_1\n  jumpi\n  0x00\n  dup1\n  revert\ntag_1:\n  pop\n  dataSize(sub_0)\n  dup1\n  dataOffset(sub_0)\n  0x00\n  codecopy\n  0x00\n  return\nstop\n\nsub_0: assembly {\n        /* \"appworks_blockchain_batch2/contracts/wk3/LocalVariables.sol\":111:486  contract LocalVariables {... */\n      mstore(0x40, 0x80)\n      callvalue\n      dup1\n      iszero\n      tag_1\n      jumpi\n      0x00\n      dup1\n      revert\n    tag_1:\n      pop\n      jumpi(tag_2, lt(calldatasize, 0x04))\n      shr(0xe0, calldataload(0x00))\n      dup1\n      0x4df7e3d0\n      eq\n      tag_3\n      jumpi\n      dup1\n      0xc2985578\n      eq\n      tag_4\n      jumpi\n      dup1\n      0xe5aa3d58\n      eq\n      tag_5\n      jumpi\n      dup1\n      0xe665b266\n      eq\n      tag_6\n      jumpi\n    tag_2:\n      0x00\n      dup1\n      revert\n        /* \"appworks_blockchain_batch2/contracts/wk3/LocalVariables.sol\":160:173  bool public b */\n    tag_3:\n      tag_7\n      tag_8\n      jump\t// in\n    tag_7:\n      mload(0x40)\n      tag_9\n      swap2\n      swap1\n      tag_10\n      jump\t// in\n    tag_9:\n      mload(0x40)\n      dup1\n      swap2\n      sub\n      swap1\n      return\n        /* \"appworks_blockchain_batch2/contracts/wk3/LocalVariables.sol\":207:484  function foo() external {... */\n    tag_4:\n      tag_11\n      tag_12\n      jump\t// in\n    tag_11:\n      stop\n        /* \"appworks_blockchain_batch2/contracts/wk3/LocalVariables.sol\":141:154  uint public i */\n    tag_5:\n      tag_13\n      tag_14\n      jump\t// in\n    tag_13:\n      mload(0x40)\n      tag_15\n      swap2\n      swap1\n      tag_16\n      jump\t// in\n    tag_15:\n      mload(0x40)\n      dup1\n      swap2\n      sub\n      swap1\n      return\n        /* \"appworks_blockchain_batch2/contracts/wk3/LocalVariables.sol\":179:200  address public myAddr */\n    tag_6:\n      tag_17\n      tag_18\n      jump\t// in\n    tag_17:\n      mload(0x40)\n      tag_19\n      swap2\n      swap1\n      tag_20\n      jump\t// in\n    tag_19:\n      mload(0x40)\n      dup1\n      swap2\n      sub\n      swap1\n      return\n        /* \"appworks_blockchain_batch2/contracts/wk3/LocalVariables.sol\":160:173  bool public b */\n    tag_8:\n      0x01\n      0x00\n      swap1\n      sload\n      swap1\n      0x0100\n      exp\n      swap1\n      div\n      0xff\n      and\n      dup2\n      jump\t// out\n        /* \"appworks_blockchain_batch2/contracts/wk3/LocalVariables.sol\":207:484  function foo() external {... */\n    tag_12:\n        /* \"appworks_blockchain_batch2/contracts/wk3/LocalVariables.sol\":241:247  uint x */\n      0x00\n        /* \"appworks_blockchain_batch2/contracts/wk3/LocalVariables.sol\":250:253  123 */\n      0x7b\n        /* \"appworks_blockchain_batch2/contracts/wk3/LocalVariables.sol\":241:253  uint x = 123 */\n      swap1\n      pop\n        /* \"appworks_blockchain_batch2/contracts/wk3/LocalVariables.sol\":263:269  bool f */\n      0x00\n        /* \"appworks_blockchain_batch2/contracts/wk3/LocalVariables.sol\":313:316  456 */\n      0x01c8\n        /* \"appworks_blockchain_batch2/contracts/wk3/LocalVariables.sol\":308:316  x += 456 */\n      dup3\n      tag_22\n      swap2\n      swap1\n      tag_23\n      jump\t// in\n    tag_22:\n      swap2\n      pop\n        /* \"appworks_blockchain_batch2/contracts/wk3/LocalVariables.sol\":330:334  true */\n      0x01\n        /* \"appworks_blockchain_batch2/contracts/wk3/LocalVariables.sol\":326:334  f = true */\n      swap1\n      pop\n        /* \"appworks_blockchain_batch2/contracts/wk3/LocalVariables.sol\":427:430  123 */\n      0x7b\n        /* \"appworks_blockchain_batch2/contracts/wk3/LocalVariables.sol\":423:424  i */\n      0x00\n        /* \"appworks_blockchain_batch2/contracts/wk3/LocalVariables.sol\":423:430  i = 123 */\n      dup2\n      swap1\n      sstore\n      pop\n        /* \"appworks_blockchain_batch2/contracts/wk3/LocalVariables.sol\":444:448  true */\n      0x01\n        /* \"appworks_blockchain_batch2/contracts/wk3/LocalVariables.sol\":440:441  b */\n      dup1\n      0x00\n        /* \"appworks_blockchain_batch2/contracts/wk3/LocalVariables.sol\":440:448  b = true */\n      0x0100\n      exp\n      dup2\n      sload\n      dup2\n      0xff\n      mul\n      not\n      and\n      swap1\n      dup4\n      iszero\n      iszero\n      mul\n      or\n      swap1\n      sstore\n      pop\n        /* \"appworks_blockchain_batch2/contracts/wk3/LocalVariables.sol\":475:476  1 */\n      0x01\n        /* \"appworks_blockchain_batch2/contracts/wk3/LocalVariables.sol\":458:464  myAddr */\n      dup1\n      0x01\n        /* \"appworks_blockchain_batch2/contracts/wk3/LocalVariables.sol\":458:477  myAddr = address(1) */\n      0x0100\n      exp\n      dup2\n      sload\n      dup2\n      0xffffffffffffffffffffffffffffffffffffffff\n      mul\n      not\n      and\n      swap1\n      dup4\n      0xffffffffffffffffffffffffffffffffffffffff\n      and\n      mul\n      or\n      swap1\n      sstore\n      pop\n        /* \"appworks_blockchain_batch2/contracts/wk3/LocalVariables.sol\":231:484  {... */\n      pop\n      pop\n        /* \"appworks_blockchain_batch2/contracts/wk3/LocalVariables.sol\":207:484  function foo() external {... */\n      jump\t// out\n        /* \"appworks_blockchain_batch2/contracts/wk3/LocalVariables.sol\":141:154  uint public i */\n    tag_14:\n      sload(0x00)\n      dup2\n      jump\t// out\n        /* \"appworks_blockchain_batch2/contracts/wk3/LocalVariables.sol\":179:200  address public myAddr */\n    tag_18:\n      0x01\n      dup1\n      sload\n      swap1\n      0x0100\n      exp\n      swap1\n      div\n      0xffffffffffffffffffffffffffffffffffffffff\n      and\n      dup2\n      jump\t// out\n        /* \"#utility.yul\":7:97   */\n    tag_24:\n        /* \"#utility.yul\":41:48   */\n      0x00\n        /* \"#utility.yul\":84:89   */\n      dup2\n        /* \"#utility.yul\":77:90   */\n      iszero\n        /* \"#utility.yul\":70:91   */\n      iszero\n        /* \"#utility.yul\":59:91   */\n      swap1\n      pop\n        /* \"#utility.yul\":7:97   */\n      swap2\n      swap1\n      pop\n      jump\t// out\n        /* \"#utility.yul\":103:212   */\n    tag_25:\n        /* \"#utility.yul\":184:205   */\n      tag_35\n        /* \"#utility.yul\":199:204   */\n      dup2\n        /* \"#utility.yul\":184:205   */\n      tag_24\n      jump\t// in\n    tag_35:\n        /* \"#utility.yul\":179:182   */\n      dup3\n        /* \"#utility.yul\":172:206   */\n      mstore\n        /* \"#utility.yul\":103:212   */\n      pop\n      pop\n      jump\t// out\n        /* \"#utility.yul\":218:428   */\n    tag_10:\n        /* \"#utility.yul\":305:309   */\n      0x00\n        /* \"#utility.yul\":343:345   */\n      0x20\n        /* \"#utility.yul\":332:341   */\n      dup3\n        /* \"#utility.yul\":328:346   */\n      add\n        /* \"#utility.yul\":320:346   */\n      swap1\n      pop\n        /* \"#utility.yul\":356:421   */\n      tag_37\n        /* \"#utility.yul\":418:419   */\n      0x00\n        /* \"#utility.yul\":407:416   */\n      dup4\n        /* \"#utility.yul\":403:420   */\n      add\n        /* \"#utility.yul\":394:400   */\n      dup5\n        /* \"#utility.yul\":356:421   */\n      tag_25\n      jump\t// in\n    tag_37:\n        /* \"#utility.yul\":218:428   */\n      swap3\n      swap2\n      pop\n      pop\n      jump\t// out\n        /* \"#utility.yul\":434:511   */\n    tag_26:\n        /* \"#utility.yul\":471:478   */\n      0x00\n        /* \"#utility.yul\":500:505   */\n      dup2\n        /* \"#utility.yul\":489:505   */\n      swap1\n      pop\n        /* \"#utility.yul\":434:511   */\n      swap2\n      swap1\n      pop\n      jump\t// out\n        /* \"#utility.yul\":517:635   */\n    tag_27:\n        /* \"#utility.yul\":604:628   */\n      tag_40\n        /* \"#utility.yul\":622:627   */\n      dup2\n        /* \"#utility.yul\":604:628   */\n      tag_26\n      jump\t// in\n    tag_40:\n        /* \"#utility.yul\":599:602   */\n      dup3\n        /* \"#utility.yul\":592:629   */\n      mstore\n        /* \"#utility.yul\":517:635   */\n      pop\n      pop\n      jump\t// out\n        /* \"#utility.yul\":641:863   */\n    tag_16:\n        /* \"#utility.yul\":734:738   */\n      0x00\n        /* \"#utility.yul\":772:774   */\n      0x20\n        /* \"#utility.yul\":761:770   */\n      dup3\n        /* \"#utility.yul\":757:775   */\n      add\n        /* \"#utility.yul\":749:775   */\n      swap1\n      pop\n        /* \"#utility.yul\":785:856   */\n      tag_42\n        /* \"#utility.yul\":853:854   */\n      0x00\n        /* \"#utility.yul\":842:851   */\n      dup4\n        /* \"#utility.yul\":838:855   */\n      add\n        /* \"#utility.yul\":829:835   */\n      dup5\n        /* \"#utility.yul\":785:856   */\n      tag_27\n      jump\t// in\n    tag_42:\n        /* \"#utility.yul\":641:863   */\n      swap3\n      swap2\n      pop\n      pop\n      jump\t// out\n        /* \"#utility.yul\":869:995   */\n    tag_28:\n        /* \"#utility.yul\":906:913   */\n      0x00\n        /* \"#utility.yul\":946:988   */\n      0xffffffffffffffffffffffffffffffffffffffff\n        /* \"#utility.yul\":939:944   */\n      dup3\n        /* \"#utility.yul\":935:989   */\n      and\n        /* \"#utility.yul\":924:989   */\n      swap1\n      pop\n        /* \"#utility.yul\":869:995   */\n      swap2\n      swap1\n      pop\n      jump\t// out\n        /* \"#utility.yul\":1001:1097   */\n    tag_29:\n        /* \"#utility.yul\":1038:1045   */\n      0x00\n        /* \"#utility.yul\":1067:1091   */\n      tag_45\n        /* \"#utility.yul\":1085:1090   */\n      dup3\n        /* \"#utility.yul\":1067:1091   */\n      tag_28\n      jump\t// in\n    tag_45:\n        /* \"#utility.yul\":1056:1091   */\n      swap1\n      pop\n        /* \"#utility.yul\":1001:1097   */\n      swap2\n      swap1\n      pop\n      jump\t// out\n        /* \"#utility.yul\":1103:1221   */\n    tag_30:\n        /* \"#utility.yul\":1190:1214   */\n      tag_47\n        /* \"#utility.yul\":1208:1213   */\n      dup2\n        /* \"#utility.yul\":1190:1214   */\n      tag_29\n      jump\t// in\n    tag_47:\n        /* \"#utility.yul\":1185:1188   */\n      dup3\n        /* \"#utility.yul\":1178:1215   */\n      mstore\n        /* \"#utility.yul\":1103:1221   */\n      pop\n      pop\n      jump\t// out\n        /* \"#utility.yul\":1227:1449   */\n    tag_20:\n        /* \"#utility.yul\":1320:1324   */\n      0x00\n        /* \"#utility.yul\":1358:1360   */\n      0x20\n        /* \"#utility.yul\":1347:1356   */\n      dup3\n        /* \"#utility.yul\":1343:1361   */\n      add\n        /* \"#utility.yul\":1335:1361   */\n      swap1\n      pop\n        /* \"#utility.yul\":1371:1442   */\n      tag_49\n        /* \"#utility.yul\":1439:1440   */\n      0x00\n        /* \"#utility.yul\":1428:1437   */\n      dup4\n        /* \"#utility.yul\":1424:1441   */\n      add\n        /* \"#utility.yul\":1415:1421   */\n      dup5\n        /* \"#utility.yul\":1371:1442   */\n      tag_30\n      jump\t// in\n    tag_49:\n        /* \"#utility.yul\":1227:1449   */\n      swap3\n      swap2\n      pop\n      pop\n      jump\t// out\n        /* \"#utility.yul\":1455:1635   */\n    tag_31:\n        /* \"#utility.yul\":1503:1580   */\n      0x4e487b7100000000000000000000000000000000000000000000000000000000\n        /* \"#utility.yul\":1500:1501   */\n      0x00\n        /* \"#utility.yul\":1493:1581   */\n      mstore\n        /* \"#utility.yul\":1600:1604   */\n      0x11\n        /* \"#utility.yul\":1597:1598   */\n      0x04\n        /* \"#utility.yul\":1590:1605   */\n      mstore\n        /* \"#utility.yul\":1624:1628   */\n      0x24\n        /* \"#utility.yul\":1621:1622   */\n      0x00\n        /* \"#utility.yul\":1614:1629   */\n      revert\n        /* \"#utility.yul\":1641:1832   */\n    tag_23:\n        /* \"#utility.yul\":1681:1684   */\n      0x00\n        /* \"#utility.yul\":1700:1720   */\n      tag_52\n        /* \"#utility.yul\":1718:1719   */\n      dup3\n        /* \"#utility.yul\":1700:1720   */\n      tag_26\n      jump\t// in\n    tag_52:\n        /* \"#utility.yul\":1695:1720   */\n      swap2\n      pop\n        /* \"#utility.yul\":1734:1754   */\n      tag_53\n        /* \"#utility.yul\":1752:1753   */\n      dup4\n        /* \"#utility.yul\":1734:1754   */\n      tag_26\n      jump\t// in\n    tag_53:\n        /* \"#utility.yul\":1729:1754   */\n      swap3\n      pop\n        /* \"#utility.yul\":1777:1778   */\n      dup3\n        /* \"#utility.yul\":1774:1775   */\n      dup3\n        /* \"#utility.yul\":1770:1779   */\n      add\n        /* \"#utility.yul\":1763:1779   */\n      swap1\n      pop\n        /* \"#utility.yul\":1798:1801   */\n      dup1\n        /* \"#utility.yul\":1795:1796   */\n      dup3\n        /* \"#utility.yul\":1792:1802   */\n      gt\n        /* \"#utility.yul\":1789:1825   */\n      iszero\n      tag_54\n      jumpi\n        /* \"#utility.yul\":1805:1823   */\n      tag_55\n      tag_31\n      jump\t// in\n    tag_55:\n        /* \"#utility.yul\":1789:1825   */\n    tag_54:\n        /* \"#utility.yul\":1641:1832   */\n      swap3\n      swap2\n      pop\n      pop\n      jump\t// out\n\n    auxdata: 0xa264697066735822122046c3f8e5131c6ab8db6bd608e6f35b8b50294269f1e6915ab40999cbeedf6e8f64736f6c63430008130033\n}\n",
				"bytecode": {
					"linkReferences": {},
					"object": "608060405234801561001057600080fd5b506102d4806100206000396000f3fe608060405234801561001057600080fd5b506004361061004c5760003560e01c80634df7e3d014610051578063c29855781461006f578063e5aa3d5814610079578063e665b26614610097575b600080fd5b6100596100b5565b6040516100669190610190565b60405180910390f35b6100776100c8565b005b61008161014b565b60405161008e91906101c4565b60405180910390f35b61009f610151565b6040516100ac9190610220565b60405180910390f35b600160009054906101000a900460ff1681565b6000607b905060006101c8826100de919061026a565b915060019050607b60008190555060018060006101000a81548160ff02191690831515021790555060018060016101000a81548173ffffffffffffffffffffffffffffffffffffffff021916908373ffffffffffffffffffffffffffffffffffffffff1602179055505050565b60005481565b60018054906101000a900473ffffffffffffffffffffffffffffffffffffffff1681565b60008115159050919050565b61018a81610175565b82525050565b60006020820190506101a56000830184610181565b92915050565b6000819050919050565b6101be816101ab565b82525050565b60006020820190506101d960008301846101b5565b92915050565b600073ffffffffffffffffffffffffffffffffffffffff82169050919050565b600061020a826101df565b9050919050565b61021a816101ff565b82525050565b60006020820190506102356000830184610211565b92915050565b7f4e487b7100000000000000000000000000000000000000000000000000000000600052601160045260246000fd5b6000610275826101ab565b9150610280836101ab565b92508282019050808211156102985761029761023b565b5b9291505056fea264697066735822122046c3f8e5131c6ab8db6bd608e6f35b8b50294269f1e6915ab40999cbeedf6e8f64736f6c63430008130033",
					"opcodes": "PUSH1 0x80 PUSH1 0x40 MSTORE CALLVALUE DUP1 ISZERO PUSH2 0x10 JUMPI PUSH1 0x0 DUP1 REVERT JUMPDEST POP PUSH2 0x2D4 DUP1 PUSH2 0x20 PUSH1 0x0 CODECOPY PUSH1 0x0 RETURN INVALID PUSH1 0x80 PUSH1 0x40 MSTORE CALLVALUE DUP1 ISZERO PUSH2 0x10 JUMPI PUSH1 0x0 DUP1 REVERT JUMPDEST POP PUSH1 0x4 CALLDATASIZE LT PUSH2 0x4C JUMPI PUSH1 0x0 CALLDATALOAD PUSH1 0xE0 SHR DUP1 PUSH4 0x4DF7E3D0 EQ PUSH2 0x51 JUMPI DUP1 PUSH4 0xC2985578 EQ PUSH2 0x6F JUMPI DUP1 PUSH4 0xE5AA3D58 EQ PUSH2 0x79 JUMPI DUP1 PUSH4 0xE665B266 EQ PUSH2 0x97 JUMPI JUMPDEST PUSH1 0x0 DUP1 REVERT JUMPDEST PUSH2 0x59 PUSH2 0xB5 JUMP JUMPDEST PUSH1 0x40 MLOAD PUSH2 0x66 SWAP2 SWAP1 PUSH2 0x190 JUMP JUMPDEST PUSH1 0x40 MLOAD DUP1 SWAP2 SUB SWAP1 RETURN JUMPDEST PUSH2 0x77 PUSH2 0xC8 JUMP JUMPDEST STOP JUMPDEST PUSH2 0x81 PUSH2 0x14B JUMP JUMPDEST PUSH1 0x40 MLOAD PUSH2 0x8E SWAP2 SWAP1 PUSH2 0x1C4 JUMP JUMPDEST PUSH1 0x40 MLOAD DUP1 SWAP2 SUB SWAP1 RETURN JUMPDEST PUSH2 0x9F PUSH2 0x151 JUMP JUMPDEST PUSH1 0x40 MLOAD PUSH2 0xAC SWAP2 SWAP1 PUSH2 0x220 JUMP JUMPDEST PUSH1 0x40 MLOAD DUP1 SWAP2 SUB SWAP1 RETURN JUMPDEST PUSH1 0x1 PUSH1 0x0 SWAP1 SLOAD SWAP1 PUSH2 0x100 EXP SWAP1 DIV PUSH1 0xFF AND DUP2 JUMP JUMPDEST PUSH1 0x0 PUSH1 0x7B SWAP1 POP PUSH1 0x0 PUSH2 0x1C8 DUP3 PUSH2 0xDE SWAP2 SWAP1 PUSH2 0x26A JUMP JUMPDEST SWAP2 POP PUSH1 0x1 SWAP1 POP PUSH1 0x7B PUSH1 0x0 DUP2 SWAP1 SSTORE POP PUSH1 0x1 DUP1 PUSH1 0x0 PUSH2 0x100 EXP DUP2 SLOAD DUP2 PUSH1 0xFF MUL NOT AND SWAP1 DUP4 ISZERO ISZERO MUL OR SWAP1 SSTORE POP PUSH1 0x1 DUP1 PUSH1 0x1 PUSH2 0x100 EXP DUP2 SLOAD DUP2 PUSH20 0xFFFFFFFFFFFFFFFFFFFFFFFFFFFFFFFFFFFFFFFF MUL NOT AND SWAP1 DUP4 PUSH20 0xFFFFFFFFFFFFFFFFFFFFFFFFFFFFFFFFFFFFFFFF AND MUL OR SWAP1 SSTORE POP POP POP JUMP JUMPDEST PUSH1 0x0 SLOAD DUP2 JUMP JUMPDEST PUSH1 0x1 DUP1 SLOAD SWAP1 PUSH2 0x100 EXP SWAP1 DIV PUSH20 0xFFFFFFFFFFFFFFFFFFFFFFFFFFFFFFFFFFFFFFFF AND DUP2 JUMP JUMPDEST PUSH1 0x0 DUP2 ISZERO ISZERO SWAP1 POP SWAP2 SWAP1 POP JUMP JUMPDEST PUSH2 0x18A DUP2 PUSH2 0x175 JUMP JUMPDEST DUP3 MSTORE POP POP JUMP JUMPDEST PUSH1 0x0 PUSH1 0x20 DUP3 ADD SWAP1 POP PUSH2 0x1A5 PUSH1 0x0 DUP4 ADD DUP5 PUSH2 0x181 JUMP JUMPDEST SWAP3 SWAP2 POP POP JUMP JUMPDEST PUSH1 0x0 DUP2 SWAP1 POP SWAP2 SWAP1 POP JUMP JUMPDEST PUSH2 0x1BE DUP2 PUSH2 0x1AB JUMP JUMPDEST DUP3 MSTORE POP POP JUMP JUMPDEST PUSH1 0x0 PUSH1 0x20 DUP3 ADD SWAP1 POP PUSH2 0x1D9 PUSH1 0x0 DUP4 ADD DUP5 PUSH2 0x1B5 JUMP JUMPDEST SWAP3 SWAP2 POP POP JUMP JUMPDEST PUSH1 0x0 PUSH20 0xFFFFFFFFFFFFFFFFFFFFFFFFFFFFFFFFFFFFFFFF DUP3 AND SWAP1 POP SWAP2 SWAP1 POP JUMP JUMPDEST PUSH1 0x0 PUSH2 0x20A DUP3 PUSH2 0x1DF JUMP JUMPDEST SWAP1 POP SWAP2 SWAP1 POP JUMP JUMPDEST PUSH2 0x21A DUP2 PUSH2 0x1FF JUMP JUMPDEST DUP3 MSTORE POP POP JUMP JUMPDEST PUSH1 0x0 PUSH1 0x20 DUP3 ADD SWAP1 POP PUSH2 0x235 PUSH1 0x0 DUP4 ADD DUP5 PUSH2 0x211 JUMP JUMPDEST SWAP3 SWAP2 POP POP JUMP JUMPDEST PUSH32 0x4E487B7100000000000000000000000000000000000000000000000000000000 PUSH1 0x0 MSTORE PUSH1 0x11 PUSH1 0x4 MSTORE PUSH1 0x24 PUSH1 0x0 REVERT JUMPDEST PUSH1 0x0 PUSH2 0x275 DUP3 PUSH2 0x1AB JUMP JUMPDEST SWAP2 POP PUSH2 0x280 DUP4 PUSH2 0x1AB JUMP JUMPDEST SWAP3 POP DUP3 DUP3 ADD SWAP1 POP DUP1 DUP3 GT ISZERO PUSH2 0x298 JUMPI PUSH2 0x297 PUSH2 0x23B JUMP JUMPDEST JUMPDEST SWAP3 SWAP2 POP POP JUMP INVALID LOG2 PUSH5 0x6970667358 0x22 SLT KECCAK256 CHAINID 0xC3 0xF8 0xE5 SGT SHR PUSH11 0xB8DB6BD608E6F35B8B5029 TIMESTAMP PUSH10 0xF1E6915AB40999CBEEDF PUSH15 0x8F64736F6C63430008130033000000 "
				},
				"gasEstimates": {
					"creation": {
						"codeDepositCost": "144800",
						"executionCost": "190",
						"totalCost": "144990"
					},
					"external": {
						"b()": "2449",
						"foo()": "infinite",
						"i()": "2451",
						"myAddr()": "2605"
					}
				},
				"methodIdentifiers": {
					"b()": "4df7e3d0",
					"foo()": "c2985578",
					"i()": "e5aa3d58",
					"myAddr()": "e665b266"
				}
			},
			"storageLayout": {
				"storage": [
					{
						"astId": 3,
						"contract": "appworks_blockchain_batch2/contracts/wk3/LocalVariables.sol:LocalVariables",
						"label": "i",
						"offset": 0,
						"slot": "0",
						"type": "t_uint256"
					},
					{
						"astId": 5,
						"contract": "appworks_blockchain_batch2/contracts/wk3/LocalVariables.sol:LocalVariables",
						"label": "b",
						"offset": 0,
						"slot": "1",
						"type": "t_bool"
					},
					{
						"astId": 7,
						"contract": "appworks_blockchain_batch2/contracts/wk3/LocalVariables.sol:LocalVariables",
						"label": "myAddr",
						"offset": 1,
						"slot": "1",
						"type": "t_address"
					}
				],
				"types": {
					"t_address": {
						"encoding": "inplace",
						"label": "address",
						"numberOfBytes": "20"
					},
					"t_bool": {
						"encoding": "inplace",
						"label": "bool",
						"numberOfBytes": "1"
					},
					"t_uint256": {
						"encoding": "inplace",
						"label": "uint256",
						"numberOfBytes": "32"
					}
				}
			},
			"userdoc": {
				"kind": "user",
				"methods": {},
				"version": 1
			}
		}
	}
}