{
	"data": {
		"bytecode": {
			"linkReferences": {},
			"object": "608060405234801561001057600080fd5b50610d9a806100206000396000f3fe60806040526004361061003f5760003560e01c80630f560cd71461004457806391a2fa951461006f578063b6a46b3b1461008b578063ee423194146100b4575b600080fd5b34801561005057600080fd5b506100596100d0565b60405161006691906106f1565b60405180910390f35b61008960048036038101906100849190610749565b610211565b005b34801561009757600080fd5b506100b260048036038101906100ad91906107db565b6102dc565b005b6100ce60048036038101906100c99190610749565b61046b565b005b60606000803373ffffffffffffffffffffffffffffffffffffffff1673ffffffffffffffffffffffffffffffffffffffff168152602001908152602001600020805480602002602001604051908101604052809291908181526020016000905b82821015610208578382906000526020600020906003020160405180606001604052908160008201805461016390610857565b80601f016020809104026020016040519081016040528092919081815260200182805461018f90610857565b80156101dc5780601f106101b1576101008083540402835291602001916101dc565b820191906000526020600020905b8154815290600101906020018083116101bf57829003601f168201915b505050505081526020016001820154815260200160028201548152505081526020019060010190610130565b50505050905090565b662386f26fc10000341461025a576040517f08c379a00000000000000000000000000000000000000000000000000000000081526004016102519061090b565b60405180910390fd5b60008060003373ffffffffffffffffffffffffffffffffffffffff1673ffffffffffffffffffffffffffffffffffffffff16815260200190815260200160002082815481106102ac576102ab61092b565b5b9060005260206000209060030201905060648160020160008282546102d19190610989565b925050819055505050565b600060056103e884846040516020016102f69291906109fc565b6040516020818303038152906040528051906020012060001c6103199190610a44565b6103239190610a75565b90506000603c6064858560405160200161033e9291906109fc565b6040516020818303038152906040528051906020012060001c6103619190610a44565b61036b9190610a75565b90506000604051806060016040528086868080601f016020809104026020016040519081016040528093929190818152602001838380828437600081840152601f19601f8201169050808301925050505050505081526020018481526020018381525090506000803373ffffffffffffffffffffffffffffffffffffffff1673ffffffffffffffffffffffffffffffffffffffff168152602001908152602001600020819080600181540180825580915050600190039060005260206000209060030201600090919091909150600082015181600001908161044d9190610c92565b50602082015181600101556040820151816002015550505050505050565b662386f26fc1000034146104b4576040517f08c379a00000000000000000000000000000000000000000000000000000000081526004016104ab9061090b565b60405180910390fd5b60008060003373ffffffffffffffffffffffffffffffffffffffff1673ffffffffffffffffffffffffffffffffffffffff16815260200190815260200160002082815481106105065761050561092b565b5b90600052602060002090600302019050606481600101600082825461052b9190610989565b925050819055505050565b600081519050919050565b600082825260208201905092915050565b6000819050602082019050919050565b600081519050919050565b600082825260208201905092915050565b60005b8381101561059c578082015181840152602081019050610581565b60008484015250505050565b6000601f19601f8301169050919050565b60006105c482610562565b6105ce818561056d565b93506105de81856020860161057e565b6105e7816105a8565b840191505092915050565b6000819050919050565b610605816105f2565b82525050565b6000606083016000830151848203600086015261062882826105b9565b915050602083015161063d60208601826105fc565b50604083015161065060408601826105fc565b508091505092915050565b6000610667838361060b565b905092915050565b6000602082019050919050565b600061068782610536565b6106918185610541565b9350836020820285016106a385610552565b8060005b858110156106df57848403895281516106c0858261065b565b94506106cb8361066f565b925060208a019950506001810190506106a7565b50829750879550505050505092915050565b6000602082019050818103600083015261070b818461067c565b905092915050565b600080fd5b600080fd5b610726816105f2565b811461073157600080fd5b50565b6000813590506107438161071d565b92915050565b60006020828403121561075f5761075e610713565b5b600061076d84828501610734565b91505092915050565b600080fd5b600080fd5b600080fd5b60008083601f84011261079b5761079a610776565b5b8235905067ffffffffffffffff8111156107b8576107b761077b565b5b6020830191508360018202830111156107d4576107d3610780565b5b9250929050565b600080602083850312156107f2576107f1610713565b5b600083013567ffffffffffffffff8111156108105761080f610718565b5b61081c85828601610785565b92509250509250929050565b7f4e487b7100000000000000000000000000000000000000000000000000000000600052602260045260246000fd5b6000600282049050600182168061086f57607f821691505b60208210810361088257610881610828565b5b50919050565b600082825260208201905092915050565b7f416d6f756e742073686f756c642062652067726561746572207468616e20302e60008201527f3031204574686572000000000000000000000000000000000000000000000000602082015250565b60006108f5602883610888565b915061090082610899565b604082019050919050565b60006020820190508181036000830152610924816108e8565b9050919050565b7f4e487b7100000000000000000000000000000000000000000000000000000000600052603260045260246000fd5b7f4e487b7100000000000000000000000000000000000000000000000000000000600052601160045260246000fd5b6000610994826105f2565b915061099f836105f2565b92508282019050808211156109b7576109b661095a565b5b92915050565b600081905092915050565b82818337600083830152505050565b60006109e383856109bd565b93506109f08385846109c8565b82840190509392505050565b6000610a098284866109d7565b91508190509392505050565b7f4e487b7100000000000000000000000000000000000000000000000000000000600052601260045260246000fd5b6000610a4f826105f2565b9150610a5a836105f2565b925082610a6a57610a69610a15565b5b828206905092915050565b6000610a80826105f2565b9150610a8b836105f2565b9250828202610a99816105f2565b91508282048414831517610ab057610aaf61095a565b5b5092915050565b7f4e487b7100000000000000000000000000000000000000000000000000000000600052604160045260246000fd5b60008190508160005260206000209050919050565b60006020601f8301049050919050565b600082821b905092915050565b600060088302610b487fffffffffffffffffffffffffffffffffffffffffffffffffffffffffffffffff82610b0b565b610b528683610b0b565b95508019841693508086168417925050509392505050565b6000819050919050565b6000610b8f610b8a610b85846105f2565b610b6a565b6105f2565b9050919050565b6000819050919050565b610ba983610b74565b610bbd610bb582610b96565b848454610b18565b825550505050565b600090565b610bd2610bc5565b610bdd818484610ba0565b505050565b5b81811015610c0157610bf6600082610bca565b600181019050610be3565b5050565b601f821115610c4657610c1781610ae6565b610c2084610afb565b81016020851015610c2f578190505b610c43610c3b85610afb565b830182610be2565b50505b505050565b600082821c905092915050565b6000610c6960001984600802610c4b565b1980831691505092915050565b6000610c828383610c58565b9150826002028217905092915050565b610c9b82610562565b67ffffffffffffffff811115610cb457610cb3610ab7565b5b610cbe8254610857565b610cc9828285610c05565b600060209050601f831160018114610cfc5760008415610cea578287015190505b610cf48582610c76565b865550610d5c565b601f198416610d0a86610ae6565b60005b82811015610d3257848901518255600182019150602085019450602081019050610d0d565b86831015610d4f5784890151610d4b601f891682610c58565b8355505b6001600288020188555050505b50505050505056fea2646970667358221220649e6f0f06e87f8166c7d4e9429a6cc4be06659f317ee4a49160d65de26f26a764736f6c63430008130033",
			"opcodes": "PUSH1 0x80 PUSH1 0x40 MSTORE CALLVALUE DUP1 ISZERO PUSH2 0x10 JUMPI PUSH1 0x0 DUP1 REVERT JUMPDEST POP PUSH2 0xD9A DUP1 PUSH2 0x20 PUSH1 0x0 CODECOPY PUSH1 0x0 RETURN INVALID PUSH1 0x80 PUSH1 0x40 MSTORE PUSH1 0x4 CALLDATASIZE LT PUSH2 0x3F JUMPI PUSH1 0x0 CALLDATALOAD PUSH1 0xE0 SHR DUP1 PUSH4 0xF560CD7 EQ PUSH2 0x44 JUMPI DUP1 PUSH4 0x91A2FA95 EQ PUSH2 0x6F JUMPI DUP1 PUSH4 0xB6A46B3B EQ PUSH2 0x8B JUMPI DUP1 PUSH4 0xEE423194 EQ PUSH2 0xB4 JUMPI JUMPDEST PUSH1 0x0 DUP1 REVERT JUMPDEST CALLVALUE DUP1 ISZERO PUSH2 0x50 JUMPI PUSH1 0x0 DUP1 REVERT JUMPDEST POP PUSH2 0x59 PUSH2 0xD0 JUMP JUMPDEST PUSH1 0x40 MLOAD PUSH2 0x66 SWAP2 SWAP1 PUSH2 0x6F1 JUMP JUMPDEST PUSH1 0x40 MLOAD DUP1 SWAP2 SUB SWAP1 RETURN JUMPDEST PUSH2 0x89 PUSH1 0x4 DUP1 CALLDATASIZE SUB DUP2 ADD SWAP1 PUSH2 0x84 SWAP2 SWAP1 PUSH2 0x749 JUMP JUMPDEST PUSH2 0x211 JUMP JUMPDEST STOP JUMPDEST CALLVALUE DUP1 ISZERO PUSH2 0x97 JUMPI PUSH1 0x0 DUP1 REVERT JUMPDEST POP PUSH2 0xB2 PUSH1 0x4 DUP1 CALLDATASIZE SUB DUP2 ADD SWAP1 PUSH2 0xAD SWAP2 SWAP1 PUSH2 0x7DB JUMP JUMPDEST PUSH2 0x2DC JUMP JUMPDEST STOP JUMPDEST PUSH2 0xCE PUSH1 0x4 DUP1 CALLDATASIZE SUB DUP2 ADD SWAP1 PUSH2 0xC9 SWAP2 SWAP1 PUSH2 0x749 JUMP JUMPDEST PUSH2 0x46B JUMP JUMPDEST STOP JUMPDEST PUSH1 0x60 PUSH1 0x0 DUP1 CALLER PUSH20 0xFFFFFFFFFFFFFFFFFFFFFFFFFFFFFFFFFFFFFFFF AND PUSH20 0xFFFFFFFFFFFFFFFFFFFFFFFFFFFFFFFFFFFFFFFF AND DUP2 MSTORE PUSH1 0x20 ADD SWAP1 DUP2 MSTORE PUSH1 0x20 ADD PUSH1 0x0 KECCAK256 DUP1 SLOAD DUP1 PUSH1 0x20 MUL PUSH1 0x20 ADD PUSH1 0x40 MLOAD SWAP1 DUP2 ADD PUSH1 0x40 MSTORE DUP1 SWAP3 SWAP2 SWAP1 DUP2 DUP2 MSTORE PUSH1 0x20 ADD PUSH1 0x0 SWAP1 JUMPDEST DUP3 DUP3 LT ISZERO PUSH2 0x208 JUMPI DUP4 DUP3 SWAP1 PUSH1 0x0 MSTORE PUSH1 0x20 PUSH1 0x0 KECCAK256 SWAP1 PUSH1 0x3 MUL ADD PUSH1 0x40 MLOAD DUP1 PUSH1 0x60 ADD PUSH1 0x40 MSTORE SWAP1 DUP2 PUSH1 0x0 DUP3 ADD DUP1 SLOAD PUSH2 0x163 SWAP1 PUSH2 0x857 JUMP JUMPDEST DUP1 PUSH1 0x1F ADD PUSH1 0x20 DUP1 SWAP2 DIV MUL PUSH1 0x20 ADD PUSH1 0x40 MLOAD SWAP1 DUP2 ADD PUSH1 0x40 MSTORE DUP1 SWAP3 SWAP2 SWAP1 DUP2 DUP2 MSTORE PUSH1 0x20 ADD DUP3 DUP1 SLOAD PUSH2 0x18F SWAP1 PUSH2 0x857 JUMP JUMPDEST DUP1 ISZERO PUSH2 0x1DC JUMPI DUP1 PUSH1 0x1F LT PUSH2 0x1B1 JUMPI PUSH2 0x100 DUP1 DUP4 SLOAD DIV MUL DUP4 MSTORE SWAP2 PUSH1 0x20 ADD SWAP2 PUSH2 0x1DC JUMP JUMPDEST DUP3 ADD SWAP2 SWAP1 PUSH1 0x0 MSTORE PUSH1 0x20 PUSH1 0x0 KECCAK256 SWAP1 JUMPDEST DUP2 SLOAD DUP2 MSTORE SWAP1 PUSH1 0x1 ADD SWAP1 PUSH1 0x20 ADD DUP1 DUP4 GT PUSH2 0x1BF JUMPI DUP3 SWAP1 SUB PUSH1 0x1F AND DUP3 ADD SWAP2 JUMPDEST POP POP POP POP POP DUP2 MSTORE PUSH1 0x20 ADD PUSH1 0x1 DUP3 ADD SLOAD DUP2 MSTORE PUSH1 0x20 ADD PUSH1 0x2 DUP3 ADD SLOAD DUP2 MSTORE POP POP DUP2 MSTORE PUSH1 0x20 ADD SWAP1 PUSH1 0x1 ADD SWAP1 PUSH2 0x130 JUMP JUMPDEST POP POP POP POP SWAP1 POP SWAP1 JUMP JUMPDEST PUSH7 0x2386F26FC10000 CALLVALUE EQ PUSH2 0x25A JUMPI PUSH1 0x40 MLOAD PUSH32 0x8C379A000000000000000000000000000000000000000000000000000000000 DUP2 MSTORE PUSH1 0x4 ADD PUSH2 0x251 SWAP1 PUSH2 0x90B JUMP JUMPDEST PUSH1 0x40 MLOAD DUP1 SWAP2 SUB SWAP1 REVERT JUMPDEST PUSH1 0x0 DUP1 PUSH1 0x0 CALLER PUSH20 0xFFFFFFFFFFFFFFFFFFFFFFFFFFFFFFFFFFFFFFFF AND PUSH20 0xFFFFFFFFFFFFFFFFFFFFFFFFFFFFFFFFFFFFFFFF AND DUP2 MSTORE PUSH1 0x20 ADD SWAP1 DUP2 MSTORE PUSH1 0x20 ADD PUSH1 0x0 KECCAK256 DUP3 DUP2 SLOAD DUP2 LT PUSH2 0x2AC JUMPI PUSH2 0x2AB PUSH2 0x92B JUMP JUMPDEST JUMPDEST SWAP1 PUSH1 0x0 MSTORE PUSH1 0x20 PUSH1 0x0 KECCAK256 SWAP1 PUSH1 0x3 MUL ADD SWAP1 POP PUSH1 0x64 DUP2 PUSH1 0x2 ADD PUSH1 0x0 DUP3 DUP3 SLOAD PUSH2 0x2D1 SWAP2 SWAP1 PUSH2 0x989 JUMP JUMPDEST SWAP3 POP POP DUP2 SWAP1 SSTORE POP POP POP JUMP JUMPDEST PUSH1 0x0 PUSH1 0x5 PUSH2 0x3E8 DUP5 DUP5 PUSH1 0x40 MLOAD PUSH1 0x20 ADD PUSH2 0x2F6 SWAP3 SWAP2 SWAP1 PUSH2 0x9FC JUMP JUMPDEST PUSH1 0x40 MLOAD PUSH1 0x20 DUP2 DUP4 SUB SUB DUP2 MSTORE SWAP1 PUSH1 0x40 MSTORE DUP1 MLOAD SWAP1 PUSH1 0x20 ADD KECCAK256 PUSH1 0x0 SHR PUSH2 0x319 SWAP2 SWAP1 PUSH2 0xA44 JUMP JUMPDEST PUSH2 0x323 SWAP2 SWAP1 PUSH2 0xA75 JUMP JUMPDEST SWAP1 POP PUSH1 0x0 PUSH1 0x3C PUSH1 0x64 DUP6 DUP6 PUSH1 0x40 MLOAD PUSH1 0x20 ADD PUSH2 0x33E SWAP3 SWAP2 SWAP1 PUSH2 0x9FC JUMP JUMPDEST PUSH1 0x40 MLOAD PUSH1 0x20 DUP2 DUP4 SUB SUB DUP2 MSTORE SWAP1 PUSH1 0x40 MSTORE DUP1 MLOAD SWAP1 PUSH1 0x20 ADD KECCAK256 PUSH1 0x0 SHR PUSH2 0x361 SWAP2 SWAP1 PUSH2 0xA44 JUMP JUMPDEST PUSH2 0x36B SWAP2 SWAP1 PUSH2 0xA75 JUMP JUMPDEST SWAP1 POP PUSH1 0x0 PUSH1 0x40 MLOAD DUP1 PUSH1 0x60 ADD PUSH1 0x40 MSTORE DUP1 DUP7 DUP7 DUP1 DUP1 PUSH1 0x1F ADD PUSH1 0x20 DUP1 SWAP2 DIV MUL PUSH1 0x20 ADD PUSH1 0x40 MLOAD SWAP1 DUP2 ADD PUSH1 0x40 MSTORE DUP1 SWAP4 SWAP3 SWAP2 SWAP1 DUP2 DUP2 MSTORE PUSH1 0x20 ADD DUP4 DUP4 DUP1 DUP3 DUP5 CALLDATACOPY PUSH1 0x0 DUP2 DUP5 ADD MSTORE PUSH1 0x1F NOT PUSH1 0x1F DUP3 ADD AND SWAP1 POP DUP1 DUP4 ADD SWAP3 POP POP POP POP POP POP POP DUP2 MSTORE PUSH1 0x20 ADD DUP5 DUP2 MSTORE PUSH1 0x20 ADD DUP4 DUP2 MSTORE POP SWAP1 POP PUSH1 0x0 DUP1 CALLER PUSH20 0xFFFFFFFFFFFFFFFFFFFFFFFFFFFFFFFFFFFFFFFF AND PUSH20 0xFFFFFFFFFFFFFFFFFFFFFFFFFFFFFFFFFFFFFFFF AND DUP2 MSTORE PUSH1 0x20 ADD SWAP1 DUP2 MSTORE PUSH1 0x20 ADD PUSH1 0x0 KECCAK256 DUP2 SWAP1 DUP1 PUSH1 0x1 DUP2 SLOAD ADD DUP1 DUP3 SSTORE DUP1 SWAP2 POP POP PUSH1 0x1 SWAP1 SUB SWAP1 PUSH1 0x0 MSTORE PUSH1 0x20 PUSH1 0x0 KECCAK256 SWAP1 PUSH1 0x3 MUL ADD PUSH1 0x0 SWAP1 SWAP2 SWAP1 SWAP2 SWAP1 SWAP2 POP PUSH1 0x0 DUP3 ADD MLOAD DUP2 PUSH1 0x0 ADD SWAP1 DUP2 PUSH2 0x44D SWAP2 SWAP1 PUSH2 0xC92 JUMP JUMPDEST POP PUSH1 0x20 DUP3 ADD MLOAD DUP2 PUSH1 0x1 ADD SSTORE PUSH1 0x40 DUP3 ADD MLOAD DUP2 PUSH1 0x2 ADD SSTORE POP POP POP POP POP POP POP JUMP JUMPDEST PUSH7 0x2386F26FC10000 CALLVALUE EQ PUSH2 0x4B4 JUMPI PUSH1 0x40 MLOAD PUSH32 0x8C379A000000000000000000000000000000000000000000000000000000000 DUP2 MSTORE PUSH1 0x4 ADD PUSH2 0x4AB SWAP1 PUSH2 0x90B JUMP JUMPDEST PUSH1 0x40 MLOAD DUP1 SWAP2 SUB SWAP1 REVERT JUMPDEST PUSH1 0x0 DUP1 PUSH1 0x0 CALLER PUSH20 0xFFFFFFFFFFFFFFFFFFFFFFFFFFFFFFFFFFFFFFFF AND PUSH20 0xFFFFFFFFFFFFFFFFFFFFFFFFFFFFFFFFFFFFFFFF AND DUP2 MSTORE PUSH1 0x20 ADD SWAP1 DUP2 MSTORE PUSH1 0x20 ADD PUSH1 0x0 KECCAK256 DUP3 DUP2 SLOAD DUP2 LT PUSH2 0x506 JUMPI PUSH2 0x505 PUSH2 0x92B JUMP JUMPDEST JUMPDEST SWAP1 PUSH1 0x0 MSTORE PUSH1 0x20 PUSH1 0x0 KECCAK256 SWAP1 PUSH1 0x3 MUL ADD SWAP1 POP PUSH1 0x64 DUP2 PUSH1 0x1 ADD PUSH1 0x0 DUP3 DUP3 SLOAD PUSH2 0x52B SWAP2 SWAP1 PUSH2 0x989 JUMP JUMPDEST SWAP3 POP POP DUP2 SWAP1 SSTORE POP POP POP JUMP JUMPDEST PUSH1 0x0 DUP2 MLOAD SWAP1 POP SWAP2 SWAP1 POP JUMP JUMPDEST PUSH1 0x0 DUP3 DUP3 MSTORE PUSH1 0x20 DUP3 ADD SWAP1 POP SWAP3 SWAP2 POP POP JUMP JUMPDEST PUSH1 0x0 DUP2 SWAP1 POP PUSH1 0x20 DUP3 ADD SWAP1 POP SWAP2 SWAP1 POP JUMP JUMPDEST PUSH1 0x0 DUP2 MLOAD SWAP1 POP SWAP2 SWAP1 POP JUMP JUMPDEST PUSH1 0x0 DUP3 DUP3 MSTORE PUSH1 0x20 DUP3 ADD SWAP1 POP SWAP3 SWAP2 POP POP JUMP JUMPDEST PUSH1 0x0 JUMPDEST DUP4 DUP2 LT ISZERO PUSH2 0x59C JUMPI DUP1 DUP3 ADD MLOAD DUP2 DUP5 ADD MSTORE PUSH1 0x20 DUP2 ADD SWAP1 POP PUSH2 0x581 JUMP JUMPDEST PUSH1 0x0 DUP5 DUP5 ADD MSTORE POP POP POP POP JUMP JUMPDEST PUSH1 0x0 PUSH1 0x1F NOT PUSH1 0x1F DUP4 ADD AND SWAP1 POP SWAP2 SWAP1 POP JUMP JUMPDEST PUSH1 0x0 PUSH2 0x5C4 DUP3 PUSH2 0x562 JUMP JUMPDEST PUSH2 0x5CE DUP2 DUP6 PUSH2 0x56D JUMP JUMPDEST SWAP4 POP PUSH2 0x5DE DUP2 DUP6 PUSH1 0x20 DUP7 ADD PUSH2 0x57E JUMP JUMPDEST PUSH2 0x5E7 DUP2 PUSH2 0x5A8 JUMP JUMPDEST DUP5 ADD SWAP2 POP POP SWAP3 SWAP2 POP POP JUMP JUMPDEST PUSH1 0x0 DUP2 SWAP1 POP SWAP2 SWAP1 POP JUMP JUMPDEST PUSH2 0x605 DUP2 PUSH2 0x5F2 JUMP JUMPDEST DUP3 MSTORE POP POP JUMP JUMPDEST PUSH1 0x0 PUSH1 0x60 DUP4 ADD PUSH1 0x0 DUP4 ADD MLOAD DUP5 DUP3 SUB PUSH1 0x0 DUP7 ADD MSTORE PUSH2 0x628 DUP3 DUP3 PUSH2 0x5B9 JUMP JUMPDEST SWAP2 POP POP PUSH1 0x20 DUP4 ADD MLOAD PUSH2 0x63D PUSH1 0x20 DUP7 ADD DUP3 PUSH2 0x5FC JUMP JUMPDEST POP PUSH1 0x40 DUP4 ADD MLOAD PUSH2 0x650 PUSH1 0x40 DUP7 ADD DUP3 PUSH2 0x5FC JUMP JUMPDEST POP DUP1 SWAP2 POP POP SWAP3 SWAP2 POP POP JUMP JUMPDEST PUSH1 0x0 PUSH2 0x667 DUP4 DUP4 PUSH2 0x60B JUMP JUMPDEST SWAP1 POP SWAP3 SWAP2 POP POP JUMP JUMPDEST PUSH1 0x0 PUSH1 0x20 DUP3 ADD SWAP1 POP SWAP2 SWAP1 POP JUMP JUMPDEST PUSH1 0x0 PUSH2 0x687 DUP3 PUSH2 0x536 JUMP JUMPDEST PUSH2 0x691 DUP2 DUP6 PUSH2 0x541 JUMP JUMPDEST SWAP4 POP DUP4 PUSH1 0x20 DUP3 MUL DUP6 ADD PUSH2 0x6A3 DUP6 PUSH2 0x552 JUMP JUMPDEST DUP1 PUSH1 0x0 JUMPDEST DUP6 DUP2 LT ISZERO PUSH2 0x6DF JUMPI DUP5 DUP5 SUB DUP10 MSTORE DUP2 MLOAD PUSH2 0x6C0 DUP6 DUP3 PUSH2 0x65B JUMP JUMPDEST SWAP5 POP PUSH2 0x6CB DUP4 PUSH2 0x66F JUMP JUMPDEST SWAP3 POP PUSH1 0x20 DUP11 ADD SWAP10 POP POP PUSH1 0x1 DUP2 ADD SWAP1 POP PUSH2 0x6A7 JUMP JUMPDEST POP DUP3 SWAP8 POP DUP8 SWAP6 POP POP POP POP POP POP SWAP3 SWAP2 POP POP JUMP JUMPDEST PUSH1 0x0 PUSH1 0x20 DUP3 ADD SWAP1 POP DUP2 DUP2 SUB PUSH1 0x0 DUP4 ADD MSTORE PUSH2 0x70B DUP2 DUP5 PUSH2 0x67C JUMP JUMPDEST SWAP1 POP SWAP3 SWAP2 POP POP JUMP JUMPDEST PUSH1 0x0 DUP1 REVERT JUMPDEST PUSH1 0x0 DUP1 REVERT JUMPDEST PUSH2 0x726 DUP2 PUSH2 0x5F2 JUMP JUMPDEST DUP2 EQ PUSH2 0x731 JUMPI PUSH1 0x0 DUP1 REVERT JUMPDEST POP JUMP JUMPDEST PUSH1 0x0 DUP2 CALLDATALOAD SWAP1 POP PUSH2 0x743 DUP2 PUSH2 0x71D JUMP JUMPDEST SWAP3 SWAP2 POP POP JUMP JUMPDEST PUSH1 0x0 PUSH1 0x20 DUP3 DUP5 SUB SLT ISZERO PUSH2 0x75F JUMPI PUSH2 0x75E PUSH2 0x713 JUMP JUMPDEST JUMPDEST PUSH1 0x0 PUSH2 0x76D DUP5 DUP3 DUP6 ADD PUSH2 0x734 JUMP JUMPDEST SWAP2 POP POP SWAP3 SWAP2 POP POP JUMP JUMPDEST PUSH1 0x0 DUP1 REVERT JUMPDEST PUSH1 0x0 DUP1 REVERT JUMPDEST PUSH1 0x0 DUP1 REVERT JUMPDEST PUSH1 0x0 DUP1 DUP4 PUSH1 0x1F DUP5 ADD SLT PUSH2 0x79B JUMPI PUSH2 0x79A PUSH2 0x776 JUMP JUMPDEST JUMPDEST DUP3 CALLDATALOAD SWAP1 POP PUSH8 0xFFFFFFFFFFFFFFFF DUP2 GT ISZERO PUSH2 0x7B8 JUMPI PUSH2 0x7B7 PUSH2 0x77B JUMP JUMPDEST JUMPDEST PUSH1 0x20 DUP4 ADD SWAP2 POP DUP4 PUSH1 0x1 DUP3 MUL DUP4 ADD GT ISZERO PUSH2 0x7D4 JUMPI PUSH2 0x7D3 PUSH2 0x780 JUMP JUMPDEST JUMPDEST SWAP3 POP SWAP3 SWAP1 POP JUMP JUMPDEST PUSH1 0x0 DUP1 PUSH1 0x20 DUP4 DUP6 SUB SLT ISZERO PUSH2 0x7F2 JUMPI PUSH2 0x7F1 PUSH2 0x713 JUMP JUMPDEST JUMPDEST PUSH1 0x0 DUP4 ADD CALLDATALOAD PUSH8 0xFFFFFFFFFFFFFFFF DUP2 GT ISZERO PUSH2 0x810 JUMPI PUSH2 0x80F PUSH2 0x718 JUMP JUMPDEST JUMPDEST PUSH2 0x81C DUP6 DUP3 DUP7 ADD PUSH2 0x785 JUMP JUMPDEST SWAP3 POP SWAP3 POP POP SWAP3 POP SWAP3 SWAP1 POP JUMP JUMPDEST PUSH32 0x4E487B7100000000000000000000000000000000000000000000000000000000 PUSH1 0x0 MSTORE PUSH1 0x22 PUSH1 0x4 MSTORE PUSH1 0x24 PUSH1 0x0 REVERT JUMPDEST PUSH1 0x0 PUSH1 0x2 DUP3 DIV SWAP1 POP PUSH1 0x1 DUP3 AND DUP1 PUSH2 0x86F JUMPI PUSH1 0x7F DUP3 AND SWAP2 POP JUMPDEST PUSH1 0x20 DUP3 LT DUP2 SUB PUSH2 0x882 JUMPI PUSH2 0x881 PUSH2 0x828 JUMP JUMPDEST JUMPDEST POP SWAP2 SWAP1 POP JUMP JUMPDEST PUSH1 0x0 DUP3 DUP3 MSTORE PUSH1 0x20 DUP3 ADD SWAP1 POP SWAP3 SWAP2 POP POP JUMP JUMPDEST PUSH32 0x416D6F756E742073686F756C642062652067726561746572207468616E20302E PUSH1 0x0 DUP3 ADD MSTORE PUSH32 0x3031204574686572000000000000000000000000000000000000000000000000 PUSH1 0x20 DUP3 ADD MSTORE POP JUMP JUMPDEST PUSH1 0x0 PUSH2 0x8F5 PUSH1 0x28 DUP4 PUSH2 0x888 JUMP JUMPDEST SWAP2 POP PUSH2 0x900 DUP3 PUSH2 0x899 JUMP JUMPDEST PUSH1 0x40 DUP3 ADD SWAP1 POP SWAP2 SWAP1 POP JUMP JUMPDEST PUSH1 0x0 PUSH1 0x20 DUP3 ADD SWAP1 POP DUP2 DUP2 SUB PUSH1 0x0 DUP4 ADD MSTORE PUSH2 0x924 DUP2 PUSH2 0x8E8 JUMP JUMPDEST SWAP1 POP SWAP2 SWAP1 POP JUMP JUMPDEST PUSH32 0x4E487B7100000000000000000000000000000000000000000000000000000000 PUSH1 0x0 MSTORE PUSH1 0x32 PUSH1 0x4 MSTORE PUSH1 0x24 PUSH1 0x0 REVERT JUMPDEST PUSH32 0x4E487B7100000000000000000000000000000000000000000000000000000000 PUSH1 0x0 MSTORE PUSH1 0x11 PUSH1 0x4 MSTORE PUSH1 0x24 PUSH1 0x0 REVERT JUMPDEST PUSH1 0x0 PUSH2 0x994 DUP3 PUSH2 0x5F2 JUMP JUMPDEST SWAP2 POP PUSH2 0x99F DUP4 PUSH2 0x5F2 JUMP JUMPDEST SWAP3 POP DUP3 DUP3 ADD SWAP1 POP DUP1 DUP3 GT ISZERO PUSH2 0x9B7 JUMPI PUSH2 0x9B6 PUSH2 0x95A JUMP JUMPDEST JUMPDEST SWAP3 SWAP2 POP POP JUMP JUMPDEST PUSH1 0x0 DUP2 SWAP1 POP SWAP3 SWAP2 POP POP JUMP JUMPDEST DUP3 DUP2 DUP4 CALLDATACOPY PUSH1 0x0 DUP4 DUP4 ADD MSTORE POP POP POP JUMP JUMPDEST PUSH1 0x0 PUSH2 0x9E3 DUP4 DUP6 PUSH2 0x9BD JUMP JUMPDEST SWAP4 POP PUSH2 0x9F0 DUP4 DUP6 DUP5 PUSH2 0x9C8 JUMP JUMPDEST DUP3 DUP5 ADD SWAP1 POP SWAP4 SWAP3 POP POP POP JUMP JUMPDEST PUSH1 0x0 PUSH2 0xA09 DUP3 DUP5 DUP7 PUSH2 0x9D7 JUMP JUMPDEST SWAP2 POP DUP2 SWAP1 POP SWAP4 SWAP3 POP POP POP JUMP JUMPDEST PUSH32 0x4E487B7100000000000000000000000000000000000000000000000000000000 PUSH1 0x0 MSTORE PUSH1 0x12 PUSH1 0x4 MSTORE PUSH1 0x24 PUSH1 0x0 REVERT JUMPDEST PUSH1 0x0 PUSH2 0xA4F DUP3 PUSH2 0x5F2 JUMP JUMPDEST SWAP2 POP PUSH2 0xA5A DUP4 PUSH2 0x5F2 JUMP JUMPDEST SWAP3 POP DUP3 PUSH2 0xA6A JUMPI PUSH2 0xA69 PUSH2 0xA15 JUMP JUMPDEST JUMPDEST DUP3 DUP3 MOD SWAP1 POP SWAP3 SWAP2 POP POP JUMP JUMPDEST PUSH1 0x0 PUSH2 0xA80 DUP3 PUSH2 0x5F2 JUMP JUMPDEST SWAP2 POP PUSH2 0xA8B DUP4 PUSH2 0x5F2 JUMP JUMPDEST SWAP3 POP DUP3 DUP3 MUL PUSH2 0xA99 DUP2 PUSH2 0x5F2 JUMP JUMPDEST SWAP2 POP DUP3 DUP3 DIV DUP5 EQ DUP4 ISZERO OR PUSH2 0xAB0 JUMPI PUSH2 0xAAF PUSH2 0x95A JUMP JUMPDEST JUMPDEST POP SWAP3 SWAP2 POP POP JUMP JUMPDEST PUSH32 0x4E487B7100000000000000000000000000000000000000000000000000000000 PUSH1 0x0 MSTORE PUSH1 0x41 PUSH1 0x4 MSTORE PUSH1 0x24 PUSH1 0x0 REVERT JUMPDEST PUSH1 0x0 DUP2 SWAP1 POP DUP2 PUSH1 0x0 MSTORE PUSH1 0x20 PUSH1 0x0 KECCAK256 SWAP1 POP SWAP2 SWAP1 POP JUMP JUMPDEST PUSH1 0x0 PUSH1 0x20 PUSH1 0x1F DUP4 ADD DIV SWAP1 POP SWAP2 SWAP1 POP JUMP JUMPDEST PUSH1 0x0 DUP3 DUP3 SHL SWAP1 POP SWAP3 SWAP2 POP POP JUMP JUMPDEST PUSH1 0x0 PUSH1 0x8 DUP4 MUL PUSH2 0xB48 PUSH32 0xFFFFFFFFFFFFFFFFFFFFFFFFFFFFFFFFFFFFFFFFFFFFFFFFFFFFFFFFFFFFFFFF DUP3 PUSH2 0xB0B JUMP JUMPDEST PUSH2 0xB52 DUP7 DUP4 PUSH2 0xB0B JUMP JUMPDEST SWAP6 POP DUP1 NOT DUP5 AND SWAP4 POP DUP1 DUP7 AND DUP5 OR SWAP3 POP POP POP SWAP4 SWAP3 POP POP POP JUMP JUMPDEST PUSH1 0x0 DUP2 SWAP1 POP SWAP2 SWAP1 POP JUMP JUMPDEST PUSH1 0x0 PUSH2 0xB8F PUSH2 0xB8A PUSH2 0xB85 DUP5 PUSH2 0x5F2 JUMP JUMPDEST PUSH2 0xB6A JUMP JUMPDEST PUSH2 0x5F2 JUMP JUMPDEST SWAP1 POP SWAP2 SWAP1 POP JUMP JUMPDEST PUSH1 0x0 DUP2 SWAP1 POP SWAP2 SWAP1 POP JUMP JUMPDEST PUSH2 0xBA9 DUP4 PUSH2 0xB74 JUMP JUMPDEST PUSH2 0xBBD PUSH2 0xBB5 DUP3 PUSH2 0xB96 JUMP JUMPDEST DUP5 DUP5 SLOAD PUSH2 0xB18 JUMP JUMPDEST DUP3 SSTORE POP POP POP POP JUMP JUMPDEST PUSH1 0x0 SWAP1 JUMP JUMPDEST PUSH2 0xBD2 PUSH2 0xBC5 JUMP JUMPDEST PUSH2 0xBDD DUP2 DUP5 DUP5 PUSH2 0xBA0 JUMP JUMPDEST POP POP POP JUMP JUMPDEST JUMPDEST DUP2 DUP2 LT ISZERO PUSH2 0xC01 JUMPI PUSH2 0xBF6 PUSH1 0x0 DUP3 PUSH2 0xBCA JUMP JUMPDEST PUSH1 0x1 DUP2 ADD SWAP1 POP PUSH2 0xBE3 JUMP JUMPDEST POP POP JUMP JUMPDEST PUSH1 0x1F DUP3 GT ISZERO PUSH2 0xC46 JUMPI PUSH2 0xC17 DUP2 PUSH2 0xAE6 JUMP JUMPDEST PUSH2 0xC20 DUP5 PUSH2 0xAFB JUMP JUMPDEST DUP2 ADD PUSH1 0x20 DUP6 LT ISZERO PUSH2 0xC2F JUMPI DUP2 SWAP1 POP JUMPDEST PUSH2 0xC43 PUSH2 0xC3B DUP6 PUSH2 0xAFB JUMP JUMPDEST DUP4 ADD DUP3 PUSH2 0xBE2 JUMP JUMPDEST POP POP JUMPDEST POP POP POP JUMP JUMPDEST PUSH1 0x0 DUP3 DUP3 SHR SWAP1 POP SWAP3 SWAP2 POP POP JUMP JUMPDEST PUSH1 0x0 PUSH2 0xC69 PUSH1 0x0 NOT DUP5 PUSH1 0x8 MUL PUSH2 0xC4B JUMP JUMPDEST NOT DUP1 DUP4 AND SWAP2 POP POP SWAP3 SWAP2 POP POP JUMP JUMPDEST PUSH1 0x0 PUSH2 0xC82 DUP4 DUP4 PUSH2 0xC58 JUMP JUMPDEST SWAP2 POP DUP3 PUSH1 0x2 MUL DUP3 OR SWAP1 POP SWAP3 SWAP2 POP POP JUMP JUMPDEST PUSH2 0xC9B DUP3 PUSH2 0x562 JUMP JUMPDEST PUSH8 0xFFFFFFFFFFFFFFFF DUP2 GT ISZERO PUSH2 0xCB4 JUMPI PUSH2 0xCB3 PUSH2 0xAB7 JUMP JUMPDEST JUMPDEST PUSH2 0xCBE DUP3 SLOAD PUSH2 0x857 JUMP JUMPDEST PUSH2 0xCC9 DUP3 DUP3 DUP6 PUSH2 0xC05 JUMP JUMPDEST PUSH1 0x0 PUSH1 0x20 SWAP1 POP PUSH1 0x1F DUP4 GT PUSH1 0x1 DUP2 EQ PUSH2 0xCFC JUMPI PUSH1 0x0 DUP5 ISZERO PUSH2 0xCEA JUMPI DUP3 DUP8 ADD MLOAD SWAP1 POP JUMPDEST PUSH2 0xCF4 DUP6 DUP3 PUSH2 0xC76 JUMP JUMPDEST DUP7 SSTORE POP PUSH2 0xD5C JUMP JUMPDEST PUSH1 0x1F NOT DUP5 AND PUSH2 0xD0A DUP7 PUSH2 0xAE6 JUMP JUMPDEST PUSH1 0x0 JUMPDEST DUP3 DUP2 LT ISZERO PUSH2 0xD32 JUMPI DUP5 DUP10 ADD MLOAD DUP3 SSTORE PUSH1 0x1 DUP3 ADD SWAP2 POP PUSH1 0x20 DUP6 ADD SWAP5 POP PUSH1 0x20 DUP2 ADD SWAP1 POP PUSH2 0xD0D JUMP JUMPDEST DUP7 DUP4 LT ISZERO PUSH2 0xD4F JUMPI DUP5 DUP10 ADD MLOAD PUSH2 0xD4B PUSH1 0x1F DUP10 AND DUP3 PUSH2 0xC58 JUMP JUMPDEST DUP4 SSTORE POP JUMPDEST PUSH1 0x1 PUSH1 0x2 DUP9 MUL ADD DUP9 SSTORE POP POP POP JUMPDEST POP POP POP POP POP POP JUMP INVALID LOG2 PUSH5 0x6970667358 0x22 SLT KECCAK256 PUSH5 0x9E6F0F06E8 PUSH32 0x8166C7D4E9429A6CC4BE06659F317EE4A49160D65DE26F26A764736F6C634300 ADDMOD SGT STOP CALLER "
		},
		"gasEstimates": {
			"creation": {
				"codeDepositCost": "696400",
				"executionCost": "728",
				"totalCost": "697128"
			},
			"external": {
				"addAttack(uint256)": "infinite",
				"addDefense(uint256)": "infinite",
				"create(string)": "infinite",
				"list()": "infinite"
			}
		},
		"methodIdentifiers": {
			"addAttack(uint256)": "ee423194",
			"addDefense(uint256)": "91a2fa95",
			"create(string)": "b6a46b3b",
			"list()": "0f560cd7"
		}
	},
	"abi": [
		{
			"inputs": [
				{
					"internalType": "uint256",
					"name": "pokemonIdx",
					"type": "uint256"
				}
			],
			"name": "addAttack",
			"outputs": [],
			"stateMutability": "payable",
			"type": "function"
		},
		{
			"inputs": [
				{
					"internalType": "uint256",
					"name": "pokemonIdx",
					"type": "uint256"
				}
			],
			"name": "addDefense",
			"outputs": [],
			"stateMutability": "payable",
			"type": "function"
		},
		{
			"inputs": [
				{
					"internalType": "string",
					"name": "_name",
					"type": "string"
				}
			],
			"name": "create",
			"outputs": [],
			"stateMutability": "nonpayable",
			"type": "function"
		},
		{
			"inputs": [],
			"name": "list",
			"outputs": [
				{
					"components": [
						{
							"internalType": "string",
							"name": "name",
							"type": "string"
						},
						{
							"internalType": "uint256",
							"name": "attack",
							"type": "uint256"
						},
						{
							"internalType": "uint256",
							"name": "defense",
							"type": "uint256"
						}
					],
					"internalType": "struct PokemonGame.Pokemon[]",
					"name": "_pokemons",
					"type": "tuple[]"
				}
			],
			"stateMutability": "view",
			"type": "function"
		}
	]
}