{
	"data": {
		"bytecode": {
			"linkReferences": {},
			"object": "608060405260006001556103e8600255600060035560006004553480156200002657600080fd5b5060405162001f0c38038062001f0c83398181016040528101906200004c919062000252565b6200007e7f6270edb7c868f86fda4adedba75108201087268ea345934db8bad688e1feb91b826200008560201b60201c565b5062000284565b6200009782826200017660201b60201c565b6200017257600160008084815260200190815260200160002060000160008373ffffffffffffffffffffffffffffffffffffffff1673ffffffffffffffffffffffffffffffffffffffff16815260200190815260200160002060006101000a81548160ff02191690831515021790555062000117620001e060201b60201c565b73ffffffffffffffffffffffffffffffffffffffff168173ffffffffffffffffffffffffffffffffffffffff16837f2f8788117e7eff1d82e926ec794901d17c78024a50270940304540a733656f0d60405160405180910390a45b5050565b600080600084815260200190815260200160002060000160008373ffffffffffffffffffffffffffffffffffffffff1673ffffffffffffffffffffffffffffffffffffffff16815260200190815260200160002060009054906101000a900460ff16905092915050565b600033905090565b600080fd5b600073ffffffffffffffffffffffffffffffffffffffff82169050919050565b60006200021a82620001ed565b9050919050565b6200022c816200020d565b81146200023857600080fd5b50565b6000815190506200024c8162000221565b92915050565b6000602082840312156200026b576200026a620001e8565b5b60006200027b848285016200023b565b91505092915050565b611c7880620002946000396000f3fe608060405234801561001057600080fd5b50600436106100b45760003560e01c806391d148541161007157806391d14854146101a1578063a217fddf146101d1578063cf642f1f146101ef578063d547741f1461020b578063df5dd1a514610227578063fdc85fc414610243576100b4565b806301ffc9a7146100b9578063248a9ca3146100e95780632f2ff15d1461011957806330c0b9ec1461013557806336568abe146101535780638bbc085a1461016f575b600080fd5b6100d360048036038101906100ce9190611179565b61025f565b6040516100e091906111c1565b60405180910390f35b61010360048036038101906100fe9190611212565b6102d9565b604051610110919061124e565b60405180910390f35b610133600480360381019061012e91906112c7565b6102f8565b005b61013d610319565b60405161014a9190611320565b60405180910390f35b61016d600480360381019061016891906112c7565b6103e0565b005b61018960048036038101906101849190611367565b610463565b604051610198939291906113b6565b60405180910390f35b6101bb60048036038101906101b691906112c7565b6104ea565b6040516101c891906111c1565b60405180910390f35b6101d9610554565b6040516101e6919061124e565b60405180910390f35b610209600480360381019061020491906113ed565b61055b565b005b610225600480360381019061022091906112c7565b6108a3565b005b610241600480360381019061023c9190611440565b6108c4565b005b61025d60048036038101906102589190611440565b6109d5565b005b60007f7965db0b000000000000000000000000000000000000000000000000000000007bffffffffffffffffffffffffffffffffffffffffffffffffffffffff1916827bffffffffffffffffffffffffffffffffffffffffffffffffffffffff191614806102d257506102d182610b2a565b5b9050919050565b6000806000838152602001908152602001600020600101549050919050565b610301826102d9565b61030a81610b94565b6103148383610ba8565b505050565b60006001600081548092919061032e9061149c565b91905055506000600254423360015460405160200161034f9392919061154d565b6040516020818303038152906040528051906020012060001c61037291906115b9565b905060016005600083815260200190815260200160002060006101000a81548160ff0219169083151502179055507f3d50a0c24e97813f35595d2f1f37dbf421d5e97f37abd4e222853e9b9c82c8d533826040516103d19291906115ea565b60405180910390a18091505090565b6103e8610c88565b73ffffffffffffffffffffffffffffffffffffffff168173ffffffffffffffffffffffffffffffffffffffff1614610455576040517f08c379a000000000000000000000000000000000000000000000000000000000815260040161044c90611696565b60405180910390fd5b61045f8282610c90565b5050565b6006602052816000526040600020818154811061047f57600080fd5b9060005260206000209060030201600091509150508060000160009054906101000a900473ffffffffffffffffffffffffffffffffffffffff16908060010160009054906101000a900473ffffffffffffffffffffffffffffffffffffffff16908060020154905083565b600080600084815260200190815260200160002060000160008373ffffffffffffffffffffffffffffffffffffffff1673ffffffffffffffffffffffffffffffffffffffff16815260200190815260200160002060009054906101000a900460ff16905092915050565b6000801b81565b7f6270edb7c868f86fda4adedba75108201087268ea345934db8bad688e1feb91b61058581610b94565b6005600083815260200190815260200160002060009054906101000a900460ff166105e5576040517f08c379a00000000000000000000000000000000000000000000000000000000081526004016105dc90611728565b60405180910390fd5b600060405180606001604052803373ffffffffffffffffffffffffffffffffffffffff1681526020018573ffffffffffffffffffffffffffffffffffffffff1681526020018681525090506006600084815260200190815260200160002081908060018154018082558091505060019003906000526020600020906003020160009091909190915060008201518160000160006101000a81548173ffffffffffffffffffffffffffffffffffffffff021916908373ffffffffffffffffffffffffffffffffffffffff16021790555060208201518160010160006101000a81548173ffffffffffffffffffffffffffffffffffffffff021916908373ffffffffffffffffffffffffffffffffffffffff160217905550604082015181600201555050600060066000858152602001908152602001600020805490509050600454810361089b576000805b828110156107955761078060066000888152602001908152602001600020828154811061075f5761075e611748565b5b90600052602060002090600302016002015483610d7190919063ffffffff16565b9150808061078d9061149c565b91505061072f565b506107a98282610d8790919063ffffffff16565b90506005600086815260200190815260200160002060006101000a81549060ff02191690556006600086815260200190815260200160002060006107ed919061108b565b60008690508073ffffffffffffffffffffffffffffffffffffffff1663b5d73ba483886040518363ffffffff1660e01b815260040161082d929190611777565b600060405180830381600087803b15801561084757600080fd5b505af115801561085b573d6000803e3d6000fd5b505050507f91b860381268a473101de3379abbb70abf7ea6c9d1735cf58b9816479ff3b72782886040516108909291906117a0565b60405180910390a150505b505050505050565b6108ac826102d9565b6108b581610b94565b6108bf8383610c90565b505050565b7f6270edb7c868f86fda4adedba75108201087268ea345934db8bad688e1feb91b6108ee81610b94565b6109187f352d05fe3946dbe49277552ba941e744d5a96d9c60bc1ba0ea5f1d3ae000f7c8836104ea565b15610958576040517f08c379a000000000000000000000000000000000000000000000000000000000815260040161094f90611815565b60405180910390fd5b6109827f352d05fe3946dbe49277552ba941e744d5a96d9c60bc1ba0ea5f1d3ae000f7c883610ba8565b600360008154809291906109959061149c565b91905055507fed46b7525d27f2470ee188e1d85693a6a8b59537b58701408b2f53588e63d1db826040516109c99190611835565b60405180910390a15050565b7f6270edb7c868f86fda4adedba75108201087268ea345934db8bad688e1feb91b6109ff81610b94565b610a297f352d05fe3946dbe49277552ba941e744d5a96d9c60bc1ba0ea5f1d3ae000f7c8836104ea565b610a68576040517f08c379a0000000000000000000000000000000000000000000000000000000008152600401610a5f9061189c565b60405180910390fd5b600160035411610aad576040517f08c379a0000000000000000000000000000000000000000000000000000000008152600401610aa490611908565b60405180910390fd5b610ad77f352d05fe3946dbe49277552ba941e744d5a96d9c60bc1ba0ea5f1d3ae000f7c883610c90565b60036000815480929190610aea90611928565b91905055507f8d35b822981364028d4bb40af1edcfd97f4e186c8ccf97bafcc9adc68bd58c6d82604051610b1e9190611835565b60405180910390a15050565b60007f01ffc9a7000000000000000000000000000000000000000000000000000000007bffffffffffffffffffffffffffffffffffffffffffffffffffffffff1916827bffffffffffffffffffffffffffffffffffffffffffffffffffffffff1916149050919050565b610ba581610ba0610c88565b610d9d565b50565b610bb282826104ea565b610c8457600160008084815260200190815260200160002060000160008373ffffffffffffffffffffffffffffffffffffffff1673ffffffffffffffffffffffffffffffffffffffff16815260200190815260200160002060006101000a81548160ff021916908315150217905550610c29610c88565b73ffffffffffffffffffffffffffffffffffffffff168173ffffffffffffffffffffffffffffffffffffffff16837f2f8788117e7eff1d82e926ec794901d17c78024a50270940304540a733656f0d60405160405180910390a45b5050565b600033905090565b610c9a82826104ea565b15610d6d57600080600084815260200190815260200160002060000160008373ffffffffffffffffffffffffffffffffffffffff1673ffffffffffffffffffffffffffffffffffffffff16815260200190815260200160002060006101000a81548160ff021916908315150217905550610d12610c88565b73ffffffffffffffffffffffffffffffffffffffff168173ffffffffffffffffffffffffffffffffffffffff16837ff6391f5c32d9c69d2a47ea670b442974b53935d1edc7fd64eb21e047a839171b60405160405180910390a45b5050565b60008183610d7f9190611951565b905092915050565b60008183610d959190611985565b905092915050565b610da782826104ea565b610e1e57610db481610e22565b610dc28360001c6020610e4f565b604051602001610dd3929190611abf565b6040516020818303038152906040526040517f08c379a0000000000000000000000000000000000000000000000000000000008152600401610e159190611b43565b60405180910390fd5b5050565b6060610e488273ffffffffffffffffffffffffffffffffffffffff16601460ff16610e4f565b9050919050565b606060006002836002610e629190611b65565b610e6c9190611951565b67ffffffffffffffff811115610e8557610e84611ba7565b5b6040519080825280601f01601f191660200182016040528015610eb75781602001600182028036833780820191505090505b5090507f300000000000000000000000000000000000000000000000000000000000000081600081518110610eef57610eee611748565b5b60200101907effffffffffffffffffffffffffffffffffffffffffffffffffffffffffffff1916908160001a9053507f780000000000000000000000000000000000000000000000000000000000000081600181518110610f5357610f52611748565b5b60200101907effffffffffffffffffffffffffffffffffffffffffffffffffffffffffffff1916908160001a90535060006001846002610f939190611b65565b610f9d9190611951565b90505b600181111561103d577f3031323334353637383961626364656600000000000000000000000000000000600f861660108110610fdf57610fde611748565b5b1a60f81b828281518110610ff657610ff5611748565b5b60200101907effffffffffffffffffffffffffffffffffffffffffffffffffffffffffffff1916908160001a905350600485901c94508061103690611928565b9050610fa0565b5060008414611081576040517f08c379a000000000000000000000000000000000000000000000000000000000815260040161107890611c22565b60405180910390fd5b8091505092915050565b50805460008255600302906000526020600020908101906110ac91906110af565b50565b5b8082111561111857600080820160006101000a81549073ffffffffffffffffffffffffffffffffffffffff02191690556001820160006101000a81549073ffffffffffffffffffffffffffffffffffffffff02191690556002820160009055506003016110b0565b5090565b600080fd5b60007fffffffff0000000000000000000000000000000000000000000000000000000082169050919050565b61115681611121565b811461116157600080fd5b50565b6000813590506111738161114d565b92915050565b60006020828403121561118f5761118e61111c565b5b600061119d84828501611164565b91505092915050565b60008115159050919050565b6111bb816111a6565b82525050565b60006020820190506111d660008301846111b2565b92915050565b6000819050919050565b6111ef816111dc565b81146111fa57600080fd5b50565b60008135905061120c816111e6565b92915050565b6000602082840312156112285761122761111c565b5b6000611236848285016111fd565b91505092915050565b611248816111dc565b82525050565b6000602082019050611263600083018461123f565b92915050565b600073ffffffffffffffffffffffffffffffffffffffff82169050919050565b600061129482611269565b9050919050565b6112a481611289565b81146112af57600080fd5b50565b6000813590506112c18161129b565b92915050565b600080604083850312156112de576112dd61111c565b5b60006112ec858286016111fd565b92505060206112fd858286016112b2565b9150509250929050565b6000819050919050565b61131a81611307565b82525050565b60006020820190506113356000830184611311565b92915050565b61134481611307565b811461134f57600080fd5b50565b6000813590506113618161133b565b92915050565b6000806040838503121561137e5761137d61111c565b5b600061138c85828601611352565b925050602061139d85828601611352565b9150509250929050565b6113b081611289565b82525050565b60006060820190506113cb60008301866113a7565b6113d860208301856113a7565b6113e56040830184611311565b949350505050565b6000806000606084860312156114065761140561111c565b5b600061141486828701611352565b9350506020611425868287016112b2565b925050604061143686828701611352565b9150509250925092565b6000602082840312156114565761145561111c565b5b6000611464848285016112b2565b91505092915050565b7f4e487b7100000000000000000000000000000000000000000000000000000000600052601160045260246000fd5b60006114a782611307565b91507fffffffffffffffffffffffffffffffffffffffffffffffffffffffffffffffff82036114d9576114d861146d565b5b600182019050919050565b6000819050919050565b6114ff6114fa82611307565b6114e4565b82525050565b60008160601b9050919050565b600061151d82611505565b9050919050565b600061152f82611512565b9050919050565b61154761154282611289565b611524565b82525050565b600061155982866114ee565b6020820191506115698285611536565b60148201915061157982846114ee565b602082019150819050949350505050565b7f4e487b7100000000000000000000000000000000000000000000000000000000600052601260045260246000fd5b60006115c482611307565b91506115cf83611307565b9250826115df576115de61158a565b5b828206905092915050565b60006040820190506115ff60008301856113a7565b61160c6020830184611311565b9392505050565b600082825260208201905092915050565b7f416363657373436f6e74726f6c3a2063616e206f6e6c792072656e6f756e636560008201527f20726f6c657320666f722073656c660000000000000000000000000000000000602082015250565b6000611680602f83611613565b915061168b82611624565b604082019050919050565b600060208201905081810360008301526116af81611673565b9050919050565b7f546869732072657175657374206973206e6f7420696e206d792070656e64696e60008201527f67206c6973742e00000000000000000000000000000000000000000000000000602082015250565b6000611712602783611613565b915061171d826116b6565b604082019050919050565b6000602082019050818103600083015261174181611705565b9050919050565b7f4e487b7100000000000000000000000000000000000000000000000000000000600052603260045260246000fd5b600060408201905061178c6000830185611311565b6117996020830184611311565b9392505050565b60006040820190506117b56000830185611311565b6117c260208301846113a7565b9392505050565b7f416c726561647920616e206f7261636c65210000000000000000000000000000600082015250565b60006117ff601283611613565b915061180a826117c9565b602082019050919050565b6000602082019050818103600083015261182e816117f2565b9050919050565b600060208201905061184a60008301846113a7565b92915050565b7f4e6f7420616e206f7261636c6521000000000000000000000000000000000000600082015250565b6000611886600e83611613565b915061189182611850565b602082019050919050565b600060208201905081810360008301526118b581611879565b9050919050565b7f446f206e6f742072656d6f766520746865206c617374206f7261636c65210000600082015250565b60006118f2601e83611613565b91506118fd826118bc565b602082019050919050565b60006020820190508181036000830152611921816118e5565b9050919050565b600061193382611307565b9150600082036119465761194561146d565b5b600182039050919050565b600061195c82611307565b915061196783611307565b925082820190508082111561197f5761197e61146d565b5b92915050565b600061199082611307565b915061199b83611307565b9250826119ab576119aa61158a565b5b828204905092915050565b600081905092915050565b7f416363657373436f6e74726f6c3a206163636f756e7420000000000000000000600082015250565b60006119f76017836119b6565b9150611a02826119c1565b601782019050919050565b600081519050919050565b60005b83811015611a36578082015181840152602081019050611a1b565b60008484015250505050565b6000611a4d82611a0d565b611a5781856119b6565b9350611a67818560208601611a18565b80840191505092915050565b7f206973206d697373696e6720726f6c6520000000000000000000000000000000600082015250565b6000611aa96011836119b6565b9150611ab482611a73565b601182019050919050565b6000611aca826119ea565b9150611ad68285611a42565b9150611ae182611a9c565b9150611aed8284611a42565b91508190509392505050565b6000601f19601f8301169050919050565b6000611b1582611a0d565b611b1f8185611613565b9350611b2f818560208601611a18565b611b3881611af9565b840191505092915050565b60006020820190508181036000830152611b5d8184611b0a565b905092915050565b6000611b7082611307565b9150611b7b83611307565b9250828202611b8981611307565b91508282048414831517611ba057611b9f61146d565b5b5092915050565b7f4e487b7100000000000000000000000000000000000000000000000000000000600052604160045260246000fd5b7f537472696e67733a20686578206c656e67746820696e73756666696369656e74600082015250565b6000611c0c602083611613565b9150611c1782611bd6565b602082019050919050565b60006020820190508181036000830152611c3b81611bff565b905091905056fea2646970667358221220d34999eac3b8f117e6f2729c29dd0414e0bffe228754fc9ec93388d5fcf6c2cb64736f6c63430008120033",
			"opcodes": "PUSH1 0x80 PUSH1 0x40 MSTORE PUSH1 0x0 PUSH1 0x1 SSTORE PUSH2 0x3E8 PUSH1 0x2 SSTORE PUSH1 0x0 PUSH1 0x3 SSTORE PUSH1 0x0 PUSH1 0x4 SSTORE CALLVALUE DUP1 ISZERO PUSH3 0x26 JUMPI PUSH1 0x0 DUP1 REVERT JUMPDEST POP PUSH1 0x40 MLOAD PUSH3 0x1F0C CODESIZE SUB DUP1 PUSH3 0x1F0C DUP4 CODECOPY DUP2 DUP2 ADD PUSH1 0x40 MSTORE DUP2 ADD SWAP1 PUSH3 0x4C SWAP2 SWAP1 PUSH3 0x252 JUMP JUMPDEST PUSH3 0x7E PUSH32 0x6270EDB7C868F86FDA4ADEDBA75108201087268EA345934DB8BAD688E1FEB91B DUP3 PUSH3 0x85 PUSH1 0x20 SHL PUSH1 0x20 SHR JUMP JUMPDEST POP PUSH3 0x284 JUMP JUMPDEST PUSH3 0x97 DUP3 DUP3 PUSH3 0x176 PUSH1 0x20 SHL PUSH1 0x20 SHR JUMP JUMPDEST PUSH3 0x172 JUMPI PUSH1 0x1 PUSH1 0x0 DUP1 DUP5 DUP2 MSTORE PUSH1 0x20 ADD SWAP1 DUP2 MSTORE PUSH1 0x20 ADD PUSH1 0x0 KECCAK256 PUSH1 0x0 ADD PUSH1 0x0 DUP4 PUSH20 0xFFFFFFFFFFFFFFFFFFFFFFFFFFFFFFFFFFFFFFFF AND PUSH20 0xFFFFFFFFFFFFFFFFFFFFFFFFFFFFFFFFFFFFFFFF AND DUP2 MSTORE PUSH1 0x20 ADD SWAP1 DUP2 MSTORE PUSH1 0x20 ADD PUSH1 0x0 KECCAK256 PUSH1 0x0 PUSH2 0x100 EXP DUP2 SLOAD DUP2 PUSH1 0xFF MUL NOT AND SWAP1 DUP4 ISZERO ISZERO MUL OR SWAP1 SSTORE POP PUSH3 0x117 PUSH3 0x1E0 PUSH1 0x20 SHL PUSH1 0x20 SHR JUMP JUMPDEST PUSH20 0xFFFFFFFFFFFFFFFFFFFFFFFFFFFFFFFFFFFFFFFF AND DUP2 PUSH20 0xFFFFFFFFFFFFFFFFFFFFFFFFFFFFFFFFFFFFFFFF AND DUP4 PUSH32 0x2F8788117E7EFF1D82E926EC794901D17C78024A50270940304540A733656F0D PUSH1 0x40 MLOAD PUSH1 0x40 MLOAD DUP1 SWAP2 SUB SWAP1 LOG4 JUMPDEST POP POP JUMP JUMPDEST PUSH1 0x0 DUP1 PUSH1 0x0 DUP5 DUP2 MSTORE PUSH1 0x20 ADD SWAP1 DUP2 MSTORE PUSH1 0x20 ADD PUSH1 0x0 KECCAK256 PUSH1 0x0 ADD PUSH1 0x0 DUP4 PUSH20 0xFFFFFFFFFFFFFFFFFFFFFFFFFFFFFFFFFFFFFFFF AND PUSH20 0xFFFFFFFFFFFFFFFFFFFFFFFFFFFFFFFFFFFFFFFF AND DUP2 MSTORE PUSH1 0x20 ADD SWAP1 DUP2 MSTORE PUSH1 0x20 ADD PUSH1 0x0 KECCAK256 PUSH1 0x0 SWAP1 SLOAD SWAP1 PUSH2 0x100 EXP SWAP1 DIV PUSH1 0xFF AND SWAP1 POP SWAP3 SWAP2 POP POP JUMP JUMPDEST PUSH1 0x0 CALLER SWAP1 POP SWAP1 JUMP JUMPDEST PUSH1 0x0 DUP1 REVERT JUMPDEST PUSH1 0x0 PUSH20 0xFFFFFFFFFFFFFFFFFFFFFFFFFFFFFFFFFFFFFFFF DUP3 AND SWAP1 POP SWAP2 SWAP1 POP JUMP JUMPDEST PUSH1 0x0 PUSH3 0x21A DUP3 PUSH3 0x1ED JUMP JUMPDEST SWAP1 POP SWAP2 SWAP1 POP JUMP JUMPDEST PUSH3 0x22C DUP2 PUSH3 0x20D JUMP JUMPDEST DUP2 EQ PUSH3 0x238 JUMPI PUSH1 0x0 DUP1 REVERT JUMPDEST POP JUMP JUMPDEST PUSH1 0x0 DUP2 MLOAD SWAP1 POP PUSH3 0x24C DUP2 PUSH3 0x221 JUMP JUMPDEST SWAP3 SWAP2 POP POP JUMP JUMPDEST PUSH1 0x0 PUSH1 0x20 DUP3 DUP5 SUB SLT ISZERO PUSH3 0x26B JUMPI PUSH3 0x26A PUSH3 0x1E8 JUMP JUMPDEST JUMPDEST PUSH1 0x0 PUSH3 0x27B DUP5 DUP3 DUP6 ADD PUSH3 0x23B JUMP JUMPDEST SWAP2 POP POP SWAP3 SWAP2 POP POP JUMP JUMPDEST PUSH2 0x1C78 DUP1 PUSH3 0x294 PUSH1 0x0 CODECOPY PUSH1 0x0 RETURN INVALID PUSH1 0x80 PUSH1 0x40 MSTORE CALLVALUE DUP1 ISZERO PUSH2 0x10 JUMPI PUSH1 0x0 DUP1 REVERT JUMPDEST POP PUSH1 0x4 CALLDATASIZE LT PUSH2 0xB4 JUMPI PUSH1 0x0 CALLDATALOAD PUSH1 0xE0 SHR DUP1 PUSH4 0x91D14854 GT PUSH2 0x71 JUMPI DUP1 PUSH4 0x91D14854 EQ PUSH2 0x1A1 JUMPI DUP1 PUSH4 0xA217FDDF EQ PUSH2 0x1D1 JUMPI DUP1 PUSH4 0xCF642F1F EQ PUSH2 0x1EF JUMPI DUP1 PUSH4 0xD547741F EQ PUSH2 0x20B JUMPI DUP1 PUSH4 0xDF5DD1A5 EQ PUSH2 0x227 JUMPI DUP1 PUSH4 0xFDC85FC4 EQ PUSH2 0x243 JUMPI PUSH2 0xB4 JUMP JUMPDEST DUP1 PUSH4 0x1FFC9A7 EQ PUSH2 0xB9 JUMPI DUP1 PUSH4 0x248A9CA3 EQ PUSH2 0xE9 JUMPI DUP1 PUSH4 0x2F2FF15D EQ PUSH2 0x119 JUMPI DUP1 PUSH4 0x30C0B9EC EQ PUSH2 0x135 JUMPI DUP1 PUSH4 0x36568ABE EQ PUSH2 0x153 JUMPI DUP1 PUSH4 0x8BBC085A EQ PUSH2 0x16F JUMPI JUMPDEST PUSH1 0x0 DUP1 REVERT JUMPDEST PUSH2 0xD3 PUSH1 0x4 DUP1 CALLDATASIZE SUB DUP2 ADD SWAP1 PUSH2 0xCE SWAP2 SWAP1 PUSH2 0x1179 JUMP JUMPDEST PUSH2 0x25F JUMP JUMPDEST PUSH1 0x40 MLOAD PUSH2 0xE0 SWAP2 SWAP1 PUSH2 0x11C1 JUMP JUMPDEST PUSH1 0x40 MLOAD DUP1 SWAP2 SUB SWAP1 RETURN JUMPDEST PUSH2 0x103 PUSH1 0x4 DUP1 CALLDATASIZE SUB DUP2 ADD SWAP1 PUSH2 0xFE SWAP2 SWAP1 PUSH2 0x1212 JUMP JUMPDEST PUSH2 0x2D9 JUMP JUMPDEST PUSH1 0x40 MLOAD PUSH2 0x110 SWAP2 SWAP1 PUSH2 0x124E JUMP JUMPDEST PUSH1 0x40 MLOAD DUP1 SWAP2 SUB SWAP1 RETURN JUMPDEST PUSH2 0x133 PUSH1 0x4 DUP1 CALLDATASIZE SUB DUP2 ADD SWAP1 PUSH2 0x12E SWAP2 SWAP1 PUSH2 0x12C7 JUMP JUMPDEST PUSH2 0x2F8 JUMP JUMPDEST STOP JUMPDEST PUSH2 0x13D PUSH2 0x319 JUMP JUMPDEST PUSH1 0x40 MLOAD PUSH2 0x14A SWAP2 SWAP1 PUSH2 0x1320 JUMP JUMPDEST PUSH1 0x40 MLOAD DUP1 SWAP2 SUB SWAP1 RETURN JUMPDEST PUSH2 0x16D PUSH1 0x4 DUP1 CALLDATASIZE SUB DUP2 ADD SWAP1 PUSH2 0x168 SWAP2 SWAP1 PUSH2 0x12C7 JUMP JUMPDEST PUSH2 0x3E0 JUMP JUMPDEST STOP JUMPDEST PUSH2 0x189 PUSH1 0x4 DUP1 CALLDATASIZE SUB DUP2 ADD SWAP1 PUSH2 0x184 SWAP2 SWAP1 PUSH2 0x1367 JUMP JUMPDEST PUSH2 0x463 JUMP JUMPDEST PUSH1 0x40 MLOAD PUSH2 0x198 SWAP4 SWAP3 SWAP2 SWAP1 PUSH2 0x13B6 JUMP JUMPDEST PUSH1 0x40 MLOAD DUP1 SWAP2 SUB SWAP1 RETURN JUMPDEST PUSH2 0x1BB PUSH1 0x4 DUP1 CALLDATASIZE SUB DUP2 ADD SWAP1 PUSH2 0x1B6 SWAP2 SWAP1 PUSH2 0x12C7 JUMP JUMPDEST PUSH2 0x4EA JUMP JUMPDEST PUSH1 0x40 MLOAD PUSH2 0x1C8 SWAP2 SWAP1 PUSH2 0x11C1 JUMP JUMPDEST PUSH1 0x40 MLOAD DUP1 SWAP2 SUB SWAP1 RETURN JUMPDEST PUSH2 0x1D9 PUSH2 0x554 JUMP JUMPDEST PUSH1 0x40 MLOAD PUSH2 0x1E6 SWAP2 SWAP1 PUSH2 0x124E JUMP JUMPDEST PUSH1 0x40 MLOAD DUP1 SWAP2 SUB SWAP1 RETURN JUMPDEST PUSH2 0x209 PUSH1 0x4 DUP1 CALLDATASIZE SUB DUP2 ADD SWAP1 PUSH2 0x204 SWAP2 SWAP1 PUSH2 0x13ED JUMP JUMPDEST PUSH2 0x55B JUMP JUMPDEST STOP JUMPDEST PUSH2 0x225 PUSH1 0x4 DUP1 CALLDATASIZE SUB DUP2 ADD SWAP1 PUSH2 0x220 SWAP2 SWAP1 PUSH2 0x12C7 JUMP JUMPDEST PUSH2 0x8A3 JUMP JUMPDEST STOP JUMPDEST PUSH2 0x241 PUSH1 0x4 DUP1 CALLDATASIZE SUB DUP2 ADD SWAP1 PUSH2 0x23C SWAP2 SWAP1 PUSH2 0x1440 JUMP JUMPDEST PUSH2 0x8C4 JUMP JUMPDEST STOP JUMPDEST PUSH2 0x25D PUSH1 0x4 DUP1 CALLDATASIZE SUB DUP2 ADD SWAP1 PUSH2 0x258 SWAP2 SWAP1 PUSH2 0x1440 JUMP JUMPDEST PUSH2 0x9D5 JUMP JUMPDEST STOP JUMPDEST PUSH1 0x0 PUSH32 0x7965DB0B00000000000000000000000000000000000000000000000000000000 PUSH28 0xFFFFFFFFFFFFFFFFFFFFFFFFFFFFFFFFFFFFFFFFFFFFFFFFFFFFFFFF NOT AND DUP3 PUSH28 0xFFFFFFFFFFFFFFFFFFFFFFFFFFFFFFFFFFFFFFFFFFFFFFFFFFFFFFFF NOT AND EQ DUP1 PUSH2 0x2D2 JUMPI POP PUSH2 0x2D1 DUP3 PUSH2 0xB2A JUMP JUMPDEST JUMPDEST SWAP1 POP SWAP2 SWAP1 POP JUMP JUMPDEST PUSH1 0x0 DUP1 PUSH1 0x0 DUP4 DUP2 MSTORE PUSH1 0x20 ADD SWAP1 DUP2 MSTORE PUSH1 0x20 ADD PUSH1 0x0 KECCAK256 PUSH1 0x1 ADD SLOAD SWAP1 POP SWAP2 SWAP1 POP JUMP JUMPDEST PUSH2 0x301 DUP3 PUSH2 0x2D9 JUMP JUMPDEST PUSH2 0x30A DUP2 PUSH2 0xB94 JUMP JUMPDEST PUSH2 0x314 DUP4 DUP4 PUSH2 0xBA8 JUMP JUMPDEST POP POP POP JUMP JUMPDEST PUSH1 0x0 PUSH1 0x1 PUSH1 0x0 DUP2 SLOAD DUP1 SWAP3 SWAP2 SWAP1 PUSH2 0x32E SWAP1 PUSH2 0x149C JUMP JUMPDEST SWAP2 SWAP1 POP SSTORE POP PUSH1 0x0 PUSH1 0x2 SLOAD TIMESTAMP CALLER PUSH1 0x1 SLOAD PUSH1 0x40 MLOAD PUSH1 0x20 ADD PUSH2 0x34F SWAP4 SWAP3 SWAP2 SWAP1 PUSH2 0x154D JUMP JUMPDEST PUSH1 0x40 MLOAD PUSH1 0x20 DUP2 DUP4 SUB SUB DUP2 MSTORE SWAP1 PUSH1 0x40 MSTORE DUP1 MLOAD SWAP1 PUSH1 0x20 ADD KECCAK256 PUSH1 0x0 SHR PUSH2 0x372 SWAP2 SWAP1 PUSH2 0x15B9 JUMP JUMPDEST SWAP1 POP PUSH1 0x1 PUSH1 0x5 PUSH1 0x0 DUP4 DUP2 MSTORE PUSH1 0x20 ADD SWAP1 DUP2 MSTORE PUSH1 0x20 ADD PUSH1 0x0 KECCAK256 PUSH1 0x0 PUSH2 0x100 EXP DUP2 SLOAD DUP2 PUSH1 0xFF MUL NOT AND SWAP1 DUP4 ISZERO ISZERO MUL OR SWAP1 SSTORE POP PUSH32 0x3D50A0C24E97813F35595D2F1F37DBF421D5E97F37ABD4E222853E9B9C82C8D5 CALLER DUP3 PUSH1 0x40 MLOAD PUSH2 0x3D1 SWAP3 SWAP2 SWAP1 PUSH2 0x15EA JUMP JUMPDEST PUSH1 0x40 MLOAD DUP1 SWAP2 SUB SWAP1 LOG1 DUP1 SWAP2 POP POP SWAP1 JUMP JUMPDEST PUSH2 0x3E8 PUSH2 0xC88 JUMP JUMPDEST PUSH20 0xFFFFFFFFFFFFFFFFFFFFFFFFFFFFFFFFFFFFFFFF AND DUP2 PUSH20 0xFFFFFFFFFFFFFFFFFFFFFFFFFFFFFFFFFFFFFFFF AND EQ PUSH2 0x455 JUMPI PUSH1 0x40 MLOAD PUSH32 0x8C379A000000000000000000000000000000000000000000000000000000000 DUP2 MSTORE PUSH1 0x4 ADD PUSH2 0x44C SWAP1 PUSH2 0x1696 JUMP JUMPDEST PUSH1 0x40 MLOAD DUP1 SWAP2 SUB SWAP1 REVERT JUMPDEST PUSH2 0x45F DUP3 DUP3 PUSH2 0xC90 JUMP JUMPDEST POP POP JUMP JUMPDEST PUSH1 0x6 PUSH1 0x20 MSTORE DUP2 PUSH1 0x0 MSTORE PUSH1 0x40 PUSH1 0x0 KECCAK256 DUP2 DUP2 SLOAD DUP2 LT PUSH2 0x47F JUMPI PUSH1 0x0 DUP1 REVERT JUMPDEST SWAP1 PUSH1 0x0 MSTORE PUSH1 0x20 PUSH1 0x0 KECCAK256 SWAP1 PUSH1 0x3 MUL ADD PUSH1 0x0 SWAP2 POP SWAP2 POP POP DUP1 PUSH1 0x0 ADD PUSH1 0x0 SWAP1 SLOAD SWAP1 PUSH2 0x100 EXP SWAP1 DIV PUSH20 0xFFFFFFFFFFFFFFFFFFFFFFFFFFFFFFFFFFFFFFFF AND SWAP1 DUP1 PUSH1 0x1 ADD PUSH1 0x0 SWAP1 SLOAD SWAP1 PUSH2 0x100 EXP SWAP1 DIV PUSH20 0xFFFFFFFFFFFFFFFFFFFFFFFFFFFFFFFFFFFFFFFF AND SWAP1 DUP1 PUSH1 0x2 ADD SLOAD SWAP1 POP DUP4 JUMP JUMPDEST PUSH1 0x0 DUP1 PUSH1 0x0 DUP5 DUP2 MSTORE PUSH1 0x20 ADD SWAP1 DUP2 MSTORE PUSH1 0x20 ADD PUSH1 0x0 KECCAK256 PUSH1 0x0 ADD PUSH1 0x0 DUP4 PUSH20 0xFFFFFFFFFFFFFFFFFFFFFFFFFFFFFFFFFFFFFFFF AND PUSH20 0xFFFFFFFFFFFFFFFFFFFFFFFFFFFFFFFFFFFFFFFF AND DUP2 MSTORE PUSH1 0x20 ADD SWAP1 DUP2 MSTORE PUSH1 0x20 ADD PUSH1 0x0 KECCAK256 PUSH1 0x0 SWAP1 SLOAD SWAP1 PUSH2 0x100 EXP SWAP1 DIV PUSH1 0xFF AND SWAP1 POP SWAP3 SWAP2 POP POP JUMP JUMPDEST PUSH1 0x0 DUP1 SHL DUP2 JUMP JUMPDEST PUSH32 0x6270EDB7C868F86FDA4ADEDBA75108201087268EA345934DB8BAD688E1FEB91B PUSH2 0x585 DUP2 PUSH2 0xB94 JUMP JUMPDEST PUSH1 0x5 PUSH1 0x0 DUP4 DUP2 MSTORE PUSH1 0x20 ADD SWAP1 DUP2 MSTORE PUSH1 0x20 ADD PUSH1 0x0 KECCAK256 PUSH1 0x0 SWAP1 SLOAD SWAP1 PUSH2 0x100 EXP SWAP1 DIV PUSH1 0xFF AND PUSH2 0x5E5 JUMPI PUSH1 0x40 MLOAD PUSH32 0x8C379A000000000000000000000000000000000000000000000000000000000 DUP2 MSTORE PUSH1 0x4 ADD PUSH2 0x5DC SWAP1 PUSH2 0x1728 JUMP JUMPDEST PUSH1 0x40 MLOAD DUP1 SWAP2 SUB SWAP1 REVERT JUMPDEST PUSH1 0x0 PUSH1 0x40 MLOAD DUP1 PUSH1 0x60 ADD PUSH1 0x40 MSTORE DUP1 CALLER PUSH20 0xFFFFFFFFFFFFFFFFFFFFFFFFFFFFFFFFFFFFFFFF AND DUP2 MSTORE PUSH1 0x20 ADD DUP6 PUSH20 0xFFFFFFFFFFFFFFFFFFFFFFFFFFFFFFFFFFFFFFFF AND DUP2 MSTORE PUSH1 0x20 ADD DUP7 DUP2 MSTORE POP SWAP1 POP PUSH1 0x6 PUSH1 0x0 DUP5 DUP2 MSTORE PUSH1 0x20 ADD SWAP1 DUP2 MSTORE PUSH1 0x20 ADD PUSH1 0x0 KECCAK256 DUP2 SWAP1 DUP1 PUSH1 0x1 DUP2 SLOAD ADD DUP1 DUP3 SSTORE DUP1 SWAP2 POP POP PUSH1 0x1 SWAP1 SUB SWAP1 PUSH1 0x0 MSTORE PUSH1 0x20 PUSH1 0x0 KECCAK256 SWAP1 PUSH1 0x3 MUL ADD PUSH1 0x0 SWAP1 SWAP2 SWAP1 SWAP2 SWAP1 SWAP2 POP PUSH1 0x0 DUP3 ADD MLOAD DUP2 PUSH1 0x0 ADD PUSH1 0x0 PUSH2 0x100 EXP DUP2 SLOAD DUP2 PUSH20 0xFFFFFFFFFFFFFFFFFFFFFFFFFFFFFFFFFFFFFFFF MUL NOT AND SWAP1 DUP4 PUSH20 0xFFFFFFFFFFFFFFFFFFFFFFFFFFFFFFFFFFFFFFFF AND MUL OR SWAP1 SSTORE POP PUSH1 0x20 DUP3 ADD MLOAD DUP2 PUSH1 0x1 ADD PUSH1 0x0 PUSH2 0x100 EXP DUP2 SLOAD DUP2 PUSH20 0xFFFFFFFFFFFFFFFFFFFFFFFFFFFFFFFFFFFFFFFF MUL NOT AND SWAP1 DUP4 PUSH20 0xFFFFFFFFFFFFFFFFFFFFFFFFFFFFFFFFFFFFFFFF AND MUL OR SWAP1 SSTORE POP PUSH1 0x40 DUP3 ADD MLOAD DUP2 PUSH1 0x2 ADD SSTORE POP POP PUSH1 0x0 PUSH1 0x6 PUSH1 0x0 DUP6 DUP2 MSTORE PUSH1 0x20 ADD SWAP1 DUP2 MSTORE PUSH1 0x20 ADD PUSH1 0x0 KECCAK256 DUP1 SLOAD SWAP1 POP SWAP1 POP PUSH1 0x4 SLOAD DUP2 SUB PUSH2 0x89B JUMPI PUSH1 0x0 DUP1 JUMPDEST DUP3 DUP2 LT ISZERO PUSH2 0x795 JUMPI PUSH2 0x780 PUSH1 0x6 PUSH1 0x0 DUP9 DUP2 MSTORE PUSH1 0x20 ADD SWAP1 DUP2 MSTORE PUSH1 0x20 ADD PUSH1 0x0 KECCAK256 DUP3 DUP2 SLOAD DUP2 LT PUSH2 0x75F JUMPI PUSH2 0x75E PUSH2 0x1748 JUMP JUMPDEST JUMPDEST SWAP1 PUSH1 0x0 MSTORE PUSH1 0x20 PUSH1 0x0 KECCAK256 SWAP1 PUSH1 0x3 MUL ADD PUSH1 0x2 ADD SLOAD DUP4 PUSH2 0xD71 SWAP1 SWAP2 SWAP1 PUSH4 0xFFFFFFFF AND JUMP JUMPDEST SWAP2 POP DUP1 DUP1 PUSH2 0x78D SWAP1 PUSH2 0x149C JUMP JUMPDEST SWAP2 POP POP PUSH2 0x72F JUMP JUMPDEST POP PUSH2 0x7A9 DUP3 DUP3 PUSH2 0xD87 SWAP1 SWAP2 SWAP1 PUSH4 0xFFFFFFFF AND JUMP JUMPDEST SWAP1 POP PUSH1 0x5 PUSH1 0x0 DUP7 DUP2 MSTORE PUSH1 0x20 ADD SWAP1 DUP2 MSTORE PUSH1 0x20 ADD PUSH1 0x0 KECCAK256 PUSH1 0x0 PUSH2 0x100 EXP DUP2 SLOAD SWAP1 PUSH1 0xFF MUL NOT AND SWAP1 SSTORE PUSH1 0x6 PUSH1 0x0 DUP7 DUP2 MSTORE PUSH1 0x20 ADD SWAP1 DUP2 MSTORE PUSH1 0x20 ADD PUSH1 0x0 KECCAK256 PUSH1 0x0 PUSH2 0x7ED SWAP2 SWAP1 PUSH2 0x108B JUMP JUMPDEST PUSH1 0x0 DUP7 SWAP1 POP DUP1 PUSH20 0xFFFFFFFFFFFFFFFFFFFFFFFFFFFFFFFFFFFFFFFF AND PUSH4 0xB5D73BA4 DUP4 DUP9 PUSH1 0x40 MLOAD DUP4 PUSH4 0xFFFFFFFF AND PUSH1 0xE0 SHL DUP2 MSTORE PUSH1 0x4 ADD PUSH2 0x82D SWAP3 SWAP2 SWAP1 PUSH2 0x1777 JUMP JUMPDEST PUSH1 0x0 PUSH1 0x40 MLOAD DUP1 DUP4 SUB DUP2 PUSH1 0x0 DUP8 DUP1 EXTCODESIZE ISZERO DUP1 ISZERO PUSH2 0x847 JUMPI PUSH1 0x0 DUP1 REVERT JUMPDEST POP GAS CALL ISZERO DUP1 ISZERO PUSH2 0x85B JUMPI RETURNDATASIZE PUSH1 0x0 DUP1 RETURNDATACOPY RETURNDATASIZE PUSH1 0x0 REVERT JUMPDEST POP POP POP POP PUSH32 0x91B860381268A473101DE3379ABBB70ABF7EA6C9D1735CF58B9816479FF3B727 DUP3 DUP9 PUSH1 0x40 MLOAD PUSH2 0x890 SWAP3 SWAP2 SWAP1 PUSH2 0x17A0 JUMP JUMPDEST PUSH1 0x40 MLOAD DUP1 SWAP2 SUB SWAP1 LOG1 POP POP JUMPDEST POP POP POP POP POP POP JUMP JUMPDEST PUSH2 0x8AC DUP3 PUSH2 0x2D9 JUMP JUMPDEST PUSH2 0x8B5 DUP2 PUSH2 0xB94 JUMP JUMPDEST PUSH2 0x8BF DUP4 DUP4 PUSH2 0xC90 JUMP JUMPDEST POP POP POP JUMP JUMPDEST PUSH32 0x6270EDB7C868F86FDA4ADEDBA75108201087268EA345934DB8BAD688E1FEB91B PUSH2 0x8EE DUP2 PUSH2 0xB94 JUMP JUMPDEST PUSH2 0x918 PUSH32 0x352D05FE3946DBE49277552BA941E744D5A96D9C60BC1BA0EA5F1D3AE000F7C8 DUP4 PUSH2 0x4EA JUMP JUMPDEST ISZERO PUSH2 0x958 JUMPI PUSH1 0x40 MLOAD PUSH32 0x8C379A000000000000000000000000000000000000000000000000000000000 DUP2 MSTORE PUSH1 0x4 ADD PUSH2 0x94F SWAP1 PUSH2 0x1815 JUMP JUMPDEST PUSH1 0x40 MLOAD DUP1 SWAP2 SUB SWAP1 REVERT JUMPDEST PUSH2 0x982 PUSH32 0x352D05FE3946DBE49277552BA941E744D5A96D9C60BC1BA0EA5F1D3AE000F7C8 DUP4 PUSH2 0xBA8 JUMP JUMPDEST PUSH1 0x3 PUSH1 0x0 DUP2 SLOAD DUP1 SWAP3 SWAP2 SWAP1 PUSH2 0x995 SWAP1 PUSH2 0x149C JUMP JUMPDEST SWAP2 SWAP1 POP SSTORE POP PUSH32 0xED46B7525D27F2470EE188E1D85693A6A8B59537B58701408B2F53588E63D1DB DUP3 PUSH1 0x40 MLOAD PUSH2 0x9C9 SWAP2 SWAP1 PUSH2 0x1835 JUMP JUMPDEST PUSH1 0x40 MLOAD DUP1 SWAP2 SUB SWAP1 LOG1 POP POP JUMP JUMPDEST PUSH32 0x6270EDB7C868F86FDA4ADEDBA75108201087268EA345934DB8BAD688E1FEB91B PUSH2 0x9FF DUP2 PUSH2 0xB94 JUMP JUMPDEST PUSH2 0xA29 PUSH32 0x352D05FE3946DBE49277552BA941E744D5A96D9C60BC1BA0EA5F1D3AE000F7C8 DUP4 PUSH2 0x4EA JUMP JUMPDEST PUSH2 0xA68 JUMPI PUSH1 0x40 MLOAD PUSH32 0x8C379A000000000000000000000000000000000000000000000000000000000 DUP2 MSTORE PUSH1 0x4 ADD PUSH2 0xA5F SWAP1 PUSH2 0x189C JUMP JUMPDEST PUSH1 0x40 MLOAD DUP1 SWAP2 SUB SWAP1 REVERT JUMPDEST PUSH1 0x1 PUSH1 0x3 SLOAD GT PUSH2 0xAAD JUMPI PUSH1 0x40 MLOAD PUSH32 0x8C379A000000000000000000000000000000000000000000000000000000000 DUP2 MSTORE PUSH1 0x4 ADD PUSH2 0xAA4 SWAP1 PUSH2 0x1908 JUMP JUMPDEST PUSH1 0x40 MLOAD DUP1 SWAP2 SUB SWAP1 REVERT JUMPDEST PUSH2 0xAD7 PUSH32 0x352D05FE3946DBE49277552BA941E744D5A96D9C60BC1BA0EA5F1D3AE000F7C8 DUP4 PUSH2 0xC90 JUMP JUMPDEST PUSH1 0x3 PUSH1 0x0 DUP2 SLOAD DUP1 SWAP3 SWAP2 SWAP1 PUSH2 0xAEA SWAP1 PUSH2 0x1928 JUMP JUMPDEST SWAP2 SWAP1 POP SSTORE POP PUSH32 0x8D35B822981364028D4BB40AF1EDCFD97F4E186C8CCF97BAFCC9ADC68BD58C6D DUP3 PUSH1 0x40 MLOAD PUSH2 0xB1E SWAP2 SWAP1 PUSH2 0x1835 JUMP JUMPDEST PUSH1 0x40 MLOAD DUP1 SWAP2 SUB SWAP1 LOG1 POP POP JUMP JUMPDEST PUSH1 0x0 PUSH32 0x1FFC9A700000000000000000000000000000000000000000000000000000000 PUSH28 0xFFFFFFFFFFFFFFFFFFFFFFFFFFFFFFFFFFFFFFFFFFFFFFFFFFFFFFFF NOT AND DUP3 PUSH28 0xFFFFFFFFFFFFFFFFFFFFFFFFFFFFFFFFFFFFFFFFFFFFFFFFFFFFFFFF NOT AND EQ SWAP1 POP SWAP2 SWAP1 POP JUMP JUMPDEST PUSH2 0xBA5 DUP2 PUSH2 0xBA0 PUSH2 0xC88 JUMP JUMPDEST PUSH2 0xD9D JUMP JUMPDEST POP JUMP JUMPDEST PUSH2 0xBB2 DUP3 DUP3 PUSH2 0x4EA JUMP JUMPDEST PUSH2 0xC84 JUMPI PUSH1 0x1 PUSH1 0x0 DUP1 DUP5 DUP2 MSTORE PUSH1 0x20 ADD SWAP1 DUP2 MSTORE PUSH1 0x20 ADD PUSH1 0x0 KECCAK256 PUSH1 0x0 ADD PUSH1 0x0 DUP4 PUSH20 0xFFFFFFFFFFFFFFFFFFFFFFFFFFFFFFFFFFFFFFFF AND PUSH20 0xFFFFFFFFFFFFFFFFFFFFFFFFFFFFFFFFFFFFFFFF AND DUP2 MSTORE PUSH1 0x20 ADD SWAP1 DUP2 MSTORE PUSH1 0x20 ADD PUSH1 0x0 KECCAK256 PUSH1 0x0 PUSH2 0x100 EXP DUP2 SLOAD DUP2 PUSH1 0xFF MUL NOT AND SWAP1 DUP4 ISZERO ISZERO MUL OR SWAP1 SSTORE POP PUSH2 0xC29 PUSH2 0xC88 JUMP JUMPDEST PUSH20 0xFFFFFFFFFFFFFFFFFFFFFFFFFFFFFFFFFFFFFFFF AND DUP2 PUSH20 0xFFFFFFFFFFFFFFFFFFFFFFFFFFFFFFFFFFFFFFFF AND DUP4 PUSH32 0x2F8788117E7EFF1D82E926EC794901D17C78024A50270940304540A733656F0D PUSH1 0x40 MLOAD PUSH1 0x40 MLOAD DUP1 SWAP2 SUB SWAP1 LOG4 JUMPDEST POP POP JUMP JUMPDEST PUSH1 0x0 CALLER SWAP1 POP SWAP1 JUMP JUMPDEST PUSH2 0xC9A DUP3 DUP3 PUSH2 0x4EA JUMP JUMPDEST ISZERO PUSH2 0xD6D JUMPI PUSH1 0x0 DUP1 PUSH1 0x0 DUP5 DUP2 MSTORE PUSH1 0x20 ADD SWAP1 DUP2 MSTORE PUSH1 0x20 ADD PUSH1 0x0 KECCAK256 PUSH1 0x0 ADD PUSH1 0x0 DUP4 PUSH20 0xFFFFFFFFFFFFFFFFFFFFFFFFFFFFFFFFFFFFFFFF AND PUSH20 0xFFFFFFFFFFFFFFFFFFFFFFFFFFFFFFFFFFFFFFFF AND DUP2 MSTORE PUSH1 0x20 ADD SWAP1 DUP2 MSTORE PUSH1 0x20 ADD PUSH1 0x0 KECCAK256 PUSH1 0x0 PUSH2 0x100 EXP DUP2 SLOAD DUP2 PUSH1 0xFF MUL NOT AND SWAP1 DUP4 ISZERO ISZERO MUL OR SWAP1 SSTORE POP PUSH2 0xD12 PUSH2 0xC88 JUMP JUMPDEST PUSH20 0xFFFFFFFFFFFFFFFFFFFFFFFFFFFFFFFFFFFFFFFF AND DUP2 PUSH20 0xFFFFFFFFFFFFFFFFFFFFFFFFFFFFFFFFFFFFFFFF AND DUP4 PUSH32 0xF6391F5C32D9C69D2A47EA670B442974B53935D1EDC7FD64EB21E047A839171B PUSH1 0x40 MLOAD PUSH1 0x40 MLOAD DUP1 SWAP2 SUB SWAP1 LOG4 JUMPDEST POP POP JUMP JUMPDEST PUSH1 0x0 DUP2 DUP4 PUSH2 0xD7F SWAP2 SWAP1 PUSH2 0x1951 JUMP JUMPDEST SWAP1 POP SWAP3 SWAP2 POP POP JUMP JUMPDEST PUSH1 0x0 DUP2 DUP4 PUSH2 0xD95 SWAP2 SWAP1 PUSH2 0x1985 JUMP JUMPDEST SWAP1 POP SWAP3 SWAP2 POP POP JUMP JUMPDEST PUSH2 0xDA7 DUP3 DUP3 PUSH2 0x4EA JUMP JUMPDEST PUSH2 0xE1E JUMPI PUSH2 0xDB4 DUP2 PUSH2 0xE22 JUMP JUMPDEST PUSH2 0xDC2 DUP4 PUSH1 0x0 SHR PUSH1 0x20 PUSH2 0xE4F JUMP JUMPDEST PUSH1 0x40 MLOAD PUSH1 0x20 ADD PUSH2 0xDD3 SWAP3 SWAP2 SWAP1 PUSH2 0x1ABF JUMP JUMPDEST PUSH1 0x40 MLOAD PUSH1 0x20 DUP2 DUP4 SUB SUB DUP2 MSTORE SWAP1 PUSH1 0x40 MSTORE PUSH1 0x40 MLOAD PUSH32 0x8C379A000000000000000000000000000000000000000000000000000000000 DUP2 MSTORE PUSH1 0x4 ADD PUSH2 0xE15 SWAP2 SWAP1 PUSH2 0x1B43 JUMP JUMPDEST PUSH1 0x40 MLOAD DUP1 SWAP2 SUB SWAP1 REVERT JUMPDEST POP POP JUMP JUMPDEST PUSH1 0x60 PUSH2 0xE48 DUP3 PUSH20 0xFFFFFFFFFFFFFFFFFFFFFFFFFFFFFFFFFFFFFFFF AND PUSH1 0x14 PUSH1 0xFF AND PUSH2 0xE4F JUMP JUMPDEST SWAP1 POP SWAP2 SWAP1 POP JUMP JUMPDEST PUSH1 0x60 PUSH1 0x0 PUSH1 0x2 DUP4 PUSH1 0x2 PUSH2 0xE62 SWAP2 SWAP1 PUSH2 0x1B65 JUMP JUMPDEST PUSH2 0xE6C SWAP2 SWAP1 PUSH2 0x1951 JUMP JUMPDEST PUSH8 0xFFFFFFFFFFFFFFFF DUP2 GT ISZERO PUSH2 0xE85 JUMPI PUSH2 0xE84 PUSH2 0x1BA7 JUMP JUMPDEST JUMPDEST PUSH1 0x40 MLOAD SWAP1 DUP1 DUP3 MSTORE DUP1 PUSH1 0x1F ADD PUSH1 0x1F NOT AND PUSH1 0x20 ADD DUP3 ADD PUSH1 0x40 MSTORE DUP1 ISZERO PUSH2 0xEB7 JUMPI DUP2 PUSH1 0x20 ADD PUSH1 0x1 DUP3 MUL DUP1 CALLDATASIZE DUP4 CALLDATACOPY DUP1 DUP3 ADD SWAP2 POP POP SWAP1 POP JUMPDEST POP SWAP1 POP PUSH32 0x3000000000000000000000000000000000000000000000000000000000000000 DUP2 PUSH1 0x0 DUP2 MLOAD DUP2 LT PUSH2 0xEEF JUMPI PUSH2 0xEEE PUSH2 0x1748 JUMP JUMPDEST JUMPDEST PUSH1 0x20 ADD ADD SWAP1 PUSH31 0xFFFFFFFFFFFFFFFFFFFFFFFFFFFFFFFFFFFFFFFFFFFFFFFFFFFFFFFFFFFFFF NOT AND SWAP1 DUP2 PUSH1 0x0 BYTE SWAP1 MSTORE8 POP PUSH32 0x7800000000000000000000000000000000000000000000000000000000000000 DUP2 PUSH1 0x1 DUP2 MLOAD DUP2 LT PUSH2 0xF53 JUMPI PUSH2 0xF52 PUSH2 0x1748 JUMP JUMPDEST JUMPDEST PUSH1 0x20 ADD ADD SWAP1 PUSH31 0xFFFFFFFFFFFFFFFFFFFFFFFFFFFFFFFFFFFFFFFFFFFFFFFFFFFFFFFFFFFFFF NOT AND SWAP1 DUP2 PUSH1 0x0 BYTE SWAP1 MSTORE8 POP PUSH1 0x0 PUSH1 0x1 DUP5 PUSH1 0x2 PUSH2 0xF93 SWAP2 SWAP1 PUSH2 0x1B65 JUMP JUMPDEST PUSH2 0xF9D SWAP2 SWAP1 PUSH2 0x1951 JUMP JUMPDEST SWAP1 POP JUMPDEST PUSH1 0x1 DUP2 GT ISZERO PUSH2 0x103D JUMPI PUSH32 0x3031323334353637383961626364656600000000000000000000000000000000 PUSH1 0xF DUP7 AND PUSH1 0x10 DUP2 LT PUSH2 0xFDF JUMPI PUSH2 0xFDE PUSH2 0x1748 JUMP JUMPDEST JUMPDEST BYTE PUSH1 0xF8 SHL DUP3 DUP3 DUP2 MLOAD DUP2 LT PUSH2 0xFF6 JUMPI PUSH2 0xFF5 PUSH2 0x1748 JUMP JUMPDEST JUMPDEST PUSH1 0x20 ADD ADD SWAP1 PUSH31 0xFFFFFFFFFFFFFFFFFFFFFFFFFFFFFFFFFFFFFFFFFFFFFFFFFFFFFFFFFFFFFF NOT AND SWAP1 DUP2 PUSH1 0x0 BYTE SWAP1 MSTORE8 POP PUSH1 0x4 DUP6 SWAP1 SHR SWAP5 POP DUP1 PUSH2 0x1036 SWAP1 PUSH2 0x1928 JUMP JUMPDEST SWAP1 POP PUSH2 0xFA0 JUMP JUMPDEST POP PUSH1 0x0 DUP5 EQ PUSH2 0x1081 JUMPI PUSH1 0x40 MLOAD PUSH32 0x8C379A000000000000000000000000000000000000000000000000000000000 DUP2 MSTORE PUSH1 0x4 ADD PUSH2 0x1078 SWAP1 PUSH2 0x1C22 JUMP JUMPDEST PUSH1 0x40 MLOAD DUP1 SWAP2 SUB SWAP1 REVERT JUMPDEST DUP1 SWAP2 POP POP SWAP3 SWAP2 POP POP JUMP JUMPDEST POP DUP1 SLOAD PUSH1 0x0 DUP3 SSTORE PUSH1 0x3 MUL SWAP1 PUSH1 0x0 MSTORE PUSH1 0x20 PUSH1 0x0 KECCAK256 SWAP1 DUP2 ADD SWAP1 PUSH2 0x10AC SWAP2 SWAP1 PUSH2 0x10AF JUMP JUMPDEST POP JUMP JUMPDEST JUMPDEST DUP1 DUP3 GT ISZERO PUSH2 0x1118 JUMPI PUSH1 0x0 DUP1 DUP3 ADD PUSH1 0x0 PUSH2 0x100 EXP DUP2 SLOAD SWAP1 PUSH20 0xFFFFFFFFFFFFFFFFFFFFFFFFFFFFFFFFFFFFFFFF MUL NOT AND SWAP1 SSTORE PUSH1 0x1 DUP3 ADD PUSH1 0x0 PUSH2 0x100 EXP DUP2 SLOAD SWAP1 PUSH20 0xFFFFFFFFFFFFFFFFFFFFFFFFFFFFFFFFFFFFFFFF MUL NOT AND SWAP1 SSTORE PUSH1 0x2 DUP3 ADD PUSH1 0x0 SWAP1 SSTORE POP PUSH1 0x3 ADD PUSH2 0x10B0 JUMP JUMPDEST POP SWAP1 JUMP JUMPDEST PUSH1 0x0 DUP1 REVERT JUMPDEST PUSH1 0x0 PUSH32 0xFFFFFFFF00000000000000000000000000000000000000000000000000000000 DUP3 AND SWAP1 POP SWAP2 SWAP1 POP JUMP JUMPDEST PUSH2 0x1156 DUP2 PUSH2 0x1121 JUMP JUMPDEST DUP2 EQ PUSH2 0x1161 JUMPI PUSH1 0x0 DUP1 REVERT JUMPDEST POP JUMP JUMPDEST PUSH1 0x0 DUP2 CALLDATALOAD SWAP1 POP PUSH2 0x1173 DUP2 PUSH2 0x114D JUMP JUMPDEST SWAP3 SWAP2 POP POP JUMP JUMPDEST PUSH1 0x0 PUSH1 0x20 DUP3 DUP5 SUB SLT ISZERO PUSH2 0x118F JUMPI PUSH2 0x118E PUSH2 0x111C JUMP JUMPDEST JUMPDEST PUSH1 0x0 PUSH2 0x119D DUP5 DUP3 DUP6 ADD PUSH2 0x1164 JUMP JUMPDEST SWAP2 POP POP SWAP3 SWAP2 POP POP JUMP JUMPDEST PUSH1 0x0 DUP2 ISZERO ISZERO SWAP1 POP SWAP2 SWAP1 POP JUMP JUMPDEST PUSH2 0x11BB DUP2 PUSH2 0x11A6 JUMP JUMPDEST DUP3 MSTORE POP POP JUMP JUMPDEST PUSH1 0x0 PUSH1 0x20 DUP3 ADD SWAP1 POP PUSH2 0x11D6 PUSH1 0x0 DUP4 ADD DUP5 PUSH2 0x11B2 JUMP JUMPDEST SWAP3 SWAP2 POP POP JUMP JUMPDEST PUSH1 0x0 DUP2 SWAP1 POP SWAP2 SWAP1 POP JUMP JUMPDEST PUSH2 0x11EF DUP2 PUSH2 0x11DC JUMP JUMPDEST DUP2 EQ PUSH2 0x11FA JUMPI PUSH1 0x0 DUP1 REVERT JUMPDEST POP JUMP JUMPDEST PUSH1 0x0 DUP2 CALLDATALOAD SWAP1 POP PUSH2 0x120C DUP2 PUSH2 0x11E6 JUMP JUMPDEST SWAP3 SWAP2 POP POP JUMP JUMPDEST PUSH1 0x0 PUSH1 0x20 DUP3 DUP5 SUB SLT ISZERO PUSH2 0x1228 JUMPI PUSH2 0x1227 PUSH2 0x111C JUMP JUMPDEST JUMPDEST PUSH1 0x0 PUSH2 0x1236 DUP5 DUP3 DUP6 ADD PUSH2 0x11FD JUMP JUMPDEST SWAP2 POP POP SWAP3 SWAP2 POP POP JUMP JUMPDEST PUSH2 0x1248 DUP2 PUSH2 0x11DC JUMP JUMPDEST DUP3 MSTORE POP POP JUMP JUMPDEST PUSH1 0x0 PUSH1 0x20 DUP3 ADD SWAP1 POP PUSH2 0x1263 PUSH1 0x0 DUP4 ADD DUP5 PUSH2 0x123F JUMP JUMPDEST SWAP3 SWAP2 POP POP JUMP JUMPDEST PUSH1 0x0 PUSH20 0xFFFFFFFFFFFFFFFFFFFFFFFFFFFFFFFFFFFFFFFF DUP3 AND SWAP1 POP SWAP2 SWAP1 POP JUMP JUMPDEST PUSH1 0x0 PUSH2 0x1294 DUP3 PUSH2 0x1269 JUMP JUMPDEST SWAP1 POP SWAP2 SWAP1 POP JUMP JUMPDEST PUSH2 0x12A4 DUP2 PUSH2 0x1289 JUMP JUMPDEST DUP2 EQ PUSH2 0x12AF JUMPI PUSH1 0x0 DUP1 REVERT JUMPDEST POP JUMP JUMPDEST PUSH1 0x0 DUP2 CALLDATALOAD SWAP1 POP PUSH2 0x12C1 DUP2 PUSH2 0x129B JUMP JUMPDEST SWAP3 SWAP2 POP POP JUMP JUMPDEST PUSH1 0x0 DUP1 PUSH1 0x40 DUP4 DUP6 SUB SLT ISZERO PUSH2 0x12DE JUMPI PUSH2 0x12DD PUSH2 0x111C JUMP JUMPDEST JUMPDEST PUSH1 0x0 PUSH2 0x12EC DUP6 DUP3 DUP7 ADD PUSH2 0x11FD JUMP JUMPDEST SWAP3 POP POP PUSH1 0x20 PUSH2 0x12FD DUP6 DUP3 DUP7 ADD PUSH2 0x12B2 JUMP JUMPDEST SWAP2 POP POP SWAP3 POP SWAP3 SWAP1 POP JUMP JUMPDEST PUSH1 0x0 DUP2 SWAP1 POP SWAP2 SWAP1 POP JUMP JUMPDEST PUSH2 0x131A DUP2 PUSH2 0x1307 JUMP JUMPDEST DUP3 MSTORE POP POP JUMP JUMPDEST PUSH1 0x0 PUSH1 0x20 DUP3 ADD SWAP1 POP PUSH2 0x1335 PUSH1 0x0 DUP4 ADD DUP5 PUSH2 0x1311 JUMP JUMPDEST SWAP3 SWAP2 POP POP JUMP JUMPDEST PUSH2 0x1344 DUP2 PUSH2 0x1307 JUMP JUMPDEST DUP2 EQ PUSH2 0x134F JUMPI PUSH1 0x0 DUP1 REVERT JUMPDEST POP JUMP JUMPDEST PUSH1 0x0 DUP2 CALLDATALOAD SWAP1 POP PUSH2 0x1361 DUP2 PUSH2 0x133B JUMP JUMPDEST SWAP3 SWAP2 POP POP JUMP JUMPDEST PUSH1 0x0 DUP1 PUSH1 0x40 DUP4 DUP6 SUB SLT ISZERO PUSH2 0x137E JUMPI PUSH2 0x137D PUSH2 0x111C JUMP JUMPDEST JUMPDEST PUSH1 0x0 PUSH2 0x138C DUP6 DUP3 DUP7 ADD PUSH2 0x1352 JUMP JUMPDEST SWAP3 POP POP PUSH1 0x20 PUSH2 0x139D DUP6 DUP3 DUP7 ADD PUSH2 0x1352 JUMP JUMPDEST SWAP2 POP POP SWAP3 POP SWAP3 SWAP1 POP JUMP JUMPDEST PUSH2 0x13B0 DUP2 PUSH2 0x1289 JUMP JUMPDEST DUP3 MSTORE POP POP JUMP JUMPDEST PUSH1 0x0 PUSH1 0x60 DUP3 ADD SWAP1 POP PUSH2 0x13CB PUSH1 0x0 DUP4 ADD DUP7 PUSH2 0x13A7 JUMP JUMPDEST PUSH2 0x13D8 PUSH1 0x20 DUP4 ADD DUP6 PUSH2 0x13A7 JUMP JUMPDEST PUSH2 0x13E5 PUSH1 0x40 DUP4 ADD DUP5 PUSH2 0x1311 JUMP JUMPDEST SWAP5 SWAP4 POP POP POP POP JUMP JUMPDEST PUSH1 0x0 DUP1 PUSH1 0x0 PUSH1 0x60 DUP5 DUP7 SUB SLT ISZERO PUSH2 0x1406 JUMPI PUSH2 0x1405 PUSH2 0x111C JUMP JUMPDEST JUMPDEST PUSH1 0x0 PUSH2 0x1414 DUP7 DUP3 DUP8 ADD PUSH2 0x1352 JUMP JUMPDEST SWAP4 POP POP PUSH1 0x20 PUSH2 0x1425 DUP7 DUP3 DUP8 ADD PUSH2 0x12B2 JUMP JUMPDEST SWAP3 POP POP PUSH1 0x40 PUSH2 0x1436 DUP7 DUP3 DUP8 ADD PUSH2 0x1352 JUMP JUMPDEST SWAP2 POP POP SWAP3 POP SWAP3 POP SWAP3 JUMP JUMPDEST PUSH1 0x0 PUSH1 0x20 DUP3 DUP5 SUB SLT ISZERO PUSH2 0x1456 JUMPI PUSH2 0x1455 PUSH2 0x111C JUMP JUMPDEST JUMPDEST PUSH1 0x0 PUSH2 0x1464 DUP5 DUP3 DUP6 ADD PUSH2 0x12B2 JUMP JUMPDEST SWAP2 POP POP SWAP3 SWAP2 POP POP JUMP JUMPDEST PUSH32 0x4E487B7100000000000000000000000000000000000000000000000000000000 PUSH1 0x0 MSTORE PUSH1 0x11 PUSH1 0x4 MSTORE PUSH1 0x24 PUSH1 0x0 REVERT JUMPDEST PUSH1 0x0 PUSH2 0x14A7 DUP3 PUSH2 0x1307 JUMP JUMPDEST SWAP2 POP PUSH32 0xFFFFFFFFFFFFFFFFFFFFFFFFFFFFFFFFFFFFFFFFFFFFFFFFFFFFFFFFFFFFFFFF DUP3 SUB PUSH2 0x14D9 JUMPI PUSH2 0x14D8 PUSH2 0x146D JUMP JUMPDEST JUMPDEST PUSH1 0x1 DUP3 ADD SWAP1 POP SWAP2 SWAP1 POP JUMP JUMPDEST PUSH1 0x0 DUP2 SWAP1 POP SWAP2 SWAP1 POP JUMP JUMPDEST PUSH2 0x14FF PUSH2 0x14FA DUP3 PUSH2 0x1307 JUMP JUMPDEST PUSH2 0x14E4 JUMP JUMPDEST DUP3 MSTORE POP POP JUMP JUMPDEST PUSH1 0x0 DUP2 PUSH1 0x60 SHL SWAP1 POP SWAP2 SWAP1 POP JUMP JUMPDEST PUSH1 0x0 PUSH2 0x151D DUP3 PUSH2 0x1505 JUMP JUMPDEST SWAP1 POP SWAP2 SWAP1 POP JUMP JUMPDEST PUSH1 0x0 PUSH2 0x152F DUP3 PUSH2 0x1512 JUMP JUMPDEST SWAP1 POP SWAP2 SWAP1 POP JUMP JUMPDEST PUSH2 0x1547 PUSH2 0x1542 DUP3 PUSH2 0x1289 JUMP JUMPDEST PUSH2 0x1524 JUMP JUMPDEST DUP3 MSTORE POP POP JUMP JUMPDEST PUSH1 0x0 PUSH2 0x1559 DUP3 DUP7 PUSH2 0x14EE JUMP JUMPDEST PUSH1 0x20 DUP3 ADD SWAP2 POP PUSH2 0x1569 DUP3 DUP6 PUSH2 0x1536 JUMP JUMPDEST PUSH1 0x14 DUP3 ADD SWAP2 POP PUSH2 0x1579 DUP3 DUP5 PUSH2 0x14EE JUMP JUMPDEST PUSH1 0x20 DUP3 ADD SWAP2 POP DUP2 SWAP1 POP SWAP5 SWAP4 POP POP POP POP JUMP JUMPDEST PUSH32 0x4E487B7100000000000000000000000000000000000000000000000000000000 PUSH1 0x0 MSTORE PUSH1 0x12 PUSH1 0x4 MSTORE PUSH1 0x24 PUSH1 0x0 REVERT JUMPDEST PUSH1 0x0 PUSH2 0x15C4 DUP3 PUSH2 0x1307 JUMP JUMPDEST SWAP2 POP PUSH2 0x15CF DUP4 PUSH2 0x1307 JUMP JUMPDEST SWAP3 POP DUP3 PUSH2 0x15DF JUMPI PUSH2 0x15DE PUSH2 0x158A JUMP JUMPDEST JUMPDEST DUP3 DUP3 MOD SWAP1 POP SWAP3 SWAP2 POP POP JUMP JUMPDEST PUSH1 0x0 PUSH1 0x40 DUP3 ADD SWAP1 POP PUSH2 0x15FF PUSH1 0x0 DUP4 ADD DUP6 PUSH2 0x13A7 JUMP JUMPDEST PUSH2 0x160C PUSH1 0x20 DUP4 ADD DUP5 PUSH2 0x1311 JUMP JUMPDEST SWAP4 SWAP3 POP POP POP JUMP JUMPDEST PUSH1 0x0 DUP3 DUP3 MSTORE PUSH1 0x20 DUP3 ADD SWAP1 POP SWAP3 SWAP2 POP POP JUMP JUMPDEST PUSH32 0x416363657373436F6E74726F6C3A2063616E206F6E6C792072656E6F756E6365 PUSH1 0x0 DUP3 ADD MSTORE PUSH32 0x20726F6C657320666F722073656C660000000000000000000000000000000000 PUSH1 0x20 DUP3 ADD MSTORE POP JUMP JUMPDEST PUSH1 0x0 PUSH2 0x1680 PUSH1 0x2F DUP4 PUSH2 0x1613 JUMP JUMPDEST SWAP2 POP PUSH2 0x168B DUP3 PUSH2 0x1624 JUMP JUMPDEST PUSH1 0x40 DUP3 ADD SWAP1 POP SWAP2 SWAP1 POP JUMP JUMPDEST PUSH1 0x0 PUSH1 0x20 DUP3 ADD SWAP1 POP DUP2 DUP2 SUB PUSH1 0x0 DUP4 ADD MSTORE PUSH2 0x16AF DUP2 PUSH2 0x1673 JUMP JUMPDEST SWAP1 POP SWAP2 SWAP1 POP JUMP JUMPDEST PUSH32 0x546869732072657175657374206973206E6F7420696E206D792070656E64696E PUSH1 0x0 DUP3 ADD MSTORE PUSH32 0x67206C6973742E00000000000000000000000000000000000000000000000000 PUSH1 0x20 DUP3 ADD MSTORE POP JUMP JUMPDEST PUSH1 0x0 PUSH2 0x1712 PUSH1 0x27 DUP4 PUSH2 0x1613 JUMP JUMPDEST SWAP2 POP PUSH2 0x171D DUP3 PUSH2 0x16B6 JUMP JUMPDEST PUSH1 0x40 DUP3 ADD SWAP1 POP SWAP2 SWAP1 POP JUMP JUMPDEST PUSH1 0x0 PUSH1 0x20 DUP3 ADD SWAP1 POP DUP2 DUP2 SUB PUSH1 0x0 DUP4 ADD MSTORE PUSH2 0x1741 DUP2 PUSH2 0x1705 JUMP JUMPDEST SWAP1 POP SWAP2 SWAP1 POP JUMP JUMPDEST PUSH32 0x4E487B7100000000000000000000000000000000000000000000000000000000 PUSH1 0x0 MSTORE PUSH1 0x32 PUSH1 0x4 MSTORE PUSH1 0x24 PUSH1 0x0 REVERT JUMPDEST PUSH1 0x0 PUSH1 0x40 DUP3 ADD SWAP1 POP PUSH2 0x178C PUSH1 0x0 DUP4 ADD DUP6 PUSH2 0x1311 JUMP JUMPDEST PUSH2 0x1799 PUSH1 0x20 DUP4 ADD DUP5 PUSH2 0x1311 JUMP JUMPDEST SWAP4 SWAP3 POP POP POP JUMP JUMPDEST PUSH1 0x0 PUSH1 0x40 DUP3 ADD SWAP1 POP PUSH2 0x17B5 PUSH1 0x0 DUP4 ADD DUP6 PUSH2 0x1311 JUMP JUMPDEST PUSH2 0x17C2 PUSH1 0x20 DUP4 ADD DUP5 PUSH2 0x13A7 JUMP JUMPDEST SWAP4 SWAP3 POP POP POP JUMP JUMPDEST PUSH32 0x416C726561647920616E206F7261636C65210000000000000000000000000000 PUSH1 0x0 DUP3 ADD MSTORE POP JUMP JUMPDEST PUSH1 0x0 PUSH2 0x17FF PUSH1 0x12 DUP4 PUSH2 0x1613 JUMP JUMPDEST SWAP2 POP PUSH2 0x180A DUP3 PUSH2 0x17C9 JUMP JUMPDEST PUSH1 0x20 DUP3 ADD SWAP1 POP SWAP2 SWAP1 POP JUMP JUMPDEST PUSH1 0x0 PUSH1 0x20 DUP3 ADD SWAP1 POP DUP2 DUP2 SUB PUSH1 0x0 DUP4 ADD MSTORE PUSH2 0x182E DUP2 PUSH2 0x17F2 JUMP JUMPDEST SWAP1 POP SWAP2 SWAP1 POP JUMP JUMPDEST PUSH1 0x0 PUSH1 0x20 DUP3 ADD SWAP1 POP PUSH2 0x184A PUSH1 0x0 DUP4 ADD DUP5 PUSH2 0x13A7 JUMP JUMPDEST SWAP3 SWAP2 POP POP JUMP JUMPDEST PUSH32 0x4E6F7420616E206F7261636C6521000000000000000000000000000000000000 PUSH1 0x0 DUP3 ADD MSTORE POP JUMP JUMPDEST PUSH1 0x0 PUSH2 0x1886 PUSH1 0xE DUP4 PUSH2 0x1613 JUMP JUMPDEST SWAP2 POP PUSH2 0x1891 DUP3 PUSH2 0x1850 JUMP JUMPDEST PUSH1 0x20 DUP3 ADD SWAP1 POP SWAP2 SWAP1 POP JUMP JUMPDEST PUSH1 0x0 PUSH1 0x20 DUP3 ADD SWAP1 POP DUP2 DUP2 SUB PUSH1 0x0 DUP4 ADD MSTORE PUSH2 0x18B5 DUP2 PUSH2 0x1879 JUMP JUMPDEST SWAP1 POP SWAP2 SWAP1 POP JUMP JUMPDEST PUSH32 0x446F206E6F742072656D6F766520746865206C617374206F7261636C65210000 PUSH1 0x0 DUP3 ADD MSTORE POP JUMP JUMPDEST PUSH1 0x0 PUSH2 0x18F2 PUSH1 0x1E DUP4 PUSH2 0x1613 JUMP JUMPDEST SWAP2 POP PUSH2 0x18FD DUP3 PUSH2 0x18BC JUMP JUMPDEST PUSH1 0x20 DUP3 ADD SWAP1 POP SWAP2 SWAP1 POP JUMP JUMPDEST PUSH1 0x0 PUSH1 0x20 DUP3 ADD SWAP1 POP DUP2 DUP2 SUB PUSH1 0x0 DUP4 ADD MSTORE PUSH2 0x1921 DUP2 PUSH2 0x18E5 JUMP JUMPDEST SWAP1 POP SWAP2 SWAP1 POP JUMP JUMPDEST PUSH1 0x0 PUSH2 0x1933 DUP3 PUSH2 0x1307 JUMP JUMPDEST SWAP2 POP PUSH1 0x0 DUP3 SUB PUSH2 0x1946 JUMPI PUSH2 0x1945 PUSH2 0x146D JUMP JUMPDEST JUMPDEST PUSH1 0x1 DUP3 SUB SWAP1 POP SWAP2 SWAP1 POP JUMP JUMPDEST PUSH1 0x0 PUSH2 0x195C DUP3 PUSH2 0x1307 JUMP JUMPDEST SWAP2 POP PUSH2 0x1967 DUP4 PUSH2 0x1307 JUMP JUMPDEST SWAP3 POP DUP3 DUP3 ADD SWAP1 POP DUP1 DUP3 GT ISZERO PUSH2 0x197F JUMPI PUSH2 0x197E PUSH2 0x146D JUMP JUMPDEST JUMPDEST SWAP3 SWAP2 POP POP JUMP JUMPDEST PUSH1 0x0 PUSH2 0x1990 DUP3 PUSH2 0x1307 JUMP JUMPDEST SWAP2 POP PUSH2 0x199B DUP4 PUSH2 0x1307 JUMP JUMPDEST SWAP3 POP DUP3 PUSH2 0x19AB JUMPI PUSH2 0x19AA PUSH2 0x158A JUMP JUMPDEST JUMPDEST DUP3 DUP3 DIV SWAP1 POP SWAP3 SWAP2 POP POP JUMP JUMPDEST PUSH1 0x0 DUP2 SWAP1 POP SWAP3 SWAP2 POP POP JUMP JUMPDEST PUSH32 0x416363657373436F6E74726F6C3A206163636F756E7420000000000000000000 PUSH1 0x0 DUP3 ADD MSTORE POP JUMP JUMPDEST PUSH1 0x0 PUSH2 0x19F7 PUSH1 0x17 DUP4 PUSH2 0x19B6 JUMP JUMPDEST SWAP2 POP PUSH2 0x1A02 DUP3 PUSH2 0x19C1 JUMP JUMPDEST PUSH1 0x17 DUP3 ADD SWAP1 POP SWAP2 SWAP1 POP JUMP JUMPDEST PUSH1 0x0 DUP2 MLOAD SWAP1 POP SWAP2 SWAP1 POP JUMP JUMPDEST PUSH1 0x0 JUMPDEST DUP4 DUP2 LT ISZERO PUSH2 0x1A36 JUMPI DUP1 DUP3 ADD MLOAD DUP2 DUP5 ADD MSTORE PUSH1 0x20 DUP2 ADD SWAP1 POP PUSH2 0x1A1B JUMP JUMPDEST PUSH1 0x0 DUP5 DUP5 ADD MSTORE POP POP POP POP JUMP JUMPDEST PUSH1 0x0 PUSH2 0x1A4D DUP3 PUSH2 0x1A0D JUMP JUMPDEST PUSH2 0x1A57 DUP2 DUP6 PUSH2 0x19B6 JUMP JUMPDEST SWAP4 POP PUSH2 0x1A67 DUP2 DUP6 PUSH1 0x20 DUP7 ADD PUSH2 0x1A18 JUMP JUMPDEST DUP1 DUP5 ADD SWAP2 POP POP SWAP3 SWAP2 POP POP JUMP JUMPDEST PUSH32 0x206973206D697373696E6720726F6C6520000000000000000000000000000000 PUSH1 0x0 DUP3 ADD MSTORE POP JUMP JUMPDEST PUSH1 0x0 PUSH2 0x1AA9 PUSH1 0x11 DUP4 PUSH2 0x19B6 JUMP JUMPDEST SWAP2 POP PUSH2 0x1AB4 DUP3 PUSH2 0x1A73 JUMP JUMPDEST PUSH1 0x11 DUP3 ADD SWAP1 POP SWAP2 SWAP1 POP JUMP JUMPDEST PUSH1 0x0 PUSH2 0x1ACA DUP3 PUSH2 0x19EA JUMP JUMPDEST SWAP2 POP PUSH2 0x1AD6 DUP3 DUP6 PUSH2 0x1A42 JUMP JUMPDEST SWAP2 POP PUSH2 0x1AE1 DUP3 PUSH2 0x1A9C JUMP JUMPDEST SWAP2 POP PUSH2 0x1AED DUP3 DUP5 PUSH2 0x1A42 JUMP JUMPDEST SWAP2 POP DUP2 SWAP1 POP SWAP4 SWAP3 POP POP POP JUMP JUMPDEST PUSH1 0x0 PUSH1 0x1F NOT PUSH1 0x1F DUP4 ADD AND SWAP1 POP SWAP2 SWAP1 POP JUMP JUMPDEST PUSH1 0x0 PUSH2 0x1B15 DUP3 PUSH2 0x1A0D JUMP JUMPDEST PUSH2 0x1B1F DUP2 DUP6 PUSH2 0x1613 JUMP JUMPDEST SWAP4 POP PUSH2 0x1B2F DUP2 DUP6 PUSH1 0x20 DUP7 ADD PUSH2 0x1A18 JUMP JUMPDEST PUSH2 0x1B38 DUP2 PUSH2 0x1AF9 JUMP JUMPDEST DUP5 ADD SWAP2 POP POP SWAP3 SWAP2 POP POP JUMP JUMPDEST PUSH1 0x0 PUSH1 0x20 DUP3 ADD SWAP1 POP DUP2 DUP2 SUB PUSH1 0x0 DUP4 ADD MSTORE PUSH2 0x1B5D DUP2 DUP5 PUSH2 0x1B0A JUMP JUMPDEST SWAP1 POP SWAP3 SWAP2 POP POP JUMP JUMPDEST PUSH1 0x0 PUSH2 0x1B70 DUP3 PUSH2 0x1307 JUMP JUMPDEST SWAP2 POP PUSH2 0x1B7B DUP4 PUSH2 0x1307 JUMP JUMPDEST SWAP3 POP DUP3 DUP3 MUL PUSH2 0x1B89 DUP2 PUSH2 0x1307 JUMP JUMPDEST SWAP2 POP DUP3 DUP3 DIV DUP5 EQ DUP4 ISZERO OR PUSH2 0x1BA0 JUMPI PUSH2 0x1B9F PUSH2 0x146D JUMP JUMPDEST JUMPDEST POP SWAP3 SWAP2 POP POP JUMP JUMPDEST PUSH32 0x4E487B7100000000000000000000000000000000000000000000000000000000 PUSH1 0x0 MSTORE PUSH1 0x41 PUSH1 0x4 MSTORE PUSH1 0x24 PUSH1 0x0 REVERT JUMPDEST PUSH32 0x537472696E67733A20686578206C656E67746820696E73756666696369656E74 PUSH1 0x0 DUP3 ADD MSTORE POP JUMP JUMPDEST PUSH1 0x0 PUSH2 0x1C0C PUSH1 0x20 DUP4 PUSH2 0x1613 JUMP JUMPDEST SWAP2 POP PUSH2 0x1C17 DUP3 PUSH2 0x1BD6 JUMP JUMPDEST PUSH1 0x20 DUP3 ADD SWAP1 POP SWAP2 SWAP1 POP JUMP JUMPDEST PUSH1 0x0 PUSH1 0x20 DUP3 ADD SWAP1 POP DUP2 DUP2 SUB PUSH1 0x0 DUP4 ADD MSTORE PUSH2 0x1C3B DUP2 PUSH2 0x1BFF JUMP JUMPDEST SWAP1 POP SWAP2 SWAP1 POP JUMP INVALID LOG2 PUSH5 0x6970667358 0x22 SLT KECCAK256 0xD3 0x49 SWAP10 0xEA 0xC3 0xB8 CALL OR 0xE6 CALLCODE PUSH19 0x9C29DD0414E0BFFE228754FC9EC93388D5FCF6 0xC2 0xCB PUSH5 0x736F6C6343 STOP ADDMOD SLT STOP CALLER "
		},
		"gasEstimates": {
			"creation": {
				"codeDepositCost": "1457600",
				"executionCost": "infinite",
				"totalCost": "infinite"
			},
			"external": {
				"DEFAULT_ADMIN_ROLE()": "357",
				"addOracle(address)": "infinite",
				"getLatestEthPrice()": "infinite",
				"getRoleAdmin(bytes32)": "infinite",
				"grantRole(bytes32,address)": "infinite",
				"hasRole(bytes32,address)": "3140",
				"removeOracle(address)": "infinite",
				"renounceRole(bytes32,address)": "infinite",
				"requestIdToResponse(uint256,uint256)": "infinite",
				"revokeRole(bytes32,address)": "infinite",
				"setLatestEthPrice(uint256,address,uint256)": "infinite",
				"supportsInterface(bytes4)": "728"
			}
		},
		"methodIdentifiers": {
			"DEFAULT_ADMIN_ROLE()": "a217fddf",
			"addOracle(address)": "df5dd1a5",
			"getLatestEthPrice()": "30c0b9ec",
			"getRoleAdmin(bytes32)": "248a9ca3",
			"grantRole(bytes32,address)": "2f2ff15d",
			"hasRole(bytes32,address)": "91d14854",
			"removeOracle(address)": "fdc85fc4",
			"renounceRole(bytes32,address)": "36568abe",
			"requestIdToResponse(uint256,uint256)": "8bbc085a",
			"revokeRole(bytes32,address)": "d547741f",
			"setLatestEthPrice(uint256,address,uint256)": "cf642f1f",
			"supportsInterface(bytes4)": "01ffc9a7"
		}
	},
	"abi": [
		{
			"inputs": [
				{
					"internalType": "address",
					"name": "_owner",
					"type": "address"
				}
			],
			"stateMutability": "nonpayable",
			"type": "constructor"
		},
		{
			"anonymous": false,
			"inputs": [
				{
					"indexed": false,
					"internalType": "address",
					"name": "oracleAddress",
					"type": "address"
				}
			],
			"name": "AddOracleEvent",
			"type": "event"
		},
		{
			"anonymous": false,
			"inputs": [
				{
					"indexed": false,
					"internalType": "address",
					"name": "callerAddress",
					"type": "address"
				},
				{
					"indexed": false,
					"internalType": "uint256",
					"name": "id",
					"type": "uint256"
				}
			],
			"name": "GetLatestEthPriceEvent",
			"type": "event"
		},
		{
			"anonymous": false,
			"inputs": [
				{
					"indexed": false,
					"internalType": "address",
					"name": "oracleAddress",
					"type": "address"
				}
			],
			"name": "RemoveOracleEvent",
			"type": "event"
		},
		{
			"anonymous": false,
			"inputs": [
				{
					"indexed": true,
					"internalType": "bytes32",
					"name": "role",
					"type": "bytes32"
				},
				{
					"indexed": true,
					"internalType": "bytes32",
					"name": "previousAdminRole",
					"type": "bytes32"
				},
				{
					"indexed": true,
					"internalType": "bytes32",
					"name": "newAdminRole",
					"type": "bytes32"
				}
			],
			"name": "RoleAdminChanged",
			"type": "event"
		},
		{
			"anonymous": false,
			"inputs": [
				{
					"indexed": true,
					"internalType": "bytes32",
					"name": "role",
					"type": "bytes32"
				},
				{
					"indexed": true,
					"internalType": "address",
					"name": "account",
					"type": "address"
				},
				{
					"indexed": true,
					"internalType": "address",
					"name": "sender",
					"type": "address"
				}
			],
			"name": "RoleGranted",
			"type": "event"
		},
		{
			"anonymous": false,
			"inputs": [
				{
					"indexed": true,
					"internalType": "bytes32",
					"name": "role",
					"type": "bytes32"
				},
				{
					"indexed": true,
					"internalType": "address",
					"name": "account",
					"type": "address"
				},
				{
					"indexed": true,
					"internalType": "address",
					"name": "sender",
					"type": "address"
				}
			],
			"name": "RoleRevoked",
			"type": "event"
		},
		{
			"anonymous": false,
			"inputs": [
				{
					"indexed": false,
					"internalType": "uint256",
					"name": "ethPrice",
					"type": "uint256"
				},
				{
					"indexed": false,
					"internalType": "address",
					"name": "callerAddress",
					"type": "address"
				}
			],
			"name": "SetLatestEthPriceEvent",
			"type": "event"
		},
		{
			"inputs": [],
			"name": "DEFAULT_ADMIN_ROLE",
			"outputs": [
				{
					"internalType": "bytes32",
					"name": "",
					"type": "bytes32"
				}
			],
			"stateMutability": "view",
			"type": "function"
		},
		{
			"inputs": [
				{
					"internalType": "address",
					"name": "_oracle",
					"type": "address"
				}
			],
			"name": "addOracle",
			"outputs": [],
			"stateMutability": "nonpayable",
			"type": "function"
		},
		{
			"inputs": [],
			"name": "getLatestEthPrice",
			"outputs": [
				{
					"internalType": "uint256",
					"name": "",
					"type": "uint256"
				}
			],
			"stateMutability": "nonpayable",
			"type": "function"
		},
		{
			"inputs": [
				{
					"internalType": "bytes32",
					"name": "role",
					"type": "bytes32"
				}
			],
			"name": "getRoleAdmin",
			"outputs": [
				{
					"internalType": "bytes32",
					"name": "",
					"type": "bytes32"
				}
			],
			"stateMutability": "view",
			"type": "function"
		},
		{
			"inputs": [
				{
					"internalType": "bytes32",
					"name": "role",
					"type": "bytes32"
				},
				{
					"internalType": "address",
					"name": "account",
					"type": "address"
				}
			],
			"name": "grantRole",
			"outputs": [],
			"stateMutability": "nonpayable",
			"type": "function"
		},
		{
			"inputs": [
				{
					"internalType": "bytes32",
					"name": "role",
					"type": "bytes32"
				},
				{
					"internalType": "address",
					"name": "account",
					"type": "address"
				}
			],
			"name": "hasRole",
			"outputs": [
				{
					"internalType": "bool",
					"name": "",
					"type": "bool"
				}
			],
			"stateMutability": "view",
			"type": "function"
		},
		{
			"inputs": [
				{
					"internalType": "address",
					"name": "_oracle",
					"type": "address"
				}
			],
			"name": "removeOracle",
			"outputs": [],
			"stateMutability": "nonpayable",
			"type": "function"
		},
		{
			"inputs": [
				{
					"internalType": "bytes32",
					"name": "role",
					"type": "bytes32"
				},
				{
					"internalType": "address",
					"name": "account",
					"type": "address"
				}
			],
			"name": "renounceRole",
			"outputs": [],
			"stateMutability": "nonpayable",
			"type": "function"
		},
		{
			"inputs": [
				{
					"internalType": "uint256",
					"name": "",
					"type": "uint256"
				},
				{
					"internalType": "uint256",
					"name": "",
					"type": "uint256"
				}
			],
			"name": "requestIdToResponse",
			"outputs": [
				{
					"internalType": "address",
					"name": "oracleAddress",
					"type": "address"
				},
				{
					"internalType": "address",
					"name": "callerAddress",
					"type": "address"
				},
				{
					"internalType": "uint256",
					"name": "ethPrice",
					"type": "uint256"
				}
			],
			"stateMutability": "view",
			"type": "function"
		},
		{
			"inputs": [
				{
					"internalType": "bytes32",
					"name": "role",
					"type": "bytes32"
				},
				{
					"internalType": "address",
					"name": "account",
					"type": "address"
				}
			],
			"name": "revokeRole",
			"outputs": [],
			"stateMutability": "nonpayable",
			"type": "function"
		},
		{
			"inputs": [
				{
					"internalType": "uint256",
					"name": "_ethPrice",
					"type": "uint256"
				},
				{
					"internalType": "address",
					"name": "_callerAddress",
					"type": "address"
				},
				{
					"internalType": "uint256",
					"name": "_id",
					"type": "uint256"
				}
			],
			"name": "setLatestEthPrice",
			"outputs": [],
			"stateMutability": "nonpayable",
			"type": "function"
		},
		{
			"inputs": [
				{
					"internalType": "bytes4",
					"name": "interfaceId",
					"type": "bytes4"
				}
			],
			"name": "supportsInterface",
			"outputs": [
				{
					"internalType": "bool",
					"name": "",
					"type": "bool"
				}
			],
			"stateMutability": "view",
			"type": "function"
		}
	]
}