{
	"data": {
		"bytecode": {
			"linkReferences": {},
			"object": "608060405234801561001057600080fd5b5060006100216100c460201b60201c565b9050806000806101000a81548173ffffffffffffffffffffffffffffffffffffffff021916908373ffffffffffffffffffffffffffffffffffffffff1602179055508073ffffffffffffffffffffffffffffffffffffffff16600073ffffffffffffffffffffffffffffffffffffffff167f8be0079c531659141344cd1fd0a4f28419497f9722a3daafe3b4186f6b6457e060405160405180910390a3506100cc565b600033905090565b6114c9806100db6000396000f3fe60806040526004361061007f5760003560e01c8063cab34c081161004e578063cab34c081461010d578063cbec489614610138578063e0ca0f3014610161578063f2fde38b1461018a57610086565b80633fd6a2e11461008b57806341c0e1b5146100b4578063715018a6146100cb5780638da5cb5b146100e257610086565b3661008657005b600080fd5b34801561009757600080fd5b506100b260048036038101906100ad9190610d7a565b6101b3565b005b3480156100c057600080fd5b506100c961028c565b005b3480156100d757600080fd5b506100e061033a565b005b3480156100ee57600080fd5b506100f761048d565b6040516101049190610db6565b60405180910390f35b34801561011957600080fd5b506101226104b6565b60405161012f9190610dea565b60405180910390f35b34801561014457600080fd5b5061015f600480360381019061015a9190610e6a565b6104c2565b005b34801561016d57600080fd5b5061018860048036038101906101839190610eed565b61093d565b005b34801561019657600080fd5b506101b160048036038101906101ac9190610d7a565b610b2c565b005b6101bb610ced565b73ffffffffffffffffffffffffffffffffffffffff1660008054906101000a900473ffffffffffffffffffffffffffffffffffffffff1673ffffffffffffffffffffffffffffffffffffffff1614610248576040517f08c379a000000000000000000000000000000000000000000000000000000000815260040161023f90610f77565b60405180910390fd5b80600160006101000a81548173ffffffffffffffffffffffffffffffffffffffff021916908373ffffffffffffffffffffffffffffffffffffffff16021790555050565b610294610ced565b73ffffffffffffffffffffffffffffffffffffffff1660008054906101000a900473ffffffffffffffffffffffffffffffffffffffff1673ffffffffffffffffffffffffffffffffffffffff1614610321576040517f08c379a000000000000000000000000000000000000000000000000000000000815260040161031890610f77565b60405180910390fd5b3373ffffffffffffffffffffffffffffffffffffffff16ff5b610342610ced565b73ffffffffffffffffffffffffffffffffffffffff1660008054906101000a900473ffffffffffffffffffffffffffffffffffffffff1673ffffffffffffffffffffffffffffffffffffffff16146103cf576040517f08c379a00000000000000000000000000000000000000000000000000000000081526004016103c690610f77565b60405180910390fd5b600073ffffffffffffffffffffffffffffffffffffffff1660008054906101000a900473ffffffffffffffffffffffffffffffffffffffff1673ffffffffffffffffffffffffffffffffffffffff167f8be0079c531659141344cd1fd0a4f28419497f9722a3daafe3b4186f6b6457e060405160405180910390a360008060006101000a81548173ffffffffffffffffffffffffffffffffffffffff021916908373ffffffffffffffffffffffffffffffffffffffff160217905550565b60008060009054906101000a900473ffffffffffffffffffffffffffffffffffffffff16905090565b6703782dace9d9000081565b600080600084848101906104d691906110e2565b9250925092506000600160009054906101000a900473ffffffffffffffffffffffffffffffffffffffff1673ffffffffffffffffffffffffffffffffffffffff166040516024016040516020818303038152906040527f9ebb9b7c000000000000000000000000000000000000000000000000000000007bffffffffffffffffffffffffffffffffffffffffffffffffffffffff19166020820180517bffffffffffffffffffffffffffffffffffffffffffffffffffffffff83818316178352505050506040516105a791906111a6565b6000604051808303816000865af19150503d80600081146105e4576040519150601f19603f3d011682016040523d82523d6000602084013e6105e9565b606091505b5091505060008180602001905181019061060391906111d2565b90503373ffffffffffffffffffffffffffffffffffffffff168573ffffffffffffffffffffffffffffffffffffffff161461063d57600080fd5b82811461064957600080fd5b6703782dace9d900008460200151111561066257600080fd5b6000600160009054906101000a900473ffffffffffffffffffffffffffffffffffffffff1673ffffffffffffffffffffffffffffffffffffffff166040516024016040516020818303038152906040527fa248a1b2000000000000000000000000000000000000000000000000000000007bffffffffffffffffffffffffffffffffffffffffffffffffffffffff19166020820180517bffffffffffffffffffffffffffffffffffffffffffffffffffffffff838183161783525050505060405161072d91906111a6565b6000604051808303816000865af19150503d806000811461076a576040519150601f19603f3d011682016040523d82523d6000602084013e61076f565b606091505b509150508080602001905181019061078791906112a5565b905060006107aa8773ffffffffffffffffffffffffffffffffffffffff16610cf5565b156108b4578673ffffffffffffffffffffffffffffffffffffffff16826040516024016107d79190611338565b6040516020818303038152906040527f81a909f2000000000000000000000000000000000000000000000000000000007bffffffffffffffffffffffffffffffffffffffffffffffffffffffff19166020820180517bffffffffffffffffffffffffffffffffffffffffffffffffffffffff838183161783525050505060405161086191906111a6565b6000604051808303816000865af19150503d806000811461089e576040519150601f19603f3d011682016040523d82523d6000602084013e6108a3565b606091505b505080915050806108b357600080fd5b5b856000015173ffffffffffffffffffffffffffffffffffffffff1686602001516040516108e090611380565b60006040518083038185875af1925050503d806000811461091d576040519150601f19603f3d011682016040523d82523d6000602084013e610922565b606091505b5050809150508061093257600080fd5b505050505050505050565b6000600160009054906101000a900473ffffffffffffffffffffffffffffffffffffffff1673ffffffffffffffffffffffffffffffffffffffff166040516024016040516020818303038152906040527f1fc6cb95000000000000000000000000000000000000000000000000000000007bffffffffffffffffffffffffffffffffffffffffffffffffffffffff19166020820180517bffffffffffffffffffffffffffffffffffffffffffffffffffffffff8381831617835250505050604051610a0891906111a6565b6000604051808303816000865af19150503d8060008114610a45576040519150601f19603f3d011682016040523d82523d6000602084013e610a4a565b606091505b50915050600081806020019051810190610a6491906111d2565b9050808314610aa8576040517f08c379a0000000000000000000000000000000000000000000000000000000008152600401610a9f906113e1565b60405180910390fd5b60003373ffffffffffffffffffffffffffffffffffffffff166703782dace9d90000604051610ad690611380565b60006040518083038185875af1925050503d8060008114610b13576040519150601f19603f3d011682016040523d82523d6000602084013e610b18565b606091505b5050905080610b2657600080fd5b50505050565b610b34610ced565b73ffffffffffffffffffffffffffffffffffffffff1660008054906101000a900473ffffffffffffffffffffffffffffffffffffffff1673ffffffffffffffffffffffffffffffffffffffff1614610bc1576040517f08c379a0000000000000000000000000000000000000000000000000000000008152600401610bb890610f77565b60405180910390fd5b600073ffffffffffffffffffffffffffffffffffffffff168173ffffffffffffffffffffffffffffffffffffffff1603610c30576040517f08c379a0000000000000000000000000000000000000000000000000000000008152600401610c2790611473565b60405180910390fd5b8073ffffffffffffffffffffffffffffffffffffffff1660008054906101000a900473ffffffffffffffffffffffffffffffffffffffff1673ffffffffffffffffffffffffffffffffffffffff167f8be0079c531659141344cd1fd0a4f28419497f9722a3daafe3b4186f6b6457e060405160405180910390a3806000806101000a81548173ffffffffffffffffffffffffffffffffffffffff021916908373ffffffffffffffffffffffffffffffffffffffff16021790555050565b600033905090565b600080823b905060008111915050919050565b6000604051905090565b600080fd5b600080fd5b600073ffffffffffffffffffffffffffffffffffffffff82169050919050565b6000610d4782610d1c565b9050919050565b610d5781610d3c565b8114610d6257600080fd5b50565b600081359050610d7481610d4e565b92915050565b600060208284031215610d9057610d8f610d12565b5b6000610d9e84828501610d65565b91505092915050565b610db081610d3c565b82525050565b6000602082019050610dcb6000830184610da7565b92915050565b6000819050919050565b610de481610dd1565b82525050565b6000602082019050610dff6000830184610ddb565b92915050565b600080fd5b600080fd5b600080fd5b60008083601f840112610e2a57610e29610e05565b5b8235905067ffffffffffffffff811115610e4757610e46610e0a565b5b602083019150836001820283011115610e6357610e62610e0f565b5b9250929050565b60008060208385031215610e8157610e80610d12565b5b600083013567ffffffffffffffff811115610e9f57610e9e610d17565b5b610eab85828601610e14565b92509250509250929050565b6000819050919050565b610eca81610eb7565b8114610ed557600080fd5b50565b600081359050610ee781610ec1565b92915050565b600060208284031215610f0357610f02610d12565b5b6000610f1184828501610ed8565b91505092915050565b600082825260208201905092915050565b7f4f776e61626c653a2063616c6c6572206973206e6f7420746865206f776e6572600082015250565b6000610f61602083610f1a565b9150610f6c82610f2b565b602082019050919050565b60006020820190508181036000830152610f9081610f54565b9050919050565b6000610fa282610d1c565b9050919050565b610fb281610f97565b8114610fbd57600080fd5b50565b600081359050610fcf81610fa9565b92915050565b600080fd5b6000601f19601f8301169050919050565b7f4e487b7100000000000000000000000000000000000000000000000000000000600052604160045260246000fd5b61102382610fda565b810181811067ffffffffffffffff8211171561104257611041610feb565b5b80604052505050565b6000611055610d08565b9050611061828261101a565b919050565b61106f81610dd1565b811461107a57600080fd5b50565b60008135905061108c81611066565b92915050565b6000604082840312156110a8576110a7610fd5565b5b6110b2604061104b565b905060006110c284828501610d65565b60008301525060206110d68482850161107d565b60208301525092915050565b6000806000608084860312156110fb576110fa610d12565b5b600061110986828701610fc0565b935050602061111a86828701611092565b925050606061112b86828701610ed8565b9150509250925092565b600081519050919050565b600081905092915050565b60005b8381101561116957808201518184015260208101905061114e565b60008484015250505050565b600061118082611135565b61118a8185611140565b935061119a81856020860161114b565b80840191505092915050565b60006111b28284611175565b915081905092915050565b6000815190506111cc81610ec1565b92915050565b6000602082840312156111e8576111e7610d12565b5b60006111f6848285016111bd565b91505092915050565b600080fd5b600067ffffffffffffffff82111561121f5761121e610feb565b5b61122882610fda565b9050602081019050919050565b600061124861124384611204565b61104b565b905082815260208101848484011115611264576112636111ff565b5b61126f84828561114b565b509392505050565b600082601f83011261128c5761128b610e05565b5b815161129c848260208601611235565b91505092915050565b6000602082840312156112bb576112ba610d12565b5b600082015167ffffffffffffffff8111156112d9576112d8610d17565b5b6112e584828501611277565b91505092915050565b600082825260208201905092915050565b600061130a82611135565b61131481856112ee565b935061132481856020860161114b565b61132d81610fda565b840191505092915050565b6000602082019050818103600083015261135281846112ff565b905092915050565b50565b600061136a600083611140565b91506113758261135a565b600082019050919050565b600061138b8261135d565b9150819050919050565b7f77726f6e67206465636f64652070617373776f72640000000000000000000000600082015250565b60006113cb601583610f1a565b91506113d682611395565b602082019050919050565b600060208201905081810360008301526113fa816113be565b9050919050565b7f4f776e61626c653a206e6577206f776e657220697320746865207a65726f206160008201527f6464726573730000000000000000000000000000000000000000000000000000602082015250565b600061145d602683610f1a565b915061146882611401565b604082019050919050565b6000602082019050818103600083015261148c81611450565b905091905056fea2646970667358221220fdf04d2db90a75f88c454757006025491adad18ea7ea52e9967d7fc306f8926064736f6c63430008110033",
			"opcodes": "PUSH1 0x80 PUSH1 0x40 MSTORE CALLVALUE DUP1 ISZERO PUSH2 0x10 JUMPI PUSH1 0x0 DUP1 REVERT JUMPDEST POP PUSH1 0x0 PUSH2 0x21 PUSH2 0xC4 PUSH1 0x20 SHL PUSH1 0x20 SHR JUMP JUMPDEST SWAP1 POP DUP1 PUSH1 0x0 DUP1 PUSH2 0x100 EXP DUP2 SLOAD DUP2 PUSH20 0xFFFFFFFFFFFFFFFFFFFFFFFFFFFFFFFFFFFFFFFF MUL NOT AND SWAP1 DUP4 PUSH20 0xFFFFFFFFFFFFFFFFFFFFFFFFFFFFFFFFFFFFFFFF AND MUL OR SWAP1 SSTORE POP DUP1 PUSH20 0xFFFFFFFFFFFFFFFFFFFFFFFFFFFFFFFFFFFFFFFF AND PUSH1 0x0 PUSH20 0xFFFFFFFFFFFFFFFFFFFFFFFFFFFFFFFFFFFFFFFF AND PUSH32 0x8BE0079C531659141344CD1FD0A4F28419497F9722A3DAAFE3B4186F6B6457E0 PUSH1 0x40 MLOAD PUSH1 0x40 MLOAD DUP1 SWAP2 SUB SWAP1 LOG3 POP PUSH2 0xCC JUMP JUMPDEST PUSH1 0x0 CALLER SWAP1 POP SWAP1 JUMP JUMPDEST PUSH2 0x14C9 DUP1 PUSH2 0xDB PUSH1 0x0 CODECOPY PUSH1 0x0 RETURN INVALID PUSH1 0x80 PUSH1 0x40 MSTORE PUSH1 0x4 CALLDATASIZE LT PUSH2 0x7F JUMPI PUSH1 0x0 CALLDATALOAD PUSH1 0xE0 SHR DUP1 PUSH4 0xCAB34C08 GT PUSH2 0x4E JUMPI DUP1 PUSH4 0xCAB34C08 EQ PUSH2 0x10D JUMPI DUP1 PUSH4 0xCBEC4896 EQ PUSH2 0x138 JUMPI DUP1 PUSH4 0xE0CA0F30 EQ PUSH2 0x161 JUMPI DUP1 PUSH4 0xF2FDE38B EQ PUSH2 0x18A JUMPI PUSH2 0x86 JUMP JUMPDEST DUP1 PUSH4 0x3FD6A2E1 EQ PUSH2 0x8B JUMPI DUP1 PUSH4 0x41C0E1B5 EQ PUSH2 0xB4 JUMPI DUP1 PUSH4 0x715018A6 EQ PUSH2 0xCB JUMPI DUP1 PUSH4 0x8DA5CB5B EQ PUSH2 0xE2 JUMPI PUSH2 0x86 JUMP JUMPDEST CALLDATASIZE PUSH2 0x86 JUMPI STOP JUMPDEST PUSH1 0x0 DUP1 REVERT JUMPDEST CALLVALUE DUP1 ISZERO PUSH2 0x97 JUMPI PUSH1 0x0 DUP1 REVERT JUMPDEST POP PUSH2 0xB2 PUSH1 0x4 DUP1 CALLDATASIZE SUB DUP2 ADD SWAP1 PUSH2 0xAD SWAP2 SWAP1 PUSH2 0xD7A JUMP JUMPDEST PUSH2 0x1B3 JUMP JUMPDEST STOP JUMPDEST CALLVALUE DUP1 ISZERO PUSH2 0xC0 JUMPI PUSH1 0x0 DUP1 REVERT JUMPDEST POP PUSH2 0xC9 PUSH2 0x28C JUMP JUMPDEST STOP JUMPDEST CALLVALUE DUP1 ISZERO PUSH2 0xD7 JUMPI PUSH1 0x0 DUP1 REVERT JUMPDEST POP PUSH2 0xE0 PUSH2 0x33A JUMP JUMPDEST STOP JUMPDEST CALLVALUE DUP1 ISZERO PUSH2 0xEE JUMPI PUSH1 0x0 DUP1 REVERT JUMPDEST POP PUSH2 0xF7 PUSH2 0x48D JUMP JUMPDEST PUSH1 0x40 MLOAD PUSH2 0x104 SWAP2 SWAP1 PUSH2 0xDB6 JUMP JUMPDEST PUSH1 0x40 MLOAD DUP1 SWAP2 SUB SWAP1 RETURN JUMPDEST CALLVALUE DUP1 ISZERO PUSH2 0x119 JUMPI PUSH1 0x0 DUP1 REVERT JUMPDEST POP PUSH2 0x122 PUSH2 0x4B6 JUMP JUMPDEST PUSH1 0x40 MLOAD PUSH2 0x12F SWAP2 SWAP1 PUSH2 0xDEA JUMP JUMPDEST PUSH1 0x40 MLOAD DUP1 SWAP2 SUB SWAP1 RETURN JUMPDEST CALLVALUE DUP1 ISZERO PUSH2 0x144 JUMPI PUSH1 0x0 DUP1 REVERT JUMPDEST POP PUSH2 0x15F PUSH1 0x4 DUP1 CALLDATASIZE SUB DUP2 ADD SWAP1 PUSH2 0x15A SWAP2 SWAP1 PUSH2 0xE6A JUMP JUMPDEST PUSH2 0x4C2 JUMP JUMPDEST STOP JUMPDEST CALLVALUE DUP1 ISZERO PUSH2 0x16D JUMPI PUSH1 0x0 DUP1 REVERT JUMPDEST POP PUSH2 0x188 PUSH1 0x4 DUP1 CALLDATASIZE SUB DUP2 ADD SWAP1 PUSH2 0x183 SWAP2 SWAP1 PUSH2 0xEED JUMP JUMPDEST PUSH2 0x93D JUMP JUMPDEST STOP JUMPDEST CALLVALUE DUP1 ISZERO PUSH2 0x196 JUMPI PUSH1 0x0 DUP1 REVERT JUMPDEST POP PUSH2 0x1B1 PUSH1 0x4 DUP1 CALLDATASIZE SUB DUP2 ADD SWAP1 PUSH2 0x1AC SWAP2 SWAP1 PUSH2 0xD7A JUMP JUMPDEST PUSH2 0xB2C JUMP JUMPDEST STOP JUMPDEST PUSH2 0x1BB PUSH2 0xCED JUMP JUMPDEST PUSH20 0xFFFFFFFFFFFFFFFFFFFFFFFFFFFFFFFFFFFFFFFF AND PUSH1 0x0 DUP1 SLOAD SWAP1 PUSH2 0x100 EXP SWAP1 DIV PUSH20 0xFFFFFFFFFFFFFFFFFFFFFFFFFFFFFFFFFFFFFFFF AND PUSH20 0xFFFFFFFFFFFFFFFFFFFFFFFFFFFFFFFFFFFFFFFF AND EQ PUSH2 0x248 JUMPI PUSH1 0x40 MLOAD PUSH32 0x8C379A000000000000000000000000000000000000000000000000000000000 DUP2 MSTORE PUSH1 0x4 ADD PUSH2 0x23F SWAP1 PUSH2 0xF77 JUMP JUMPDEST PUSH1 0x40 MLOAD DUP1 SWAP2 SUB SWAP1 REVERT JUMPDEST DUP1 PUSH1 0x1 PUSH1 0x0 PUSH2 0x100 EXP DUP2 SLOAD DUP2 PUSH20 0xFFFFFFFFFFFFFFFFFFFFFFFFFFFFFFFFFFFFFFFF MUL NOT AND SWAP1 DUP4 PUSH20 0xFFFFFFFFFFFFFFFFFFFFFFFFFFFFFFFFFFFFFFFF AND MUL OR SWAP1 SSTORE POP POP JUMP JUMPDEST PUSH2 0x294 PUSH2 0xCED JUMP JUMPDEST PUSH20 0xFFFFFFFFFFFFFFFFFFFFFFFFFFFFFFFFFFFFFFFF AND PUSH1 0x0 DUP1 SLOAD SWAP1 PUSH2 0x100 EXP SWAP1 DIV PUSH20 0xFFFFFFFFFFFFFFFFFFFFFFFFFFFFFFFFFFFFFFFF AND PUSH20 0xFFFFFFFFFFFFFFFFFFFFFFFFFFFFFFFFFFFFFFFF AND EQ PUSH2 0x321 JUMPI PUSH1 0x40 MLOAD PUSH32 0x8C379A000000000000000000000000000000000000000000000000000000000 DUP2 MSTORE PUSH1 0x4 ADD PUSH2 0x318 SWAP1 PUSH2 0xF77 JUMP JUMPDEST PUSH1 0x40 MLOAD DUP1 SWAP2 SUB SWAP1 REVERT JUMPDEST CALLER PUSH20 0xFFFFFFFFFFFFFFFFFFFFFFFFFFFFFFFFFFFFFFFF AND SELFDESTRUCT JUMPDEST PUSH2 0x342 PUSH2 0xCED JUMP JUMPDEST PUSH20 0xFFFFFFFFFFFFFFFFFFFFFFFFFFFFFFFFFFFFFFFF AND PUSH1 0x0 DUP1 SLOAD SWAP1 PUSH2 0x100 EXP SWAP1 DIV PUSH20 0xFFFFFFFFFFFFFFFFFFFFFFFFFFFFFFFFFFFFFFFF AND PUSH20 0xFFFFFFFFFFFFFFFFFFFFFFFFFFFFFFFFFFFFFFFF AND EQ PUSH2 0x3CF JUMPI PUSH1 0x40 MLOAD PUSH32 0x8C379A000000000000000000000000000000000000000000000000000000000 DUP2 MSTORE PUSH1 0x4 ADD PUSH2 0x3C6 SWAP1 PUSH2 0xF77 JUMP JUMPDEST PUSH1 0x40 MLOAD DUP1 SWAP2 SUB SWAP1 REVERT JUMPDEST PUSH1 0x0 PUSH20 0xFFFFFFFFFFFFFFFFFFFFFFFFFFFFFFFFFFFFFFFF AND PUSH1 0x0 DUP1 SLOAD SWAP1 PUSH2 0x100 EXP SWAP1 DIV PUSH20 0xFFFFFFFFFFFFFFFFFFFFFFFFFFFFFFFFFFFFFFFF AND PUSH20 0xFFFFFFFFFFFFFFFFFFFFFFFFFFFFFFFFFFFFFFFF AND PUSH32 0x8BE0079C531659141344CD1FD0A4F28419497F9722A3DAAFE3B4186F6B6457E0 PUSH1 0x40 MLOAD PUSH1 0x40 MLOAD DUP1 SWAP2 SUB SWAP1 LOG3 PUSH1 0x0 DUP1 PUSH1 0x0 PUSH2 0x100 EXP DUP2 SLOAD DUP2 PUSH20 0xFFFFFFFFFFFFFFFFFFFFFFFFFFFFFFFFFFFFFFFF MUL NOT AND SWAP1 DUP4 PUSH20 0xFFFFFFFFFFFFFFFFFFFFFFFFFFFFFFFFFFFFFFFF AND MUL OR SWAP1 SSTORE POP JUMP JUMPDEST PUSH1 0x0 DUP1 PUSH1 0x0 SWAP1 SLOAD SWAP1 PUSH2 0x100 EXP SWAP1 DIV PUSH20 0xFFFFFFFFFFFFFFFFFFFFFFFFFFFFFFFFFFFFFFFF AND SWAP1 POP SWAP1 JUMP JUMPDEST PUSH8 0x3782DACE9D90000 DUP2 JUMP JUMPDEST PUSH1 0x0 DUP1 PUSH1 0x0 DUP5 DUP5 DUP2 ADD SWAP1 PUSH2 0x4D6 SWAP2 SWAP1 PUSH2 0x10E2 JUMP JUMPDEST SWAP3 POP SWAP3 POP SWAP3 POP PUSH1 0x0 PUSH1 0x1 PUSH1 0x0 SWAP1 SLOAD SWAP1 PUSH2 0x100 EXP SWAP1 DIV PUSH20 0xFFFFFFFFFFFFFFFFFFFFFFFFFFFFFFFFFFFFFFFF AND PUSH20 0xFFFFFFFFFFFFFFFFFFFFFFFFFFFFFFFFFFFFFFFF AND PUSH1 0x40 MLOAD PUSH1 0x24 ADD PUSH1 0x40 MLOAD PUSH1 0x20 DUP2 DUP4 SUB SUB DUP2 MSTORE SWAP1 PUSH1 0x40 MSTORE PUSH32 0x9EBB9B7C00000000000000000000000000000000000000000000000000000000 PUSH28 0xFFFFFFFFFFFFFFFFFFFFFFFFFFFFFFFFFFFFFFFFFFFFFFFFFFFFFFFF NOT AND PUSH1 0x20 DUP3 ADD DUP1 MLOAD PUSH28 0xFFFFFFFFFFFFFFFFFFFFFFFFFFFFFFFFFFFFFFFFFFFFFFFFFFFFFFFF DUP4 DUP2 DUP4 AND OR DUP4 MSTORE POP POP POP POP PUSH1 0x40 MLOAD PUSH2 0x5A7 SWAP2 SWAP1 PUSH2 0x11A6 JUMP JUMPDEST PUSH1 0x0 PUSH1 0x40 MLOAD DUP1 DUP4 SUB DUP2 PUSH1 0x0 DUP7 GAS CALL SWAP2 POP POP RETURNDATASIZE DUP1 PUSH1 0x0 DUP2 EQ PUSH2 0x5E4 JUMPI PUSH1 0x40 MLOAD SWAP2 POP PUSH1 0x1F NOT PUSH1 0x3F RETURNDATASIZE ADD AND DUP3 ADD PUSH1 0x40 MSTORE RETURNDATASIZE DUP3 MSTORE RETURNDATASIZE PUSH1 0x0 PUSH1 0x20 DUP5 ADD RETURNDATACOPY PUSH2 0x5E9 JUMP JUMPDEST PUSH1 0x60 SWAP2 POP JUMPDEST POP SWAP2 POP POP PUSH1 0x0 DUP2 DUP1 PUSH1 0x20 ADD SWAP1 MLOAD DUP2 ADD SWAP1 PUSH2 0x603 SWAP2 SWAP1 PUSH2 0x11D2 JUMP JUMPDEST SWAP1 POP CALLER PUSH20 0xFFFFFFFFFFFFFFFFFFFFFFFFFFFFFFFFFFFFFFFF AND DUP6 PUSH20 0xFFFFFFFFFFFFFFFFFFFFFFFFFFFFFFFFFFFFFFFF AND EQ PUSH2 0x63D JUMPI PUSH1 0x0 DUP1 REVERT JUMPDEST DUP3 DUP2 EQ PUSH2 0x649 JUMPI PUSH1 0x0 DUP1 REVERT JUMPDEST PUSH8 0x3782DACE9D90000 DUP5 PUSH1 0x20 ADD MLOAD GT ISZERO PUSH2 0x662 JUMPI PUSH1 0x0 DUP1 REVERT JUMPDEST PUSH1 0x0 PUSH1 0x1 PUSH1 0x0 SWAP1 SLOAD SWAP1 PUSH2 0x100 EXP SWAP1 DIV PUSH20 0xFFFFFFFFFFFFFFFFFFFFFFFFFFFFFFFFFFFFFFFF AND PUSH20 0xFFFFFFFFFFFFFFFFFFFFFFFFFFFFFFFFFFFFFFFF AND PUSH1 0x40 MLOAD PUSH1 0x24 ADD PUSH1 0x40 MLOAD PUSH1 0x20 DUP2 DUP4 SUB SUB DUP2 MSTORE SWAP1 PUSH1 0x40 MSTORE PUSH32 0xA248A1B200000000000000000000000000000000000000000000000000000000 PUSH28 0xFFFFFFFFFFFFFFFFFFFFFFFFFFFFFFFFFFFFFFFFFFFFFFFFFFFFFFFF NOT AND PUSH1 0x20 DUP3 ADD DUP1 MLOAD PUSH28 0xFFFFFFFFFFFFFFFFFFFFFFFFFFFFFFFFFFFFFFFFFFFFFFFFFFFFFFFF DUP4 DUP2 DUP4 AND OR DUP4 MSTORE POP POP POP POP PUSH1 0x40 MLOAD PUSH2 0x72D SWAP2 SWAP1 PUSH2 0x11A6 JUMP JUMPDEST PUSH1 0x0 PUSH1 0x40 MLOAD DUP1 DUP4 SUB DUP2 PUSH1 0x0 DUP7 GAS CALL SWAP2 POP POP RETURNDATASIZE DUP1 PUSH1 0x0 DUP2 EQ PUSH2 0x76A JUMPI PUSH1 0x40 MLOAD SWAP2 POP PUSH1 0x1F NOT PUSH1 0x3F RETURNDATASIZE ADD AND DUP3 ADD PUSH1 0x40 MSTORE RETURNDATASIZE DUP3 MSTORE RETURNDATASIZE PUSH1 0x0 PUSH1 0x20 DUP5 ADD RETURNDATACOPY PUSH2 0x76F JUMP JUMPDEST PUSH1 0x60 SWAP2 POP JUMPDEST POP SWAP2 POP POP DUP1 DUP1 PUSH1 0x20 ADD SWAP1 MLOAD DUP2 ADD SWAP1 PUSH2 0x787 SWAP2 SWAP1 PUSH2 0x12A5 JUMP JUMPDEST SWAP1 POP PUSH1 0x0 PUSH2 0x7AA DUP8 PUSH20 0xFFFFFFFFFFFFFFFFFFFFFFFFFFFFFFFFFFFFFFFF AND PUSH2 0xCF5 JUMP JUMPDEST ISZERO PUSH2 0x8B4 JUMPI DUP7 PUSH20 0xFFFFFFFFFFFFFFFFFFFFFFFFFFFFFFFFFFFFFFFF AND DUP3 PUSH1 0x40 MLOAD PUSH1 0x24 ADD PUSH2 0x7D7 SWAP2 SWAP1 PUSH2 0x1338 JUMP JUMPDEST PUSH1 0x40 MLOAD PUSH1 0x20 DUP2 DUP4 SUB SUB DUP2 MSTORE SWAP1 PUSH1 0x40 MSTORE PUSH32 0x81A909F200000000000000000000000000000000000000000000000000000000 PUSH28 0xFFFFFFFFFFFFFFFFFFFFFFFFFFFFFFFFFFFFFFFFFFFFFFFFFFFFFFFF NOT AND PUSH1 0x20 DUP3 ADD DUP1 MLOAD PUSH28 0xFFFFFFFFFFFFFFFFFFFFFFFFFFFFFFFFFFFFFFFFFFFFFFFFFFFFFFFF DUP4 DUP2 DUP4 AND OR DUP4 MSTORE POP POP POP POP PUSH1 0x40 MLOAD PUSH2 0x861 SWAP2 SWAP1 PUSH2 0x11A6 JUMP JUMPDEST PUSH1 0x0 PUSH1 0x40 MLOAD DUP1 DUP4 SUB DUP2 PUSH1 0x0 DUP7 GAS CALL SWAP2 POP POP RETURNDATASIZE DUP1 PUSH1 0x0 DUP2 EQ PUSH2 0x89E JUMPI PUSH1 0x40 MLOAD SWAP2 POP PUSH1 0x1F NOT PUSH1 0x3F RETURNDATASIZE ADD AND DUP3 ADD PUSH1 0x40 MSTORE RETURNDATASIZE DUP3 MSTORE RETURNDATASIZE PUSH1 0x0 PUSH1 0x20 DUP5 ADD RETURNDATACOPY PUSH2 0x8A3 JUMP JUMPDEST PUSH1 0x60 SWAP2 POP JUMPDEST POP POP DUP1 SWAP2 POP POP DUP1 PUSH2 0x8B3 JUMPI PUSH1 0x0 DUP1 REVERT JUMPDEST JUMPDEST DUP6 PUSH1 0x0 ADD MLOAD PUSH20 0xFFFFFFFFFFFFFFFFFFFFFFFFFFFFFFFFFFFFFFFF AND DUP7 PUSH1 0x20 ADD MLOAD PUSH1 0x40 MLOAD PUSH2 0x8E0 SWAP1 PUSH2 0x1380 JUMP JUMPDEST PUSH1 0x0 PUSH1 0x40 MLOAD DUP1 DUP4 SUB DUP2 DUP6 DUP8 GAS CALL SWAP3 POP POP POP RETURNDATASIZE DUP1 PUSH1 0x0 DUP2 EQ PUSH2 0x91D JUMPI PUSH1 0x40 MLOAD SWAP2 POP PUSH1 0x1F NOT PUSH1 0x3F RETURNDATASIZE ADD AND DUP3 ADD PUSH1 0x40 MSTORE RETURNDATASIZE DUP3 MSTORE RETURNDATASIZE PUSH1 0x0 PUSH1 0x20 DUP5 ADD RETURNDATACOPY PUSH2 0x922 JUMP JUMPDEST PUSH1 0x60 SWAP2 POP JUMPDEST POP POP DUP1 SWAP2 POP POP DUP1 PUSH2 0x932 JUMPI PUSH1 0x0 DUP1 REVERT JUMPDEST POP POP POP POP POP POP POP POP POP JUMP JUMPDEST PUSH1 0x0 PUSH1 0x1 PUSH1 0x0 SWAP1 SLOAD SWAP1 PUSH2 0x100 EXP SWAP1 DIV PUSH20 0xFFFFFFFFFFFFFFFFFFFFFFFFFFFFFFFFFFFFFFFF AND PUSH20 0xFFFFFFFFFFFFFFFFFFFFFFFFFFFFFFFFFFFFFFFF AND PUSH1 0x40 MLOAD PUSH1 0x24 ADD PUSH1 0x40 MLOAD PUSH1 0x20 DUP2 DUP4 SUB SUB DUP2 MSTORE SWAP1 PUSH1 0x40 MSTORE PUSH32 0x1FC6CB9500000000000000000000000000000000000000000000000000000000 PUSH28 0xFFFFFFFFFFFFFFFFFFFFFFFFFFFFFFFFFFFFFFFFFFFFFFFFFFFFFFFF NOT AND PUSH1 0x20 DUP3 ADD DUP1 MLOAD PUSH28 0xFFFFFFFFFFFFFFFFFFFFFFFFFFFFFFFFFFFFFFFFFFFFFFFFFFFFFFFF DUP4 DUP2 DUP4 AND OR DUP4 MSTORE POP POP POP POP PUSH1 0x40 MLOAD PUSH2 0xA08 SWAP2 SWAP1 PUSH2 0x11A6 JUMP JUMPDEST PUSH1 0x0 PUSH1 0x40 MLOAD DUP1 DUP4 SUB DUP2 PUSH1 0x0 DUP7 GAS CALL SWAP2 POP POP RETURNDATASIZE DUP1 PUSH1 0x0 DUP2 EQ PUSH2 0xA45 JUMPI PUSH1 0x40 MLOAD SWAP2 POP PUSH1 0x1F NOT PUSH1 0x3F RETURNDATASIZE ADD AND DUP3 ADD PUSH1 0x40 MSTORE RETURNDATASIZE DUP3 MSTORE RETURNDATASIZE PUSH1 0x0 PUSH1 0x20 DUP5 ADD RETURNDATACOPY PUSH2 0xA4A JUMP JUMPDEST PUSH1 0x60 SWAP2 POP JUMPDEST POP SWAP2 POP POP PUSH1 0x0 DUP2 DUP1 PUSH1 0x20 ADD SWAP1 MLOAD DUP2 ADD SWAP1 PUSH2 0xA64 SWAP2 SWAP1 PUSH2 0x11D2 JUMP JUMPDEST SWAP1 POP DUP1 DUP4 EQ PUSH2 0xAA8 JUMPI PUSH1 0x40 MLOAD PUSH32 0x8C379A000000000000000000000000000000000000000000000000000000000 DUP2 MSTORE PUSH1 0x4 ADD PUSH2 0xA9F SWAP1 PUSH2 0x13E1 JUMP JUMPDEST PUSH1 0x40 MLOAD DUP1 SWAP2 SUB SWAP1 REVERT JUMPDEST PUSH1 0x0 CALLER PUSH20 0xFFFFFFFFFFFFFFFFFFFFFFFFFFFFFFFFFFFFFFFF AND PUSH8 0x3782DACE9D90000 PUSH1 0x40 MLOAD PUSH2 0xAD6 SWAP1 PUSH2 0x1380 JUMP JUMPDEST PUSH1 0x0 PUSH1 0x40 MLOAD DUP1 DUP4 SUB DUP2 DUP6 DUP8 GAS CALL SWAP3 POP POP POP RETURNDATASIZE DUP1 PUSH1 0x0 DUP2 EQ PUSH2 0xB13 JUMPI PUSH1 0x40 MLOAD SWAP2 POP PUSH1 0x1F NOT PUSH1 0x3F RETURNDATASIZE ADD AND DUP3 ADD PUSH1 0x40 MSTORE RETURNDATASIZE DUP3 MSTORE RETURNDATASIZE PUSH1 0x0 PUSH1 0x20 DUP5 ADD RETURNDATACOPY PUSH2 0xB18 JUMP JUMPDEST PUSH1 0x60 SWAP2 POP JUMPDEST POP POP SWAP1 POP DUP1 PUSH2 0xB26 JUMPI PUSH1 0x0 DUP1 REVERT JUMPDEST POP POP POP POP JUMP JUMPDEST PUSH2 0xB34 PUSH2 0xCED JUMP JUMPDEST PUSH20 0xFFFFFFFFFFFFFFFFFFFFFFFFFFFFFFFFFFFFFFFF AND PUSH1 0x0 DUP1 SLOAD SWAP1 PUSH2 0x100 EXP SWAP1 DIV PUSH20 0xFFFFFFFFFFFFFFFFFFFFFFFFFFFFFFFFFFFFFFFF AND PUSH20 0xFFFFFFFFFFFFFFFFFFFFFFFFFFFFFFFFFFFFFFFF AND EQ PUSH2 0xBC1 JUMPI PUSH1 0x40 MLOAD PUSH32 0x8C379A000000000000000000000000000000000000000000000000000000000 DUP2 MSTORE PUSH1 0x4 ADD PUSH2 0xBB8 SWAP1 PUSH2 0xF77 JUMP JUMPDEST PUSH1 0x40 MLOAD DUP1 SWAP2 SUB SWAP1 REVERT JUMPDEST PUSH1 0x0 PUSH20 0xFFFFFFFFFFFFFFFFFFFFFFFFFFFFFFFFFFFFFFFF AND DUP2 PUSH20 0xFFFFFFFFFFFFFFFFFFFFFFFFFFFFFFFFFFFFFFFF AND SUB PUSH2 0xC30 JUMPI PUSH1 0x40 MLOAD PUSH32 0x8C379A000000000000000000000000000000000000000000000000000000000 DUP2 MSTORE PUSH1 0x4 ADD PUSH2 0xC27 SWAP1 PUSH2 0x1473 JUMP JUMPDEST PUSH1 0x40 MLOAD DUP1 SWAP2 SUB SWAP1 REVERT JUMPDEST DUP1 PUSH20 0xFFFFFFFFFFFFFFFFFFFFFFFFFFFFFFFFFFFFFFFF AND PUSH1 0x0 DUP1 SLOAD SWAP1 PUSH2 0x100 EXP SWAP1 DIV PUSH20 0xFFFFFFFFFFFFFFFFFFFFFFFFFFFFFFFFFFFFFFFF AND PUSH20 0xFFFFFFFFFFFFFFFFFFFFFFFFFFFFFFFFFFFFFFFF AND PUSH32 0x8BE0079C531659141344CD1FD0A4F28419497F9722A3DAAFE3B4186F6B6457E0 PUSH1 0x40 MLOAD PUSH1 0x40 MLOAD DUP1 SWAP2 SUB SWAP1 LOG3 DUP1 PUSH1 0x0 DUP1 PUSH2 0x100 EXP DUP2 SLOAD DUP2 PUSH20 0xFFFFFFFFFFFFFFFFFFFFFFFFFFFFFFFFFFFFFFFF MUL NOT AND SWAP1 DUP4 PUSH20 0xFFFFFFFFFFFFFFFFFFFFFFFFFFFFFFFFFFFFFFFF AND MUL OR SWAP1 SSTORE POP POP JUMP JUMPDEST PUSH1 0x0 CALLER SWAP1 POP SWAP1 JUMP JUMPDEST PUSH1 0x0 DUP1 DUP3 EXTCODESIZE SWAP1 POP PUSH1 0x0 DUP2 GT SWAP2 POP POP SWAP2 SWAP1 POP JUMP JUMPDEST PUSH1 0x0 PUSH1 0x40 MLOAD SWAP1 POP SWAP1 JUMP JUMPDEST PUSH1 0x0 DUP1 REVERT JUMPDEST PUSH1 0x0 DUP1 REVERT JUMPDEST PUSH1 0x0 PUSH20 0xFFFFFFFFFFFFFFFFFFFFFFFFFFFFFFFFFFFFFFFF DUP3 AND SWAP1 POP SWAP2 SWAP1 POP JUMP JUMPDEST PUSH1 0x0 PUSH2 0xD47 DUP3 PUSH2 0xD1C JUMP JUMPDEST SWAP1 POP SWAP2 SWAP1 POP JUMP JUMPDEST PUSH2 0xD57 DUP2 PUSH2 0xD3C JUMP JUMPDEST DUP2 EQ PUSH2 0xD62 JUMPI PUSH1 0x0 DUP1 REVERT JUMPDEST POP JUMP JUMPDEST PUSH1 0x0 DUP2 CALLDATALOAD SWAP1 POP PUSH2 0xD74 DUP2 PUSH2 0xD4E JUMP JUMPDEST SWAP3 SWAP2 POP POP JUMP JUMPDEST PUSH1 0x0 PUSH1 0x20 DUP3 DUP5 SUB SLT ISZERO PUSH2 0xD90 JUMPI PUSH2 0xD8F PUSH2 0xD12 JUMP JUMPDEST JUMPDEST PUSH1 0x0 PUSH2 0xD9E DUP5 DUP3 DUP6 ADD PUSH2 0xD65 JUMP JUMPDEST SWAP2 POP POP SWAP3 SWAP2 POP POP JUMP JUMPDEST PUSH2 0xDB0 DUP2 PUSH2 0xD3C JUMP JUMPDEST DUP3 MSTORE POP POP JUMP JUMPDEST PUSH1 0x0 PUSH1 0x20 DUP3 ADD SWAP1 POP PUSH2 0xDCB PUSH1 0x0 DUP4 ADD DUP5 PUSH2 0xDA7 JUMP JUMPDEST SWAP3 SWAP2 POP POP JUMP JUMPDEST PUSH1 0x0 DUP2 SWAP1 POP SWAP2 SWAP1 POP JUMP JUMPDEST PUSH2 0xDE4 DUP2 PUSH2 0xDD1 JUMP JUMPDEST DUP3 MSTORE POP POP JUMP JUMPDEST PUSH1 0x0 PUSH1 0x20 DUP3 ADD SWAP1 POP PUSH2 0xDFF PUSH1 0x0 DUP4 ADD DUP5 PUSH2 0xDDB JUMP JUMPDEST SWAP3 SWAP2 POP POP JUMP JUMPDEST PUSH1 0x0 DUP1 REVERT JUMPDEST PUSH1 0x0 DUP1 REVERT JUMPDEST PUSH1 0x0 DUP1 REVERT JUMPDEST PUSH1 0x0 DUP1 DUP4 PUSH1 0x1F DUP5 ADD SLT PUSH2 0xE2A JUMPI PUSH2 0xE29 PUSH2 0xE05 JUMP JUMPDEST JUMPDEST DUP3 CALLDATALOAD SWAP1 POP PUSH8 0xFFFFFFFFFFFFFFFF DUP2 GT ISZERO PUSH2 0xE47 JUMPI PUSH2 0xE46 PUSH2 0xE0A JUMP JUMPDEST JUMPDEST PUSH1 0x20 DUP4 ADD SWAP2 POP DUP4 PUSH1 0x1 DUP3 MUL DUP4 ADD GT ISZERO PUSH2 0xE63 JUMPI PUSH2 0xE62 PUSH2 0xE0F JUMP JUMPDEST JUMPDEST SWAP3 POP SWAP3 SWAP1 POP JUMP JUMPDEST PUSH1 0x0 DUP1 PUSH1 0x20 DUP4 DUP6 SUB SLT ISZERO PUSH2 0xE81 JUMPI PUSH2 0xE80 PUSH2 0xD12 JUMP JUMPDEST JUMPDEST PUSH1 0x0 DUP4 ADD CALLDATALOAD PUSH8 0xFFFFFFFFFFFFFFFF DUP2 GT ISZERO PUSH2 0xE9F JUMPI PUSH2 0xE9E PUSH2 0xD17 JUMP JUMPDEST JUMPDEST PUSH2 0xEAB DUP6 DUP3 DUP7 ADD PUSH2 0xE14 JUMP JUMPDEST SWAP3 POP SWAP3 POP POP SWAP3 POP SWAP3 SWAP1 POP JUMP JUMPDEST PUSH1 0x0 DUP2 SWAP1 POP SWAP2 SWAP1 POP JUMP JUMPDEST PUSH2 0xECA DUP2 PUSH2 0xEB7 JUMP JUMPDEST DUP2 EQ PUSH2 0xED5 JUMPI PUSH1 0x0 DUP1 REVERT JUMPDEST POP JUMP JUMPDEST PUSH1 0x0 DUP2 CALLDATALOAD SWAP1 POP PUSH2 0xEE7 DUP2 PUSH2 0xEC1 JUMP JUMPDEST SWAP3 SWAP2 POP POP JUMP JUMPDEST PUSH1 0x0 PUSH1 0x20 DUP3 DUP5 SUB SLT ISZERO PUSH2 0xF03 JUMPI PUSH2 0xF02 PUSH2 0xD12 JUMP JUMPDEST JUMPDEST PUSH1 0x0 PUSH2 0xF11 DUP5 DUP3 DUP6 ADD PUSH2 0xED8 JUMP JUMPDEST SWAP2 POP POP SWAP3 SWAP2 POP POP JUMP JUMPDEST PUSH1 0x0 DUP3 DUP3 MSTORE PUSH1 0x20 DUP3 ADD SWAP1 POP SWAP3 SWAP2 POP POP JUMP JUMPDEST PUSH32 0x4F776E61626C653A2063616C6C6572206973206E6F7420746865206F776E6572 PUSH1 0x0 DUP3 ADD MSTORE POP JUMP JUMPDEST PUSH1 0x0 PUSH2 0xF61 PUSH1 0x20 DUP4 PUSH2 0xF1A JUMP JUMPDEST SWAP2 POP PUSH2 0xF6C DUP3 PUSH2 0xF2B JUMP JUMPDEST PUSH1 0x20 DUP3 ADD SWAP1 POP SWAP2 SWAP1 POP JUMP JUMPDEST PUSH1 0x0 PUSH1 0x20 DUP3 ADD SWAP1 POP DUP2 DUP2 SUB PUSH1 0x0 DUP4 ADD MSTORE PUSH2 0xF90 DUP2 PUSH2 0xF54 JUMP JUMPDEST SWAP1 POP SWAP2 SWAP1 POP JUMP JUMPDEST PUSH1 0x0 PUSH2 0xFA2 DUP3 PUSH2 0xD1C JUMP JUMPDEST SWAP1 POP SWAP2 SWAP1 POP JUMP JUMPDEST PUSH2 0xFB2 DUP2 PUSH2 0xF97 JUMP JUMPDEST DUP2 EQ PUSH2 0xFBD JUMPI PUSH1 0x0 DUP1 REVERT JUMPDEST POP JUMP JUMPDEST PUSH1 0x0 DUP2 CALLDATALOAD SWAP1 POP PUSH2 0xFCF DUP2 PUSH2 0xFA9 JUMP JUMPDEST SWAP3 SWAP2 POP POP JUMP JUMPDEST PUSH1 0x0 DUP1 REVERT JUMPDEST PUSH1 0x0 PUSH1 0x1F NOT PUSH1 0x1F DUP4 ADD AND SWAP1 POP SWAP2 SWAP1 POP JUMP JUMPDEST PUSH32 0x4E487B7100000000000000000000000000000000000000000000000000000000 PUSH1 0x0 MSTORE PUSH1 0x41 PUSH1 0x4 MSTORE PUSH1 0x24 PUSH1 0x0 REVERT JUMPDEST PUSH2 0x1023 DUP3 PUSH2 0xFDA JUMP JUMPDEST DUP2 ADD DUP2 DUP2 LT PUSH8 0xFFFFFFFFFFFFFFFF DUP3 GT OR ISZERO PUSH2 0x1042 JUMPI PUSH2 0x1041 PUSH2 0xFEB JUMP JUMPDEST JUMPDEST DUP1 PUSH1 0x40 MSTORE POP POP POP JUMP JUMPDEST PUSH1 0x0 PUSH2 0x1055 PUSH2 0xD08 JUMP JUMPDEST SWAP1 POP PUSH2 0x1061 DUP3 DUP3 PUSH2 0x101A JUMP JUMPDEST SWAP2 SWAP1 POP JUMP JUMPDEST PUSH2 0x106F DUP2 PUSH2 0xDD1 JUMP JUMPDEST DUP2 EQ PUSH2 0x107A JUMPI PUSH1 0x0 DUP1 REVERT JUMPDEST POP JUMP JUMPDEST PUSH1 0x0 DUP2 CALLDATALOAD SWAP1 POP PUSH2 0x108C DUP2 PUSH2 0x1066 JUMP JUMPDEST SWAP3 SWAP2 POP POP JUMP JUMPDEST PUSH1 0x0 PUSH1 0x40 DUP3 DUP5 SUB SLT ISZERO PUSH2 0x10A8 JUMPI PUSH2 0x10A7 PUSH2 0xFD5 JUMP JUMPDEST JUMPDEST PUSH2 0x10B2 PUSH1 0x40 PUSH2 0x104B JUMP JUMPDEST SWAP1 POP PUSH1 0x0 PUSH2 0x10C2 DUP5 DUP3 DUP6 ADD PUSH2 0xD65 JUMP JUMPDEST PUSH1 0x0 DUP4 ADD MSTORE POP PUSH1 0x20 PUSH2 0x10D6 DUP5 DUP3 DUP6 ADD PUSH2 0x107D JUMP JUMPDEST PUSH1 0x20 DUP4 ADD MSTORE POP SWAP3 SWAP2 POP POP JUMP JUMPDEST PUSH1 0x0 DUP1 PUSH1 0x0 PUSH1 0x80 DUP5 DUP7 SUB SLT ISZERO PUSH2 0x10FB JUMPI PUSH2 0x10FA PUSH2 0xD12 JUMP JUMPDEST JUMPDEST PUSH1 0x0 PUSH2 0x1109 DUP7 DUP3 DUP8 ADD PUSH2 0xFC0 JUMP JUMPDEST SWAP4 POP POP PUSH1 0x20 PUSH2 0x111A DUP7 DUP3 DUP8 ADD PUSH2 0x1092 JUMP JUMPDEST SWAP3 POP POP PUSH1 0x60 PUSH2 0x112B DUP7 DUP3 DUP8 ADD PUSH2 0xED8 JUMP JUMPDEST SWAP2 POP POP SWAP3 POP SWAP3 POP SWAP3 JUMP JUMPDEST PUSH1 0x0 DUP2 MLOAD SWAP1 POP SWAP2 SWAP1 POP JUMP JUMPDEST PUSH1 0x0 DUP2 SWAP1 POP SWAP3 SWAP2 POP POP JUMP JUMPDEST PUSH1 0x0 JUMPDEST DUP4 DUP2 LT ISZERO PUSH2 0x1169 JUMPI DUP1 DUP3 ADD MLOAD DUP2 DUP5 ADD MSTORE PUSH1 0x20 DUP2 ADD SWAP1 POP PUSH2 0x114E JUMP JUMPDEST PUSH1 0x0 DUP5 DUP5 ADD MSTORE POP POP POP POP JUMP JUMPDEST PUSH1 0x0 PUSH2 0x1180 DUP3 PUSH2 0x1135 JUMP JUMPDEST PUSH2 0x118A DUP2 DUP6 PUSH2 0x1140 JUMP JUMPDEST SWAP4 POP PUSH2 0x119A DUP2 DUP6 PUSH1 0x20 DUP7 ADD PUSH2 0x114B JUMP JUMPDEST DUP1 DUP5 ADD SWAP2 POP POP SWAP3 SWAP2 POP POP JUMP JUMPDEST PUSH1 0x0 PUSH2 0x11B2 DUP3 DUP5 PUSH2 0x1175 JUMP JUMPDEST SWAP2 POP DUP2 SWAP1 POP SWAP3 SWAP2 POP POP JUMP JUMPDEST PUSH1 0x0 DUP2 MLOAD SWAP1 POP PUSH2 0x11CC DUP2 PUSH2 0xEC1 JUMP JUMPDEST SWAP3 SWAP2 POP POP JUMP JUMPDEST PUSH1 0x0 PUSH1 0x20 DUP3 DUP5 SUB SLT ISZERO PUSH2 0x11E8 JUMPI PUSH2 0x11E7 PUSH2 0xD12 JUMP JUMPDEST JUMPDEST PUSH1 0x0 PUSH2 0x11F6 DUP5 DUP3 DUP6 ADD PUSH2 0x11BD JUMP JUMPDEST SWAP2 POP POP SWAP3 SWAP2 POP POP JUMP JUMPDEST PUSH1 0x0 DUP1 REVERT JUMPDEST PUSH1 0x0 PUSH8 0xFFFFFFFFFFFFFFFF DUP3 GT ISZERO PUSH2 0x121F JUMPI PUSH2 0x121E PUSH2 0xFEB JUMP JUMPDEST JUMPDEST PUSH2 0x1228 DUP3 PUSH2 0xFDA JUMP JUMPDEST SWAP1 POP PUSH1 0x20 DUP2 ADD SWAP1 POP SWAP2 SWAP1 POP JUMP JUMPDEST PUSH1 0x0 PUSH2 0x1248 PUSH2 0x1243 DUP5 PUSH2 0x1204 JUMP JUMPDEST PUSH2 0x104B JUMP JUMPDEST SWAP1 POP DUP3 DUP2 MSTORE PUSH1 0x20 DUP2 ADD DUP5 DUP5 DUP5 ADD GT ISZERO PUSH2 0x1264 JUMPI PUSH2 0x1263 PUSH2 0x11FF JUMP JUMPDEST JUMPDEST PUSH2 0x126F DUP5 DUP3 DUP6 PUSH2 0x114B JUMP JUMPDEST POP SWAP4 SWAP3 POP POP POP JUMP JUMPDEST PUSH1 0x0 DUP3 PUSH1 0x1F DUP4 ADD SLT PUSH2 0x128C JUMPI PUSH2 0x128B PUSH2 0xE05 JUMP JUMPDEST JUMPDEST DUP2 MLOAD PUSH2 0x129C DUP5 DUP3 PUSH1 0x20 DUP7 ADD PUSH2 0x1235 JUMP JUMPDEST SWAP2 POP POP SWAP3 SWAP2 POP POP JUMP JUMPDEST PUSH1 0x0 PUSH1 0x20 DUP3 DUP5 SUB SLT ISZERO PUSH2 0x12BB JUMPI PUSH2 0x12BA PUSH2 0xD12 JUMP JUMPDEST JUMPDEST PUSH1 0x0 DUP3 ADD MLOAD PUSH8 0xFFFFFFFFFFFFFFFF DUP2 GT ISZERO PUSH2 0x12D9 JUMPI PUSH2 0x12D8 PUSH2 0xD17 JUMP JUMPDEST JUMPDEST PUSH2 0x12E5 DUP5 DUP3 DUP6 ADD PUSH2 0x1277 JUMP JUMPDEST SWAP2 POP POP SWAP3 SWAP2 POP POP JUMP JUMPDEST PUSH1 0x0 DUP3 DUP3 MSTORE PUSH1 0x20 DUP3 ADD SWAP1 POP SWAP3 SWAP2 POP POP JUMP JUMPDEST PUSH1 0x0 PUSH2 0x130A DUP3 PUSH2 0x1135 JUMP JUMPDEST PUSH2 0x1314 DUP2 DUP6 PUSH2 0x12EE JUMP JUMPDEST SWAP4 POP PUSH2 0x1324 DUP2 DUP6 PUSH1 0x20 DUP7 ADD PUSH2 0x114B JUMP JUMPDEST PUSH2 0x132D DUP2 PUSH2 0xFDA JUMP JUMPDEST DUP5 ADD SWAP2 POP POP SWAP3 SWAP2 POP POP JUMP JUMPDEST PUSH1 0x0 PUSH1 0x20 DUP3 ADD SWAP1 POP DUP2 DUP2 SUB PUSH1 0x0 DUP4 ADD MSTORE PUSH2 0x1352 DUP2 DUP5 PUSH2 0x12FF JUMP JUMPDEST SWAP1 POP SWAP3 SWAP2 POP POP JUMP JUMPDEST POP JUMP JUMPDEST PUSH1 0x0 PUSH2 0x136A PUSH1 0x0 DUP4 PUSH2 0x1140 JUMP JUMPDEST SWAP2 POP PUSH2 0x1375 DUP3 PUSH2 0x135A JUMP JUMPDEST PUSH1 0x0 DUP3 ADD SWAP1 POP SWAP2 SWAP1 POP JUMP JUMPDEST PUSH1 0x0 PUSH2 0x138B DUP3 PUSH2 0x135D JUMP JUMPDEST SWAP2 POP DUP2 SWAP1 POP SWAP2 SWAP1 POP JUMP JUMPDEST PUSH32 0x77726F6E67206465636F64652070617373776F72640000000000000000000000 PUSH1 0x0 DUP3 ADD MSTORE POP JUMP JUMPDEST PUSH1 0x0 PUSH2 0x13CB PUSH1 0x15 DUP4 PUSH2 0xF1A JUMP JUMPDEST SWAP2 POP PUSH2 0x13D6 DUP3 PUSH2 0x1395 JUMP JUMPDEST PUSH1 0x20 DUP3 ADD SWAP1 POP SWAP2 SWAP1 POP JUMP JUMPDEST PUSH1 0x0 PUSH1 0x20 DUP3 ADD SWAP1 POP DUP2 DUP2 SUB PUSH1 0x0 DUP4 ADD MSTORE PUSH2 0x13FA DUP2 PUSH2 0x13BE JUMP JUMPDEST SWAP1 POP SWAP2 SWAP1 POP JUMP JUMPDEST PUSH32 0x4F776E61626C653A206E6577206F776E657220697320746865207A65726F2061 PUSH1 0x0 DUP3 ADD MSTORE PUSH32 0x6464726573730000000000000000000000000000000000000000000000000000 PUSH1 0x20 DUP3 ADD MSTORE POP JUMP JUMPDEST PUSH1 0x0 PUSH2 0x145D PUSH1 0x26 DUP4 PUSH2 0xF1A JUMP JUMPDEST SWAP2 POP PUSH2 0x1468 DUP3 PUSH2 0x1401 JUMP JUMPDEST PUSH1 0x40 DUP3 ADD SWAP1 POP SWAP2 SWAP1 POP JUMP JUMPDEST PUSH1 0x0 PUSH1 0x20 DUP3 ADD SWAP1 POP DUP2 DUP2 SUB PUSH1 0x0 DUP4 ADD MSTORE PUSH2 0x148C DUP2 PUSH2 0x1450 JUMP JUMPDEST SWAP1 POP SWAP2 SWAP1 POP JUMP INVALID LOG2 PUSH5 0x6970667358 0x22 SLT KECCAK256 REVERT CREATE 0x4D 0x2D 0xB9 EXP PUSH22 0xF88C454757006025491ADAD18EA7EA52E9967D7FC306 0xF8 SWAP3 PUSH1 0x64 PUSH20 0x6F6C634300081100330000000000000000000000 "
		},
		"gasEstimates": {
			"creation": {
				"codeDepositCost": "1064200",
				"executionCost": "infinite",
				"totalCost": "infinite"
			},
			"external": {
				"REWARD()": "329",
				"kill()": "29968",
				"owner()": "2589",
				"renounceOwnership()": "30336",
				"setPasswordContract(address)": "26925",
				"submitDecodeData(bytes32)": "infinite",
				"submitEncodeData(bytes)": "infinite",
				"transferOwnership(address)": "30703"
			}
		},
		"methodIdentifiers": {
			"REWARD()": "cab34c08",
			"kill()": "41c0e1b5",
			"owner()": "8da5cb5b",
			"renounceOwnership()": "715018a6",
			"setPasswordContract(address)": "3fd6a2e1",
			"submitDecodeData(bytes32)": "e0ca0f30",
			"submitEncodeData(bytes)": "cbec4896",
			"transferOwnership(address)": "f2fde38b"
		}
	},
	"abi": [
		{
			"anonymous": false,
			"inputs": [
				{
					"indexed": true,
					"internalType": "address",
					"name": "previousOwner",
					"type": "address"
				},
				{
					"indexed": true,
					"internalType": "address",
					"name": "newOwner",
					"type": "address"
				}
			],
			"name": "OwnershipTransferred",
			"type": "event"
		},
		{
			"inputs": [],
			"name": "REWARD",
			"outputs": [
				{
					"internalType": "uint256",
					"name": "",
					"type": "uint256"
				}
			],
			"stateMutability": "view",
			"type": "function"
		},
		{
			"inputs": [],
			"name": "kill",
			"outputs": [],
			"stateMutability": "nonpayable",
			"type": "function"
		},
		{
			"inputs": [],
			"name": "owner",
			"outputs": [
				{
					"internalType": "address",
					"name": "",
					"type": "address"
				}
			],
			"stateMutability": "view",
			"type": "function"
		},
		{
			"inputs": [],
			"name": "renounceOwnership",
			"outputs": [],
			"stateMutability": "nonpayable",
			"type": "function"
		},
		{
			"inputs": [
				{
					"internalType": "address",
					"name": "_password",
					"type": "address"
				}
			],
			"name": "setPasswordContract",
			"outputs": [],
			"stateMutability": "nonpayable",
			"type": "function"
		},
		{
			"inputs": [
				{
					"internalType": "bytes32",
					"name": "data",
					"type": "bytes32"
				}
			],
			"name": "submitDecodeData",
			"outputs": [],
			"stateMutability": "nonpayable",
			"type": "function"
		},
		{
			"inputs": [
				{
					"internalType": "bytes",
					"name": "data",
					"type": "bytes"
				}
			],
			"name": "submitEncodeData",
			"outputs": [],
			"stateMutability": "nonpayable",
			"type": "function"
		},
		{
			"inputs": [
				{
					"internalType": "address",
					"name": "newOwner",
					"type": "address"
				}
			],
			"name": "transferOwnership",
			"outputs": [],
			"stateMutability": "nonpayable",
			"type": "function"
		},
		{
			"stateMutability": "payable",
			"type": "receive"
		}
	]
}