{
	"data": {
		"bytecode": {
			"linkReferences": {},
			"object": "60806040526040518060400160405280601b81526020017f617070776f726b732e7363686f6f6c2e342f31302e656e636f64650000000000815250600290816200004a91906200036e565b503480156200005857600080fd5b50336000806101000a81548173ffffffffffffffffffffffffffffffffffffffff021916908373ffffffffffffffffffffffffffffffffffffffff160217905550734ba9e675f6b21014b698a06eb3e8f885513ff151600160006101000a81548173ffffffffffffffffffffffffffffffffffffffff021916908373ffffffffffffffffffffffffffffffffffffffff16021790555062000455565b600081519050919050565b7f4e487b7100000000000000000000000000000000000000000000000000000000600052604160045260246000fd5b7f4e487b7100000000000000000000000000000000000000000000000000000000600052602260045260246000fd5b600060028204905060018216806200017657607f821691505b6020821081036200018c576200018b6200012e565b5b50919050565b60008190508160005260206000209050919050565b60006020601f8301049050919050565b600082821b905092915050565b600060088302620001f67fffffffffffffffffffffffffffffffffffffffffffffffffffffffffffffffff82620001b7565b620002028683620001b7565b95508019841693508086168417925050509392505050565b6000819050919050565b6000819050919050565b60006200024f6200024962000243846200021a565b62000224565b6200021a565b9050919050565b6000819050919050565b6200026b836200022e565b620002836200027a8262000256565b848454620001c4565b825550505050565b600090565b6200029a6200028b565b620002a781848462000260565b505050565b5b81811015620002cf57620002c360008262000290565b600181019050620002ad565b5050565b601f8211156200031e57620002e88162000192565b620002f384620001a7565b8101602085101562000303578190505b6200031b6200031285620001a7565b830182620002ac565b50505b505050565b600082821c905092915050565b6000620003436000198460080262000323565b1980831691505092915050565b60006200035e838362000330565b9150826002028217905092915050565b6200037982620000f4565b67ffffffffffffffff811115620003955762000394620000ff565b5b620003a182546200015d565b620003ae828285620002d3565b600060209050601f831160018114620003e65760008415620003d1578287015190505b620003dd858262000350565b8655506200044d565b601f198416620003f68662000192565b60005b828110156200042057848901518255600182019150602085019450602081019050620003f9565b868310156200044057848901516200043c601f89168262000330565b8355505b6001600288020188555050505b505050505050565b61170a80620004656000396000f3fe6080604052600436106100a05760003560e01c806366ca553b1161006457806366ca553b146101455780637a4ff39c1461017457806381a909f21461019f5780639fe583bd146101c8578063c605d3c1146101f3578063d4b839921461021e576100a7565b80630546f044146100ac57806314855195146100c357806341c0e1b5146100ee57806343e93e571461010557806347fc822f1461011c576100a7565b366100a757005b600080fd5b3480156100b857600080fd5b506100c1610249565b005b3480156100cf57600080fd5b506100d8610432565b6040516100e59190610a39565b60405180910390f35b3480156100fa57600080fd5b50610103610466565b005b34801561011157600080fd5b5061011a6104d7565b005b34801561012857600080fd5b50610143600480360381019061013e9190610ac6565b610668565b005b34801561015157600080fd5b5061015a61073a565b60405161016b959493929190610c02565b60405180910390f35b34801561018057600080fd5b5061018961080f565b6040516101969190610c5c565b60405180910390f35b3480156101ab57600080fd5b506101c660048036038101906101c19190610ce3565b61089d565b005b3480156101d457600080fd5b506101dd61094a565b6040516101ea9190610d3f565b60405180910390f35b3480156101ff57600080fd5b5061020861096e565b6040516102159190610daf565b60405180910390f35b34801561022a57600080fd5b506102336109fa565b6040516102409190610d3f565b60405180910390f35b6000600260405160200161025d9190610ed4565b60405160208183030381529060405261027590610f1d565b905060003060405180604001604052803373ffffffffffffffffffffffffffffffffffffffff1681526020016703782dace9d90000815250836040516020016102c093929190610fd1565b60405160208183030381529060405290506000600160009054906101000a900473ffffffffffffffffffffffffffffffffffffffff1673ffffffffffffffffffffffffffffffffffffffff168260405160240161031d9190610daf565b6040516020818303038152906040527fcbec4896000000000000000000000000000000000000000000000000000000007bffffffffffffffffffffffffffffffffffffffffffffffffffffffff19166020820180517bffffffffffffffffffffffffffffffffffffffffffffffffffffffff83818316178352505050506040516103a79190611044565b6000604051808303816000865af19150503d80600081146103e4576040519150601f19603f3d011682016040523d82523d6000602084013e6103e9565b606091505b505090508061042d576040517f08c379a0000000000000000000000000000000000000000000000000000000008152600401610424906110a7565b60405180910390fd5b505050565b6000600380015460405160200161044991906110e8565b60405160208183030381529060405261046190610f1d565b905090565b60008054906101000a900473ffffffffffffffffffffffffffffffffffffffff1673ffffffffffffffffffffffffffffffffffffffff163373ffffffffffffffffffffffffffffffffffffffff16146104be57600080fd5b3373ffffffffffffffffffffffffffffffffffffffff16ff5b600060038001546040516020016104ee91906110e8565b60405160208183030381529060405261050690610f1d565b90506000600160009054906101000a900473ffffffffffffffffffffffffffffffffffffffff1673ffffffffffffffffffffffffffffffffffffffff16826040516024016105549190610a39565b6040516020818303038152906040527fe0ca0f30000000000000000000000000000000000000000000000000000000007bffffffffffffffffffffffffffffffffffffffffffffffffffffffff19166020820180517bffffffffffffffffffffffffffffffffffffffffffffffffffffffff83818316178352505050506040516105de9190611044565b6000604051808303816000865af19150503d806000811461061b576040519150601f19603f3d011682016040523d82523d6000602084013e610620565b606091505b5050905080610664576040517f08c379a000000000000000000000000000000000000000000000000000000000815260040161065b9061114f565b60405180910390fd5b5050565b60008054906101000a900473ffffffffffffffffffffffffffffffffffffffff1673ffffffffffffffffffffffffffffffffffffffff163373ffffffffffffffffffffffffffffffffffffffff16146106f6576040517f08c379a00000000000000000000000000000000000000000000000000000000081526004016106ed906111e1565b60405180910390fd5b80600160006101000a81548173ffffffffffffffffffffffffffffffffffffffff021916908373ffffffffffffffffffffffffffffffffffffffff16021790555050565b60038060000154908060010160009054906101000a900460f81b9080600201805461076490610e00565b80601f016020809104026020016040519081016040528092919081815260200182805461079090610e00565b80156107dd5780601f106107b2576101008083540402835291602001916107dd565b820191906000526020600020905b8154815290600101906020018083116107c057829003601f168201915b5050505050908060030154908060040160009054906101000a90046fffffffffffffffffffffffffffffffff16905085565b6002805461081c90610e00565b80601f016020809104026020016040519081016040528092919081815260200182805461084890610e00565b80156108955780601f1061086a57610100808354040283529160200191610895565b820191906000526020600020905b81548152906001019060200180831161087857829003601f168201915b505050505081565b81818101906108ac91906113e1565b600360000160006003600101600060036002016000600380016000600360040160008a91906101000a8154816fffffffffffffffffffffffffffffffff02191690836fffffffffffffffffffffffffffffffff160217905550899190505588919050908161091a9190611602565b508791906101000a81548160ff021916908360f81c0217905550869190505550505050506109466104d7565b5050565b60008054906101000a900473ffffffffffffffffffffffffffffffffffffffff1681565b6060600060026040516020016109849190610ed4565b60405160208183030381529060405261099c90610f1d565b90503060405180604001604052803373ffffffffffffffffffffffffffffffffffffffff1681526020016703782dace9d90000815250826040516020016109e593929190610fd1565b60405160208183030381529060405291505090565b600160009054906101000a900473ffffffffffffffffffffffffffffffffffffffff1681565b6000819050919050565b610a3381610a20565b82525050565b6000602082019050610a4e6000830184610a2a565b92915050565b6000604051905090565b600080fd5b600080fd5b600073ffffffffffffffffffffffffffffffffffffffff82169050919050565b6000610a9382610a68565b9050919050565b610aa381610a88565b8114610aae57600080fd5b50565b600081359050610ac081610a9a565b92915050565b600060208284031215610adc57610adb610a5e565b5b6000610aea84828501610ab1565b91505092915050565b6000819050919050565b610b0681610af3565b82525050565b60007fff0000000000000000000000000000000000000000000000000000000000000082169050919050565b610b4181610b0c565b82525050565b600081519050919050565b600082825260208201905092915050565b60005b83811015610b81578082015181840152602081019050610b66565b60008484015250505050565b6000601f19601f8301169050919050565b6000610ba982610b47565b610bb38185610b52565b9350610bc3818560208601610b63565b610bcc81610b8d565b840191505092915050565b60006fffffffffffffffffffffffffffffffff82169050919050565b610bfc81610bd7565b82525050565b600060a082019050610c176000830188610afd565b610c246020830187610b38565b8181036040830152610c368186610b9e565b9050610c456060830185610a2a565b610c526080830184610bf3565b9695505050505050565b60006020820190508181036000830152610c768184610b9e565b905092915050565b600080fd5b600080fd5b600080fd5b60008083601f840112610ca357610ca2610c7e565b5b8235905067ffffffffffffffff811115610cc057610cbf610c83565b5b602083019150836001820283011115610cdc57610cdb610c88565b5b9250929050565b60008060208385031215610cfa57610cf9610a5e565b5b600083013567ffffffffffffffff811115610d1857610d17610a63565b5b610d2485828601610c8d565b92509250509250929050565b610d3981610a88565b82525050565b6000602082019050610d546000830184610d30565b92915050565b600081519050919050565b600082825260208201905092915050565b6000610d8182610d5a565b610d8b8185610d65565b9350610d9b818560208601610b63565b610da481610b8d565b840191505092915050565b60006020820190508181036000830152610dc98184610d76565b905092915050565b7f4e487b7100000000000000000000000000000000000000000000000000000000600052602260045260246000fd5b60006002820490506001821680610e1857607f821691505b602082108103610e2b57610e2a610dd1565b5b50919050565b600081905092915050565b60008190508160005260206000209050919050565b60008154610e5e81610e00565b610e688186610e31565b94506001821660008114610e835760018114610e9857610ecb565b60ff1983168652811515820286019350610ecb565b610ea185610e3c565b60005b83811015610ec357815481890152600182019150602081019050610ea4565b838801955050505b50505092915050565b6000610ee08284610e51565b915081905092915050565b6000819050602082019050919050565b6000610f078251610a20565b80915050919050565b600082821b905092915050565b6000610f2882610d5a565b82610f3284610eeb565b9050610f3d81610efb565b92506020821015610f7d57610f787fffffffffffffffffffffffffffffffffffffffffffffffffffffffffffffffff83602003600802610f10565b831692505b5050919050565b610f8d81610a88565b82525050565b610f9c81610af3565b82525050565b604082016000820151610fb86000850182610f84565b506020820151610fcb6020850182610f93565b50505050565b6000608082019050610fe66000830186610d30565b610ff36020830185610fa2565b6110006060830184610a2a565b949350505050565b600081905092915050565b600061101e82610d5a565b6110288185611008565b9350611038818560208601610b63565b80840191505092915050565b60006110508284611013565b915081905092915050565b7f596f75206661696c656420746f20656e636f64652c204c7570696e2100000000600082015250565b6000611091601c83610b52565b915061109c8261105b565b602082019050919050565b600060208201905081810360008301526110c081611084565b9050919050565b6000819050919050565b6110e26110dd82610a20565b6110c7565b82525050565b60006110f482846110d1565b60208201915081905092915050565b7f596f75206661696c656420746f206465636f64652c204c7570696e2100000000600082015250565b6000611139601c83610b52565b915061114482611103565b602082019050919050565b600060208201905081810360008301526111688161112c565b9050919050565b7f4f6e6c79204c7570696e2063616e206465636964652077686f2773207461726760008201527f6574000000000000000000000000000000000000000000000000000000000000602082015250565b60006111cb602283610b52565b91506111d68261116f565b604082019050919050565b600060208201905081810360008301526111fa816111be565b9050919050565b61120a81610af3565b811461121557600080fd5b50565b60008135905061122781611201565b92915050565b61123681610b0c565b811461124157600080fd5b50565b6000813590506112538161122d565b92915050565b600080fd5b7f4e487b7100000000000000000000000000000000000000000000000000000000600052604160045260246000fd5b61129682610b8d565b810181811067ffffffffffffffff821117156112b5576112b461125e565b5b80604052505050565b60006112c8610a54565b90506112d4828261128d565b919050565b600067ffffffffffffffff8211156112f4576112f361125e565b5b6112fd82610b8d565b9050602081019050919050565b82818337600083830152505050565b600061132c611327846112d9565b6112be565b90508281526020810184848401111561134857611347611259565b5b61135384828561130a565b509392505050565b600082601f8301126113705761136f610c7e565b5b8135611380848260208601611319565b91505092915050565b61139281610a20565b811461139d57600080fd5b50565b6000813590506113af81611389565b92915050565b6113be81610bd7565b81146113c957600080fd5b50565b6000813590506113db816113b5565b92915050565b600080600080600060a086880312156113fd576113fc610a5e565b5b600061140b88828901611218565b955050602061141c88828901611244565b945050604086013567ffffffffffffffff81111561143d5761143c610a63565b5b6114498882890161135b565b935050606061145a888289016113a0565b925050608061146b888289016113cc565b9150509295509295909350565b60006020601f8301049050919050565b6000600883026114b87fffffffffffffffffffffffffffffffffffffffffffffffffffffffffffffffff82610f10565b6114c28683610f10565b95508019841693508086168417925050509392505050565b6000819050919050565b60006114ff6114fa6114f584610af3565b6114da565b610af3565b9050919050565b6000819050919050565b611519836114e4565b61152d61152582611506565b848454611488565b825550505050565b600090565b611542611535565b61154d818484611510565b505050565b5b818110156115715761156660008261153a565b600181019050611553565b5050565b601f8211156115b65761158781610e3c565b61159084611478565b8101602085101561159f578190505b6115b36115ab85611478565b830182611552565b50505b505050565b600082821c905092915050565b60006115d9600019846008026115bb565b1980831691505092915050565b60006115f283836115c8565b9150826002028217905092915050565b61160b82610b47565b67ffffffffffffffff8111156116245761162361125e565b5b61162e8254610e00565b611639828285611575565b600060209050601f83116001811461166c576000841561165a578287015190505b61166485826115e6565b8655506116cc565b601f19841661167a86610e3c565b60005b828110156116a25784890151825560018201915060208501945060208101905061167d565b868310156116bf57848901516116bb601f8916826115c8565b8355505b6001600288020188555050505b50505050505056fea2646970667358221220a95d48dbf299e606080425fb8e813d2ca132b0ff01c896860008e281645fb11d64736f6c63430008120033",
			"opcodes": "PUSH1 0x80 PUSH1 0x40 MSTORE PUSH1 0x40 MLOAD DUP1 PUSH1 0x40 ADD PUSH1 0x40 MSTORE DUP1 PUSH1 0x1B DUP2 MSTORE PUSH1 0x20 ADD PUSH32 0x617070776F726B732E7363686F6F6C2E342F31302E656E636F64650000000000 DUP2 MSTORE POP PUSH1 0x2 SWAP1 DUP2 PUSH3 0x4A SWAP2 SWAP1 PUSH3 0x36E JUMP JUMPDEST POP CALLVALUE DUP1 ISZERO PUSH3 0x58 JUMPI PUSH1 0x0 DUP1 REVERT JUMPDEST POP CALLER PUSH1 0x0 DUP1 PUSH2 0x100 EXP DUP2 SLOAD DUP2 PUSH20 0xFFFFFFFFFFFFFFFFFFFFFFFFFFFFFFFFFFFFFFFF MUL NOT AND SWAP1 DUP4 PUSH20 0xFFFFFFFFFFFFFFFFFFFFFFFFFFFFFFFFFFFFFFFF AND MUL OR SWAP1 SSTORE POP PUSH20 0x4BA9E675F6B21014B698A06EB3E8F885513FF151 PUSH1 0x1 PUSH1 0x0 PUSH2 0x100 EXP DUP2 SLOAD DUP2 PUSH20 0xFFFFFFFFFFFFFFFFFFFFFFFFFFFFFFFFFFFFFFFF MUL NOT AND SWAP1 DUP4 PUSH20 0xFFFFFFFFFFFFFFFFFFFFFFFFFFFFFFFFFFFFFFFF AND MUL OR SWAP1 SSTORE POP PUSH3 0x455 JUMP JUMPDEST PUSH1 0x0 DUP2 MLOAD SWAP1 POP SWAP2 SWAP1 POP JUMP JUMPDEST PUSH32 0x4E487B7100000000000000000000000000000000000000000000000000000000 PUSH1 0x0 MSTORE PUSH1 0x41 PUSH1 0x4 MSTORE PUSH1 0x24 PUSH1 0x0 REVERT JUMPDEST PUSH32 0x4E487B7100000000000000000000000000000000000000000000000000000000 PUSH1 0x0 MSTORE PUSH1 0x22 PUSH1 0x4 MSTORE PUSH1 0x24 PUSH1 0x0 REVERT JUMPDEST PUSH1 0x0 PUSH1 0x2 DUP3 DIV SWAP1 POP PUSH1 0x1 DUP3 AND DUP1 PUSH3 0x176 JUMPI PUSH1 0x7F DUP3 AND SWAP2 POP JUMPDEST PUSH1 0x20 DUP3 LT DUP2 SUB PUSH3 0x18C JUMPI PUSH3 0x18B PUSH3 0x12E JUMP JUMPDEST JUMPDEST POP SWAP2 SWAP1 POP JUMP JUMPDEST PUSH1 0x0 DUP2 SWAP1 POP DUP2 PUSH1 0x0 MSTORE PUSH1 0x20 PUSH1 0x0 KECCAK256 SWAP1 POP SWAP2 SWAP1 POP JUMP JUMPDEST PUSH1 0x0 PUSH1 0x20 PUSH1 0x1F DUP4 ADD DIV SWAP1 POP SWAP2 SWAP1 POP JUMP JUMPDEST PUSH1 0x0 DUP3 DUP3 SHL SWAP1 POP SWAP3 SWAP2 POP POP JUMP JUMPDEST PUSH1 0x0 PUSH1 0x8 DUP4 MUL PUSH3 0x1F6 PUSH32 0xFFFFFFFFFFFFFFFFFFFFFFFFFFFFFFFFFFFFFFFFFFFFFFFFFFFFFFFFFFFFFFFF DUP3 PUSH3 0x1B7 JUMP JUMPDEST PUSH3 0x202 DUP7 DUP4 PUSH3 0x1B7 JUMP JUMPDEST SWAP6 POP DUP1 NOT DUP5 AND SWAP4 POP DUP1 DUP7 AND DUP5 OR SWAP3 POP POP POP SWAP4 SWAP3 POP POP POP JUMP JUMPDEST PUSH1 0x0 DUP2 SWAP1 POP SWAP2 SWAP1 POP JUMP JUMPDEST PUSH1 0x0 DUP2 SWAP1 POP SWAP2 SWAP1 POP JUMP JUMPDEST PUSH1 0x0 PUSH3 0x24F PUSH3 0x249 PUSH3 0x243 DUP5 PUSH3 0x21A JUMP JUMPDEST PUSH3 0x224 JUMP JUMPDEST PUSH3 0x21A JUMP JUMPDEST SWAP1 POP SWAP2 SWAP1 POP JUMP JUMPDEST PUSH1 0x0 DUP2 SWAP1 POP SWAP2 SWAP1 POP JUMP JUMPDEST PUSH3 0x26B DUP4 PUSH3 0x22E JUMP JUMPDEST PUSH3 0x283 PUSH3 0x27A DUP3 PUSH3 0x256 JUMP JUMPDEST DUP5 DUP5 SLOAD PUSH3 0x1C4 JUMP JUMPDEST DUP3 SSTORE POP POP POP POP JUMP JUMPDEST PUSH1 0x0 SWAP1 JUMP JUMPDEST PUSH3 0x29A PUSH3 0x28B JUMP JUMPDEST PUSH3 0x2A7 DUP2 DUP5 DUP5 PUSH3 0x260 JUMP JUMPDEST POP POP POP JUMP JUMPDEST JUMPDEST DUP2 DUP2 LT ISZERO PUSH3 0x2CF JUMPI PUSH3 0x2C3 PUSH1 0x0 DUP3 PUSH3 0x290 JUMP JUMPDEST PUSH1 0x1 DUP2 ADD SWAP1 POP PUSH3 0x2AD JUMP JUMPDEST POP POP JUMP JUMPDEST PUSH1 0x1F DUP3 GT ISZERO PUSH3 0x31E JUMPI PUSH3 0x2E8 DUP2 PUSH3 0x192 JUMP JUMPDEST PUSH3 0x2F3 DUP5 PUSH3 0x1A7 JUMP JUMPDEST DUP2 ADD PUSH1 0x20 DUP6 LT ISZERO PUSH3 0x303 JUMPI DUP2 SWAP1 POP JUMPDEST PUSH3 0x31B PUSH3 0x312 DUP6 PUSH3 0x1A7 JUMP JUMPDEST DUP4 ADD DUP3 PUSH3 0x2AC JUMP JUMPDEST POP POP JUMPDEST POP POP POP JUMP JUMPDEST PUSH1 0x0 DUP3 DUP3 SHR SWAP1 POP SWAP3 SWAP2 POP POP JUMP JUMPDEST PUSH1 0x0 PUSH3 0x343 PUSH1 0x0 NOT DUP5 PUSH1 0x8 MUL PUSH3 0x323 JUMP JUMPDEST NOT DUP1 DUP4 AND SWAP2 POP POP SWAP3 SWAP2 POP POP JUMP JUMPDEST PUSH1 0x0 PUSH3 0x35E DUP4 DUP4 PUSH3 0x330 JUMP JUMPDEST SWAP2 POP DUP3 PUSH1 0x2 MUL DUP3 OR SWAP1 POP SWAP3 SWAP2 POP POP JUMP JUMPDEST PUSH3 0x379 DUP3 PUSH3 0xF4 JUMP JUMPDEST PUSH8 0xFFFFFFFFFFFFFFFF DUP2 GT ISZERO PUSH3 0x395 JUMPI PUSH3 0x394 PUSH3 0xFF JUMP JUMPDEST JUMPDEST PUSH3 0x3A1 DUP3 SLOAD PUSH3 0x15D JUMP JUMPDEST PUSH3 0x3AE DUP3 DUP3 DUP6 PUSH3 0x2D3 JUMP JUMPDEST PUSH1 0x0 PUSH1 0x20 SWAP1 POP PUSH1 0x1F DUP4 GT PUSH1 0x1 DUP2 EQ PUSH3 0x3E6 JUMPI PUSH1 0x0 DUP5 ISZERO PUSH3 0x3D1 JUMPI DUP3 DUP8 ADD MLOAD SWAP1 POP JUMPDEST PUSH3 0x3DD DUP6 DUP3 PUSH3 0x350 JUMP JUMPDEST DUP7 SSTORE POP PUSH3 0x44D JUMP JUMPDEST PUSH1 0x1F NOT DUP5 AND PUSH3 0x3F6 DUP7 PUSH3 0x192 JUMP JUMPDEST PUSH1 0x0 JUMPDEST DUP3 DUP2 LT ISZERO PUSH3 0x420 JUMPI DUP5 DUP10 ADD MLOAD DUP3 SSTORE PUSH1 0x1 DUP3 ADD SWAP2 POP PUSH1 0x20 DUP6 ADD SWAP5 POP PUSH1 0x20 DUP2 ADD SWAP1 POP PUSH3 0x3F9 JUMP JUMPDEST DUP7 DUP4 LT ISZERO PUSH3 0x440 JUMPI DUP5 DUP10 ADD MLOAD PUSH3 0x43C PUSH1 0x1F DUP10 AND DUP3 PUSH3 0x330 JUMP JUMPDEST DUP4 SSTORE POP JUMPDEST PUSH1 0x1 PUSH1 0x2 DUP9 MUL ADD DUP9 SSTORE POP POP POP JUMPDEST POP POP POP POP POP POP JUMP JUMPDEST PUSH2 0x170A DUP1 PUSH3 0x465 PUSH1 0x0 CODECOPY PUSH1 0x0 RETURN INVALID PUSH1 0x80 PUSH1 0x40 MSTORE PUSH1 0x4 CALLDATASIZE LT PUSH2 0xA0 JUMPI PUSH1 0x0 CALLDATALOAD PUSH1 0xE0 SHR DUP1 PUSH4 0x66CA553B GT PUSH2 0x64 JUMPI DUP1 PUSH4 0x66CA553B EQ PUSH2 0x145 JUMPI DUP1 PUSH4 0x7A4FF39C EQ PUSH2 0x174 JUMPI DUP1 PUSH4 0x81A909F2 EQ PUSH2 0x19F JUMPI DUP1 PUSH4 0x9FE583BD EQ PUSH2 0x1C8 JUMPI DUP1 PUSH4 0xC605D3C1 EQ PUSH2 0x1F3 JUMPI DUP1 PUSH4 0xD4B83992 EQ PUSH2 0x21E JUMPI PUSH2 0xA7 JUMP JUMPDEST DUP1 PUSH4 0x546F044 EQ PUSH2 0xAC JUMPI DUP1 PUSH4 0x14855195 EQ PUSH2 0xC3 JUMPI DUP1 PUSH4 0x41C0E1B5 EQ PUSH2 0xEE JUMPI DUP1 PUSH4 0x43E93E57 EQ PUSH2 0x105 JUMPI DUP1 PUSH4 0x47FC822F EQ PUSH2 0x11C JUMPI PUSH2 0xA7 JUMP JUMPDEST CALLDATASIZE PUSH2 0xA7 JUMPI STOP JUMPDEST PUSH1 0x0 DUP1 REVERT JUMPDEST CALLVALUE DUP1 ISZERO PUSH2 0xB8 JUMPI PUSH1 0x0 DUP1 REVERT JUMPDEST POP PUSH2 0xC1 PUSH2 0x249 JUMP JUMPDEST STOP JUMPDEST CALLVALUE DUP1 ISZERO PUSH2 0xCF JUMPI PUSH1 0x0 DUP1 REVERT JUMPDEST POP PUSH2 0xD8 PUSH2 0x432 JUMP JUMPDEST PUSH1 0x40 MLOAD PUSH2 0xE5 SWAP2 SWAP1 PUSH2 0xA39 JUMP JUMPDEST PUSH1 0x40 MLOAD DUP1 SWAP2 SUB SWAP1 RETURN JUMPDEST CALLVALUE DUP1 ISZERO PUSH2 0xFA JUMPI PUSH1 0x0 DUP1 REVERT JUMPDEST POP PUSH2 0x103 PUSH2 0x466 JUMP JUMPDEST STOP JUMPDEST CALLVALUE DUP1 ISZERO PUSH2 0x111 JUMPI PUSH1 0x0 DUP1 REVERT JUMPDEST POP PUSH2 0x11A PUSH2 0x4D7 JUMP JUMPDEST STOP JUMPDEST CALLVALUE DUP1 ISZERO PUSH2 0x128 JUMPI PUSH1 0x0 DUP1 REVERT JUMPDEST POP PUSH2 0x143 PUSH1 0x4 DUP1 CALLDATASIZE SUB DUP2 ADD SWAP1 PUSH2 0x13E SWAP2 SWAP1 PUSH2 0xAC6 JUMP JUMPDEST PUSH2 0x668 JUMP JUMPDEST STOP JUMPDEST CALLVALUE DUP1 ISZERO PUSH2 0x151 JUMPI PUSH1 0x0 DUP1 REVERT JUMPDEST POP PUSH2 0x15A PUSH2 0x73A JUMP JUMPDEST PUSH1 0x40 MLOAD PUSH2 0x16B SWAP6 SWAP5 SWAP4 SWAP3 SWAP2 SWAP1 PUSH2 0xC02 JUMP JUMPDEST PUSH1 0x40 MLOAD DUP1 SWAP2 SUB SWAP1 RETURN JUMPDEST CALLVALUE DUP1 ISZERO PUSH2 0x180 JUMPI PUSH1 0x0 DUP1 REVERT JUMPDEST POP PUSH2 0x189 PUSH2 0x80F JUMP JUMPDEST PUSH1 0x40 MLOAD PUSH2 0x196 SWAP2 SWAP1 PUSH2 0xC5C JUMP JUMPDEST PUSH1 0x40 MLOAD DUP1 SWAP2 SUB SWAP1 RETURN JUMPDEST CALLVALUE DUP1 ISZERO PUSH2 0x1AB JUMPI PUSH1 0x0 DUP1 REVERT JUMPDEST POP PUSH2 0x1C6 PUSH1 0x4 DUP1 CALLDATASIZE SUB DUP2 ADD SWAP1 PUSH2 0x1C1 SWAP2 SWAP1 PUSH2 0xCE3 JUMP JUMPDEST PUSH2 0x89D JUMP JUMPDEST STOP JUMPDEST CALLVALUE DUP1 ISZERO PUSH2 0x1D4 JUMPI PUSH1 0x0 DUP1 REVERT JUMPDEST POP PUSH2 0x1DD PUSH2 0x94A JUMP JUMPDEST PUSH1 0x40 MLOAD PUSH2 0x1EA SWAP2 SWAP1 PUSH2 0xD3F JUMP JUMPDEST PUSH1 0x40 MLOAD DUP1 SWAP2 SUB SWAP1 RETURN JUMPDEST CALLVALUE DUP1 ISZERO PUSH2 0x1FF JUMPI PUSH1 0x0 DUP1 REVERT JUMPDEST POP PUSH2 0x208 PUSH2 0x96E JUMP JUMPDEST PUSH1 0x40 MLOAD PUSH2 0x215 SWAP2 SWAP1 PUSH2 0xDAF JUMP JUMPDEST PUSH1 0x40 MLOAD DUP1 SWAP2 SUB SWAP1 RETURN JUMPDEST CALLVALUE DUP1 ISZERO PUSH2 0x22A JUMPI PUSH1 0x0 DUP1 REVERT JUMPDEST POP PUSH2 0x233 PUSH2 0x9FA JUMP JUMPDEST PUSH1 0x40 MLOAD PUSH2 0x240 SWAP2 SWAP1 PUSH2 0xD3F JUMP JUMPDEST PUSH1 0x40 MLOAD DUP1 SWAP2 SUB SWAP1 RETURN JUMPDEST PUSH1 0x0 PUSH1 0x2 PUSH1 0x40 MLOAD PUSH1 0x20 ADD PUSH2 0x25D SWAP2 SWAP1 PUSH2 0xED4 JUMP JUMPDEST PUSH1 0x40 MLOAD PUSH1 0x20 DUP2 DUP4 SUB SUB DUP2 MSTORE SWAP1 PUSH1 0x40 MSTORE PUSH2 0x275 SWAP1 PUSH2 0xF1D JUMP JUMPDEST SWAP1 POP PUSH1 0x0 ADDRESS PUSH1 0x40 MLOAD DUP1 PUSH1 0x40 ADD PUSH1 0x40 MSTORE DUP1 CALLER PUSH20 0xFFFFFFFFFFFFFFFFFFFFFFFFFFFFFFFFFFFFFFFF AND DUP2 MSTORE PUSH1 0x20 ADD PUSH8 0x3782DACE9D90000 DUP2 MSTORE POP DUP4 PUSH1 0x40 MLOAD PUSH1 0x20 ADD PUSH2 0x2C0 SWAP4 SWAP3 SWAP2 SWAP1 PUSH2 0xFD1 JUMP JUMPDEST PUSH1 0x40 MLOAD PUSH1 0x20 DUP2 DUP4 SUB SUB DUP2 MSTORE SWAP1 PUSH1 0x40 MSTORE SWAP1 POP PUSH1 0x0 PUSH1 0x1 PUSH1 0x0 SWAP1 SLOAD SWAP1 PUSH2 0x100 EXP SWAP1 DIV PUSH20 0xFFFFFFFFFFFFFFFFFFFFFFFFFFFFFFFFFFFFFFFF AND PUSH20 0xFFFFFFFFFFFFFFFFFFFFFFFFFFFFFFFFFFFFFFFF AND DUP3 PUSH1 0x40 MLOAD PUSH1 0x24 ADD PUSH2 0x31D SWAP2 SWAP1 PUSH2 0xDAF JUMP JUMPDEST PUSH1 0x40 MLOAD PUSH1 0x20 DUP2 DUP4 SUB SUB DUP2 MSTORE SWAP1 PUSH1 0x40 MSTORE PUSH32 0xCBEC489600000000000000000000000000000000000000000000000000000000 PUSH28 0xFFFFFFFFFFFFFFFFFFFFFFFFFFFFFFFFFFFFFFFFFFFFFFFFFFFFFFFF NOT AND PUSH1 0x20 DUP3 ADD DUP1 MLOAD PUSH28 0xFFFFFFFFFFFFFFFFFFFFFFFFFFFFFFFFFFFFFFFFFFFFFFFFFFFFFFFF DUP4 DUP2 DUP4 AND OR DUP4 MSTORE POP POP POP POP PUSH1 0x40 MLOAD PUSH2 0x3A7 SWAP2 SWAP1 PUSH2 0x1044 JUMP JUMPDEST PUSH1 0x0 PUSH1 0x40 MLOAD DUP1 DUP4 SUB DUP2 PUSH1 0x0 DUP7 GAS CALL SWAP2 POP POP RETURNDATASIZE DUP1 PUSH1 0x0 DUP2 EQ PUSH2 0x3E4 JUMPI PUSH1 0x40 MLOAD SWAP2 POP PUSH1 0x1F NOT PUSH1 0x3F RETURNDATASIZE ADD AND DUP3 ADD PUSH1 0x40 MSTORE RETURNDATASIZE DUP3 MSTORE RETURNDATASIZE PUSH1 0x0 PUSH1 0x20 DUP5 ADD RETURNDATACOPY PUSH2 0x3E9 JUMP JUMPDEST PUSH1 0x60 SWAP2 POP JUMPDEST POP POP SWAP1 POP DUP1 PUSH2 0x42D JUMPI PUSH1 0x40 MLOAD PUSH32 0x8C379A000000000000000000000000000000000000000000000000000000000 DUP2 MSTORE PUSH1 0x4 ADD PUSH2 0x424 SWAP1 PUSH2 0x10A7 JUMP JUMPDEST PUSH1 0x40 MLOAD DUP1 SWAP2 SUB SWAP1 REVERT JUMPDEST POP POP POP JUMP JUMPDEST PUSH1 0x0 PUSH1 0x3 DUP1 ADD SLOAD PUSH1 0x40 MLOAD PUSH1 0x20 ADD PUSH2 0x449 SWAP2 SWAP1 PUSH2 0x10E8 JUMP JUMPDEST PUSH1 0x40 MLOAD PUSH1 0x20 DUP2 DUP4 SUB SUB DUP2 MSTORE SWAP1 PUSH1 0x40 MSTORE PUSH2 0x461 SWAP1 PUSH2 0xF1D JUMP JUMPDEST SWAP1 POP SWAP1 JUMP JUMPDEST PUSH1 0x0 DUP1 SLOAD SWAP1 PUSH2 0x100 EXP SWAP1 DIV PUSH20 0xFFFFFFFFFFFFFFFFFFFFFFFFFFFFFFFFFFFFFFFF AND PUSH20 0xFFFFFFFFFFFFFFFFFFFFFFFFFFFFFFFFFFFFFFFF AND CALLER PUSH20 0xFFFFFFFFFFFFFFFFFFFFFFFFFFFFFFFFFFFFFFFF AND EQ PUSH2 0x4BE JUMPI PUSH1 0x0 DUP1 REVERT JUMPDEST CALLER PUSH20 0xFFFFFFFFFFFFFFFFFFFFFFFFFFFFFFFFFFFFFFFF AND SELFDESTRUCT JUMPDEST PUSH1 0x0 PUSH1 0x3 DUP1 ADD SLOAD PUSH1 0x40 MLOAD PUSH1 0x20 ADD PUSH2 0x4EE SWAP2 SWAP1 PUSH2 0x10E8 JUMP JUMPDEST PUSH1 0x40 MLOAD PUSH1 0x20 DUP2 DUP4 SUB SUB DUP2 MSTORE SWAP1 PUSH1 0x40 MSTORE PUSH2 0x506 SWAP1 PUSH2 0xF1D JUMP JUMPDEST SWAP1 POP PUSH1 0x0 PUSH1 0x1 PUSH1 0x0 SWAP1 SLOAD SWAP1 PUSH2 0x100 EXP SWAP1 DIV PUSH20 0xFFFFFFFFFFFFFFFFFFFFFFFFFFFFFFFFFFFFFFFF AND PUSH20 0xFFFFFFFFFFFFFFFFFFFFFFFFFFFFFFFFFFFFFFFF AND DUP3 PUSH1 0x40 MLOAD PUSH1 0x24 ADD PUSH2 0x554 SWAP2 SWAP1 PUSH2 0xA39 JUMP JUMPDEST PUSH1 0x40 MLOAD PUSH1 0x20 DUP2 DUP4 SUB SUB DUP2 MSTORE SWAP1 PUSH1 0x40 MSTORE PUSH32 0xE0CA0F3000000000000000000000000000000000000000000000000000000000 PUSH28 0xFFFFFFFFFFFFFFFFFFFFFFFFFFFFFFFFFFFFFFFFFFFFFFFFFFFFFFFF NOT AND PUSH1 0x20 DUP3 ADD DUP1 MLOAD PUSH28 0xFFFFFFFFFFFFFFFFFFFFFFFFFFFFFFFFFFFFFFFFFFFFFFFFFFFFFFFF DUP4 DUP2 DUP4 AND OR DUP4 MSTORE POP POP POP POP PUSH1 0x40 MLOAD PUSH2 0x5DE SWAP2 SWAP1 PUSH2 0x1044 JUMP JUMPDEST PUSH1 0x0 PUSH1 0x40 MLOAD DUP1 DUP4 SUB DUP2 PUSH1 0x0 DUP7 GAS CALL SWAP2 POP POP RETURNDATASIZE DUP1 PUSH1 0x0 DUP2 EQ PUSH2 0x61B JUMPI PUSH1 0x40 MLOAD SWAP2 POP PUSH1 0x1F NOT PUSH1 0x3F RETURNDATASIZE ADD AND DUP3 ADD PUSH1 0x40 MSTORE RETURNDATASIZE DUP3 MSTORE RETURNDATASIZE PUSH1 0x0 PUSH1 0x20 DUP5 ADD RETURNDATACOPY PUSH2 0x620 JUMP JUMPDEST PUSH1 0x60 SWAP2 POP JUMPDEST POP POP SWAP1 POP DUP1 PUSH2 0x664 JUMPI PUSH1 0x40 MLOAD PUSH32 0x8C379A000000000000000000000000000000000000000000000000000000000 DUP2 MSTORE PUSH1 0x4 ADD PUSH2 0x65B SWAP1 PUSH2 0x114F JUMP JUMPDEST PUSH1 0x40 MLOAD DUP1 SWAP2 SUB SWAP1 REVERT JUMPDEST POP POP JUMP JUMPDEST PUSH1 0x0 DUP1 SLOAD SWAP1 PUSH2 0x100 EXP SWAP1 DIV PUSH20 0xFFFFFFFFFFFFFFFFFFFFFFFFFFFFFFFFFFFFFFFF AND PUSH20 0xFFFFFFFFFFFFFFFFFFFFFFFFFFFFFFFFFFFFFFFF AND CALLER PUSH20 0xFFFFFFFFFFFFFFFFFFFFFFFFFFFFFFFFFFFFFFFF AND EQ PUSH2 0x6F6 JUMPI PUSH1 0x40 MLOAD PUSH32 0x8C379A000000000000000000000000000000000000000000000000000000000 DUP2 MSTORE PUSH1 0x4 ADD PUSH2 0x6ED SWAP1 PUSH2 0x11E1 JUMP JUMPDEST PUSH1 0x40 MLOAD DUP1 SWAP2 SUB SWAP1 REVERT JUMPDEST DUP1 PUSH1 0x1 PUSH1 0x0 PUSH2 0x100 EXP DUP2 SLOAD DUP2 PUSH20 0xFFFFFFFFFFFFFFFFFFFFFFFFFFFFFFFFFFFFFFFF MUL NOT AND SWAP1 DUP4 PUSH20 0xFFFFFFFFFFFFFFFFFFFFFFFFFFFFFFFFFFFFFFFF AND MUL OR SWAP1 SSTORE POP POP JUMP JUMPDEST PUSH1 0x3 DUP1 PUSH1 0x0 ADD SLOAD SWAP1 DUP1 PUSH1 0x1 ADD PUSH1 0x0 SWAP1 SLOAD SWAP1 PUSH2 0x100 EXP SWAP1 DIV PUSH1 0xF8 SHL SWAP1 DUP1 PUSH1 0x2 ADD DUP1 SLOAD PUSH2 0x764 SWAP1 PUSH2 0xE00 JUMP JUMPDEST DUP1 PUSH1 0x1F ADD PUSH1 0x20 DUP1 SWAP2 DIV MUL PUSH1 0x20 ADD PUSH1 0x40 MLOAD SWAP1 DUP2 ADD PUSH1 0x40 MSTORE DUP1 SWAP3 SWAP2 SWAP1 DUP2 DUP2 MSTORE PUSH1 0x20 ADD DUP3 DUP1 SLOAD PUSH2 0x790 SWAP1 PUSH2 0xE00 JUMP JUMPDEST DUP1 ISZERO PUSH2 0x7DD JUMPI DUP1 PUSH1 0x1F LT PUSH2 0x7B2 JUMPI PUSH2 0x100 DUP1 DUP4 SLOAD DIV MUL DUP4 MSTORE SWAP2 PUSH1 0x20 ADD SWAP2 PUSH2 0x7DD JUMP JUMPDEST DUP3 ADD SWAP2 SWAP1 PUSH1 0x0 MSTORE PUSH1 0x20 PUSH1 0x0 KECCAK256 SWAP1 JUMPDEST DUP2 SLOAD DUP2 MSTORE SWAP1 PUSH1 0x1 ADD SWAP1 PUSH1 0x20 ADD DUP1 DUP4 GT PUSH2 0x7C0 JUMPI DUP3 SWAP1 SUB PUSH1 0x1F AND DUP3 ADD SWAP2 JUMPDEST POP POP POP POP POP SWAP1 DUP1 PUSH1 0x3 ADD SLOAD SWAP1 DUP1 PUSH1 0x4 ADD PUSH1 0x0 SWAP1 SLOAD SWAP1 PUSH2 0x100 EXP SWAP1 DIV PUSH16 0xFFFFFFFFFFFFFFFFFFFFFFFFFFFFFFFF AND SWAP1 POP DUP6 JUMP JUMPDEST PUSH1 0x2 DUP1 SLOAD PUSH2 0x81C SWAP1 PUSH2 0xE00 JUMP JUMPDEST DUP1 PUSH1 0x1F ADD PUSH1 0x20 DUP1 SWAP2 DIV MUL PUSH1 0x20 ADD PUSH1 0x40 MLOAD SWAP1 DUP2 ADD PUSH1 0x40 MSTORE DUP1 SWAP3 SWAP2 SWAP1 DUP2 DUP2 MSTORE PUSH1 0x20 ADD DUP3 DUP1 SLOAD PUSH2 0x848 SWAP1 PUSH2 0xE00 JUMP JUMPDEST DUP1 ISZERO PUSH2 0x895 JUMPI DUP1 PUSH1 0x1F LT PUSH2 0x86A JUMPI PUSH2 0x100 DUP1 DUP4 SLOAD DIV MUL DUP4 MSTORE SWAP2 PUSH1 0x20 ADD SWAP2 PUSH2 0x895 JUMP JUMPDEST DUP3 ADD SWAP2 SWAP1 PUSH1 0x0 MSTORE PUSH1 0x20 PUSH1 0x0 KECCAK256 SWAP1 JUMPDEST DUP2 SLOAD DUP2 MSTORE SWAP1 PUSH1 0x1 ADD SWAP1 PUSH1 0x20 ADD DUP1 DUP4 GT PUSH2 0x878 JUMPI DUP3 SWAP1 SUB PUSH1 0x1F AND DUP3 ADD SWAP2 JUMPDEST POP POP POP POP POP DUP2 JUMP JUMPDEST DUP2 DUP2 DUP2 ADD SWAP1 PUSH2 0x8AC SWAP2 SWAP1 PUSH2 0x13E1 JUMP JUMPDEST PUSH1 0x3 PUSH1 0x0 ADD PUSH1 0x0 PUSH1 0x3 PUSH1 0x1 ADD PUSH1 0x0 PUSH1 0x3 PUSH1 0x2 ADD PUSH1 0x0 PUSH1 0x3 DUP1 ADD PUSH1 0x0 PUSH1 0x3 PUSH1 0x4 ADD PUSH1 0x0 DUP11 SWAP2 SWAP1 PUSH2 0x100 EXP DUP2 SLOAD DUP2 PUSH16 0xFFFFFFFFFFFFFFFFFFFFFFFFFFFFFFFF MUL NOT AND SWAP1 DUP4 PUSH16 0xFFFFFFFFFFFFFFFFFFFFFFFFFFFFFFFF AND MUL OR SWAP1 SSTORE POP DUP10 SWAP2 SWAP1 POP SSTORE DUP9 SWAP2 SWAP1 POP SWAP1 DUP2 PUSH2 0x91A SWAP2 SWAP1 PUSH2 0x1602 JUMP JUMPDEST POP DUP8 SWAP2 SWAP1 PUSH2 0x100 EXP DUP2 SLOAD DUP2 PUSH1 0xFF MUL NOT AND SWAP1 DUP4 PUSH1 0xF8 SHR MUL OR SWAP1 SSTORE POP DUP7 SWAP2 SWAP1 POP SSTORE POP POP POP POP POP PUSH2 0x946 PUSH2 0x4D7 JUMP JUMPDEST POP POP JUMP JUMPDEST PUSH1 0x0 DUP1 SLOAD SWAP1 PUSH2 0x100 EXP SWAP1 DIV PUSH20 0xFFFFFFFFFFFFFFFFFFFFFFFFFFFFFFFFFFFFFFFF AND DUP2 JUMP JUMPDEST PUSH1 0x60 PUSH1 0x0 PUSH1 0x2 PUSH1 0x40 MLOAD PUSH1 0x20 ADD PUSH2 0x984 SWAP2 SWAP1 PUSH2 0xED4 JUMP JUMPDEST PUSH1 0x40 MLOAD PUSH1 0x20 DUP2 DUP4 SUB SUB DUP2 MSTORE SWAP1 PUSH1 0x40 MSTORE PUSH2 0x99C SWAP1 PUSH2 0xF1D JUMP JUMPDEST SWAP1 POP ADDRESS PUSH1 0x40 MLOAD DUP1 PUSH1 0x40 ADD PUSH1 0x40 MSTORE DUP1 CALLER PUSH20 0xFFFFFFFFFFFFFFFFFFFFFFFFFFFFFFFFFFFFFFFF AND DUP2 MSTORE PUSH1 0x20 ADD PUSH8 0x3782DACE9D90000 DUP2 MSTORE POP DUP3 PUSH1 0x40 MLOAD PUSH1 0x20 ADD PUSH2 0x9E5 SWAP4 SWAP3 SWAP2 SWAP1 PUSH2 0xFD1 JUMP JUMPDEST PUSH1 0x40 MLOAD PUSH1 0x20 DUP2 DUP4 SUB SUB DUP2 MSTORE SWAP1 PUSH1 0x40 MSTORE SWAP2 POP POP SWAP1 JUMP JUMPDEST PUSH1 0x1 PUSH1 0x0 SWAP1 SLOAD SWAP1 PUSH2 0x100 EXP SWAP1 DIV PUSH20 0xFFFFFFFFFFFFFFFFFFFFFFFFFFFFFFFFFFFFFFFF AND DUP2 JUMP JUMPDEST PUSH1 0x0 DUP2 SWAP1 POP SWAP2 SWAP1 POP JUMP JUMPDEST PUSH2 0xA33 DUP2 PUSH2 0xA20 JUMP JUMPDEST DUP3 MSTORE POP POP JUMP JUMPDEST PUSH1 0x0 PUSH1 0x20 DUP3 ADD SWAP1 POP PUSH2 0xA4E PUSH1 0x0 DUP4 ADD DUP5 PUSH2 0xA2A JUMP JUMPDEST SWAP3 SWAP2 POP POP JUMP JUMPDEST PUSH1 0x0 PUSH1 0x40 MLOAD SWAP1 POP SWAP1 JUMP JUMPDEST PUSH1 0x0 DUP1 REVERT JUMPDEST PUSH1 0x0 DUP1 REVERT JUMPDEST PUSH1 0x0 PUSH20 0xFFFFFFFFFFFFFFFFFFFFFFFFFFFFFFFFFFFFFFFF DUP3 AND SWAP1 POP SWAP2 SWAP1 POP JUMP JUMPDEST PUSH1 0x0 PUSH2 0xA93 DUP3 PUSH2 0xA68 JUMP JUMPDEST SWAP1 POP SWAP2 SWAP1 POP JUMP JUMPDEST PUSH2 0xAA3 DUP2 PUSH2 0xA88 JUMP JUMPDEST DUP2 EQ PUSH2 0xAAE JUMPI PUSH1 0x0 DUP1 REVERT JUMPDEST POP JUMP JUMPDEST PUSH1 0x0 DUP2 CALLDATALOAD SWAP1 POP PUSH2 0xAC0 DUP2 PUSH2 0xA9A JUMP JUMPDEST SWAP3 SWAP2 POP POP JUMP JUMPDEST PUSH1 0x0 PUSH1 0x20 DUP3 DUP5 SUB SLT ISZERO PUSH2 0xADC JUMPI PUSH2 0xADB PUSH2 0xA5E JUMP JUMPDEST JUMPDEST PUSH1 0x0 PUSH2 0xAEA DUP5 DUP3 DUP6 ADD PUSH2 0xAB1 JUMP JUMPDEST SWAP2 POP POP SWAP3 SWAP2 POP POP JUMP JUMPDEST PUSH1 0x0 DUP2 SWAP1 POP SWAP2 SWAP1 POP JUMP JUMPDEST PUSH2 0xB06 DUP2 PUSH2 0xAF3 JUMP JUMPDEST DUP3 MSTORE POP POP JUMP JUMPDEST PUSH1 0x0 PUSH32 0xFF00000000000000000000000000000000000000000000000000000000000000 DUP3 AND SWAP1 POP SWAP2 SWAP1 POP JUMP JUMPDEST PUSH2 0xB41 DUP2 PUSH2 0xB0C JUMP JUMPDEST DUP3 MSTORE POP POP JUMP JUMPDEST PUSH1 0x0 DUP2 MLOAD SWAP1 POP SWAP2 SWAP1 POP JUMP JUMPDEST PUSH1 0x0 DUP3 DUP3 MSTORE PUSH1 0x20 DUP3 ADD SWAP1 POP SWAP3 SWAP2 POP POP JUMP JUMPDEST PUSH1 0x0 JUMPDEST DUP4 DUP2 LT ISZERO PUSH2 0xB81 JUMPI DUP1 DUP3 ADD MLOAD DUP2 DUP5 ADD MSTORE PUSH1 0x20 DUP2 ADD SWAP1 POP PUSH2 0xB66 JUMP JUMPDEST PUSH1 0x0 DUP5 DUP5 ADD MSTORE POP POP POP POP JUMP JUMPDEST PUSH1 0x0 PUSH1 0x1F NOT PUSH1 0x1F DUP4 ADD AND SWAP1 POP SWAP2 SWAP1 POP JUMP JUMPDEST PUSH1 0x0 PUSH2 0xBA9 DUP3 PUSH2 0xB47 JUMP JUMPDEST PUSH2 0xBB3 DUP2 DUP6 PUSH2 0xB52 JUMP JUMPDEST SWAP4 POP PUSH2 0xBC3 DUP2 DUP6 PUSH1 0x20 DUP7 ADD PUSH2 0xB63 JUMP JUMPDEST PUSH2 0xBCC DUP2 PUSH2 0xB8D JUMP JUMPDEST DUP5 ADD SWAP2 POP POP SWAP3 SWAP2 POP POP JUMP JUMPDEST PUSH1 0x0 PUSH16 0xFFFFFFFFFFFFFFFFFFFFFFFFFFFFFFFF DUP3 AND SWAP1 POP SWAP2 SWAP1 POP JUMP JUMPDEST PUSH2 0xBFC DUP2 PUSH2 0xBD7 JUMP JUMPDEST DUP3 MSTORE POP POP JUMP JUMPDEST PUSH1 0x0 PUSH1 0xA0 DUP3 ADD SWAP1 POP PUSH2 0xC17 PUSH1 0x0 DUP4 ADD DUP9 PUSH2 0xAFD JUMP JUMPDEST PUSH2 0xC24 PUSH1 0x20 DUP4 ADD DUP8 PUSH2 0xB38 JUMP JUMPDEST DUP2 DUP2 SUB PUSH1 0x40 DUP4 ADD MSTORE PUSH2 0xC36 DUP2 DUP7 PUSH2 0xB9E JUMP JUMPDEST SWAP1 POP PUSH2 0xC45 PUSH1 0x60 DUP4 ADD DUP6 PUSH2 0xA2A JUMP JUMPDEST PUSH2 0xC52 PUSH1 0x80 DUP4 ADD DUP5 PUSH2 0xBF3 JUMP JUMPDEST SWAP7 SWAP6 POP POP POP POP POP POP JUMP JUMPDEST PUSH1 0x0 PUSH1 0x20 DUP3 ADD SWAP1 POP DUP2 DUP2 SUB PUSH1 0x0 DUP4 ADD MSTORE PUSH2 0xC76 DUP2 DUP5 PUSH2 0xB9E JUMP JUMPDEST SWAP1 POP SWAP3 SWAP2 POP POP JUMP JUMPDEST PUSH1 0x0 DUP1 REVERT JUMPDEST PUSH1 0x0 DUP1 REVERT JUMPDEST PUSH1 0x0 DUP1 REVERT JUMPDEST PUSH1 0x0 DUP1 DUP4 PUSH1 0x1F DUP5 ADD SLT PUSH2 0xCA3 JUMPI PUSH2 0xCA2 PUSH2 0xC7E JUMP JUMPDEST JUMPDEST DUP3 CALLDATALOAD SWAP1 POP PUSH8 0xFFFFFFFFFFFFFFFF DUP2 GT ISZERO PUSH2 0xCC0 JUMPI PUSH2 0xCBF PUSH2 0xC83 JUMP JUMPDEST JUMPDEST PUSH1 0x20 DUP4 ADD SWAP2 POP DUP4 PUSH1 0x1 DUP3 MUL DUP4 ADD GT ISZERO PUSH2 0xCDC JUMPI PUSH2 0xCDB PUSH2 0xC88 JUMP JUMPDEST JUMPDEST SWAP3 POP SWAP3 SWAP1 POP JUMP JUMPDEST PUSH1 0x0 DUP1 PUSH1 0x20 DUP4 DUP6 SUB SLT ISZERO PUSH2 0xCFA JUMPI PUSH2 0xCF9 PUSH2 0xA5E JUMP JUMPDEST JUMPDEST PUSH1 0x0 DUP4 ADD CALLDATALOAD PUSH8 0xFFFFFFFFFFFFFFFF DUP2 GT ISZERO PUSH2 0xD18 JUMPI PUSH2 0xD17 PUSH2 0xA63 JUMP JUMPDEST JUMPDEST PUSH2 0xD24 DUP6 DUP3 DUP7 ADD PUSH2 0xC8D JUMP JUMPDEST SWAP3 POP SWAP3 POP POP SWAP3 POP SWAP3 SWAP1 POP JUMP JUMPDEST PUSH2 0xD39 DUP2 PUSH2 0xA88 JUMP JUMPDEST DUP3 MSTORE POP POP JUMP JUMPDEST PUSH1 0x0 PUSH1 0x20 DUP3 ADD SWAP1 POP PUSH2 0xD54 PUSH1 0x0 DUP4 ADD DUP5 PUSH2 0xD30 JUMP JUMPDEST SWAP3 SWAP2 POP POP JUMP JUMPDEST PUSH1 0x0 DUP2 MLOAD SWAP1 POP SWAP2 SWAP1 POP JUMP JUMPDEST PUSH1 0x0 DUP3 DUP3 MSTORE PUSH1 0x20 DUP3 ADD SWAP1 POP SWAP3 SWAP2 POP POP JUMP JUMPDEST PUSH1 0x0 PUSH2 0xD81 DUP3 PUSH2 0xD5A JUMP JUMPDEST PUSH2 0xD8B DUP2 DUP6 PUSH2 0xD65 JUMP JUMPDEST SWAP4 POP PUSH2 0xD9B DUP2 DUP6 PUSH1 0x20 DUP7 ADD PUSH2 0xB63 JUMP JUMPDEST PUSH2 0xDA4 DUP2 PUSH2 0xB8D JUMP JUMPDEST DUP5 ADD SWAP2 POP POP SWAP3 SWAP2 POP POP JUMP JUMPDEST PUSH1 0x0 PUSH1 0x20 DUP3 ADD SWAP1 POP DUP2 DUP2 SUB PUSH1 0x0 DUP4 ADD MSTORE PUSH2 0xDC9 DUP2 DUP5 PUSH2 0xD76 JUMP JUMPDEST SWAP1 POP SWAP3 SWAP2 POP POP JUMP JUMPDEST PUSH32 0x4E487B7100000000000000000000000000000000000000000000000000000000 PUSH1 0x0 MSTORE PUSH1 0x22 PUSH1 0x4 MSTORE PUSH1 0x24 PUSH1 0x0 REVERT JUMPDEST PUSH1 0x0 PUSH1 0x2 DUP3 DIV SWAP1 POP PUSH1 0x1 DUP3 AND DUP1 PUSH2 0xE18 JUMPI PUSH1 0x7F DUP3 AND SWAP2 POP JUMPDEST PUSH1 0x20 DUP3 LT DUP2 SUB PUSH2 0xE2B JUMPI PUSH2 0xE2A PUSH2 0xDD1 JUMP JUMPDEST JUMPDEST POP SWAP2 SWAP1 POP JUMP JUMPDEST PUSH1 0x0 DUP2 SWAP1 POP SWAP3 SWAP2 POP POP JUMP JUMPDEST PUSH1 0x0 DUP2 SWAP1 POP DUP2 PUSH1 0x0 MSTORE PUSH1 0x20 PUSH1 0x0 KECCAK256 SWAP1 POP SWAP2 SWAP1 POP JUMP JUMPDEST PUSH1 0x0 DUP2 SLOAD PUSH2 0xE5E DUP2 PUSH2 0xE00 JUMP JUMPDEST PUSH2 0xE68 DUP2 DUP7 PUSH2 0xE31 JUMP JUMPDEST SWAP5 POP PUSH1 0x1 DUP3 AND PUSH1 0x0 DUP2 EQ PUSH2 0xE83 JUMPI PUSH1 0x1 DUP2 EQ PUSH2 0xE98 JUMPI PUSH2 0xECB JUMP JUMPDEST PUSH1 0xFF NOT DUP4 AND DUP7 MSTORE DUP2 ISZERO ISZERO DUP3 MUL DUP7 ADD SWAP4 POP PUSH2 0xECB JUMP JUMPDEST PUSH2 0xEA1 DUP6 PUSH2 0xE3C JUMP JUMPDEST PUSH1 0x0 JUMPDEST DUP4 DUP2 LT ISZERO PUSH2 0xEC3 JUMPI DUP2 SLOAD DUP2 DUP10 ADD MSTORE PUSH1 0x1 DUP3 ADD SWAP2 POP PUSH1 0x20 DUP2 ADD SWAP1 POP PUSH2 0xEA4 JUMP JUMPDEST DUP4 DUP9 ADD SWAP6 POP POP POP JUMPDEST POP POP POP SWAP3 SWAP2 POP POP JUMP JUMPDEST PUSH1 0x0 PUSH2 0xEE0 DUP3 DUP5 PUSH2 0xE51 JUMP JUMPDEST SWAP2 POP DUP2 SWAP1 POP SWAP3 SWAP2 POP POP JUMP JUMPDEST PUSH1 0x0 DUP2 SWAP1 POP PUSH1 0x20 DUP3 ADD SWAP1 POP SWAP2 SWAP1 POP JUMP JUMPDEST PUSH1 0x0 PUSH2 0xF07 DUP3 MLOAD PUSH2 0xA20 JUMP JUMPDEST DUP1 SWAP2 POP POP SWAP2 SWAP1 POP JUMP JUMPDEST PUSH1 0x0 DUP3 DUP3 SHL SWAP1 POP SWAP3 SWAP2 POP POP JUMP JUMPDEST PUSH1 0x0 PUSH2 0xF28 DUP3 PUSH2 0xD5A JUMP JUMPDEST DUP3 PUSH2 0xF32 DUP5 PUSH2 0xEEB JUMP JUMPDEST SWAP1 POP PUSH2 0xF3D DUP2 PUSH2 0xEFB JUMP JUMPDEST SWAP3 POP PUSH1 0x20 DUP3 LT ISZERO PUSH2 0xF7D JUMPI PUSH2 0xF78 PUSH32 0xFFFFFFFFFFFFFFFFFFFFFFFFFFFFFFFFFFFFFFFFFFFFFFFFFFFFFFFFFFFFFFFF DUP4 PUSH1 0x20 SUB PUSH1 0x8 MUL PUSH2 0xF10 JUMP JUMPDEST DUP4 AND SWAP3 POP JUMPDEST POP POP SWAP2 SWAP1 POP JUMP JUMPDEST PUSH2 0xF8D DUP2 PUSH2 0xA88 JUMP JUMPDEST DUP3 MSTORE POP POP JUMP JUMPDEST PUSH2 0xF9C DUP2 PUSH2 0xAF3 JUMP JUMPDEST DUP3 MSTORE POP POP JUMP JUMPDEST PUSH1 0x40 DUP3 ADD PUSH1 0x0 DUP3 ADD MLOAD PUSH2 0xFB8 PUSH1 0x0 DUP6 ADD DUP3 PUSH2 0xF84 JUMP JUMPDEST POP PUSH1 0x20 DUP3 ADD MLOAD PUSH2 0xFCB PUSH1 0x20 DUP6 ADD DUP3 PUSH2 0xF93 JUMP JUMPDEST POP POP POP POP JUMP JUMPDEST PUSH1 0x0 PUSH1 0x80 DUP3 ADD SWAP1 POP PUSH2 0xFE6 PUSH1 0x0 DUP4 ADD DUP7 PUSH2 0xD30 JUMP JUMPDEST PUSH2 0xFF3 PUSH1 0x20 DUP4 ADD DUP6 PUSH2 0xFA2 JUMP JUMPDEST PUSH2 0x1000 PUSH1 0x60 DUP4 ADD DUP5 PUSH2 0xA2A JUMP JUMPDEST SWAP5 SWAP4 POP POP POP POP JUMP JUMPDEST PUSH1 0x0 DUP2 SWAP1 POP SWAP3 SWAP2 POP POP JUMP JUMPDEST PUSH1 0x0 PUSH2 0x101E DUP3 PUSH2 0xD5A JUMP JUMPDEST PUSH2 0x1028 DUP2 DUP6 PUSH2 0x1008 JUMP JUMPDEST SWAP4 POP PUSH2 0x1038 DUP2 DUP6 PUSH1 0x20 DUP7 ADD PUSH2 0xB63 JUMP JUMPDEST DUP1 DUP5 ADD SWAP2 POP POP SWAP3 SWAP2 POP POP JUMP JUMPDEST PUSH1 0x0 PUSH2 0x1050 DUP3 DUP5 PUSH2 0x1013 JUMP JUMPDEST SWAP2 POP DUP2 SWAP1 POP SWAP3 SWAP2 POP POP JUMP JUMPDEST PUSH32 0x596F75206661696C656420746F20656E636F64652C204C7570696E2100000000 PUSH1 0x0 DUP3 ADD MSTORE POP JUMP JUMPDEST PUSH1 0x0 PUSH2 0x1091 PUSH1 0x1C DUP4 PUSH2 0xB52 JUMP JUMPDEST SWAP2 POP PUSH2 0x109C DUP3 PUSH2 0x105B JUMP JUMPDEST PUSH1 0x20 DUP3 ADD SWAP1 POP SWAP2 SWAP1 POP JUMP JUMPDEST PUSH1 0x0 PUSH1 0x20 DUP3 ADD SWAP1 POP DUP2 DUP2 SUB PUSH1 0x0 DUP4 ADD MSTORE PUSH2 0x10C0 DUP2 PUSH2 0x1084 JUMP JUMPDEST SWAP1 POP SWAP2 SWAP1 POP JUMP JUMPDEST PUSH1 0x0 DUP2 SWAP1 POP SWAP2 SWAP1 POP JUMP JUMPDEST PUSH2 0x10E2 PUSH2 0x10DD DUP3 PUSH2 0xA20 JUMP JUMPDEST PUSH2 0x10C7 JUMP JUMPDEST DUP3 MSTORE POP POP JUMP JUMPDEST PUSH1 0x0 PUSH2 0x10F4 DUP3 DUP5 PUSH2 0x10D1 JUMP JUMPDEST PUSH1 0x20 DUP3 ADD SWAP2 POP DUP2 SWAP1 POP SWAP3 SWAP2 POP POP JUMP JUMPDEST PUSH32 0x596F75206661696C656420746F206465636F64652C204C7570696E2100000000 PUSH1 0x0 DUP3 ADD MSTORE POP JUMP JUMPDEST PUSH1 0x0 PUSH2 0x1139 PUSH1 0x1C DUP4 PUSH2 0xB52 JUMP JUMPDEST SWAP2 POP PUSH2 0x1144 DUP3 PUSH2 0x1103 JUMP JUMPDEST PUSH1 0x20 DUP3 ADD SWAP1 POP SWAP2 SWAP1 POP JUMP JUMPDEST PUSH1 0x0 PUSH1 0x20 DUP3 ADD SWAP1 POP DUP2 DUP2 SUB PUSH1 0x0 DUP4 ADD MSTORE PUSH2 0x1168 DUP2 PUSH2 0x112C JUMP JUMPDEST SWAP1 POP SWAP2 SWAP1 POP JUMP JUMPDEST PUSH32 0x4F6E6C79204C7570696E2063616E206465636964652077686F27732074617267 PUSH1 0x0 DUP3 ADD MSTORE PUSH32 0x6574000000000000000000000000000000000000000000000000000000000000 PUSH1 0x20 DUP3 ADD MSTORE POP JUMP JUMPDEST PUSH1 0x0 PUSH2 0x11CB PUSH1 0x22 DUP4 PUSH2 0xB52 JUMP JUMPDEST SWAP2 POP PUSH2 0x11D6 DUP3 PUSH2 0x116F JUMP JUMPDEST PUSH1 0x40 DUP3 ADD SWAP1 POP SWAP2 SWAP1 POP JUMP JUMPDEST PUSH1 0x0 PUSH1 0x20 DUP3 ADD SWAP1 POP DUP2 DUP2 SUB PUSH1 0x0 DUP4 ADD MSTORE PUSH2 0x11FA DUP2 PUSH2 0x11BE JUMP JUMPDEST SWAP1 POP SWAP2 SWAP1 POP JUMP JUMPDEST PUSH2 0x120A DUP2 PUSH2 0xAF3 JUMP JUMPDEST DUP2 EQ PUSH2 0x1215 JUMPI PUSH1 0x0 DUP1 REVERT JUMPDEST POP JUMP JUMPDEST PUSH1 0x0 DUP2 CALLDATALOAD SWAP1 POP PUSH2 0x1227 DUP2 PUSH2 0x1201 JUMP JUMPDEST SWAP3 SWAP2 POP POP JUMP JUMPDEST PUSH2 0x1236 DUP2 PUSH2 0xB0C JUMP JUMPDEST DUP2 EQ PUSH2 0x1241 JUMPI PUSH1 0x0 DUP1 REVERT JUMPDEST POP JUMP JUMPDEST PUSH1 0x0 DUP2 CALLDATALOAD SWAP1 POP PUSH2 0x1253 DUP2 PUSH2 0x122D JUMP JUMPDEST SWAP3 SWAP2 POP POP JUMP JUMPDEST PUSH1 0x0 DUP1 REVERT JUMPDEST PUSH32 0x4E487B7100000000000000000000000000000000000000000000000000000000 PUSH1 0x0 MSTORE PUSH1 0x41 PUSH1 0x4 MSTORE PUSH1 0x24 PUSH1 0x0 REVERT JUMPDEST PUSH2 0x1296 DUP3 PUSH2 0xB8D JUMP JUMPDEST DUP2 ADD DUP2 DUP2 LT PUSH8 0xFFFFFFFFFFFFFFFF DUP3 GT OR ISZERO PUSH2 0x12B5 JUMPI PUSH2 0x12B4 PUSH2 0x125E JUMP JUMPDEST JUMPDEST DUP1 PUSH1 0x40 MSTORE POP POP POP JUMP JUMPDEST PUSH1 0x0 PUSH2 0x12C8 PUSH2 0xA54 JUMP JUMPDEST SWAP1 POP PUSH2 0x12D4 DUP3 DUP3 PUSH2 0x128D JUMP JUMPDEST SWAP2 SWAP1 POP JUMP JUMPDEST PUSH1 0x0 PUSH8 0xFFFFFFFFFFFFFFFF DUP3 GT ISZERO PUSH2 0x12F4 JUMPI PUSH2 0x12F3 PUSH2 0x125E JUMP JUMPDEST JUMPDEST PUSH2 0x12FD DUP3 PUSH2 0xB8D JUMP JUMPDEST SWAP1 POP PUSH1 0x20 DUP2 ADD SWAP1 POP SWAP2 SWAP1 POP JUMP JUMPDEST DUP3 DUP2 DUP4 CALLDATACOPY PUSH1 0x0 DUP4 DUP4 ADD MSTORE POP POP POP JUMP JUMPDEST PUSH1 0x0 PUSH2 0x132C PUSH2 0x1327 DUP5 PUSH2 0x12D9 JUMP JUMPDEST PUSH2 0x12BE JUMP JUMPDEST SWAP1 POP DUP3 DUP2 MSTORE PUSH1 0x20 DUP2 ADD DUP5 DUP5 DUP5 ADD GT ISZERO PUSH2 0x1348 JUMPI PUSH2 0x1347 PUSH2 0x1259 JUMP JUMPDEST JUMPDEST PUSH2 0x1353 DUP5 DUP3 DUP6 PUSH2 0x130A JUMP JUMPDEST POP SWAP4 SWAP3 POP POP POP JUMP JUMPDEST PUSH1 0x0 DUP3 PUSH1 0x1F DUP4 ADD SLT PUSH2 0x1370 JUMPI PUSH2 0x136F PUSH2 0xC7E JUMP JUMPDEST JUMPDEST DUP2 CALLDATALOAD PUSH2 0x1380 DUP5 DUP3 PUSH1 0x20 DUP7 ADD PUSH2 0x1319 JUMP JUMPDEST SWAP2 POP POP SWAP3 SWAP2 POP POP JUMP JUMPDEST PUSH2 0x1392 DUP2 PUSH2 0xA20 JUMP JUMPDEST DUP2 EQ PUSH2 0x139D JUMPI PUSH1 0x0 DUP1 REVERT JUMPDEST POP JUMP JUMPDEST PUSH1 0x0 DUP2 CALLDATALOAD SWAP1 POP PUSH2 0x13AF DUP2 PUSH2 0x1389 JUMP JUMPDEST SWAP3 SWAP2 POP POP JUMP JUMPDEST PUSH2 0x13BE DUP2 PUSH2 0xBD7 JUMP JUMPDEST DUP2 EQ PUSH2 0x13C9 JUMPI PUSH1 0x0 DUP1 REVERT JUMPDEST POP JUMP JUMPDEST PUSH1 0x0 DUP2 CALLDATALOAD SWAP1 POP PUSH2 0x13DB DUP2 PUSH2 0x13B5 JUMP JUMPDEST SWAP3 SWAP2 POP POP JUMP JUMPDEST PUSH1 0x0 DUP1 PUSH1 0x0 DUP1 PUSH1 0x0 PUSH1 0xA0 DUP7 DUP9 SUB SLT ISZERO PUSH2 0x13FD JUMPI PUSH2 0x13FC PUSH2 0xA5E JUMP JUMPDEST JUMPDEST PUSH1 0x0 PUSH2 0x140B DUP9 DUP3 DUP10 ADD PUSH2 0x1218 JUMP JUMPDEST SWAP6 POP POP PUSH1 0x20 PUSH2 0x141C DUP9 DUP3 DUP10 ADD PUSH2 0x1244 JUMP JUMPDEST SWAP5 POP POP PUSH1 0x40 DUP7 ADD CALLDATALOAD PUSH8 0xFFFFFFFFFFFFFFFF DUP2 GT ISZERO PUSH2 0x143D JUMPI PUSH2 0x143C PUSH2 0xA63 JUMP JUMPDEST JUMPDEST PUSH2 0x1449 DUP9 DUP3 DUP10 ADD PUSH2 0x135B JUMP JUMPDEST SWAP4 POP POP PUSH1 0x60 PUSH2 0x145A DUP9 DUP3 DUP10 ADD PUSH2 0x13A0 JUMP JUMPDEST SWAP3 POP POP PUSH1 0x80 PUSH2 0x146B DUP9 DUP3 DUP10 ADD PUSH2 0x13CC JUMP JUMPDEST SWAP2 POP POP SWAP3 SWAP6 POP SWAP3 SWAP6 SWAP1 SWAP4 POP JUMP JUMPDEST PUSH1 0x0 PUSH1 0x20 PUSH1 0x1F DUP4 ADD DIV SWAP1 POP SWAP2 SWAP1 POP JUMP JUMPDEST PUSH1 0x0 PUSH1 0x8 DUP4 MUL PUSH2 0x14B8 PUSH32 0xFFFFFFFFFFFFFFFFFFFFFFFFFFFFFFFFFFFFFFFFFFFFFFFFFFFFFFFFFFFFFFFF DUP3 PUSH2 0xF10 JUMP JUMPDEST PUSH2 0x14C2 DUP7 DUP4 PUSH2 0xF10 JUMP JUMPDEST SWAP6 POP DUP1 NOT DUP5 AND SWAP4 POP DUP1 DUP7 AND DUP5 OR SWAP3 POP POP POP SWAP4 SWAP3 POP POP POP JUMP JUMPDEST PUSH1 0x0 DUP2 SWAP1 POP SWAP2 SWAP1 POP JUMP JUMPDEST PUSH1 0x0 PUSH2 0x14FF PUSH2 0x14FA PUSH2 0x14F5 DUP5 PUSH2 0xAF3 JUMP JUMPDEST PUSH2 0x14DA JUMP JUMPDEST PUSH2 0xAF3 JUMP JUMPDEST SWAP1 POP SWAP2 SWAP1 POP JUMP JUMPDEST PUSH1 0x0 DUP2 SWAP1 POP SWAP2 SWAP1 POP JUMP JUMPDEST PUSH2 0x1519 DUP4 PUSH2 0x14E4 JUMP JUMPDEST PUSH2 0x152D PUSH2 0x1525 DUP3 PUSH2 0x1506 JUMP JUMPDEST DUP5 DUP5 SLOAD PUSH2 0x1488 JUMP JUMPDEST DUP3 SSTORE POP POP POP POP JUMP JUMPDEST PUSH1 0x0 SWAP1 JUMP JUMPDEST PUSH2 0x1542 PUSH2 0x1535 JUMP JUMPDEST PUSH2 0x154D DUP2 DUP5 DUP5 PUSH2 0x1510 JUMP JUMPDEST POP POP POP JUMP JUMPDEST JUMPDEST DUP2 DUP2 LT ISZERO PUSH2 0x1571 JUMPI PUSH2 0x1566 PUSH1 0x0 DUP3 PUSH2 0x153A JUMP JUMPDEST PUSH1 0x1 DUP2 ADD SWAP1 POP PUSH2 0x1553 JUMP JUMPDEST POP POP JUMP JUMPDEST PUSH1 0x1F DUP3 GT ISZERO PUSH2 0x15B6 JUMPI PUSH2 0x1587 DUP2 PUSH2 0xE3C JUMP JUMPDEST PUSH2 0x1590 DUP5 PUSH2 0x1478 JUMP JUMPDEST DUP2 ADD PUSH1 0x20 DUP6 LT ISZERO PUSH2 0x159F JUMPI DUP2 SWAP1 POP JUMPDEST PUSH2 0x15B3 PUSH2 0x15AB DUP6 PUSH2 0x1478 JUMP JUMPDEST DUP4 ADD DUP3 PUSH2 0x1552 JUMP JUMPDEST POP POP JUMPDEST POP POP POP JUMP JUMPDEST PUSH1 0x0 DUP3 DUP3 SHR SWAP1 POP SWAP3 SWAP2 POP POP JUMP JUMPDEST PUSH1 0x0 PUSH2 0x15D9 PUSH1 0x0 NOT DUP5 PUSH1 0x8 MUL PUSH2 0x15BB JUMP JUMPDEST NOT DUP1 DUP4 AND SWAP2 POP POP SWAP3 SWAP2 POP POP JUMP JUMPDEST PUSH1 0x0 PUSH2 0x15F2 DUP4 DUP4 PUSH2 0x15C8 JUMP JUMPDEST SWAP2 POP DUP3 PUSH1 0x2 MUL DUP3 OR SWAP1 POP SWAP3 SWAP2 POP POP JUMP JUMPDEST PUSH2 0x160B DUP3 PUSH2 0xB47 JUMP JUMPDEST PUSH8 0xFFFFFFFFFFFFFFFF DUP2 GT ISZERO PUSH2 0x1624 JUMPI PUSH2 0x1623 PUSH2 0x125E JUMP JUMPDEST JUMPDEST PUSH2 0x162E DUP3 SLOAD PUSH2 0xE00 JUMP JUMPDEST PUSH2 0x1639 DUP3 DUP3 DUP6 PUSH2 0x1575 JUMP JUMPDEST PUSH1 0x0 PUSH1 0x20 SWAP1 POP PUSH1 0x1F DUP4 GT PUSH1 0x1 DUP2 EQ PUSH2 0x166C JUMPI PUSH1 0x0 DUP5 ISZERO PUSH2 0x165A JUMPI DUP3 DUP8 ADD MLOAD SWAP1 POP JUMPDEST PUSH2 0x1664 DUP6 DUP3 PUSH2 0x15E6 JUMP JUMPDEST DUP7 SSTORE POP PUSH2 0x16CC JUMP JUMPDEST PUSH1 0x1F NOT DUP5 AND PUSH2 0x167A DUP7 PUSH2 0xE3C JUMP JUMPDEST PUSH1 0x0 JUMPDEST DUP3 DUP2 LT ISZERO PUSH2 0x16A2 JUMPI DUP5 DUP10 ADD MLOAD DUP3 SSTORE PUSH1 0x1 DUP3 ADD SWAP2 POP PUSH1 0x20 DUP6 ADD SWAP5 POP PUSH1 0x20 DUP2 ADD SWAP1 POP PUSH2 0x167D JUMP JUMPDEST DUP7 DUP4 LT ISZERO PUSH2 0x16BF JUMPI DUP5 DUP10 ADD MLOAD PUSH2 0x16BB PUSH1 0x1F DUP10 AND DUP3 PUSH2 0x15C8 JUMP JUMPDEST DUP4 SSTORE POP JUMPDEST PUSH1 0x1 PUSH1 0x2 DUP9 MUL ADD DUP9 SSTORE POP POP POP JUMPDEST POP POP POP POP POP POP JUMP INVALID LOG2 PUSH5 0x6970667358 0x22 SLT KECCAK256 0xA9 0x5D BASEFEE 0xDB CALLCODE SWAP10 0xE6 MOD ADDMOD DIV 0x25 0xFB DUP15 DUP2 RETURNDATASIZE 0x2C LOG1 ORIGIN 0xB0 SELFDESTRUCT ADD 0xC8 SWAP7 DUP7 STOP ADDMOD 0xE2 DUP2 PUSH5 0x5FB11D6473 PUSH16 0x6C634300081200330000000000000000 "
		},
		"gasEstimates": {
			"creation": {
				"codeDepositCost": "1179600",
				"executionCost": "infinite",
				"totalCost": "infinite"
			},
			"external": {
				"composeDecodePassword()": "infinite",
				"composeEncodePassword()": "infinite",
				"kill()": "29955",
				"lupin()": "2577",
				"passwordForDecode()": "infinite",
				"passwordForEncode()": "infinite",
				"revealDecodePassword(bytes)": "infinite",
				"setTargetContract(address)": "26978",
				"stealWithDecodePassword()": "infinite",
				"stealWithEncodePassword()": "infinite",
				"target()": "2624"
			}
		},
		"methodIdentifiers": {
			"composeDecodePassword()": "14855195",
			"composeEncodePassword()": "c605d3c1",
			"kill()": "41c0e1b5",
			"lupin()": "9fe583bd",
			"passwordForDecode()": "66ca553b",
			"passwordForEncode()": "7a4ff39c",
			"revealDecodePassword(bytes)": "81a909f2",
			"setTargetContract(address)": "47fc822f",
			"stealWithDecodePassword()": "43e93e57",
			"stealWithEncodePassword()": "0546f044",
			"target()": "d4b83992"
		}
	},
	"abi": [
		{
			"inputs": [],
			"stateMutability": "nonpayable",
			"type": "constructor"
		},
		{
			"inputs": [],
			"name": "composeDecodePassword",
			"outputs": [
				{
					"internalType": "bytes32",
					"name": "reqData",
					"type": "bytes32"
				}
			],
			"stateMutability": "view",
			"type": "function"
		},
		{
			"inputs": [],
			"name": "composeEncodePassword",
			"outputs": [
				{
					"internalType": "bytes",
					"name": "reqData",
					"type": "bytes"
				}
			],
			"stateMutability": "view",
			"type": "function"
		},
		{
			"inputs": [],
			"name": "kill",
			"outputs": [],
			"stateMutability": "nonpayable",
			"type": "function"
		},
		{
			"inputs": [],
			"name": "lupin",
			"outputs": [
				{
					"internalType": "address",
					"name": "",
					"type": "address"
				}
			],
			"stateMutability": "view",
			"type": "function"
		},
		{
			"inputs": [],
			"name": "passwordForDecode",
			"outputs": [
				{
					"internalType": "uint256",
					"name": "a",
					"type": "uint256"
				},
				{
					"internalType": "bytes1",
					"name": "b",
					"type": "bytes1"
				},
				{
					"internalType": "string",
					"name": "c",
					"type": "string"
				},
				{
					"internalType": "bytes32",
					"name": "d",
					"type": "bytes32"
				},
				{
					"internalType": "uint128",
					"name": "e",
					"type": "uint128"
				}
			],
			"stateMutability": "view",
			"type": "function"
		},
		{
			"inputs": [],
			"name": "passwordForEncode",
			"outputs": [
				{
					"internalType": "string",
					"name": "",
					"type": "string"
				}
			],
			"stateMutability": "view",
			"type": "function"
		},
		{
			"inputs": [
				{
					"internalType": "bytes",
					"name": "data",
					"type": "bytes"
				}
			],
			"name": "revealDecodePassword",
			"outputs": [],
			"stateMutability": "nonpayable",
			"type": "function"
		},
		{
			"inputs": [
				{
					"internalType": "address",
					"name": "_target",
					"type": "address"
				}
			],
			"name": "setTargetContract",
			"outputs": [],
			"stateMutability": "nonpayable",
			"type": "function"
		},
		{
			"inputs": [],
			"name": "stealWithDecodePassword",
			"outputs": [],
			"stateMutability": "nonpayable",
			"type": "function"
		},
		{
			"inputs": [],
			"name": "stealWithEncodePassword",
			"outputs": [],
			"stateMutability": "nonpayable",
			"type": "function"
		},
		{
			"inputs": [],
			"name": "target",
			"outputs": [
				{
					"internalType": "address",
					"name": "",
					"type": "address"
				}
			],
			"stateMutability": "view",
			"type": "function"
		},
		{
			"stateMutability": "payable",
			"type": "receive"
		}
	]
}