{
	"appworks_blockchain_batch2/contracts/wk3/StateVariables.sol": {
		"StateVariables": {
			"abi": [
				{
					"inputs": [],
					"name": "foo",
					"outputs": [
						{
							"internalType": "uint256",
							"name": "",
							"type": "uint256"
						}
					],
					"stateMutability": "nonpayable",
					"type": "function"
				},
				{
					"inputs": [],
					"name": "myUint",
					"outputs": [
						{
							"internalType": "uint256",
							"name": "",
							"type": "uint256"
						}
					],
					"stateMutability": "view",
					"type": "function"
				}
			],
			"devdoc": {
				"kind": "dev",
				"methods": {},
				"version": 1
			},
			"evm": {
				"assembly": "    /* \"appworks_blockchain_batch2/contracts/wk3/StateVariables.sol\":111:577  contract StateVariables {... */\n  mstore(0x40, 0x80)\n    /* \"appworks_blockchain_batch2/contracts/wk3/StateVariables.sol\":316:319  123 */\n  0x7b\n    /* \"appworks_blockchain_batch2/contracts/wk3/StateVariables.sol\":295:319  uint public myUint = 123 */\n  0x00\n  sstore\n    /* \"appworks_blockchain_batch2/contracts/wk3/StateVariables.sol\":111:577  contract StateVariables {... */\n  callvalue\n  dup1\n  iszero\n  tag_1\n  jumpi\n  0x00\n  dup1\n  revert\ntag_1:\n  pop\n  dataSize(sub_0)\n  dup1\n  dataOffset(sub_0)\n  0x00\n  codecopy\n  0x00\n  return\nstop\n\nsub_0: assembly {\n        /* \"appworks_blockchain_batch2/contracts/wk3/StateVariables.sol\":111:577  contract StateVariables {... */\n      mstore(0x40, 0x80)\n      callvalue\n      dup1\n      iszero\n      tag_1\n      jumpi\n      0x00\n      dup1\n      revert\n    tag_1:\n      pop\n      jumpi(tag_2, lt(calldatasize, 0x04))\n      shr(0xe0, calldataload(0x00))\n      dup1\n      0x06540f7e\n      eq\n      tag_3\n      jumpi\n      dup1\n      0xc2985578\n      eq\n      tag_4\n      jumpi\n    tag_2:\n      0x00\n      dup1\n      revert\n        /* \"appworks_blockchain_batch2/contracts/wk3/StateVariables.sol\":295:319  uint public myUint = 123 */\n    tag_3:\n      tag_5\n      tag_6\n      jump\t// in\n    tag_5:\n      mload(0x40)\n      tag_7\n      swap2\n      swap1\n      tag_8\n      jump\t// in\n    tag_7:\n      mload(0x40)\n      dup1\n      swap2\n      sub\n      swap1\n      return\n        /* \"appworks_blockchain_batch2/contracts/wk3/StateVariables.sol\":326:574  function foo() external returns (uint) {... */\n    tag_4:\n      tag_9\n      tag_10\n      jump\t// in\n    tag_9:\n      mload(0x40)\n      tag_11\n      swap2\n      swap1\n      tag_8\n      jump\t// in\n    tag_11:\n      mload(0x40)\n      dup1\n      swap2\n      sub\n      swap1\n      return\n        /* \"appworks_blockchain_batch2/contracts/wk3/StateVariables.sol\":295:319  uint public myUint = 123 */\n    tag_6:\n      sload(0x00)\n      dup2\n      jump\t// out\n        /* \"appworks_blockchain_batch2/contracts/wk3/StateVariables.sol\":326:574  function foo() external returns (uint) {... */\n    tag_10:\n        /* \"appworks_blockchain_batch2/contracts/wk3/StateVariables.sol\":359:363  uint */\n      0x00\n        /* \"appworks_blockchain_batch2/contracts/wk3/StateVariables.sol\":507:528  uint notStateVariable */\n      dup1\n        /* \"appworks_blockchain_batch2/contracts/wk3/StateVariables.sol\":531:534  456 */\n      0x01c8\n        /* \"appworks_blockchain_batch2/contracts/wk3/StateVariables.sol\":507:534  uint notStateVariable = 456 */\n      swap1\n      pop\n        /* \"appworks_blockchain_batch2/contracts/wk3/StateVariables.sol\":551:567  notStateVariable */\n      dup1\n        /* \"appworks_blockchain_batch2/contracts/wk3/StateVariables.sol\":544:567  return notStateVariable */\n      swap2\n      pop\n      pop\n        /* \"appworks_blockchain_batch2/contracts/wk3/StateVariables.sol\":326:574  function foo() external returns (uint) {... */\n      swap1\n      jump\t// out\n        /* \"#utility.yul\":7:84   */\n    tag_13:\n        /* \"#utility.yul\":44:51   */\n      0x00\n        /* \"#utility.yul\":73:78   */\n      dup2\n        /* \"#utility.yul\":62:78   */\n      swap1\n      pop\n        /* \"#utility.yul\":7:84   */\n      swap2\n      swap1\n      pop\n      jump\t// out\n        /* \"#utility.yul\":90:208   */\n    tag_14:\n        /* \"#utility.yul\":177:201   */\n      tag_18\n        /* \"#utility.yul\":195:200   */\n      dup2\n        /* \"#utility.yul\":177:201   */\n      tag_13\n      jump\t// in\n    tag_18:\n        /* \"#utility.yul\":172:175   */\n      dup3\n        /* \"#utility.yul\":165:202   */\n      mstore\n        /* \"#utility.yul\":90:208   */\n      pop\n      pop\n      jump\t// out\n        /* \"#utility.yul\":214:436   */\n    tag_8:\n        /* \"#utility.yul\":307:311   */\n      0x00\n        /* \"#utility.yul\":345:347   */\n      0x20\n        /* \"#utility.yul\":334:343   */\n      dup3\n        /* \"#utility.yul\":330:348   */\n      add\n        /* \"#utility.yul\":322:348   */\n      swap1\n      pop\n        /* \"#utility.yul\":358:429   */\n      tag_20\n        /* \"#utility.yul\":426:427   */\n      0x00\n        /* \"#utility.yul\":415:424   */\n      dup4\n        /* \"#utility.yul\":411:428   */\n      add\n        /* \"#utility.yul\":402:408   */\n      dup5\n        /* \"#utility.yul\":358:429   */\n      tag_14\n      jump\t// in\n    tag_20:\n        /* \"#utility.yul\":214:436   */\n      swap3\n      swap2\n      pop\n      pop\n      jump\t// out\n\n    auxdata: 0xa26469706673582212202676f3c3f29875e223564f45603a014eb0c61b7ce1c7e835b448b8ff2a729aa364736f6c63430008130033\n}\n",
				"bytecode": {
					"linkReferences": {},
					"object": "6080604052607b60005534801561001557600080fd5b5060e6806100246000396000f3fe6080604052348015600f57600080fd5b506004361060325760003560e01c806306540f7e146037578063c2985578146051575b600080fd5b603d606b565b604051604891906097565b60405180910390f35b60576071565b604051606291906097565b60405180910390f35b60005481565b6000806101c890508091505090565b6000819050919050565b6091816080565b82525050565b600060208201905060aa6000830184608a565b9291505056fea26469706673582212202676f3c3f29875e223564f45603a014eb0c61b7ce1c7e835b448b8ff2a729aa364736f6c63430008130033",
					"opcodes": "PUSH1 0x80 PUSH1 0x40 MSTORE PUSH1 0x7B PUSH1 0x0 SSTORE CALLVALUE DUP1 ISZERO PUSH2 0x15 JUMPI PUSH1 0x0 DUP1 REVERT JUMPDEST POP PUSH1 0xE6 DUP1 PUSH2 0x24 PUSH1 0x0 CODECOPY PUSH1 0x0 RETURN INVALID PUSH1 0x80 PUSH1 0x40 MSTORE CALLVALUE DUP1 ISZERO PUSH1 0xF JUMPI PUSH1 0x0 DUP1 REVERT JUMPDEST POP PUSH1 0x4 CALLDATASIZE LT PUSH1 0x32 JUMPI PUSH1 0x0 CALLDATALOAD PUSH1 0xE0 SHR DUP1 PUSH4 0x6540F7E EQ PUSH1 0x37 JUMPI DUP1 PUSH4 0xC2985578 EQ PUSH1 0x51 JUMPI JUMPDEST PUSH1 0x0 DUP1 REVERT JUMPDEST PUSH1 0x3D PUSH1 0x6B JUMP JUMPDEST PUSH1 0x40 MLOAD PUSH1 0x48 SWAP2 SWAP1 PUSH1 0x97 JUMP JUMPDEST PUSH1 0x40 MLOAD DUP1 SWAP2 SUB SWAP1 RETURN JUMPDEST PUSH1 0x57 PUSH1 0x71 JUMP JUMPDEST PUSH1 0x40 MLOAD PUSH1 0x62 SWAP2 SWAP1 PUSH1 0x97 JUMP JUMPDEST PUSH1 0x40 MLOAD DUP1 SWAP2 SUB SWAP1 RETURN JUMPDEST PUSH1 0x0 SLOAD DUP2 JUMP JUMPDEST PUSH1 0x0 DUP1 PUSH2 0x1C8 SWAP1 POP DUP1 SWAP2 POP POP SWAP1 JUMP JUMPDEST PUSH1 0x0 DUP2 SWAP1 POP SWAP2 SWAP1 POP JUMP JUMPDEST PUSH1 0x91 DUP2 PUSH1 0x80 JUMP JUMPDEST DUP3 MSTORE POP POP JUMP JUMPDEST PUSH1 0x0 PUSH1 0x20 DUP3 ADD SWAP1 POP PUSH1 0xAA PUSH1 0x0 DUP4 ADD DUP5 PUSH1 0x8A JUMP JUMPDEST SWAP3 SWAP2 POP POP JUMP INVALID LOG2 PUSH5 0x6970667358 0x22 SLT KECCAK256 0x26 PUSH23 0xF3C3F29875E223564F45603A014EB0C61B7CE1C7E835B4 BASEFEE 0xB8 SELFDESTRUCT 0x2A PUSH19 0x9AA364736F6C63430008130033000000000000 "
				},
				"gasEstimates": {
					"creation": {
						"codeDepositCost": "46000",
						"executionCost": "22205",
						"totalCost": "68205"
					},
					"external": {
						"foo()": "350",
						"myUint()": "2407"
					}
				},
				"methodIdentifiers": {
					"foo()": "c2985578",
					"myUint()": "06540f7e"
				}
			},
			"storageLayout": {
				"storage": [
					{
						"astId": 4,
						"contract": "appworks_blockchain_batch2/contracts/wk3/StateVariables.sol:StateVariables",
						"label": "myUint",
						"offset": 0,
						"slot": "0",
						"type": "t_uint256"
					}
				],
				"types": {
					"t_uint256": {
						"encoding": "inplace",
						"label": "uint256",
						"numberOfBytes": "32"
					}
				}
			},
			"userdoc": {
				"kind": "user",
				"methods": {},
				"version": 1
			}
		}
	}
}