{
	"appworks_blockchain_batch2/contracts/wk3/Hash.sol": {
		"HashFunc": {
			"abi": [
				{
					"inputs": [
						{
							"internalType": "string",
							"name": "text0",
							"type": "string"
						},
						{
							"internalType": "uint256",
							"name": "x",
							"type": "uint256"
						},
						{
							"internalType": "string",
							"name": "text1",
							"type": "string"
						}
					],
					"name": "alsoNotCollision",
					"outputs": [
						{
							"internalType": "bytes32",
							"name": "",
							"type": "bytes32"
						}
					],
					"stateMutability": "pure",
					"type": "function"
				},
				{
					"inputs": [
						{
							"internalType": "string",
							"name": "text0",
							"type": "string"
						},
						{
							"internalType": "string",
							"name": "text1",
							"type": "string"
						}
					],
					"name": "collision",
					"outputs": [
						{
							"internalType": "bytes32",
							"name": "",
							"type": "bytes32"
						}
					],
					"stateMutability": "pure",
					"type": "function"
				},
				{
					"inputs": [
						{
							"internalType": "string",
							"name": "text0",
							"type": "string"
						},
						{
							"internalType": "string",
							"name": "text1",
							"type": "string"
						}
					],
					"name": "encode",
					"outputs": [
						{
							"internalType": "bytes",
							"name": "",
							"type": "bytes"
						}
					],
					"stateMutability": "pure",
					"type": "function"
				},
				{
					"inputs": [
						{
							"internalType": "string",
							"name": "text0",
							"type": "string"
						},
						{
							"internalType": "string",
							"name": "text1",
							"type": "string"
						}
					],
					"name": "encodePacked",
					"outputs": [
						{
							"internalType": "bytes",
							"name": "",
							"type": "bytes"
						}
					],
					"stateMutability": "pure",
					"type": "function"
				},
				{
					"inputs": [
						{
							"internalType": "string",
							"name": "text",
							"type": "string"
						},
						{
							"internalType": "uint256",
							"name": "num",
							"type": "uint256"
						},
						{
							"internalType": "address",
							"name": "addr",
							"type": "address"
						}
					],
					"name": "hash",
					"outputs": [
						{
							"internalType": "bytes32",
							"name": "",
							"type": "bytes32"
						}
					],
					"stateMutability": "pure",
					"type": "function"
				},
				{
					"inputs": [
						{
							"internalType": "string",
							"name": "text0",
							"type": "string"
						},
						{
							"internalType": "string",
							"name": "text1",
							"type": "string"
						}
					],
					"name": "notCollision",
					"outputs": [
						{
							"internalType": "bytes32",
							"name": "",
							"type": "bytes32"
						}
					],
					"stateMutability": "pure",
					"type": "function"
				}
			],
			"devdoc": {
				"kind": "dev",
				"methods": {},
				"version": 1
			},
			"evm": {
				"assembly": "    /* \"appworks_blockchain_batch2/contracts/wk3/Hash.sol\":111:1538  contract HashFunc {... */\n  mstore(0x40, 0x80)\n  callvalue\n  dup1\n  iszero\n  tag_1\n  jumpi\n  0x00\n  dup1\n  revert\ntag_1:\n  pop\n  dataSize(sub_0)\n  dup1\n  dataOffset(sub_0)\n  0x00\n  codecopy\n  0x00\n  return\nstop\n\nsub_0: assembly {\n        /* \"appworks_blockchain_batch2/contracts/wk3/Hash.sol\":111:1538  contract HashFunc {... */\n      mstore(0x40, 0x80)\n      callvalue\n      dup1\n      iszero\n      tag_1\n      jumpi\n      0x00\n      dup1\n      revert\n    tag_1:\n      pop\n      jumpi(tag_2, lt(calldatasize, 0x04))\n      shr(0xe0, calldataload(0x00))\n      dup1\n      0x17fe2da2\n      eq\n      tag_3\n      jumpi\n      dup1\n      0x46231fea\n      eq\n      tag_4\n      jumpi\n      dup1\n      0x5dda416e\n      eq\n      tag_5\n      jumpi\n      dup1\n      0x7b7fb982\n      eq\n      tag_6\n      jumpi\n      dup1\n      0x892e5d01\n      eq\n      tag_7\n      jumpi\n      dup1\n      0xc181e5b3\n      eq\n      tag_8\n      jumpi\n    tag_2:\n      0x00\n      dup1\n      revert\n        /* \"appworks_blockchain_batch2/contracts/wk3/Hash.sol\":459:602  function encode(string memory text0, string memory text1) external pure returns (bytes memory) {... */\n    tag_3:\n      tag_9\n      0x04\n      dup1\n      calldatasize\n      sub\n      dup2\n      add\n      swap1\n      tag_10\n      swap2\n      swap1\n      tag_11\n      jump\t// in\n    tag_10:\n      tag_12\n      jump\t// in\n    tag_9:\n      mload(0x40)\n      tag_13\n      swap2\n      swap1\n      tag_14\n      jump\t// in\n    tag_13:\n      mload(0x40)\n      dup1\n      swap2\n      sub\n      swap1\n      return\n        /* \"appworks_blockchain_batch2/contracts/wk3/Hash.sol\":1366:1536  function alsoNotCollision(string memory text0, uint x, string memory text1) external pure returns (bytes32) {... */\n    tag_4:\n      tag_15\n      0x04\n      dup1\n      calldatasize\n      sub\n      dup2\n      add\n      swap1\n      tag_16\n      swap2\n      swap1\n      tag_17\n      jump\t// in\n    tag_16:\n      tag_18\n      jump\t// in\n    tag_15:\n      mload(0x40)\n      tag_19\n      swap2\n      swap1\n      tag_20\n      jump\t// in\n    tag_19:\n      mload(0x40)\n      dup1\n      swap2\n      sub\n      swap1\n      return\n        /* \"appworks_blockchain_batch2/contracts/wk3/Hash.sol\":135:293  function hash(string memory text, uint num, address addr) external pure returns (bytes32) {... */\n    tag_5:\n      tag_21\n      0x04\n      dup1\n      calldatasize\n      sub\n      dup2\n      add\n      swap1\n      tag_22\n      swap2\n      swap1\n      tag_23\n      jump\t// in\n    tag_22:\n      tag_24\n      jump\t// in\n    tag_21:\n      mload(0x40)\n      tag_25\n      swap2\n      swap1\n      tag_20\n      jump\t// in\n    tag_25:\n      mload(0x40)\n      dup1\n      swap2\n      sub\n      swap1\n      return\n        /* \"appworks_blockchain_batch2/contracts/wk3/Hash.sol\":925:1083  function collision(string memory text0, string memory text1) external pure returns (bytes32) {... */\n    tag_6:\n      tag_26\n      0x04\n      dup1\n      calldatasize\n      sub\n      dup2\n      add\n      swap1\n      tag_27\n      swap2\n      swap1\n      tag_11\n      jump\t// in\n    tag_27:\n      tag_28\n      jump\t// in\n    tag_26:\n      mload(0x40)\n      tag_29\n      swap2\n      swap1\n      tag_20\n      jump\t// in\n    tag_29:\n      mload(0x40)\n      dup1\n      swap2\n      sub\n      swap1\n      return\n        /* \"appworks_blockchain_batch2/contracts/wk3/Hash.sol\":764:919  function encodePacked(string memory text0, string memory text1) external pure returns (bytes memory) {... */\n    tag_7:\n      tag_30\n      0x04\n      dup1\n      calldatasize\n      sub\n      dup2\n      add\n      swap1\n      tag_31\n      swap2\n      swap1\n      tag_11\n      jump\t// in\n    tag_31:\n      tag_32\n      jump\t// in\n    tag_30:\n      mload(0x40)\n      tag_33\n      swap2\n      swap1\n      tag_14\n      jump\t// in\n    tag_33:\n      mload(0x40)\n      dup1\n      swap2\n      sub\n      swap1\n      return\n        /* \"appworks_blockchain_batch2/contracts/wk3/Hash.sol\":1144:1299  function notCollision(string memory text0, string memory text1) external pure returns (bytes32) {... */\n    tag_8:\n      tag_34\n      0x04\n      dup1\n      calldatasize\n      sub\n      dup2\n      add\n      swap1\n      tag_35\n      swap2\n      swap1\n      tag_11\n      jump\t// in\n    tag_35:\n      tag_36\n      jump\t// in\n    tag_34:\n      mload(0x40)\n      tag_37\n      swap2\n      swap1\n      tag_20\n      jump\t// in\n    tag_37:\n      mload(0x40)\n      dup1\n      swap2\n      sub\n      swap1\n      return\n        /* \"appworks_blockchain_batch2/contracts/wk3/Hash.sol\":459:602  function encode(string memory text0, string memory text1) external pure returns (bytes memory) {... */\n    tag_12:\n        /* \"appworks_blockchain_batch2/contracts/wk3/Hash.sol\":540:552  bytes memory */\n      0x60\n        /* \"appworks_blockchain_batch2/contracts/wk3/Hash.sol\":582:587  text0 */\n      dup3\n        /* \"appworks_blockchain_batch2/contracts/wk3/Hash.sol\":589:594  text1 */\n      dup3\n        /* \"appworks_blockchain_batch2/contracts/wk3/Hash.sol\":571:595  abi.encode(text0, text1) */\n      add(0x20, mload(0x40))\n      tag_39\n      swap3\n      swap2\n      swap1\n      tag_40\n      jump\t// in\n    tag_39:\n      mload(0x40)\n      0x20\n      dup2\n      dup4\n      sub\n      sub\n      dup2\n      mstore\n      swap1\n      0x40\n      mstore\n        /* \"appworks_blockchain_batch2/contracts/wk3/Hash.sol\":564:595  return abi.encode(text0, text1) */\n      swap1\n      pop\n        /* \"appworks_blockchain_batch2/contracts/wk3/Hash.sol\":459:602  function encode(string memory text0, string memory text1) external pure returns (bytes memory) {... */\n      swap3\n      swap2\n      pop\n      pop\n      jump\t// out\n        /* \"appworks_blockchain_batch2/contracts/wk3/Hash.sol\":1366:1536  function alsoNotCollision(string memory text0, uint x, string memory text1) external pure returns (bytes32) {... */\n    tag_18:\n        /* \"appworks_blockchain_batch2/contracts/wk3/Hash.sol\":1465:1472  bytes32 */\n      0x00\n        /* \"appworks_blockchain_batch2/contracts/wk3/Hash.sol\":1512:1517  text0 */\n      dup4\n        /* \"appworks_blockchain_batch2/contracts/wk3/Hash.sol\":1519:1520  x */\n      dup4\n        /* \"appworks_blockchain_batch2/contracts/wk3/Hash.sol\":1522:1527  text1 */\n      dup4\n        /* \"appworks_blockchain_batch2/contracts/wk3/Hash.sol\":1501:1528  abi.encode(text0, x, text1) */\n      add(0x20, mload(0x40))\n      tag_42\n      swap4\n      swap3\n      swap2\n      swap1\n      tag_43\n      jump\t// in\n    tag_42:\n      mload(0x40)\n      0x20\n      dup2\n      dup4\n      sub\n      sub\n      dup2\n      mstore\n      swap1\n      0x40\n      mstore\n        /* \"appworks_blockchain_batch2/contracts/wk3/Hash.sol\":1491:1529  keccak256(abi.encode(text0, x, text1)) */\n      dup1\n      mload\n      swap1\n      0x20\n      add\n      keccak256\n        /* \"appworks_blockchain_batch2/contracts/wk3/Hash.sol\":1484:1529  return keccak256(abi.encode(text0, x, text1)) */\n      swap1\n      pop\n        /* \"appworks_blockchain_batch2/contracts/wk3/Hash.sol\":1366:1536  function alsoNotCollision(string memory text0, uint x, string memory text1) external pure returns (bytes32) {... */\n      swap4\n      swap3\n      pop\n      pop\n      pop\n      jump\t// out\n        /* \"appworks_blockchain_batch2/contracts/wk3/Hash.sol\":135:293  function hash(string memory text, uint num, address addr) external pure returns (bytes32) {... */\n    tag_24:\n        /* \"appworks_blockchain_batch2/contracts/wk3/Hash.sol\":216:223  bytes32 */\n      0x00\n        /* \"appworks_blockchain_batch2/contracts/wk3/Hash.sol\":269:273  text */\n      dup4\n        /* \"appworks_blockchain_batch2/contracts/wk3/Hash.sol\":275:278  num */\n      dup4\n        /* \"appworks_blockchain_batch2/contracts/wk3/Hash.sol\":280:284  addr */\n      dup4\n        /* \"appworks_blockchain_batch2/contracts/wk3/Hash.sol\":252:285  abi.encodePacked(text, num, addr) */\n      add(0x20, mload(0x40))\n      tag_45\n      swap4\n      swap3\n      swap2\n      swap1\n      tag_46\n      jump\t// in\n    tag_45:\n      mload(0x40)\n      0x20\n      dup2\n      dup4\n      sub\n      sub\n      dup2\n      mstore\n      swap1\n      0x40\n      mstore\n        /* \"appworks_blockchain_batch2/contracts/wk3/Hash.sol\":242:286  keccak256(abi.encodePacked(text, num, addr)) */\n      dup1\n      mload\n      swap1\n      0x20\n      add\n      keccak256\n        /* \"appworks_blockchain_batch2/contracts/wk3/Hash.sol\":235:286  return keccak256(abi.encodePacked(text, num, addr)) */\n      swap1\n      pop\n        /* \"appworks_blockchain_batch2/contracts/wk3/Hash.sol\":135:293  function hash(string memory text, uint num, address addr) external pure returns (bytes32) {... */\n      swap4\n      swap3\n      pop\n      pop\n      pop\n      jump\t// out\n        /* \"appworks_blockchain_batch2/contracts/wk3/Hash.sol\":925:1083  function collision(string memory text0, string memory text1) external pure returns (bytes32) {... */\n    tag_28:\n        /* \"appworks_blockchain_batch2/contracts/wk3/Hash.sol\":1009:1016  bytes32 */\n      0x00\n        /* \"appworks_blockchain_batch2/contracts/wk3/Hash.sol\":1062:1067  text0 */\n      dup3\n        /* \"appworks_blockchain_batch2/contracts/wk3/Hash.sol\":1069:1074  text1 */\n      dup3\n        /* \"appworks_blockchain_batch2/contracts/wk3/Hash.sol\":1045:1075  abi.encodePacked(text0, text1) */\n      add(0x20, mload(0x40))\n      tag_48\n      swap3\n      swap2\n      swap1\n      tag_49\n      jump\t// in\n    tag_48:\n      mload(0x40)\n      0x20\n      dup2\n      dup4\n      sub\n      sub\n      dup2\n      mstore\n      swap1\n      0x40\n      mstore\n        /* \"appworks_blockchain_batch2/contracts/wk3/Hash.sol\":1035:1076  keccak256(abi.encodePacked(text0, text1)) */\n      dup1\n      mload\n      swap1\n      0x20\n      add\n      keccak256\n        /* \"appworks_blockchain_batch2/contracts/wk3/Hash.sol\":1028:1076  return keccak256(abi.encodePacked(text0, text1)) */\n      swap1\n      pop\n        /* \"appworks_blockchain_batch2/contracts/wk3/Hash.sol\":925:1083  function collision(string memory text0, string memory text1) external pure returns (bytes32) {... */\n      swap3\n      swap2\n      pop\n      pop\n      jump\t// out\n        /* \"appworks_blockchain_batch2/contracts/wk3/Hash.sol\":764:919  function encodePacked(string memory text0, string memory text1) external pure returns (bytes memory) {... */\n    tag_32:\n        /* \"appworks_blockchain_batch2/contracts/wk3/Hash.sol\":851:863  bytes memory */\n      0x60\n        /* \"appworks_blockchain_batch2/contracts/wk3/Hash.sol\":899:904  text0 */\n      dup3\n        /* \"appworks_blockchain_batch2/contracts/wk3/Hash.sol\":906:911  text1 */\n      dup3\n        /* \"appworks_blockchain_batch2/contracts/wk3/Hash.sol\":882:912  abi.encodePacked(text0, text1) */\n      add(0x20, mload(0x40))\n      tag_51\n      swap3\n      swap2\n      swap1\n      tag_49\n      jump\t// in\n    tag_51:\n      mload(0x40)\n      0x20\n      dup2\n      dup4\n      sub\n      sub\n      dup2\n      mstore\n      swap1\n      0x40\n      mstore\n        /* \"appworks_blockchain_batch2/contracts/wk3/Hash.sol\":875:912  return abi.encodePacked(text0, text1) */\n      swap1\n      pop\n        /* \"appworks_blockchain_batch2/contracts/wk3/Hash.sol\":764:919  function encodePacked(string memory text0, string memory text1) external pure returns (bytes memory) {... */\n      swap3\n      swap2\n      pop\n      pop\n      jump\t// out\n        /* \"appworks_blockchain_batch2/contracts/wk3/Hash.sol\":1144:1299  function notCollision(string memory text0, string memory text1) external pure returns (bytes32) {... */\n    tag_36:\n        /* \"appworks_blockchain_batch2/contracts/wk3/Hash.sol\":1231:1238  bytes32 */\n      0x00\n        /* \"appworks_blockchain_batch2/contracts/wk3/Hash.sol\":1278:1283  text0 */\n      dup3\n        /* \"appworks_blockchain_batch2/contracts/wk3/Hash.sol\":1285:1290  text1 */\n      dup3\n        /* \"appworks_blockchain_batch2/contracts/wk3/Hash.sol\":1267:1291  abi.encode(text0, text1) */\n      add(0x20, mload(0x40))\n      tag_53\n      swap3\n      swap2\n      swap1\n      tag_40\n      jump\t// in\n    tag_53:\n      mload(0x40)\n      0x20\n      dup2\n      dup4\n      sub\n      sub\n      dup2\n      mstore\n      swap1\n      0x40\n      mstore\n        /* \"appworks_blockchain_batch2/contracts/wk3/Hash.sol\":1257:1292  keccak256(abi.encode(text0, text1)) */\n      dup1\n      mload\n      swap1\n      0x20\n      add\n      keccak256\n        /* \"appworks_blockchain_batch2/contracts/wk3/Hash.sol\":1250:1292  return keccak256(abi.encode(text0, text1)) */\n      swap1\n      pop\n        /* \"appworks_blockchain_batch2/contracts/wk3/Hash.sol\":1144:1299  function notCollision(string memory text0, string memory text1) external pure returns (bytes32) {... */\n      swap3\n      swap2\n      pop\n      pop\n      jump\t// out\n        /* \"#utility.yul\":7:82   */\n    tag_54:\n        /* \"#utility.yul\":40:46   */\n      0x00\n        /* \"#utility.yul\":73:75   */\n      0x40\n        /* \"#utility.yul\":67:76   */\n      mload\n        /* \"#utility.yul\":57:76   */\n      swap1\n      pop\n        /* \"#utility.yul\":7:82   */\n      swap1\n      jump\t// out\n        /* \"#utility.yul\":88:205   */\n    tag_55:\n        /* \"#utility.yul\":197:198   */\n      0x00\n        /* \"#utility.yul\":194:195   */\n      dup1\n        /* \"#utility.yul\":187:199   */\n      revert\n        /* \"#utility.yul\":211:328   */\n    tag_56:\n        /* \"#utility.yul\":320:321   */\n      0x00\n        /* \"#utility.yul\":317:318   */\n      dup1\n        /* \"#utility.yul\":310:322   */\n      revert\n        /* \"#utility.yul\":334:451   */\n    tag_57:\n        /* \"#utility.yul\":443:444   */\n      0x00\n        /* \"#utility.yul\":440:441   */\n      dup1\n        /* \"#utility.yul\":433:445   */\n      revert\n        /* \"#utility.yul\":457:574   */\n    tag_58:\n        /* \"#utility.yul\":566:567   */\n      0x00\n        /* \"#utility.yul\":563:564   */\n      dup1\n        /* \"#utility.yul\":556:568   */\n      revert\n        /* \"#utility.yul\":580:682   */\n    tag_59:\n        /* \"#utility.yul\":621:627   */\n      0x00\n        /* \"#utility.yul\":672:674   */\n      0x1f\n        /* \"#utility.yul\":668:675   */\n      not\n        /* \"#utility.yul\":663:665   */\n      0x1f\n        /* \"#utility.yul\":656:661   */\n      dup4\n        /* \"#utility.yul\":652:666   */\n      add\n        /* \"#utility.yul\":648:676   */\n      and\n        /* \"#utility.yul\":638:676   */\n      swap1\n      pop\n        /* \"#utility.yul\":580:682   */\n      swap2\n      swap1\n      pop\n      jump\t// out\n        /* \"#utility.yul\":688:868   */\n    tag_60:\n        /* \"#utility.yul\":736:813   */\n      0x4e487b7100000000000000000000000000000000000000000000000000000000\n        /* \"#utility.yul\":733:734   */\n      0x00\n        /* \"#utility.yul\":726:814   */\n      mstore\n        /* \"#utility.yul\":833:837   */\n      0x41\n        /* \"#utility.yul\":830:831   */\n      0x04\n        /* \"#utility.yul\":823:838   */\n      mstore\n        /* \"#utility.yul\":857:861   */\n      0x24\n        /* \"#utility.yul\":854:855   */\n      0x00\n        /* \"#utility.yul\":847:862   */\n      revert\n        /* \"#utility.yul\":874:1155   */\n    tag_61:\n        /* \"#utility.yul\":957:984   */\n      tag_101\n        /* \"#utility.yul\":979:983   */\n      dup3\n        /* \"#utility.yul\":957:984   */\n      tag_59\n      jump\t// in\n    tag_101:\n        /* \"#utility.yul\":949:955   */\n      dup2\n        /* \"#utility.yul\":945:985   */\n      add\n        /* \"#utility.yul\":1087:1093   */\n      dup2\n        /* \"#utility.yul\":1075:1085   */\n      dup2\n        /* \"#utility.yul\":1072:1094   */\n      lt\n        /* \"#utility.yul\":1051:1069   */\n      0xffffffffffffffff\n        /* \"#utility.yul\":1039:1049   */\n      dup3\n        /* \"#utility.yul\":1036:1070   */\n      gt\n        /* \"#utility.yul\":1033:1095   */\n      or\n        /* \"#utility.yul\":1030:1118   */\n      iszero\n      tag_102\n      jumpi\n        /* \"#utility.yul\":1098:1116   */\n      tag_103\n      tag_60\n      jump\t// in\n    tag_103:\n        /* \"#utility.yul\":1030:1118   */\n    tag_102:\n        /* \"#utility.yul\":1138:1148   */\n      dup1\n        /* \"#utility.yul\":1134:1136   */\n      0x40\n        /* \"#utility.yul\":1127:1149   */\n      mstore\n        /* \"#utility.yul\":917:1155   */\n      pop\n        /* \"#utility.yul\":874:1155   */\n      pop\n      pop\n      jump\t// out\n        /* \"#utility.yul\":1161:1290   */\n    tag_62:\n        /* \"#utility.yul\":1195:1201   */\n      0x00\n        /* \"#utility.yul\":1222:1242   */\n      tag_105\n      tag_54\n      jump\t// in\n    tag_105:\n        /* \"#utility.yul\":1212:1242   */\n      swap1\n      pop\n        /* \"#utility.yul\":1251:1284   */\n      tag_106\n        /* \"#utility.yul\":1279:1283   */\n      dup3\n        /* \"#utility.yul\":1271:1277   */\n      dup3\n        /* \"#utility.yul\":1251:1284   */\n      tag_61\n      jump\t// in\n    tag_106:\n        /* \"#utility.yul\":1161:1290   */\n      swap2\n      swap1\n      pop\n      jump\t// out\n        /* \"#utility.yul\":1296:1604   */\n    tag_63:\n        /* \"#utility.yul\":1358:1362   */\n      0x00\n        /* \"#utility.yul\":1448:1466   */\n      0xffffffffffffffff\n        /* \"#utility.yul\":1440:1446   */\n      dup3\n        /* \"#utility.yul\":1437:1467   */\n      gt\n        /* \"#utility.yul\":1434:1490   */\n      iszero\n      tag_108\n      jumpi\n        /* \"#utility.yul\":1470:1488   */\n      tag_109\n      tag_60\n      jump\t// in\n    tag_109:\n        /* \"#utility.yul\":1434:1490   */\n    tag_108:\n        /* \"#utility.yul\":1508:1537   */\n      tag_110\n        /* \"#utility.yul\":1530:1536   */\n      dup3\n        /* \"#utility.yul\":1508:1537   */\n      tag_59\n      jump\t// in\n    tag_110:\n        /* \"#utility.yul\":1500:1537   */\n      swap1\n      pop\n        /* \"#utility.yul\":1592:1596   */\n      0x20\n        /* \"#utility.yul\":1586:1590   */\n      dup2\n        /* \"#utility.yul\":1582:1597   */\n      add\n        /* \"#utility.yul\":1574:1597   */\n      swap1\n      pop\n        /* \"#utility.yul\":1296:1604   */\n      swap2\n      swap1\n      pop\n      jump\t// out\n        /* \"#utility.yul\":1610:1756   */\n    tag_64:\n        /* \"#utility.yul\":1707:1713   */\n      dup3\n        /* \"#utility.yul\":1702:1705   */\n      dup2\n        /* \"#utility.yul\":1697:1700   */\n      dup4\n        /* \"#utility.yul\":1684:1714   */\n      calldatacopy\n        /* \"#utility.yul\":1748:1749   */\n      0x00\n        /* \"#utility.yul\":1739:1745   */\n      dup4\n        /* \"#utility.yul\":1734:1737   */\n      dup4\n        /* \"#utility.yul\":1730:1746   */\n      add\n        /* \"#utility.yul\":1723:1750   */\n      mstore\n        /* \"#utility.yul\":1610:1756   */\n      pop\n      pop\n      pop\n      jump\t// out\n        /* \"#utility.yul\":1762:2187   */\n    tag_65:\n        /* \"#utility.yul\":1840:1845   */\n      0x00\n        /* \"#utility.yul\":1865:1931   */\n      tag_113\n        /* \"#utility.yul\":1881:1930   */\n      tag_114\n        /* \"#utility.yul\":1923:1929   */\n      dup5\n        /* \"#utility.yul\":1881:1930   */\n      tag_63\n      jump\t// in\n    tag_114:\n        /* \"#utility.yul\":1865:1931   */\n      tag_62\n      jump\t// in\n    tag_113:\n        /* \"#utility.yul\":1856:1931   */\n      swap1\n      pop\n        /* \"#utility.yul\":1954:1960   */\n      dup3\n        /* \"#utility.yul\":1947:1952   */\n      dup2\n        /* \"#utility.yul\":1940:1961   */\n      mstore\n        /* \"#utility.yul\":1992:1996   */\n      0x20\n        /* \"#utility.yul\":1985:1990   */\n      dup2\n        /* \"#utility.yul\":1981:1997   */\n      add\n        /* \"#utility.yul\":2030:2033   */\n      dup5\n        /* \"#utility.yul\":2021:2027   */\n      dup5\n        /* \"#utility.yul\":2016:2019   */\n      dup5\n        /* \"#utility.yul\":2012:2028   */\n      add\n        /* \"#utility.yul\":2009:2034   */\n      gt\n        /* \"#utility.yul\":2006:2118   */\n      iszero\n      tag_115\n      jumpi\n        /* \"#utility.yul\":2037:2116   */\n      tag_116\n      tag_58\n      jump\t// in\n    tag_116:\n        /* \"#utility.yul\":2006:2118   */\n    tag_115:\n        /* \"#utility.yul\":2127:2181   */\n      tag_117\n        /* \"#utility.yul\":2174:2180   */\n      dup5\n        /* \"#utility.yul\":2169:2172   */\n      dup3\n        /* \"#utility.yul\":2164:2167   */\n      dup6\n        /* \"#utility.yul\":2127:2181   */\n      tag_64\n      jump\t// in\n    tag_117:\n        /* \"#utility.yul\":1846:2187   */\n      pop\n        /* \"#utility.yul\":1762:2187   */\n      swap4\n      swap3\n      pop\n      pop\n      pop\n      jump\t// out\n        /* \"#utility.yul\":2207:2547   */\n    tag_66:\n        /* \"#utility.yul\":2263:2268   */\n      0x00\n        /* \"#utility.yul\":2312:2315   */\n      dup3\n        /* \"#utility.yul\":2305:2309   */\n      0x1f\n        /* \"#utility.yul\":2297:2303   */\n      dup4\n        /* \"#utility.yul\":2293:2310   */\n      add\n        /* \"#utility.yul\":2289:2316   */\n      slt\n        /* \"#utility.yul\":2279:2401   */\n      tag_119\n      jumpi\n        /* \"#utility.yul\":2320:2399   */\n      tag_120\n      tag_57\n      jump\t// in\n    tag_120:\n        /* \"#utility.yul\":2279:2401   */\n    tag_119:\n        /* \"#utility.yul\":2437:2443   */\n      dup2\n        /* \"#utility.yul\":2424:2444   */\n      calldataload\n        /* \"#utility.yul\":2462:2541   */\n      tag_121\n        /* \"#utility.yul\":2537:2540   */\n      dup5\n        /* \"#utility.yul\":2529:2535   */\n      dup3\n        /* \"#utility.yul\":2522:2526   */\n      0x20\n        /* \"#utility.yul\":2514:2520   */\n      dup7\n        /* \"#utility.yul\":2510:2527   */\n      add\n        /* \"#utility.yul\":2462:2541   */\n      tag_65\n      jump\t// in\n    tag_121:\n        /* \"#utility.yul\":2453:2541   */\n      swap2\n      pop\n        /* \"#utility.yul\":2269:2547   */\n      pop\n        /* \"#utility.yul\":2207:2547   */\n      swap3\n      swap2\n      pop\n      pop\n      jump\t// out\n        /* \"#utility.yul\":2553:3387   */\n    tag_11:\n        /* \"#utility.yul\":2641:2647   */\n      0x00\n        /* \"#utility.yul\":2649:2655   */\n      dup1\n        /* \"#utility.yul\":2698:2700   */\n      0x40\n        /* \"#utility.yul\":2686:2695   */\n      dup4\n        /* \"#utility.yul\":2677:2684   */\n      dup6\n        /* \"#utility.yul\":2673:2696   */\n      sub\n        /* \"#utility.yul\":2669:2701   */\n      slt\n        /* \"#utility.yul\":2666:2785   */\n      iszero\n      tag_123\n      jumpi\n        /* \"#utility.yul\":2704:2783   */\n      tag_124\n      tag_55\n      jump\t// in\n    tag_124:\n        /* \"#utility.yul\":2666:2785   */\n    tag_123:\n        /* \"#utility.yul\":2852:2853   */\n      0x00\n        /* \"#utility.yul\":2841:2850   */\n      dup4\n        /* \"#utility.yul\":2837:2854   */\n      add\n        /* \"#utility.yul\":2824:2855   */\n      calldataload\n        /* \"#utility.yul\":2882:2900   */\n      0xffffffffffffffff\n        /* \"#utility.yul\":2874:2880   */\n      dup2\n        /* \"#utility.yul\":2871:2901   */\n      gt\n        /* \"#utility.yul\":2868:2985   */\n      iszero\n      tag_125\n      jumpi\n        /* \"#utility.yul\":2904:2983   */\n      tag_126\n      tag_56\n      jump\t// in\n    tag_126:\n        /* \"#utility.yul\":2868:2985   */\n    tag_125:\n        /* \"#utility.yul\":3009:3072   */\n      tag_127\n        /* \"#utility.yul\":3064:3071   */\n      dup6\n        /* \"#utility.yul\":3055:3061   */\n      dup3\n        /* \"#utility.yul\":3044:3053   */\n      dup7\n        /* \"#utility.yul\":3040:3062   */\n      add\n        /* \"#utility.yul\":3009:3072   */\n      tag_66\n      jump\t// in\n    tag_127:\n        /* \"#utility.yul\":2999:3072   */\n      swap3\n      pop\n        /* \"#utility.yul\":2795:3082   */\n      pop\n        /* \"#utility.yul\":3149:3151   */\n      0x20\n        /* \"#utility.yul\":3138:3147   */\n      dup4\n        /* \"#utility.yul\":3134:3152   */\n      add\n        /* \"#utility.yul\":3121:3153   */\n      calldataload\n        /* \"#utility.yul\":3180:3198   */\n      0xffffffffffffffff\n        /* \"#utility.yul\":3172:3178   */\n      dup2\n        /* \"#utility.yul\":3169:3199   */\n      gt\n        /* \"#utility.yul\":3166:3283   */\n      iszero\n      tag_128\n      jumpi\n        /* \"#utility.yul\":3202:3281   */\n      tag_129\n      tag_56\n      jump\t// in\n    tag_129:\n        /* \"#utility.yul\":3166:3283   */\n    tag_128:\n        /* \"#utility.yul\":3307:3370   */\n      tag_130\n        /* \"#utility.yul\":3362:3369   */\n      dup6\n        /* \"#utility.yul\":3353:3359   */\n      dup3\n        /* \"#utility.yul\":3342:3351   */\n      dup7\n        /* \"#utility.yul\":3338:3360   */\n      add\n        /* \"#utility.yul\":3307:3370   */\n      tag_66\n      jump\t// in\n    tag_130:\n        /* \"#utility.yul\":3297:3370   */\n      swap2\n      pop\n        /* \"#utility.yul\":3092:3380   */\n      pop\n        /* \"#utility.yul\":2553:3387   */\n      swap3\n      pop\n      swap3\n      swap1\n      pop\n      jump\t// out\n        /* \"#utility.yul\":3393:3491   */\n    tag_67:\n        /* \"#utility.yul\":3444:3450   */\n      0x00\n        /* \"#utility.yul\":3478:3483   */\n      dup2\n        /* \"#utility.yul\":3472:3484   */\n      mload\n        /* \"#utility.yul\":3462:3484   */\n      swap1\n      pop\n        /* \"#utility.yul\":3393:3491   */\n      swap2\n      swap1\n      pop\n      jump\t// out\n        /* \"#utility.yul\":3497:3665   */\n    tag_68:\n        /* \"#utility.yul\":3580:3591   */\n      0x00\n        /* \"#utility.yul\":3614:3620   */\n      dup3\n        /* \"#utility.yul\":3609:3612   */\n      dup3\n        /* \"#utility.yul\":3602:3621   */\n      mstore\n        /* \"#utility.yul\":3654:3658   */\n      0x20\n        /* \"#utility.yul\":3649:3652   */\n      dup3\n        /* \"#utility.yul\":3645:3659   */\n      add\n        /* \"#utility.yul\":3630:3659   */\n      swap1\n      pop\n        /* \"#utility.yul\":3497:3665   */\n      swap3\n      swap2\n      pop\n      pop\n      jump\t// out\n        /* \"#utility.yul\":3671:3917   */\n    tag_69:\n        /* \"#utility.yul\":3752:3753   */\n      0x00\n        /* \"#utility.yul\":3762:3875   */\n    tag_134:\n        /* \"#utility.yul\":3776:3782   */\n      dup4\n        /* \"#utility.yul\":3773:3774   */\n      dup2\n        /* \"#utility.yul\":3770:3783   */\n      lt\n        /* \"#utility.yul\":3762:3875   */\n      iszero\n      tag_136\n      jumpi\n        /* \"#utility.yul\":3861:3862   */\n      dup1\n        /* \"#utility.yul\":3856:3859   */\n      dup3\n        /* \"#utility.yul\":3852:3863   */\n      add\n        /* \"#utility.yul\":3846:3864   */\n      mload\n        /* \"#utility.yul\":3842:3843   */\n      dup2\n        /* \"#utility.yul\":3837:3840   */\n      dup5\n        /* \"#utility.yul\":3833:3844   */\n      add\n        /* \"#utility.yul\":3826:3865   */\n      mstore\n        /* \"#utility.yul\":3798:3800   */\n      0x20\n        /* \"#utility.yul\":3795:3796   */\n      dup2\n        /* \"#utility.yul\":3791:3801   */\n      add\n        /* \"#utility.yul\":3786:3801   */\n      swap1\n      pop\n        /* \"#utility.yul\":3762:3875   */\n      jump(tag_134)\n    tag_136:\n        /* \"#utility.yul\":3909:3910   */\n      0x00\n        /* \"#utility.yul\":3900:3906   */\n      dup5\n        /* \"#utility.yul\":3895:3898   */\n      dup5\n        /* \"#utility.yul\":3891:3907   */\n      add\n        /* \"#utility.yul\":3884:3911   */\n      mstore\n        /* \"#utility.yul\":3733:3917   */\n      pop\n        /* \"#utility.yul\":3671:3917   */\n      pop\n      pop\n      pop\n      jump\t// out\n        /* \"#utility.yul\":3923:4296   */\n    tag_70:\n        /* \"#utility.yul\":4009:4012   */\n      0x00\n        /* \"#utility.yul\":4037:4075   */\n      tag_138\n        /* \"#utility.yul\":4069:4074   */\n      dup3\n        /* \"#utility.yul\":4037:4075   */\n      tag_67\n      jump\t// in\n    tag_138:\n        /* \"#utility.yul\":4091:4161   */\n      tag_139\n        /* \"#utility.yul\":4154:4160   */\n      dup2\n        /* \"#utility.yul\":4149:4152   */\n      dup6\n        /* \"#utility.yul\":4091:4161   */\n      tag_68\n      jump\t// in\n    tag_139:\n        /* \"#utility.yul\":4084:4161   */\n      swap4\n      pop\n        /* \"#utility.yul\":4170:4235   */\n      tag_140\n        /* \"#utility.yul\":4228:4234   */\n      dup2\n        /* \"#utility.yul\":4223:4226   */\n      dup6\n        /* \"#utility.yul\":4216:4220   */\n      0x20\n        /* \"#utility.yul\":4209:4214   */\n      dup7\n        /* \"#utility.yul\":4205:4221   */\n      add\n        /* \"#utility.yul\":4170:4235   */\n      tag_69\n      jump\t// in\n    tag_140:\n        /* \"#utility.yul\":4260:4289   */\n      tag_141\n        /* \"#utility.yul\":4282:4288   */\n      dup2\n        /* \"#utility.yul\":4260:4289   */\n      tag_59\n      jump\t// in\n    tag_141:\n        /* \"#utility.yul\":4255:4258   */\n      dup5\n        /* \"#utility.yul\":4251:4290   */\n      add\n        /* \"#utility.yul\":4244:4290   */\n      swap2\n      pop\n        /* \"#utility.yul\":4013:4296   */\n      pop\n        /* \"#utility.yul\":3923:4296   */\n      swap3\n      swap2\n      pop\n      pop\n      jump\t// out\n        /* \"#utility.yul\":4302:4611   */\n    tag_14:\n        /* \"#utility.yul\":4413:4417   */\n      0x00\n        /* \"#utility.yul\":4451:4453   */\n      0x20\n        /* \"#utility.yul\":4440:4449   */\n      dup3\n        /* \"#utility.yul\":4436:4454   */\n      add\n        /* \"#utility.yul\":4428:4454   */\n      swap1\n      pop\n        /* \"#utility.yul\":4500:4509   */\n      dup2\n        /* \"#utility.yul\":4494:4498   */\n      dup2\n        /* \"#utility.yul\":4490:4510   */\n      sub\n        /* \"#utility.yul\":4486:4487   */\n      0x00\n        /* \"#utility.yul\":4475:4484   */\n      dup4\n        /* \"#utility.yul\":4471:4488   */\n      add\n        /* \"#utility.yul\":4464:4511   */\n      mstore\n        /* \"#utility.yul\":4528:4604   */\n      tag_143\n        /* \"#utility.yul\":4599:4603   */\n      dup2\n        /* \"#utility.yul\":4590:4596   */\n      dup5\n        /* \"#utility.yul\":4528:4604   */\n      tag_70\n      jump\t// in\n    tag_143:\n        /* \"#utility.yul\":4520:4604   */\n      swap1\n      pop\n        /* \"#utility.yul\":4302:4611   */\n      swap3\n      swap2\n      pop\n      pop\n      jump\t// out\n        /* \"#utility.yul\":4617:4694   */\n    tag_71:\n        /* \"#utility.yul\":4654:4661   */\n      0x00\n        /* \"#utility.yul\":4683:4688   */\n      dup2\n        /* \"#utility.yul\":4672:4688   */\n      swap1\n      pop\n        /* \"#utility.yul\":4617:4694   */\n      swap2\n      swap1\n      pop\n      jump\t// out\n        /* \"#utility.yul\":4700:4822   */\n    tag_72:\n        /* \"#utility.yul\":4773:4797   */\n      tag_146\n        /* \"#utility.yul\":4791:4796   */\n      dup2\n        /* \"#utility.yul\":4773:4797   */\n      tag_71\n      jump\t// in\n    tag_146:\n        /* \"#utility.yul\":4766:4771   */\n      dup2\n        /* \"#utility.yul\":4763:4798   */\n      eq\n        /* \"#utility.yul\":4753:4816   */\n      tag_147\n      jumpi\n        /* \"#utility.yul\":4812:4813   */\n      0x00\n        /* \"#utility.yul\":4809:4810   */\n      dup1\n        /* \"#utility.yul\":4802:4814   */\n      revert\n        /* \"#utility.yul\":4753:4816   */\n    tag_147:\n        /* \"#utility.yul\":4700:4822   */\n      pop\n      jump\t// out\n        /* \"#utility.yul\":4828:4967   */\n    tag_73:\n        /* \"#utility.yul\":4874:4879   */\n      0x00\n        /* \"#utility.yul\":4912:4918   */\n      dup2\n        /* \"#utility.yul\":4899:4919   */\n      calldataload\n        /* \"#utility.yul\":4890:4919   */\n      swap1\n      pop\n        /* \"#utility.yul\":4928:4961   */\n      tag_149\n        /* \"#utility.yul\":4955:4960   */\n      dup2\n        /* \"#utility.yul\":4928:4961   */\n      tag_72\n      jump\t// in\n    tag_149:\n        /* \"#utility.yul\":4828:4967   */\n      swap3\n      swap2\n      pop\n      pop\n      jump\t// out\n        /* \"#utility.yul\":4973:5952   */\n    tag_17:\n        /* \"#utility.yul\":5070:5076   */\n      0x00\n        /* \"#utility.yul\":5078:5084   */\n      dup1\n        /* \"#utility.yul\":5086:5092   */\n      0x00\n        /* \"#utility.yul\":5135:5137   */\n      0x60\n        /* \"#utility.yul\":5123:5132   */\n      dup5\n        /* \"#utility.yul\":5114:5121   */\n      dup7\n        /* \"#utility.yul\":5110:5133   */\n      sub\n        /* \"#utility.yul\":5106:5138   */\n      slt\n        /* \"#utility.yul\":5103:5222   */\n      iszero\n      tag_151\n      jumpi\n        /* \"#utility.yul\":5141:5220   */\n      tag_152\n      tag_55\n      jump\t// in\n    tag_152:\n        /* \"#utility.yul\":5103:5222   */\n    tag_151:\n        /* \"#utility.yul\":5289:5290   */\n      0x00\n        /* \"#utility.yul\":5278:5287   */\n      dup5\n        /* \"#utility.yul\":5274:5291   */\n      add\n        /* \"#utility.yul\":5261:5292   */\n      calldataload\n        /* \"#utility.yul\":5319:5337   */\n      0xffffffffffffffff\n        /* \"#utility.yul\":5311:5317   */\n      dup2\n        /* \"#utility.yul\":5308:5338   */\n      gt\n        /* \"#utility.yul\":5305:5422   */\n      iszero\n      tag_153\n      jumpi\n        /* \"#utility.yul\":5341:5420   */\n      tag_154\n      tag_56\n      jump\t// in\n    tag_154:\n        /* \"#utility.yul\":5305:5422   */\n    tag_153:\n        /* \"#utility.yul\":5446:5509   */\n      tag_155\n        /* \"#utility.yul\":5501:5508   */\n      dup7\n        /* \"#utility.yul\":5492:5498   */\n      dup3\n        /* \"#utility.yul\":5481:5490   */\n      dup8\n        /* \"#utility.yul\":5477:5499   */\n      add\n        /* \"#utility.yul\":5446:5509   */\n      tag_66\n      jump\t// in\n    tag_155:\n        /* \"#utility.yul\":5436:5509   */\n      swap4\n      pop\n        /* \"#utility.yul\":5232:5519   */\n      pop\n        /* \"#utility.yul\":5558:5560   */\n      0x20\n        /* \"#utility.yul\":5584:5637   */\n      tag_156\n        /* \"#utility.yul\":5629:5636   */\n      dup7\n        /* \"#utility.yul\":5620:5626   */\n      dup3\n        /* \"#utility.yul\":5609:5618   */\n      dup8\n        /* \"#utility.yul\":5605:5627   */\n      add\n        /* \"#utility.yul\":5584:5637   */\n      tag_73\n      jump\t// in\n    tag_156:\n        /* \"#utility.yul\":5574:5637   */\n      swap3\n      pop\n        /* \"#utility.yul\":5529:5647   */\n      pop\n        /* \"#utility.yul\":5714:5716   */\n      0x40\n        /* \"#utility.yul\":5703:5712   */\n      dup5\n        /* \"#utility.yul\":5699:5717   */\n      add\n        /* \"#utility.yul\":5686:5718   */\n      calldataload\n        /* \"#utility.yul\":5745:5763   */\n      0xffffffffffffffff\n        /* \"#utility.yul\":5737:5743   */\n      dup2\n        /* \"#utility.yul\":5734:5764   */\n      gt\n        /* \"#utility.yul\":5731:5848   */\n      iszero\n      tag_157\n      jumpi\n        /* \"#utility.yul\":5767:5846   */\n      tag_158\n      tag_56\n      jump\t// in\n    tag_158:\n        /* \"#utility.yul\":5731:5848   */\n    tag_157:\n        /* \"#utility.yul\":5872:5935   */\n      tag_159\n        /* \"#utility.yul\":5927:5934   */\n      dup7\n        /* \"#utility.yul\":5918:5924   */\n      dup3\n        /* \"#utility.yul\":5907:5916   */\n      dup8\n        /* \"#utility.yul\":5903:5925   */\n      add\n        /* \"#utility.yul\":5872:5935   */\n      tag_66\n      jump\t// in\n    tag_159:\n        /* \"#utility.yul\":5862:5935   */\n      swap2\n      pop\n        /* \"#utility.yul\":5657:5945   */\n      pop\n        /* \"#utility.yul\":4973:5952   */\n      swap3\n      pop\n      swap3\n      pop\n      swap3\n      jump\t// out\n        /* \"#utility.yul\":5958:6035   */\n    tag_74:\n        /* \"#utility.yul\":5995:6002   */\n      0x00\n        /* \"#utility.yul\":6024:6029   */\n      dup2\n        /* \"#utility.yul\":6013:6029   */\n      swap1\n      pop\n        /* \"#utility.yul\":5958:6035   */\n      swap2\n      swap1\n      pop\n      jump\t// out\n        /* \"#utility.yul\":6041:6159   */\n    tag_75:\n        /* \"#utility.yul\":6128:6152   */\n      tag_162\n        /* \"#utility.yul\":6146:6151   */\n      dup2\n        /* \"#utility.yul\":6128:6152   */\n      tag_74\n      jump\t// in\n    tag_162:\n        /* \"#utility.yul\":6123:6126   */\n      dup3\n        /* \"#utility.yul\":6116:6153   */\n      mstore\n        /* \"#utility.yul\":6041:6159   */\n      pop\n      pop\n      jump\t// out\n        /* \"#utility.yul\":6165:6387   */\n    tag_20:\n        /* \"#utility.yul\":6258:6262   */\n      0x00\n        /* \"#utility.yul\":6296:6298   */\n      0x20\n        /* \"#utility.yul\":6285:6294   */\n      dup3\n        /* \"#utility.yul\":6281:6299   */\n      add\n        /* \"#utility.yul\":6273:6299   */\n      swap1\n      pop\n        /* \"#utility.yul\":6309:6380   */\n      tag_164\n        /* \"#utility.yul\":6377:6378   */\n      0x00\n        /* \"#utility.yul\":6366:6375   */\n      dup4\n        /* \"#utility.yul\":6362:6379   */\n      add\n        /* \"#utility.yul\":6353:6359   */\n      dup5\n        /* \"#utility.yul\":6309:6380   */\n      tag_75\n      jump\t// in\n    tag_164:\n        /* \"#utility.yul\":6165:6387   */\n      swap3\n      swap2\n      pop\n      pop\n      jump\t// out\n        /* \"#utility.yul\":6393:6519   */\n    tag_76:\n        /* \"#utility.yul\":6430:6437   */\n      0x00\n        /* \"#utility.yul\":6470:6512   */\n      0xffffffffffffffffffffffffffffffffffffffff\n        /* \"#utility.yul\":6463:6468   */\n      dup3\n        /* \"#utility.yul\":6459:6513   */\n      and\n        /* \"#utility.yul\":6448:6513   */\n      swap1\n      pop\n        /* \"#utility.yul\":6393:6519   */\n      swap2\n      swap1\n      pop\n      jump\t// out\n        /* \"#utility.yul\":6525:6621   */\n    tag_77:\n        /* \"#utility.yul\":6562:6569   */\n      0x00\n        /* \"#utility.yul\":6591:6615   */\n      tag_167\n        /* \"#utility.yul\":6609:6614   */\n      dup3\n        /* \"#utility.yul\":6591:6615   */\n      tag_76\n      jump\t// in\n    tag_167:\n        /* \"#utility.yul\":6580:6615   */\n      swap1\n      pop\n        /* \"#utility.yul\":6525:6621   */\n      swap2\n      swap1\n      pop\n      jump\t// out\n        /* \"#utility.yul\":6627:6749   */\n    tag_78:\n        /* \"#utility.yul\":6700:6724   */\n      tag_169\n        /* \"#utility.yul\":6718:6723   */\n      dup2\n        /* \"#utility.yul\":6700:6724   */\n      tag_77\n      jump\t// in\n    tag_169:\n        /* \"#utility.yul\":6693:6698   */\n      dup2\n        /* \"#utility.yul\":6690:6725   */\n      eq\n        /* \"#utility.yul\":6680:6743   */\n      tag_170\n      jumpi\n        /* \"#utility.yul\":6739:6740   */\n      0x00\n        /* \"#utility.yul\":6736:6737   */\n      dup1\n        /* \"#utility.yul\":6729:6741   */\n      revert\n        /* \"#utility.yul\":6680:6743   */\n    tag_170:\n        /* \"#utility.yul\":6627:6749   */\n      pop\n      jump\t// out\n        /* \"#utility.yul\":6755:6894   */\n    tag_79:\n        /* \"#utility.yul\":6801:6806   */\n      0x00\n        /* \"#utility.yul\":6839:6845   */\n      dup2\n        /* \"#utility.yul\":6826:6846   */\n      calldataload\n        /* \"#utility.yul\":6817:6846   */\n      swap1\n      pop\n        /* \"#utility.yul\":6855:6888   */\n      tag_172\n        /* \"#utility.yul\":6882:6887   */\n      dup2\n        /* \"#utility.yul\":6855:6888   */\n      tag_78\n      jump\t// in\n    tag_172:\n        /* \"#utility.yul\":6755:6894   */\n      swap3\n      swap2\n      pop\n      pop\n      jump\t// out\n        /* \"#utility.yul\":6900:7699   */\n    tag_23:\n        /* \"#utility.yul\":6987:6993   */\n      0x00\n        /* \"#utility.yul\":6995:7001   */\n      dup1\n        /* \"#utility.yul\":7003:7009   */\n      0x00\n        /* \"#utility.yul\":7052:7054   */\n      0x60\n        /* \"#utility.yul\":7040:7049   */\n      dup5\n        /* \"#utility.yul\":7031:7038   */\n      dup7\n        /* \"#utility.yul\":7027:7050   */\n      sub\n        /* \"#utility.yul\":7023:7055   */\n      slt\n        /* \"#utility.yul\":7020:7139   */\n      iszero\n      tag_174\n      jumpi\n        /* \"#utility.yul\":7058:7137   */\n      tag_175\n      tag_55\n      jump\t// in\n    tag_175:\n        /* \"#utility.yul\":7020:7139   */\n    tag_174:\n        /* \"#utility.yul\":7206:7207   */\n      0x00\n        /* \"#utility.yul\":7195:7204   */\n      dup5\n        /* \"#utility.yul\":7191:7208   */\n      add\n        /* \"#utility.yul\":7178:7209   */\n      calldataload\n        /* \"#utility.yul\":7236:7254   */\n      0xffffffffffffffff\n        /* \"#utility.yul\":7228:7234   */\n      dup2\n        /* \"#utility.yul\":7225:7255   */\n      gt\n        /* \"#utility.yul\":7222:7339   */\n      iszero\n      tag_176\n      jumpi\n        /* \"#utility.yul\":7258:7337   */\n      tag_177\n      tag_56\n      jump\t// in\n    tag_177:\n        /* \"#utility.yul\":7222:7339   */\n    tag_176:\n        /* \"#utility.yul\":7363:7426   */\n      tag_178\n        /* \"#utility.yul\":7418:7425   */\n      dup7\n        /* \"#utility.yul\":7409:7415   */\n      dup3\n        /* \"#utility.yul\":7398:7407   */\n      dup8\n        /* \"#utility.yul\":7394:7416   */\n      add\n        /* \"#utility.yul\":7363:7426   */\n      tag_66\n      jump\t// in\n    tag_178:\n        /* \"#utility.yul\":7353:7426   */\n      swap4\n      pop\n        /* \"#utility.yul\":7149:7436   */\n      pop\n        /* \"#utility.yul\":7475:7477   */\n      0x20\n        /* \"#utility.yul\":7501:7554   */\n      tag_179\n        /* \"#utility.yul\":7546:7553   */\n      dup7\n        /* \"#utility.yul\":7537:7543   */\n      dup3\n        /* \"#utility.yul\":7526:7535   */\n      dup8\n        /* \"#utility.yul\":7522:7544   */\n      add\n        /* \"#utility.yul\":7501:7554   */\n      tag_73\n      jump\t// in\n    tag_179:\n        /* \"#utility.yul\":7491:7554   */\n      swap3\n      pop\n        /* \"#utility.yul\":7446:7564   */\n      pop\n        /* \"#utility.yul\":7603:7605   */\n      0x40\n        /* \"#utility.yul\":7629:7682   */\n      tag_180\n        /* \"#utility.yul\":7674:7681   */\n      dup7\n        /* \"#utility.yul\":7665:7671   */\n      dup3\n        /* \"#utility.yul\":7654:7663   */\n      dup8\n        /* \"#utility.yul\":7650:7672   */\n      add\n        /* \"#utility.yul\":7629:7682   */\n      tag_79\n      jump\t// in\n    tag_180:\n        /* \"#utility.yul\":7619:7682   */\n      swap2\n      pop\n        /* \"#utility.yul\":7574:7692   */\n      pop\n        /* \"#utility.yul\":6900:7699   */\n      swap3\n      pop\n      swap3\n      pop\n      swap3\n      jump\t// out\n        /* \"#utility.yul\":7705:7804   */\n    tag_80:\n        /* \"#utility.yul\":7757:7763   */\n      0x00\n        /* \"#utility.yul\":7791:7796   */\n      dup2\n        /* \"#utility.yul\":7785:7797   */\n      mload\n        /* \"#utility.yul\":7775:7797   */\n      swap1\n      pop\n        /* \"#utility.yul\":7705:7804   */\n      swap2\n      swap1\n      pop\n      jump\t// out\n        /* \"#utility.yul\":7810:7979   */\n    tag_81:\n        /* \"#utility.yul\":7894:7905   */\n      0x00\n        /* \"#utility.yul\":7928:7934   */\n      dup3\n        /* \"#utility.yul\":7923:7926   */\n      dup3\n        /* \"#utility.yul\":7916:7935   */\n      mstore\n        /* \"#utility.yul\":7968:7972   */\n      0x20\n        /* \"#utility.yul\":7963:7966   */\n      dup3\n        /* \"#utility.yul\":7959:7973   */\n      add\n        /* \"#utility.yul\":7944:7973   */\n      swap1\n      pop\n        /* \"#utility.yul\":7810:7979   */\n      swap3\n      swap2\n      pop\n      pop\n      jump\t// out\n        /* \"#utility.yul\":7985:8362   */\n    tag_82:\n        /* \"#utility.yul\":8073:8076   */\n      0x00\n        /* \"#utility.yul\":8101:8140   */\n      tag_184\n        /* \"#utility.yul\":8134:8139   */\n      dup3\n        /* \"#utility.yul\":8101:8140   */\n      tag_80\n      jump\t// in\n    tag_184:\n        /* \"#utility.yul\":8156:8227   */\n      tag_185\n        /* \"#utility.yul\":8220:8226   */\n      dup2\n        /* \"#utility.yul\":8215:8218   */\n      dup6\n        /* \"#utility.yul\":8156:8227   */\n      tag_81\n      jump\t// in\n    tag_185:\n        /* \"#utility.yul\":8149:8227   */\n      swap4\n      pop\n        /* \"#utility.yul\":8236:8301   */\n      tag_186\n        /* \"#utility.yul\":8294:8300   */\n      dup2\n        /* \"#utility.yul\":8289:8292   */\n      dup6\n        /* \"#utility.yul\":8282:8286   */\n      0x20\n        /* \"#utility.yul\":8275:8280   */\n      dup7\n        /* \"#utility.yul\":8271:8287   */\n      add\n        /* \"#utility.yul\":8236:8301   */\n      tag_69\n      jump\t// in\n    tag_186:\n        /* \"#utility.yul\":8326:8355   */\n      tag_187\n        /* \"#utility.yul\":8348:8354   */\n      dup2\n        /* \"#utility.yul\":8326:8355   */\n      tag_59\n      jump\t// in\n    tag_187:\n        /* \"#utility.yul\":8321:8324   */\n      dup5\n        /* \"#utility.yul\":8317:8356   */\n      add\n        /* \"#utility.yul\":8310:8356   */\n      swap2\n      pop\n        /* \"#utility.yul\":8077:8362   */\n      pop\n        /* \"#utility.yul\":7985:8362   */\n      swap3\n      swap2\n      pop\n      pop\n      jump\t// out\n        /* \"#utility.yul\":8368:8882   */\n    tag_40:\n        /* \"#utility.yul\":8529:8533   */\n      0x00\n        /* \"#utility.yul\":8567:8569   */\n      0x40\n        /* \"#utility.yul\":8556:8565   */\n      dup3\n        /* \"#utility.yul\":8552:8570   */\n      add\n        /* \"#utility.yul\":8544:8570   */\n      swap1\n      pop\n        /* \"#utility.yul\":8616:8625   */\n      dup2\n        /* \"#utility.yul\":8610:8614   */\n      dup2\n        /* \"#utility.yul\":8606:8626   */\n      sub\n        /* \"#utility.yul\":8602:8603   */\n      0x00\n        /* \"#utility.yul\":8591:8600   */\n      dup4\n        /* \"#utility.yul\":8587:8604   */\n      add\n        /* \"#utility.yul\":8580:8627   */\n      mstore\n        /* \"#utility.yul\":8644:8722   */\n      tag_189\n        /* \"#utility.yul\":8717:8721   */\n      dup2\n        /* \"#utility.yul\":8708:8714   */\n      dup6\n        /* \"#utility.yul\":8644:8722   */\n      tag_82\n      jump\t// in\n    tag_189:\n        /* \"#utility.yul\":8636:8722   */\n      swap1\n      pop\n        /* \"#utility.yul\":8769:8778   */\n      dup2\n        /* \"#utility.yul\":8763:8767   */\n      dup2\n        /* \"#utility.yul\":8759:8779   */\n      sub\n        /* \"#utility.yul\":8754:8756   */\n      0x20\n        /* \"#utility.yul\":8743:8752   */\n      dup4\n        /* \"#utility.yul\":8739:8757   */\n      add\n        /* \"#utility.yul\":8732:8780   */\n      mstore\n        /* \"#utility.yul\":8797:8875   */\n      tag_190\n        /* \"#utility.yul\":8870:8874   */\n      dup2\n        /* \"#utility.yul\":8861:8867   */\n      dup5\n        /* \"#utility.yul\":8797:8875   */\n      tag_82\n      jump\t// in\n    tag_190:\n        /* \"#utility.yul\":8789:8875   */\n      swap1\n      pop\n        /* \"#utility.yul\":8368:8882   */\n      swap4\n      swap3\n      pop\n      pop\n      pop\n      jump\t// out\n        /* \"#utility.yul\":8888:9006   */\n    tag_83:\n        /* \"#utility.yul\":8975:8999   */\n      tag_192\n        /* \"#utility.yul\":8993:8998   */\n      dup2\n        /* \"#utility.yul\":8975:8999   */\n      tag_71\n      jump\t// in\n    tag_192:\n        /* \"#utility.yul\":8970:8973   */\n      dup3\n        /* \"#utility.yul\":8963:9000   */\n      mstore\n        /* \"#utility.yul\":8888:9006   */\n      pop\n      pop\n      jump\t// out\n        /* \"#utility.yul\":9012:9636   */\n    tag_43:\n        /* \"#utility.yul\":9201:9205   */\n      0x00\n        /* \"#utility.yul\":9239:9241   */\n      0x60\n        /* \"#utility.yul\":9228:9237   */\n      dup3\n        /* \"#utility.yul\":9224:9242   */\n      add\n        /* \"#utility.yul\":9216:9242   */\n      swap1\n      pop\n        /* \"#utility.yul\":9288:9297   */\n      dup2\n        /* \"#utility.yul\":9282:9286   */\n      dup2\n        /* \"#utility.yul\":9278:9298   */\n      sub\n        /* \"#utility.yul\":9274:9275   */\n      0x00\n        /* \"#utility.yul\":9263:9272   */\n      dup4\n        /* \"#utility.yul\":9259:9276   */\n      add\n        /* \"#utility.yul\":9252:9299   */\n      mstore\n        /* \"#utility.yul\":9316:9394   */\n      tag_194\n        /* \"#utility.yul\":9389:9393   */\n      dup2\n        /* \"#utility.yul\":9380:9386   */\n      dup7\n        /* \"#utility.yul\":9316:9394   */\n      tag_82\n      jump\t// in\n    tag_194:\n        /* \"#utility.yul\":9308:9394   */\n      swap1\n      pop\n        /* \"#utility.yul\":9404:9476   */\n      tag_195\n        /* \"#utility.yul\":9472:9474   */\n      0x20\n        /* \"#utility.yul\":9461:9470   */\n      dup4\n        /* \"#utility.yul\":9457:9475   */\n      add\n        /* \"#utility.yul\":9448:9454   */\n      dup6\n        /* \"#utility.yul\":9404:9476   */\n      tag_83\n      jump\t// in\n    tag_195:\n        /* \"#utility.yul\":9523:9532   */\n      dup2\n        /* \"#utility.yul\":9517:9521   */\n      dup2\n        /* \"#utility.yul\":9513:9533   */\n      sub\n        /* \"#utility.yul\":9508:9510   */\n      0x40\n        /* \"#utility.yul\":9497:9506   */\n      dup4\n        /* \"#utility.yul\":9493:9511   */\n      add\n        /* \"#utility.yul\":9486:9534   */\n      mstore\n        /* \"#utility.yul\":9551:9629   */\n      tag_196\n        /* \"#utility.yul\":9624:9628   */\n      dup2\n        /* \"#utility.yul\":9615:9621   */\n      dup5\n        /* \"#utility.yul\":9551:9629   */\n      tag_82\n      jump\t// in\n    tag_196:\n        /* \"#utility.yul\":9543:9629   */\n      swap1\n      pop\n        /* \"#utility.yul\":9012:9636   */\n      swap5\n      swap4\n      pop\n      pop\n      pop\n      pop\n      jump\t// out\n        /* \"#utility.yul\":9642:9790   */\n    tag_84:\n        /* \"#utility.yul\":9744:9755   */\n      0x00\n        /* \"#utility.yul\":9781:9784   */\n      dup2\n        /* \"#utility.yul\":9766:9784   */\n      swap1\n      pop\n        /* \"#utility.yul\":9642:9790   */\n      swap3\n      swap2\n      pop\n      pop\n      jump\t// out\n        /* \"#utility.yul\":9796:10186   */\n    tag_85:\n        /* \"#utility.yul\":9902:9905   */\n      0x00\n        /* \"#utility.yul\":9930:9969   */\n      tag_199\n        /* \"#utility.yul\":9963:9968   */\n      dup3\n        /* \"#utility.yul\":9930:9969   */\n      tag_80\n      jump\t// in\n    tag_199:\n        /* \"#utility.yul\":9985:10074   */\n      tag_200\n        /* \"#utility.yul\":10067:10073   */\n      dup2\n        /* \"#utility.yul\":10062:10065   */\n      dup6\n        /* \"#utility.yul\":9985:10074   */\n      tag_84\n      jump\t// in\n    tag_200:\n        /* \"#utility.yul\":9978:10074   */\n      swap4\n      pop\n        /* \"#utility.yul\":10083:10148   */\n      tag_201\n        /* \"#utility.yul\":10141:10147   */\n      dup2\n        /* \"#utility.yul\":10136:10139   */\n      dup6\n        /* \"#utility.yul\":10129:10133   */\n      0x20\n        /* \"#utility.yul\":10122:10127   */\n      dup7\n        /* \"#utility.yul\":10118:10134   */\n      add\n        /* \"#utility.yul\":10083:10148   */\n      tag_69\n      jump\t// in\n    tag_201:\n        /* \"#utility.yul\":10173:10179   */\n      dup1\n        /* \"#utility.yul\":10168:10171   */\n      dup5\n        /* \"#utility.yul\":10164:10180   */\n      add\n        /* \"#utility.yul\":10157:10180   */\n      swap2\n      pop\n        /* \"#utility.yul\":9906:10186   */\n      pop\n        /* \"#utility.yul\":9796:10186   */\n      swap3\n      swap2\n      pop\n      pop\n      jump\t// out\n        /* \"#utility.yul\":10192:10271   */\n    tag_86:\n        /* \"#utility.yul\":10231:10238   */\n      0x00\n        /* \"#utility.yul\":10260:10265   */\n      dup2\n        /* \"#utility.yul\":10249:10265   */\n      swap1\n      pop\n        /* \"#utility.yul\":10192:10271   */\n      swap2\n      swap1\n      pop\n      jump\t// out\n        /* \"#utility.yul\":10277:10434   */\n    tag_87:\n        /* \"#utility.yul\":10382:10427   */\n      tag_204\n        /* \"#utility.yul\":10402:10426   */\n      tag_205\n        /* \"#utility.yul\":10420:10425   */\n      dup3\n        /* \"#utility.yul\":10402:10426   */\n      tag_71\n      jump\t// in\n    tag_205:\n        /* \"#utility.yul\":10382:10427   */\n      tag_86\n      jump\t// in\n    tag_204:\n        /* \"#utility.yul\":10377:10380   */\n      dup3\n        /* \"#utility.yul\":10370:10428   */\n      mstore\n        /* \"#utility.yul\":10277:10434   */\n      pop\n      pop\n      jump\t// out\n        /* \"#utility.yul\":10440:10534   */\n    tag_88:\n        /* \"#utility.yul\":10473:10481   */\n      0x00\n        /* \"#utility.yul\":10521:10526   */\n      dup2\n        /* \"#utility.yul\":10517:10519   */\n      0x60\n        /* \"#utility.yul\":10513:10527   */\n      shl\n        /* \"#utility.yul\":10492:10527   */\n      swap1\n      pop\n        /* \"#utility.yul\":10440:10534   */\n      swap2\n      swap1\n      pop\n      jump\t// out\n        /* \"#utility.yul\":10540:10634   */\n    tag_89:\n        /* \"#utility.yul\":10579:10586   */\n      0x00\n        /* \"#utility.yul\":10608:10628   */\n      tag_208\n        /* \"#utility.yul\":10622:10627   */\n      dup3\n        /* \"#utility.yul\":10608:10628   */\n      tag_88\n      jump\t// in\n    tag_208:\n        /* \"#utility.yul\":10597:10628   */\n      swap1\n      pop\n        /* \"#utility.yul\":10540:10634   */\n      swap2\n      swap1\n      pop\n      jump\t// out\n        /* \"#utility.yul\":10640:10740   */\n    tag_90:\n        /* \"#utility.yul\":10679:10686   */\n      0x00\n        /* \"#utility.yul\":10708:10734   */\n      tag_210\n        /* \"#utility.yul\":10728:10733   */\n      dup3\n        /* \"#utility.yul\":10708:10734   */\n      tag_89\n      jump\t// in\n    tag_210:\n        /* \"#utility.yul\":10697:10734   */\n      swap1\n      pop\n        /* \"#utility.yul\":10640:10740   */\n      swap2\n      swap1\n      pop\n      jump\t// out\n        /* \"#utility.yul\":10746:10903   */\n    tag_91:\n        /* \"#utility.yul\":10851:10896   */\n      tag_212\n        /* \"#utility.yul\":10871:10895   */\n      tag_213\n        /* \"#utility.yul\":10889:10894   */\n      dup3\n        /* \"#utility.yul\":10871:10895   */\n      tag_77\n      jump\t// in\n    tag_213:\n        /* \"#utility.yul\":10851:10896   */\n      tag_90\n      jump\t// in\n    tag_212:\n        /* \"#utility.yul\":10846:10849   */\n      dup3\n        /* \"#utility.yul\":10839:10897   */\n      mstore\n        /* \"#utility.yul\":10746:10903   */\n      pop\n      pop\n      jump\t// out\n        /* \"#utility.yul\":10909:11466   */\n    tag_46:\n        /* \"#utility.yul\":11097:11100   */\n      0x00\n        /* \"#utility.yul\":11119:11214   */\n      tag_215\n        /* \"#utility.yul\":11210:11213   */\n      dup3\n        /* \"#utility.yul\":11201:11207   */\n      dup7\n        /* \"#utility.yul\":11119:11214   */\n      tag_85\n      jump\t// in\n    tag_215:\n        /* \"#utility.yul\":11112:11214   */\n      swap2\n      pop\n        /* \"#utility.yul\":11224:11299   */\n      tag_216\n        /* \"#utility.yul\":11295:11298   */\n      dup3\n        /* \"#utility.yul\":11286:11292   */\n      dup6\n        /* \"#utility.yul\":11224:11299   */\n      tag_87\n      jump\t// in\n    tag_216:\n        /* \"#utility.yul\":11324:11326   */\n      0x20\n        /* \"#utility.yul\":11319:11322   */\n      dup3\n        /* \"#utility.yul\":11315:11327   */\n      add\n        /* \"#utility.yul\":11308:11327   */\n      swap2\n      pop\n        /* \"#utility.yul\":11337:11412   */\n      tag_217\n        /* \"#utility.yul\":11408:11411   */\n      dup3\n        /* \"#utility.yul\":11399:11405   */\n      dup5\n        /* \"#utility.yul\":11337:11412   */\n      tag_91\n      jump\t// in\n    tag_217:\n        /* \"#utility.yul\":11437:11439   */\n      0x14\n        /* \"#utility.yul\":11432:11435   */\n      dup3\n        /* \"#utility.yul\":11428:11440   */\n      add\n        /* \"#utility.yul\":11421:11440   */\n      swap2\n      pop\n        /* \"#utility.yul\":11457:11460   */\n      dup2\n        /* \"#utility.yul\":11450:11460   */\n      swap1\n      pop\n        /* \"#utility.yul\":10909:11466   */\n      swap5\n      swap4\n      pop\n      pop\n      pop\n      pop\n      jump\t// out\n        /* \"#utility.yul\":11472:11907   */\n    tag_49:\n        /* \"#utility.yul\":11652:11655   */\n      0x00\n        /* \"#utility.yul\":11674:11769   */\n      tag_219\n        /* \"#utility.yul\":11765:11768   */\n      dup3\n        /* \"#utility.yul\":11756:11762   */\n      dup6\n        /* \"#utility.yul\":11674:11769   */\n      tag_85\n      jump\t// in\n    tag_219:\n        /* \"#utility.yul\":11667:11769   */\n      swap2\n      pop\n        /* \"#utility.yul\":11786:11881   */\n      tag_220\n        /* \"#utility.yul\":11877:11880   */\n      dup3\n        /* \"#utility.yul\":11868:11874   */\n      dup5\n        /* \"#utility.yul\":11786:11881   */\n      tag_85\n      jump\t// in\n    tag_220:\n        /* \"#utility.yul\":11779:11881   */\n      swap2\n      pop\n        /* \"#utility.yul\":11898:11901   */\n      dup2\n        /* \"#utility.yul\":11891:11901   */\n      swap1\n      pop\n        /* \"#utility.yul\":11472:11907   */\n      swap4\n      swap3\n      pop\n      pop\n      pop\n      jump\t// out\n\n    auxdata: 0xa2646970667358221220c9f929fac6070a5b5382d4a22140a788263467ff8b3c3489026927c439e56ca864736f6c63430008130033\n}\n",
				"bytecode": {
					"linkReferences": {},
					"object": "608060405234801561001057600080fd5b506108fe806100206000396000f3fe608060405234801561001057600080fd5b50600436106100625760003560e01c806317fe2da21461006757806346231fea146100975780635dda416e146100c75780637b7fb982146100f7578063892e5d0114610127578063c181e5b314610157575b600080fd5b610081600480360381019061007c919061040b565b610187565b60405161008e9190610502565b60405180910390f35b6100b160048036038101906100ac919061055a565b6101b3565b6040516100be91906105fe565b60405180910390f35b6100e160048036038101906100dc9190610677565b6101e9565b6040516100ee91906105fe565b60405180910390f35b610111600480360381019061010c919061040b565b61021f565b60405161011e91906105fe565b60405180910390f35b610141600480360381019061013c919061040b565b610252565b60405161014e9190610502565b60405180910390f35b610171600480360381019061016c919061040b565b61027e565b60405161017e91906105fe565b60405180910390f35b6060828260405160200161019c92919061073b565b604051602081830303815290604052905092915050565b60008383836040516020016101ca93929190610781565b6040516020818303038152906040528051906020012090509392505050565b60008383836040516020016102009392919061086b565b6040516020818303038152906040528051906020012090509392505050565b600082826040516020016102349291906108a4565b60405160208183030381529060405280519060200120905092915050565b606082826040516020016102679291906108a4565b604051602081830303815290604052905092915050565b6000828260405160200161029392919061073b565b60405160208183030381529060405280519060200120905092915050565b6000604051905090565b600080fd5b600080fd5b600080fd5b600080fd5b6000601f19601f8301169050919050565b7f4e487b7100000000000000000000000000000000000000000000000000000000600052604160045260246000fd5b610318826102cf565b810181811067ffffffffffffffff82111715610337576103366102e0565b5b80604052505050565b600061034a6102b1565b9050610356828261030f565b919050565b600067ffffffffffffffff821115610376576103756102e0565b5b61037f826102cf565b9050602081019050919050565b82818337600083830152505050565b60006103ae6103a98461035b565b610340565b9050828152602081018484840111156103ca576103c96102ca565b5b6103d584828561038c565b509392505050565b600082601f8301126103f2576103f16102c5565b5b813561040284826020860161039b565b91505092915050565b60008060408385031215610422576104216102bb565b5b600083013567ffffffffffffffff8111156104405761043f6102c0565b5b61044c858286016103dd565b925050602083013567ffffffffffffffff81111561046d5761046c6102c0565b5b610479858286016103dd565b9150509250929050565b600081519050919050565b600082825260208201905092915050565b60005b838110156104bd5780820151818401526020810190506104a2565b60008484015250505050565b60006104d482610483565b6104de818561048e565b93506104ee81856020860161049f565b6104f7816102cf565b840191505092915050565b6000602082019050818103600083015261051c81846104c9565b905092915050565b6000819050919050565b61053781610524565b811461054257600080fd5b50565b6000813590506105548161052e565b92915050565b600080600060608486031215610573576105726102bb565b5b600084013567ffffffffffffffff811115610591576105906102c0565b5b61059d868287016103dd565b93505060206105ae86828701610545565b925050604084013567ffffffffffffffff8111156105cf576105ce6102c0565b5b6105db868287016103dd565b9150509250925092565b6000819050919050565b6105f8816105e5565b82525050565b600060208201905061061360008301846105ef565b92915050565b600073ffffffffffffffffffffffffffffffffffffffff82169050919050565b600061064482610619565b9050919050565b61065481610639565b811461065f57600080fd5b50565b6000813590506106718161064b565b92915050565b6000806000606084860312156106905761068f6102bb565b5b600084013567ffffffffffffffff8111156106ae576106ad6102c0565b5b6106ba868287016103dd565b93505060206106cb86828701610545565b92505060406106dc86828701610662565b9150509250925092565b600081519050919050565b600082825260208201905092915050565b600061070d826106e6565b61071781856106f1565b935061072781856020860161049f565b610730816102cf565b840191505092915050565b600060408201905081810360008301526107558185610702565b905081810360208301526107698184610702565b90509392505050565b61077b81610524565b82525050565b6000606082019050818103600083015261079b8186610702565b90506107aa6020830185610772565b81810360408301526107bc8184610702565b9050949350505050565b600081905092915050565b60006107dc826106e6565b6107e681856107c6565b93506107f681856020860161049f565b80840191505092915050565b6000819050919050565b61081d61081882610524565b610802565b82525050565b60008160601b9050919050565b600061083b82610823565b9050919050565b600061084d82610830565b9050919050565b61086561086082610639565b610842565b82525050565b600061087782866107d1565b9150610883828561080c565b6020820191506108938284610854565b601482019150819050949350505050565b60006108b082856107d1565b91506108bc82846107d1565b9150819050939250505056fea2646970667358221220c9f929fac6070a5b5382d4a22140a788263467ff8b3c3489026927c439e56ca864736f6c63430008130033",
					"opcodes": "PUSH1 0x80 PUSH1 0x40 MSTORE CALLVALUE DUP1 ISZERO PUSH2 0x10 JUMPI PUSH1 0x0 DUP1 REVERT JUMPDEST POP PUSH2 0x8FE DUP1 PUSH2 0x20 PUSH1 0x0 CODECOPY PUSH1 0x0 RETURN INVALID PUSH1 0x80 PUSH1 0x40 MSTORE CALLVALUE DUP1 ISZERO PUSH2 0x10 JUMPI PUSH1 0x0 DUP1 REVERT JUMPDEST POP PUSH1 0x4 CALLDATASIZE LT PUSH2 0x62 JUMPI PUSH1 0x0 CALLDATALOAD PUSH1 0xE0 SHR DUP1 PUSH4 0x17FE2DA2 EQ PUSH2 0x67 JUMPI DUP1 PUSH4 0x46231FEA EQ PUSH2 0x97 JUMPI DUP1 PUSH4 0x5DDA416E EQ PUSH2 0xC7 JUMPI DUP1 PUSH4 0x7B7FB982 EQ PUSH2 0xF7 JUMPI DUP1 PUSH4 0x892E5D01 EQ PUSH2 0x127 JUMPI DUP1 PUSH4 0xC181E5B3 EQ PUSH2 0x157 JUMPI JUMPDEST PUSH1 0x0 DUP1 REVERT JUMPDEST PUSH2 0x81 PUSH1 0x4 DUP1 CALLDATASIZE SUB DUP2 ADD SWAP1 PUSH2 0x7C SWAP2 SWAP1 PUSH2 0x40B JUMP JUMPDEST PUSH2 0x187 JUMP JUMPDEST PUSH1 0x40 MLOAD PUSH2 0x8E SWAP2 SWAP1 PUSH2 0x502 JUMP JUMPDEST PUSH1 0x40 MLOAD DUP1 SWAP2 SUB SWAP1 RETURN JUMPDEST PUSH2 0xB1 PUSH1 0x4 DUP1 CALLDATASIZE SUB DUP2 ADD SWAP1 PUSH2 0xAC SWAP2 SWAP1 PUSH2 0x55A JUMP JUMPDEST PUSH2 0x1B3 JUMP JUMPDEST PUSH1 0x40 MLOAD PUSH2 0xBE SWAP2 SWAP1 PUSH2 0x5FE JUMP JUMPDEST PUSH1 0x40 MLOAD DUP1 SWAP2 SUB SWAP1 RETURN JUMPDEST PUSH2 0xE1 PUSH1 0x4 DUP1 CALLDATASIZE SUB DUP2 ADD SWAP1 PUSH2 0xDC SWAP2 SWAP1 PUSH2 0x677 JUMP JUMPDEST PUSH2 0x1E9 JUMP JUMPDEST PUSH1 0x40 MLOAD PUSH2 0xEE SWAP2 SWAP1 PUSH2 0x5FE JUMP JUMPDEST PUSH1 0x40 MLOAD DUP1 SWAP2 SUB SWAP1 RETURN JUMPDEST PUSH2 0x111 PUSH1 0x4 DUP1 CALLDATASIZE SUB DUP2 ADD SWAP1 PUSH2 0x10C SWAP2 SWAP1 PUSH2 0x40B JUMP JUMPDEST PUSH2 0x21F JUMP JUMPDEST PUSH1 0x40 MLOAD PUSH2 0x11E SWAP2 SWAP1 PUSH2 0x5FE JUMP JUMPDEST PUSH1 0x40 MLOAD DUP1 SWAP2 SUB SWAP1 RETURN JUMPDEST PUSH2 0x141 PUSH1 0x4 DUP1 CALLDATASIZE SUB DUP2 ADD SWAP1 PUSH2 0x13C SWAP2 SWAP1 PUSH2 0x40B JUMP JUMPDEST PUSH2 0x252 JUMP JUMPDEST PUSH1 0x40 MLOAD PUSH2 0x14E SWAP2 SWAP1 PUSH2 0x502 JUMP JUMPDEST PUSH1 0x40 MLOAD DUP1 SWAP2 SUB SWAP1 RETURN JUMPDEST PUSH2 0x171 PUSH1 0x4 DUP1 CALLDATASIZE SUB DUP2 ADD SWAP1 PUSH2 0x16C SWAP2 SWAP1 PUSH2 0x40B JUMP JUMPDEST PUSH2 0x27E JUMP JUMPDEST PUSH1 0x40 MLOAD PUSH2 0x17E SWAP2 SWAP1 PUSH2 0x5FE JUMP JUMPDEST PUSH1 0x40 MLOAD DUP1 SWAP2 SUB SWAP1 RETURN JUMPDEST PUSH1 0x60 DUP3 DUP3 PUSH1 0x40 MLOAD PUSH1 0x20 ADD PUSH2 0x19C SWAP3 SWAP2 SWAP1 PUSH2 0x73B JUMP JUMPDEST PUSH1 0x40 MLOAD PUSH1 0x20 DUP2 DUP4 SUB SUB DUP2 MSTORE SWAP1 PUSH1 0x40 MSTORE SWAP1 POP SWAP3 SWAP2 POP POP JUMP JUMPDEST PUSH1 0x0 DUP4 DUP4 DUP4 PUSH1 0x40 MLOAD PUSH1 0x20 ADD PUSH2 0x1CA SWAP4 SWAP3 SWAP2 SWAP1 PUSH2 0x781 JUMP JUMPDEST PUSH1 0x40 MLOAD PUSH1 0x20 DUP2 DUP4 SUB SUB DUP2 MSTORE SWAP1 PUSH1 0x40 MSTORE DUP1 MLOAD SWAP1 PUSH1 0x20 ADD KECCAK256 SWAP1 POP SWAP4 SWAP3 POP POP POP JUMP JUMPDEST PUSH1 0x0 DUP4 DUP4 DUP4 PUSH1 0x40 MLOAD PUSH1 0x20 ADD PUSH2 0x200 SWAP4 SWAP3 SWAP2 SWAP1 PUSH2 0x86B JUMP JUMPDEST PUSH1 0x40 MLOAD PUSH1 0x20 DUP2 DUP4 SUB SUB DUP2 MSTORE SWAP1 PUSH1 0x40 MSTORE DUP1 MLOAD SWAP1 PUSH1 0x20 ADD KECCAK256 SWAP1 POP SWAP4 SWAP3 POP POP POP JUMP JUMPDEST PUSH1 0x0 DUP3 DUP3 PUSH1 0x40 MLOAD PUSH1 0x20 ADD PUSH2 0x234 SWAP3 SWAP2 SWAP1 PUSH2 0x8A4 JUMP JUMPDEST PUSH1 0x40 MLOAD PUSH1 0x20 DUP2 DUP4 SUB SUB DUP2 MSTORE SWAP1 PUSH1 0x40 MSTORE DUP1 MLOAD SWAP1 PUSH1 0x20 ADD KECCAK256 SWAP1 POP SWAP3 SWAP2 POP POP JUMP JUMPDEST PUSH1 0x60 DUP3 DUP3 PUSH1 0x40 MLOAD PUSH1 0x20 ADD PUSH2 0x267 SWAP3 SWAP2 SWAP1 PUSH2 0x8A4 JUMP JUMPDEST PUSH1 0x40 MLOAD PUSH1 0x20 DUP2 DUP4 SUB SUB DUP2 MSTORE SWAP1 PUSH1 0x40 MSTORE SWAP1 POP SWAP3 SWAP2 POP POP JUMP JUMPDEST PUSH1 0x0 DUP3 DUP3 PUSH1 0x40 MLOAD PUSH1 0x20 ADD PUSH2 0x293 SWAP3 SWAP2 SWAP1 PUSH2 0x73B JUMP JUMPDEST PUSH1 0x40 MLOAD PUSH1 0x20 DUP2 DUP4 SUB SUB DUP2 MSTORE SWAP1 PUSH1 0x40 MSTORE DUP1 MLOAD SWAP1 PUSH1 0x20 ADD KECCAK256 SWAP1 POP SWAP3 SWAP2 POP POP JUMP JUMPDEST PUSH1 0x0 PUSH1 0x40 MLOAD SWAP1 POP SWAP1 JUMP JUMPDEST PUSH1 0x0 DUP1 REVERT JUMPDEST PUSH1 0x0 DUP1 REVERT JUMPDEST PUSH1 0x0 DUP1 REVERT JUMPDEST PUSH1 0x0 DUP1 REVERT JUMPDEST PUSH1 0x0 PUSH1 0x1F NOT PUSH1 0x1F DUP4 ADD AND SWAP1 POP SWAP2 SWAP1 POP JUMP JUMPDEST PUSH32 0x4E487B7100000000000000000000000000000000000000000000000000000000 PUSH1 0x0 MSTORE PUSH1 0x41 PUSH1 0x4 MSTORE PUSH1 0x24 PUSH1 0x0 REVERT JUMPDEST PUSH2 0x318 DUP3 PUSH2 0x2CF JUMP JUMPDEST DUP2 ADD DUP2 DUP2 LT PUSH8 0xFFFFFFFFFFFFFFFF DUP3 GT OR ISZERO PUSH2 0x337 JUMPI PUSH2 0x336 PUSH2 0x2E0 JUMP JUMPDEST JUMPDEST DUP1 PUSH1 0x40 MSTORE POP POP POP JUMP JUMPDEST PUSH1 0x0 PUSH2 0x34A PUSH2 0x2B1 JUMP JUMPDEST SWAP1 POP PUSH2 0x356 DUP3 DUP3 PUSH2 0x30F JUMP JUMPDEST SWAP2 SWAP1 POP JUMP JUMPDEST PUSH1 0x0 PUSH8 0xFFFFFFFFFFFFFFFF DUP3 GT ISZERO PUSH2 0x376 JUMPI PUSH2 0x375 PUSH2 0x2E0 JUMP JUMPDEST JUMPDEST PUSH2 0x37F DUP3 PUSH2 0x2CF JUMP JUMPDEST SWAP1 POP PUSH1 0x20 DUP2 ADD SWAP1 POP SWAP2 SWAP1 POP JUMP JUMPDEST DUP3 DUP2 DUP4 CALLDATACOPY PUSH1 0x0 DUP4 DUP4 ADD MSTORE POP POP POP JUMP JUMPDEST PUSH1 0x0 PUSH2 0x3AE PUSH2 0x3A9 DUP5 PUSH2 0x35B JUMP JUMPDEST PUSH2 0x340 JUMP JUMPDEST SWAP1 POP DUP3 DUP2 MSTORE PUSH1 0x20 DUP2 ADD DUP5 DUP5 DUP5 ADD GT ISZERO PUSH2 0x3CA JUMPI PUSH2 0x3C9 PUSH2 0x2CA JUMP JUMPDEST JUMPDEST PUSH2 0x3D5 DUP5 DUP3 DUP6 PUSH2 0x38C JUMP JUMPDEST POP SWAP4 SWAP3 POP POP POP JUMP JUMPDEST PUSH1 0x0 DUP3 PUSH1 0x1F DUP4 ADD SLT PUSH2 0x3F2 JUMPI PUSH2 0x3F1 PUSH2 0x2C5 JUMP JUMPDEST JUMPDEST DUP2 CALLDATALOAD PUSH2 0x402 DUP5 DUP3 PUSH1 0x20 DUP7 ADD PUSH2 0x39B JUMP JUMPDEST SWAP2 POP POP SWAP3 SWAP2 POP POP JUMP JUMPDEST PUSH1 0x0 DUP1 PUSH1 0x40 DUP4 DUP6 SUB SLT ISZERO PUSH2 0x422 JUMPI PUSH2 0x421 PUSH2 0x2BB JUMP JUMPDEST JUMPDEST PUSH1 0x0 DUP4 ADD CALLDATALOAD PUSH8 0xFFFFFFFFFFFFFFFF DUP2 GT ISZERO PUSH2 0x440 JUMPI PUSH2 0x43F PUSH2 0x2C0 JUMP JUMPDEST JUMPDEST PUSH2 0x44C DUP6 DUP3 DUP7 ADD PUSH2 0x3DD JUMP JUMPDEST SWAP3 POP POP PUSH1 0x20 DUP4 ADD CALLDATALOAD PUSH8 0xFFFFFFFFFFFFFFFF DUP2 GT ISZERO PUSH2 0x46D JUMPI PUSH2 0x46C PUSH2 0x2C0 JUMP JUMPDEST JUMPDEST PUSH2 0x479 DUP6 DUP3 DUP7 ADD PUSH2 0x3DD JUMP JUMPDEST SWAP2 POP POP SWAP3 POP SWAP3 SWAP1 POP JUMP JUMPDEST PUSH1 0x0 DUP2 MLOAD SWAP1 POP SWAP2 SWAP1 POP JUMP JUMPDEST PUSH1 0x0 DUP3 DUP3 MSTORE PUSH1 0x20 DUP3 ADD SWAP1 POP SWAP3 SWAP2 POP POP JUMP JUMPDEST PUSH1 0x0 JUMPDEST DUP4 DUP2 LT ISZERO PUSH2 0x4BD JUMPI DUP1 DUP3 ADD MLOAD DUP2 DUP5 ADD MSTORE PUSH1 0x20 DUP2 ADD SWAP1 POP PUSH2 0x4A2 JUMP JUMPDEST PUSH1 0x0 DUP5 DUP5 ADD MSTORE POP POP POP POP JUMP JUMPDEST PUSH1 0x0 PUSH2 0x4D4 DUP3 PUSH2 0x483 JUMP JUMPDEST PUSH2 0x4DE DUP2 DUP6 PUSH2 0x48E JUMP JUMPDEST SWAP4 POP PUSH2 0x4EE DUP2 DUP6 PUSH1 0x20 DUP7 ADD PUSH2 0x49F JUMP JUMPDEST PUSH2 0x4F7 DUP2 PUSH2 0x2CF JUMP JUMPDEST DUP5 ADD SWAP2 POP POP SWAP3 SWAP2 POP POP JUMP JUMPDEST PUSH1 0x0 PUSH1 0x20 DUP3 ADD SWAP1 POP DUP2 DUP2 SUB PUSH1 0x0 DUP4 ADD MSTORE PUSH2 0x51C DUP2 DUP5 PUSH2 0x4C9 JUMP JUMPDEST SWAP1 POP SWAP3 SWAP2 POP POP JUMP JUMPDEST PUSH1 0x0 DUP2 SWAP1 POP SWAP2 SWAP1 POP JUMP JUMPDEST PUSH2 0x537 DUP2 PUSH2 0x524 JUMP JUMPDEST DUP2 EQ PUSH2 0x542 JUMPI PUSH1 0x0 DUP1 REVERT JUMPDEST POP JUMP JUMPDEST PUSH1 0x0 DUP2 CALLDATALOAD SWAP1 POP PUSH2 0x554 DUP2 PUSH2 0x52E JUMP JUMPDEST SWAP3 SWAP2 POP POP JUMP JUMPDEST PUSH1 0x0 DUP1 PUSH1 0x0 PUSH1 0x60 DUP5 DUP7 SUB SLT ISZERO PUSH2 0x573 JUMPI PUSH2 0x572 PUSH2 0x2BB JUMP JUMPDEST JUMPDEST PUSH1 0x0 DUP5 ADD CALLDATALOAD PUSH8 0xFFFFFFFFFFFFFFFF DUP2 GT ISZERO PUSH2 0x591 JUMPI PUSH2 0x590 PUSH2 0x2C0 JUMP JUMPDEST JUMPDEST PUSH2 0x59D DUP7 DUP3 DUP8 ADD PUSH2 0x3DD JUMP JUMPDEST SWAP4 POP POP PUSH1 0x20 PUSH2 0x5AE DUP7 DUP3 DUP8 ADD PUSH2 0x545 JUMP JUMPDEST SWAP3 POP POP PUSH1 0x40 DUP5 ADD CALLDATALOAD PUSH8 0xFFFFFFFFFFFFFFFF DUP2 GT ISZERO PUSH2 0x5CF JUMPI PUSH2 0x5CE PUSH2 0x2C0 JUMP JUMPDEST JUMPDEST PUSH2 0x5DB DUP7 DUP3 DUP8 ADD PUSH2 0x3DD JUMP JUMPDEST SWAP2 POP POP SWAP3 POP SWAP3 POP SWAP3 JUMP JUMPDEST PUSH1 0x0 DUP2 SWAP1 POP SWAP2 SWAP1 POP JUMP JUMPDEST PUSH2 0x5F8 DUP2 PUSH2 0x5E5 JUMP JUMPDEST DUP3 MSTORE POP POP JUMP JUMPDEST PUSH1 0x0 PUSH1 0x20 DUP3 ADD SWAP1 POP PUSH2 0x613 PUSH1 0x0 DUP4 ADD DUP5 PUSH2 0x5EF JUMP JUMPDEST SWAP3 SWAP2 POP POP JUMP JUMPDEST PUSH1 0x0 PUSH20 0xFFFFFFFFFFFFFFFFFFFFFFFFFFFFFFFFFFFFFFFF DUP3 AND SWAP1 POP SWAP2 SWAP1 POP JUMP JUMPDEST PUSH1 0x0 PUSH2 0x644 DUP3 PUSH2 0x619 JUMP JUMPDEST SWAP1 POP SWAP2 SWAP1 POP JUMP JUMPDEST PUSH2 0x654 DUP2 PUSH2 0x639 JUMP JUMPDEST DUP2 EQ PUSH2 0x65F JUMPI PUSH1 0x0 DUP1 REVERT JUMPDEST POP JUMP JUMPDEST PUSH1 0x0 DUP2 CALLDATALOAD SWAP1 POP PUSH2 0x671 DUP2 PUSH2 0x64B JUMP JUMPDEST SWAP3 SWAP2 POP POP JUMP JUMPDEST PUSH1 0x0 DUP1 PUSH1 0x0 PUSH1 0x60 DUP5 DUP7 SUB SLT ISZERO PUSH2 0x690 JUMPI PUSH2 0x68F PUSH2 0x2BB JUMP JUMPDEST JUMPDEST PUSH1 0x0 DUP5 ADD CALLDATALOAD PUSH8 0xFFFFFFFFFFFFFFFF DUP2 GT ISZERO PUSH2 0x6AE JUMPI PUSH2 0x6AD PUSH2 0x2C0 JUMP JUMPDEST JUMPDEST PUSH2 0x6BA DUP7 DUP3 DUP8 ADD PUSH2 0x3DD JUMP JUMPDEST SWAP4 POP POP PUSH1 0x20 PUSH2 0x6CB DUP7 DUP3 DUP8 ADD PUSH2 0x545 JUMP JUMPDEST SWAP3 POP POP PUSH1 0x40 PUSH2 0x6DC DUP7 DUP3 DUP8 ADD PUSH2 0x662 JUMP JUMPDEST SWAP2 POP POP SWAP3 POP SWAP3 POP SWAP3 JUMP JUMPDEST PUSH1 0x0 DUP2 MLOAD SWAP1 POP SWAP2 SWAP1 POP JUMP JUMPDEST PUSH1 0x0 DUP3 DUP3 MSTORE PUSH1 0x20 DUP3 ADD SWAP1 POP SWAP3 SWAP2 POP POP JUMP JUMPDEST PUSH1 0x0 PUSH2 0x70D DUP3 PUSH2 0x6E6 JUMP JUMPDEST PUSH2 0x717 DUP2 DUP6 PUSH2 0x6F1 JUMP JUMPDEST SWAP4 POP PUSH2 0x727 DUP2 DUP6 PUSH1 0x20 DUP7 ADD PUSH2 0x49F JUMP JUMPDEST PUSH2 0x730 DUP2 PUSH2 0x2CF JUMP JUMPDEST DUP5 ADD SWAP2 POP POP SWAP3 SWAP2 POP POP JUMP JUMPDEST PUSH1 0x0 PUSH1 0x40 DUP3 ADD SWAP1 POP DUP2 DUP2 SUB PUSH1 0x0 DUP4 ADD MSTORE PUSH2 0x755 DUP2 DUP6 PUSH2 0x702 JUMP JUMPDEST SWAP1 POP DUP2 DUP2 SUB PUSH1 0x20 DUP4 ADD MSTORE PUSH2 0x769 DUP2 DUP5 PUSH2 0x702 JUMP JUMPDEST SWAP1 POP SWAP4 SWAP3 POP POP POP JUMP JUMPDEST PUSH2 0x77B DUP2 PUSH2 0x524 JUMP JUMPDEST DUP3 MSTORE POP POP JUMP JUMPDEST PUSH1 0x0 PUSH1 0x60 DUP3 ADD SWAP1 POP DUP2 DUP2 SUB PUSH1 0x0 DUP4 ADD MSTORE PUSH2 0x79B DUP2 DUP7 PUSH2 0x702 JUMP JUMPDEST SWAP1 POP PUSH2 0x7AA PUSH1 0x20 DUP4 ADD DUP6 PUSH2 0x772 JUMP JUMPDEST DUP2 DUP2 SUB PUSH1 0x40 DUP4 ADD MSTORE PUSH2 0x7BC DUP2 DUP5 PUSH2 0x702 JUMP JUMPDEST SWAP1 POP SWAP5 SWAP4 POP POP POP POP JUMP JUMPDEST PUSH1 0x0 DUP2 SWAP1 POP SWAP3 SWAP2 POP POP JUMP JUMPDEST PUSH1 0x0 PUSH2 0x7DC DUP3 PUSH2 0x6E6 JUMP JUMPDEST PUSH2 0x7E6 DUP2 DUP6 PUSH2 0x7C6 JUMP JUMPDEST SWAP4 POP PUSH2 0x7F6 DUP2 DUP6 PUSH1 0x20 DUP7 ADD PUSH2 0x49F JUMP JUMPDEST DUP1 DUP5 ADD SWAP2 POP POP SWAP3 SWAP2 POP POP JUMP JUMPDEST PUSH1 0x0 DUP2 SWAP1 POP SWAP2 SWAP1 POP JUMP JUMPDEST PUSH2 0x81D PUSH2 0x818 DUP3 PUSH2 0x524 JUMP JUMPDEST PUSH2 0x802 JUMP JUMPDEST DUP3 MSTORE POP POP JUMP JUMPDEST PUSH1 0x0 DUP2 PUSH1 0x60 SHL SWAP1 POP SWAP2 SWAP1 POP JUMP JUMPDEST PUSH1 0x0 PUSH2 0x83B DUP3 PUSH2 0x823 JUMP JUMPDEST SWAP1 POP SWAP2 SWAP1 POP JUMP JUMPDEST PUSH1 0x0 PUSH2 0x84D DUP3 PUSH2 0x830 JUMP JUMPDEST SWAP1 POP SWAP2 SWAP1 POP JUMP JUMPDEST PUSH2 0x865 PUSH2 0x860 DUP3 PUSH2 0x639 JUMP JUMPDEST PUSH2 0x842 JUMP JUMPDEST DUP3 MSTORE POP POP JUMP JUMPDEST PUSH1 0x0 PUSH2 0x877 DUP3 DUP7 PUSH2 0x7D1 JUMP JUMPDEST SWAP2 POP PUSH2 0x883 DUP3 DUP6 PUSH2 0x80C JUMP JUMPDEST PUSH1 0x20 DUP3 ADD SWAP2 POP PUSH2 0x893 DUP3 DUP5 PUSH2 0x854 JUMP JUMPDEST PUSH1 0x14 DUP3 ADD SWAP2 POP DUP2 SWAP1 POP SWAP5 SWAP4 POP POP POP POP JUMP JUMPDEST PUSH1 0x0 PUSH2 0x8B0 DUP3 DUP6 PUSH2 0x7D1 JUMP JUMPDEST SWAP2 POP PUSH2 0x8BC DUP3 DUP5 PUSH2 0x7D1 JUMP JUMPDEST SWAP2 POP DUP2 SWAP1 POP SWAP4 SWAP3 POP POP POP JUMP INVALID LOG2 PUSH5 0x6970667358 0x22 SLT KECCAK256 0xC9 0xF9 0x29 STATICCALL 0xC6 SMOD EXP JUMPDEST MSTORE8 DUP3 0xD4 LOG2 0x21 BLOCKHASH 0xA7 DUP9 0x26 CALLVALUE PUSH8 0xFF8B3C3489026927 0xC4 CODECOPY 0xE5 PUSH13 0xA864736F6C6343000813003300 "
				},
				"gasEstimates": {
					"creation": {
						"codeDepositCost": "460400",
						"executionCost": "493",
						"totalCost": "460893"
					},
					"external": {
						"alsoNotCollision(string,uint256,string)": "infinite",
						"collision(string,string)": "infinite",
						"encode(string,string)": "infinite",
						"encodePacked(string,string)": "infinite",
						"hash(string,uint256,address)": "infinite",
						"notCollision(string,string)": "infinite"
					}
				},
				"methodIdentifiers": {
					"alsoNotCollision(string,uint256,string)": "46231fea",
					"collision(string,string)": "7b7fb982",
					"encode(string,string)": "17fe2da2",
					"encodePacked(string,string)": "892e5d01",
					"hash(string,uint256,address)": "5dda416e",
					"notCollision(string,string)": "c181e5b3"
				}
			},
			"storageLayout": {
				"storage": [],
				"types": null
			},
			"userdoc": {
				"kind": "user",
				"methods": {},
				"version": 1
			}
		}
	}
}