{
	"appworks_blockchain_batch2/contracts/wk3/FunctionOutputs.sol": {
		"FunctionOutputs": {
			"abi": [
				{
					"inputs": [],
					"name": "assigned",
					"outputs": [
						{
							"internalType": "uint256",
							"name": "x",
							"type": "uint256"
						},
						{
							"internalType": "bool",
							"name": "b",
							"type": "bool"
						}
					],
					"stateMutability": "pure",
					"type": "function"
				},
				{
					"inputs": [],
					"name": "destructingAssignments",
					"outputs": [],
					"stateMutability": "pure",
					"type": "function"
				},
				{
					"inputs": [],
					"name": "named",
					"outputs": [
						{
							"internalType": "uint256",
							"name": "x",
							"type": "uint256"
						},
						{
							"internalType": "bool",
							"name": "b",
							"type": "bool"
						}
					],
					"stateMutability": "pure",
					"type": "function"
				},
				{
					"inputs": [],
					"name": "returnMany",
					"outputs": [
						{
							"internalType": "uint256",
							"name": "",
							"type": "uint256"
						},
						{
							"internalType": "bool",
							"name": "",
							"type": "bool"
						}
					],
					"stateMutability": "pure",
					"type": "function"
				}
			],
			"devdoc": {
				"kind": "dev",
				"methods": {},
				"version": 1
			},
			"evm": {
				"assembly": "    /* \"appworks_blockchain_batch2/contracts/wk3/FunctionOutputs.sol\":184:846  contract FunctionOutputs {... */\n  mstore(0x40, 0x80)\n  callvalue\n  dup1\n  iszero\n  tag_1\n  jumpi\n  0x00\n  dup1\n  revert\ntag_1:\n  pop\n  dataSize(sub_0)\n  dup1\n  dataOffset(sub_0)\n  0x00\n  codecopy\n  0x00\n  return\nstop\n\nsub_0: assembly {\n        /* \"appworks_blockchain_batch2/contracts/wk3/FunctionOutputs.sol\":184:846  contract FunctionOutputs {... */\n      mstore(0x40, 0x80)\n      callvalue\n      dup1\n      iszero\n      tag_1\n      jumpi\n      0x00\n      dup1\n      revert\n    tag_1:\n      pop\n      jumpi(tag_2, lt(calldatasize, 0x04))\n      shr(0xe0, calldataload(0x00))\n      dup1\n      0x3f7f3db6\n      eq\n      tag_3\n      jumpi\n      dup1\n      0x45f907a8\n      eq\n      tag_4\n      jumpi\n      dup1\n      0x86887544\n      eq\n      tag_5\n      jumpi\n      dup1\n      0xadb4d990\n      eq\n      tag_6\n      jumpi\n    tag_2:\n      0x00\n      dup1\n      revert\n        /* \"appworks_blockchain_batch2/contracts/wk3/FunctionOutputs.sol\":568:844  function destructingAssignments() public pure {... */\n    tag_3:\n      tag_7\n      tag_8\n      jump\t// in\n    tag_7:\n      stop\n        /* \"appworks_blockchain_batch2/contracts/wk3/FunctionOutputs.sol\":351:438  function named() public pure returns (uint x, bool b) {... */\n    tag_4:\n      tag_9\n      tag_10\n      jump\t// in\n    tag_9:\n      mload(0x40)\n      tag_11\n      swap3\n      swap2\n      swap1\n      tag_12\n      jump\t// in\n    tag_11:\n      mload(0x40)\n      dup1\n      swap2\n      sub\n      swap1\n      return\n        /* \"appworks_blockchain_batch2/contracts/wk3/FunctionOutputs.sol\":236:324  function returnMany() public pure returns (uint, bool) {... */\n    tag_5:\n      tag_13\n      tag_14\n      jump\t// in\n    tag_13:\n      mload(0x40)\n      tag_15\n      swap3\n      swap2\n      swap1\n      tag_12\n      jump\t// in\n    tag_15:\n      mload(0x40)\n      dup1\n      swap2\n      sub\n      swap1\n      return\n        /* \"appworks_blockchain_batch2/contracts/wk3/FunctionOutputs.sol\":465:562  function assigned() public pure returns (uint x, bool b) {... */\n    tag_6:\n      tag_16\n      tag_17\n      jump\t// in\n    tag_16:\n      mload(0x40)\n      tag_18\n      swap3\n      swap2\n      swap1\n      tag_12\n      jump\t// in\n    tag_18:\n      mload(0x40)\n      dup1\n      swap2\n      sub\n      swap1\n      return\n        /* \"appworks_blockchain_batch2/contracts/wk3/FunctionOutputs.sol\":568:844  function destructingAssignments() public pure {... */\n    tag_8:\n        /* \"appworks_blockchain_batch2/contracts/wk3/FunctionOutputs.sol\":670:676  uint x */\n      0x00\n        /* \"appworks_blockchain_batch2/contracts/wk3/FunctionOutputs.sol\":678:684  bool b */\n      dup1\n        /* \"appworks_blockchain_batch2/contracts/wk3/FunctionOutputs.sol\":688:700  returnMany() */\n      tag_20\n        /* \"appworks_blockchain_batch2/contracts/wk3/FunctionOutputs.sol\":688:698  returnMany */\n      tag_14\n        /* \"appworks_blockchain_batch2/contracts/wk3/FunctionOutputs.sol\":688:700  returnMany() */\n      jump\t// in\n    tag_20:\n        /* \"appworks_blockchain_batch2/contracts/wk3/FunctionOutputs.sol\":669:700  (uint x, bool b) = returnMany() */\n      swap2\n      pop\n      swap2\n      pop\n        /* \"appworks_blockchain_batch2/contracts/wk3/FunctionOutputs.sol\":745:752  bool _b */\n      0x00\n        /* \"appworks_blockchain_batch2/contracts/wk3/FunctionOutputs.sol\":756:768  returnMany() */\n      tag_21\n        /* \"appworks_blockchain_batch2/contracts/wk3/FunctionOutputs.sol\":756:766  returnMany */\n      tag_14\n        /* \"appworks_blockchain_batch2/contracts/wk3/FunctionOutputs.sol\":756:768  returnMany() */\n      jump\t// in\n    tag_21:\n        /* \"appworks_blockchain_batch2/contracts/wk3/FunctionOutputs.sol\":742:768  (, bool _b) = returnMany() */\n      swap2\n      pop\n      pop\n        /* \"appworks_blockchain_batch2/contracts/wk3/FunctionOutputs.sol\":812:819  uint _x */\n      0x00\n        /* \"appworks_blockchain_batch2/contracts/wk3/FunctionOutputs.sol\":825:837  returnMany() */\n      tag_22\n        /* \"appworks_blockchain_batch2/contracts/wk3/FunctionOutputs.sol\":825:835  returnMany */\n      tag_14\n        /* \"appworks_blockchain_batch2/contracts/wk3/FunctionOutputs.sol\":825:837  returnMany() */\n      jump\t// in\n    tag_22:\n        /* \"appworks_blockchain_batch2/contracts/wk3/FunctionOutputs.sol\":811:837  (uint _x, ) = returnMany() */\n      pop\n      swap1\n      pop\n        /* \"appworks_blockchain_batch2/contracts/wk3/FunctionOutputs.sol\":614:844  {... */\n      pop\n      pop\n      pop\n      pop\n        /* \"appworks_blockchain_batch2/contracts/wk3/FunctionOutputs.sol\":568:844  function destructingAssignments() public pure {... */\n      jump\t// out\n        /* \"appworks_blockchain_batch2/contracts/wk3/FunctionOutputs.sol\":351:438  function named() public pure returns (uint x, bool b) {... */\n    tag_10:\n        /* \"appworks_blockchain_batch2/contracts/wk3/FunctionOutputs.sol\":389:395  uint x */\n      0x00\n        /* \"appworks_blockchain_batch2/contracts/wk3/FunctionOutputs.sol\":397:403  bool b */\n      dup1\n        /* \"appworks_blockchain_batch2/contracts/wk3/FunctionOutputs.sol\":423:424  1 */\n      0x01\n        /* \"appworks_blockchain_batch2/contracts/wk3/FunctionOutputs.sol\":426:430  true */\n      dup1\n        /* \"appworks_blockchain_batch2/contracts/wk3/FunctionOutputs.sol\":415:431  return (1, true) */\n      swap2\n      pop\n      swap2\n      pop\n        /* \"appworks_blockchain_batch2/contracts/wk3/FunctionOutputs.sol\":351:438  function named() public pure returns (uint x, bool b) {... */\n      swap1\n      swap2\n      jump\t// out\n        /* \"appworks_blockchain_batch2/contracts/wk3/FunctionOutputs.sol\":236:324  function returnMany() public pure returns (uint, bool) {... */\n    tag_14:\n        /* \"appworks_blockchain_batch2/contracts/wk3/FunctionOutputs.sol\":279:283  uint */\n      0x00\n        /* \"appworks_blockchain_batch2/contracts/wk3/FunctionOutputs.sol\":285:289  bool */\n      dup1\n        /* \"appworks_blockchain_batch2/contracts/wk3/FunctionOutputs.sol\":309:310  1 */\n      0x01\n        /* \"appworks_blockchain_batch2/contracts/wk3/FunctionOutputs.sol\":312:316  true */\n      dup1\n        /* \"appworks_blockchain_batch2/contracts/wk3/FunctionOutputs.sol\":301:317  return (1, true) */\n      swap2\n      pop\n      swap2\n      pop\n        /* \"appworks_blockchain_batch2/contracts/wk3/FunctionOutputs.sol\":236:324  function returnMany() public pure returns (uint, bool) {... */\n      swap1\n      swap2\n      jump\t// out\n        /* \"appworks_blockchain_batch2/contracts/wk3/FunctionOutputs.sol\":465:562  function assigned() public pure returns (uint x, bool b) {... */\n    tag_17:\n        /* \"appworks_blockchain_batch2/contracts/wk3/FunctionOutputs.sol\":506:512  uint x */\n      0x00\n        /* \"appworks_blockchain_batch2/contracts/wk3/FunctionOutputs.sol\":514:520  bool b */\n      dup1\n        /* \"appworks_blockchain_batch2/contracts/wk3/FunctionOutputs.sol\":536:537  1 */\n      0x01\n        /* \"appworks_blockchain_batch2/contracts/wk3/FunctionOutputs.sol\":532:537  x = 1 */\n      swap2\n      pop\n        /* \"appworks_blockchain_batch2/contracts/wk3/FunctionOutputs.sol\":551:555  true */\n      0x01\n        /* \"appworks_blockchain_batch2/contracts/wk3/FunctionOutputs.sol\":547:555  b = true */\n      swap1\n      pop\n        /* \"appworks_blockchain_batch2/contracts/wk3/FunctionOutputs.sol\":465:562  function assigned() public pure returns (uint x, bool b) {... */\n      swap1\n      swap2\n      jump\t// out\n        /* \"#utility.yul\":7:84   */\n    tag_26:\n        /* \"#utility.yul\":44:51   */\n      0x00\n        /* \"#utility.yul\":73:78   */\n      dup2\n        /* \"#utility.yul\":62:78   */\n      swap1\n      pop\n        /* \"#utility.yul\":7:84   */\n      swap2\n      swap1\n      pop\n      jump\t// out\n        /* \"#utility.yul\":90:208   */\n    tag_27:\n        /* \"#utility.yul\":177:201   */\n      tag_33\n        /* \"#utility.yul\":195:200   */\n      dup2\n        /* \"#utility.yul\":177:201   */\n      tag_26\n      jump\t// in\n    tag_33:\n        /* \"#utility.yul\":172:175   */\n      dup3\n        /* \"#utility.yul\":165:202   */\n      mstore\n        /* \"#utility.yul\":90:208   */\n      pop\n      pop\n      jump\t// out\n        /* \"#utility.yul\":214:304   */\n    tag_28:\n        /* \"#utility.yul\":248:255   */\n      0x00\n        /* \"#utility.yul\":291:296   */\n      dup2\n        /* \"#utility.yul\":284:297   */\n      iszero\n        /* \"#utility.yul\":277:298   */\n      iszero\n        /* \"#utility.yul\":266:298   */\n      swap1\n      pop\n        /* \"#utility.yul\":214:304   */\n      swap2\n      swap1\n      pop\n      jump\t// out\n        /* \"#utility.yul\":310:419   */\n    tag_29:\n        /* \"#utility.yul\":391:412   */\n      tag_36\n        /* \"#utility.yul\":406:411   */\n      dup2\n        /* \"#utility.yul\":391:412   */\n      tag_28\n      jump\t// in\n    tag_36:\n        /* \"#utility.yul\":386:389   */\n      dup3\n        /* \"#utility.yul\":379:413   */\n      mstore\n        /* \"#utility.yul\":310:419   */\n      pop\n      pop\n      jump\t// out\n        /* \"#utility.yul\":425:745   */\n    tag_12:\n        /* \"#utility.yul\":540:544   */\n      0x00\n        /* \"#utility.yul\":578:580   */\n      0x40\n        /* \"#utility.yul\":567:576   */\n      dup3\n        /* \"#utility.yul\":563:581   */\n      add\n        /* \"#utility.yul\":555:581   */\n      swap1\n      pop\n        /* \"#utility.yul\":591:662   */\n      tag_38\n        /* \"#utility.yul\":659:660   */\n      0x00\n        /* \"#utility.yul\":648:657   */\n      dup4\n        /* \"#utility.yul\":644:661   */\n      add\n        /* \"#utility.yul\":635:641   */\n      dup6\n        /* \"#utility.yul\":591:662   */\n      tag_27\n      jump\t// in\n    tag_38:\n        /* \"#utility.yul\":672:738   */\n      tag_39\n        /* \"#utility.yul\":734:736   */\n      0x20\n        /* \"#utility.yul\":723:732   */\n      dup4\n        /* \"#utility.yul\":719:737   */\n      add\n        /* \"#utility.yul\":710:716   */\n      dup5\n        /* \"#utility.yul\":672:738   */\n      tag_29\n      jump\t// in\n    tag_39:\n        /* \"#utility.yul\":425:745   */\n      swap4\n      swap3\n      pop\n      pop\n      pop\n      jump\t// out\n\n    auxdata: 0xa2646970667358221220dc8237b9661051c2c1531e92481d39c5a55fe6c7dab12cc625242c82123dc12064736f6c63430008130033\n}\n",
				"bytecode": {
					"linkReferences": {},
					"object": "608060405234801561001057600080fd5b506101a5806100206000396000f3fe608060405234801561001057600080fd5b506004361061004c5760003560e01c80633f7f3db61461005157806345f907a81461005b578063868875441461007a578063adb4d99014610099575b600080fd5b6100596100b8565b005b6100636100e7565b604051610071929190610146565b60405180910390f35b6100826100f5565b604051610090929190610146565b60405180910390f35b6100a1610103565b6040516100af929190610146565b60405180910390f35b6000806100c36100f5565b9150915060006100d16100f5565b91505060006100de6100f5565b50905050505050565b600080600180915091509091565b600080600180915091509091565b60008060019150600190509091565b6000819050919050565b61012581610112565b82525050565b60008115159050919050565b6101408161012b565b82525050565b600060408201905061015b600083018561011c565b6101686020830184610137565b939250505056fea2646970667358221220dc8237b9661051c2c1531e92481d39c5a55fe6c7dab12cc625242c82123dc12064736f6c63430008130033",
					"opcodes": "PUSH1 0x80 PUSH1 0x40 MSTORE CALLVALUE DUP1 ISZERO PUSH2 0x10 JUMPI PUSH1 0x0 DUP1 REVERT JUMPDEST POP PUSH2 0x1A5 DUP1 PUSH2 0x20 PUSH1 0x0 CODECOPY PUSH1 0x0 RETURN INVALID PUSH1 0x80 PUSH1 0x40 MSTORE CALLVALUE DUP1 ISZERO PUSH2 0x10 JUMPI PUSH1 0x0 DUP1 REVERT JUMPDEST POP PUSH1 0x4 CALLDATASIZE LT PUSH2 0x4C JUMPI PUSH1 0x0 CALLDATALOAD PUSH1 0xE0 SHR DUP1 PUSH4 0x3F7F3DB6 EQ PUSH2 0x51 JUMPI DUP1 PUSH4 0x45F907A8 EQ PUSH2 0x5B JUMPI DUP1 PUSH4 0x86887544 EQ PUSH2 0x7A JUMPI DUP1 PUSH4 0xADB4D990 EQ PUSH2 0x99 JUMPI JUMPDEST PUSH1 0x0 DUP1 REVERT JUMPDEST PUSH2 0x59 PUSH2 0xB8 JUMP JUMPDEST STOP JUMPDEST PUSH2 0x63 PUSH2 0xE7 JUMP JUMPDEST PUSH1 0x40 MLOAD PUSH2 0x71 SWAP3 SWAP2 SWAP1 PUSH2 0x146 JUMP JUMPDEST PUSH1 0x40 MLOAD DUP1 SWAP2 SUB SWAP1 RETURN JUMPDEST PUSH2 0x82 PUSH2 0xF5 JUMP JUMPDEST PUSH1 0x40 MLOAD PUSH2 0x90 SWAP3 SWAP2 SWAP1 PUSH2 0x146 JUMP JUMPDEST PUSH1 0x40 MLOAD DUP1 SWAP2 SUB SWAP1 RETURN JUMPDEST PUSH2 0xA1 PUSH2 0x103 JUMP JUMPDEST PUSH1 0x40 MLOAD PUSH2 0xAF SWAP3 SWAP2 SWAP1 PUSH2 0x146 JUMP JUMPDEST PUSH1 0x40 MLOAD DUP1 SWAP2 SUB SWAP1 RETURN JUMPDEST PUSH1 0x0 DUP1 PUSH2 0xC3 PUSH2 0xF5 JUMP JUMPDEST SWAP2 POP SWAP2 POP PUSH1 0x0 PUSH2 0xD1 PUSH2 0xF5 JUMP JUMPDEST SWAP2 POP POP PUSH1 0x0 PUSH2 0xDE PUSH2 0xF5 JUMP JUMPDEST POP SWAP1 POP POP POP POP POP JUMP JUMPDEST PUSH1 0x0 DUP1 PUSH1 0x1 DUP1 SWAP2 POP SWAP2 POP SWAP1 SWAP2 JUMP JUMPDEST PUSH1 0x0 DUP1 PUSH1 0x1 DUP1 SWAP2 POP SWAP2 POP SWAP1 SWAP2 JUMP JUMPDEST PUSH1 0x0 DUP1 PUSH1 0x1 SWAP2 POP PUSH1 0x1 SWAP1 POP SWAP1 SWAP2 JUMP JUMPDEST PUSH1 0x0 DUP2 SWAP1 POP SWAP2 SWAP1 POP JUMP JUMPDEST PUSH2 0x125 DUP2 PUSH2 0x112 JUMP JUMPDEST DUP3 MSTORE POP POP JUMP JUMPDEST PUSH1 0x0 DUP2 ISZERO ISZERO SWAP1 POP SWAP2 SWAP1 POP JUMP JUMPDEST PUSH2 0x140 DUP2 PUSH2 0x12B JUMP JUMPDEST DUP3 MSTORE POP POP JUMP JUMPDEST PUSH1 0x0 PUSH1 0x40 DUP3 ADD SWAP1 POP PUSH2 0x15B PUSH1 0x0 DUP4 ADD DUP6 PUSH2 0x11C JUMP JUMPDEST PUSH2 0x168 PUSH1 0x20 DUP4 ADD DUP5 PUSH2 0x137 JUMP JUMPDEST SWAP4 SWAP3 POP POP POP JUMP INVALID LOG2 PUSH5 0x6970667358 0x22 SLT KECCAK256 0xDC DUP3 CALLDATACOPY 0xB9 PUSH7 0x1051C2C1531E92 BASEFEE SAR CODECOPY 0xC5 0xA5 0x5F 0xE6 0xC7 0xDA 0xB1 0x2C 0xC6 0x25 0x24 0x2C DUP3 SLT RETURNDATASIZE 0xC1 KECCAK256 PUSH5 0x736F6C6343 STOP ADDMOD SGT STOP CALLER "
				},
				"gasEstimates": {
					"creation": {
						"codeDepositCost": "84200",
						"executionCost": "135",
						"totalCost": "84335"
					},
					"external": {
						"assigned()": "501",
						"destructingAssignments()": "infinite",
						"named()": "457",
						"returnMany()": "479"
					}
				},
				"methodIdentifiers": {
					"assigned()": "adb4d990",
					"destructingAssignments()": "3f7f3db6",
					"named()": "45f907a8",
					"returnMany()": "86887544"
				}
			},
			"storageLayout": {
				"storage": [],
				"types": null
			},
			"userdoc": {
				"kind": "user",
				"methods": {},
				"version": 1
			}
		}
	}
}