{
	"appworks_blockchain_batch2/contracts/wk3/IsContract.sol": {
		"IsContract": {
			"abi": [
				{
					"inputs": [
						{
							"internalType": "address",
							"name": "_address",
							"type": "address"
						}
					],
					"name": "isContract",
					"outputs": [
						{
							"internalType": "bool",
							"name": "",
							"type": "bool"
						}
					],
					"stateMutability": "view",
					"type": "function"
				}
			],
			"devdoc": {
				"kind": "dev",
				"methods": {},
				"version": 1
			},
			"evm": {
				"assembly": "    /* \"appworks_blockchain_batch2/contracts/wk3/IsContract.sol\":157:353  contract IsContract {... */\n  mstore(0x40, 0x80)\n  callvalue\n  dup1\n  iszero\n  tag_1\n  jumpi\n  0x00\n  dup1\n  revert\ntag_1:\n  pop\n  dataSize(sub_0)\n  dup1\n  dataOffset(sub_0)\n  0x00\n  codecopy\n  0x00\n  return\nstop\n\nsub_0: assembly {\n        /* \"appworks_blockchain_batch2/contracts/wk3/IsContract.sol\":157:353  contract IsContract {... */\n      mstore(0x40, 0x80)\n      callvalue\n      dup1\n      iszero\n      tag_1\n      jumpi\n      0x00\n      dup1\n      revert\n    tag_1:\n      pop\n      jumpi(tag_2, lt(calldatasize, 0x04))\n      shr(0xe0, calldataload(0x00))\n      dup1\n      0x16279055\n      eq\n      tag_3\n      jumpi\n    tag_2:\n      0x00\n      dup1\n      revert\n        /* \"appworks_blockchain_batch2/contracts/wk3/IsContract.sol\":183:351  function isContract(address _address) public view returns (bool) {... */\n    tag_3:\n      tag_4\n      0x04\n      dup1\n      calldatasize\n      sub\n      dup2\n      add\n      swap1\n      tag_5\n      swap2\n      swap1\n      tag_6\n      jump\t// in\n    tag_5:\n      tag_7\n      jump\t// in\n    tag_4:\n      mload(0x40)\n      tag_8\n      swap2\n      swap1\n      tag_9\n      jump\t// in\n    tag_8:\n      mload(0x40)\n      dup1\n      swap2\n      sub\n      swap1\n      return\n    tag_7:\n        /* \"appworks_blockchain_batch2/contracts/wk3/IsContract.sol\":242:246  bool */\n      0x00\n        /* \"appworks_blockchain_batch2/contracts/wk3/IsContract.sol\":258:267  uint size */\n      dup1\n        /* \"appworks_blockchain_batch2/contracts/wk3/IsContract.sol\":308:316  _address */\n      dup3\n        /* \"appworks_blockchain_batch2/contracts/wk3/IsContract.sol\":296:317  extcodesize(_address) */\n      extcodesize\n        /* \"appworks_blockchain_batch2/contracts/wk3/IsContract.sol\":288:317  size := extcodesize(_address) */\n      swap1\n      pop\n        /* \"appworks_blockchain_batch2/contracts/wk3/IsContract.sol\":343:344  0 */\n      0x00\n        /* \"appworks_blockchain_batch2/contracts/wk3/IsContract.sol\":335:339  size */\n      dup2\n        /* \"appworks_blockchain_batch2/contracts/wk3/IsContract.sol\":335:344  size != 0 */\n      eq\n      iszero\n        /* \"appworks_blockchain_batch2/contracts/wk3/IsContract.sol\":328:344  return size != 0 */\n      swap2\n      pop\n      pop\n        /* \"appworks_blockchain_batch2/contracts/wk3/IsContract.sol\":183:351  function isContract(address _address) public view returns (bool) {... */\n      swap2\n      swap1\n      pop\n      jump\t// out\n        /* \"#utility.yul\":88:205   */\n    tag_12:\n        /* \"#utility.yul\":197:198   */\n      0x00\n        /* \"#utility.yul\":194:195   */\n      dup1\n        /* \"#utility.yul\":187:199   */\n      revert\n        /* \"#utility.yul\":334:460   */\n    tag_14:\n        /* \"#utility.yul\":371:378   */\n      0x00\n        /* \"#utility.yul\":411:453   */\n      0xffffffffffffffffffffffffffffffffffffffff\n        /* \"#utility.yul\":404:409   */\n      dup3\n        /* \"#utility.yul\":400:454   */\n      and\n        /* \"#utility.yul\":389:454   */\n      swap1\n      pop\n        /* \"#utility.yul\":334:460   */\n      swap2\n      swap1\n      pop\n      jump\t// out\n        /* \"#utility.yul\":466:562   */\n    tag_15:\n        /* \"#utility.yul\":503:510   */\n      0x00\n        /* \"#utility.yul\":532:556   */\n      tag_26\n        /* \"#utility.yul\":550:555   */\n      dup3\n        /* \"#utility.yul\":532:556   */\n      tag_14\n      jump\t// in\n    tag_26:\n        /* \"#utility.yul\":521:556   */\n      swap1\n      pop\n        /* \"#utility.yul\":466:562   */\n      swap2\n      swap1\n      pop\n      jump\t// out\n        /* \"#utility.yul\":568:690   */\n    tag_16:\n        /* \"#utility.yul\":641:665   */\n      tag_28\n        /* \"#utility.yul\":659:664   */\n      dup2\n        /* \"#utility.yul\":641:665   */\n      tag_15\n      jump\t// in\n    tag_28:\n        /* \"#utility.yul\":634:639   */\n      dup2\n        /* \"#utility.yul\":631:666   */\n      eq\n        /* \"#utility.yul\":621:684   */\n      tag_29\n      jumpi\n        /* \"#utility.yul\":680:681   */\n      0x00\n        /* \"#utility.yul\":677:678   */\n      dup1\n        /* \"#utility.yul\":670:682   */\n      revert\n        /* \"#utility.yul\":621:684   */\n    tag_29:\n        /* \"#utility.yul\":568:690   */\n      pop\n      jump\t// out\n        /* \"#utility.yul\":696:835   */\n    tag_17:\n        /* \"#utility.yul\":742:747   */\n      0x00\n        /* \"#utility.yul\":780:786   */\n      dup2\n        /* \"#utility.yul\":767:787   */\n      calldataload\n        /* \"#utility.yul\":758:787   */\n      swap1\n      pop\n        /* \"#utility.yul\":796:829   */\n      tag_31\n        /* \"#utility.yul\":823:828   */\n      dup2\n        /* \"#utility.yul\":796:829   */\n      tag_16\n      jump\t// in\n    tag_31:\n        /* \"#utility.yul\":696:835   */\n      swap3\n      swap2\n      pop\n      pop\n      jump\t// out\n        /* \"#utility.yul\":841:1170   */\n    tag_6:\n        /* \"#utility.yul\":900:906   */\n      0x00\n        /* \"#utility.yul\":949:951   */\n      0x20\n        /* \"#utility.yul\":937:946   */\n      dup3\n        /* \"#utility.yul\":928:935   */\n      dup5\n        /* \"#utility.yul\":924:947   */\n      sub\n        /* \"#utility.yul\":920:952   */\n      slt\n        /* \"#utility.yul\":917:1036   */\n      iszero\n      tag_33\n      jumpi\n        /* \"#utility.yul\":955:1034   */\n      tag_34\n      tag_12\n      jump\t// in\n    tag_34:\n        /* \"#utility.yul\":917:1036   */\n    tag_33:\n        /* \"#utility.yul\":1075:1076   */\n      0x00\n        /* \"#utility.yul\":1100:1153   */\n      tag_35\n        /* \"#utility.yul\":1145:1152   */\n      dup5\n        /* \"#utility.yul\":1136:1142   */\n      dup3\n        /* \"#utility.yul\":1125:1134   */\n      dup6\n        /* \"#utility.yul\":1121:1143   */\n      add\n        /* \"#utility.yul\":1100:1153   */\n      tag_17\n      jump\t// in\n    tag_35:\n        /* \"#utility.yul\":1090:1153   */\n      swap2\n      pop\n        /* \"#utility.yul\":1046:1163   */\n      pop\n        /* \"#utility.yul\":841:1170   */\n      swap3\n      swap2\n      pop\n      pop\n      jump\t// out\n        /* \"#utility.yul\":1176:1266   */\n    tag_18:\n        /* \"#utility.yul\":1210:1217   */\n      0x00\n        /* \"#utility.yul\":1253:1258   */\n      dup2\n        /* \"#utility.yul\":1246:1259   */\n      iszero\n        /* \"#utility.yul\":1239:1260   */\n      iszero\n        /* \"#utility.yul\":1228:1260   */\n      swap1\n      pop\n        /* \"#utility.yul\":1176:1266   */\n      swap2\n      swap1\n      pop\n      jump\t// out\n        /* \"#utility.yul\":1272:1381   */\n    tag_19:\n        /* \"#utility.yul\":1353:1374   */\n      tag_38\n        /* \"#utility.yul\":1368:1373   */\n      dup2\n        /* \"#utility.yul\":1353:1374   */\n      tag_18\n      jump\t// in\n    tag_38:\n        /* \"#utility.yul\":1348:1351   */\n      dup3\n        /* \"#utility.yul\":1341:1375   */\n      mstore\n        /* \"#utility.yul\":1272:1381   */\n      pop\n      pop\n      jump\t// out\n        /* \"#utility.yul\":1387:1597   */\n    tag_9:\n        /* \"#utility.yul\":1474:1478   */\n      0x00\n        /* \"#utility.yul\":1512:1514   */\n      0x20\n        /* \"#utility.yul\":1501:1510   */\n      dup3\n        /* \"#utility.yul\":1497:1515   */\n      add\n        /* \"#utility.yul\":1489:1515   */\n      swap1\n      pop\n        /* \"#utility.yul\":1525:1590   */\n      tag_40\n        /* \"#utility.yul\":1587:1588   */\n      0x00\n        /* \"#utility.yul\":1576:1585   */\n      dup4\n        /* \"#utility.yul\":1572:1589   */\n      add\n        /* \"#utility.yul\":1563:1569   */\n      dup5\n        /* \"#utility.yul\":1525:1590   */\n      tag_19\n      jump\t// in\n    tag_40:\n        /* \"#utility.yul\":1387:1597   */\n      swap3\n      swap2\n      pop\n      pop\n      jump\t// out\n\n    auxdata: 0xa2646970667358221220af819cac7880d2e0da13d50be223d9e23d5c57938cbe9c527f447a638e90546464736f6c63430008130033\n}\n",
				"bytecode": {
					"linkReferences": {},
					"object": "608060405234801561001057600080fd5b50610170806100206000396000f3fe608060405234801561001057600080fd5b506004361061002b5760003560e01c80631627905514610030575b600080fd5b61004a600480360381019061004591906100d7565b610060565b604051610057919061011f565b60405180910390f35b600080823b90506000811415915050919050565b600080fd5b600073ffffffffffffffffffffffffffffffffffffffff82169050919050565b60006100a482610079565b9050919050565b6100b481610099565b81146100bf57600080fd5b50565b6000813590506100d1816100ab565b92915050565b6000602082840312156100ed576100ec610074565b5b60006100fb848285016100c2565b91505092915050565b60008115159050919050565b61011981610104565b82525050565b60006020820190506101346000830184610110565b9291505056fea2646970667358221220af819cac7880d2e0da13d50be223d9e23d5c57938cbe9c527f447a638e90546464736f6c63430008130033",
					"opcodes": "PUSH1 0x80 PUSH1 0x40 MSTORE CALLVALUE DUP1 ISZERO PUSH2 0x10 JUMPI PUSH1 0x0 DUP1 REVERT JUMPDEST POP PUSH2 0x170 DUP1 PUSH2 0x20 PUSH1 0x0 CODECOPY PUSH1 0x0 RETURN INVALID PUSH1 0x80 PUSH1 0x40 MSTORE CALLVALUE DUP1 ISZERO PUSH2 0x10 JUMPI PUSH1 0x0 DUP1 REVERT JUMPDEST POP PUSH1 0x4 CALLDATASIZE LT PUSH2 0x2B JUMPI PUSH1 0x0 CALLDATALOAD PUSH1 0xE0 SHR DUP1 PUSH4 0x16279055 EQ PUSH2 0x30 JUMPI JUMPDEST PUSH1 0x0 DUP1 REVERT JUMPDEST PUSH2 0x4A PUSH1 0x4 DUP1 CALLDATASIZE SUB DUP2 ADD SWAP1 PUSH2 0x45 SWAP2 SWAP1 PUSH2 0xD7 JUMP JUMPDEST PUSH2 0x60 JUMP JUMPDEST PUSH1 0x40 MLOAD PUSH2 0x57 SWAP2 SWAP1 PUSH2 0x11F JUMP JUMPDEST PUSH1 0x40 MLOAD DUP1 SWAP2 SUB SWAP1 RETURN JUMPDEST PUSH1 0x0 DUP1 DUP3 EXTCODESIZE SWAP1 POP PUSH1 0x0 DUP2 EQ ISZERO SWAP2 POP POP SWAP2 SWAP1 POP JUMP JUMPDEST PUSH1 0x0 DUP1 REVERT JUMPDEST PUSH1 0x0 PUSH20 0xFFFFFFFFFFFFFFFFFFFFFFFFFFFFFFFFFFFFFFFF DUP3 AND SWAP1 POP SWAP2 SWAP1 POP JUMP JUMPDEST PUSH1 0x0 PUSH2 0xA4 DUP3 PUSH2 0x79 JUMP JUMPDEST SWAP1 POP SWAP2 SWAP1 POP JUMP JUMPDEST PUSH2 0xB4 DUP2 PUSH2 0x99 JUMP JUMPDEST DUP2 EQ PUSH2 0xBF JUMPI PUSH1 0x0 DUP1 REVERT JUMPDEST POP JUMP JUMPDEST PUSH1 0x0 DUP2 CALLDATALOAD SWAP1 POP PUSH2 0xD1 DUP2 PUSH2 0xAB JUMP JUMPDEST SWAP3 SWAP2 POP POP JUMP JUMPDEST PUSH1 0x0 PUSH1 0x20 DUP3 DUP5 SUB SLT ISZERO PUSH2 0xED JUMPI PUSH2 0xEC PUSH2 0x74 JUMP JUMPDEST JUMPDEST PUSH1 0x0 PUSH2 0xFB DUP5 DUP3 DUP6 ADD PUSH2 0xC2 JUMP JUMPDEST SWAP2 POP POP SWAP3 SWAP2 POP POP JUMP JUMPDEST PUSH1 0x0 DUP2 ISZERO ISZERO SWAP1 POP SWAP2 SWAP1 POP JUMP JUMPDEST PUSH2 0x119 DUP2 PUSH2 0x104 JUMP JUMPDEST DUP3 MSTORE POP POP JUMP JUMPDEST PUSH1 0x0 PUSH1 0x20 DUP3 ADD SWAP1 POP PUSH2 0x134 PUSH1 0x0 DUP4 ADD DUP5 PUSH2 0x110 JUMP JUMPDEST SWAP3 SWAP2 POP POP JUMP INVALID LOG2 PUSH5 0x6970667358 0x22 SLT KECCAK256 0xAF DUP2 SWAP13 0xAC PUSH25 0x80D2E0DA13D50BE223D9E23D5C57938CBE9C527F447A638E90 SLOAD PUSH5 0x64736F6C63 NUMBER STOP ADDMOD SGT STOP CALLER "
				},
				"gasEstimates": {
					"creation": {
						"codeDepositCost": "73600",
						"executionCost": "123",
						"totalCost": "73723"
					},
					"external": {
						"isContract(address)": "3257"
					}
				},
				"methodIdentifiers": {
					"isContract(address)": "16279055"
				}
			},
			"storageLayout": {
				"storage": [],
				"types": null
			},
			"userdoc": {
				"kind": "user",
				"methods": {},
				"version": 1
			}
		}
	}
}