{
	"data": {
		"bytecode": {
			"linkReferences": {},
			"object": "60806040526040518060600160405280600160ff168152602001600260ff168152602001600360ff16815250600090600361003b929190610086565b506040518060600160405280600460ff168152602001600560ff168152602001600660ff1681525060019060036100739291906100d8565b5034801561008057600080fd5b5061013a565b8280548282559060005260206000209081019282156100c7579160200282015b828111156100c6578251829060ff169055916020019190600101906100a6565b5b5090506100d4919061011d565b5090565b826003810192821561010c579160200282015b8281111561010b578251829060ff169055916020019190600101906100eb565b5b509050610119919061011d565b5090565b5b8082111561013657600081600090555060010161011e565b5090565b6104e1806101496000396000f3fe608060405234801561001057600080fd5b506004361061004c5760003560e01c80630b441f6514610051578063335d00c2146100815780633cac14c81461008b578063fd1ee54c146100a9575b600080fd5b61006b600480360381019061006691906102e7565b6100d9565b6040516100789190610323565b60405180910390f35b6100896100f4565b005b610093610230565b6040516100a091906103fc565b60405180910390f35b6100c360048036038101906100be91906102e7565b610288565b6040516100d09190610323565b60405180910390f35b600181600381106100e957600080fd5b016000915090505481565b6000600490806001815401808255809150506001900390600052602060002001600090919091909150556000806001815481106101345761013361041e565b5b906000526020600020015490506101fa60006002815481106101595761015861041e565b5b9060005260206000200181905550600060018154811061017c5761017b61041e565b5b9060005260206000200160009055600080548061019c5761019b61044d565b5b600190038181906000526020600020016000905590556000808054905090506000600567ffffffffffffffff8111156101d8576101d761047c565b5b6040519080825280602002602001820160405280156102065781602001602082028036833780820191505090505b50905060ea8160018151811061021f5761021e61041e565b5b602002602001018181525050505050565b6060600080548060200260200160405190810160405280929190818152602001828054801561027e57602002820191906000526020600020905b81548152602001906001019080831161026a575b5050505050905090565b6000818154811061029857600080fd5b906000526020600020016000915090505481565b600080fd5b6000819050919050565b6102c4816102b1565b81146102cf57600080fd5b50565b6000813590506102e1816102bb565b92915050565b6000602082840312156102fd576102fc6102ac565b5b600061030b848285016102d2565b91505092915050565b61031d816102b1565b82525050565b60006020820190506103386000830184610314565b92915050565b600081519050919050565b600082825260208201905092915050565b6000819050602082019050919050565b610373816102b1565b82525050565b6000610385838361036a565b60208301905092915050565b6000602082019050919050565b60006103a98261033e565b6103b38185610349565b93506103be8361035a565b8060005b838110156103ef5781516103d68882610379565b97506103e183610391565b9250506001810190506103c2565b5085935050505092915050565b60006020820190508181036000830152610416818461039e565b905092915050565b7f4e487b7100000000000000000000000000000000000000000000000000000000600052603260045260246000fd5b7f4e487b7100000000000000000000000000000000000000000000000000000000600052603160045260246000fd5b7f4e487b7100000000000000000000000000000000000000000000000000000000600052604160045260246000fdfea26469706673582212208b34ae0c2106a1d932e05dd03ae5177d564b7db485ddb81b088df530d308d52f64736f6c63430008130033",
			"opcodes": "PUSH1 0x80 PUSH1 0x40 MSTORE PUSH1 0x40 MLOAD DUP1 PUSH1 0x60 ADD PUSH1 0x40 MSTORE DUP1 PUSH1 0x1 PUSH1 0xFF AND DUP2 MSTORE PUSH1 0x20 ADD PUSH1 0x2 PUSH1 0xFF AND DUP2 MSTORE PUSH1 0x20 ADD PUSH1 0x3 PUSH1 0xFF AND DUP2 MSTORE POP PUSH1 0x0 SWAP1 PUSH1 0x3 PUSH2 0x3B SWAP3 SWAP2 SWAP1 PUSH2 0x86 JUMP JUMPDEST POP PUSH1 0x40 MLOAD DUP1 PUSH1 0x60 ADD PUSH1 0x40 MSTORE DUP1 PUSH1 0x4 PUSH1 0xFF AND DUP2 MSTORE PUSH1 0x20 ADD PUSH1 0x5 PUSH1 0xFF AND DUP2 MSTORE PUSH1 0x20 ADD PUSH1 0x6 PUSH1 0xFF AND DUP2 MSTORE POP PUSH1 0x1 SWAP1 PUSH1 0x3 PUSH2 0x73 SWAP3 SWAP2 SWAP1 PUSH2 0xD8 JUMP JUMPDEST POP CALLVALUE DUP1 ISZERO PUSH2 0x80 JUMPI PUSH1 0x0 DUP1 REVERT JUMPDEST POP PUSH2 0x13A JUMP JUMPDEST DUP3 DUP1 SLOAD DUP3 DUP3 SSTORE SWAP1 PUSH1 0x0 MSTORE PUSH1 0x20 PUSH1 0x0 KECCAK256 SWAP1 DUP2 ADD SWAP3 DUP3 ISZERO PUSH2 0xC7 JUMPI SWAP2 PUSH1 0x20 MUL DUP3 ADD JUMPDEST DUP3 DUP2 GT ISZERO PUSH2 0xC6 JUMPI DUP3 MLOAD DUP3 SWAP1 PUSH1 0xFF AND SWAP1 SSTORE SWAP2 PUSH1 0x20 ADD SWAP2 SWAP1 PUSH1 0x1 ADD SWAP1 PUSH2 0xA6 JUMP JUMPDEST JUMPDEST POP SWAP1 POP PUSH2 0xD4 SWAP2 SWAP1 PUSH2 0x11D JUMP JUMPDEST POP SWAP1 JUMP JUMPDEST DUP3 PUSH1 0x3 DUP2 ADD SWAP3 DUP3 ISZERO PUSH2 0x10C JUMPI SWAP2 PUSH1 0x20 MUL DUP3 ADD JUMPDEST DUP3 DUP2 GT ISZERO PUSH2 0x10B JUMPI DUP3 MLOAD DUP3 SWAP1 PUSH1 0xFF AND SWAP1 SSTORE SWAP2 PUSH1 0x20 ADD SWAP2 SWAP1 PUSH1 0x1 ADD SWAP1 PUSH2 0xEB JUMP JUMPDEST JUMPDEST POP SWAP1 POP PUSH2 0x119 SWAP2 SWAP1 PUSH2 0x11D JUMP JUMPDEST POP SWAP1 JUMP JUMPDEST JUMPDEST DUP1 DUP3 GT ISZERO PUSH2 0x136 JUMPI PUSH1 0x0 DUP2 PUSH1 0x0 SWAP1 SSTORE POP PUSH1 0x1 ADD PUSH2 0x11E JUMP JUMPDEST POP SWAP1 JUMP JUMPDEST PUSH2 0x4E1 DUP1 PUSH2 0x149 PUSH1 0x0 CODECOPY PUSH1 0x0 RETURN INVALID PUSH1 0x80 PUSH1 0x40 MSTORE CALLVALUE DUP1 ISZERO PUSH2 0x10 JUMPI PUSH1 0x0 DUP1 REVERT JUMPDEST POP PUSH1 0x4 CALLDATASIZE LT PUSH2 0x4C JUMPI PUSH1 0x0 CALLDATALOAD PUSH1 0xE0 SHR DUP1 PUSH4 0xB441F65 EQ PUSH2 0x51 JUMPI DUP1 PUSH4 0x335D00C2 EQ PUSH2 0x81 JUMPI DUP1 PUSH4 0x3CAC14C8 EQ PUSH2 0x8B JUMPI DUP1 PUSH4 0xFD1EE54C EQ PUSH2 0xA9 JUMPI JUMPDEST PUSH1 0x0 DUP1 REVERT JUMPDEST PUSH2 0x6B PUSH1 0x4 DUP1 CALLDATASIZE SUB DUP2 ADD SWAP1 PUSH2 0x66 SWAP2 SWAP1 PUSH2 0x2E7 JUMP JUMPDEST PUSH2 0xD9 JUMP JUMPDEST PUSH1 0x40 MLOAD PUSH2 0x78 SWAP2 SWAP1 PUSH2 0x323 JUMP JUMPDEST PUSH1 0x40 MLOAD DUP1 SWAP2 SUB SWAP1 RETURN JUMPDEST PUSH2 0x89 PUSH2 0xF4 JUMP JUMPDEST STOP JUMPDEST PUSH2 0x93 PUSH2 0x230 JUMP JUMPDEST PUSH1 0x40 MLOAD PUSH2 0xA0 SWAP2 SWAP1 PUSH2 0x3FC JUMP JUMPDEST PUSH1 0x40 MLOAD DUP1 SWAP2 SUB SWAP1 RETURN JUMPDEST PUSH2 0xC3 PUSH1 0x4 DUP1 CALLDATASIZE SUB DUP2 ADD SWAP1 PUSH2 0xBE SWAP2 SWAP1 PUSH2 0x2E7 JUMP JUMPDEST PUSH2 0x288 JUMP JUMPDEST PUSH1 0x40 MLOAD PUSH2 0xD0 SWAP2 SWAP1 PUSH2 0x323 JUMP JUMPDEST PUSH1 0x40 MLOAD DUP1 SWAP2 SUB SWAP1 RETURN JUMPDEST PUSH1 0x1 DUP2 PUSH1 0x3 DUP2 LT PUSH2 0xE9 JUMPI PUSH1 0x0 DUP1 REVERT JUMPDEST ADD PUSH1 0x0 SWAP2 POP SWAP1 POP SLOAD DUP2 JUMP JUMPDEST PUSH1 0x0 PUSH1 0x4 SWAP1 DUP1 PUSH1 0x1 DUP2 SLOAD ADD DUP1 DUP3 SSTORE DUP1 SWAP2 POP POP PUSH1 0x1 SWAP1 SUB SWAP1 PUSH1 0x0 MSTORE PUSH1 0x20 PUSH1 0x0 KECCAK256 ADD PUSH1 0x0 SWAP1 SWAP2 SWAP1 SWAP2 SWAP1 SWAP2 POP SSTORE PUSH1 0x0 DUP1 PUSH1 0x1 DUP2 SLOAD DUP2 LT PUSH2 0x134 JUMPI PUSH2 0x133 PUSH2 0x41E JUMP JUMPDEST JUMPDEST SWAP1 PUSH1 0x0 MSTORE PUSH1 0x20 PUSH1 0x0 KECCAK256 ADD SLOAD SWAP1 POP PUSH2 0x1FA PUSH1 0x0 PUSH1 0x2 DUP2 SLOAD DUP2 LT PUSH2 0x159 JUMPI PUSH2 0x158 PUSH2 0x41E JUMP JUMPDEST JUMPDEST SWAP1 PUSH1 0x0 MSTORE PUSH1 0x20 PUSH1 0x0 KECCAK256 ADD DUP2 SWAP1 SSTORE POP PUSH1 0x0 PUSH1 0x1 DUP2 SLOAD DUP2 LT PUSH2 0x17C JUMPI PUSH2 0x17B PUSH2 0x41E JUMP JUMPDEST JUMPDEST SWAP1 PUSH1 0x0 MSTORE PUSH1 0x20 PUSH1 0x0 KECCAK256 ADD PUSH1 0x0 SWAP1 SSTORE PUSH1 0x0 DUP1 SLOAD DUP1 PUSH2 0x19C JUMPI PUSH2 0x19B PUSH2 0x44D JUMP JUMPDEST JUMPDEST PUSH1 0x1 SWAP1 SUB DUP2 DUP2 SWAP1 PUSH1 0x0 MSTORE PUSH1 0x20 PUSH1 0x0 KECCAK256 ADD PUSH1 0x0 SWAP1 SSTORE SWAP1 SSTORE PUSH1 0x0 DUP1 DUP1 SLOAD SWAP1 POP SWAP1 POP PUSH1 0x0 PUSH1 0x5 PUSH8 0xFFFFFFFFFFFFFFFF DUP2 GT ISZERO PUSH2 0x1D8 JUMPI PUSH2 0x1D7 PUSH2 0x47C JUMP JUMPDEST JUMPDEST PUSH1 0x40 MLOAD SWAP1 DUP1 DUP3 MSTORE DUP1 PUSH1 0x20 MUL PUSH1 0x20 ADD DUP3 ADD PUSH1 0x40 MSTORE DUP1 ISZERO PUSH2 0x206 JUMPI DUP2 PUSH1 0x20 ADD PUSH1 0x20 DUP3 MUL DUP1 CALLDATASIZE DUP4 CALLDATACOPY DUP1 DUP3 ADD SWAP2 POP POP SWAP1 POP JUMPDEST POP SWAP1 POP PUSH1 0xEA DUP2 PUSH1 0x1 DUP2 MLOAD DUP2 LT PUSH2 0x21F JUMPI PUSH2 0x21E PUSH2 0x41E JUMP JUMPDEST JUMPDEST PUSH1 0x20 MUL PUSH1 0x20 ADD ADD DUP2 DUP2 MSTORE POP POP POP POP POP JUMP JUMPDEST PUSH1 0x60 PUSH1 0x0 DUP1 SLOAD DUP1 PUSH1 0x20 MUL PUSH1 0x20 ADD PUSH1 0x40 MLOAD SWAP1 DUP2 ADD PUSH1 0x40 MSTORE DUP1 SWAP3 SWAP2 SWAP1 DUP2 DUP2 MSTORE PUSH1 0x20 ADD DUP3 DUP1 SLOAD DUP1 ISZERO PUSH2 0x27E JUMPI PUSH1 0x20 MUL DUP3 ADD SWAP2 SWAP1 PUSH1 0x0 MSTORE PUSH1 0x20 PUSH1 0x0 KECCAK256 SWAP1 JUMPDEST DUP2 SLOAD DUP2 MSTORE PUSH1 0x20 ADD SWAP1 PUSH1 0x1 ADD SWAP1 DUP1 DUP4 GT PUSH2 0x26A JUMPI JUMPDEST POP POP POP POP POP SWAP1 POP SWAP1 JUMP JUMPDEST PUSH1 0x0 DUP2 DUP2 SLOAD DUP2 LT PUSH2 0x298 JUMPI PUSH1 0x0 DUP1 REVERT JUMPDEST SWAP1 PUSH1 0x0 MSTORE PUSH1 0x20 PUSH1 0x0 KECCAK256 ADD PUSH1 0x0 SWAP2 POP SWAP1 POP SLOAD DUP2 JUMP JUMPDEST PUSH1 0x0 DUP1 REVERT JUMPDEST PUSH1 0x0 DUP2 SWAP1 POP SWAP2 SWAP1 POP JUMP JUMPDEST PUSH2 0x2C4 DUP2 PUSH2 0x2B1 JUMP JUMPDEST DUP2 EQ PUSH2 0x2CF JUMPI PUSH1 0x0 DUP1 REVERT JUMPDEST POP JUMP JUMPDEST PUSH1 0x0 DUP2 CALLDATALOAD SWAP1 POP PUSH2 0x2E1 DUP2 PUSH2 0x2BB JUMP JUMPDEST SWAP3 SWAP2 POP POP JUMP JUMPDEST PUSH1 0x0 PUSH1 0x20 DUP3 DUP5 SUB SLT ISZERO PUSH2 0x2FD JUMPI PUSH2 0x2FC PUSH2 0x2AC JUMP JUMPDEST JUMPDEST PUSH1 0x0 PUSH2 0x30B DUP5 DUP3 DUP6 ADD PUSH2 0x2D2 JUMP JUMPDEST SWAP2 POP POP SWAP3 SWAP2 POP POP JUMP JUMPDEST PUSH2 0x31D DUP2 PUSH2 0x2B1 JUMP JUMPDEST DUP3 MSTORE POP POP JUMP JUMPDEST PUSH1 0x0 PUSH1 0x20 DUP3 ADD SWAP1 POP PUSH2 0x338 PUSH1 0x0 DUP4 ADD DUP5 PUSH2 0x314 JUMP JUMPDEST SWAP3 SWAP2 POP POP JUMP JUMPDEST PUSH1 0x0 DUP2 MLOAD SWAP1 POP SWAP2 SWAP1 POP JUMP JUMPDEST PUSH1 0x0 DUP3 DUP3 MSTORE PUSH1 0x20 DUP3 ADD SWAP1 POP SWAP3 SWAP2 POP POP JUMP JUMPDEST PUSH1 0x0 DUP2 SWAP1 POP PUSH1 0x20 DUP3 ADD SWAP1 POP SWAP2 SWAP1 POP JUMP JUMPDEST PUSH2 0x373 DUP2 PUSH2 0x2B1 JUMP JUMPDEST DUP3 MSTORE POP POP JUMP JUMPDEST PUSH1 0x0 PUSH2 0x385 DUP4 DUP4 PUSH2 0x36A JUMP JUMPDEST PUSH1 0x20 DUP4 ADD SWAP1 POP SWAP3 SWAP2 POP POP JUMP JUMPDEST PUSH1 0x0 PUSH1 0x20 DUP3 ADD SWAP1 POP SWAP2 SWAP1 POP JUMP JUMPDEST PUSH1 0x0 PUSH2 0x3A9 DUP3 PUSH2 0x33E JUMP JUMPDEST PUSH2 0x3B3 DUP2 DUP6 PUSH2 0x349 JUMP JUMPDEST SWAP4 POP PUSH2 0x3BE DUP4 PUSH2 0x35A JUMP JUMPDEST DUP1 PUSH1 0x0 JUMPDEST DUP4 DUP2 LT ISZERO PUSH2 0x3EF JUMPI DUP2 MLOAD PUSH2 0x3D6 DUP9 DUP3 PUSH2 0x379 JUMP JUMPDEST SWAP8 POP PUSH2 0x3E1 DUP4 PUSH2 0x391 JUMP JUMPDEST SWAP3 POP POP PUSH1 0x1 DUP2 ADD SWAP1 POP PUSH2 0x3C2 JUMP JUMPDEST POP DUP6 SWAP4 POP POP POP POP SWAP3 SWAP2 POP POP JUMP JUMPDEST PUSH1 0x0 PUSH1 0x20 DUP3 ADD SWAP1 POP DUP2 DUP2 SUB PUSH1 0x0 DUP4 ADD MSTORE PUSH2 0x416 DUP2 DUP5 PUSH2 0x39E JUMP JUMPDEST SWAP1 POP SWAP3 SWAP2 POP POP JUMP JUMPDEST PUSH32 0x4E487B7100000000000000000000000000000000000000000000000000000000 PUSH1 0x0 MSTORE PUSH1 0x32 PUSH1 0x4 MSTORE PUSH1 0x24 PUSH1 0x0 REVERT JUMPDEST PUSH32 0x4E487B7100000000000000000000000000000000000000000000000000000000 PUSH1 0x0 MSTORE PUSH1 0x31 PUSH1 0x4 MSTORE PUSH1 0x24 PUSH1 0x0 REVERT JUMPDEST PUSH32 0x4E487B7100000000000000000000000000000000000000000000000000000000 PUSH1 0x0 MSTORE PUSH1 0x41 PUSH1 0x4 MSTORE PUSH1 0x24 PUSH1 0x0 REVERT INVALID LOG2 PUSH5 0x6970667358 0x22 SLT KECCAK256 DUP12 CALLVALUE 0xAE 0xC 0x21 MOD LOG1 0xD9 ORIGIN 0xE0 0x5D 0xD0 GASPRICE 0xE5 OR PUSH30 0x564B7DB485DDB81B088DF530D308D52F64736F6C63430008130033000000 "
		},
		"gasEstimates": {
			"creation": {
				"codeDepositCost": "249800",
				"executionCost": "infinite",
				"totalCost": "infinite"
			},
			"external": {
				"examples()": "114026",
				"fixedNums(uint256)": "infinite",
				"nums(uint256)": "infinite",
				"returnArray()": "infinite"
			}
		},
		"methodIdentifiers": {
			"examples()": "335d00c2",
			"fixedNums(uint256)": "0b441f65",
			"nums(uint256)": "fd1ee54c",
			"returnArray()": "3cac14c8"
		}
	},
	"abi": [
		{
			"inputs": [],
			"name": "examples",
			"outputs": [],
			"stateMutability": "nonpayable",
			"type": "function"
		},
		{
			"inputs": [
				{
					"internalType": "uint256",
					"name": "",
					"type": "uint256"
				}
			],
			"name": "fixedNums",
			"outputs": [
				{
					"internalType": "uint256",
					"name": "",
					"type": "uint256"
				}
			],
			"stateMutability": "view",
			"type": "function"
		},
		{
			"inputs": [
				{
					"internalType": "uint256",
					"name": "",
					"type": "uint256"
				}
			],
			"name": "nums",
			"outputs": [
				{
					"internalType": "uint256",
					"name": "",
					"type": "uint256"
				}
			],
			"stateMutability": "view",
			"type": "function"
		},
		{
			"inputs": [],
			"name": "returnArray",
			"outputs": [
				{
					"internalType": "uint256[]",
					"name": "",
					"type": "uint256[]"
				}
			],
			"stateMutability": "view",
			"type": "function"
		}
	]
}