{
	"appworks_blockchain_batch2/contracts/wk5/ForAndWhileLoops.sol": {
		"ForAndWhileLoops": {
			"abi": [
				{
					"inputs": [],
					"name": "loops",
					"outputs": [],
					"stateMutability": "pure",
					"type": "function"
				},
				{
					"inputs": [
						{
							"internalType": "uint256",
							"name": "_n",
							"type": "uint256"
						}
					],
					"name": "sum",
					"outputs": [
						{
							"internalType": "uint256",
							"name": "",
							"type": "uint256"
						}
					],
					"stateMutability": "pure",
					"type": "function"
				}
			],
			"devdoc": {
				"kind": "dev",
				"methods": {},
				"version": 1
			},
			"evm": {
				"assembly": "    /* \"appworks_blockchain_batch2/contracts/wk5/ForAndWhileLoops.sol\":111:728  contract ForAndWhileLoops {... */\n  mstore(0x40, 0x80)\n  callvalue\n  dup1\n  iszero\n  tag_1\n  jumpi\n  0x00\n  dup1\n  revert\ntag_1:\n  pop\n  dataSize(sub_0)\n  dup1\n  dataOffset(sub_0)\n  0x00\n  codecopy\n  0x00\n  return\nstop\n\nsub_0: assembly {\n        /* \"appworks_blockchain_batch2/contracts/wk5/ForAndWhileLoops.sol\":111:728  contract ForAndWhileLoops {... */\n      mstore(0x40, 0x80)\n      callvalue\n      dup1\n      iszero\n      tag_1\n      jumpi\n      0x00\n      dup1\n      revert\n    tag_1:\n      pop\n      jumpi(tag_2, lt(calldatasize, 0x04))\n      shr(0xe0, calldataload(0x00))\n      dup1\n      0x188b85b4\n      eq\n      tag_3\n      jumpi\n      dup1\n      0x938b9ceb\n      eq\n      tag_4\n      jumpi\n    tag_2:\n      0x00\n      dup1\n      revert\n        /* \"appworks_blockchain_batch2/contracts/wk5/ForAndWhileLoops.sol\":495:726  function sum(uint _n) external pure returns(uint) {... */\n    tag_3:\n      tag_5\n      0x04\n      dup1\n      calldatasize\n      sub\n      dup2\n      add\n      swap1\n      tag_6\n      swap2\n      swap1\n      tag_7\n      jump\t// in\n    tag_6:\n      tag_8\n      jump\t// in\n    tag_5:\n      mload(0x40)\n      tag_9\n      swap2\n      swap1\n      tag_10\n      jump\t// in\n    tag_9:\n      mload(0x40)\n      dup1\n      swap2\n      sub\n      swap1\n      return\n        /* \"appworks_blockchain_batch2/contracts/wk5/ForAndWhileLoops.sol\":143:489  function loops() external pure {... */\n    tag_4:\n      tag_11\n      tag_12\n      jump\t// in\n    tag_11:\n      stop\n        /* \"appworks_blockchain_batch2/contracts/wk5/ForAndWhileLoops.sol\":495:726  function sum(uint _n) external pure returns(uint) {... */\n    tag_8:\n        /* \"appworks_blockchain_batch2/contracts/wk5/ForAndWhileLoops.sol\":539:543  uint */\n      0x00\n        /* \"appworks_blockchain_batch2/contracts/wk5/ForAndWhileLoops.sol\":555:561  uint s */\n      dup1\n        /* \"appworks_blockchain_batch2/contracts/wk5/ForAndWhileLoops.sol\":576:582  uint i */\n      0x00\n        /* \"appworks_blockchain_batch2/contracts/wk5/ForAndWhileLoops.sol\":585:586  1 */\n      0x01\n        /* \"appworks_blockchain_batch2/contracts/wk5/ForAndWhileLoops.sol\":576:586  uint i = 1 */\n      swap1\n      pop\n        /* \"appworks_blockchain_batch2/contracts/wk5/ForAndWhileLoops.sol\":571:702  for (uint i = 1; i <= _n; i++) { // loop 次數會影響消耗的 gas, 因此 loop 次數越少越好... */\n    tag_14:\n        /* \"appworks_blockchain_batch2/contracts/wk5/ForAndWhileLoops.sol\":593:595  _n */\n      dup4\n        /* \"appworks_blockchain_batch2/contracts/wk5/ForAndWhileLoops.sol\":588:589  i */\n      dup2\n        /* \"appworks_blockchain_batch2/contracts/wk5/ForAndWhileLoops.sol\":588:595  i <= _n */\n      gt\n        /* \"appworks_blockchain_batch2/contracts/wk5/ForAndWhileLoops.sol\":571:702  for (uint i = 1; i <= _n; i++) { // loop 次數會影響消耗的 gas, 因此 loop 次數越少越好... */\n      tag_15\n      jumpi\n        /* \"appworks_blockchain_batch2/contracts/wk5/ForAndWhileLoops.sol\":690:691  i */\n      dup1\n        /* \"appworks_blockchain_batch2/contracts/wk5/ForAndWhileLoops.sol\":685:691  s += i */\n      dup3\n      tag_17\n      swap2\n      swap1\n      tag_18\n      jump\t// in\n    tag_17:\n      swap2\n      pop\n        /* \"appworks_blockchain_batch2/contracts/wk5/ForAndWhileLoops.sol\":597:600  i++ */\n      dup1\n      dup1\n      tag_19\n      swap1\n      tag_20\n      jump\t// in\n    tag_19:\n      swap2\n      pop\n      pop\n        /* \"appworks_blockchain_batch2/contracts/wk5/ForAndWhileLoops.sol\":571:702  for (uint i = 1; i <= _n; i++) { // loop 次數會影響消耗的 gas, 因此 loop 次數越少越好... */\n      jump(tag_14)\n    tag_15:\n      pop\n        /* \"appworks_blockchain_batch2/contracts/wk5/ForAndWhileLoops.sol\":718:719  s */\n      dup1\n        /* \"appworks_blockchain_batch2/contracts/wk5/ForAndWhileLoops.sol\":711:719  return s */\n      swap2\n      pop\n      pop\n        /* \"appworks_blockchain_batch2/contracts/wk5/ForAndWhileLoops.sol\":495:726  function sum(uint _n) external pure returns(uint) {... */\n      swap2\n      swap1\n      pop\n      jump\t// out\n        /* \"appworks_blockchain_batch2/contracts/wk5/ForAndWhileLoops.sol\":143:489  function loops() external pure {... */\n    tag_12:\n        /* \"appworks_blockchain_batch2/contracts/wk5/ForAndWhileLoops.sol\":189:195  uint i */\n      0x00\n        /* \"appworks_blockchain_batch2/contracts/wk5/ForAndWhileLoops.sol\":184:410  for (uint i = 0; i < 10; i++) {... */\n    tag_22:\n        /* \"appworks_blockchain_batch2/contracts/wk5/ForAndWhileLoops.sol\":205:207  10 */\n      0x0a\n        /* \"appworks_blockchain_batch2/contracts/wk5/ForAndWhileLoops.sol\":201:202  i */\n      dup2\n        /* \"appworks_blockchain_batch2/contracts/wk5/ForAndWhileLoops.sol\":201:207  i < 10 */\n      lt\n        /* \"appworks_blockchain_batch2/contracts/wk5/ForAndWhileLoops.sol\":184:410  for (uint i = 0; i < 10; i++) {... */\n      iszero\n      tag_23\n      jumpi\n        /* \"appworks_blockchain_batch2/contracts/wk5/ForAndWhileLoops.sol\":237:238  3 */\n      0x03\n        /* \"appworks_blockchain_batch2/contracts/wk5/ForAndWhileLoops.sol\":232:233  i */\n      dup2\n        /* \"appworks_blockchain_batch2/contracts/wk5/ForAndWhileLoops.sol\":232:238  i == 3 */\n      sub\n        /* \"appworks_blockchain_batch2/contracts/wk5/ForAndWhileLoops.sol\":228:307  if (i == 3) {... */\n      iszero\n        /* \"appworks_blockchain_batch2/contracts/wk5/ForAndWhileLoops.sol\":258:266  continue */\n      tag_24\n        /* \"appworks_blockchain_batch2/contracts/wk5/ForAndWhileLoops.sol\":228:307  if (i == 3) {... */\n      jumpi\n        /* \"appworks_blockchain_batch2/contracts/wk5/ForAndWhileLoops.sol\":330:331  5 */\n      0x05\n        /* \"appworks_blockchain_batch2/contracts/wk5/ForAndWhileLoops.sol\":325:326  i */\n      dup2\n        /* \"appworks_blockchain_batch2/contracts/wk5/ForAndWhileLoops.sol\":325:331  i == 5 */\n      sub\n        /* \"appworks_blockchain_batch2/contracts/wk5/ForAndWhileLoops.sol\":321:400  if (i == 5) {... */\n      iszero\n        /* \"appworks_blockchain_batch2/contracts/wk5/ForAndWhileLoops.sol\":351:356  break */\n      tag_23\n        /* \"appworks_blockchain_batch2/contracts/wk5/ForAndWhileLoops.sol\":321:400  if (i == 5) {... */\n      jumpi\n        /* \"appworks_blockchain_batch2/contracts/wk5/ForAndWhileLoops.sol\":184:410  for (uint i = 0; i < 10; i++) {... */\n    tag_24:\n        /* \"appworks_blockchain_batch2/contracts/wk5/ForAndWhileLoops.sol\":209:212  i++ */\n      dup1\n      dup1\n      tag_27\n      swap1\n      tag_20\n      jump\t// in\n    tag_27:\n      swap2\n      pop\n      pop\n        /* \"appworks_blockchain_batch2/contracts/wk5/ForAndWhileLoops.sol\":184:410  for (uint i = 0; i < 10; i++) {... */\n      jump(tag_22)\n    tag_23:\n      pop\n        /* \"appworks_blockchain_batch2/contracts/wk5/ForAndWhileLoops.sol\":420:426  uint j */\n      0x00\n        /* \"appworks_blockchain_batch2/contracts/wk5/ForAndWhileLoops.sol\":440:483  while (j < 10) {... */\n    tag_28:\n        /* \"appworks_blockchain_batch2/contracts/wk5/ForAndWhileLoops.sol\":451:453  10 */\n      0x0a\n        /* \"appworks_blockchain_batch2/contracts/wk5/ForAndWhileLoops.sol\":447:448  j */\n      dup2\n        /* \"appworks_blockchain_batch2/contracts/wk5/ForAndWhileLoops.sol\":447:453  j < 10 */\n      lt\n        /* \"appworks_blockchain_batch2/contracts/wk5/ForAndWhileLoops.sol\":440:483  while (j < 10) {... */\n      iszero\n      tag_29\n      jumpi\n        /* \"appworks_blockchain_batch2/contracts/wk5/ForAndWhileLoops.sol\":469:472  j++ */\n      dup1\n      dup1\n      tag_30\n      swap1\n      tag_20\n      jump\t// in\n    tag_30:\n      swap2\n      pop\n      pop\n        /* \"appworks_blockchain_batch2/contracts/wk5/ForAndWhileLoops.sol\":440:483  while (j < 10) {... */\n      jump(tag_28)\n    tag_29:\n        /* \"appworks_blockchain_batch2/contracts/wk5/ForAndWhileLoops.sol\":174:489  {... */\n      pop\n        /* \"appworks_blockchain_batch2/contracts/wk5/ForAndWhileLoops.sol\":143:489  function loops() external pure {... */\n      jump\t// out\n        /* \"#utility.yul\":88:205   */\n    tag_32:\n        /* \"#utility.yul\":197:198   */\n      0x00\n        /* \"#utility.yul\":194:195   */\n      dup1\n        /* \"#utility.yul\":187:199   */\n      revert\n        /* \"#utility.yul\":334:411   */\n    tag_34:\n        /* \"#utility.yul\":371:378   */\n      0x00\n        /* \"#utility.yul\":400:405   */\n      dup2\n        /* \"#utility.yul\":389:405   */\n      swap1\n      pop\n        /* \"#utility.yul\":334:411   */\n      swap2\n      swap1\n      pop\n      jump\t// out\n        /* \"#utility.yul\":417:539   */\n    tag_35:\n        /* \"#utility.yul\":490:514   */\n      tag_45\n        /* \"#utility.yul\":508:513   */\n      dup2\n        /* \"#utility.yul\":490:514   */\n      tag_34\n      jump\t// in\n    tag_45:\n        /* \"#utility.yul\":483:488   */\n      dup2\n        /* \"#utility.yul\":480:515   */\n      eq\n        /* \"#utility.yul\":470:533   */\n      tag_46\n      jumpi\n        /* \"#utility.yul\":529:530   */\n      0x00\n        /* \"#utility.yul\":526:527   */\n      dup1\n        /* \"#utility.yul\":519:531   */\n      revert\n        /* \"#utility.yul\":470:533   */\n    tag_46:\n        /* \"#utility.yul\":417:539   */\n      pop\n      jump\t// out\n        /* \"#utility.yul\":545:684   */\n    tag_36:\n        /* \"#utility.yul\":591:596   */\n      0x00\n        /* \"#utility.yul\":629:635   */\n      dup2\n        /* \"#utility.yul\":616:636   */\n      calldataload\n        /* \"#utility.yul\":607:636   */\n      swap1\n      pop\n        /* \"#utility.yul\":645:678   */\n      tag_48\n        /* \"#utility.yul\":672:677   */\n      dup2\n        /* \"#utility.yul\":645:678   */\n      tag_35\n      jump\t// in\n    tag_48:\n        /* \"#utility.yul\":545:684   */\n      swap3\n      swap2\n      pop\n      pop\n      jump\t// out\n        /* \"#utility.yul\":690:1019   */\n    tag_7:\n        /* \"#utility.yul\":749:755   */\n      0x00\n        /* \"#utility.yul\":798:800   */\n      0x20\n        /* \"#utility.yul\":786:795   */\n      dup3\n        /* \"#utility.yul\":777:784   */\n      dup5\n        /* \"#utility.yul\":773:796   */\n      sub\n        /* \"#utility.yul\":769:801   */\n      slt\n        /* \"#utility.yul\":766:885   */\n      iszero\n      tag_50\n      jumpi\n        /* \"#utility.yul\":804:883   */\n      tag_51\n      tag_32\n      jump\t// in\n    tag_51:\n        /* \"#utility.yul\":766:885   */\n    tag_50:\n        /* \"#utility.yul\":924:925   */\n      0x00\n        /* \"#utility.yul\":949:1002   */\n      tag_52\n        /* \"#utility.yul\":994:1001   */\n      dup5\n        /* \"#utility.yul\":985:991   */\n      dup3\n        /* \"#utility.yul\":974:983   */\n      dup6\n        /* \"#utility.yul\":970:992   */\n      add\n        /* \"#utility.yul\":949:1002   */\n      tag_36\n      jump\t// in\n    tag_52:\n        /* \"#utility.yul\":939:1002   */\n      swap2\n      pop\n        /* \"#utility.yul\":895:1012   */\n      pop\n        /* \"#utility.yul\":690:1019   */\n      swap3\n      swap2\n      pop\n      pop\n      jump\t// out\n        /* \"#utility.yul\":1025:1143   */\n    tag_37:\n        /* \"#utility.yul\":1112:1136   */\n      tag_54\n        /* \"#utility.yul\":1130:1135   */\n      dup2\n        /* \"#utility.yul\":1112:1136   */\n      tag_34\n      jump\t// in\n    tag_54:\n        /* \"#utility.yul\":1107:1110   */\n      dup3\n        /* \"#utility.yul\":1100:1137   */\n      mstore\n        /* \"#utility.yul\":1025:1143   */\n      pop\n      pop\n      jump\t// out\n        /* \"#utility.yul\":1149:1371   */\n    tag_10:\n        /* \"#utility.yul\":1242:1246   */\n      0x00\n        /* \"#utility.yul\":1280:1282   */\n      0x20\n        /* \"#utility.yul\":1269:1278   */\n      dup3\n        /* \"#utility.yul\":1265:1283   */\n      add\n        /* \"#utility.yul\":1257:1283   */\n      swap1\n      pop\n        /* \"#utility.yul\":1293:1364   */\n      tag_56\n        /* \"#utility.yul\":1361:1362   */\n      0x00\n        /* \"#utility.yul\":1350:1359   */\n      dup4\n        /* \"#utility.yul\":1346:1363   */\n      add\n        /* \"#utility.yul\":1337:1343   */\n      dup5\n        /* \"#utility.yul\":1293:1364   */\n      tag_37\n      jump\t// in\n    tag_56:\n        /* \"#utility.yul\":1149:1371   */\n      swap3\n      swap2\n      pop\n      pop\n      jump\t// out\n        /* \"#utility.yul\":1377:1557   */\n    tag_38:\n        /* \"#utility.yul\":1425:1502   */\n      0x4e487b7100000000000000000000000000000000000000000000000000000000\n        /* \"#utility.yul\":1422:1423   */\n      0x00\n        /* \"#utility.yul\":1415:1503   */\n      mstore\n        /* \"#utility.yul\":1522:1526   */\n      0x11\n        /* \"#utility.yul\":1519:1520   */\n      0x04\n        /* \"#utility.yul\":1512:1527   */\n      mstore\n        /* \"#utility.yul\":1546:1550   */\n      0x24\n        /* \"#utility.yul\":1543:1544   */\n      0x00\n        /* \"#utility.yul\":1536:1551   */\n      revert\n        /* \"#utility.yul\":1563:1754   */\n    tag_18:\n        /* \"#utility.yul\":1603:1606   */\n      0x00\n        /* \"#utility.yul\":1622:1642   */\n      tag_59\n        /* \"#utility.yul\":1640:1641   */\n      dup3\n        /* \"#utility.yul\":1622:1642   */\n      tag_34\n      jump\t// in\n    tag_59:\n        /* \"#utility.yul\":1617:1642   */\n      swap2\n      pop\n        /* \"#utility.yul\":1656:1676   */\n      tag_60\n        /* \"#utility.yul\":1674:1675   */\n      dup4\n        /* \"#utility.yul\":1656:1676   */\n      tag_34\n      jump\t// in\n    tag_60:\n        /* \"#utility.yul\":1651:1676   */\n      swap3\n      pop\n        /* \"#utility.yul\":1699:1700   */\n      dup3\n        /* \"#utility.yul\":1696:1697   */\n      dup3\n        /* \"#utility.yul\":1692:1701   */\n      add\n        /* \"#utility.yul\":1685:1701   */\n      swap1\n      pop\n        /* \"#utility.yul\":1720:1723   */\n      dup1\n        /* \"#utility.yul\":1717:1718   */\n      dup3\n        /* \"#utility.yul\":1714:1724   */\n      gt\n        /* \"#utility.yul\":1711:1747   */\n      iszero\n      tag_61\n      jumpi\n        /* \"#utility.yul\":1727:1745   */\n      tag_62\n      tag_38\n      jump\t// in\n    tag_62:\n        /* \"#utility.yul\":1711:1747   */\n    tag_61:\n        /* \"#utility.yul\":1563:1754   */\n      swap3\n      swap2\n      pop\n      pop\n      jump\t// out\n        /* \"#utility.yul\":1760:1993   */\n    tag_20:\n        /* \"#utility.yul\":1799:1802   */\n      0x00\n        /* \"#utility.yul\":1822:1846   */\n      tag_64\n        /* \"#utility.yul\":1840:1845   */\n      dup3\n        /* \"#utility.yul\":1822:1846   */\n      tag_34\n      jump\t// in\n    tag_64:\n        /* \"#utility.yul\":1813:1846   */\n      swap2\n      pop\n        /* \"#utility.yul\":1868:1934   */\n      0xffffffffffffffffffffffffffffffffffffffffffffffffffffffffffffffff\n        /* \"#utility.yul\":1861:1866   */\n      dup3\n        /* \"#utility.yul\":1858:1935   */\n      sub\n        /* \"#utility.yul\":1855:1958   */\n      tag_65\n      jumpi\n        /* \"#utility.yul\":1938:1956   */\n      tag_66\n      tag_38\n      jump\t// in\n    tag_66:\n        /* \"#utility.yul\":1855:1958   */\n    tag_65:\n        /* \"#utility.yul\":1985:1986   */\n      0x01\n        /* \"#utility.yul\":1978:1983   */\n      dup3\n        /* \"#utility.yul\":1974:1987   */\n      add\n        /* \"#utility.yul\":1967:1987   */\n      swap1\n      pop\n        /* \"#utility.yul\":1760:1993   */\n      swap2\n      swap1\n      pop\n      jump\t// out\n\n    auxdata: 0xa2646970667358221220b797cec724f02c29bc63decb72561d2b4c117ab0fd92af33cedb228a53828e7b64736f6c63430008130033\n}\n",
				"bytecode": {
					"linkReferences": {},
					"object": "608060405234801561001057600080fd5b50610279806100206000396000f3fe608060405234801561001057600080fd5b50600436106100365760003560e01c8063188b85b41461003b578063938b9ceb1461006b575b600080fd5b61005560048036038101906100509190610141565b610075565b604051610062919061017d565b60405180910390f35b6100736100b1565b005b6000806000600190505b8381116100a757808261009291906101c7565b9150808061009f906101fb565b91505061007f565b5080915050919050565b60005b600a8110156100e35760038103156100d05760058103156100e3575b80806100db906101fb565b9150506100b4565b5060005b600a8110156101035780806100fb906101fb565b9150506100e7565b50565b600080fd5b6000819050919050565b61011e8161010b565b811461012957600080fd5b50565b60008135905061013b81610115565b92915050565b60006020828403121561015757610156610106565b5b60006101658482850161012c565b91505092915050565b6101778161010b565b82525050565b6000602082019050610192600083018461016e565b92915050565b7f4e487b7100000000000000000000000000000000000000000000000000000000600052601160045260246000fd5b60006101d28261010b565b91506101dd8361010b565b92508282019050808211156101f5576101f4610198565b5b92915050565b60006102068261010b565b91507fffffffffffffffffffffffffffffffffffffffffffffffffffffffffffffffff820361023857610237610198565b5b60018201905091905056fea2646970667358221220b797cec724f02c29bc63decb72561d2b4c117ab0fd92af33cedb228a53828e7b64736f6c63430008130033",
					"opcodes": "PUSH1 0x80 PUSH1 0x40 MSTORE CALLVALUE DUP1 ISZERO PUSH2 0x10 JUMPI PUSH1 0x0 DUP1 REVERT JUMPDEST POP PUSH2 0x279 DUP1 PUSH2 0x20 PUSH1 0x0 CODECOPY PUSH1 0x0 RETURN INVALID PUSH1 0x80 PUSH1 0x40 MSTORE CALLVALUE DUP1 ISZERO PUSH2 0x10 JUMPI PUSH1 0x0 DUP1 REVERT JUMPDEST POP PUSH1 0x4 CALLDATASIZE LT PUSH2 0x36 JUMPI PUSH1 0x0 CALLDATALOAD PUSH1 0xE0 SHR DUP1 PUSH4 0x188B85B4 EQ PUSH2 0x3B JUMPI DUP1 PUSH4 0x938B9CEB EQ PUSH2 0x6B JUMPI JUMPDEST PUSH1 0x0 DUP1 REVERT JUMPDEST PUSH2 0x55 PUSH1 0x4 DUP1 CALLDATASIZE SUB DUP2 ADD SWAP1 PUSH2 0x50 SWAP2 SWAP1 PUSH2 0x141 JUMP JUMPDEST PUSH2 0x75 JUMP JUMPDEST PUSH1 0x40 MLOAD PUSH2 0x62 SWAP2 SWAP1 PUSH2 0x17D JUMP JUMPDEST PUSH1 0x40 MLOAD DUP1 SWAP2 SUB SWAP1 RETURN JUMPDEST PUSH2 0x73 PUSH2 0xB1 JUMP JUMPDEST STOP JUMPDEST PUSH1 0x0 DUP1 PUSH1 0x0 PUSH1 0x1 SWAP1 POP JUMPDEST DUP4 DUP2 GT PUSH2 0xA7 JUMPI DUP1 DUP3 PUSH2 0x92 SWAP2 SWAP1 PUSH2 0x1C7 JUMP JUMPDEST SWAP2 POP DUP1 DUP1 PUSH2 0x9F SWAP1 PUSH2 0x1FB JUMP JUMPDEST SWAP2 POP POP PUSH2 0x7F JUMP JUMPDEST POP DUP1 SWAP2 POP POP SWAP2 SWAP1 POP JUMP JUMPDEST PUSH1 0x0 JUMPDEST PUSH1 0xA DUP2 LT ISZERO PUSH2 0xE3 JUMPI PUSH1 0x3 DUP2 SUB ISZERO PUSH2 0xD0 JUMPI PUSH1 0x5 DUP2 SUB ISZERO PUSH2 0xE3 JUMPI JUMPDEST DUP1 DUP1 PUSH2 0xDB SWAP1 PUSH2 0x1FB JUMP JUMPDEST SWAP2 POP POP PUSH2 0xB4 JUMP JUMPDEST POP PUSH1 0x0 JUMPDEST PUSH1 0xA DUP2 LT ISZERO PUSH2 0x103 JUMPI DUP1 DUP1 PUSH2 0xFB SWAP1 PUSH2 0x1FB JUMP JUMPDEST SWAP2 POP POP PUSH2 0xE7 JUMP JUMPDEST POP JUMP JUMPDEST PUSH1 0x0 DUP1 REVERT JUMPDEST PUSH1 0x0 DUP2 SWAP1 POP SWAP2 SWAP1 POP JUMP JUMPDEST PUSH2 0x11E DUP2 PUSH2 0x10B JUMP JUMPDEST DUP2 EQ PUSH2 0x129 JUMPI PUSH1 0x0 DUP1 REVERT JUMPDEST POP JUMP JUMPDEST PUSH1 0x0 DUP2 CALLDATALOAD SWAP1 POP PUSH2 0x13B DUP2 PUSH2 0x115 JUMP JUMPDEST SWAP3 SWAP2 POP POP JUMP JUMPDEST PUSH1 0x0 PUSH1 0x20 DUP3 DUP5 SUB SLT ISZERO PUSH2 0x157 JUMPI PUSH2 0x156 PUSH2 0x106 JUMP JUMPDEST JUMPDEST PUSH1 0x0 PUSH2 0x165 DUP5 DUP3 DUP6 ADD PUSH2 0x12C JUMP JUMPDEST SWAP2 POP POP SWAP3 SWAP2 POP POP JUMP JUMPDEST PUSH2 0x177 DUP2 PUSH2 0x10B JUMP JUMPDEST DUP3 MSTORE POP POP JUMP JUMPDEST PUSH1 0x0 PUSH1 0x20 DUP3 ADD SWAP1 POP PUSH2 0x192 PUSH1 0x0 DUP4 ADD DUP5 PUSH2 0x16E JUMP JUMPDEST SWAP3 SWAP2 POP POP JUMP JUMPDEST PUSH32 0x4E487B7100000000000000000000000000000000000000000000000000000000 PUSH1 0x0 MSTORE PUSH1 0x11 PUSH1 0x4 MSTORE PUSH1 0x24 PUSH1 0x0 REVERT JUMPDEST PUSH1 0x0 PUSH2 0x1D2 DUP3 PUSH2 0x10B JUMP JUMPDEST SWAP2 POP PUSH2 0x1DD DUP4 PUSH2 0x10B JUMP JUMPDEST SWAP3 POP DUP3 DUP3 ADD SWAP1 POP DUP1 DUP3 GT ISZERO PUSH2 0x1F5 JUMPI PUSH2 0x1F4 PUSH2 0x198 JUMP JUMPDEST JUMPDEST SWAP3 SWAP2 POP POP JUMP JUMPDEST PUSH1 0x0 PUSH2 0x206 DUP3 PUSH2 0x10B JUMP JUMPDEST SWAP2 POP PUSH32 0xFFFFFFFFFFFFFFFFFFFFFFFFFFFFFFFFFFFFFFFFFFFFFFFFFFFFFFFFFFFFFFFF DUP3 SUB PUSH2 0x238 JUMPI PUSH2 0x237 PUSH2 0x198 JUMP JUMPDEST JUMPDEST PUSH1 0x1 DUP3 ADD SWAP1 POP SWAP2 SWAP1 POP JUMP INVALID LOG2 PUSH5 0x6970667358 0x22 SLT KECCAK256 0xB7 SWAP8 0xCE 0xC7 0x24 CREATE 0x2C 0x29 0xBC PUSH4 0xDECB7256 SAR 0x2B 0x4C GT PUSH27 0xB0FD92AF33CEDB228A53828E7B64736F6C63430008130033000000 "
				},
				"gasEstimates": {
					"creation": {
						"codeDepositCost": "126600",
						"executionCost": "171",
						"totalCost": "126771"
					},
					"external": {
						"loops()": "infinite",
						"sum(uint256)": "infinite"
					}
				},
				"methodIdentifiers": {
					"loops()": "938b9ceb",
					"sum(uint256)": "188b85b4"
				}
			},
			"storageLayout": {
				"storage": [],
				"types": null
			},
			"userdoc": {
				"kind": "user",
				"methods": {},
				"version": 1
			}
		}
	}
}