{
	"data": {
		"bytecode": {
			"linkReferences": {},
			"object": "6080604052606f60005560de60015561014d60025534801561002057600080fd5b5061010e806100306000396000f3fe6080604052348015600f57600080fd5b5060043610603c5760003560e01c806342b148aa1460415780634b73383f14605b578063c5d7802e146075575b600080fd5b6047608f565b6040516052919060bf565b60405180910390f35b60616099565b604051606c919060bf565b60405180910390f35b607b60a2565b6040516086919060bf565b60405180910390f35b600061012c905090565b600060c8905090565b60025481565b6000819050919050565b60b98160a8565b82525050565b600060208201905060d2600083018460b2565b9291505056fea26469706673582212204de7c153ec6895c5c6ca237d94fd895983043c6ef8ac8973599f995b5a7c83d564736f6c63430008130033",
			"opcodes": "PUSH1 0x80 PUSH1 0x40 MSTORE PUSH1 0x6F PUSH1 0x0 SSTORE PUSH1 0xDE PUSH1 0x1 SSTORE PUSH2 0x14D PUSH1 0x2 SSTORE CALLVALUE DUP1 ISZERO PUSH2 0x20 JUMPI PUSH1 0x0 DUP1 REVERT JUMPDEST POP PUSH2 0x10E DUP1 PUSH2 0x30 PUSH1 0x0 CODECOPY PUSH1 0x0 RETURN INVALID PUSH1 0x80 PUSH1 0x40 MSTORE CALLVALUE DUP1 ISZERO PUSH1 0xF JUMPI PUSH1 0x0 DUP1 REVERT JUMPDEST POP PUSH1 0x4 CALLDATASIZE LT PUSH1 0x3C JUMPI PUSH1 0x0 CALLDATALOAD PUSH1 0xE0 SHR DUP1 PUSH4 0x42B148AA EQ PUSH1 0x41 JUMPI DUP1 PUSH4 0x4B73383F EQ PUSH1 0x5B JUMPI DUP1 PUSH4 0xC5D7802E EQ PUSH1 0x75 JUMPI JUMPDEST PUSH1 0x0 DUP1 REVERT JUMPDEST PUSH1 0x47 PUSH1 0x8F JUMP JUMPDEST PUSH1 0x40 MLOAD PUSH1 0x52 SWAP2 SWAP1 PUSH1 0xBF JUMP JUMPDEST PUSH1 0x40 MLOAD DUP1 SWAP2 SUB SWAP1 RETURN JUMPDEST PUSH1 0x61 PUSH1 0x99 JUMP JUMPDEST PUSH1 0x40 MLOAD PUSH1 0x6C SWAP2 SWAP1 PUSH1 0xBF JUMP JUMPDEST PUSH1 0x40 MLOAD DUP1 SWAP2 SUB SWAP1 RETURN JUMPDEST PUSH1 0x7B PUSH1 0xA2 JUMP JUMPDEST PUSH1 0x40 MLOAD PUSH1 0x86 SWAP2 SWAP1 PUSH1 0xBF JUMP JUMPDEST PUSH1 0x40 MLOAD DUP1 SWAP2 SUB SWAP1 RETURN JUMPDEST PUSH1 0x0 PUSH2 0x12C SWAP1 POP SWAP1 JUMP JUMPDEST PUSH1 0x0 PUSH1 0xC8 SWAP1 POP SWAP1 JUMP JUMPDEST PUSH1 0x2 SLOAD DUP2 JUMP JUMPDEST PUSH1 0x0 DUP2 SWAP1 POP SWAP2 SWAP1 POP JUMP JUMPDEST PUSH1 0xB9 DUP2 PUSH1 0xA8 JUMP JUMPDEST DUP3 MSTORE POP POP JUMP JUMPDEST PUSH1 0x0 PUSH1 0x20 DUP3 ADD SWAP1 POP PUSH1 0xD2 PUSH1 0x0 DUP4 ADD DUP5 PUSH1 0xB2 JUMP JUMPDEST SWAP3 SWAP2 POP POP JUMP INVALID LOG2 PUSH5 0x6970667358 0x22 SLT KECCAK256 0x4D 0xE7 0xC1 MSTORE8 0xEC PUSH9 0x95C5C6CA237D94FD89 MSIZE DUP4 DIV EXTCODECOPY PUSH15 0xF8AC8973599F995B5A7C83D564736F PUSH13 0x63430008130033000000000000 "
		},
		"gasEstimates": {
			"creation": {
				"codeDepositCost": "54000",
				"executionCost": "66423",
				"totalCost": "120423"
			},
			"external": {
				"externalFunc()": "315",
				"publicFunc()": "337",
				"z()": "2451"
			},
			"internal": {
				"internalFunc()": "infinite",
				"privateFunc()": "infinite"
			}
		},
		"methodIdentifiers": {
			"externalFunc()": "42b148aa",
			"publicFunc()": "4b73383f",
			"z()": "c5d7802e"
		}
	},
	"abi": [
		{
			"inputs": [],
			"name": "externalFunc",
			"outputs": [
				{
					"internalType": "uint256",
					"name": "",
					"type": "uint256"
				}
			],
			"stateMutability": "pure",
			"type": "function"
		},
		{
			"inputs": [],
			"name": "publicFunc",
			"outputs": [
				{
					"internalType": "uint256",
					"name": "",
					"type": "uint256"
				}
			],
			"stateMutability": "pure",
			"type": "function"
		},
		{
			"inputs": [],
			"name": "z",
			"outputs": [
				{
					"internalType": "uint256",
					"name": "",
					"type": "uint256"
				}
			],
			"stateMutability": "view",
			"type": "function"
		}
	]
}