{
	"data": {
		"bytecode": {
			"linkReferences": {},
			"object": "6080604052606f60005560de60015561014d60025534801561002057600080fd5b5061036b806100306000396000f3fe608060405234801561001057600080fd5b506004361061009e5760003560e01c806366c856491161006657806366c8564914610139578063749d3b82146101575780638f951bf314610175578063c5d7802e14610193578063dbf059d3146101b15761009e565b80630b7f1665146100a35780632f135d0c146100c157806342b148aa146100df5780634b73383f146100fd5780635197c7aa1461011b575b600080fd5b6100ab6101cf565b6040516100b891906102bc565b60405180910390f35b6100c96101d9565b6040516100d691906102bc565b60405180910390f35b6100e76101e3565b6040516100f491906102bc565b60405180910390f35b6101056101ed565b60405161011291906102bc565b60405180910390f35b6101236101f6565b60405161013091906102bc565b60405180910390f35b6101416101fb565b60405161014e91906102bc565b60405180910390f35b61015f610271565b60405161016c91906102bc565b60405180910390f35b61017d610280565b60405161018a91906102bc565b60405180910390f35b61019b610285565b6040516101a891906102bc565b60405180910390f35b6101b961028b565b6040516101c691906102bc565b60405180910390f35b6000600154905090565b6000600254905090565b600061012c905090565b600060c8905090565b600090565b60003073ffffffffffffffffffffffffffffffffffffffff166342b148aa6040518163ffffffff1660e01b8152600401602060405180830381865afa158015610248573d6000803e3d6000fd5b505050506040513d601f19601f8201168201806040525081019061026c9190610308565b905090565b600061027b6101ed565b905090565b600090565b60025481565b600061029561029a565b905090565b60006064905090565b6000819050919050565b6102b6816102a3565b82525050565b60006020820190506102d160008301846102ad565b92915050565b600080fd5b6102e5816102a3565b81146102f057600080fd5b50565b600081519050610302816102dc565b92915050565b60006020828403121561031e5761031d6102d7565b5b600061032c848285016102f3565b9150509291505056fea2646970667358221220574c3925a24c6b61fce19ba3340b67bb5853fa003be192552f5cde66a4ae2ec764736f6c63430008130033",
			"opcodes": "PUSH1 0x80 PUSH1 0x40 MSTORE PUSH1 0x6F PUSH1 0x0 SSTORE PUSH1 0xDE PUSH1 0x1 SSTORE PUSH2 0x14D PUSH1 0x2 SSTORE CALLVALUE DUP1 ISZERO PUSH2 0x20 JUMPI PUSH1 0x0 DUP1 REVERT JUMPDEST POP PUSH2 0x36B DUP1 PUSH2 0x30 PUSH1 0x0 CODECOPY PUSH1 0x0 RETURN INVALID PUSH1 0x80 PUSH1 0x40 MSTORE CALLVALUE DUP1 ISZERO PUSH2 0x10 JUMPI PUSH1 0x0 DUP1 REVERT JUMPDEST POP PUSH1 0x4 CALLDATASIZE LT PUSH2 0x9E JUMPI PUSH1 0x0 CALLDATALOAD PUSH1 0xE0 SHR DUP1 PUSH4 0x66C85649 GT PUSH2 0x66 JUMPI DUP1 PUSH4 0x66C85649 EQ PUSH2 0x139 JUMPI DUP1 PUSH4 0x749D3B82 EQ PUSH2 0x157 JUMPI DUP1 PUSH4 0x8F951BF3 EQ PUSH2 0x175 JUMPI DUP1 PUSH4 0xC5D7802E EQ PUSH2 0x193 JUMPI DUP1 PUSH4 0xDBF059D3 EQ PUSH2 0x1B1 JUMPI PUSH2 0x9E JUMP JUMPDEST DUP1 PUSH4 0xB7F1665 EQ PUSH2 0xA3 JUMPI DUP1 PUSH4 0x2F135D0C EQ PUSH2 0xC1 JUMPI DUP1 PUSH4 0x42B148AA EQ PUSH2 0xDF JUMPI DUP1 PUSH4 0x4B73383F EQ PUSH2 0xFD JUMPI DUP1 PUSH4 0x5197C7AA EQ PUSH2 0x11B JUMPI JUMPDEST PUSH1 0x0 DUP1 REVERT JUMPDEST PUSH2 0xAB PUSH2 0x1CF JUMP JUMPDEST PUSH1 0x40 MLOAD PUSH2 0xB8 SWAP2 SWAP1 PUSH2 0x2BC JUMP JUMPDEST PUSH1 0x40 MLOAD DUP1 SWAP2 SUB SWAP1 RETURN JUMPDEST PUSH2 0xC9 PUSH2 0x1D9 JUMP JUMPDEST PUSH1 0x40 MLOAD PUSH2 0xD6 SWAP2 SWAP1 PUSH2 0x2BC JUMP JUMPDEST PUSH1 0x40 MLOAD DUP1 SWAP2 SUB SWAP1 RETURN JUMPDEST PUSH2 0xE7 PUSH2 0x1E3 JUMP JUMPDEST PUSH1 0x40 MLOAD PUSH2 0xF4 SWAP2 SWAP1 PUSH2 0x2BC JUMP JUMPDEST PUSH1 0x40 MLOAD DUP1 SWAP2 SUB SWAP1 RETURN JUMPDEST PUSH2 0x105 PUSH2 0x1ED JUMP JUMPDEST PUSH1 0x40 MLOAD PUSH2 0x112 SWAP2 SWAP1 PUSH2 0x2BC JUMP JUMPDEST PUSH1 0x40 MLOAD DUP1 SWAP2 SUB SWAP1 RETURN JUMPDEST PUSH2 0x123 PUSH2 0x1F6 JUMP JUMPDEST PUSH1 0x40 MLOAD PUSH2 0x130 SWAP2 SWAP1 PUSH2 0x2BC JUMP JUMPDEST PUSH1 0x40 MLOAD DUP1 SWAP2 SUB SWAP1 RETURN JUMPDEST PUSH2 0x141 PUSH2 0x1FB JUMP JUMPDEST PUSH1 0x40 MLOAD PUSH2 0x14E SWAP2 SWAP1 PUSH2 0x2BC JUMP JUMPDEST PUSH1 0x40 MLOAD DUP1 SWAP2 SUB SWAP1 RETURN JUMPDEST PUSH2 0x15F PUSH2 0x271 JUMP JUMPDEST PUSH1 0x40 MLOAD PUSH2 0x16C SWAP2 SWAP1 PUSH2 0x2BC JUMP JUMPDEST PUSH1 0x40 MLOAD DUP1 SWAP2 SUB SWAP1 RETURN JUMPDEST PUSH2 0x17D PUSH2 0x280 JUMP JUMPDEST PUSH1 0x40 MLOAD PUSH2 0x18A SWAP2 SWAP1 PUSH2 0x2BC JUMP JUMPDEST PUSH1 0x40 MLOAD DUP1 SWAP2 SUB SWAP1 RETURN JUMPDEST PUSH2 0x19B PUSH2 0x285 JUMP JUMPDEST PUSH1 0x40 MLOAD PUSH2 0x1A8 SWAP2 SWAP1 PUSH2 0x2BC JUMP JUMPDEST PUSH1 0x40 MLOAD DUP1 SWAP2 SUB SWAP1 RETURN JUMPDEST PUSH2 0x1B9 PUSH2 0x28B JUMP JUMPDEST PUSH1 0x40 MLOAD PUSH2 0x1C6 SWAP2 SWAP1 PUSH2 0x2BC JUMP JUMPDEST PUSH1 0x40 MLOAD DUP1 SWAP2 SUB SWAP1 RETURN JUMPDEST PUSH1 0x0 PUSH1 0x1 SLOAD SWAP1 POP SWAP1 JUMP JUMPDEST PUSH1 0x0 PUSH1 0x2 SLOAD SWAP1 POP SWAP1 JUMP JUMPDEST PUSH1 0x0 PUSH2 0x12C SWAP1 POP SWAP1 JUMP JUMPDEST PUSH1 0x0 PUSH1 0xC8 SWAP1 POP SWAP1 JUMP JUMPDEST PUSH1 0x0 SWAP1 JUMP JUMPDEST PUSH1 0x0 ADDRESS PUSH20 0xFFFFFFFFFFFFFFFFFFFFFFFFFFFFFFFFFFFFFFFF AND PUSH4 0x42B148AA PUSH1 0x40 MLOAD DUP2 PUSH4 0xFFFFFFFF AND PUSH1 0xE0 SHL DUP2 MSTORE PUSH1 0x4 ADD PUSH1 0x20 PUSH1 0x40 MLOAD DUP1 DUP4 SUB DUP2 DUP7 GAS STATICCALL ISZERO DUP1 ISZERO PUSH2 0x248 JUMPI RETURNDATASIZE PUSH1 0x0 DUP1 RETURNDATACOPY RETURNDATASIZE PUSH1 0x0 REVERT JUMPDEST POP POP POP POP PUSH1 0x40 MLOAD RETURNDATASIZE PUSH1 0x1F NOT PUSH1 0x1F DUP3 ADD AND DUP3 ADD DUP1 PUSH1 0x40 MSTORE POP DUP2 ADD SWAP1 PUSH2 0x26C SWAP2 SWAP1 PUSH2 0x308 JUMP JUMPDEST SWAP1 POP SWAP1 JUMP JUMPDEST PUSH1 0x0 PUSH2 0x27B PUSH2 0x1ED JUMP JUMPDEST SWAP1 POP SWAP1 JUMP JUMPDEST PUSH1 0x0 SWAP1 JUMP JUMPDEST PUSH1 0x2 SLOAD DUP2 JUMP JUMPDEST PUSH1 0x0 PUSH2 0x295 PUSH2 0x29A JUMP JUMPDEST SWAP1 POP SWAP1 JUMP JUMPDEST PUSH1 0x0 PUSH1 0x64 SWAP1 POP SWAP1 JUMP JUMPDEST PUSH1 0x0 DUP2 SWAP1 POP SWAP2 SWAP1 POP JUMP JUMPDEST PUSH2 0x2B6 DUP2 PUSH2 0x2A3 JUMP JUMPDEST DUP3 MSTORE POP POP JUMP JUMPDEST PUSH1 0x0 PUSH1 0x20 DUP3 ADD SWAP1 POP PUSH2 0x2D1 PUSH1 0x0 DUP4 ADD DUP5 PUSH2 0x2AD JUMP JUMPDEST SWAP3 SWAP2 POP POP JUMP JUMPDEST PUSH1 0x0 DUP1 REVERT JUMPDEST PUSH2 0x2E5 DUP2 PUSH2 0x2A3 JUMP JUMPDEST DUP2 EQ PUSH2 0x2F0 JUMPI PUSH1 0x0 DUP1 REVERT JUMPDEST POP JUMP JUMPDEST PUSH1 0x0 DUP2 MLOAD SWAP1 POP PUSH2 0x302 DUP2 PUSH2 0x2DC JUMP JUMPDEST SWAP3 SWAP2 POP POP JUMP JUMPDEST PUSH1 0x0 PUSH1 0x20 DUP3 DUP5 SUB SLT ISZERO PUSH2 0x31E JUMPI PUSH2 0x31D PUSH2 0x2D7 JUMP JUMPDEST JUMPDEST PUSH1 0x0 PUSH2 0x32C DUP5 DUP3 DUP6 ADD PUSH2 0x2F3 JUMP JUMPDEST SWAP2 POP POP SWAP3 SWAP2 POP POP JUMP INVALID LOG2 PUSH5 0x6970667358 0x22 SLT KECCAK256 JUMPI 0x4C CODECOPY 0x25 LOG2 0x4C PUSH12 0x61FCE19BA3340B67BB5853FA STOP EXTCODESIZE 0xE1 SWAP3 SSTORE 0x2F 0x5C 0xDE PUSH7 0xA4AE2EC764736F PUSH13 0x63430008130033000000000000 "
		},
		"gasEstimates": {
			"creation": {
				"codeDepositCost": "175000",
				"executionCost": "66538",
				"totalCost": "241538"
			},
			"external": {
				"externalFunc()": "382",
				"getExternalFunc()": "infinite",
				"getInternalFunc()": "460",
				"getPrivateFunc()": "373",
				"getPublicFunc()": "394",
				"getX()": "418",
				"getY()": "2438",
				"getZ()": "2460",
				"publicFunc()": "404",
				"z()": "2495"
			}
		},
		"methodIdentifiers": {
			"externalFunc()": "42b148aa",
			"getExternalFunc()": "66c85649",
			"getInternalFunc()": "dbf059d3",
			"getPrivateFunc()": "8f951bf3",
			"getPublicFunc()": "749d3b82",
			"getX()": "5197c7aa",
			"getY()": "0b7f1665",
			"getZ()": "2f135d0c",
			"publicFunc()": "4b73383f",
			"z()": "c5d7802e"
		}
	},
	"abi": [
		{
			"inputs": [],
			"name": "externalFunc",
			"outputs": [
				{
					"internalType": "uint256",
					"name": "",
					"type": "uint256"
				}
			],
			"stateMutability": "pure",
			"type": "function"
		},
		{
			"inputs": [],
			"name": "getExternalFunc",
			"outputs": [
				{
					"internalType": "uint256",
					"name": "",
					"type": "uint256"
				}
			],
			"stateMutability": "view",
			"type": "function"
		},
		{
			"inputs": [],
			"name": "getInternalFunc",
			"outputs": [
				{
					"internalType": "uint256",
					"name": "",
					"type": "uint256"
				}
			],
			"stateMutability": "pure",
			"type": "function"
		},
		{
			"inputs": [],
			"name": "getPrivateFunc",
			"outputs": [
				{
					"internalType": "uint256",
					"name": "",
					"type": "uint256"
				}
			],
			"stateMutability": "pure",
			"type": "function"
		},
		{
			"inputs": [],
			"name": "getPublicFunc",
			"outputs": [
				{
					"internalType": "uint256",
					"name": "",
					"type": "uint256"
				}
			],
			"stateMutability": "pure",
			"type": "function"
		},
		{
			"inputs": [],
			"name": "getX",
			"outputs": [
				{
					"internalType": "uint256",
					"name": "",
					"type": "uint256"
				}
			],
			"stateMutability": "view",
			"type": "function"
		},
		{
			"inputs": [],
			"name": "getY",
			"outputs": [
				{
					"internalType": "uint256",
					"name": "",
					"type": "uint256"
				}
			],
			"stateMutability": "view",
			"type": "function"
		},
		{
			"inputs": [],
			"name": "getZ",
			"outputs": [
				{
					"internalType": "uint256",
					"name": "",
					"type": "uint256"
				}
			],
			"stateMutability": "view",
			"type": "function"
		},
		{
			"inputs": [],
			"name": "publicFunc",
			"outputs": [
				{
					"internalType": "uint256",
					"name": "",
					"type": "uint256"
				}
			],
			"stateMutability": "pure",
			"type": "function"
		},
		{
			"inputs": [],
			"name": "z",
			"outputs": [
				{
					"internalType": "uint256",
					"name": "",
					"type": "uint256"
				}
			],
			"stateMutability": "view",
			"type": "function"
		}
	]
}