{
	"data": {
		"bytecode": {
			"linkReferences": {},
			"object": "608060405234801561001057600080fd5b5061072e806100206000396000f3fe608060405234801561001057600080fd5b506004361061004c5760003560e01c806341c0e1b51461005157806382ab890a1461005b5780639507d39a14610077578063b6a46b3b146100a7575b600080fd5b6100596100c3565b005b6100756004803603810190610070919061042e565b6100dc565b005b610091600480360381019061008c919061042e565b610133565b60405161009e91906104e0565b60405180910390f35b6100c160048036038101906100bc91906103e5565b61021c565b005b3373ffffffffffffffffffffffffffffffffffffffff16ff5b60008082815481106100f1576100f061065e565b5b906000526020600020906002020190508060010160009054906101000a900460ff16158160010160006101000a81548160ff0219169083151502179055505050565b61013b6102a1565b6000828154811061014f5761014e61065e565b5b9060005260206000209060020201604051806040016040529081600082018054610178906105cc565b80601f01602080910402602001604051908101604052809291908181526020018280546101a4906105cc565b80156101f15780601f106101c6576101008083540402835291602001916101f1565b820191906000526020600020905b8154815290600101906020018083116101d457829003601f168201915b505050505081526020016001820160009054906101000a900460ff1615151515815250509050919050565b60006040518060400160405280838152602001600015158152509080600181540180825580915050600190039060005260206000209060020201600090919091909150600082015181600001908051906020019061027b9291906102bd565b5060208201518160010160006101000a81548160ff021916908315150217905550505050565b6040518060400160405280606081526020016000151581525090565b8280546102c9906105cc565b90600052602060002090601f0160209004810192826102eb5760008555610332565b82601f1061030457805160ff1916838001178555610332565b82800160010185558215610332579182015b82811115610331578251825591602001919060010190610316565b5b50905061033f9190610343565b5090565b5b8082111561035c576000816000905550600101610344565b5090565b600061037361036e84610527565b610502565b90508281526020810184848401111561038f5761038e6106c1565b5b61039a84828561058a565b509392505050565b600082601f8301126103b7576103b66106bc565b5b81356103c7848260208601610360565b91505092915050565b6000813590506103df816106e1565b92915050565b6000602082840312156103fb576103fa6106cb565b5b600082013567ffffffffffffffff811115610419576104186106c6565b5b610425848285016103a2565b91505092915050565b600060208284031215610444576104436106cb565b5b6000610452848285016103d0565b91505092915050565b61046481610574565b82525050565b600061047582610558565b61047f8185610563565b935061048f818560208601610599565b610498816106d0565b840191505092915050565b600060408301600083015184820360008601526104c0828261046a565b91505060208301516104d5602086018261045b565b508091505092915050565b600060208201905081810360008301526104fa81846104a3565b905092915050565b600061050c61051d565b905061051882826105fe565b919050565b6000604051905090565b600067ffffffffffffffff8211156105425761054161068d565b5b61054b826106d0565b9050602081019050919050565b600081519050919050565b600082825260208201905092915050565b60008115159050919050565b6000819050919050565b82818337600083830152505050565b60005b838110156105b757808201518184015260208101905061059c565b838111156105c6576000848401525b50505050565b600060028204905060018216806105e457607f821691505b602082108114156105f8576105f761062f565b5b50919050565b610607826106d0565b810181811067ffffffffffffffff821117156106265761062561068d565b5b80604052505050565b7f4e487b7100000000000000000000000000000000000000000000000000000000600052602260045260246000fd5b7f4e487b7100000000000000000000000000000000000000000000000000000000600052603260045260246000fd5b7f4e487b7100000000000000000000000000000000000000000000000000000000600052604160045260246000fd5b600080fd5b600080fd5b600080fd5b600080fd5b6000601f19601f8301169050919050565b6106ea81610580565b81146106f557600080fd5b5056fea26469706673582212205e800efcdb707f09367d939df3bda6bfbded7c312fc7226f27ca8bc00021f75764736f6c63430008060033",
			"opcodes": "PUSH1 0x80 PUSH1 0x40 MSTORE CALLVALUE DUP1 ISZERO PUSH2 0x10 JUMPI PUSH1 0x0 DUP1 REVERT JUMPDEST POP PUSH2 0x72E DUP1 PUSH2 0x20 PUSH1 0x0 CODECOPY PUSH1 0x0 RETURN INVALID PUSH1 0x80 PUSH1 0x40 MSTORE CALLVALUE DUP1 ISZERO PUSH2 0x10 JUMPI PUSH1 0x0 DUP1 REVERT JUMPDEST POP PUSH1 0x4 CALLDATASIZE LT PUSH2 0x4C JUMPI PUSH1 0x0 CALLDATALOAD PUSH1 0xE0 SHR DUP1 PUSH4 0x41C0E1B5 EQ PUSH2 0x51 JUMPI DUP1 PUSH4 0x82AB890A EQ PUSH2 0x5B JUMPI DUP1 PUSH4 0x9507D39A EQ PUSH2 0x77 JUMPI DUP1 PUSH4 0xB6A46B3B EQ PUSH2 0xA7 JUMPI JUMPDEST PUSH1 0x0 DUP1 REVERT JUMPDEST PUSH2 0x59 PUSH2 0xC3 JUMP JUMPDEST STOP JUMPDEST PUSH2 0x75 PUSH1 0x4 DUP1 CALLDATASIZE SUB DUP2 ADD SWAP1 PUSH2 0x70 SWAP2 SWAP1 PUSH2 0x42E JUMP JUMPDEST PUSH2 0xDC JUMP JUMPDEST STOP JUMPDEST PUSH2 0x91 PUSH1 0x4 DUP1 CALLDATASIZE SUB DUP2 ADD SWAP1 PUSH2 0x8C SWAP2 SWAP1 PUSH2 0x42E JUMP JUMPDEST PUSH2 0x133 JUMP JUMPDEST PUSH1 0x40 MLOAD PUSH2 0x9E SWAP2 SWAP1 PUSH2 0x4E0 JUMP JUMPDEST PUSH1 0x40 MLOAD DUP1 SWAP2 SUB SWAP1 RETURN JUMPDEST PUSH2 0xC1 PUSH1 0x4 DUP1 CALLDATASIZE SUB DUP2 ADD SWAP1 PUSH2 0xBC SWAP2 SWAP1 PUSH2 0x3E5 JUMP JUMPDEST PUSH2 0x21C JUMP JUMPDEST STOP JUMPDEST CALLER PUSH20 0xFFFFFFFFFFFFFFFFFFFFFFFFFFFFFFFFFFFFFFFF AND SELFDESTRUCT JUMPDEST PUSH1 0x0 DUP1 DUP3 DUP2 SLOAD DUP2 LT PUSH2 0xF1 JUMPI PUSH2 0xF0 PUSH2 0x65E JUMP JUMPDEST JUMPDEST SWAP1 PUSH1 0x0 MSTORE PUSH1 0x20 PUSH1 0x0 KECCAK256 SWAP1 PUSH1 0x2 MUL ADD SWAP1 POP DUP1 PUSH1 0x1 ADD PUSH1 0x0 SWAP1 SLOAD SWAP1 PUSH2 0x100 EXP SWAP1 DIV PUSH1 0xFF AND ISZERO DUP2 PUSH1 0x1 ADD PUSH1 0x0 PUSH2 0x100 EXP DUP2 SLOAD DUP2 PUSH1 0xFF MUL NOT AND SWAP1 DUP4 ISZERO ISZERO MUL OR SWAP1 SSTORE POP POP POP JUMP JUMPDEST PUSH2 0x13B PUSH2 0x2A1 JUMP JUMPDEST PUSH1 0x0 DUP3 DUP2 SLOAD DUP2 LT PUSH2 0x14F JUMPI PUSH2 0x14E PUSH2 0x65E JUMP JUMPDEST JUMPDEST SWAP1 PUSH1 0x0 MSTORE PUSH1 0x20 PUSH1 0x0 KECCAK256 SWAP1 PUSH1 0x2 MUL ADD PUSH1 0x40 MLOAD DUP1 PUSH1 0x40 ADD PUSH1 0x40 MSTORE SWAP1 DUP2 PUSH1 0x0 DUP3 ADD DUP1 SLOAD PUSH2 0x178 SWAP1 PUSH2 0x5CC JUMP JUMPDEST DUP1 PUSH1 0x1F ADD PUSH1 0x20 DUP1 SWAP2 DIV MUL PUSH1 0x20 ADD PUSH1 0x40 MLOAD SWAP1 DUP2 ADD PUSH1 0x40 MSTORE DUP1 SWAP3 SWAP2 SWAP1 DUP2 DUP2 MSTORE PUSH1 0x20 ADD DUP3 DUP1 SLOAD PUSH2 0x1A4 SWAP1 PUSH2 0x5CC JUMP JUMPDEST DUP1 ISZERO PUSH2 0x1F1 JUMPI DUP1 PUSH1 0x1F LT PUSH2 0x1C6 JUMPI PUSH2 0x100 DUP1 DUP4 SLOAD DIV MUL DUP4 MSTORE SWAP2 PUSH1 0x20 ADD SWAP2 PUSH2 0x1F1 JUMP JUMPDEST DUP3 ADD SWAP2 SWAP1 PUSH1 0x0 MSTORE PUSH1 0x20 PUSH1 0x0 KECCAK256 SWAP1 JUMPDEST DUP2 SLOAD DUP2 MSTORE SWAP1 PUSH1 0x1 ADD SWAP1 PUSH1 0x20 ADD DUP1 DUP4 GT PUSH2 0x1D4 JUMPI DUP3 SWAP1 SUB PUSH1 0x1F AND DUP3 ADD SWAP2 JUMPDEST POP POP POP POP POP DUP2 MSTORE PUSH1 0x20 ADD PUSH1 0x1 DUP3 ADD PUSH1 0x0 SWAP1 SLOAD SWAP1 PUSH2 0x100 EXP SWAP1 DIV PUSH1 0xFF AND ISZERO ISZERO ISZERO ISZERO DUP2 MSTORE POP POP SWAP1 POP SWAP2 SWAP1 POP JUMP JUMPDEST PUSH1 0x0 PUSH1 0x40 MLOAD DUP1 PUSH1 0x40 ADD PUSH1 0x40 MSTORE DUP1 DUP4 DUP2 MSTORE PUSH1 0x20 ADD PUSH1 0x0 ISZERO ISZERO DUP2 MSTORE POP SWAP1 DUP1 PUSH1 0x1 DUP2 SLOAD ADD DUP1 DUP3 SSTORE DUP1 SWAP2 POP POP PUSH1 0x1 SWAP1 SUB SWAP1 PUSH1 0x0 MSTORE PUSH1 0x20 PUSH1 0x0 KECCAK256 SWAP1 PUSH1 0x2 MUL ADD PUSH1 0x0 SWAP1 SWAP2 SWAP1 SWAP2 SWAP1 SWAP2 POP PUSH1 0x0 DUP3 ADD MLOAD DUP2 PUSH1 0x0 ADD SWAP1 DUP1 MLOAD SWAP1 PUSH1 0x20 ADD SWAP1 PUSH2 0x27B SWAP3 SWAP2 SWAP1 PUSH2 0x2BD JUMP JUMPDEST POP PUSH1 0x20 DUP3 ADD MLOAD DUP2 PUSH1 0x1 ADD PUSH1 0x0 PUSH2 0x100 EXP DUP2 SLOAD DUP2 PUSH1 0xFF MUL NOT AND SWAP1 DUP4 ISZERO ISZERO MUL OR SWAP1 SSTORE POP POP POP POP JUMP JUMPDEST PUSH1 0x40 MLOAD DUP1 PUSH1 0x40 ADD PUSH1 0x40 MSTORE DUP1 PUSH1 0x60 DUP2 MSTORE PUSH1 0x20 ADD PUSH1 0x0 ISZERO ISZERO DUP2 MSTORE POP SWAP1 JUMP JUMPDEST DUP3 DUP1 SLOAD PUSH2 0x2C9 SWAP1 PUSH2 0x5CC JUMP JUMPDEST SWAP1 PUSH1 0x0 MSTORE PUSH1 0x20 PUSH1 0x0 KECCAK256 SWAP1 PUSH1 0x1F ADD PUSH1 0x20 SWAP1 DIV DUP2 ADD SWAP3 DUP3 PUSH2 0x2EB JUMPI PUSH1 0x0 DUP6 SSTORE PUSH2 0x332 JUMP JUMPDEST DUP3 PUSH1 0x1F LT PUSH2 0x304 JUMPI DUP1 MLOAD PUSH1 0xFF NOT AND DUP4 DUP1 ADD OR DUP6 SSTORE PUSH2 0x332 JUMP JUMPDEST DUP3 DUP1 ADD PUSH1 0x1 ADD DUP6 SSTORE DUP3 ISZERO PUSH2 0x332 JUMPI SWAP2 DUP3 ADD JUMPDEST DUP3 DUP2 GT ISZERO PUSH2 0x331 JUMPI DUP3 MLOAD DUP3 SSTORE SWAP2 PUSH1 0x20 ADD SWAP2 SWAP1 PUSH1 0x1 ADD SWAP1 PUSH2 0x316 JUMP JUMPDEST JUMPDEST POP SWAP1 POP PUSH2 0x33F SWAP2 SWAP1 PUSH2 0x343 JUMP JUMPDEST POP SWAP1 JUMP JUMPDEST JUMPDEST DUP1 DUP3 GT ISZERO PUSH2 0x35C JUMPI PUSH1 0x0 DUP2 PUSH1 0x0 SWAP1 SSTORE POP PUSH1 0x1 ADD PUSH2 0x344 JUMP JUMPDEST POP SWAP1 JUMP JUMPDEST PUSH1 0x0 PUSH2 0x373 PUSH2 0x36E DUP5 PUSH2 0x527 JUMP JUMPDEST PUSH2 0x502 JUMP JUMPDEST SWAP1 POP DUP3 DUP2 MSTORE PUSH1 0x20 DUP2 ADD DUP5 DUP5 DUP5 ADD GT ISZERO PUSH2 0x38F JUMPI PUSH2 0x38E PUSH2 0x6C1 JUMP JUMPDEST JUMPDEST PUSH2 0x39A DUP5 DUP3 DUP6 PUSH2 0x58A JUMP JUMPDEST POP SWAP4 SWAP3 POP POP POP JUMP JUMPDEST PUSH1 0x0 DUP3 PUSH1 0x1F DUP4 ADD SLT PUSH2 0x3B7 JUMPI PUSH2 0x3B6 PUSH2 0x6BC JUMP JUMPDEST JUMPDEST DUP2 CALLDATALOAD PUSH2 0x3C7 DUP5 DUP3 PUSH1 0x20 DUP7 ADD PUSH2 0x360 JUMP JUMPDEST SWAP2 POP POP SWAP3 SWAP2 POP POP JUMP JUMPDEST PUSH1 0x0 DUP2 CALLDATALOAD SWAP1 POP PUSH2 0x3DF DUP2 PUSH2 0x6E1 JUMP JUMPDEST SWAP3 SWAP2 POP POP JUMP JUMPDEST PUSH1 0x0 PUSH1 0x20 DUP3 DUP5 SUB SLT ISZERO PUSH2 0x3FB JUMPI PUSH2 0x3FA PUSH2 0x6CB JUMP JUMPDEST JUMPDEST PUSH1 0x0 DUP3 ADD CALLDATALOAD PUSH8 0xFFFFFFFFFFFFFFFF DUP2 GT ISZERO PUSH2 0x419 JUMPI PUSH2 0x418 PUSH2 0x6C6 JUMP JUMPDEST JUMPDEST PUSH2 0x425 DUP5 DUP3 DUP6 ADD PUSH2 0x3A2 JUMP JUMPDEST SWAP2 POP POP SWAP3 SWAP2 POP POP JUMP JUMPDEST PUSH1 0x0 PUSH1 0x20 DUP3 DUP5 SUB SLT ISZERO PUSH2 0x444 JUMPI PUSH2 0x443 PUSH2 0x6CB JUMP JUMPDEST JUMPDEST PUSH1 0x0 PUSH2 0x452 DUP5 DUP3 DUP6 ADD PUSH2 0x3D0 JUMP JUMPDEST SWAP2 POP POP SWAP3 SWAP2 POP POP JUMP JUMPDEST PUSH2 0x464 DUP2 PUSH2 0x574 JUMP JUMPDEST DUP3 MSTORE POP POP JUMP JUMPDEST PUSH1 0x0 PUSH2 0x475 DUP3 PUSH2 0x558 JUMP JUMPDEST PUSH2 0x47F DUP2 DUP6 PUSH2 0x563 JUMP JUMPDEST SWAP4 POP PUSH2 0x48F DUP2 DUP6 PUSH1 0x20 DUP7 ADD PUSH2 0x599 JUMP JUMPDEST PUSH2 0x498 DUP2 PUSH2 0x6D0 JUMP JUMPDEST DUP5 ADD SWAP2 POP POP SWAP3 SWAP2 POP POP JUMP JUMPDEST PUSH1 0x0 PUSH1 0x40 DUP4 ADD PUSH1 0x0 DUP4 ADD MLOAD DUP5 DUP3 SUB PUSH1 0x0 DUP7 ADD MSTORE PUSH2 0x4C0 DUP3 DUP3 PUSH2 0x46A JUMP JUMPDEST SWAP2 POP POP PUSH1 0x20 DUP4 ADD MLOAD PUSH2 0x4D5 PUSH1 0x20 DUP7 ADD DUP3 PUSH2 0x45B JUMP JUMPDEST POP DUP1 SWAP2 POP POP SWAP3 SWAP2 POP POP JUMP JUMPDEST PUSH1 0x0 PUSH1 0x20 DUP3 ADD SWAP1 POP DUP2 DUP2 SUB PUSH1 0x0 DUP4 ADD MSTORE PUSH2 0x4FA DUP2 DUP5 PUSH2 0x4A3 JUMP JUMPDEST SWAP1 POP SWAP3 SWAP2 POP POP JUMP JUMPDEST PUSH1 0x0 PUSH2 0x50C PUSH2 0x51D JUMP JUMPDEST SWAP1 POP PUSH2 0x518 DUP3 DUP3 PUSH2 0x5FE JUMP JUMPDEST SWAP2 SWAP1 POP JUMP JUMPDEST PUSH1 0x0 PUSH1 0x40 MLOAD SWAP1 POP SWAP1 JUMP JUMPDEST PUSH1 0x0 PUSH8 0xFFFFFFFFFFFFFFFF DUP3 GT ISZERO PUSH2 0x542 JUMPI PUSH2 0x541 PUSH2 0x68D JUMP JUMPDEST JUMPDEST PUSH2 0x54B DUP3 PUSH2 0x6D0 JUMP JUMPDEST SWAP1 POP PUSH1 0x20 DUP2 ADD SWAP1 POP SWAP2 SWAP1 POP JUMP JUMPDEST PUSH1 0x0 DUP2 MLOAD SWAP1 POP SWAP2 SWAP1 POP JUMP JUMPDEST PUSH1 0x0 DUP3 DUP3 MSTORE PUSH1 0x20 DUP3 ADD SWAP1 POP SWAP3 SWAP2 POP POP JUMP JUMPDEST PUSH1 0x0 DUP2 ISZERO ISZERO SWAP1 POP SWAP2 SWAP1 POP JUMP JUMPDEST PUSH1 0x0 DUP2 SWAP1 POP SWAP2 SWAP1 POP JUMP JUMPDEST DUP3 DUP2 DUP4 CALLDATACOPY PUSH1 0x0 DUP4 DUP4 ADD MSTORE POP POP POP JUMP JUMPDEST PUSH1 0x0 JUMPDEST DUP4 DUP2 LT ISZERO PUSH2 0x5B7 JUMPI DUP1 DUP3 ADD MLOAD DUP2 DUP5 ADD MSTORE PUSH1 0x20 DUP2 ADD SWAP1 POP PUSH2 0x59C JUMP JUMPDEST DUP4 DUP2 GT ISZERO PUSH2 0x5C6 JUMPI PUSH1 0x0 DUP5 DUP5 ADD MSTORE JUMPDEST POP POP POP POP JUMP JUMPDEST PUSH1 0x0 PUSH1 0x2 DUP3 DIV SWAP1 POP PUSH1 0x1 DUP3 AND DUP1 PUSH2 0x5E4 JUMPI PUSH1 0x7F DUP3 AND SWAP2 POP JUMPDEST PUSH1 0x20 DUP3 LT DUP2 EQ ISZERO PUSH2 0x5F8 JUMPI PUSH2 0x5F7 PUSH2 0x62F JUMP JUMPDEST JUMPDEST POP SWAP2 SWAP1 POP JUMP JUMPDEST PUSH2 0x607 DUP3 PUSH2 0x6D0 JUMP JUMPDEST DUP2 ADD DUP2 DUP2 LT PUSH8 0xFFFFFFFFFFFFFFFF DUP3 GT OR ISZERO PUSH2 0x626 JUMPI PUSH2 0x625 PUSH2 0x68D JUMP JUMPDEST JUMPDEST DUP1 PUSH1 0x40 MSTORE POP POP POP JUMP JUMPDEST PUSH32 0x4E487B7100000000000000000000000000000000000000000000000000000000 PUSH1 0x0 MSTORE PUSH1 0x22 PUSH1 0x4 MSTORE PUSH1 0x24 PUSH1 0x0 REVERT JUMPDEST PUSH32 0x4E487B7100000000000000000000000000000000000000000000000000000000 PUSH1 0x0 MSTORE PUSH1 0x32 PUSH1 0x4 MSTORE PUSH1 0x24 PUSH1 0x0 REVERT JUMPDEST PUSH32 0x4E487B7100000000000000000000000000000000000000000000000000000000 PUSH1 0x0 MSTORE PUSH1 0x41 PUSH1 0x4 MSTORE PUSH1 0x24 PUSH1 0x0 REVERT JUMPDEST PUSH1 0x0 DUP1 REVERT JUMPDEST PUSH1 0x0 DUP1 REVERT JUMPDEST PUSH1 0x0 DUP1 REVERT JUMPDEST PUSH1 0x0 DUP1 REVERT JUMPDEST PUSH1 0x0 PUSH1 0x1F NOT PUSH1 0x1F DUP4 ADD AND SWAP1 POP SWAP2 SWAP1 POP JUMP JUMPDEST PUSH2 0x6EA DUP2 PUSH2 0x580 JUMP JUMPDEST DUP2 EQ PUSH2 0x6F5 JUMPI PUSH1 0x0 DUP1 REVERT JUMPDEST POP JUMP INVALID LOG2 PUSH5 0x6970667358 0x22 SLT KECCAK256 0x5E DUP1 0xE 0xFC 0xDB PUSH17 0x7F09367D939DF3BDA6BFBDED7C312FC722 PUSH16 0x27CA8BC00021F75764736F6C63430008 MOD STOP CALLER "
		},
		"gasEstimates": {
			"creation": {
				"codeDepositCost": "367600",
				"executionCost": "405",
				"totalCost": "368005"
			},
			"external": {
				"create(string)": "infinite",
				"get(uint256)": "infinite",
				"kill()": "27721",
				"update(uint256)": "29028"
			}
		},
		"methodIdentifiers": {
			"create(string)": "b6a46b3b",
			"get(uint256)": "9507d39a",
			"kill()": "41c0e1b5",
			"update(uint256)": "82ab890a"
		}
	},
	"abi": [
		{
			"inputs": [
				{
					"internalType": "string",
					"name": "_name",
					"type": "string"
				}
			],
			"name": "create",
			"outputs": [],
			"stateMutability": "nonpayable",
			"type": "function"
		},
		{
			"inputs": [
				{
					"internalType": "uint256",
					"name": "_idx",
					"type": "uint256"
				}
			],
			"name": "get",
			"outputs": [
				{
					"components": [
						{
							"internalType": "string",
							"name": "name",
							"type": "string"
						},
						{
							"internalType": "bool",
							"name": "isCompleted",
							"type": "bool"
						}
					],
					"internalType": "struct TodoList.Task",
					"name": "",
					"type": "tuple"
				}
			],
			"stateMutability": "view",
			"type": "function"
		},
		{
			"inputs": [],
			"name": "kill",
			"outputs": [],
			"stateMutability": "nonpayable",
			"type": "function"
		},
		{
			"inputs": [
				{
					"internalType": "uint256",
					"name": "_idx",
					"type": "uint256"
				}
			],
			"name": "update",
			"outputs": [],
			"stateMutability": "nonpayable",
			"type": "function"
		}
	]
}