{
	"appworks_blockchain_batch2/contracts/wk4/ErrorHandle.sol": {
		"ErrorHandle": {
			"abi": [
				{
					"inputs": [],
					"name": "MyError",
					"type": "error"
				},
				{
					"inputs": [
						{
							"internalType": "string",
							"name": "str",
							"type": "string"
						}
					],
					"name": "MyError2",
					"type": "error"
				},
				{
					"inputs": [
						{
							"internalType": "uint256",
							"name": "_i",
							"type": "uint256"
						}
					],
					"name": "foo",
					"outputs": [],
					"stateMutability": "nonpayable",
					"type": "function"
				},
				{
					"inputs": [],
					"name": "num",
					"outputs": [
						{
							"internalType": "uint256",
							"name": "",
							"type": "uint256"
						}
					],
					"stateMutability": "view",
					"type": "function"
				},
				{
					"inputs": [],
					"name": "testAssert",
					"outputs": [],
					"stateMutability": "view",
					"type": "function"
				},
				{
					"inputs": [
						{
							"internalType": "uint256",
							"name": "_i",
							"type": "uint256"
						}
					],
					"name": "testCustomError",
					"outputs": [],
					"stateMutability": "pure",
					"type": "function"
				},
				{
					"inputs": [
						{
							"internalType": "uint256",
							"name": "_i",
							"type": "uint256"
						}
					],
					"name": "testCustomError2",
					"outputs": [],
					"stateMutability": "pure",
					"type": "function"
				},
				{
					"inputs": [
						{
							"internalType": "uint256",
							"name": "_i",
							"type": "uint256"
						}
					],
					"name": "testCustomError3",
					"outputs": [],
					"stateMutability": "pure",
					"type": "function"
				},
				{
					"inputs": [
						{
							"internalType": "uint256",
							"name": "_i",
							"type": "uint256"
						}
					],
					"name": "testRequire",
					"outputs": [],
					"stateMutability": "pure",
					"type": "function"
				},
				{
					"inputs": [
						{
							"internalType": "uint256",
							"name": "_i",
							"type": "uint256"
						}
					],
					"name": "testRevret",
					"outputs": [],
					"stateMutability": "pure",
					"type": "function"
				}
			],
			"devdoc": {
				"kind": "dev",
				"methods": {},
				"version": 1
			},
			"evm": {
				"assembly": "    /* \"appworks_blockchain_batch2/contracts/wk4/ErrorHandle.sol\":212:1843  contract ErrorHandle {... */\n  mstore(0x40, 0x80)\n    /* \"appworks_blockchain_batch2/contracts/wk4/ErrorHandle.sol\":570:573  123 */\n  0x7b\n    /* \"appworks_blockchain_batch2/contracts/wk4/ErrorHandle.sol\":552:573  uint public num = 123 */\n  0x00\n  sstore\n    /* \"appworks_blockchain_batch2/contracts/wk4/ErrorHandle.sol\":212:1843  contract ErrorHandle {... */\n  callvalue\n  dup1\n  iszero\n  tag_1\n  jumpi\n  0x00\n  dup1\n  revert\ntag_1:\n  pop\n  dataSize(sub_0)\n  dup1\n  dataOffset(sub_0)\n  0x00\n  codecopy\n  0x00\n  return\nstop\n\nsub_0: assembly {\n        /* \"appworks_blockchain_batch2/contracts/wk4/ErrorHandle.sol\":212:1843  contract ErrorHandle {... */\n      mstore(0x40, 0x80)\n      callvalue\n      dup1\n      iszero\n      tag_1\n      jumpi\n      0x00\n      dup1\n      revert\n    tag_1:\n      pop\n      jumpi(tag_2, lt(calldatasize, 0x04))\n      shr(0xe0, calldataload(0x00))\n      dup1\n      0x5cf585ee\n      gt\n      tag_11\n      jumpi\n      dup1\n      0x5cf585ee\n      eq\n      tag_7\n      jumpi\n      dup1\n      0x628be990\n      eq\n      tag_8\n      jumpi\n      dup1\n      0x75f7286c\n      eq\n      tag_9\n      jumpi\n      dup1\n      0xb8bd717f\n      eq\n      tag_10\n      jumpi\n      jump(tag_2)\n    tag_11:\n      dup1\n      0x2b813bc0\n      eq\n      tag_3\n      jumpi\n      dup1\n      0x2fbebd38\n      eq\n      tag_4\n      jumpi\n      dup1\n      0x3e7e7831\n      eq\n      tag_5\n      jumpi\n      dup1\n      0x4e70b1dc\n      eq\n      tag_6\n      jumpi\n    tag_2:\n      0x00\n      dup1\n      revert\n        /* \"appworks_blockchain_batch2/contracts/wk4/ErrorHandle.sol\":649:718  function testAssert() public view {... */\n    tag_3:\n      tag_12\n      tag_13\n      jump\t// in\n    tag_12:\n      stop\n        /* \"appworks_blockchain_batch2/contracts/wk4/ErrorHandle.sol\":959:1039  function foo(uint _i) public {... */\n    tag_4:\n      tag_14\n      0x04\n      dup1\n      calldatasize\n      sub\n      dup2\n      add\n      swap1\n      tag_15\n      swap2\n      swap1\n      tag_16\n      jump\t// in\n    tag_15:\n      tag_17\n      jump\t// in\n    tag_14:\n      stop\n        /* \"appworks_blockchain_batch2/contracts/wk4/ErrorHandle.sol\":1511:1766  function testCustomError3(uint _i) public pure {... */\n    tag_5:\n      tag_18\n      0x04\n      dup1\n      calldatasize\n      sub\n      dup2\n      add\n      swap1\n      tag_19\n      swap2\n      swap1\n      tag_16\n      jump\t// in\n    tag_19:\n      tag_20\n      jump\t// in\n    tag_18:\n      stop\n        /* \"appworks_blockchain_batch2/contracts/wk4/ErrorHandle.sol\":552:573  uint public num = 123 */\n    tag_6:\n      tag_21\n      tag_22\n      jump\t// in\n    tag_21:\n      mload(0x40)\n      tag_23\n      swap2\n      swap1\n      tag_24\n      jump\t// in\n    tag_23:\n      mload(0x40)\n      dup1\n      swap2\n      sub\n      swap1\n      return\n        /* \"appworks_blockchain_batch2/contracts/wk4/ErrorHandle.sol\":1255:1427  function testCustomError2(uint _i) public pure {... */\n    tag_7:\n      tag_25\n      0x04\n      dup1\n      calldatasize\n      sub\n      dup2\n      add\n      swap1\n      tag_26\n      swap2\n      swap1\n      tag_16\n      jump\t// in\n    tag_26:\n      tag_27\n      jump\t// in\n    tag_25:\n      stop\n        /* \"appworks_blockchain_batch2/contracts/wk4/ErrorHandle.sol\":421:546  function testRevret(uint _i) public pure {... */\n    tag_8:\n      tag_28\n      0x04\n      dup1\n      calldatasize\n      sub\n      dup2\n      add\n      swap1\n      tag_29\n      swap2\n      swap1\n      tag_16\n      jump\t// in\n    tag_29:\n      tag_30\n      jump\t// in\n    tag_28:\n      stop\n        /* \"appworks_blockchain_batch2/contracts/wk4/ErrorHandle.sol\":1106:1225  function testCustomError(uint _i) public pure {... */\n    tag_9:\n      tag_31\n      0x04\n      dup1\n      calldatasize\n      sub\n      dup2\n      add\n      swap1\n      tag_32\n      swap2\n      swap1\n      tag_16\n      jump\t// in\n    tag_32:\n      tag_33\n      jump\t// in\n    tag_31:\n      stop\n        /* \"appworks_blockchain_batch2/contracts/wk4/ErrorHandle.sol\":239:340  function testRequire(uint _i) public pure {... */\n    tag_10:\n      tag_34\n      0x04\n      dup1\n      calldatasize\n      sub\n      dup2\n      add\n      swap1\n      tag_35\n      swap2\n      swap1\n      tag_16\n      jump\t// in\n    tag_35:\n      tag_36\n      jump\t// in\n    tag_34:\n      stop\n        /* \"appworks_blockchain_batch2/contracts/wk4/ErrorHandle.sol\":649:718  function testAssert() public view {... */\n    tag_13:\n        /* \"appworks_blockchain_batch2/contracts/wk4/ErrorHandle.sol\":707:710  123 */\n      0x7b\n        /* \"appworks_blockchain_batch2/contracts/wk4/ErrorHandle.sol\":700:703  num */\n      sload(0x00)\n        /* \"appworks_blockchain_batch2/contracts/wk4/ErrorHandle.sol\":700:710  num == 123 */\n      eq\n        /* \"appworks_blockchain_batch2/contracts/wk4/ErrorHandle.sol\":693:711  assert(num == 123) */\n      tag_38\n      jumpi\n      tag_39\n      tag_40\n      jump\t// in\n    tag_39:\n    tag_38:\n        /* \"appworks_blockchain_batch2/contracts/wk4/ErrorHandle.sol\":649:718  function testAssert() public view {... */\n      jump\t// out\n        /* \"appworks_blockchain_batch2/contracts/wk4/ErrorHandle.sol\":959:1039  function foo(uint _i) public {... */\n    tag_17:\n        /* \"appworks_blockchain_batch2/contracts/wk4/ErrorHandle.sol\":1005:1006  1 */\n      0x01\n        /* \"appworks_blockchain_batch2/contracts/wk4/ErrorHandle.sol\":998:1001  num */\n      0x00\n      dup1\n        /* \"appworks_blockchain_batch2/contracts/wk4/ErrorHandle.sol\":998:1006  num += 1 */\n      dup3\n      dup3\n      sload\n      tag_42\n      swap2\n      swap1\n      tag_43\n      jump\t// in\n    tag_42:\n      swap3\n      pop\n      pop\n      dup2\n      swap1\n      sstore\n      pop\n        /* \"appworks_blockchain_batch2/contracts/wk4/ErrorHandle.sol\":1029:1031  10 */\n      0x0a\n        /* \"appworks_blockchain_batch2/contracts/wk4/ErrorHandle.sol\":1024:1026  _i */\n      dup2\n        /* \"appworks_blockchain_batch2/contracts/wk4/ErrorHandle.sol\":1024:1031  _i < 10 */\n      lt\n        /* \"appworks_blockchain_batch2/contracts/wk4/ErrorHandle.sol\":1016:1032  require(_i < 10) */\n      tag_44\n      jumpi\n      0x00\n      dup1\n      revert\n    tag_44:\n        /* \"appworks_blockchain_batch2/contracts/wk4/ErrorHandle.sol\":959:1039  function foo(uint _i) public {... */\n      pop\n      jump\t// out\n        /* \"appworks_blockchain_batch2/contracts/wk4/ErrorHandle.sol\":1511:1766  function testCustomError3(uint _i) public pure {... */\n    tag_20:\n        /* \"appworks_blockchain_batch2/contracts/wk4/ErrorHandle.sol\":1633:1635  10 */\n      0x0a\n        /* \"appworks_blockchain_batch2/contracts/wk4/ErrorHandle.sol\":1628:1630  _i */\n      dup2\n        /* \"appworks_blockchain_batch2/contracts/wk4/ErrorHandle.sol\":1628:1635  _i > 10 */\n      gt\n        /* \"appworks_blockchain_batch2/contracts/wk4/ErrorHandle.sol\":1624:1760  if (_i > 10) {... */\n      iszero\n      tag_46\n      jumpi\n        /* \"appworks_blockchain_batch2/contracts/wk4/ErrorHandle.sol\":1658:1667  MyError() */\n      mload(0x40)\n      0xdd6c951c00000000000000000000000000000000000000000000000000000000\n      dup2\n      mstore\n      0x04\n      add\n      mload(0x40)\n      dup1\n      swap2\n      sub\n      swap1\n      revert\n        /* \"appworks_blockchain_batch2/contracts/wk4/ErrorHandle.sol\":1624:1760  if (_i > 10) {... */\n    tag_46:\n        /* \"appworks_blockchain_batch2/contracts/wk4/ErrorHandle.sol\":1511:1766  function testCustomError3(uint _i) public pure {... */\n      pop\n      jump\t// out\n        /* \"appworks_blockchain_batch2/contracts/wk4/ErrorHandle.sol\":552:573  uint public num = 123 */\n    tag_22:\n      sload(0x00)\n      dup2\n      jump\t// out\n        /* \"appworks_blockchain_batch2/contracts/wk4/ErrorHandle.sol\":1255:1427  function testCustomError2(uint _i) public pure {... */\n    tag_27:\n        /* \"appworks_blockchain_batch2/contracts/wk4/ErrorHandle.sol\":1367:1369  10 */\n      0x0a\n        /* \"appworks_blockchain_batch2/contracts/wk4/ErrorHandle.sol\":1361:1363  _i */\n      dup2\n        /* \"appworks_blockchain_batch2/contracts/wk4/ErrorHandle.sol\":1361:1369  _i <= 10 */\n      gt\n      iszero\n        /* \"appworks_blockchain_batch2/contracts/wk4/ErrorHandle.sol\":1353:1420  require(_i <= 10, \"a very very very very very long error message.\") */\n      tag_48\n      jumpi\n      mload(0x40)\n      0x08c379a000000000000000000000000000000000000000000000000000000000\n      dup2\n      mstore\n      0x04\n      add\n      tag_49\n      swap1\n      tag_50\n      jump\t// in\n    tag_49:\n      mload(0x40)\n      dup1\n      swap2\n      sub\n      swap1\n      revert\n    tag_48:\n        /* \"appworks_blockchain_batch2/contracts/wk4/ErrorHandle.sol\":1255:1427  function testCustomError2(uint _i) public pure {... */\n      pop\n      jump\t// out\n        /* \"appworks_blockchain_batch2/contracts/wk4/ErrorHandle.sol\":421:546  function testRevret(uint _i) public pure {... */\n    tag_30:\n        /* \"appworks_blockchain_batch2/contracts/wk4/ErrorHandle.sol\":481:483  10 */\n      0x0a\n        /* \"appworks_blockchain_batch2/contracts/wk4/ErrorHandle.sol\":476:478  _i */\n      dup2\n        /* \"appworks_blockchain_batch2/contracts/wk4/ErrorHandle.sol\":476:483  _i > 10 */\n      gt\n        /* \"appworks_blockchain_batch2/contracts/wk4/ErrorHandle.sol\":472:540  if (_i > 10) {... */\n      iszero\n      tag_52\n      jumpi\n        /* \"appworks_blockchain_batch2/contracts/wk4/ErrorHandle.sol\":499:529  revert(\"i is greater than 10\") */\n      mload(0x40)\n      0x08c379a000000000000000000000000000000000000000000000000000000000\n      dup2\n      mstore\n      0x04\n      add\n      tag_53\n      swap1\n      tag_54\n      jump\t// in\n    tag_53:\n      mload(0x40)\n      dup1\n      swap2\n      sub\n      swap1\n      revert\n        /* \"appworks_blockchain_batch2/contracts/wk4/ErrorHandle.sol\":472:540  if (_i > 10) {... */\n    tag_52:\n        /* \"appworks_blockchain_batch2/contracts/wk4/ErrorHandle.sol\":421:546  function testRevret(uint _i) public pure {... */\n      pop\n      jump\t// out\n        /* \"appworks_blockchain_batch2/contracts/wk4/ErrorHandle.sol\":1106:1225  function testCustomError(uint _i) public pure {... */\n    tag_33:\n        /* \"appworks_blockchain_batch2/contracts/wk4/ErrorHandle.sol\":1215:1217  10 */\n      0x0a\n        /* \"appworks_blockchain_batch2/contracts/wk4/ErrorHandle.sol\":1209:1211  _i */\n      dup2\n        /* \"appworks_blockchain_batch2/contracts/wk4/ErrorHandle.sol\":1209:1217  _i <= 10 */\n      gt\n      iszero\n        /* \"appworks_blockchain_batch2/contracts/wk4/ErrorHandle.sol\":1201:1218  require(_i <= 10) */\n      tag_56\n      jumpi\n      0x00\n      dup1\n      revert\n    tag_56:\n        /* \"appworks_blockchain_batch2/contracts/wk4/ErrorHandle.sol\":1106:1225  function testCustomError(uint _i) public pure {... */\n      pop\n      jump\t// out\n        /* \"appworks_blockchain_batch2/contracts/wk4/ErrorHandle.sol\":239:340  function testRequire(uint _i) public pure {... */\n    tag_36:\n        /* \"appworks_blockchain_batch2/contracts/wk4/ErrorHandle.sol\":306:308  10 */\n      0x0a\n        /* \"appworks_blockchain_batch2/contracts/wk4/ErrorHandle.sol\":300:302  _i */\n      dup2\n        /* \"appworks_blockchain_batch2/contracts/wk4/ErrorHandle.sol\":300:308  _i <= 10 */\n      gt\n      iszero\n        /* \"appworks_blockchain_batch2/contracts/wk4/ErrorHandle.sol\":291:333  require( _i <= 10, \"i is greater than 10\") */\n      tag_58\n      jumpi\n      mload(0x40)\n      0x08c379a000000000000000000000000000000000000000000000000000000000\n      dup2\n      mstore\n      0x04\n      add\n      tag_59\n      swap1\n      tag_54\n      jump\t// in\n    tag_59:\n      mload(0x40)\n      dup1\n      swap2\n      sub\n      swap1\n      revert\n    tag_58:\n        /* \"appworks_blockchain_batch2/contracts/wk4/ErrorHandle.sol\":239:340  function testRequire(uint _i) public pure {... */\n      pop\n      jump\t// out\n        /* \"#utility.yul\":88:205   */\n    tag_61:\n        /* \"#utility.yul\":197:198   */\n      0x00\n        /* \"#utility.yul\":194:195   */\n      dup1\n        /* \"#utility.yul\":187:199   */\n      revert\n        /* \"#utility.yul\":334:411   */\n    tag_63:\n        /* \"#utility.yul\":371:378   */\n      0x00\n        /* \"#utility.yul\":400:405   */\n      dup2\n        /* \"#utility.yul\":389:405   */\n      swap1\n      pop\n        /* \"#utility.yul\":334:411   */\n      swap2\n      swap1\n      pop\n      jump\t// out\n        /* \"#utility.yul\":417:539   */\n    tag_64:\n        /* \"#utility.yul\":490:514   */\n      tag_79\n        /* \"#utility.yul\":508:513   */\n      dup2\n        /* \"#utility.yul\":490:514   */\n      tag_63\n      jump\t// in\n    tag_79:\n        /* \"#utility.yul\":483:488   */\n      dup2\n        /* \"#utility.yul\":480:515   */\n      eq\n        /* \"#utility.yul\":470:533   */\n      tag_80\n      jumpi\n        /* \"#utility.yul\":529:530   */\n      0x00\n        /* \"#utility.yul\":526:527   */\n      dup1\n        /* \"#utility.yul\":519:531   */\n      revert\n        /* \"#utility.yul\":470:533   */\n    tag_80:\n        /* \"#utility.yul\":417:539   */\n      pop\n      jump\t// out\n        /* \"#utility.yul\":545:684   */\n    tag_65:\n        /* \"#utility.yul\":591:596   */\n      0x00\n        /* \"#utility.yul\":629:635   */\n      dup2\n        /* \"#utility.yul\":616:636   */\n      calldataload\n        /* \"#utility.yul\":607:636   */\n      swap1\n      pop\n        /* \"#utility.yul\":645:678   */\n      tag_82\n        /* \"#utility.yul\":672:677   */\n      dup2\n        /* \"#utility.yul\":645:678   */\n      tag_64\n      jump\t// in\n    tag_82:\n        /* \"#utility.yul\":545:684   */\n      swap3\n      swap2\n      pop\n      pop\n      jump\t// out\n        /* \"#utility.yul\":690:1019   */\n    tag_16:\n        /* \"#utility.yul\":749:755   */\n      0x00\n        /* \"#utility.yul\":798:800   */\n      0x20\n        /* \"#utility.yul\":786:795   */\n      dup3\n        /* \"#utility.yul\":777:784   */\n      dup5\n        /* \"#utility.yul\":773:796   */\n      sub\n        /* \"#utility.yul\":769:801   */\n      slt\n        /* \"#utility.yul\":766:885   */\n      iszero\n      tag_84\n      jumpi\n        /* \"#utility.yul\":804:883   */\n      tag_85\n      tag_61\n      jump\t// in\n    tag_85:\n        /* \"#utility.yul\":766:885   */\n    tag_84:\n        /* \"#utility.yul\":924:925   */\n      0x00\n        /* \"#utility.yul\":949:1002   */\n      tag_86\n        /* \"#utility.yul\":994:1001   */\n      dup5\n        /* \"#utility.yul\":985:991   */\n      dup3\n        /* \"#utility.yul\":974:983   */\n      dup6\n        /* \"#utility.yul\":970:992   */\n      add\n        /* \"#utility.yul\":949:1002   */\n      tag_65\n      jump\t// in\n    tag_86:\n        /* \"#utility.yul\":939:1002   */\n      swap2\n      pop\n        /* \"#utility.yul\":895:1012   */\n      pop\n        /* \"#utility.yul\":690:1019   */\n      swap3\n      swap2\n      pop\n      pop\n      jump\t// out\n        /* \"#utility.yul\":1025:1143   */\n    tag_66:\n        /* \"#utility.yul\":1112:1136   */\n      tag_88\n        /* \"#utility.yul\":1130:1135   */\n      dup2\n        /* \"#utility.yul\":1112:1136   */\n      tag_63\n      jump\t// in\n    tag_88:\n        /* \"#utility.yul\":1107:1110   */\n      dup3\n        /* \"#utility.yul\":1100:1137   */\n      mstore\n        /* \"#utility.yul\":1025:1143   */\n      pop\n      pop\n      jump\t// out\n        /* \"#utility.yul\":1149:1371   */\n    tag_24:\n        /* \"#utility.yul\":1242:1246   */\n      0x00\n        /* \"#utility.yul\":1280:1282   */\n      0x20\n        /* \"#utility.yul\":1269:1278   */\n      dup3\n        /* \"#utility.yul\":1265:1283   */\n      add\n        /* \"#utility.yul\":1257:1283   */\n      swap1\n      pop\n        /* \"#utility.yul\":1293:1364   */\n      tag_90\n        /* \"#utility.yul\":1361:1362   */\n      0x00\n        /* \"#utility.yul\":1350:1359   */\n      dup4\n        /* \"#utility.yul\":1346:1363   */\n      add\n        /* \"#utility.yul\":1337:1343   */\n      dup5\n        /* \"#utility.yul\":1293:1364   */\n      tag_66\n      jump\t// in\n    tag_90:\n        /* \"#utility.yul\":1149:1371   */\n      swap3\n      swap2\n      pop\n      pop\n      jump\t// out\n        /* \"#utility.yul\":1377:1557   */\n    tag_40:\n        /* \"#utility.yul\":1425:1502   */\n      0x4e487b7100000000000000000000000000000000000000000000000000000000\n        /* \"#utility.yul\":1422:1423   */\n      0x00\n        /* \"#utility.yul\":1415:1503   */\n      mstore\n        /* \"#utility.yul\":1522:1526   */\n      0x01\n        /* \"#utility.yul\":1519:1520   */\n      0x04\n        /* \"#utility.yul\":1512:1527   */\n      mstore\n        /* \"#utility.yul\":1546:1550   */\n      0x24\n        /* \"#utility.yul\":1543:1544   */\n      0x00\n        /* \"#utility.yul\":1536:1551   */\n      revert\n        /* \"#utility.yul\":1563:1743   */\n    tag_67:\n        /* \"#utility.yul\":1611:1688   */\n      0x4e487b7100000000000000000000000000000000000000000000000000000000\n        /* \"#utility.yul\":1608:1609   */\n      0x00\n        /* \"#utility.yul\":1601:1689   */\n      mstore\n        /* \"#utility.yul\":1708:1712   */\n      0x11\n        /* \"#utility.yul\":1705:1706   */\n      0x04\n        /* \"#utility.yul\":1698:1713   */\n      mstore\n        /* \"#utility.yul\":1732:1736   */\n      0x24\n        /* \"#utility.yul\":1729:1730   */\n      0x00\n        /* \"#utility.yul\":1722:1737   */\n      revert\n        /* \"#utility.yul\":1749:1940   */\n    tag_43:\n        /* \"#utility.yul\":1789:1792   */\n      0x00\n        /* \"#utility.yul\":1808:1828   */\n      tag_94\n        /* \"#utility.yul\":1826:1827   */\n      dup3\n        /* \"#utility.yul\":1808:1828   */\n      tag_63\n      jump\t// in\n    tag_94:\n        /* \"#utility.yul\":1803:1828   */\n      swap2\n      pop\n        /* \"#utility.yul\":1842:1862   */\n      tag_95\n        /* \"#utility.yul\":1860:1861   */\n      dup4\n        /* \"#utility.yul\":1842:1862   */\n      tag_63\n      jump\t// in\n    tag_95:\n        /* \"#utility.yul\":1837:1862   */\n      swap3\n      pop\n        /* \"#utility.yul\":1885:1886   */\n      dup3\n        /* \"#utility.yul\":1882:1883   */\n      dup3\n        /* \"#utility.yul\":1878:1887   */\n      add\n        /* \"#utility.yul\":1871:1887   */\n      swap1\n      pop\n        /* \"#utility.yul\":1906:1909   */\n      dup1\n        /* \"#utility.yul\":1903:1904   */\n      dup3\n        /* \"#utility.yul\":1900:1910   */\n      gt\n        /* \"#utility.yul\":1897:1933   */\n      iszero\n      tag_96\n      jumpi\n        /* \"#utility.yul\":1913:1931   */\n      tag_97\n      tag_67\n      jump\t// in\n    tag_97:\n        /* \"#utility.yul\":1897:1933   */\n    tag_96:\n        /* \"#utility.yul\":1749:1940   */\n      swap3\n      swap2\n      pop\n      pop\n      jump\t// out\n        /* \"#utility.yul\":1946:2115   */\n    tag_68:\n        /* \"#utility.yul\":2030:2041   */\n      0x00\n        /* \"#utility.yul\":2064:2070   */\n      dup3\n        /* \"#utility.yul\":2059:2062   */\n      dup3\n        /* \"#utility.yul\":2052:2071   */\n      mstore\n        /* \"#utility.yul\":2104:2108   */\n      0x20\n        /* \"#utility.yul\":2099:2102   */\n      dup3\n        /* \"#utility.yul\":2095:2109   */\n      add\n        /* \"#utility.yul\":2080:2109   */\n      swap1\n      pop\n        /* \"#utility.yul\":1946:2115   */\n      swap3\n      swap2\n      pop\n      pop\n      jump\t// out\n        /* \"#utility.yul\":2121:2354   */\n    tag_69:\n        /* \"#utility.yul\":2261:2295   */\n      0x6120766572792076657279207665727920766572792076657279206c6f6e6720\n        /* \"#utility.yul\":2257:2258   */\n      0x00\n        /* \"#utility.yul\":2249:2255   */\n      dup3\n        /* \"#utility.yul\":2245:2259   */\n      add\n        /* \"#utility.yul\":2238:2296   */\n      mstore\n        /* \"#utility.yul\":2330:2346   */\n      0x6572726f72206d6573736167652e000000000000000000000000000000000000\n        /* \"#utility.yul\":2325:2327   */\n      0x20\n        /* \"#utility.yul\":2317:2323   */\n      dup3\n        /* \"#utility.yul\":2313:2328   */\n      add\n        /* \"#utility.yul\":2306:2347   */\n      mstore\n        /* \"#utility.yul\":2121:2354   */\n      pop\n      jump\t// out\n        /* \"#utility.yul\":2360:2726   */\n    tag_70:\n        /* \"#utility.yul\":2502:2505   */\n      0x00\n        /* \"#utility.yul\":2523:2590   */\n      tag_101\n        /* \"#utility.yul\":2587:2589   */\n      0x2e\n        /* \"#utility.yul\":2582:2585   */\n      dup4\n        /* \"#utility.yul\":2523:2590   */\n      tag_68\n      jump\t// in\n    tag_101:\n        /* \"#utility.yul\":2516:2590   */\n      swap2\n      pop\n        /* \"#utility.yul\":2599:2692   */\n      tag_102\n        /* \"#utility.yul\":2688:2691   */\n      dup3\n        /* \"#utility.yul\":2599:2692   */\n      tag_69\n      jump\t// in\n    tag_102:\n        /* \"#utility.yul\":2717:2719   */\n      0x40\n        /* \"#utility.yul\":2712:2715   */\n      dup3\n        /* \"#utility.yul\":2708:2720   */\n      add\n        /* \"#utility.yul\":2701:2720   */\n      swap1\n      pop\n        /* \"#utility.yul\":2360:2726   */\n      swap2\n      swap1\n      pop\n      jump\t// out\n        /* \"#utility.yul\":2732:3151   */\n    tag_50:\n        /* \"#utility.yul\":2898:2902   */\n      0x00\n        /* \"#utility.yul\":2936:2938   */\n      0x20\n        /* \"#utility.yul\":2925:2934   */\n      dup3\n        /* \"#utility.yul\":2921:2939   */\n      add\n        /* \"#utility.yul\":2913:2939   */\n      swap1\n      pop\n        /* \"#utility.yul\":2985:2994   */\n      dup2\n        /* \"#utility.yul\":2979:2983   */\n      dup2\n        /* \"#utility.yul\":2975:2995   */\n      sub\n        /* \"#utility.yul\":2971:2972   */\n      0x00\n        /* \"#utility.yul\":2960:2969   */\n      dup4\n        /* \"#utility.yul\":2956:2973   */\n      add\n        /* \"#utility.yul\":2949:2996   */\n      mstore\n        /* \"#utility.yul\":3013:3144   */\n      tag_104\n        /* \"#utility.yul\":3139:3143   */\n      dup2\n        /* \"#utility.yul\":3013:3144   */\n      tag_70\n      jump\t// in\n    tag_104:\n        /* \"#utility.yul\":3005:3144   */\n      swap1\n      pop\n        /* \"#utility.yul\":2732:3151   */\n      swap2\n      swap1\n      pop\n      jump\t// out\n        /* \"#utility.yul\":3157:3327   */\n    tag_71:\n        /* \"#utility.yul\":3297:3319   */\n      0x692069732067726561746572207468616e203130000000000000000000000000\n        /* \"#utility.yul\":3293:3294   */\n      0x00\n        /* \"#utility.yul\":3285:3291   */\n      dup3\n        /* \"#utility.yul\":3281:3295   */\n      add\n        /* \"#utility.yul\":3274:3320   */\n      mstore\n        /* \"#utility.yul\":3157:3327   */\n      pop\n      jump\t// out\n        /* \"#utility.yul\":3333:3699   */\n    tag_72:\n        /* \"#utility.yul\":3475:3478   */\n      0x00\n        /* \"#utility.yul\":3496:3563   */\n      tag_107\n        /* \"#utility.yul\":3560:3562   */\n      0x14\n        /* \"#utility.yul\":3555:3558   */\n      dup4\n        /* \"#utility.yul\":3496:3563   */\n      tag_68\n      jump\t// in\n    tag_107:\n        /* \"#utility.yul\":3489:3563   */\n      swap2\n      pop\n        /* \"#utility.yul\":3572:3665   */\n      tag_108\n        /* \"#utility.yul\":3661:3664   */\n      dup3\n        /* \"#utility.yul\":3572:3665   */\n      tag_71\n      jump\t// in\n    tag_108:\n        /* \"#utility.yul\":3690:3692   */\n      0x20\n        /* \"#utility.yul\":3685:3688   */\n      dup3\n        /* \"#utility.yul\":3681:3693   */\n      add\n        /* \"#utility.yul\":3674:3693   */\n      swap1\n      pop\n        /* \"#utility.yul\":3333:3699   */\n      swap2\n      swap1\n      pop\n      jump\t// out\n        /* \"#utility.yul\":3705:4124   */\n    tag_54:\n        /* \"#utility.yul\":3871:3875   */\n      0x00\n        /* \"#utility.yul\":3909:3911   */\n      0x20\n        /* \"#utility.yul\":3898:3907   */\n      dup3\n        /* \"#utility.yul\":3894:3912   */\n      add\n        /* \"#utility.yul\":3886:3912   */\n      swap1\n      pop\n        /* \"#utility.yul\":3958:3967   */\n      dup2\n        /* \"#utility.yul\":3952:3956   */\n      dup2\n        /* \"#utility.yul\":3948:3968   */\n      sub\n        /* \"#utility.yul\":3944:3945   */\n      0x00\n        /* \"#utility.yul\":3933:3942   */\n      dup4\n        /* \"#utility.yul\":3929:3946   */\n      add\n        /* \"#utility.yul\":3922:3969   */\n      mstore\n        /* \"#utility.yul\":3986:4117   */\n      tag_110\n        /* \"#utility.yul\":4112:4116   */\n      dup2\n        /* \"#utility.yul\":3986:4117   */\n      tag_72\n      jump\t// in\n    tag_110:\n        /* \"#utility.yul\":3978:4117   */\n      swap1\n      pop\n        /* \"#utility.yul\":3705:4124   */\n      swap2\n      swap1\n      pop\n      jump\t// out\n\n    auxdata: 0xa264697066735822122093066085c94b0a6918950597b14d5aa3ce1b9a65e8e7f896aca9004da9a2253964736f6c63430008130033\n}\n",
				"bytecode": {
					"linkReferences": {},
					"object": "6080604052607b60005534801561001557600080fd5b5061052e806100256000396000f3fe608060405234801561001057600080fd5b50600436106100885760003560e01c80635cf585ee1161005b5780635cf585ee146100ed578063628be9901461010957806375f7286c14610125578063b8bd717f1461014157610088565b80632b813bc01461008d5780632fbebd38146100975780633e7e7831146100b35780634e70b1dc146100cf575b600080fd5b61009561015d565b005b6100b160048036038101906100ac9190610300565b610172565b005b6100cd60048036038101906100c89190610300565b61019b565b005b6100d76101d9565b6040516100e4919061033c565b60405180910390f35b61010760048036038101906101029190610300565b6101df565b005b610123600480360381019061011e9190610300565b610226565b005b61013f600480360381019061013a9190610300565b61026d565b005b61015b60048036038101906101569190610300565b61027e565b005b607b600054146101705761016f610357565b5b565b600160008082825461018491906103b5565b92505081905550600a811061019857600080fd5b50565b600a8111156101d6576040517fdd6c951c00000000000000000000000000000000000000000000000000000000815260040160405180910390fd5b50565b60005481565b600a811115610223576040517f08c379a000000000000000000000000000000000000000000000000000000000815260040161021a9061046c565b60405180910390fd5b50565b600a81111561026a576040517f08c379a0000000000000000000000000000000000000000000000000000000008152600401610261906104d8565b60405180910390fd5b50565b600a81111561027b57600080fd5b50565b600a8111156102c2576040517f08c379a00000000000000000000000000000000000000000000000000000000081526004016102b9906104d8565b60405180910390fd5b50565b600080fd5b6000819050919050565b6102dd816102ca565b81146102e857600080fd5b50565b6000813590506102fa816102d4565b92915050565b600060208284031215610316576103156102c5565b5b6000610324848285016102eb565b91505092915050565b610336816102ca565b82525050565b6000602082019050610351600083018461032d565b92915050565b7f4e487b7100000000000000000000000000000000000000000000000000000000600052600160045260246000fd5b7f4e487b7100000000000000000000000000000000000000000000000000000000600052601160045260246000fd5b60006103c0826102ca565b91506103cb836102ca565b92508282019050808211156103e3576103e2610386565b5b92915050565b600082825260208201905092915050565b7f6120766572792076657279207665727920766572792076657279206c6f6e672060008201527f6572726f72206d6573736167652e000000000000000000000000000000000000602082015250565b6000610456602e836103e9565b9150610461826103fa565b604082019050919050565b6000602082019050818103600083015261048581610449565b9050919050565b7f692069732067726561746572207468616e203130000000000000000000000000600082015250565b60006104c26014836103e9565b91506104cd8261048c565b602082019050919050565b600060208201905081810360008301526104f1816104b5565b905091905056fea264697066735822122093066085c94b0a6918950597b14d5aa3ce1b9a65e8e7f896aca9004da9a2253964736f6c63430008130033",
					"opcodes": "PUSH1 0x80 PUSH1 0x40 MSTORE PUSH1 0x7B PUSH1 0x0 SSTORE CALLVALUE DUP1 ISZERO PUSH2 0x15 JUMPI PUSH1 0x0 DUP1 REVERT JUMPDEST POP PUSH2 0x52E DUP1 PUSH2 0x25 PUSH1 0x0 CODECOPY PUSH1 0x0 RETURN INVALID PUSH1 0x80 PUSH1 0x40 MSTORE CALLVALUE DUP1 ISZERO PUSH2 0x10 JUMPI PUSH1 0x0 DUP1 REVERT JUMPDEST POP PUSH1 0x4 CALLDATASIZE LT PUSH2 0x88 JUMPI PUSH1 0x0 CALLDATALOAD PUSH1 0xE0 SHR DUP1 PUSH4 0x5CF585EE GT PUSH2 0x5B JUMPI DUP1 PUSH4 0x5CF585EE EQ PUSH2 0xED JUMPI DUP1 PUSH4 0x628BE990 EQ PUSH2 0x109 JUMPI DUP1 PUSH4 0x75F7286C EQ PUSH2 0x125 JUMPI DUP1 PUSH4 0xB8BD717F EQ PUSH2 0x141 JUMPI PUSH2 0x88 JUMP JUMPDEST DUP1 PUSH4 0x2B813BC0 EQ PUSH2 0x8D JUMPI DUP1 PUSH4 0x2FBEBD38 EQ PUSH2 0x97 JUMPI DUP1 PUSH4 0x3E7E7831 EQ PUSH2 0xB3 JUMPI DUP1 PUSH4 0x4E70B1DC EQ PUSH2 0xCF JUMPI JUMPDEST PUSH1 0x0 DUP1 REVERT JUMPDEST PUSH2 0x95 PUSH2 0x15D JUMP JUMPDEST STOP JUMPDEST PUSH2 0xB1 PUSH1 0x4 DUP1 CALLDATASIZE SUB DUP2 ADD SWAP1 PUSH2 0xAC SWAP2 SWAP1 PUSH2 0x300 JUMP JUMPDEST PUSH2 0x172 JUMP JUMPDEST STOP JUMPDEST PUSH2 0xCD PUSH1 0x4 DUP1 CALLDATASIZE SUB DUP2 ADD SWAP1 PUSH2 0xC8 SWAP2 SWAP1 PUSH2 0x300 JUMP JUMPDEST PUSH2 0x19B JUMP JUMPDEST STOP JUMPDEST PUSH2 0xD7 PUSH2 0x1D9 JUMP JUMPDEST PUSH1 0x40 MLOAD PUSH2 0xE4 SWAP2 SWAP1 PUSH2 0x33C JUMP JUMPDEST PUSH1 0x40 MLOAD DUP1 SWAP2 SUB SWAP1 RETURN JUMPDEST PUSH2 0x107 PUSH1 0x4 DUP1 CALLDATASIZE SUB DUP2 ADD SWAP1 PUSH2 0x102 SWAP2 SWAP1 PUSH2 0x300 JUMP JUMPDEST PUSH2 0x1DF JUMP JUMPDEST STOP JUMPDEST PUSH2 0x123 PUSH1 0x4 DUP1 CALLDATASIZE SUB DUP2 ADD SWAP1 PUSH2 0x11E SWAP2 SWAP1 PUSH2 0x300 JUMP JUMPDEST PUSH2 0x226 JUMP JUMPDEST STOP JUMPDEST PUSH2 0x13F PUSH1 0x4 DUP1 CALLDATASIZE SUB DUP2 ADD SWAP1 PUSH2 0x13A SWAP2 SWAP1 PUSH2 0x300 JUMP JUMPDEST PUSH2 0x26D JUMP JUMPDEST STOP JUMPDEST PUSH2 0x15B PUSH1 0x4 DUP1 CALLDATASIZE SUB DUP2 ADD SWAP1 PUSH2 0x156 SWAP2 SWAP1 PUSH2 0x300 JUMP JUMPDEST PUSH2 0x27E JUMP JUMPDEST STOP JUMPDEST PUSH1 0x7B PUSH1 0x0 SLOAD EQ PUSH2 0x170 JUMPI PUSH2 0x16F PUSH2 0x357 JUMP JUMPDEST JUMPDEST JUMP JUMPDEST PUSH1 0x1 PUSH1 0x0 DUP1 DUP3 DUP3 SLOAD PUSH2 0x184 SWAP2 SWAP1 PUSH2 0x3B5 JUMP JUMPDEST SWAP3 POP POP DUP2 SWAP1 SSTORE POP PUSH1 0xA DUP2 LT PUSH2 0x198 JUMPI PUSH1 0x0 DUP1 REVERT JUMPDEST POP JUMP JUMPDEST PUSH1 0xA DUP2 GT ISZERO PUSH2 0x1D6 JUMPI PUSH1 0x40 MLOAD PUSH32 0xDD6C951C00000000000000000000000000000000000000000000000000000000 DUP2 MSTORE PUSH1 0x4 ADD PUSH1 0x40 MLOAD DUP1 SWAP2 SUB SWAP1 REVERT JUMPDEST POP JUMP JUMPDEST PUSH1 0x0 SLOAD DUP2 JUMP JUMPDEST PUSH1 0xA DUP2 GT ISZERO PUSH2 0x223 JUMPI PUSH1 0x40 MLOAD PUSH32 0x8C379A000000000000000000000000000000000000000000000000000000000 DUP2 MSTORE PUSH1 0x4 ADD PUSH2 0x21A SWAP1 PUSH2 0x46C JUMP JUMPDEST PUSH1 0x40 MLOAD DUP1 SWAP2 SUB SWAP1 REVERT JUMPDEST POP JUMP JUMPDEST PUSH1 0xA DUP2 GT ISZERO PUSH2 0x26A JUMPI PUSH1 0x40 MLOAD PUSH32 0x8C379A000000000000000000000000000000000000000000000000000000000 DUP2 MSTORE PUSH1 0x4 ADD PUSH2 0x261 SWAP1 PUSH2 0x4D8 JUMP JUMPDEST PUSH1 0x40 MLOAD DUP1 SWAP2 SUB SWAP1 REVERT JUMPDEST POP JUMP JUMPDEST PUSH1 0xA DUP2 GT ISZERO PUSH2 0x27B JUMPI PUSH1 0x0 DUP1 REVERT JUMPDEST POP JUMP JUMPDEST PUSH1 0xA DUP2 GT ISZERO PUSH2 0x2C2 JUMPI PUSH1 0x40 MLOAD PUSH32 0x8C379A000000000000000000000000000000000000000000000000000000000 DUP2 MSTORE PUSH1 0x4 ADD PUSH2 0x2B9 SWAP1 PUSH2 0x4D8 JUMP JUMPDEST PUSH1 0x40 MLOAD DUP1 SWAP2 SUB SWAP1 REVERT JUMPDEST POP JUMP JUMPDEST PUSH1 0x0 DUP1 REVERT JUMPDEST PUSH1 0x0 DUP2 SWAP1 POP SWAP2 SWAP1 POP JUMP JUMPDEST PUSH2 0x2DD DUP2 PUSH2 0x2CA JUMP JUMPDEST DUP2 EQ PUSH2 0x2E8 JUMPI PUSH1 0x0 DUP1 REVERT JUMPDEST POP JUMP JUMPDEST PUSH1 0x0 DUP2 CALLDATALOAD SWAP1 POP PUSH2 0x2FA DUP2 PUSH2 0x2D4 JUMP JUMPDEST SWAP3 SWAP2 POP POP JUMP JUMPDEST PUSH1 0x0 PUSH1 0x20 DUP3 DUP5 SUB SLT ISZERO PUSH2 0x316 JUMPI PUSH2 0x315 PUSH2 0x2C5 JUMP JUMPDEST JUMPDEST PUSH1 0x0 PUSH2 0x324 DUP5 DUP3 DUP6 ADD PUSH2 0x2EB JUMP JUMPDEST SWAP2 POP POP SWAP3 SWAP2 POP POP JUMP JUMPDEST PUSH2 0x336 DUP2 PUSH2 0x2CA JUMP JUMPDEST DUP3 MSTORE POP POP JUMP JUMPDEST PUSH1 0x0 PUSH1 0x20 DUP3 ADD SWAP1 POP PUSH2 0x351 PUSH1 0x0 DUP4 ADD DUP5 PUSH2 0x32D JUMP JUMPDEST SWAP3 SWAP2 POP POP JUMP JUMPDEST PUSH32 0x4E487B7100000000000000000000000000000000000000000000000000000000 PUSH1 0x0 MSTORE PUSH1 0x1 PUSH1 0x4 MSTORE PUSH1 0x24 PUSH1 0x0 REVERT JUMPDEST PUSH32 0x4E487B7100000000000000000000000000000000000000000000000000000000 PUSH1 0x0 MSTORE PUSH1 0x11 PUSH1 0x4 MSTORE PUSH1 0x24 PUSH1 0x0 REVERT JUMPDEST PUSH1 0x0 PUSH2 0x3C0 DUP3 PUSH2 0x2CA JUMP JUMPDEST SWAP2 POP PUSH2 0x3CB DUP4 PUSH2 0x2CA JUMP JUMPDEST SWAP3 POP DUP3 DUP3 ADD SWAP1 POP DUP1 DUP3 GT ISZERO PUSH2 0x3E3 JUMPI PUSH2 0x3E2 PUSH2 0x386 JUMP JUMPDEST JUMPDEST SWAP3 SWAP2 POP POP JUMP JUMPDEST PUSH1 0x0 DUP3 DUP3 MSTORE PUSH1 0x20 DUP3 ADD SWAP1 POP SWAP3 SWAP2 POP POP JUMP JUMPDEST PUSH32 0x6120766572792076657279207665727920766572792076657279206C6F6E6720 PUSH1 0x0 DUP3 ADD MSTORE PUSH32 0x6572726F72206D6573736167652E000000000000000000000000000000000000 PUSH1 0x20 DUP3 ADD MSTORE POP JUMP JUMPDEST PUSH1 0x0 PUSH2 0x456 PUSH1 0x2E DUP4 PUSH2 0x3E9 JUMP JUMPDEST SWAP2 POP PUSH2 0x461 DUP3 PUSH2 0x3FA JUMP JUMPDEST PUSH1 0x40 DUP3 ADD SWAP1 POP SWAP2 SWAP1 POP JUMP JUMPDEST PUSH1 0x0 PUSH1 0x20 DUP3 ADD SWAP1 POP DUP2 DUP2 SUB PUSH1 0x0 DUP4 ADD MSTORE PUSH2 0x485 DUP2 PUSH2 0x449 JUMP JUMPDEST SWAP1 POP SWAP2 SWAP1 POP JUMP JUMPDEST PUSH32 0x692069732067726561746572207468616E203130000000000000000000000000 PUSH1 0x0 DUP3 ADD MSTORE POP JUMP JUMPDEST PUSH1 0x0 PUSH2 0x4C2 PUSH1 0x14 DUP4 PUSH2 0x3E9 JUMP JUMPDEST SWAP2 POP PUSH2 0x4CD DUP3 PUSH2 0x48C JUMP JUMPDEST PUSH1 0x20 DUP3 ADD SWAP1 POP SWAP2 SWAP1 POP JUMP JUMPDEST PUSH1 0x0 PUSH1 0x20 DUP3 ADD SWAP1 POP DUP2 DUP2 SUB PUSH1 0x0 DUP4 ADD MSTORE PUSH2 0x4F1 DUP2 PUSH2 0x4B5 JUMP JUMPDEST SWAP1 POP SWAP2 SWAP1 POP JUMP INVALID LOG2 PUSH5 0x6970667358 0x22 SLT KECCAK256 SWAP4 MOD PUSH1 0x85 0xC9 0x4B EXP PUSH10 0x18950597B14D5AA3CE1B SWAP11 PUSH6 0xE8E7F896ACA9 STOP 0x4D 0xA9 LOG2 0x25 CODECOPY PUSH5 0x736F6C6343 STOP ADDMOD SGT STOP CALLER "
				},
				"gasEstimates": {
					"creation": {
						"codeDepositCost": "265200",
						"executionCost": "22412",
						"totalCost": "287612"
					},
					"external": {
						"foo(uint256)": "infinite",
						"num()": "2496",
						"testAssert()": "2297",
						"testCustomError(uint256)": "476",
						"testCustomError2(uint256)": "737",
						"testCustomError3(uint256)": "510",
						"testRequire(uint256)": "785",
						"testRevret(uint256)": "741"
					}
				},
				"methodIdentifiers": {
					"foo(uint256)": "2fbebd38",
					"num()": "4e70b1dc",
					"testAssert()": "2b813bc0",
					"testCustomError(uint256)": "75f7286c",
					"testCustomError2(uint256)": "5cf585ee",
					"testCustomError3(uint256)": "3e7e7831",
					"testRequire(uint256)": "b8bd717f",
					"testRevret(uint256)": "628be990"
				}
			},
			"storageLayout": {
				"storage": [
					{
						"astId": 32,
						"contract": "appworks_blockchain_batch2/contracts/wk4/ErrorHandle.sol:ErrorHandle",
						"label": "num",
						"offset": 0,
						"slot": "0",
						"type": "t_uint256"
					}
				],
				"types": {
					"t_uint256": {
						"encoding": "inplace",
						"label": "uint256",
						"numberOfBytes": "32"
					}
				}
			},
			"userdoc": {
				"kind": "user",
				"methods": {},
				"version": 1
			}
		}
	}
}