{
	"appworks_blockchain_batch2/contracts/wk4/Interface.sol": {
		"Counter": {
			"abi": [
				{
					"inputs": [],
					"name": "count",
					"outputs": [
						{
							"internalType": "uint256",
							"name": "",
							"type": "uint256"
						}
					],
					"stateMutability": "view",
					"type": "function"
				},
				{
					"inputs": [],
					"name": "count2",
					"outputs": [
						{
							"internalType": "uint256",
							"name": "",
							"type": "uint256"
						}
					],
					"stateMutability": "view",
					"type": "function"
				},
				{
					"inputs": [],
					"name": "dec",
					"outputs": [],
					"stateMutability": "nonpayable",
					"type": "function"
				},
				{
					"inputs": [],
					"name": "dec2",
					"outputs": [],
					"stateMutability": "nonpayable",
					"type": "function"
				},
				{
					"inputs": [],
					"name": "inc",
					"outputs": [],
					"stateMutability": "nonpayable",
					"type": "function"
				},
				{
					"inputs": [],
					"name": "inc2",
					"outputs": [],
					"stateMutability": "nonpayable",
					"type": "function"
				}
			],
			"devdoc": {
				"kind": "dev",
				"methods": {},
				"version": 1
			},
			"evm": {
				"assembly": "    /* \"appworks_blockchain_batch2/contracts/wk4/Interface.sol\":58:553  contract Counter {... */\n  mstore(0x40, 0x80)\n    /* \"appworks_blockchain_batch2/contracts/wk4/Interface.sol\":431:432  1 */\n  0x01\n    /* \"appworks_blockchain_batch2/contracts/wk4/Interface.sol\":410:432  uint public count2 = 1 */\n  dup1\n  sstore\n    /* \"appworks_blockchain_batch2/contracts/wk4/Interface.sol\":58:553  contract Counter {... */\n  callvalue\n  dup1\n  iszero\n  tag_1\n  jumpi\n  0x00\n  dup1\n  revert\ntag_1:\n  pop\n  dataSize(sub_0)\n  dup1\n  dataOffset(sub_0)\n  0x00\n  codecopy\n  0x00\n  return\nstop\n\nsub_0: assembly {\n        /* \"appworks_blockchain_batch2/contracts/wk4/Interface.sol\":58:553  contract Counter {... */\n      mstore(0x40, 0x80)\n      callvalue\n      dup1\n      iszero\n      tag_1\n      jumpi\n      0x00\n      dup1\n      revert\n    tag_1:\n      pop\n      jumpi(tag_2, lt(calldatasize, 0x04))\n      shr(0xe0, calldataload(0x00))\n      dup1\n      0x06661abd\n      eq\n      tag_3\n      jumpi\n      dup1\n      0x1d63e24d\n      eq\n      tag_4\n      jumpi\n      dup1\n      0x371303c0\n      eq\n      tag_5\n      jumpi\n      dup1\n      0x552350aa\n      eq\n      tag_6\n      jumpi\n      dup1\n      0x71c9f31c\n      eq\n      tag_7\n      jumpi\n      dup1\n      0xb3bcfa82\n      eq\n      tag_8\n      jumpi\n    tag_2:\n      0x00\n      dup1\n      revert\n        /* \"appworks_blockchain_batch2/contracts/wk4/Interface.sol\":175:192  uint public count */\n    tag_3:\n      tag_9\n      tag_10\n      jump\t// in\n    tag_9:\n      mload(0x40)\n      tag_11\n      swap2\n      swap1\n      tag_12\n      jump\t// in\n    tag_11:\n      mload(0x40)\n      dup1\n      swap2\n      sub\n      swap1\n      return\n        /* \"appworks_blockchain_batch2/contracts/wk4/Interface.sol\":410:432  uint public count2 = 1 */\n    tag_4:\n      tag_13\n      tag_14\n      jump\t// in\n    tag_13:\n      mload(0x40)\n      tag_15\n      swap2\n      swap1\n      tag_12\n      jump\t// in\n    tag_15:\n      mload(0x40)\n      dup1\n      swap2\n      sub\n      swap1\n      return\n        /* \"appworks_blockchain_batch2/contracts/wk4/Interface.sol\":199:250  function inc() external {... */\n    tag_5:\n      tag_16\n      tag_17\n      jump\t// in\n    tag_16:\n      stop\n        /* \"appworks_blockchain_batch2/contracts/wk4/Interface.sol\":498:551  function dec2() external {... */\n    tag_6:\n      tag_18\n      tag_19\n      jump\t// in\n    tag_18:\n      stop\n        /* \"appworks_blockchain_batch2/contracts/wk4/Interface.sol\":439:492  function inc2() external {... */\n    tag_7:\n      tag_20\n      tag_21\n      jump\t// in\n    tag_20:\n      stop\n        /* \"appworks_blockchain_batch2/contracts/wk4/Interface.sol\":256:307  function dec() external {... */\n    tag_8:\n      tag_22\n      tag_23\n      jump\t// in\n    tag_22:\n      stop\n        /* \"appworks_blockchain_batch2/contracts/wk4/Interface.sol\":175:192  uint public count */\n    tag_10:\n      sload(0x00)\n      dup2\n      jump\t// out\n        /* \"appworks_blockchain_batch2/contracts/wk4/Interface.sol\":410:432  uint public count2 = 1 */\n    tag_14:\n      sload(0x01)\n      dup2\n      jump\t// out\n        /* \"appworks_blockchain_batch2/contracts/wk4/Interface.sol\":199:250  function inc() external {... */\n    tag_17:\n        /* \"appworks_blockchain_batch2/contracts/wk4/Interface.sol\":242:243  1 */\n      0x01\n        /* \"appworks_blockchain_batch2/contracts/wk4/Interface.sol\":233:238  count */\n      0x00\n      dup1\n        /* \"appworks_blockchain_batch2/contracts/wk4/Interface.sol\":233:243  count += 1 */\n      dup3\n      dup3\n      sload\n      tag_25\n      swap2\n      swap1\n      tag_26\n      jump\t// in\n    tag_25:\n      swap3\n      pop\n      pop\n      dup2\n      swap1\n      sstore\n      pop\n        /* \"appworks_blockchain_batch2/contracts/wk4/Interface.sol\":199:250  function inc() external {... */\n      jump\t// out\n        /* \"appworks_blockchain_batch2/contracts/wk4/Interface.sol\":498:551  function dec2() external {... */\n    tag_19:\n        /* \"appworks_blockchain_batch2/contracts/wk4/Interface.sol\":543:544  1 */\n      0x01\n        /* \"appworks_blockchain_batch2/contracts/wk4/Interface.sol\":533:539  count2 */\n      dup1\n      0x00\n        /* \"appworks_blockchain_batch2/contracts/wk4/Interface.sol\":533:544  count2 -= 1 */\n      dup3\n      dup3\n      sload\n      tag_28\n      swap2\n      swap1\n      tag_29\n      jump\t// in\n    tag_28:\n      swap3\n      pop\n      pop\n      dup2\n      swap1\n      sstore\n      pop\n        /* \"appworks_blockchain_batch2/contracts/wk4/Interface.sol\":498:551  function dec2() external {... */\n      jump\t// out\n        /* \"appworks_blockchain_batch2/contracts/wk4/Interface.sol\":439:492  function inc2() external {... */\n    tag_21:\n        /* \"appworks_blockchain_batch2/contracts/wk4/Interface.sol\":484:485  1 */\n      0x01\n        /* \"appworks_blockchain_batch2/contracts/wk4/Interface.sol\":474:480  count2 */\n      dup1\n      0x00\n        /* \"appworks_blockchain_batch2/contracts/wk4/Interface.sol\":474:485  count2 += 1 */\n      dup3\n      dup3\n      sload\n      tag_31\n      swap2\n      swap1\n      tag_26\n      jump\t// in\n    tag_31:\n      swap3\n      pop\n      pop\n      dup2\n      swap1\n      sstore\n      pop\n        /* \"appworks_blockchain_batch2/contracts/wk4/Interface.sol\":439:492  function inc2() external {... */\n      jump\t// out\n        /* \"appworks_blockchain_batch2/contracts/wk4/Interface.sol\":256:307  function dec() external {... */\n    tag_23:\n        /* \"appworks_blockchain_batch2/contracts/wk4/Interface.sol\":299:300  1 */\n      0x01\n        /* \"appworks_blockchain_batch2/contracts/wk4/Interface.sol\":290:295  count */\n      0x00\n      dup1\n        /* \"appworks_blockchain_batch2/contracts/wk4/Interface.sol\":290:300  count -= 1 */\n      dup3\n      dup3\n      sload\n      tag_33\n      swap2\n      swap1\n      tag_29\n      jump\t// in\n    tag_33:\n      swap3\n      pop\n      pop\n      dup2\n      swap1\n      sstore\n      pop\n        /* \"appworks_blockchain_batch2/contracts/wk4/Interface.sol\":256:307  function dec() external {... */\n      jump\t// out\n        /* \"#utility.yul\":7:84   */\n    tag_34:\n        /* \"#utility.yul\":44:51   */\n      0x00\n        /* \"#utility.yul\":73:78   */\n      dup2\n        /* \"#utility.yul\":62:78   */\n      swap1\n      pop\n        /* \"#utility.yul\":7:84   */\n      swap2\n      swap1\n      pop\n      jump\t// out\n        /* \"#utility.yul\":90:208   */\n    tag_35:\n        /* \"#utility.yul\":177:201   */\n      tag_40\n        /* \"#utility.yul\":195:200   */\n      dup2\n        /* \"#utility.yul\":177:201   */\n      tag_34\n      jump\t// in\n    tag_40:\n        /* \"#utility.yul\":172:175   */\n      dup3\n        /* \"#utility.yul\":165:202   */\n      mstore\n        /* \"#utility.yul\":90:208   */\n      pop\n      pop\n      jump\t// out\n        /* \"#utility.yul\":214:436   */\n    tag_12:\n        /* \"#utility.yul\":307:311   */\n      0x00\n        /* \"#utility.yul\":345:347   */\n      0x20\n        /* \"#utility.yul\":334:343   */\n      dup3\n        /* \"#utility.yul\":330:348   */\n      add\n        /* \"#utility.yul\":322:348   */\n      swap1\n      pop\n        /* \"#utility.yul\":358:429   */\n      tag_42\n        /* \"#utility.yul\":426:427   */\n      0x00\n        /* \"#utility.yul\":415:424   */\n      dup4\n        /* \"#utility.yul\":411:428   */\n      add\n        /* \"#utility.yul\":402:408   */\n      dup5\n        /* \"#utility.yul\":358:429   */\n      tag_35\n      jump\t// in\n    tag_42:\n        /* \"#utility.yul\":214:436   */\n      swap3\n      swap2\n      pop\n      pop\n      jump\t// out\n        /* \"#utility.yul\":442:622   */\n    tag_36:\n        /* \"#utility.yul\":490:567   */\n      0x4e487b7100000000000000000000000000000000000000000000000000000000\n        /* \"#utility.yul\":487:488   */\n      0x00\n        /* \"#utility.yul\":480:568   */\n      mstore\n        /* \"#utility.yul\":587:591   */\n      0x11\n        /* \"#utility.yul\":584:585   */\n      0x04\n        /* \"#utility.yul\":577:592   */\n      mstore\n        /* \"#utility.yul\":611:615   */\n      0x24\n        /* \"#utility.yul\":608:609   */\n      0x00\n        /* \"#utility.yul\":601:616   */\n      revert\n        /* \"#utility.yul\":628:819   */\n    tag_26:\n        /* \"#utility.yul\":668:671   */\n      0x00\n        /* \"#utility.yul\":687:707   */\n      tag_45\n        /* \"#utility.yul\":705:706   */\n      dup3\n        /* \"#utility.yul\":687:707   */\n      tag_34\n      jump\t// in\n    tag_45:\n        /* \"#utility.yul\":682:707   */\n      swap2\n      pop\n        /* \"#utility.yul\":721:741   */\n      tag_46\n        /* \"#utility.yul\":739:740   */\n      dup4\n        /* \"#utility.yul\":721:741   */\n      tag_34\n      jump\t// in\n    tag_46:\n        /* \"#utility.yul\":716:741   */\n      swap3\n      pop\n        /* \"#utility.yul\":764:765   */\n      dup3\n        /* \"#utility.yul\":761:762   */\n      dup3\n        /* \"#utility.yul\":757:766   */\n      add\n        /* \"#utility.yul\":750:766   */\n      swap1\n      pop\n        /* \"#utility.yul\":785:788   */\n      dup1\n        /* \"#utility.yul\":782:783   */\n      dup3\n        /* \"#utility.yul\":779:789   */\n      gt\n        /* \"#utility.yul\":776:812   */\n      iszero\n      tag_47\n      jumpi\n        /* \"#utility.yul\":792:810   */\n      tag_48\n      tag_36\n      jump\t// in\n    tag_48:\n        /* \"#utility.yul\":776:812   */\n    tag_47:\n        /* \"#utility.yul\":628:819   */\n      swap3\n      swap2\n      pop\n      pop\n      jump\t// out\n        /* \"#utility.yul\":825:1019   */\n    tag_29:\n        /* \"#utility.yul\":865:869   */\n      0x00\n        /* \"#utility.yul\":885:905   */\n      tag_50\n        /* \"#utility.yul\":903:904   */\n      dup3\n        /* \"#utility.yul\":885:905   */\n      tag_34\n      jump\t// in\n    tag_50:\n        /* \"#utility.yul\":880:905   */\n      swap2\n      pop\n        /* \"#utility.yul\":919:939   */\n      tag_51\n        /* \"#utility.yul\":937:938   */\n      dup4\n        /* \"#utility.yul\":919:939   */\n      tag_34\n      jump\t// in\n    tag_51:\n        /* \"#utility.yul\":914:939   */\n      swap3\n      pop\n        /* \"#utility.yul\":963:964   */\n      dup3\n        /* \"#utility.yul\":960:961   */\n      dup3\n        /* \"#utility.yul\":956:965   */\n      sub\n        /* \"#utility.yul\":948:965   */\n      swap1\n      pop\n        /* \"#utility.yul\":987:988   */\n      dup2\n        /* \"#utility.yul\":981:985   */\n      dup2\n        /* \"#utility.yul\":978:989   */\n      gt\n        /* \"#utility.yul\":975:1012   */\n      iszero\n      tag_52\n      jumpi\n        /* \"#utility.yul\":992:1010   */\n      tag_53\n      tag_36\n      jump\t// in\n    tag_53:\n        /* \"#utility.yul\":975:1012   */\n    tag_52:\n        /* \"#utility.yul\":825:1019   */\n      swap3\n      swap2\n      pop\n      pop\n      jump\t// out\n\n    auxdata: 0xa2646970667358221220063f1361a207f145f0e0c8b246d2f110f60e3e36530e2c116fe3c5774f2fd55064736f6c63430008130033\n}\n",
				"bytecode": {
					"linkReferences": {},
					"object": "60806040526001805534801561001457600080fd5b50610244806100246000396000f3fe608060405234801561001057600080fd5b50600436106100625760003560e01c806306661abd146100675780631d63e24d14610085578063371303c0146100a3578063552350aa146100ad57806371c9f31c146100b7578063b3bcfa82146100c1575b600080fd5b61006f6100cb565b60405161007c919061015c565b60405180910390f35b61008d6100d1565b60405161009a919061015c565b60405180910390f35b6100ab6100d7565b005b6100b56100f2565b005b6100bf61010d565b005b6100c9610128565b005b60005481565b60015481565b60016000808282546100e991906101a6565b92505081905550565b600180600082825461010491906101da565b92505081905550565b600180600082825461011f91906101a6565b92505081905550565b600160008082825461013a91906101da565b92505081905550565b6000819050919050565b61015681610143565b82525050565b6000602082019050610171600083018461014d565b92915050565b7f4e487b7100000000000000000000000000000000000000000000000000000000600052601160045260246000fd5b60006101b182610143565b91506101bc83610143565b92508282019050808211156101d4576101d3610177565b5b92915050565b60006101e582610143565b91506101f083610143565b925082820390508181111561020857610207610177565b5b9291505056fea2646970667358221220063f1361a207f145f0e0c8b246d2f110f60e3e36530e2c116fe3c5774f2fd55064736f6c63430008130033",
					"opcodes": "PUSH1 0x80 PUSH1 0x40 MSTORE PUSH1 0x1 DUP1 SSTORE CALLVALUE DUP1 ISZERO PUSH2 0x14 JUMPI PUSH1 0x0 DUP1 REVERT JUMPDEST POP PUSH2 0x244 DUP1 PUSH2 0x24 PUSH1 0x0 CODECOPY PUSH1 0x0 RETURN INVALID PUSH1 0x80 PUSH1 0x40 MSTORE CALLVALUE DUP1 ISZERO PUSH2 0x10 JUMPI PUSH1 0x0 DUP1 REVERT JUMPDEST POP PUSH1 0x4 CALLDATASIZE LT PUSH2 0x62 JUMPI PUSH1 0x0 CALLDATALOAD PUSH1 0xE0 SHR DUP1 PUSH4 0x6661ABD EQ PUSH2 0x67 JUMPI DUP1 PUSH4 0x1D63E24D EQ PUSH2 0x85 JUMPI DUP1 PUSH4 0x371303C0 EQ PUSH2 0xA3 JUMPI DUP1 PUSH4 0x552350AA EQ PUSH2 0xAD JUMPI DUP1 PUSH4 0x71C9F31C EQ PUSH2 0xB7 JUMPI DUP1 PUSH4 0xB3BCFA82 EQ PUSH2 0xC1 JUMPI JUMPDEST PUSH1 0x0 DUP1 REVERT JUMPDEST PUSH2 0x6F PUSH2 0xCB JUMP JUMPDEST PUSH1 0x40 MLOAD PUSH2 0x7C SWAP2 SWAP1 PUSH2 0x15C JUMP JUMPDEST PUSH1 0x40 MLOAD DUP1 SWAP2 SUB SWAP1 RETURN JUMPDEST PUSH2 0x8D PUSH2 0xD1 JUMP JUMPDEST PUSH1 0x40 MLOAD PUSH2 0x9A SWAP2 SWAP1 PUSH2 0x15C JUMP JUMPDEST PUSH1 0x40 MLOAD DUP1 SWAP2 SUB SWAP1 RETURN JUMPDEST PUSH2 0xAB PUSH2 0xD7 JUMP JUMPDEST STOP JUMPDEST PUSH2 0xB5 PUSH2 0xF2 JUMP JUMPDEST STOP JUMPDEST PUSH2 0xBF PUSH2 0x10D JUMP JUMPDEST STOP JUMPDEST PUSH2 0xC9 PUSH2 0x128 JUMP JUMPDEST STOP JUMPDEST PUSH1 0x0 SLOAD DUP2 JUMP JUMPDEST PUSH1 0x1 SLOAD DUP2 JUMP JUMPDEST PUSH1 0x1 PUSH1 0x0 DUP1 DUP3 DUP3 SLOAD PUSH2 0xE9 SWAP2 SWAP1 PUSH2 0x1A6 JUMP JUMPDEST SWAP3 POP POP DUP2 SWAP1 SSTORE POP JUMP JUMPDEST PUSH1 0x1 DUP1 PUSH1 0x0 DUP3 DUP3 SLOAD PUSH2 0x104 SWAP2 SWAP1 PUSH2 0x1DA JUMP JUMPDEST SWAP3 POP POP DUP2 SWAP1 SSTORE POP JUMP JUMPDEST PUSH1 0x1 DUP1 PUSH1 0x0 DUP3 DUP3 SLOAD PUSH2 0x11F SWAP2 SWAP1 PUSH2 0x1A6 JUMP JUMPDEST SWAP3 POP POP DUP2 SWAP1 SSTORE POP JUMP JUMPDEST PUSH1 0x1 PUSH1 0x0 DUP1 DUP3 DUP3 SLOAD PUSH2 0x13A SWAP2 SWAP1 PUSH2 0x1DA JUMP JUMPDEST SWAP3 POP POP DUP2 SWAP1 SSTORE POP JUMP JUMPDEST PUSH1 0x0 DUP2 SWAP1 POP SWAP2 SWAP1 POP JUMP JUMPDEST PUSH2 0x156 DUP2 PUSH2 0x143 JUMP JUMPDEST DUP3 MSTORE POP POP JUMP JUMPDEST PUSH1 0x0 PUSH1 0x20 DUP3 ADD SWAP1 POP PUSH2 0x171 PUSH1 0x0 DUP4 ADD DUP5 PUSH2 0x14D JUMP JUMPDEST SWAP3 SWAP2 POP POP JUMP JUMPDEST PUSH32 0x4E487B7100000000000000000000000000000000000000000000000000000000 PUSH1 0x0 MSTORE PUSH1 0x11 PUSH1 0x4 MSTORE PUSH1 0x24 PUSH1 0x0 REVERT JUMPDEST PUSH1 0x0 PUSH2 0x1B1 DUP3 PUSH2 0x143 JUMP JUMPDEST SWAP2 POP PUSH2 0x1BC DUP4 PUSH2 0x143 JUMP JUMPDEST SWAP3 POP DUP3 DUP3 ADD SWAP1 POP DUP1 DUP3 GT ISZERO PUSH2 0x1D4 JUMPI PUSH2 0x1D3 PUSH2 0x177 JUMP JUMPDEST JUMPDEST SWAP3 SWAP2 POP POP JUMP JUMPDEST PUSH1 0x0 PUSH2 0x1E5 DUP3 PUSH2 0x143 JUMP JUMPDEST SWAP2 POP PUSH2 0x1F0 DUP4 PUSH2 0x143 JUMP JUMPDEST SWAP3 POP DUP3 DUP3 SUB SWAP1 POP DUP2 DUP2 GT ISZERO PUSH2 0x208 JUMPI PUSH2 0x207 PUSH2 0x177 JUMP JUMPDEST JUMPDEST SWAP3 SWAP2 POP POP JUMP INVALID LOG2 PUSH5 0x6970667358 0x22 SLT KECCAK256 MOD EXTCODEHASH SGT PUSH2 0xA207 CALL GASLIMIT CREATE 0xE0 0xC8 0xB2 CHAINID 0xD2 CALL LT 0xF6 0xE RETURNDATACOPY CALLDATASIZE MSTORE8 0xE 0x2C GT PUSH16 0xE3C5774F2FD55064736F6C6343000813 STOP CALLER "
				},
				"gasEstimates": {
					"creation": {
						"codeDepositCost": "116000",
						"executionCost": "22271",
						"totalCost": "138271"
					},
					"external": {
						"count()": "2407",
						"count2()": "2429",
						"dec()": "infinite",
						"dec2()": "infinite",
						"inc()": "infinite",
						"inc2()": "infinite"
					}
				},
				"methodIdentifiers": {
					"count()": "06661abd",
					"count2()": "1d63e24d",
					"dec()": "b3bcfa82",
					"dec2()": "552350aa",
					"inc()": "371303c0",
					"inc2()": "71c9f31c"
				}
			},
			"storageLayout": {
				"storage": [
					{
						"astId": 3,
						"contract": "appworks_blockchain_batch2/contracts/wk4/Interface.sol:Counter",
						"label": "count",
						"offset": 0,
						"slot": "0",
						"type": "t_uint256"
					},
					{
						"astId": 22,
						"contract": "appworks_blockchain_batch2/contracts/wk4/Interface.sol:Counter",
						"label": "count2",
						"offset": 0,
						"slot": "1",
						"type": "t_uint256"
					}
				],
				"types": {
					"t_uint256": {
						"encoding": "inplace",
						"label": "uint256",
						"numberOfBytes": "32"
					}
				}
			},
			"userdoc": {
				"kind": "user",
				"methods": {},
				"version": 1
			}
		}
	}
}