{
	"appworks_blockchain_batch2/contracts/wk4/Interface.sol": {
		"CallInterface": {
			"abi": [
				{
					"inputs": [],
					"name": "count",
					"outputs": [
						{
							"internalType": "uint256",
							"name": "",
							"type": "uint256"
						}
					],
					"stateMutability": "view",
					"type": "function"
				},
				{
					"inputs": [],
					"name": "count2",
					"outputs": [
						{
							"internalType": "uint256",
							"name": "",
							"type": "uint256"
						}
					],
					"stateMutability": "view",
					"type": "function"
				},
				{
					"inputs": [
						{
							"internalType": "address",
							"name": "_counter",
							"type": "address"
						}
					],
					"name": "examples",
					"outputs": [],
					"stateMutability": "nonpayable",
					"type": "function"
				},
				{
					"inputs": [
						{
							"internalType": "address",
							"name": "_counter",
							"type": "address"
						}
					],
					"name": "examples2",
					"outputs": [],
					"stateMutability": "nonpayable",
					"type": "function"
				}
			],
			"devdoc": {
				"kind": "dev",
				"methods": {},
				"version": 1
			},
			"evm": {
				"assembly": "    /* \"appworks_blockchain_batch2/contracts/wk4/Interface.sol\":803:1319  contract CallInterface {... */\n  mstore(0x40, 0x80)\n  callvalue\n  dup1\n  iszero\n  tag_1\n  jumpi\n  0x00\n  dup1\n  revert\ntag_1:\n  pop\n  dataSize(sub_0)\n  dup1\n  dataOffset(sub_0)\n  0x00\n  codecopy\n  0x00\n  return\nstop\n\nsub_0: assembly {\n        /* \"appworks_blockchain_batch2/contracts/wk4/Interface.sol\":803:1319  contract CallInterface {... */\n      mstore(0x40, 0x80)\n      callvalue\n      dup1\n      iszero\n      tag_1\n      jumpi\n      0x00\n      dup1\n      revert\n    tag_1:\n      pop\n      jumpi(tag_2, lt(calldatasize, 0x04))\n      shr(0xe0, calldataload(0x00))\n      dup1\n      0x06661abd\n      eq\n      tag_3\n      jumpi\n      dup1\n      0x1d63e24d\n      eq\n      tag_4\n      jumpi\n      dup1\n      0x98b121d4\n      eq\n      tag_5\n      jumpi\n      dup1\n      0xf215f9d6\n      eq\n      tag_6\n      jumpi\n    tag_2:\n      0x00\n      dup1\n      revert\n        /* \"appworks_blockchain_batch2/contracts/wk4/Interface.sol\":832:849  uint public count */\n    tag_3:\n      tag_7\n      tag_8\n      jump\t// in\n    tag_7:\n      mload(0x40)\n      tag_9\n      swap2\n      swap1\n      tag_10\n      jump\t// in\n    tag_9:\n      mload(0x40)\n      dup1\n      swap2\n      sub\n      swap1\n      return\n        /* \"appworks_blockchain_batch2/contracts/wk4/Interface.sol\":855:873  uint public count2 */\n    tag_4:\n      tag_11\n      tag_12\n      jump\t// in\n    tag_11:\n      mload(0x40)\n      tag_13\n      swap2\n      swap1\n      tag_10\n      jump\t// in\n    tag_13:\n      mload(0x40)\n      dup1\n      swap2\n      sub\n      swap1\n      return\n        /* \"appworks_blockchain_batch2/contracts/wk4/Interface.sol\":1099:1233  function examples2(address _counter) external {... */\n    tag_5:\n      tag_14\n      0x04\n      dup1\n      calldatasize\n      sub\n      dup2\n      add\n      swap1\n      tag_15\n      swap2\n      swap1\n      tag_16\n      jump\t// in\n    tag_15:\n      tag_17\n      jump\t// in\n    tag_14:\n      stop\n        /* \"appworks_blockchain_batch2/contracts/wk4/Interface.sol\":880:1010  function examples(address _counter) external {... */\n    tag_6:\n      tag_18\n      0x04\n      dup1\n      calldatasize\n      sub\n      dup2\n      add\n      swap1\n      tag_19\n      swap2\n      swap1\n      tag_16\n      jump\t// in\n    tag_19:\n      tag_20\n      jump\t// in\n    tag_18:\n      stop\n        /* \"appworks_blockchain_batch2/contracts/wk4/Interface.sol\":832:849  uint public count */\n    tag_8:\n      sload(0x00)\n      dup2\n      jump\t// out\n        /* \"appworks_blockchain_batch2/contracts/wk4/Interface.sol\":855:873  uint public count2 */\n    tag_12:\n      sload(0x01)\n      dup2\n      jump\t// out\n        /* \"appworks_blockchain_batch2/contracts/wk4/Interface.sol\":1099:1233  function examples2(address _counter) external {... */\n    tag_17:\n        /* \"appworks_blockchain_batch2/contracts/wk4/Interface.sol\":1164:1172  _counter */\n      dup1\n        /* \"appworks_blockchain_batch2/contracts/wk4/Interface.sol\":1155:1178  ICounter(_counter).inc2 */\n      0xffffffffffffffffffffffffffffffffffffffff\n      and\n      0x71c9f31c\n        /* \"appworks_blockchain_batch2/contracts/wk4/Interface.sol\":1155:1180  ICounter(_counter).inc2() */\n      mload(0x40)\n      dup2\n      0xffffffff\n      and\n      0xe0\n      shl\n      dup2\n      mstore\n      0x04\n      add\n      0x00\n      mload(0x40)\n      dup1\n      dup4\n      sub\n      dup2\n      0x00\n      dup8\n      dup1\n      extcodesize\n      iszero\n      dup1\n      iszero\n      tag_22\n      jumpi\n      0x00\n      dup1\n      revert\n    tag_22:\n      pop\n      gas\n      call\n      iszero\n      dup1\n      iszero\n      tag_24\n      jumpi\n      returndatasize\n      0x00\n      dup1\n      returndatacopy\n      revert(0x00, returndatasize)\n    tag_24:\n      pop\n      pop\n      pop\n      pop\n        /* \"appworks_blockchain_batch2/contracts/wk4/Interface.sol\":1208:1216  _counter */\n      dup1\n        /* \"appworks_blockchain_batch2/contracts/wk4/Interface.sol\":1199:1224  ICounter(_counter).count2 */\n      0xffffffffffffffffffffffffffffffffffffffff\n      and\n      0x1d63e24d\n        /* \"appworks_blockchain_batch2/contracts/wk4/Interface.sol\":1199:1226  ICounter(_counter).count2() */\n      mload(0x40)\n      dup2\n      0xffffffff\n      and\n      0xe0\n      shl\n      dup2\n      mstore\n      0x04\n      add\n      0x20\n      mload(0x40)\n      dup1\n      dup4\n      sub\n      dup2\n      dup7\n      gas\n      staticcall\n      iszero\n      dup1\n      iszero\n      tag_26\n      jumpi\n      returndatasize\n      0x00\n      dup1\n      returndatacopy\n      revert(0x00, returndatasize)\n    tag_26:\n      pop\n      pop\n      pop\n      pop\n      mload(0x40)\n      returndatasize\n      not(0x1f)\n      0x1f\n      dup3\n      add\n      and\n      dup3\n      add\n      dup1\n      0x40\n      mstore\n      pop\n      dup2\n      add\n      swap1\n      tag_27\n      swap2\n      swap1\n      tag_28\n      jump\t// in\n    tag_27:\n        /* \"appworks_blockchain_batch2/contracts/wk4/Interface.sol\":1190:1196  count2 */\n      0x01\n        /* \"appworks_blockchain_batch2/contracts/wk4/Interface.sol\":1190:1226  count2 = ICounter(_counter).count2() */\n      dup2\n      swap1\n      sstore\n      pop\n        /* \"appworks_blockchain_batch2/contracts/wk4/Interface.sol\":1099:1233  function examples2(address _counter) external {... */\n      pop\n      jump\t// out\n        /* \"appworks_blockchain_batch2/contracts/wk4/Interface.sol\":880:1010  function examples(address _counter) external {... */\n    tag_20:\n        /* \"appworks_blockchain_batch2/contracts/wk4/Interface.sol\":944:952  _counter */\n      dup1\n        /* \"appworks_blockchain_batch2/contracts/wk4/Interface.sol\":935:957  ICounter(_counter).inc */\n      0xffffffffffffffffffffffffffffffffffffffff\n      and\n      0x371303c0\n        /* \"appworks_blockchain_batch2/contracts/wk4/Interface.sol\":935:959  ICounter(_counter).inc() */\n      mload(0x40)\n      dup2\n      0xffffffff\n      and\n      0xe0\n      shl\n      dup2\n      mstore\n      0x04\n      add\n      0x00\n      mload(0x40)\n      dup1\n      dup4\n      sub\n      dup2\n      0x00\n      dup8\n      dup1\n      extcodesize\n      iszero\n      dup1\n      iszero\n      tag_30\n      jumpi\n      0x00\n      dup1\n      revert\n    tag_30:\n      pop\n      gas\n      call\n      iszero\n      dup1\n      iszero\n      tag_32\n      jumpi\n      returndatasize\n      0x00\n      dup1\n      returndatacopy\n      revert(0x00, returndatasize)\n    tag_32:\n      pop\n      pop\n      pop\n      pop\n        /* \"appworks_blockchain_batch2/contracts/wk4/Interface.sol\":986:994  _counter */\n      dup1\n        /* \"appworks_blockchain_batch2/contracts/wk4/Interface.sol\":977:1001  ICounter(_counter).count */\n      0xffffffffffffffffffffffffffffffffffffffff\n      and\n      0x06661abd\n        /* \"appworks_blockchain_batch2/contracts/wk4/Interface.sol\":977:1003  ICounter(_counter).count() */\n      mload(0x40)\n      dup2\n      0xffffffff\n      and\n      0xe0\n      shl\n      dup2\n      mstore\n      0x04\n      add\n      0x20\n      mload(0x40)\n      dup1\n      dup4\n      sub\n      dup2\n      dup7\n      gas\n      staticcall\n      iszero\n      dup1\n      iszero\n      tag_34\n      jumpi\n      returndatasize\n      0x00\n      dup1\n      returndatacopy\n      revert(0x00, returndatasize)\n    tag_34:\n      pop\n      pop\n      pop\n      pop\n      mload(0x40)\n      returndatasize\n      not(0x1f)\n      0x1f\n      dup3\n      add\n      and\n      dup3\n      add\n      dup1\n      0x40\n      mstore\n      pop\n      dup2\n      add\n      swap1\n      tag_35\n      swap2\n      swap1\n      tag_28\n      jump\t// in\n    tag_35:\n        /* \"appworks_blockchain_batch2/contracts/wk4/Interface.sol\":969:974  count */\n      0x00\n        /* \"appworks_blockchain_batch2/contracts/wk4/Interface.sol\":969:1003  count = ICounter(_counter).count() */\n      dup2\n      swap1\n      sstore\n      pop\n        /* \"appworks_blockchain_batch2/contracts/wk4/Interface.sol\":880:1010  function examples(address _counter) external {... */\n      pop\n      jump\t// out\n        /* \"#utility.yul\":7:84   */\n    tag_36:\n        /* \"#utility.yul\":44:51   */\n      0x00\n        /* \"#utility.yul\":73:78   */\n      dup2\n        /* \"#utility.yul\":62:78   */\n      swap1\n      pop\n        /* \"#utility.yul\":7:84   */\n      swap2\n      swap1\n      pop\n      jump\t// out\n        /* \"#utility.yul\":90:208   */\n    tag_37:\n        /* \"#utility.yul\":177:201   */\n      tag_50\n        /* \"#utility.yul\":195:200   */\n      dup2\n        /* \"#utility.yul\":177:201   */\n      tag_36\n      jump\t// in\n    tag_50:\n        /* \"#utility.yul\":172:175   */\n      dup3\n        /* \"#utility.yul\":165:202   */\n      mstore\n        /* \"#utility.yul\":90:208   */\n      pop\n      pop\n      jump\t// out\n        /* \"#utility.yul\":214:436   */\n    tag_10:\n        /* \"#utility.yul\":307:311   */\n      0x00\n        /* \"#utility.yul\":345:347   */\n      0x20\n        /* \"#utility.yul\":334:343   */\n      dup3\n        /* \"#utility.yul\":330:348   */\n      add\n        /* \"#utility.yul\":322:348   */\n      swap1\n      pop\n        /* \"#utility.yul\":358:429   */\n      tag_52\n        /* \"#utility.yul\":426:427   */\n      0x00\n        /* \"#utility.yul\":415:424   */\n      dup4\n        /* \"#utility.yul\":411:428   */\n      add\n        /* \"#utility.yul\":402:408   */\n      dup5\n        /* \"#utility.yul\":358:429   */\n      tag_37\n      jump\t// in\n    tag_52:\n        /* \"#utility.yul\":214:436   */\n      swap3\n      swap2\n      pop\n      pop\n      jump\t// out\n        /* \"#utility.yul\":523:640   */\n    tag_39:\n        /* \"#utility.yul\":632:633   */\n      0x00\n        /* \"#utility.yul\":629:630   */\n      dup1\n        /* \"#utility.yul\":622:634   */\n      revert\n        /* \"#utility.yul\":769:895   */\n    tag_41:\n        /* \"#utility.yul\":806:813   */\n      0x00\n        /* \"#utility.yul\":846:888   */\n      0xffffffffffffffffffffffffffffffffffffffff\n        /* \"#utility.yul\":839:844   */\n      dup3\n        /* \"#utility.yul\":835:889   */\n      and\n        /* \"#utility.yul\":824:889   */\n      swap1\n      pop\n        /* \"#utility.yul\":769:895   */\n      swap2\n      swap1\n      pop\n      jump\t// out\n        /* \"#utility.yul\":901:997   */\n    tag_42:\n        /* \"#utility.yul\":938:945   */\n      0x00\n        /* \"#utility.yul\":967:991   */\n      tag_58\n        /* \"#utility.yul\":985:990   */\n      dup3\n        /* \"#utility.yul\":967:991   */\n      tag_41\n      jump\t// in\n    tag_58:\n        /* \"#utility.yul\":956:991   */\n      swap1\n      pop\n        /* \"#utility.yul\":901:997   */\n      swap2\n      swap1\n      pop\n      jump\t// out\n        /* \"#utility.yul\":1003:1125   */\n    tag_43:\n        /* \"#utility.yul\":1076:1100   */\n      tag_60\n        /* \"#utility.yul\":1094:1099   */\n      dup2\n        /* \"#utility.yul\":1076:1100   */\n      tag_42\n      jump\t// in\n    tag_60:\n        /* \"#utility.yul\":1069:1074   */\n      dup2\n        /* \"#utility.yul\":1066:1101   */\n      eq\n        /* \"#utility.yul\":1056:1119   */\n      tag_61\n      jumpi\n        /* \"#utility.yul\":1115:1116   */\n      0x00\n        /* \"#utility.yul\":1112:1113   */\n      dup1\n        /* \"#utility.yul\":1105:1117   */\n      revert\n        /* \"#utility.yul\":1056:1119   */\n    tag_61:\n        /* \"#utility.yul\":1003:1125   */\n      pop\n      jump\t// out\n        /* \"#utility.yul\":1131:1270   */\n    tag_44:\n        /* \"#utility.yul\":1177:1182   */\n      0x00\n        /* \"#utility.yul\":1215:1221   */\n      dup2\n        /* \"#utility.yul\":1202:1222   */\n      calldataload\n        /* \"#utility.yul\":1193:1222   */\n      swap1\n      pop\n        /* \"#utility.yul\":1231:1264   */\n      tag_63\n        /* \"#utility.yul\":1258:1263   */\n      dup2\n        /* \"#utility.yul\":1231:1264   */\n      tag_43\n      jump\t// in\n    tag_63:\n        /* \"#utility.yul\":1131:1270   */\n      swap3\n      swap2\n      pop\n      pop\n      jump\t// out\n        /* \"#utility.yul\":1276:1605   */\n    tag_16:\n        /* \"#utility.yul\":1335:1341   */\n      0x00\n        /* \"#utility.yul\":1384:1386   */\n      0x20\n        /* \"#utility.yul\":1372:1381   */\n      dup3\n        /* \"#utility.yul\":1363:1370   */\n      dup5\n        /* \"#utility.yul\":1359:1382   */\n      sub\n        /* \"#utility.yul\":1355:1387   */\n      slt\n        /* \"#utility.yul\":1352:1471   */\n      iszero\n      tag_65\n      jumpi\n        /* \"#utility.yul\":1390:1469   */\n      tag_66\n      tag_39\n      jump\t// in\n    tag_66:\n        /* \"#utility.yul\":1352:1471   */\n    tag_65:\n        /* \"#utility.yul\":1510:1511   */\n      0x00\n        /* \"#utility.yul\":1535:1588   */\n      tag_67\n        /* \"#utility.yul\":1580:1587   */\n      dup5\n        /* \"#utility.yul\":1571:1577   */\n      dup3\n        /* \"#utility.yul\":1560:1569   */\n      dup6\n        /* \"#utility.yul\":1556:1578   */\n      add\n        /* \"#utility.yul\":1535:1588   */\n      tag_44\n      jump\t// in\n    tag_67:\n        /* \"#utility.yul\":1525:1588   */\n      swap2\n      pop\n        /* \"#utility.yul\":1481:1598   */\n      pop\n        /* \"#utility.yul\":1276:1605   */\n      swap3\n      swap2\n      pop\n      pop\n      jump\t// out\n        /* \"#utility.yul\":1611:1733   */\n    tag_45:\n        /* \"#utility.yul\":1684:1708   */\n      tag_69\n        /* \"#utility.yul\":1702:1707   */\n      dup2\n        /* \"#utility.yul\":1684:1708   */\n      tag_36\n      jump\t// in\n    tag_69:\n        /* \"#utility.yul\":1677:1682   */\n      dup2\n        /* \"#utility.yul\":1674:1709   */\n      eq\n        /* \"#utility.yul\":1664:1727   */\n      tag_70\n      jumpi\n        /* \"#utility.yul\":1723:1724   */\n      0x00\n        /* \"#utility.yul\":1720:1721   */\n      dup1\n        /* \"#utility.yul\":1713:1725   */\n      revert\n        /* \"#utility.yul\":1664:1727   */\n    tag_70:\n        /* \"#utility.yul\":1611:1733   */\n      pop\n      jump\t// out\n        /* \"#utility.yul\":1739:1882   */\n    tag_46:\n        /* \"#utility.yul\":1796:1801   */\n      0x00\n        /* \"#utility.yul\":1827:1833   */\n      dup2\n        /* \"#utility.yul\":1821:1834   */\n      mload\n        /* \"#utility.yul\":1812:1834   */\n      swap1\n      pop\n        /* \"#utility.yul\":1843:1876   */\n      tag_72\n        /* \"#utility.yul\":1870:1875   */\n      dup2\n        /* \"#utility.yul\":1843:1876   */\n      tag_45\n      jump\t// in\n    tag_72:\n        /* \"#utility.yul\":1739:1882   */\n      swap3\n      swap2\n      pop\n      pop\n      jump\t// out\n        /* \"#utility.yul\":1888:2239   */\n    tag_28:\n        /* \"#utility.yul\":1958:1964   */\n      0x00\n        /* \"#utility.yul\":2007:2009   */\n      0x20\n        /* \"#utility.yul\":1995:2004   */\n      dup3\n        /* \"#utility.yul\":1986:1993   */\n      dup5\n        /* \"#utility.yul\":1982:2005   */\n      sub\n        /* \"#utility.yul\":1978:2010   */\n      slt\n        /* \"#utility.yul\":1975:2094   */\n      iszero\n      tag_74\n      jumpi\n        /* \"#utility.yul\":2013:2092   */\n      tag_75\n      tag_39\n      jump\t// in\n    tag_75:\n        /* \"#utility.yul\":1975:2094   */\n    tag_74:\n        /* \"#utility.yul\":2133:2134   */\n      0x00\n        /* \"#utility.yul\":2158:2222   */\n      tag_76\n        /* \"#utility.yul\":2214:2221   */\n      dup5\n        /* \"#utility.yul\":2205:2211   */\n      dup3\n        /* \"#utility.yul\":2194:2203   */\n      dup6\n        /* \"#utility.yul\":2190:2212   */\n      add\n        /* \"#utility.yul\":2158:2222   */\n      tag_46\n      jump\t// in\n    tag_76:\n        /* \"#utility.yul\":2148:2222   */\n      swap2\n      pop\n        /* \"#utility.yul\":2104:2232   */\n      pop\n        /* \"#utility.yul\":1888:2239   */\n      swap3\n      swap2\n      pop\n      pop\n      jump\t// out\n\n    auxdata: 0xa2646970667358221220afa051e872670751c2bb48f84248e57e30a156e9d519525862d9e5436bfa2a6e64736f6c63430008130033\n}\n",
				"bytecode": {
					"linkReferences": {},
					"object": "608060405234801561001057600080fd5b506103d4806100206000396000f3fe608060405234801561001057600080fd5b506004361061004c5760003560e01c806306661abd146100515780631d63e24d1461006f57806398b121d41461008d578063f215f9d6146100a9575b600080fd5b6100596100c5565b604051610066919061029a565b60405180910390f35b6100776100cb565b604051610084919061029a565b60405180910390f35b6100a760048036038101906100a29190610318565b6100d1565b005b6100c360048036038101906100be9190610318565b6101a9565b005b60005481565b60015481565b8073ffffffffffffffffffffffffffffffffffffffff166371c9f31c6040518163ffffffff1660e01b8152600401600060405180830381600087803b15801561011957600080fd5b505af115801561012d573d6000803e3d6000fd5b505050508073ffffffffffffffffffffffffffffffffffffffff16631d63e24d6040518163ffffffff1660e01b8152600401602060405180830381865afa15801561017c573d6000803e3d6000fd5b505050506040513d601f19601f820116820180604052508101906101a09190610371565b60018190555050565b8073ffffffffffffffffffffffffffffffffffffffff1663371303c06040518163ffffffff1660e01b8152600401600060405180830381600087803b1580156101f157600080fd5b505af1158015610205573d6000803e3d6000fd5b505050508073ffffffffffffffffffffffffffffffffffffffff166306661abd6040518163ffffffff1660e01b8152600401602060405180830381865afa158015610254573d6000803e3d6000fd5b505050506040513d601f19601f820116820180604052508101906102789190610371565b60008190555050565b6000819050919050565b61029481610281565b82525050565b60006020820190506102af600083018461028b565b92915050565b600080fd5b600073ffffffffffffffffffffffffffffffffffffffff82169050919050565b60006102e5826102ba565b9050919050565b6102f5816102da565b811461030057600080fd5b50565b600081359050610312816102ec565b92915050565b60006020828403121561032e5761032d6102b5565b5b600061033c84828501610303565b91505092915050565b61034e81610281565b811461035957600080fd5b50565b60008151905061036b81610345565b92915050565b600060208284031215610387576103866102b5565b5b60006103958482850161035c565b9150509291505056fea2646970667358221220afa051e872670751c2bb48f84248e57e30a156e9d519525862d9e5436bfa2a6e64736f6c63430008130033",
					"opcodes": "PUSH1 0x80 PUSH1 0x40 MSTORE CALLVALUE DUP1 ISZERO PUSH2 0x10 JUMPI PUSH1 0x0 DUP1 REVERT JUMPDEST POP PUSH2 0x3D4 DUP1 PUSH2 0x20 PUSH1 0x0 CODECOPY PUSH1 0x0 RETURN INVALID PUSH1 0x80 PUSH1 0x40 MSTORE CALLVALUE DUP1 ISZERO PUSH2 0x10 JUMPI PUSH1 0x0 DUP1 REVERT JUMPDEST POP PUSH1 0x4 CALLDATASIZE LT PUSH2 0x4C JUMPI PUSH1 0x0 CALLDATALOAD PUSH1 0xE0 SHR DUP1 PUSH4 0x6661ABD EQ PUSH2 0x51 JUMPI DUP1 PUSH4 0x1D63E24D EQ PUSH2 0x6F JUMPI DUP1 PUSH4 0x98B121D4 EQ PUSH2 0x8D JUMPI DUP1 PUSH4 0xF215F9D6 EQ PUSH2 0xA9 JUMPI JUMPDEST PUSH1 0x0 DUP1 REVERT JUMPDEST PUSH2 0x59 PUSH2 0xC5 JUMP JUMPDEST PUSH1 0x40 MLOAD PUSH2 0x66 SWAP2 SWAP1 PUSH2 0x29A JUMP JUMPDEST PUSH1 0x40 MLOAD DUP1 SWAP2 SUB SWAP1 RETURN JUMPDEST PUSH2 0x77 PUSH2 0xCB JUMP JUMPDEST PUSH1 0x40 MLOAD PUSH2 0x84 SWAP2 SWAP1 PUSH2 0x29A JUMP JUMPDEST PUSH1 0x40 MLOAD DUP1 SWAP2 SUB SWAP1 RETURN JUMPDEST PUSH2 0xA7 PUSH1 0x4 DUP1 CALLDATASIZE SUB DUP2 ADD SWAP1 PUSH2 0xA2 SWAP2 SWAP1 PUSH2 0x318 JUMP JUMPDEST PUSH2 0xD1 JUMP JUMPDEST STOP JUMPDEST PUSH2 0xC3 PUSH1 0x4 DUP1 CALLDATASIZE SUB DUP2 ADD SWAP1 PUSH2 0xBE SWAP2 SWAP1 PUSH2 0x318 JUMP JUMPDEST PUSH2 0x1A9 JUMP JUMPDEST STOP JUMPDEST PUSH1 0x0 SLOAD DUP2 JUMP JUMPDEST PUSH1 0x1 SLOAD DUP2 JUMP JUMPDEST DUP1 PUSH20 0xFFFFFFFFFFFFFFFFFFFFFFFFFFFFFFFFFFFFFFFF AND PUSH4 0x71C9F31C PUSH1 0x40 MLOAD DUP2 PUSH4 0xFFFFFFFF AND PUSH1 0xE0 SHL DUP2 MSTORE PUSH1 0x4 ADD PUSH1 0x0 PUSH1 0x40 MLOAD DUP1 DUP4 SUB DUP2 PUSH1 0x0 DUP8 DUP1 EXTCODESIZE ISZERO DUP1 ISZERO PUSH2 0x119 JUMPI PUSH1 0x0 DUP1 REVERT JUMPDEST POP GAS CALL ISZERO DUP1 ISZERO PUSH2 0x12D JUMPI RETURNDATASIZE PUSH1 0x0 DUP1 RETURNDATACOPY RETURNDATASIZE PUSH1 0x0 REVERT JUMPDEST POP POP POP POP DUP1 PUSH20 0xFFFFFFFFFFFFFFFFFFFFFFFFFFFFFFFFFFFFFFFF AND PUSH4 0x1D63E24D PUSH1 0x40 MLOAD DUP2 PUSH4 0xFFFFFFFF AND PUSH1 0xE0 SHL DUP2 MSTORE PUSH1 0x4 ADD PUSH1 0x20 PUSH1 0x40 MLOAD DUP1 DUP4 SUB DUP2 DUP7 GAS STATICCALL ISZERO DUP1 ISZERO PUSH2 0x17C JUMPI RETURNDATASIZE PUSH1 0x0 DUP1 RETURNDATACOPY RETURNDATASIZE PUSH1 0x0 REVERT JUMPDEST POP POP POP POP PUSH1 0x40 MLOAD RETURNDATASIZE PUSH1 0x1F NOT PUSH1 0x1F DUP3 ADD AND DUP3 ADD DUP1 PUSH1 0x40 MSTORE POP DUP2 ADD SWAP1 PUSH2 0x1A0 SWAP2 SWAP1 PUSH2 0x371 JUMP JUMPDEST PUSH1 0x1 DUP2 SWAP1 SSTORE POP POP JUMP JUMPDEST DUP1 PUSH20 0xFFFFFFFFFFFFFFFFFFFFFFFFFFFFFFFFFFFFFFFF AND PUSH4 0x371303C0 PUSH1 0x40 MLOAD DUP2 PUSH4 0xFFFFFFFF AND PUSH1 0xE0 SHL DUP2 MSTORE PUSH1 0x4 ADD PUSH1 0x0 PUSH1 0x40 MLOAD DUP1 DUP4 SUB DUP2 PUSH1 0x0 DUP8 DUP1 EXTCODESIZE ISZERO DUP1 ISZERO PUSH2 0x1F1 JUMPI PUSH1 0x0 DUP1 REVERT JUMPDEST POP GAS CALL ISZERO DUP1 ISZERO PUSH2 0x205 JUMPI RETURNDATASIZE PUSH1 0x0 DUP1 RETURNDATACOPY RETURNDATASIZE PUSH1 0x0 REVERT JUMPDEST POP POP POP POP DUP1 PUSH20 0xFFFFFFFFFFFFFFFFFFFFFFFFFFFFFFFFFFFFFFFF AND PUSH4 0x6661ABD PUSH1 0x40 MLOAD DUP2 PUSH4 0xFFFFFFFF AND PUSH1 0xE0 SHL DUP2 MSTORE PUSH1 0x4 ADD PUSH1 0x20 PUSH1 0x40 MLOAD DUP1 DUP4 SUB DUP2 DUP7 GAS STATICCALL ISZERO DUP1 ISZERO PUSH2 0x254 JUMPI RETURNDATASIZE PUSH1 0x0 DUP1 RETURNDATACOPY RETURNDATASIZE PUSH1 0x0 REVERT JUMPDEST POP POP POP POP PUSH1 0x40 MLOAD RETURNDATASIZE PUSH1 0x1F NOT PUSH1 0x1F DUP3 ADD AND DUP3 ADD DUP1 PUSH1 0x40 MSTORE POP DUP2 ADD SWAP1 PUSH2 0x278 SWAP2 SWAP1 PUSH2 0x371 JUMP JUMPDEST PUSH1 0x0 DUP2 SWAP1 SSTORE POP POP JUMP JUMPDEST PUSH1 0x0 DUP2 SWAP1 POP SWAP2 SWAP1 POP JUMP JUMPDEST PUSH2 0x294 DUP2 PUSH2 0x281 JUMP JUMPDEST DUP3 MSTORE POP POP JUMP JUMPDEST PUSH1 0x0 PUSH1 0x20 DUP3 ADD SWAP1 POP PUSH2 0x2AF PUSH1 0x0 DUP4 ADD DUP5 PUSH2 0x28B JUMP JUMPDEST SWAP3 SWAP2 POP POP JUMP JUMPDEST PUSH1 0x0 DUP1 REVERT JUMPDEST PUSH1 0x0 PUSH20 0xFFFFFFFFFFFFFFFFFFFFFFFFFFFFFFFFFFFFFFFF DUP3 AND SWAP1 POP SWAP2 SWAP1 POP JUMP JUMPDEST PUSH1 0x0 PUSH2 0x2E5 DUP3 PUSH2 0x2BA JUMP JUMPDEST SWAP1 POP SWAP2 SWAP1 POP JUMP JUMPDEST PUSH2 0x2F5 DUP2 PUSH2 0x2DA JUMP JUMPDEST DUP2 EQ PUSH2 0x300 JUMPI PUSH1 0x0 DUP1 REVERT JUMPDEST POP JUMP JUMPDEST PUSH1 0x0 DUP2 CALLDATALOAD SWAP1 POP PUSH2 0x312 DUP2 PUSH2 0x2EC JUMP JUMPDEST SWAP3 SWAP2 POP POP JUMP JUMPDEST PUSH1 0x0 PUSH1 0x20 DUP3 DUP5 SUB SLT ISZERO PUSH2 0x32E JUMPI PUSH2 0x32D PUSH2 0x2B5 JUMP JUMPDEST JUMPDEST PUSH1 0x0 PUSH2 0x33C DUP5 DUP3 DUP6 ADD PUSH2 0x303 JUMP JUMPDEST SWAP2 POP POP SWAP3 SWAP2 POP POP JUMP JUMPDEST PUSH2 0x34E DUP2 PUSH2 0x281 JUMP JUMPDEST DUP2 EQ PUSH2 0x359 JUMPI PUSH1 0x0 DUP1 REVERT JUMPDEST POP JUMP JUMPDEST PUSH1 0x0 DUP2 MLOAD SWAP1 POP PUSH2 0x36B DUP2 PUSH2 0x345 JUMP JUMPDEST SWAP3 SWAP2 POP POP JUMP JUMPDEST PUSH1 0x0 PUSH1 0x20 DUP3 DUP5 SUB SLT ISZERO PUSH2 0x387 JUMPI PUSH2 0x386 PUSH2 0x2B5 JUMP JUMPDEST JUMPDEST PUSH1 0x0 PUSH2 0x395 DUP5 DUP3 DUP6 ADD PUSH2 0x35C JUMP JUMPDEST SWAP2 POP POP SWAP3 SWAP2 POP POP JUMP INVALID LOG2 PUSH5 0x6970667358 0x22 SLT KECCAK256 0xAF LOG0 MLOAD 0xE8 PUSH19 0x670751C2BB48F84248E57E30A156E9D5195258 PUSH3 0xD9E543 PUSH12 0xFA2A6E64736F6C6343000813 STOP CALLER "
				},
				"gasEstimates": {
					"creation": {
						"codeDepositCost": "196000",
						"executionCost": "238",
						"totalCost": "196238"
					},
					"external": {
						"count()": "2407",
						"count2()": "2429",
						"examples(address)": "infinite",
						"examples2(address)": "infinite"
					}
				},
				"methodIdentifiers": {
					"count()": "06661abd",
					"count2()": "1d63e24d",
					"examples(address)": "f215f9d6",
					"examples2(address)": "98b121d4"
				}
			},
			"storageLayout": {
				"storage": [
					{
						"astId": 64,
						"contract": "appworks_blockchain_batch2/contracts/wk4/Interface.sol:CallInterface",
						"label": "count",
						"offset": 0,
						"slot": "0",
						"type": "t_uint256"
					},
					{
						"astId": 66,
						"contract": "appworks_blockchain_batch2/contracts/wk4/Interface.sol:CallInterface",
						"label": "count2",
						"offset": 0,
						"slot": "1",
						"type": "t_uint256"
					}
				],
				"types": {
					"t_uint256": {
						"encoding": "inplace",
						"label": "uint256",
						"numberOfBytes": "32"
					}
				}
			},
			"userdoc": {
				"kind": "user",
				"methods": {},
				"version": 1
			}
		}
	}
}