{
	"appworks_blockchain_batch2/contracts/wk4/PokemonGame.sol": {
		"PokemonGame": {
			"abi": [
				{
					"inputs": [
						{
							"internalType": "uint256",
							"name": "_id",
							"type": "uint256"
						}
					],
					"name": "addAttack",
					"outputs": [],
					"stateMutability": "payable",
					"type": "function"
				},
				{
					"inputs": [
						{
							"internalType": "uint256",
							"name": "_id",
							"type": "uint256"
						}
					],
					"name": "addDefense",
					"outputs": [],
					"stateMutability": "payable",
					"type": "function"
				},
				{
					"inputs": [
						{
							"internalType": "string",
							"name": "_name",
							"type": "string"
						}
					],
					"name": "create",
					"outputs": [],
					"stateMutability": "nonpayable",
					"type": "function"
				},
				{
					"inputs": [],
					"name": "listMyPokemons",
					"outputs": [
						{
							"internalType": "uint256[]",
							"name": "",
							"type": "uint256[]"
						}
					],
					"stateMutability": "view",
					"type": "function"
				},
				{
					"inputs": [
						{
							"internalType": "address",
							"name": "",
							"type": "address"
						},
						{
							"internalType": "uint256",
							"name": "",
							"type": "uint256"
						}
					],
					"name": "ownerToPokemonIds",
					"outputs": [
						{
							"internalType": "uint256",
							"name": "",
							"type": "uint256"
						}
					],
					"stateMutability": "view",
					"type": "function"
				},
				{
					"inputs": [
						{
							"internalType": "uint256",
							"name": "",
							"type": "uint256"
						}
					],
					"name": "pokemonIdToIdx",
					"outputs": [
						{
							"internalType": "uint256",
							"name": "",
							"type": "uint256"
						}
					],
					"stateMutability": "view",
					"type": "function"
				},
				{
					"inputs": [
						{
							"internalType": "uint256",
							"name": "",
							"type": "uint256"
						}
					],
					"name": "pokemons",
					"outputs": [
						{
							"internalType": "uint256",
							"name": "id",
							"type": "uint256"
						},
						{
							"internalType": "string",
							"name": "name",
							"type": "string"
						},
						{
							"internalType": "uint256",
							"name": "attack",
							"type": "uint256"
						},
						{
							"internalType": "uint256",
							"name": "defense",
							"type": "uint256"
						}
					],
					"stateMutability": "view",
					"type": "function"
				}
			],
			"devdoc": {
				"kind": "dev",
				"methods": {},
				"version": 1
			},
			"evm": {
				"assembly": "    /* \"appworks_blockchain_batch2/contracts/wk4/PokemonGame.sol\":418:3116  contract PokemonGame {... */\n  mstore(0x40, 0x80)\n  callvalue\n  dup1\n  iszero\n  tag_1\n  jumpi\n  0x00\n  dup1\n  revert\ntag_1:\n  pop\n  dataSize(sub_0)\n  dup1\n  dataOffset(sub_0)\n  0x00\n  codecopy\n  0x00\n  return\nstop\n\nsub_0: assembly {\n        /* \"appworks_blockchain_batch2/contracts/wk4/PokemonGame.sol\":418:3116  contract PokemonGame {... */\n      mstore(0x40, 0x80)\n      jumpi(tag_1, lt(calldatasize, 0x04))\n      shr(0xe0, calldataload(0x00))\n      dup1\n      0xdaa6296b\n      gt\n      tag_9\n      jumpi\n      dup1\n      0xdaa6296b\n      eq\n      tag_5\n      jumpi\n      dup1\n      0xee423194\n      eq\n      tag_6\n      jumpi\n      dup1\n      0xf03a2aec\n      eq\n      tag_7\n      jumpi\n      dup1\n      0xf83cf120\n      eq\n      tag_8\n      jumpi\n      jump(tag_1)\n    tag_9:\n      dup1\n      0x85831079\n      eq\n      tag_2\n      jumpi\n      dup1\n      0x91a2fa95\n      eq\n      tag_3\n      jumpi\n      dup1\n      0xb6a46b3b\n      eq\n      tag_4\n      jumpi\n    tag_1:\n      0x00\n      dup1\n      revert\n        /* \"appworks_blockchain_batch2/contracts/wk4/PokemonGame.sol\":672:697  Pokemon[] public pokemons */\n    tag_2:\n      callvalue\n      dup1\n      iszero\n      tag_10\n      jumpi\n      0x00\n      dup1\n      revert\n    tag_10:\n      pop\n      tag_11\n      0x04\n      dup1\n      calldatasize\n      sub\n      dup2\n      add\n      swap1\n      tag_12\n      swap2\n      swap1\n      tag_13\n      jump\t// in\n    tag_12:\n      tag_14\n      jump\t// in\n    tag_11:\n      mload(0x40)\n      tag_15\n      swap5\n      swap4\n      swap3\n      swap2\n      swap1\n      tag_16\n      jump\t// in\n    tag_15:\n      mload(0x40)\n      dup1\n      swap2\n      sub\n      swap1\n      return\n        /* \"appworks_blockchain_batch2/contracts/wk4/PokemonGame.sol\":2851:3114  function addDefense(uint _id) external payable {... */\n    tag_3:\n      tag_17\n      0x04\n      dup1\n      calldatasize\n      sub\n      dup2\n      add\n      swap1\n      tag_18\n      swap2\n      swap1\n      tag_13\n      jump\t// in\n    tag_18:\n      tag_19\n      jump\t// in\n    tag_17:\n      stop\n        /* \"appworks_blockchain_batch2/contracts/wk4/PokemonGame.sol\":1664:2297  function create(string calldata _name) external {... */\n    tag_4:\n      callvalue\n      dup1\n      iszero\n      tag_20\n      jumpi\n      0x00\n      dup1\n      revert\n    tag_20:\n      pop\n      tag_21\n      0x04\n      dup1\n      calldatasize\n      sub\n      dup2\n      add\n      swap1\n      tag_22\n      swap2\n      swap1\n      tag_23\n      jump\t// in\n    tag_22:\n      tag_24\n      jump\t// in\n    tag_21:\n      stop\n        /* \"appworks_blockchain_batch2/contracts/wk4/PokemonGame.sol\":752:804  mapping (address => uint[]) public ownerToPokemonIds */\n    tag_5:\n      callvalue\n      dup1\n      iszero\n      tag_25\n      jumpi\n      0x00\n      dup1\n      revert\n    tag_25:\n      pop\n      tag_26\n      0x04\n      dup1\n      calldatasize\n      sub\n      dup2\n      add\n      swap1\n      tag_27\n      swap2\n      swap1\n      tag_28\n      jump\t// in\n    tag_27:\n      tag_29\n      jump\t// in\n    tag_26:\n      mload(0x40)\n      tag_30\n      swap2\n      swap1\n      tag_31\n      jump\t// in\n    tag_30:\n      mload(0x40)\n      dup1\n      swap2\n      sub\n      swap1\n      return\n        /* \"appworks_blockchain_batch2/contracts/wk4/PokemonGame.sol\":2524:2785  function addAttack(uint _id) external payable {... */\n    tag_6:\n      tag_32\n      0x04\n      dup1\n      calldatasize\n      sub\n      dup2\n      add\n      swap1\n      tag_33\n      swap2\n      swap1\n      tag_13\n      jump\t// in\n    tag_33:\n      tag_34\n      jump\t// in\n    tag_32:\n      stop\n        /* \"appworks_blockchain_batch2/contracts/wk4/PokemonGame.sol\":703:746  mapping(uint => uint) public pokemonIdToIdx */\n    tag_7:\n      callvalue\n      dup1\n      iszero\n      tag_35\n      jumpi\n      0x00\n      dup1\n      revert\n    tag_35:\n      pop\n      tag_36\n      0x04\n      dup1\n      calldatasize\n      sub\n      dup2\n      add\n      swap1\n      tag_37\n      swap2\n      swap1\n      tag_13\n      jump\t// in\n    tag_37:\n      tag_38\n      jump\t// in\n    tag_36:\n      mload(0x40)\n      tag_39\n      swap2\n      swap1\n      tag_31\n      jump\t// in\n    tag_39:\n      mload(0x40)\n      dup1\n      swap2\n      sub\n      swap1\n      return\n        /* \"appworks_blockchain_batch2/contracts/wk4/PokemonGame.sol\":2342:2459  function listMyPokemons() external view returns (uint[] memory) {... */\n    tag_8:\n      callvalue\n      dup1\n      iszero\n      tag_40\n      jumpi\n      0x00\n      dup1\n      revert\n    tag_40:\n      pop\n      tag_41\n      tag_42\n      jump\t// in\n    tag_41:\n      mload(0x40)\n      tag_43\n      swap2\n      swap1\n      tag_44\n      jump\t// in\n    tag_43:\n      mload(0x40)\n      dup1\n      swap2\n      sub\n      swap1\n      return\n        /* \"appworks_blockchain_batch2/contracts/wk4/PokemonGame.sol\":672:697  Pokemon[] public pokemons */\n    tag_14:\n      0x00\n      dup2\n      dup2\n      sload\n      dup2\n      lt\n      tag_45\n      jumpi\n      0x00\n      dup1\n      revert\n    tag_45:\n      swap1\n      0x00\n      mstore\n      keccak256(0x00, 0x20)\n      swap1\n      0x04\n      mul\n      add\n      0x00\n      swap2\n      pop\n      swap1\n      pop\n      dup1\n      0x00\n      add\n      sload\n      swap1\n      dup1\n      0x01\n      add\n      dup1\n      sload\n      tag_47\n      swap1\n      tag_48\n      jump\t// in\n    tag_47:\n      dup1\n      0x1f\n      add\n      0x20\n      dup1\n      swap2\n      div\n      mul\n      0x20\n      add\n      mload(0x40)\n      swap1\n      dup2\n      add\n      0x40\n      mstore\n      dup1\n      swap3\n      swap2\n      swap1\n      dup2\n      dup2\n      mstore\n      0x20\n      add\n      dup3\n      dup1\n      sload\n      tag_49\n      swap1\n      tag_48\n      jump\t// in\n    tag_49:\n      dup1\n      iszero\n      tag_50\n      jumpi\n      dup1\n      0x1f\n      lt\n      tag_51\n      jumpi\n      0x0100\n      dup1\n      dup4\n      sload\n      div\n      mul\n      dup4\n      mstore\n      swap2\n      0x20\n      add\n      swap2\n      jump(tag_50)\n    tag_51:\n      dup3\n      add\n      swap2\n      swap1\n      0x00\n      mstore\n      keccak256(0x00, 0x20)\n      swap1\n    tag_52:\n      dup2\n      sload\n      dup2\n      mstore\n      swap1\n      0x01\n      add\n      swap1\n      0x20\n      add\n      dup1\n      dup4\n      gt\n      tag_52\n      jumpi\n      dup3\n      swap1\n      sub\n      0x1f\n      and\n      dup3\n      add\n      swap2\n    tag_50:\n      pop\n      pop\n      pop\n      pop\n      pop\n      swap1\n      dup1\n      0x02\n      add\n      sload\n      swap1\n      dup1\n      0x03\n      add\n      sload\n      swap1\n      pop\n      dup5\n      jump\t// out\n        /* \"appworks_blockchain_batch2/contracts/wk4/PokemonGame.sol\":2851:3114  function addDefense(uint _id) external payable {... */\n    tag_19:\n        /* \"appworks_blockchain_batch2/contracts/wk4/PokemonGame.sol\":2930:2940  0.01 ether */\n      0x2386f26fc10000\n        /* \"appworks_blockchain_batch2/contracts/wk4/PokemonGame.sol\":2917:2926  msg.value */\n      callvalue\n        /* \"appworks_blockchain_batch2/contracts/wk4/PokemonGame.sol\":2917:2940  msg.value == 0.01 ether */\n      eq\n        /* \"appworks_blockchain_batch2/contracts/wk4/PokemonGame.sol\":2908:2973  require((msg.value == 0.01 ether), \"Amount should be 0.01 Ether\") */\n      tag_54\n      jumpi\n      mload(0x40)\n      0x08c379a000000000000000000000000000000000000000000000000000000000\n      dup2\n      mstore\n      0x04\n      add\n      tag_55\n      swap1\n      tag_56\n      jump\t// in\n    tag_55:\n      mload(0x40)\n      dup1\n      swap2\n      sub\n      swap1\n      revert\n    tag_54:\n        /* \"appworks_blockchain_batch2/contracts/wk4/PokemonGame.sol\":2992:3001  uint _idx */\n      0x00\n        /* \"appworks_blockchain_batch2/contracts/wk4/PokemonGame.sol\":3004:3018  pokemonIdToIdx */\n      0x01\n        /* \"appworks_blockchain_batch2/contracts/wk4/PokemonGame.sol\":3004:3023  pokemonIdToIdx[_id] */\n      0x00\n        /* \"appworks_blockchain_batch2/contracts/wk4/PokemonGame.sol\":3019:3022  _id */\n      dup4\n        /* \"appworks_blockchain_batch2/contracts/wk4/PokemonGame.sol\":3004:3023  pokemonIdToIdx[_id] */\n      dup2\n      mstore\n      0x20\n      add\n      swap1\n      dup2\n      mstore\n      0x20\n      add\n      0x00\n      keccak256\n      sload\n        /* \"appworks_blockchain_batch2/contracts/wk4/PokemonGame.sol\":2992:3023  uint _idx = pokemonIdToIdx[_id] */\n      swap1\n      pop\n        /* \"appworks_blockchain_batch2/contracts/wk4/PokemonGame.sol\":3033:3057  Pokemon storage _pokemon */\n      0x00\n        /* \"appworks_blockchain_batch2/contracts/wk4/PokemonGame.sol\":3060:3068  pokemons */\n      dup1\n        /* \"appworks_blockchain_batch2/contracts/wk4/PokemonGame.sol\":3069:3073  _idx */\n      dup3\n        /* \"appworks_blockchain_batch2/contracts/wk4/PokemonGame.sol\":3060:3074  pokemons[_idx] */\n      dup2\n      sload\n      dup2\n      lt\n      tag_57\n      jumpi\n      tag_58\n      tag_59\n      jump\t// in\n    tag_58:\n    tag_57:\n      swap1\n      0x00\n      mstore\n      keccak256(0x00, 0x20)\n      swap1\n      0x04\n      mul\n      add\n        /* \"appworks_blockchain_batch2/contracts/wk4/PokemonGame.sol\":3033:3074  Pokemon storage _pokemon = pokemons[_idx] */\n      swap1\n      pop\n        /* \"appworks_blockchain_batch2/contracts/wk4/PokemonGame.sol\":3104:3107  100 */\n      0x64\n        /* \"appworks_blockchain_batch2/contracts/wk4/PokemonGame.sol\":3084:3092  _pokemon */\n      dup2\n        /* \"appworks_blockchain_batch2/contracts/wk4/PokemonGame.sol\":3084:3100  _pokemon.defense */\n      0x03\n      add\n      0x00\n        /* \"appworks_blockchain_batch2/contracts/wk4/PokemonGame.sol\":3084:3107  _pokemon.defense += 100 */\n      dup3\n      dup3\n      sload\n      tag_61\n      swap2\n      swap1\n      tag_62\n      jump\t// in\n    tag_61:\n      swap3\n      pop\n      pop\n      dup2\n      swap1\n      sstore\n      pop\n        /* \"appworks_blockchain_batch2/contracts/wk4/PokemonGame.sol\":2898:3114  {... */\n      pop\n      pop\n        /* \"appworks_blockchain_batch2/contracts/wk4/PokemonGame.sol\":2851:3114  function addDefense(uint _id) external payable {... */\n      pop\n      jump\t// out\n        /* \"appworks_blockchain_batch2/contracts/wk4/PokemonGame.sol\":1664:2297  function create(string calldata _name) external {... */\n    tag_24:\n        /* \"appworks_blockchain_batch2/contracts/wk4/PokemonGame.sol\":1773:1785  uint _attack */\n      0x00\n        /* \"appworks_blockchain_batch2/contracts/wk4/PokemonGame.sol\":1855:1856  5 */\n      0x05\n        /* \"appworks_blockchain_batch2/contracts/wk4/PokemonGame.sol\":1848:1852  1000 */\n      0x03e8\n        /* \"appworks_blockchain_batch2/contracts/wk4/PokemonGame.sol\":1820:1825  _name */\n      dup5\n      dup5\n        /* \"appworks_blockchain_batch2/contracts/wk4/PokemonGame.sol\":1827:1842  block.timestamp */\n      timestamp\n        /* \"appworks_blockchain_batch2/contracts/wk4/PokemonGame.sol\":1803:1843  abi.encodePacked(_name, block.timestamp) */\n      add(0x20, mload(0x40))\n      tag_64\n      swap4\n      swap3\n      swap2\n      swap1\n      tag_65\n      jump\t// in\n    tag_64:\n      mload(0x40)\n      0x20\n      dup2\n      dup4\n      sub\n      sub\n      dup2\n      mstore\n      swap1\n      0x40\n      mstore\n        /* \"appworks_blockchain_batch2/contracts/wk4/PokemonGame.sol\":1793:1844  keccak256(abi.encodePacked(_name, block.timestamp)) */\n      dup1\n      mload\n      swap1\n      0x20\n      add\n      keccak256\n        /* \"appworks_blockchain_batch2/contracts/wk4/PokemonGame.sol\":1788:1845  uint(keccak256(abi.encodePacked(_name, block.timestamp))) */\n      0x00\n      shr\n        /* \"appworks_blockchain_batch2/contracts/wk4/PokemonGame.sol\":1788:1852  uint(keccak256(abi.encodePacked(_name, block.timestamp))) % 1000 */\n      tag_66\n      swap2\n      swap1\n      tag_67\n      jump\t// in\n    tag_66:\n        /* \"appworks_blockchain_batch2/contracts/wk4/PokemonGame.sol\":1788:1856  uint(keccak256(abi.encodePacked(_name, block.timestamp))) % 1000 * 5 */\n      tag_68\n      swap2\n      swap1\n      tag_69\n      jump\t// in\n    tag_68:\n        /* \"appworks_blockchain_batch2/contracts/wk4/PokemonGame.sol\":1773:1856  uint _attack = uint(keccak256(abi.encodePacked(_name, block.timestamp))) % 1000 * 5 */\n      swap1\n      pop\n        /* \"appworks_blockchain_batch2/contracts/wk4/PokemonGame.sol\":1866:1879  uint _defense */\n      0x00\n        /* \"appworks_blockchain_batch2/contracts/wk4/PokemonGame.sol\":1948:1950  60 */\n      0x3c\n        /* \"appworks_blockchain_batch2/contracts/wk4/PokemonGame.sol\":1942:1945  100 */\n      0x64\n        /* \"appworks_blockchain_batch2/contracts/wk4/PokemonGame.sol\":1914:1919  _name */\n      dup6\n      dup6\n        /* \"appworks_blockchain_batch2/contracts/wk4/PokemonGame.sol\":1921:1936  block.timestamp */\n      timestamp\n        /* \"appworks_blockchain_batch2/contracts/wk4/PokemonGame.sol\":1897:1937  abi.encodePacked(_name, block.timestamp) */\n      add(0x20, mload(0x40))\n      tag_70\n      swap4\n      swap3\n      swap2\n      swap1\n      tag_65\n      jump\t// in\n    tag_70:\n      mload(0x40)\n      0x20\n      dup2\n      dup4\n      sub\n      sub\n      dup2\n      mstore\n      swap1\n      0x40\n      mstore\n        /* \"appworks_blockchain_batch2/contracts/wk4/PokemonGame.sol\":1887:1938  keccak256(abi.encodePacked(_name, block.timestamp)) */\n      dup1\n      mload\n      swap1\n      0x20\n      add\n      keccak256\n        /* \"appworks_blockchain_batch2/contracts/wk4/PokemonGame.sol\":1882:1939  uint(keccak256(abi.encodePacked(_name, block.timestamp))) */\n      0x00\n      shr\n        /* \"appworks_blockchain_batch2/contracts/wk4/PokemonGame.sol\":1882:1945  uint(keccak256(abi.encodePacked(_name, block.timestamp))) % 100 */\n      tag_71\n      swap2\n      swap1\n      tag_67\n      jump\t// in\n    tag_71:\n        /* \"appworks_blockchain_batch2/contracts/wk4/PokemonGame.sol\":1882:1950  uint(keccak256(abi.encodePacked(_name, block.timestamp))) % 100 * 60 */\n      tag_72\n      swap2\n      swap1\n      tag_69\n      jump\t// in\n    tag_72:\n        /* \"appworks_blockchain_batch2/contracts/wk4/PokemonGame.sol\":1866:1950  uint _defense = uint(keccak256(abi.encodePacked(_name, block.timestamp))) % 100 * 60 */\n      swap1\n      pop\n        /* \"appworks_blockchain_batch2/contracts/wk4/PokemonGame.sol\":1989:1997  uint _id */\n      0x00\n        /* \"appworks_blockchain_batch2/contracts/wk4/PokemonGame.sol\":2018:2019  1 */\n      0x01\n        /* \"appworks_blockchain_batch2/contracts/wk4/PokemonGame.sol\":2000:2008  pokemons */\n      0x00\n        /* \"appworks_blockchain_batch2/contracts/wk4/PokemonGame.sol\":2000:2015  pokemons.length */\n      dup1\n      sload\n      swap1\n      pop\n        /* \"appworks_blockchain_batch2/contracts/wk4/PokemonGame.sol\":2000:2019  pokemons.length + 1 */\n      tag_73\n      swap2\n      swap1\n      tag_62\n      jump\t// in\n    tag_73:\n        /* \"appworks_blockchain_batch2/contracts/wk4/PokemonGame.sol\":1989:2019  uint _id = pokemons.length + 1 */\n      swap1\n      pop\n        /* \"appworks_blockchain_batch2/contracts/wk4/PokemonGame.sol\":2029:2052  Pokemon memory _pokemon */\n      0x00\n        /* \"appworks_blockchain_batch2/contracts/wk4/PokemonGame.sol\":2055:2093  Pokemon(_id, _name, _attack, _defense) */\n      mload(0x40)\n      dup1\n      0x80\n      add\n      0x40\n      mstore\n      dup1\n        /* \"appworks_blockchain_batch2/contracts/wk4/PokemonGame.sol\":2063:2066  _id */\n      dup4\n        /* \"appworks_blockchain_batch2/contracts/wk4/PokemonGame.sol\":2055:2093  Pokemon(_id, _name, _attack, _defense) */\n      dup2\n      mstore\n      0x20\n      add\n        /* \"appworks_blockchain_batch2/contracts/wk4/PokemonGame.sol\":2068:2073  _name */\n      dup8\n      dup8\n        /* \"appworks_blockchain_batch2/contracts/wk4/PokemonGame.sol\":2055:2093  Pokemon(_id, _name, _attack, _defense) */\n      dup1\n      dup1\n      0x1f\n      add\n      0x20\n      dup1\n      swap2\n      div\n      mul\n      0x20\n      add\n      mload(0x40)\n      swap1\n      dup2\n      add\n      0x40\n      mstore\n      dup1\n      swap4\n      swap3\n      swap2\n      swap1\n      dup2\n      dup2\n      mstore\n      0x20\n      add\n      dup4\n      dup4\n      dup1\n      dup3\n      dup5\n      calldatacopy\n      0x00\n      dup2\n      dup5\n      add\n      mstore\n      not(0x1f)\n      0x1f\n      dup3\n      add\n      and\n      swap1\n      pop\n      dup1\n      dup4\n      add\n      swap3\n      pop\n      pop\n      pop\n      pop\n      pop\n      pop\n      pop\n      dup2\n      mstore\n      0x20\n      add\n        /* \"appworks_blockchain_batch2/contracts/wk4/PokemonGame.sol\":2075:2082  _attack */\n      dup6\n        /* \"appworks_blockchain_batch2/contracts/wk4/PokemonGame.sol\":2055:2093  Pokemon(_id, _name, _attack, _defense) */\n      dup2\n      mstore\n      0x20\n      add\n        /* \"appworks_blockchain_batch2/contracts/wk4/PokemonGame.sol\":2084:2092  _defense */\n      dup5\n        /* \"appworks_blockchain_batch2/contracts/wk4/PokemonGame.sol\":2055:2093  Pokemon(_id, _name, _attack, _defense) */\n      dup2\n      mstore\n      pop\n        /* \"appworks_blockchain_batch2/contracts/wk4/PokemonGame.sol\":2029:2093  Pokemon memory _pokemon = Pokemon(_id, _name, _attack, _defense) */\n      swap1\n      pop\n        /* \"appworks_blockchain_batch2/contracts/wk4/PokemonGame.sol\":2125:2133  pokemons */\n      0x00\n        /* \"appworks_blockchain_batch2/contracts/wk4/PokemonGame.sol\":2125:2140  pokemons.length */\n      dup1\n      sload\n      swap1\n      pop\n        /* \"appworks_blockchain_batch2/contracts/wk4/PokemonGame.sol\":2103:2117  pokemonIdToIdx */\n      0x01\n        /* \"appworks_blockchain_batch2/contracts/wk4/PokemonGame.sol\":2103:2122  pokemonIdToIdx[_id] */\n      0x00\n        /* \"appworks_blockchain_batch2/contracts/wk4/PokemonGame.sol\":2118:2121  _id */\n      dup5\n        /* \"appworks_blockchain_batch2/contracts/wk4/PokemonGame.sol\":2103:2122  pokemonIdToIdx[_id] */\n      dup2\n      mstore\n      0x20\n      add\n      swap1\n      dup2\n      mstore\n      0x20\n      add\n      0x00\n      keccak256\n        /* \"appworks_blockchain_batch2/contracts/wk4/PokemonGame.sol\":2103:2140  pokemonIdToIdx[_id] = pokemons.length */\n      dup2\n      swap1\n      sstore\n      pop\n        /* \"appworks_blockchain_batch2/contracts/wk4/PokemonGame.sol\":2218:2226  pokemons */\n      0x00\n        /* \"appworks_blockchain_batch2/contracts/wk4/PokemonGame.sol\":2232:2240  _pokemon */\n      dup2\n        /* \"appworks_blockchain_batch2/contracts/wk4/PokemonGame.sol\":2218:2241  pokemons.push(_pokemon) */\n      swap1\n      dup1\n      0x01\n      dup2\n      sload\n      add\n      dup1\n      dup3\n      sstore\n      dup1\n      swap2\n      pop\n      pop\n      0x01\n      swap1\n      sub\n      swap1\n      0x00\n      mstore\n      keccak256(0x00, 0x20)\n      swap1\n      0x04\n      mul\n      add\n      0x00\n      swap1\n      swap2\n      swap1\n      swap2\n      swap1\n      swap2\n      pop\n      0x00\n      dup3\n      add\n      mload\n      dup2\n      0x00\n      add\n      sstore\n      0x20\n      dup3\n      add\n      mload\n      dup2\n      0x01\n      add\n      swap1\n      dup2\n      tag_75\n      swap2\n      swap1\n      tag_76\n      jump\t// in\n    tag_75:\n      pop\n      0x40\n      dup3\n      add\n      mload\n      dup2\n      0x02\n      add\n      sstore\n      0x60\n      dup3\n      add\n      mload\n      dup2\n      0x03\n      add\n      sstore\n      pop\n      pop\n        /* \"appworks_blockchain_batch2/contracts/wk4/PokemonGame.sol\":2251:2268  ownerToPokemonIds */\n      0x02\n        /* \"appworks_blockchain_batch2/contracts/wk4/PokemonGame.sol\":2251:2280  ownerToPokemonIds[msg.sender] */\n      0x00\n        /* \"appworks_blockchain_batch2/contracts/wk4/PokemonGame.sol\":2269:2279  msg.sender */\n      caller\n        /* \"appworks_blockchain_batch2/contracts/wk4/PokemonGame.sol\":2251:2280  ownerToPokemonIds[msg.sender] */\n      0xffffffffffffffffffffffffffffffffffffffff\n      and\n      0xffffffffffffffffffffffffffffffffffffffff\n      and\n      dup2\n      mstore\n      0x20\n      add\n      swap1\n      dup2\n      mstore\n      0x20\n      add\n      0x00\n      keccak256\n        /* \"appworks_blockchain_batch2/contracts/wk4/PokemonGame.sol\":2286:2289  _id */\n      dup3\n        /* \"appworks_blockchain_batch2/contracts/wk4/PokemonGame.sol\":2251:2290  ownerToPokemonIds[msg.sender].push(_id) */\n      swap1\n      dup1\n      0x01\n      dup2\n      sload\n      add\n      dup1\n      dup3\n      sstore\n      dup1\n      swap2\n      pop\n      pop\n      0x01\n      swap1\n      sub\n      swap1\n      0x00\n      mstore\n      keccak256(0x00, 0x20)\n      add\n      0x00\n      swap1\n      swap2\n      swap1\n      swap2\n      swap1\n      swap2\n      pop\n      sstore\n        /* \"appworks_blockchain_batch2/contracts/wk4/PokemonGame.sol\":1712:2297  {... */\n      pop\n      pop\n      pop\n      pop\n        /* \"appworks_blockchain_batch2/contracts/wk4/PokemonGame.sol\":1664:2297  function create(string calldata _name) external {... */\n      pop\n      pop\n      jump\t// out\n        /* \"appworks_blockchain_batch2/contracts/wk4/PokemonGame.sol\":752:804  mapping (address => uint[]) public ownerToPokemonIds */\n    tag_29:\n      mstore(0x20, 0x02)\n      dup2\n      0x00\n      mstore\n      keccak256(0x00, 0x40)\n      dup2\n      dup2\n      sload\n      dup2\n      lt\n      tag_78\n      jumpi\n      0x00\n      dup1\n      revert\n    tag_78:\n      swap1\n      0x00\n      mstore\n      keccak256(0x00, 0x20)\n      add\n      0x00\n      swap2\n      pop\n      swap2\n      pop\n      pop\n      sload\n      dup2\n      jump\t// out\n        /* \"appworks_blockchain_batch2/contracts/wk4/PokemonGame.sol\":2524:2785  function addAttack(uint _id) external payable {... */\n    tag_34:\n        /* \"appworks_blockchain_batch2/contracts/wk4/PokemonGame.sol\":2602:2612  0.01 ether */\n      0x2386f26fc10000\n        /* \"appworks_blockchain_batch2/contracts/wk4/PokemonGame.sol\":2589:2598  msg.value */\n      callvalue\n        /* \"appworks_blockchain_batch2/contracts/wk4/PokemonGame.sol\":2589:2612  msg.value == 0.01 ether */\n      eq\n        /* \"appworks_blockchain_batch2/contracts/wk4/PokemonGame.sol\":2580:2645  require((msg.value == 0.01 ether), \"Amount should be 0.01 Ether\") */\n      tag_81\n      jumpi\n      mload(0x40)\n      0x08c379a000000000000000000000000000000000000000000000000000000000\n      dup2\n      mstore\n      0x04\n      add\n      tag_82\n      swap1\n      tag_56\n      jump\t// in\n    tag_82:\n      mload(0x40)\n      dup1\n      swap2\n      sub\n      swap1\n      revert\n    tag_81:\n        /* \"appworks_blockchain_batch2/contracts/wk4/PokemonGame.sol\":2664:2673  uint _idx */\n      0x00\n        /* \"appworks_blockchain_batch2/contracts/wk4/PokemonGame.sol\":2676:2690  pokemonIdToIdx */\n      0x01\n        /* \"appworks_blockchain_batch2/contracts/wk4/PokemonGame.sol\":2676:2695  pokemonIdToIdx[_id] */\n      0x00\n        /* \"appworks_blockchain_batch2/contracts/wk4/PokemonGame.sol\":2691:2694  _id */\n      dup4\n        /* \"appworks_blockchain_batch2/contracts/wk4/PokemonGame.sol\":2676:2695  pokemonIdToIdx[_id] */\n      dup2\n      mstore\n      0x20\n      add\n      swap1\n      dup2\n      mstore\n      0x20\n      add\n      0x00\n      keccak256\n      sload\n        /* \"appworks_blockchain_batch2/contracts/wk4/PokemonGame.sol\":2664:2695  uint _idx = pokemonIdToIdx[_id] */\n      swap1\n      pop\n        /* \"appworks_blockchain_batch2/contracts/wk4/PokemonGame.sol\":2705:2729  Pokemon storage _pokemon */\n      0x00\n        /* \"appworks_blockchain_batch2/contracts/wk4/PokemonGame.sol\":2732:2740  pokemons */\n      dup1\n        /* \"appworks_blockchain_batch2/contracts/wk4/PokemonGame.sol\":2741:2745  _idx */\n      dup3\n        /* \"appworks_blockchain_batch2/contracts/wk4/PokemonGame.sol\":2732:2746  pokemons[_idx] */\n      dup2\n      sload\n      dup2\n      lt\n      tag_83\n      jumpi\n      tag_84\n      tag_59\n      jump\t// in\n    tag_84:\n    tag_83:\n      swap1\n      0x00\n      mstore\n      keccak256(0x00, 0x20)\n      swap1\n      0x04\n      mul\n      add\n        /* \"appworks_blockchain_batch2/contracts/wk4/PokemonGame.sol\":2705:2746  Pokemon storage _pokemon = pokemons[_idx] */\n      swap1\n      pop\n        /* \"appworks_blockchain_batch2/contracts/wk4/PokemonGame.sol\":2775:2778  100 */\n      0x64\n        /* \"appworks_blockchain_batch2/contracts/wk4/PokemonGame.sol\":2756:2764  _pokemon */\n      dup2\n        /* \"appworks_blockchain_batch2/contracts/wk4/PokemonGame.sol\":2756:2771  _pokemon.attack */\n      0x02\n      add\n      0x00\n        /* \"appworks_blockchain_batch2/contracts/wk4/PokemonGame.sol\":2756:2778  _pokemon.attack += 100 */\n      dup3\n      dup3\n      sload\n      tag_86\n      swap2\n      swap1\n      tag_62\n      jump\t// in\n    tag_86:\n      swap3\n      pop\n      pop\n      dup2\n      swap1\n      sstore\n      pop\n        /* \"appworks_blockchain_batch2/contracts/wk4/PokemonGame.sol\":2570:2785  {... */\n      pop\n      pop\n        /* \"appworks_blockchain_batch2/contracts/wk4/PokemonGame.sol\":2524:2785  function addAttack(uint _id) external payable {... */\n      pop\n      jump\t// out\n        /* \"appworks_blockchain_batch2/contracts/wk4/PokemonGame.sol\":703:746  mapping(uint => uint) public pokemonIdToIdx */\n    tag_38:\n      mstore(0x20, 0x01)\n      dup1\n      0x00\n      mstore\n      keccak256(0x00, 0x40)\n      0x00\n      swap2\n      pop\n      swap1\n      pop\n      sload\n      dup2\n      jump\t// out\n        /* \"appworks_blockchain_batch2/contracts/wk4/PokemonGame.sol\":2342:2459  function listMyPokemons() external view returns (uint[] memory) {... */\n    tag_42:\n        /* \"appworks_blockchain_batch2/contracts/wk4/PokemonGame.sol\":2391:2404  uint[] memory */\n      0x60\n        /* \"appworks_blockchain_batch2/contracts/wk4/PokemonGame.sol\":2423:2440  ownerToPokemonIds */\n      0x02\n        /* \"appworks_blockchain_batch2/contracts/wk4/PokemonGame.sol\":2423:2452  ownerToPokemonIds[msg.sender] */\n      0x00\n        /* \"appworks_blockchain_batch2/contracts/wk4/PokemonGame.sol\":2441:2451  msg.sender */\n      caller\n        /* \"appworks_blockchain_batch2/contracts/wk4/PokemonGame.sol\":2423:2452  ownerToPokemonIds[msg.sender] */\n      0xffffffffffffffffffffffffffffffffffffffff\n      and\n      0xffffffffffffffffffffffffffffffffffffffff\n      and\n      dup2\n      mstore\n      0x20\n      add\n      swap1\n      dup2\n      mstore\n      0x20\n      add\n      0x00\n      keccak256\n        /* \"appworks_blockchain_batch2/contracts/wk4/PokemonGame.sol\":2416:2452  return ownerToPokemonIds[msg.sender] */\n      dup1\n      sload\n      dup1\n      0x20\n      mul\n      0x20\n      add\n      mload(0x40)\n      swap1\n      dup2\n      add\n      0x40\n      mstore\n      dup1\n      swap3\n      swap2\n      swap1\n      dup2\n      dup2\n      mstore\n      0x20\n      add\n      dup3\n      dup1\n      sload\n      dup1\n      iszero\n      tag_88\n      jumpi\n      0x20\n      mul\n      dup3\n      add\n      swap2\n      swap1\n      0x00\n      mstore\n      keccak256(0x00, 0x20)\n      swap1\n    tag_89:\n      dup2\n      sload\n      dup2\n      mstore\n      0x20\n      add\n      swap1\n      0x01\n      add\n      swap1\n      dup1\n      dup4\n      gt\n      tag_89\n      jumpi\n    tag_88:\n      pop\n      pop\n      pop\n      pop\n      pop\n      swap1\n      pop\n        /* \"appworks_blockchain_batch2/contracts/wk4/PokemonGame.sol\":2342:2459  function listMyPokemons() external view returns (uint[] memory) {... */\n      swap1\n      jump\t// out\n        /* \"#utility.yul\":88:205   */\n    tag_91:\n        /* \"#utility.yul\":197:198   */\n      0x00\n        /* \"#utility.yul\":194:195   */\n      dup1\n        /* \"#utility.yul\":187:199   */\n      revert\n        /* \"#utility.yul\":211:328   */\n    tag_92:\n        /* \"#utility.yul\":320:321   */\n      0x00\n        /* \"#utility.yul\":317:318   */\n      dup1\n        /* \"#utility.yul\":310:322   */\n      revert\n        /* \"#utility.yul\":334:411   */\n    tag_93:\n        /* \"#utility.yul\":371:378   */\n      0x00\n        /* \"#utility.yul\":400:405   */\n      dup2\n        /* \"#utility.yul\":389:405   */\n      swap1\n      pop\n        /* \"#utility.yul\":334:411   */\n      swap2\n      swap1\n      pop\n      jump\t// out\n        /* \"#utility.yul\":417:539   */\n    tag_94:\n        /* \"#utility.yul\":490:514   */\n      tag_149\n        /* \"#utility.yul\":508:513   */\n      dup2\n        /* \"#utility.yul\":490:514   */\n      tag_93\n      jump\t// in\n    tag_149:\n        /* \"#utility.yul\":483:488   */\n      dup2\n        /* \"#utility.yul\":480:515   */\n      eq\n        /* \"#utility.yul\":470:533   */\n      tag_150\n      jumpi\n        /* \"#utility.yul\":529:530   */\n      0x00\n        /* \"#utility.yul\":526:527   */\n      dup1\n        /* \"#utility.yul\":519:531   */\n      revert\n        /* \"#utility.yul\":470:533   */\n    tag_150:\n        /* \"#utility.yul\":417:539   */\n      pop\n      jump\t// out\n        /* \"#utility.yul\":545:684   */\n    tag_95:\n        /* \"#utility.yul\":591:596   */\n      0x00\n        /* \"#utility.yul\":629:635   */\n      dup2\n        /* \"#utility.yul\":616:636   */\n      calldataload\n        /* \"#utility.yul\":607:636   */\n      swap1\n      pop\n        /* \"#utility.yul\":645:678   */\n      tag_152\n        /* \"#utility.yul\":672:677   */\n      dup2\n        /* \"#utility.yul\":645:678   */\n      tag_94\n      jump\t// in\n    tag_152:\n        /* \"#utility.yul\":545:684   */\n      swap3\n      swap2\n      pop\n      pop\n      jump\t// out\n        /* \"#utility.yul\":690:1019   */\n    tag_13:\n        /* \"#utility.yul\":749:755   */\n      0x00\n        /* \"#utility.yul\":798:800   */\n      0x20\n        /* \"#utility.yul\":786:795   */\n      dup3\n        /* \"#utility.yul\":777:784   */\n      dup5\n        /* \"#utility.yul\":773:796   */\n      sub\n        /* \"#utility.yul\":769:801   */\n      slt\n        /* \"#utility.yul\":766:885   */\n      iszero\n      tag_154\n      jumpi\n        /* \"#utility.yul\":804:883   */\n      tag_155\n      tag_91\n      jump\t// in\n    tag_155:\n        /* \"#utility.yul\":766:885   */\n    tag_154:\n        /* \"#utility.yul\":924:925   */\n      0x00\n        /* \"#utility.yul\":949:1002   */\n      tag_156\n        /* \"#utility.yul\":994:1001   */\n      dup5\n        /* \"#utility.yul\":985:991   */\n      dup3\n        /* \"#utility.yul\":974:983   */\n      dup6\n        /* \"#utility.yul\":970:992   */\n      add\n        /* \"#utility.yul\":949:1002   */\n      tag_95\n      jump\t// in\n    tag_156:\n        /* \"#utility.yul\":939:1002   */\n      swap2\n      pop\n        /* \"#utility.yul\":895:1012   */\n      pop\n        /* \"#utility.yul\":690:1019   */\n      swap3\n      swap2\n      pop\n      pop\n      jump\t// out\n        /* \"#utility.yul\":1025:1143   */\n    tag_96:\n        /* \"#utility.yul\":1112:1136   */\n      tag_158\n        /* \"#utility.yul\":1130:1135   */\n      dup2\n        /* \"#utility.yul\":1112:1136   */\n      tag_93\n      jump\t// in\n    tag_158:\n        /* \"#utility.yul\":1107:1110   */\n      dup3\n        /* \"#utility.yul\":1100:1137   */\n      mstore\n        /* \"#utility.yul\":1025:1143   */\n      pop\n      pop\n      jump\t// out\n        /* \"#utility.yul\":1149:1248   */\n    tag_97:\n        /* \"#utility.yul\":1201:1207   */\n      0x00\n        /* \"#utility.yul\":1235:1240   */\n      dup2\n        /* \"#utility.yul\":1229:1241   */\n      mload\n        /* \"#utility.yul\":1219:1241   */\n      swap1\n      pop\n        /* \"#utility.yul\":1149:1248   */\n      swap2\n      swap1\n      pop\n      jump\t// out\n        /* \"#utility.yul\":1254:1423   */\n    tag_98:\n        /* \"#utility.yul\":1338:1349   */\n      0x00\n        /* \"#utility.yul\":1372:1378   */\n      dup3\n        /* \"#utility.yul\":1367:1370   */\n      dup3\n        /* \"#utility.yul\":1360:1379   */\n      mstore\n        /* \"#utility.yul\":1412:1416   */\n      0x20\n        /* \"#utility.yul\":1407:1410   */\n      dup3\n        /* \"#utility.yul\":1403:1417   */\n      add\n        /* \"#utility.yul\":1388:1417   */\n      swap1\n      pop\n        /* \"#utility.yul\":1254:1423   */\n      swap3\n      swap2\n      pop\n      pop\n      jump\t// out\n        /* \"#utility.yul\":1429:1675   */\n    tag_99:\n        /* \"#utility.yul\":1510:1511   */\n      0x00\n        /* \"#utility.yul\":1520:1633   */\n    tag_162:\n        /* \"#utility.yul\":1534:1540   */\n      dup4\n        /* \"#utility.yul\":1531:1532   */\n      dup2\n        /* \"#utility.yul\":1528:1541   */\n      lt\n        /* \"#utility.yul\":1520:1633   */\n      iszero\n      tag_164\n      jumpi\n        /* \"#utility.yul\":1619:1620   */\n      dup1\n        /* \"#utility.yul\":1614:1617   */\n      dup3\n        /* \"#utility.yul\":1610:1621   */\n      add\n        /* \"#utility.yul\":1604:1622   */\n      mload\n        /* \"#utility.yul\":1600:1601   */\n      dup2\n        /* \"#utility.yul\":1595:1598   */\n      dup5\n        /* \"#utility.yul\":1591:1602   */\n      add\n        /* \"#utility.yul\":1584:1623   */\n      mstore\n        /* \"#utility.yul\":1556:1558   */\n      0x20\n        /* \"#utility.yul\":1553:1554   */\n      dup2\n        /* \"#utility.yul\":1549:1559   */\n      add\n        /* \"#utility.yul\":1544:1559   */\n      swap1\n      pop\n        /* \"#utility.yul\":1520:1633   */\n      jump(tag_162)\n    tag_164:\n        /* \"#utility.yul\":1667:1668   */\n      0x00\n        /* \"#utility.yul\":1658:1664   */\n      dup5\n        /* \"#utility.yul\":1653:1656   */\n      dup5\n        /* \"#utility.yul\":1649:1665   */\n      add\n        /* \"#utility.yul\":1642:1669   */\n      mstore\n        /* \"#utility.yul\":1491:1675   */\n      pop\n        /* \"#utility.yul\":1429:1675   */\n      pop\n      pop\n      pop\n      jump\t// out\n        /* \"#utility.yul\":1681:1783   */\n    tag_100:\n        /* \"#utility.yul\":1722:1728   */\n      0x00\n        /* \"#utility.yul\":1773:1775   */\n      0x1f\n        /* \"#utility.yul\":1769:1776   */\n      not\n        /* \"#utility.yul\":1764:1766   */\n      0x1f\n        /* \"#utility.yul\":1757:1762   */\n      dup4\n        /* \"#utility.yul\":1753:1767   */\n      add\n        /* \"#utility.yul\":1749:1777   */\n      and\n        /* \"#utility.yul\":1739:1777   */\n      swap1\n      pop\n        /* \"#utility.yul\":1681:1783   */\n      swap2\n      swap1\n      pop\n      jump\t// out\n        /* \"#utility.yul\":1789:2166   */\n    tag_101:\n        /* \"#utility.yul\":1877:1880   */\n      0x00\n        /* \"#utility.yul\":1905:1944   */\n      tag_167\n        /* \"#utility.yul\":1938:1943   */\n      dup3\n        /* \"#utility.yul\":1905:1944   */\n      tag_97\n      jump\t// in\n    tag_167:\n        /* \"#utility.yul\":1960:2031   */\n      tag_168\n        /* \"#utility.yul\":2024:2030   */\n      dup2\n        /* \"#utility.yul\":2019:2022   */\n      dup6\n        /* \"#utility.yul\":1960:2031   */\n      tag_98\n      jump\t// in\n    tag_168:\n        /* \"#utility.yul\":1953:2031   */\n      swap4\n      pop\n        /* \"#utility.yul\":2040:2105   */\n      tag_169\n        /* \"#utility.yul\":2098:2104   */\n      dup2\n        /* \"#utility.yul\":2093:2096   */\n      dup6\n        /* \"#utility.yul\":2086:2090   */\n      0x20\n        /* \"#utility.yul\":2079:2084   */\n      dup7\n        /* \"#utility.yul\":2075:2091   */\n      add\n        /* \"#utility.yul\":2040:2105   */\n      tag_99\n      jump\t// in\n    tag_169:\n        /* \"#utility.yul\":2130:2159   */\n      tag_170\n        /* \"#utility.yul\":2152:2158   */\n      dup2\n        /* \"#utility.yul\":2130:2159   */\n      tag_100\n      jump\t// in\n    tag_170:\n        /* \"#utility.yul\":2125:2128   */\n      dup5\n        /* \"#utility.yul\":2121:2160   */\n      add\n        /* \"#utility.yul\":2114:2160   */\n      swap2\n      pop\n        /* \"#utility.yul\":1881:2166   */\n      pop\n        /* \"#utility.yul\":1789:2166   */\n      swap3\n      swap2\n      pop\n      pop\n      jump\t// out\n        /* \"#utility.yul\":2172:2816   */\n    tag_16:\n        /* \"#utility.yul\":2369:2373   */\n      0x00\n        /* \"#utility.yul\":2407:2410   */\n      0x80\n        /* \"#utility.yul\":2396:2405   */\n      dup3\n        /* \"#utility.yul\":2392:2411   */\n      add\n        /* \"#utility.yul\":2384:2411   */\n      swap1\n      pop\n        /* \"#utility.yul\":2421:2492   */\n      tag_172\n        /* \"#utility.yul\":2489:2490   */\n      0x00\n        /* \"#utility.yul\":2478:2487   */\n      dup4\n        /* \"#utility.yul\":2474:2491   */\n      add\n        /* \"#utility.yul\":2465:2471   */\n      dup8\n        /* \"#utility.yul\":2421:2492   */\n      tag_96\n      jump\t// in\n    tag_172:\n        /* \"#utility.yul\":2539:2548   */\n      dup2\n        /* \"#utility.yul\":2533:2537   */\n      dup2\n        /* \"#utility.yul\":2529:2549   */\n      sub\n        /* \"#utility.yul\":2524:2526   */\n      0x20\n        /* \"#utility.yul\":2513:2522   */\n      dup4\n        /* \"#utility.yul\":2509:2527   */\n      add\n        /* \"#utility.yul\":2502:2550   */\n      mstore\n        /* \"#utility.yul\":2567:2645   */\n      tag_173\n        /* \"#utility.yul\":2640:2644   */\n      dup2\n        /* \"#utility.yul\":2631:2637   */\n      dup7\n        /* \"#utility.yul\":2567:2645   */\n      tag_101\n      jump\t// in\n    tag_173:\n        /* \"#utility.yul\":2559:2645   */\n      swap1\n      pop\n        /* \"#utility.yul\":2655:2727   */\n      tag_174\n        /* \"#utility.yul\":2723:2725   */\n      0x40\n        /* \"#utility.yul\":2712:2721   */\n      dup4\n        /* \"#utility.yul\":2708:2726   */\n      add\n        /* \"#utility.yul\":2699:2705   */\n      dup6\n        /* \"#utility.yul\":2655:2727   */\n      tag_96\n      jump\t// in\n    tag_174:\n        /* \"#utility.yul\":2737:2809   */\n      tag_175\n        /* \"#utility.yul\":2805:2807   */\n      0x60\n        /* \"#utility.yul\":2794:2803   */\n      dup4\n        /* \"#utility.yul\":2790:2808   */\n      add\n        /* \"#utility.yul\":2781:2787   */\n      dup5\n        /* \"#utility.yul\":2737:2809   */\n      tag_96\n      jump\t// in\n    tag_175:\n        /* \"#utility.yul\":2172:2816   */\n      swap6\n      swap5\n      pop\n      pop\n      pop\n      pop\n      pop\n      jump\t// out\n        /* \"#utility.yul\":2822:2939   */\n    tag_102:\n        /* \"#utility.yul\":2931:2932   */\n      0x00\n        /* \"#utility.yul\":2928:2929   */\n      dup1\n        /* \"#utility.yul\":2921:2933   */\n      revert\n        /* \"#utility.yul\":2945:3062   */\n    tag_103:\n        /* \"#utility.yul\":3054:3055   */\n      0x00\n        /* \"#utility.yul\":3051:3052   */\n      dup1\n        /* \"#utility.yul\":3044:3056   */\n      revert\n        /* \"#utility.yul\":3068:3185   */\n    tag_104:\n        /* \"#utility.yul\":3177:3178   */\n      0x00\n        /* \"#utility.yul\":3174:3175   */\n      dup1\n        /* \"#utility.yul\":3167:3179   */\n      revert\n        /* \"#utility.yul\":3205:3758   */\n    tag_105:\n        /* \"#utility.yul\":3263:3271   */\n      0x00\n        /* \"#utility.yul\":3273:3279   */\n      dup1\n        /* \"#utility.yul\":3323:3326   */\n      dup4\n        /* \"#utility.yul\":3316:3320   */\n      0x1f\n        /* \"#utility.yul\":3308:3314   */\n      dup5\n        /* \"#utility.yul\":3304:3321   */\n      add\n        /* \"#utility.yul\":3300:3327   */\n      slt\n        /* \"#utility.yul\":3290:3412   */\n      tag_180\n      jumpi\n        /* \"#utility.yul\":3331:3410   */\n      tag_181\n      tag_102\n      jump\t// in\n    tag_181:\n        /* \"#utility.yul\":3290:3412   */\n    tag_180:\n        /* \"#utility.yul\":3444:3450   */\n      dup3\n        /* \"#utility.yul\":3431:3451   */\n      calldataload\n        /* \"#utility.yul\":3421:3451   */\n      swap1\n      pop\n        /* \"#utility.yul\":3474:3492   */\n      0xffffffffffffffff\n        /* \"#utility.yul\":3466:3472   */\n      dup2\n        /* \"#utility.yul\":3463:3493   */\n      gt\n        /* \"#utility.yul\":3460:3577   */\n      iszero\n      tag_182\n      jumpi\n        /* \"#utility.yul\":3496:3575   */\n      tag_183\n      tag_103\n      jump\t// in\n    tag_183:\n        /* \"#utility.yul\":3460:3577   */\n    tag_182:\n        /* \"#utility.yul\":3610:3614   */\n      0x20\n        /* \"#utility.yul\":3602:3608   */\n      dup4\n        /* \"#utility.yul\":3598:3615   */\n      add\n        /* \"#utility.yul\":3586:3615   */\n      swap2\n      pop\n        /* \"#utility.yul\":3664:3667   */\n      dup4\n        /* \"#utility.yul\":3656:3660   */\n      0x01\n        /* \"#utility.yul\":3648:3654   */\n      dup3\n        /* \"#utility.yul\":3644:3661   */\n      mul\n        /* \"#utility.yul\":3634:3642   */\n      dup4\n        /* \"#utility.yul\":3630:3662   */\n      add\n        /* \"#utility.yul\":3627:3668   */\n      gt\n        /* \"#utility.yul\":3624:3752   */\n      iszero\n      tag_184\n      jumpi\n        /* \"#utility.yul\":3671:3750   */\n      tag_185\n      tag_104\n      jump\t// in\n    tag_185:\n        /* \"#utility.yul\":3624:3752   */\n    tag_184:\n        /* \"#utility.yul\":3205:3758   */\n      swap3\n      pop\n      swap3\n      swap1\n      pop\n      jump\t// out\n        /* \"#utility.yul\":3764:4293   */\n    tag_23:\n        /* \"#utility.yul\":3835:3841   */\n      0x00\n        /* \"#utility.yul\":3843:3849   */\n      dup1\n        /* \"#utility.yul\":3892:3894   */\n      0x20\n        /* \"#utility.yul\":3880:3889   */\n      dup4\n        /* \"#utility.yul\":3871:3878   */\n      dup6\n        /* \"#utility.yul\":3867:3890   */\n      sub\n        /* \"#utility.yul\":3863:3895   */\n      slt\n        /* \"#utility.yul\":3860:3979   */\n      iszero\n      tag_187\n      jumpi\n        /* \"#utility.yul\":3898:3977   */\n      tag_188\n      tag_91\n      jump\t// in\n    tag_188:\n        /* \"#utility.yul\":3860:3979   */\n    tag_187:\n        /* \"#utility.yul\":4046:4047   */\n      0x00\n        /* \"#utility.yul\":4035:4044   */\n      dup4\n        /* \"#utility.yul\":4031:4048   */\n      add\n        /* \"#utility.yul\":4018:4049   */\n      calldataload\n        /* \"#utility.yul\":4076:4094   */\n      0xffffffffffffffff\n        /* \"#utility.yul\":4068:4074   */\n      dup2\n        /* \"#utility.yul\":4065:4095   */\n      gt\n        /* \"#utility.yul\":4062:4179   */\n      iszero\n      tag_189\n      jumpi\n        /* \"#utility.yul\":4098:4177   */\n      tag_190\n      tag_92\n      jump\t// in\n    tag_190:\n        /* \"#utility.yul\":4062:4179   */\n    tag_189:\n        /* \"#utility.yul\":4211:4276   */\n      tag_191\n        /* \"#utility.yul\":4268:4275   */\n      dup6\n        /* \"#utility.yul\":4259:4265   */\n      dup3\n        /* \"#utility.yul\":4248:4257   */\n      dup7\n        /* \"#utility.yul\":4244:4266   */\n      add\n        /* \"#utility.yul\":4211:4276   */\n      tag_105\n      jump\t// in\n    tag_191:\n        /* \"#utility.yul\":4193:4276   */\n      swap3\n      pop\n      swap3\n      pop\n        /* \"#utility.yul\":3989:4286   */\n      pop\n        /* \"#utility.yul\":3764:4293   */\n      swap3\n      pop\n      swap3\n      swap1\n      pop\n      jump\t// out\n        /* \"#utility.yul\":4299:4425   */\n    tag_106:\n        /* \"#utility.yul\":4336:4343   */\n      0x00\n        /* \"#utility.yul\":4376:4418   */\n      0xffffffffffffffffffffffffffffffffffffffff\n        /* \"#utility.yul\":4369:4374   */\n      dup3\n        /* \"#utility.yul\":4365:4419   */\n      and\n        /* \"#utility.yul\":4354:4419   */\n      swap1\n      pop\n        /* \"#utility.yul\":4299:4425   */\n      swap2\n      swap1\n      pop\n      jump\t// out\n        /* \"#utility.yul\":4431:4527   */\n    tag_107:\n        /* \"#utility.yul\":4468:4475   */\n      0x00\n        /* \"#utility.yul\":4497:4521   */\n      tag_194\n        /* \"#utility.yul\":4515:4520   */\n      dup3\n        /* \"#utility.yul\":4497:4521   */\n      tag_106\n      jump\t// in\n    tag_194:\n        /* \"#utility.yul\":4486:4521   */\n      swap1\n      pop\n        /* \"#utility.yul\":4431:4527   */\n      swap2\n      swap1\n      pop\n      jump\t// out\n        /* \"#utility.yul\":4533:4655   */\n    tag_108:\n        /* \"#utility.yul\":4606:4630   */\n      tag_196\n        /* \"#utility.yul\":4624:4629   */\n      dup2\n        /* \"#utility.yul\":4606:4630   */\n      tag_107\n      jump\t// in\n    tag_196:\n        /* \"#utility.yul\":4599:4604   */\n      dup2\n        /* \"#utility.yul\":4596:4631   */\n      eq\n        /* \"#utility.yul\":4586:4649   */\n      tag_197\n      jumpi\n        /* \"#utility.yul\":4645:4646   */\n      0x00\n        /* \"#utility.yul\":4642:4643   */\n      dup1\n        /* \"#utility.yul\":4635:4647   */\n      revert\n        /* \"#utility.yul\":4586:4649   */\n    tag_197:\n        /* \"#utility.yul\":4533:4655   */\n      pop\n      jump\t// out\n        /* \"#utility.yul\":4661:4800   */\n    tag_109:\n        /* \"#utility.yul\":4707:4712   */\n      0x00\n        /* \"#utility.yul\":4745:4751   */\n      dup2\n        /* \"#utility.yul\":4732:4752   */\n      calldataload\n        /* \"#utility.yul\":4723:4752   */\n      swap1\n      pop\n        /* \"#utility.yul\":4761:4794   */\n      tag_199\n        /* \"#utility.yul\":4788:4793   */\n      dup2\n        /* \"#utility.yul\":4761:4794   */\n      tag_108\n      jump\t// in\n    tag_199:\n        /* \"#utility.yul\":4661:4800   */\n      swap3\n      swap2\n      pop\n      pop\n      jump\t// out\n        /* \"#utility.yul\":4806:5280   */\n    tag_28:\n        /* \"#utility.yul\":4874:4880   */\n      0x00\n        /* \"#utility.yul\":4882:4888   */\n      dup1\n        /* \"#utility.yul\":4931:4933   */\n      0x40\n        /* \"#utility.yul\":4919:4928   */\n      dup4\n        /* \"#utility.yul\":4910:4917   */\n      dup6\n        /* \"#utility.yul\":4906:4929   */\n      sub\n        /* \"#utility.yul\":4902:4934   */\n      slt\n        /* \"#utility.yul\":4899:5018   */\n      iszero\n      tag_201\n      jumpi\n        /* \"#utility.yul\":4937:5016   */\n      tag_202\n      tag_91\n      jump\t// in\n    tag_202:\n        /* \"#utility.yul\":4899:5018   */\n    tag_201:\n        /* \"#utility.yul\":5057:5058   */\n      0x00\n        /* \"#utility.yul\":5082:5135   */\n      tag_203\n        /* \"#utility.yul\":5127:5134   */\n      dup6\n        /* \"#utility.yul\":5118:5124   */\n      dup3\n        /* \"#utility.yul\":5107:5116   */\n      dup7\n        /* \"#utility.yul\":5103:5125   */\n      add\n        /* \"#utility.yul\":5082:5135   */\n      tag_109\n      jump\t// in\n    tag_203:\n        /* \"#utility.yul\":5072:5135   */\n      swap3\n      pop\n        /* \"#utility.yul\":5028:5145   */\n      pop\n        /* \"#utility.yul\":5184:5186   */\n      0x20\n        /* \"#utility.yul\":5210:5263   */\n      tag_204\n        /* \"#utility.yul\":5255:5262   */\n      dup6\n        /* \"#utility.yul\":5246:5252   */\n      dup3\n        /* \"#utility.yul\":5235:5244   */\n      dup7\n        /* \"#utility.yul\":5231:5253   */\n      add\n        /* \"#utility.yul\":5210:5263   */\n      tag_95\n      jump\t// in\n    tag_204:\n        /* \"#utility.yul\":5200:5263   */\n      swap2\n      pop\n        /* \"#utility.yul\":5155:5273   */\n      pop\n        /* \"#utility.yul\":4806:5280   */\n      swap3\n      pop\n      swap3\n      swap1\n      pop\n      jump\t// out\n        /* \"#utility.yul\":5286:5508   */\n    tag_31:\n        /* \"#utility.yul\":5379:5383   */\n      0x00\n        /* \"#utility.yul\":5417:5419   */\n      0x20\n        /* \"#utility.yul\":5406:5415   */\n      dup3\n        /* \"#utility.yul\":5402:5420   */\n      add\n        /* \"#utility.yul\":5394:5420   */\n      swap1\n      pop\n        /* \"#utility.yul\":5430:5501   */\n      tag_206\n        /* \"#utility.yul\":5498:5499   */\n      0x00\n        /* \"#utility.yul\":5487:5496   */\n      dup4\n        /* \"#utility.yul\":5483:5500   */\n      add\n        /* \"#utility.yul\":5474:5480   */\n      dup5\n        /* \"#utility.yul\":5430:5501   */\n      tag_96\n      jump\t// in\n    tag_206:\n        /* \"#utility.yul\":5286:5508   */\n      swap3\n      swap2\n      pop\n      pop\n      jump\t// out\n        /* \"#utility.yul\":5514:5628   */\n    tag_110:\n        /* \"#utility.yul\":5581:5587   */\n      0x00\n        /* \"#utility.yul\":5615:5620   */\n      dup2\n        /* \"#utility.yul\":5609:5621   */\n      mload\n        /* \"#utility.yul\":5599:5621   */\n      swap1\n      pop\n        /* \"#utility.yul\":5514:5628   */\n      swap2\n      swap1\n      pop\n      jump\t// out\n        /* \"#utility.yul\":5634:5818   */\n    tag_111:\n        /* \"#utility.yul\":5733:5744   */\n      0x00\n        /* \"#utility.yul\":5767:5773   */\n      dup3\n        /* \"#utility.yul\":5762:5765   */\n      dup3\n        /* \"#utility.yul\":5755:5774   */\n      mstore\n        /* \"#utility.yul\":5807:5811   */\n      0x20\n        /* \"#utility.yul\":5802:5805   */\n      dup3\n        /* \"#utility.yul\":5798:5812   */\n      add\n        /* \"#utility.yul\":5783:5812   */\n      swap1\n      pop\n        /* \"#utility.yul\":5634:5818   */\n      swap3\n      swap2\n      pop\n      pop\n      jump\t// out\n        /* \"#utility.yul\":5824:5956   */\n    tag_112:\n        /* \"#utility.yul\":5891:5895   */\n      0x00\n        /* \"#utility.yul\":5914:5917   */\n      dup2\n        /* \"#utility.yul\":5906:5917   */\n      swap1\n      pop\n        /* \"#utility.yul\":5944:5948   */\n      0x20\n        /* \"#utility.yul\":5939:5942   */\n      dup3\n        /* \"#utility.yul\":5935:5949   */\n      add\n        /* \"#utility.yul\":5927:5949   */\n      swap1\n      pop\n        /* \"#utility.yul\":5824:5956   */\n      swap2\n      swap1\n      pop\n      jump\t// out\n        /* \"#utility.yul\":5962:6070   */\n    tag_113:\n        /* \"#utility.yul\":6039:6063   */\n      tag_211\n        /* \"#utility.yul\":6057:6062   */\n      dup2\n        /* \"#utility.yul\":6039:6063   */\n      tag_93\n      jump\t// in\n    tag_211:\n        /* \"#utility.yul\":6034:6037   */\n      dup3\n        /* \"#utility.yul\":6027:6064   */\n      mstore\n        /* \"#utility.yul\":5962:6070   */\n      pop\n      pop\n      jump\t// out\n        /* \"#utility.yul\":6076:6255   */\n    tag_114:\n        /* \"#utility.yul\":6145:6155   */\n      0x00\n        /* \"#utility.yul\":6166:6212   */\n      tag_213\n        /* \"#utility.yul\":6208:6211   */\n      dup4\n        /* \"#utility.yul\":6200:6206   */\n      dup4\n        /* \"#utility.yul\":6166:6212   */\n      tag_113\n      jump\t// in\n    tag_213:\n        /* \"#utility.yul\":6244:6248   */\n      0x20\n        /* \"#utility.yul\":6239:6242   */\n      dup4\n        /* \"#utility.yul\":6235:6249   */\n      add\n        /* \"#utility.yul\":6221:6249   */\n      swap1\n      pop\n        /* \"#utility.yul\":6076:6255   */\n      swap3\n      swap2\n      pop\n      pop\n      jump\t// out\n        /* \"#utility.yul\":6261:6374   */\n    tag_115:\n        /* \"#utility.yul\":6331:6335   */\n      0x00\n        /* \"#utility.yul\":6363:6367   */\n      0x20\n        /* \"#utility.yul\":6358:6361   */\n      dup3\n        /* \"#utility.yul\":6354:6368   */\n      add\n        /* \"#utility.yul\":6346:6368   */\n      swap1\n      pop\n        /* \"#utility.yul\":6261:6374   */\n      swap2\n      swap1\n      pop\n      jump\t// out\n        /* \"#utility.yul\":6410:7142   */\n    tag_116:\n        /* \"#utility.yul\":6529:6532   */\n      0x00\n        /* \"#utility.yul\":6558:6612   */\n      tag_216\n        /* \"#utility.yul\":6606:6611   */\n      dup3\n        /* \"#utility.yul\":6558:6612   */\n      tag_110\n      jump\t// in\n    tag_216:\n        /* \"#utility.yul\":6628:6714   */\n      tag_217\n        /* \"#utility.yul\":6707:6713   */\n      dup2\n        /* \"#utility.yul\":6702:6705   */\n      dup6\n        /* \"#utility.yul\":6628:6714   */\n      tag_111\n      jump\t// in\n    tag_217:\n        /* \"#utility.yul\":6621:6714   */\n      swap4\n      pop\n        /* \"#utility.yul\":6738:6794   */\n      tag_218\n        /* \"#utility.yul\":6788:6793   */\n      dup4\n        /* \"#utility.yul\":6738:6794   */\n      tag_112\n      jump\t// in\n    tag_218:\n        /* \"#utility.yul\":6817:6824   */\n      dup1\n        /* \"#utility.yul\":6848:6849   */\n      0x00\n        /* \"#utility.yul\":6833:7117   */\n    tag_219:\n        /* \"#utility.yul\":6858:6864   */\n      dup4\n        /* \"#utility.yul\":6855:6856   */\n      dup2\n        /* \"#utility.yul\":6852:6865   */\n      lt\n        /* \"#utility.yul\":6833:7117   */\n      iszero\n      tag_221\n      jumpi\n        /* \"#utility.yul\":6934:6940   */\n      dup2\n        /* \"#utility.yul\":6928:6941   */\n      mload\n        /* \"#utility.yul\":6961:7024   */\n      tag_222\n        /* \"#utility.yul\":7020:7023   */\n      dup9\n        /* \"#utility.yul\":7005:7018   */\n      dup3\n        /* \"#utility.yul\":6961:7024   */\n      tag_114\n      jump\t// in\n    tag_222:\n        /* \"#utility.yul\":6954:7024   */\n      swap8\n      pop\n        /* \"#utility.yul\":7047:7107   */\n      tag_223\n        /* \"#utility.yul\":7100:7106   */\n      dup4\n        /* \"#utility.yul\":7047:7107   */\n      tag_115\n      jump\t// in\n    tag_223:\n        /* \"#utility.yul\":7037:7107   */\n      swap3\n      pop\n        /* \"#utility.yul\":6893:7117   */\n      pop\n        /* \"#utility.yul\":6880:6881   */\n      0x01\n        /* \"#utility.yul\":6877:6878   */\n      dup2\n        /* \"#utility.yul\":6873:6882   */\n      add\n        /* \"#utility.yul\":6868:6882   */\n      swap1\n      pop\n        /* \"#utility.yul\":6833:7117   */\n      jump(tag_219)\n    tag_221:\n        /* \"#utility.yul\":6837:6851   */\n      pop\n        /* \"#utility.yul\":7133:7136   */\n      dup6\n        /* \"#utility.yul\":7126:7136   */\n      swap4\n      pop\n        /* \"#utility.yul\":6534:7142   */\n      pop\n      pop\n      pop\n        /* \"#utility.yul\":6410:7142   */\n      swap3\n      swap2\n      pop\n      pop\n      jump\t// out\n        /* \"#utility.yul\":7148:7521   */\n    tag_44:\n        /* \"#utility.yul\":7291:7295   */\n      0x00\n        /* \"#utility.yul\":7329:7331   */\n      0x20\n        /* \"#utility.yul\":7318:7327   */\n      dup3\n        /* \"#utility.yul\":7314:7332   */\n      add\n        /* \"#utility.yul\":7306:7332   */\n      swap1\n      pop\n        /* \"#utility.yul\":7378:7387   */\n      dup2\n        /* \"#utility.yul\":7372:7376   */\n      dup2\n        /* \"#utility.yul\":7368:7388   */\n      sub\n        /* \"#utility.yul\":7364:7365   */\n      0x00\n        /* \"#utility.yul\":7353:7362   */\n      dup4\n        /* \"#utility.yul\":7349:7366   */\n      add\n        /* \"#utility.yul\":7342:7389   */\n      mstore\n        /* \"#utility.yul\":7406:7514   */\n      tag_225\n        /* \"#utility.yul\":7509:7513   */\n      dup2\n        /* \"#utility.yul\":7500:7506   */\n      dup5\n        /* \"#utility.yul\":7406:7514   */\n      tag_116\n      jump\t// in\n    tag_225:\n        /* \"#utility.yul\":7398:7514   */\n      swap1\n      pop\n        /* \"#utility.yul\":7148:7521   */\n      swap3\n      swap2\n      pop\n      pop\n      jump\t// out\n        /* \"#utility.yul\":7527:7707   */\n    tag_117:\n        /* \"#utility.yul\":7575:7652   */\n      0x4e487b7100000000000000000000000000000000000000000000000000000000\n        /* \"#utility.yul\":7572:7573   */\n      0x00\n        /* \"#utility.yul\":7565:7653   */\n      mstore\n        /* \"#utility.yul\":7672:7676   */\n      0x22\n        /* \"#utility.yul\":7669:7670   */\n      0x04\n        /* \"#utility.yul\":7662:7677   */\n      mstore\n        /* \"#utility.yul\":7696:7700   */\n      0x24\n        /* \"#utility.yul\":7693:7694   */\n      0x00\n        /* \"#utility.yul\":7686:7701   */\n      revert\n        /* \"#utility.yul\":7713:8033   */\n    tag_48:\n        /* \"#utility.yul\":7757:7763   */\n      0x00\n        /* \"#utility.yul\":7794:7795   */\n      0x02\n        /* \"#utility.yul\":7788:7792   */\n      dup3\n        /* \"#utility.yul\":7784:7796   */\n      div\n        /* \"#utility.yul\":7774:7796   */\n      swap1\n      pop\n        /* \"#utility.yul\":7841:7842   */\n      0x01\n        /* \"#utility.yul\":7835:7839   */\n      dup3\n        /* \"#utility.yul\":7831:7843   */\n      and\n        /* \"#utility.yul\":7862:7880   */\n      dup1\n        /* \"#utility.yul\":7852:7933   */\n      tag_228\n      jumpi\n        /* \"#utility.yul\":7918:7922   */\n      0x7f\n        /* \"#utility.yul\":7910:7916   */\n      dup3\n        /* \"#utility.yul\":7906:7923   */\n      and\n        /* \"#utility.yul\":7896:7923   */\n      swap2\n      pop\n        /* \"#utility.yul\":7852:7933   */\n    tag_228:\n        /* \"#utility.yul\":7980:7982   */\n      0x20\n        /* \"#utility.yul\":7972:7978   */\n      dup3\n        /* \"#utility.yul\":7969:7983   */\n      lt\n        /* \"#utility.yul\":7949:7967   */\n      dup2\n        /* \"#utility.yul\":7946:7984   */\n      sub\n        /* \"#utility.yul\":7943:8027   */\n      tag_229\n      jumpi\n        /* \"#utility.yul\":7999:8017   */\n      tag_230\n      tag_117\n      jump\t// in\n    tag_230:\n        /* \"#utility.yul\":7943:8027   */\n    tag_229:\n        /* \"#utility.yul\":7764:8033   */\n      pop\n        /* \"#utility.yul\":7713:8033   */\n      swap2\n      swap1\n      pop\n      jump\t// out\n        /* \"#utility.yul\":8039:8216   */\n    tag_118:\n        /* \"#utility.yul\":8179:8208   */\n      0x416d6f756e742073686f756c6420626520302e30312045746865720000000000\n        /* \"#utility.yul\":8175:8176   */\n      0x00\n        /* \"#utility.yul\":8167:8173   */\n      dup3\n        /* \"#utility.yul\":8163:8177   */\n      add\n        /* \"#utility.yul\":8156:8209   */\n      mstore\n        /* \"#utility.yul\":8039:8216   */\n      pop\n      jump\t// out\n        /* \"#utility.yul\":8222:8588   */\n    tag_119:\n        /* \"#utility.yul\":8364:8367   */\n      0x00\n        /* \"#utility.yul\":8385:8452   */\n      tag_233\n        /* \"#utility.yul\":8449:8451   */\n      0x1b\n        /* \"#utility.yul\":8444:8447   */\n      dup4\n        /* \"#utility.yul\":8385:8452   */\n      tag_98\n      jump\t// in\n    tag_233:\n        /* \"#utility.yul\":8378:8452   */\n      swap2\n      pop\n        /* \"#utility.yul\":8461:8554   */\n      tag_234\n        /* \"#utility.yul\":8550:8553   */\n      dup3\n        /* \"#utility.yul\":8461:8554   */\n      tag_118\n      jump\t// in\n    tag_234:\n        /* \"#utility.yul\":8579:8581   */\n      0x20\n        /* \"#utility.yul\":8574:8577   */\n      dup3\n        /* \"#utility.yul\":8570:8582   */\n      add\n        /* \"#utility.yul\":8563:8582   */\n      swap1\n      pop\n        /* \"#utility.yul\":8222:8588   */\n      swap2\n      swap1\n      pop\n      jump\t// out\n        /* \"#utility.yul\":8594:9013   */\n    tag_56:\n        /* \"#utility.yul\":8760:8764   */\n      0x00\n        /* \"#utility.yul\":8798:8800   */\n      0x20\n        /* \"#utility.yul\":8787:8796   */\n      dup3\n        /* \"#utility.yul\":8783:8801   */\n      add\n        /* \"#utility.yul\":8775:8801   */\n      swap1\n      pop\n        /* \"#utility.yul\":8847:8856   */\n      dup2\n        /* \"#utility.yul\":8841:8845   */\n      dup2\n        /* \"#utility.yul\":8837:8857   */\n      sub\n        /* \"#utility.yul\":8833:8834   */\n      0x00\n        /* \"#utility.yul\":8822:8831   */\n      dup4\n        /* \"#utility.yul\":8818:8835   */\n      add\n        /* \"#utility.yul\":8811:8858   */\n      mstore\n        /* \"#utility.yul\":8875:9006   */\n      tag_236\n        /* \"#utility.yul\":9001:9005   */\n      dup2\n        /* \"#utility.yul\":8875:9006   */\n      tag_119\n      jump\t// in\n    tag_236:\n        /* \"#utility.yul\":8867:9006   */\n      swap1\n      pop\n        /* \"#utility.yul\":8594:9013   */\n      swap2\n      swap1\n      pop\n      jump\t// out\n        /* \"#utility.yul\":9019:9199   */\n    tag_59:\n        /* \"#utility.yul\":9067:9144   */\n      0x4e487b7100000000000000000000000000000000000000000000000000000000\n        /* \"#utility.yul\":9064:9065   */\n      0x00\n        /* \"#utility.yul\":9057:9145   */\n      mstore\n        /* \"#utility.yul\":9164:9168   */\n      0x32\n        /* \"#utility.yul\":9161:9162   */\n      0x04\n        /* \"#utility.yul\":9154:9169   */\n      mstore\n        /* \"#utility.yul\":9188:9192   */\n      0x24\n        /* \"#utility.yul\":9185:9186   */\n      0x00\n        /* \"#utility.yul\":9178:9193   */\n      revert\n        /* \"#utility.yul\":9205:9385   */\n    tag_120:\n        /* \"#utility.yul\":9253:9330   */\n      0x4e487b7100000000000000000000000000000000000000000000000000000000\n        /* \"#utility.yul\":9250:9251   */\n      0x00\n        /* \"#utility.yul\":9243:9331   */\n      mstore\n        /* \"#utility.yul\":9350:9354   */\n      0x11\n        /* \"#utility.yul\":9347:9348   */\n      0x04\n        /* \"#utility.yul\":9340:9355   */\n      mstore\n        /* \"#utility.yul\":9374:9378   */\n      0x24\n        /* \"#utility.yul\":9371:9372   */\n      0x00\n        /* \"#utility.yul\":9364:9379   */\n      revert\n        /* \"#utility.yul\":9391:9582   */\n    tag_62:\n        /* \"#utility.yul\":9431:9434   */\n      0x00\n        /* \"#utility.yul\":9450:9470   */\n      tag_240\n        /* \"#utility.yul\":9468:9469   */\n      dup3\n        /* \"#utility.yul\":9450:9470   */\n      tag_93\n      jump\t// in\n    tag_240:\n        /* \"#utility.yul\":9445:9470   */\n      swap2\n      pop\n        /* \"#utility.yul\":9484:9504   */\n      tag_241\n        /* \"#utility.yul\":9502:9503   */\n      dup4\n        /* \"#utility.yul\":9484:9504   */\n      tag_93\n      jump\t// in\n    tag_241:\n        /* \"#utility.yul\":9479:9504   */\n      swap3\n      pop\n        /* \"#utility.yul\":9527:9528   */\n      dup3\n        /* \"#utility.yul\":9524:9525   */\n      dup3\n        /* \"#utility.yul\":9520:9529   */\n      add\n        /* \"#utility.yul\":9513:9529   */\n      swap1\n      pop\n        /* \"#utility.yul\":9548:9551   */\n      dup1\n        /* \"#utility.yul\":9545:9546   */\n      dup3\n        /* \"#utility.yul\":9542:9552   */\n      gt\n        /* \"#utility.yul\":9539:9575   */\n      iszero\n      tag_242\n      jumpi\n        /* \"#utility.yul\":9555:9573   */\n      tag_243\n      tag_120\n      jump\t// in\n    tag_243:\n        /* \"#utility.yul\":9539:9575   */\n    tag_242:\n        /* \"#utility.yul\":9391:9582   */\n      swap3\n      swap2\n      pop\n      pop\n      jump\t// out\n        /* \"#utility.yul\":9588:9736   */\n    tag_121:\n        /* \"#utility.yul\":9690:9701   */\n      0x00\n        /* \"#utility.yul\":9727:9730   */\n      dup2\n        /* \"#utility.yul\":9712:9730   */\n      swap1\n      pop\n        /* \"#utility.yul\":9588:9736   */\n      swap3\n      swap2\n      pop\n      pop\n      jump\t// out\n        /* \"#utility.yul\":9742:9888   */\n    tag_122:\n        /* \"#utility.yul\":9839:9845   */\n      dup3\n        /* \"#utility.yul\":9834:9837   */\n      dup2\n        /* \"#utility.yul\":9829:9832   */\n      dup4\n        /* \"#utility.yul\":9816:9846   */\n      calldatacopy\n        /* \"#utility.yul\":9880:9881   */\n      0x00\n        /* \"#utility.yul\":9871:9877   */\n      dup4\n        /* \"#utility.yul\":9866:9869   */\n      dup4\n        /* \"#utility.yul\":9862:9878   */\n      add\n        /* \"#utility.yul\":9855:9882   */\n      mstore\n        /* \"#utility.yul\":9742:9888   */\n      pop\n      pop\n      pop\n      jump\t// out\n        /* \"#utility.yul\":9918:10248   */\n    tag_123:\n        /* \"#utility.yul\":10034:10037   */\n      0x00\n        /* \"#utility.yul\":10055:10144   */\n      tag_247\n        /* \"#utility.yul\":10137:10143   */\n      dup4\n        /* \"#utility.yul\":10132:10135   */\n      dup6\n        /* \"#utility.yul\":10055:10144   */\n      tag_121\n      jump\t// in\n    tag_247:\n        /* \"#utility.yul\":10048:10144   */\n      swap4\n      pop\n        /* \"#utility.yul\":10154:10210   */\n      tag_248\n        /* \"#utility.yul\":10203:10209   */\n      dup4\n        /* \"#utility.yul\":10198:10201   */\n      dup6\n        /* \"#utility.yul\":10191:10196   */\n      dup5\n        /* \"#utility.yul\":10154:10210   */\n      tag_122\n      jump\t// in\n    tag_248:\n        /* \"#utility.yul\":10235:10241   */\n      dup3\n        /* \"#utility.yul\":10230:10233   */\n      dup5\n        /* \"#utility.yul\":10226:10242   */\n      add\n        /* \"#utility.yul\":10219:10242   */\n      swap1\n      pop\n        /* \"#utility.yul\":9918:10248   */\n      swap4\n      swap3\n      pop\n      pop\n      pop\n      jump\t// out\n        /* \"#utility.yul\":10254:10333   */\n    tag_124:\n        /* \"#utility.yul\":10293:10300   */\n      0x00\n        /* \"#utility.yul\":10322:10327   */\n      dup2\n        /* \"#utility.yul\":10311:10327   */\n      swap1\n      pop\n        /* \"#utility.yul\":10254:10333   */\n      swap2\n      swap1\n      pop\n      jump\t// out\n        /* \"#utility.yul\":10339:10496   */\n    tag_125:\n        /* \"#utility.yul\":10444:10489   */\n      tag_251\n        /* \"#utility.yul\":10464:10488   */\n      tag_252\n        /* \"#utility.yul\":10482:10487   */\n      dup3\n        /* \"#utility.yul\":10464:10488   */\n      tag_93\n      jump\t// in\n    tag_252:\n        /* \"#utility.yul\":10444:10489   */\n      tag_124\n      jump\t// in\n    tag_251:\n        /* \"#utility.yul\":10439:10442   */\n      dup3\n        /* \"#utility.yul\":10432:10490   */\n      mstore\n        /* \"#utility.yul\":10339:10496   */\n      pop\n      pop\n      jump\t// out\n        /* \"#utility.yul\":10502:10938   */\n    tag_65:\n        /* \"#utility.yul\":10672:10675   */\n      0x00\n        /* \"#utility.yul\":10694:10799   */\n      tag_254\n        /* \"#utility.yul\":10795:10798   */\n      dup3\n        /* \"#utility.yul\":10786:10792   */\n      dup6\n        /* \"#utility.yul\":10778:10784   */\n      dup8\n        /* \"#utility.yul\":10694:10799   */\n      tag_123\n      jump\t// in\n    tag_254:\n        /* \"#utility.yul\":10687:10799   */\n      swap2\n      pop\n        /* \"#utility.yul\":10809:10884   */\n      tag_255\n        /* \"#utility.yul\":10880:10883   */\n      dup3\n        /* \"#utility.yul\":10871:10877   */\n      dup5\n        /* \"#utility.yul\":10809:10884   */\n      tag_125\n      jump\t// in\n    tag_255:\n        /* \"#utility.yul\":10909:10911   */\n      0x20\n        /* \"#utility.yul\":10904:10907   */\n      dup3\n        /* \"#utility.yul\":10900:10912   */\n      add\n        /* \"#utility.yul\":10893:10912   */\n      swap2\n      pop\n        /* \"#utility.yul\":10929:10932   */\n      dup2\n        /* \"#utility.yul\":10922:10932   */\n      swap1\n      pop\n        /* \"#utility.yul\":10502:10938   */\n      swap5\n      swap4\n      pop\n      pop\n      pop\n      pop\n      jump\t// out\n        /* \"#utility.yul\":10944:11124   */\n    tag_126:\n        /* \"#utility.yul\":10992:11069   */\n      0x4e487b7100000000000000000000000000000000000000000000000000000000\n        /* \"#utility.yul\":10989:10990   */\n      0x00\n        /* \"#utility.yul\":10982:11070   */\n      mstore\n        /* \"#utility.yul\":11089:11093   */\n      0x12\n        /* \"#utility.yul\":11086:11087   */\n      0x04\n        /* \"#utility.yul\":11079:11094   */\n      mstore\n        /* \"#utility.yul\":11113:11117   */\n      0x24\n        /* \"#utility.yul\":11110:11111   */\n      0x00\n        /* \"#utility.yul\":11103:11118   */\n      revert\n        /* \"#utility.yul\":11130:11306   */\n    tag_67:\n        /* \"#utility.yul\":11162:11163   */\n      0x00\n        /* \"#utility.yul\":11179:11199   */\n      tag_258\n        /* \"#utility.yul\":11197:11198   */\n      dup3\n        /* \"#utility.yul\":11179:11199   */\n      tag_93\n      jump\t// in\n    tag_258:\n        /* \"#utility.yul\":11174:11199   */\n      swap2\n      pop\n        /* \"#utility.yul\":11213:11233   */\n      tag_259\n        /* \"#utility.yul\":11231:11232   */\n      dup4\n        /* \"#utility.yul\":11213:11233   */\n      tag_93\n      jump\t// in\n    tag_259:\n        /* \"#utility.yul\":11208:11233   */\n      swap3\n      pop\n        /* \"#utility.yul\":11252:11253   */\n      dup3\n        /* \"#utility.yul\":11242:11277   */\n      tag_260\n      jumpi\n        /* \"#utility.yul\":11257:11275   */\n      tag_261\n      tag_126\n      jump\t// in\n    tag_261:\n        /* \"#utility.yul\":11242:11277   */\n    tag_260:\n        /* \"#utility.yul\":11298:11299   */\n      dup3\n        /* \"#utility.yul\":11295:11296   */\n      dup3\n        /* \"#utility.yul\":11291:11300   */\n      mod\n        /* \"#utility.yul\":11286:11300   */\n      swap1\n      pop\n        /* \"#utility.yul\":11130:11306   */\n      swap3\n      swap2\n      pop\n      pop\n      jump\t// out\n        /* \"#utility.yul\":11312:11722   */\n    tag_69:\n        /* \"#utility.yul\":11352:11359   */\n      0x00\n        /* \"#utility.yul\":11375:11395   */\n      tag_263\n        /* \"#utility.yul\":11393:11394   */\n      dup3\n        /* \"#utility.yul\":11375:11395   */\n      tag_93\n      jump\t// in\n    tag_263:\n        /* \"#utility.yul\":11370:11395   */\n      swap2\n      pop\n        /* \"#utility.yul\":11409:11429   */\n      tag_264\n        /* \"#utility.yul\":11427:11428   */\n      dup4\n        /* \"#utility.yul\":11409:11429   */\n      tag_93\n      jump\t// in\n    tag_264:\n        /* \"#utility.yul\":11404:11429   */\n      swap3\n      pop\n        /* \"#utility.yul\":11464:11465   */\n      dup3\n        /* \"#utility.yul\":11461:11462   */\n      dup3\n        /* \"#utility.yul\":11457:11466   */\n      mul\n        /* \"#utility.yul\":11486:11516   */\n      tag_265\n        /* \"#utility.yul\":11504:11515   */\n      dup2\n        /* \"#utility.yul\":11486:11516   */\n      tag_93\n      jump\t// in\n    tag_265:\n        /* \"#utility.yul\":11475:11516   */\n      swap2\n      pop\n        /* \"#utility.yul\":11665:11666   */\n      dup3\n        /* \"#utility.yul\":11656:11663   */\n      dup3\n        /* \"#utility.yul\":11652:11667   */\n      div\n        /* \"#utility.yul\":11649:11650   */\n      dup5\n        /* \"#utility.yul\":11646:11668   */\n      eq\n        /* \"#utility.yul\":11626:11627   */\n      dup4\n        /* \"#utility.yul\":11619:11628   */\n      iszero\n        /* \"#utility.yul\":11599:11682   */\n      or\n        /* \"#utility.yul\":11576:11715   */\n      tag_266\n      jumpi\n        /* \"#utility.yul\":11695:11713   */\n      tag_267\n      tag_120\n      jump\t// in\n    tag_267:\n        /* \"#utility.yul\":11576:11715   */\n    tag_266:\n        /* \"#utility.yul\":11360:11722   */\n      pop\n        /* \"#utility.yul\":11312:11722   */\n      swap3\n      swap2\n      pop\n      pop\n      jump\t// out\n        /* \"#utility.yul\":11728:11908   */\n    tag_127:\n        /* \"#utility.yul\":11776:11853   */\n      0x4e487b7100000000000000000000000000000000000000000000000000000000\n        /* \"#utility.yul\":11773:11774   */\n      0x00\n        /* \"#utility.yul\":11766:11854   */\n      mstore\n        /* \"#utility.yul\":11873:11877   */\n      0x41\n        /* \"#utility.yul\":11870:11871   */\n      0x04\n        /* \"#utility.yul\":11863:11878   */\n      mstore\n        /* \"#utility.yul\":11897:11901   */\n      0x24\n        /* \"#utility.yul\":11894:11895   */\n      0x00\n        /* \"#utility.yul\":11887:11902   */\n      revert\n        /* \"#utility.yul\":11914:12055   */\n    tag_128:\n        /* \"#utility.yul\":11963:11967   */\n      0x00\n        /* \"#utility.yul\":11986:11989   */\n      dup2\n        /* \"#utility.yul\":11978:11989   */\n      swap1\n      pop\n        /* \"#utility.yul\":12009:12012   */\n      dup2\n        /* \"#utility.yul\":12006:12007   */\n      0x00\n        /* \"#utility.yul\":11999:12013   */\n      mstore\n        /* \"#utility.yul\":12043:12047   */\n      0x20\n        /* \"#utility.yul\":12040:12041   */\n      0x00\n        /* \"#utility.yul\":12030:12048   */\n      keccak256\n        /* \"#utility.yul\":12022:12048   */\n      swap1\n      pop\n        /* \"#utility.yul\":11914:12055   */\n      swap2\n      swap1\n      pop\n      jump\t// out\n        /* \"#utility.yul\":12061:12154   */\n    tag_129:\n        /* \"#utility.yul\":12098:12104   */\n      0x00\n        /* \"#utility.yul\":12145:12147   */\n      0x20\n        /* \"#utility.yul\":12140:12142   */\n      0x1f\n        /* \"#utility.yul\":12133:12138   */\n      dup4\n        /* \"#utility.yul\":12129:12143   */\n      add\n        /* \"#utility.yul\":12125:12148   */\n      div\n        /* \"#utility.yul\":12115:12148   */\n      swap1\n      pop\n        /* \"#utility.yul\":12061:12154   */\n      swap2\n      swap1\n      pop\n      jump\t// out\n        /* \"#utility.yul\":12160:12267   */\n    tag_130:\n        /* \"#utility.yul\":12204:12212   */\n      0x00\n        /* \"#utility.yul\":12254:12259   */\n      dup3\n        /* \"#utility.yul\":12248:12252   */\n      dup3\n        /* \"#utility.yul\":12244:12260   */\n      shl\n        /* \"#utility.yul\":12223:12260   */\n      swap1\n      pop\n        /* \"#utility.yul\":12160:12267   */\n      swap3\n      swap2\n      pop\n      pop\n      jump\t// out\n        /* \"#utility.yul\":12273:12666   */\n    tag_131:\n        /* \"#utility.yul\":12342:12348   */\n      0x00\n        /* \"#utility.yul\":12392:12393   */\n      0x08\n        /* \"#utility.yul\":12380:12390   */\n      dup4\n        /* \"#utility.yul\":12376:12394   */\n      mul\n        /* \"#utility.yul\":12415:12512   */\n      tag_273\n        /* \"#utility.yul\":12445:12511   */\n      0xffffffffffffffffffffffffffffffffffffffffffffffffffffffffffffffff\n        /* \"#utility.yul\":12434:12443   */\n      dup3\n        /* \"#utility.yul\":12415:12512   */\n      tag_130\n      jump\t// in\n    tag_273:\n        /* \"#utility.yul\":12533:12572   */\n      tag_274\n        /* \"#utility.yul\":12563:12571   */\n      dup7\n        /* \"#utility.yul\":12552:12561   */\n      dup4\n        /* \"#utility.yul\":12533:12572   */\n      tag_130\n      jump\t// in\n    tag_274:\n        /* \"#utility.yul\":12521:12572   */\n      swap6\n      pop\n        /* \"#utility.yul\":12605:12609   */\n      dup1\n        /* \"#utility.yul\":12601:12610   */\n      not\n        /* \"#utility.yul\":12594:12599   */\n      dup5\n        /* \"#utility.yul\":12590:12611   */\n      and\n        /* \"#utility.yul\":12581:12611   */\n      swap4\n      pop\n        /* \"#utility.yul\":12654:12658   */\n      dup1\n        /* \"#utility.yul\":12644:12652   */\n      dup7\n        /* \"#utility.yul\":12640:12659   */\n      and\n        /* \"#utility.yul\":12633:12638   */\n      dup5\n        /* \"#utility.yul\":12630:12660   */\n      or\n        /* \"#utility.yul\":12620:12660   */\n      swap3\n      pop\n        /* \"#utility.yul\":12349:12666   */\n      pop\n      pop\n        /* \"#utility.yul\":12273:12666   */\n      swap4\n      swap3\n      pop\n      pop\n      pop\n      jump\t// out\n        /* \"#utility.yul\":12672:12732   */\n    tag_132:\n        /* \"#utility.yul\":12700:12703   */\n      0x00\n        /* \"#utility.yul\":12721:12726   */\n      dup2\n        /* \"#utility.yul\":12714:12726   */\n      swap1\n      pop\n        /* \"#utility.yul\":12672:12732   */\n      swap2\n      swap1\n      pop\n      jump\t// out\n        /* \"#utility.yul\":12738:12880   */\n    tag_133:\n        /* \"#utility.yul\":12788:12797   */\n      0x00\n        /* \"#utility.yul\":12821:12874   */\n      tag_277\n        /* \"#utility.yul\":12839:12873   */\n      tag_278\n        /* \"#utility.yul\":12848:12872   */\n      tag_279\n        /* \"#utility.yul\":12866:12871   */\n      dup5\n        /* \"#utility.yul\":12848:12872   */\n      tag_93\n      jump\t// in\n    tag_279:\n        /* \"#utility.yul\":12839:12873   */\n      tag_132\n      jump\t// in\n    tag_278:\n        /* \"#utility.yul\":12821:12874   */\n      tag_93\n      jump\t// in\n    tag_277:\n        /* \"#utility.yul\":12808:12874   */\n      swap1\n      pop\n        /* \"#utility.yul\":12738:12880   */\n      swap2\n      swap1\n      pop\n      jump\t// out\n        /* \"#utility.yul\":12886:12961   */\n    tag_134:\n        /* \"#utility.yul\":12929:12932   */\n      0x00\n        /* \"#utility.yul\":12950:12955   */\n      dup2\n        /* \"#utility.yul\":12943:12955   */\n      swap1\n      pop\n        /* \"#utility.yul\":12886:12961   */\n      swap2\n      swap1\n      pop\n      jump\t// out\n        /* \"#utility.yul\":12967:13236   */\n    tag_135:\n        /* \"#utility.yul\":13077:13116   */\n      tag_282\n        /* \"#utility.yul\":13108:13115   */\n      dup4\n        /* \"#utility.yul\":13077:13116   */\n      tag_133\n      jump\t// in\n    tag_282:\n        /* \"#utility.yul\":13138:13229   */\n      tag_283\n        /* \"#utility.yul\":13187:13228   */\n      tag_284\n        /* \"#utility.yul\":13211:13227   */\n      dup3\n        /* \"#utility.yul\":13187:13228   */\n      tag_134\n      jump\t// in\n    tag_284:\n        /* \"#utility.yul\":13179:13185   */\n      dup5\n        /* \"#utility.yul\":13172:13176   */\n      dup5\n        /* \"#utility.yul\":13166:13177   */\n      sload\n        /* \"#utility.yul\":13138:13229   */\n      tag_131\n      jump\t// in\n    tag_283:\n        /* \"#utility.yul\":13132:13136   */\n      dup3\n        /* \"#utility.yul\":13125:13230   */\n      sstore\n        /* \"#utility.yul\":13043:13236   */\n      pop\n        /* \"#utility.yul\":12967:13236   */\n      pop\n      pop\n      pop\n      jump\t// out\n        /* \"#utility.yul\":13242:13315   */\n    tag_136:\n        /* \"#utility.yul\":13287:13290   */\n      0x00\n        /* \"#utility.yul\":13242:13315   */\n      swap1\n      jump\t// out\n        /* \"#utility.yul\":13321:13510   */\n    tag_137:\n        /* \"#utility.yul\":13398:13430   */\n      tag_287\n      tag_136\n      jump\t// in\n    tag_287:\n        /* \"#utility.yul\":13439:13504   */\n      tag_288\n        /* \"#utility.yul\":13497:13503   */\n      dup2\n        /* \"#utility.yul\":13489:13495   */\n      dup5\n        /* \"#utility.yul\":13483:13487   */\n      dup5\n        /* \"#utility.yul\":13439:13504   */\n      tag_135\n      jump\t// in\n    tag_288:\n        /* \"#utility.yul\":13374:13510   */\n      pop\n        /* \"#utility.yul\":13321:13510   */\n      pop\n      pop\n      jump\t// out\n        /* \"#utility.yul\":13516:13702   */\n    tag_138:\n        /* \"#utility.yul\":13576:13696   */\n    tag_290:\n        /* \"#utility.yul\":13593:13596   */\n      dup2\n        /* \"#utility.yul\":13586:13591   */\n      dup2\n        /* \"#utility.yul\":13583:13597   */\n      lt\n        /* \"#utility.yul\":13576:13696   */\n      iszero\n      tag_292\n      jumpi\n        /* \"#utility.yul\":13647:13686   */\n      tag_293\n        /* \"#utility.yul\":13684:13685   */\n      0x00\n        /* \"#utility.yul\":13677:13682   */\n      dup3\n        /* \"#utility.yul\":13647:13686   */\n      tag_137\n      jump\t// in\n    tag_293:\n        /* \"#utility.yul\":13620:13621   */\n      0x01\n        /* \"#utility.yul\":13613:13618   */\n      dup2\n        /* \"#utility.yul\":13609:13622   */\n      add\n        /* \"#utility.yul\":13600:13622   */\n      swap1\n      pop\n        /* \"#utility.yul\":13576:13696   */\n      jump(tag_290)\n    tag_292:\n        /* \"#utility.yul\":13516:13702   */\n      pop\n      pop\n      jump\t// out\n        /* \"#utility.yul\":13708:14251   */\n    tag_139:\n        /* \"#utility.yul\":13809:13811   */\n      0x1f\n        /* \"#utility.yul\":13804:13807   */\n      dup3\n        /* \"#utility.yul\":13801:13812   */\n      gt\n        /* \"#utility.yul\":13798:14244   */\n      iszero\n      tag_295\n      jumpi\n        /* \"#utility.yul\":13843:13881   */\n      tag_296\n        /* \"#utility.yul\":13875:13880   */\n      dup2\n        /* \"#utility.yul\":13843:13881   */\n      tag_128\n      jump\t// in\n    tag_296:\n        /* \"#utility.yul\":13927:13956   */\n      tag_297\n        /* \"#utility.yul\":13945:13955   */\n      dup5\n        /* \"#utility.yul\":13927:13956   */\n      tag_129\n      jump\t// in\n    tag_297:\n        /* \"#utility.yul\":13917:13925   */\n      dup2\n        /* \"#utility.yul\":13913:13957   */\n      add\n        /* \"#utility.yul\":14110:14112   */\n      0x20\n        /* \"#utility.yul\":14098:14108   */\n      dup6\n        /* \"#utility.yul\":14095:14113   */\n      lt\n        /* \"#utility.yul\":14092:14141   */\n      iszero\n      tag_298\n      jumpi\n        /* \"#utility.yul\":14131:14139   */\n      dup2\n        /* \"#utility.yul\":14116:14139   */\n      swap1\n      pop\n        /* \"#utility.yul\":14092:14141   */\n    tag_298:\n        /* \"#utility.yul\":14154:14234   */\n      tag_299\n        /* \"#utility.yul\":14210:14232   */\n      tag_300\n        /* \"#utility.yul\":14228:14231   */\n      dup6\n        /* \"#utility.yul\":14210:14232   */\n      tag_129\n      jump\t// in\n    tag_300:\n        /* \"#utility.yul\":14200:14208   */\n      dup4\n        /* \"#utility.yul\":14196:14233   */\n      add\n        /* \"#utility.yul\":14183:14194   */\n      dup3\n        /* \"#utility.yul\":14154:14234   */\n      tag_138\n      jump\t// in\n    tag_299:\n        /* \"#utility.yul\":13813:14244   */\n      pop\n      pop\n        /* \"#utility.yul\":13798:14244   */\n    tag_295:\n        /* \"#utility.yul\":13708:14251   */\n      pop\n      pop\n      pop\n      jump\t// out\n        /* \"#utility.yul\":14257:14374   */\n    tag_140:\n        /* \"#utility.yul\":14311:14319   */\n      0x00\n        /* \"#utility.yul\":14361:14366   */\n      dup3\n        /* \"#utility.yul\":14355:14359   */\n      dup3\n        /* \"#utility.yul\":14351:14367   */\n      shr\n        /* \"#utility.yul\":14330:14367   */\n      swap1\n      pop\n        /* \"#utility.yul\":14257:14374   */\n      swap3\n      swap2\n      pop\n      pop\n      jump\t// out\n        /* \"#utility.yul\":14380:14549   */\n    tag_141:\n        /* \"#utility.yul\":14424:14430   */\n      0x00\n        /* \"#utility.yul\":14457:14508   */\n      tag_303\n        /* \"#utility.yul\":14505:14506   */\n      0x00\n        /* \"#utility.yul\":14501:14507   */\n      not\n        /* \"#utility.yul\":14493:14498   */\n      dup5\n        /* \"#utility.yul\":14490:14491   */\n      0x08\n        /* \"#utility.yul\":14486:14499   */\n      mul\n        /* \"#utility.yul\":14457:14508   */\n      tag_140\n      jump\t// in\n    tag_303:\n        /* \"#utility.yul\":14453:14509   */\n      not\n        /* \"#utility.yul\":14538:14542   */\n      dup1\n        /* \"#utility.yul\":14532:14536   */\n      dup4\n        /* \"#utility.yul\":14528:14543   */\n      and\n        /* \"#utility.yul\":14518:14543   */\n      swap2\n      pop\n        /* \"#utility.yul\":14431:14549   */\n      pop\n        /* \"#utility.yul\":14380:14549   */\n      swap3\n      swap2\n      pop\n      pop\n      jump\t// out\n        /* \"#utility.yul\":14554:14849   */\n    tag_142:\n        /* \"#utility.yul\":14630:14634   */\n      0x00\n        /* \"#utility.yul\":14776:14805   */\n      tag_305\n        /* \"#utility.yul\":14801:14804   */\n      dup4\n        /* \"#utility.yul\":14795:14799   */\n      dup4\n        /* \"#utility.yul\":14776:14805   */\n      tag_141\n      jump\t// in\n    tag_305:\n        /* \"#utility.yul\":14768:14805   */\n      swap2\n      pop\n        /* \"#utility.yul\":14838:14841   */\n      dup3\n        /* \"#utility.yul\":14835:14836   */\n      0x02\n        /* \"#utility.yul\":14831:14842   */\n      mul\n        /* \"#utility.yul\":14825:14829   */\n      dup3\n        /* \"#utility.yul\":14822:14843   */\n      or\n        /* \"#utility.yul\":14814:14843   */\n      swap1\n      pop\n        /* \"#utility.yul\":14554:14849   */\n      swap3\n      swap2\n      pop\n      pop\n      jump\t// out\n        /* \"#utility.yul\":14854:16249   */\n    tag_76:\n        /* \"#utility.yul\":14971:15008   */\n      tag_307\n        /* \"#utility.yul\":15004:15007   */\n      dup3\n        /* \"#utility.yul\":14971:15008   */\n      tag_97\n      jump\t// in\n    tag_307:\n        /* \"#utility.yul\":15073:15091   */\n      0xffffffffffffffff\n        /* \"#utility.yul\":15065:15071   */\n      dup2\n        /* \"#utility.yul\":15062:15092   */\n      gt\n        /* \"#utility.yul\":15059:15115   */\n      iszero\n      tag_308\n      jumpi\n        /* \"#utility.yul\":15095:15113   */\n      tag_309\n      tag_127\n      jump\t// in\n    tag_309:\n        /* \"#utility.yul\":15059:15115   */\n    tag_308:\n        /* \"#utility.yul\":15139:15177   */\n      tag_310\n        /* \"#utility.yul\":15171:15175   */\n      dup3\n        /* \"#utility.yul\":15165:15176   */\n      sload\n        /* \"#utility.yul\":15139:15177   */\n      tag_48\n      jump\t// in\n    tag_310:\n        /* \"#utility.yul\":15224:15291   */\n      tag_311\n        /* \"#utility.yul\":15284:15290   */\n      dup3\n        /* \"#utility.yul\":15276:15282   */\n      dup3\n        /* \"#utility.yul\":15270:15274   */\n      dup6\n        /* \"#utility.yul\":15224:15291   */\n      tag_139\n      jump\t// in\n    tag_311:\n        /* \"#utility.yul\":15318:15319   */\n      0x00\n        /* \"#utility.yul\":15342:15346   */\n      0x20\n        /* \"#utility.yul\":15329:15346   */\n      swap1\n      pop\n        /* \"#utility.yul\":15374:15376   */\n      0x1f\n        /* \"#utility.yul\":15366:15372   */\n      dup4\n        /* \"#utility.yul\":15363:15377   */\n      gt\n        /* \"#utility.yul\":15391:15392   */\n      0x01\n        /* \"#utility.yul\":15386:16004   */\n      dup2\n      eq\n      tag_313\n      jumpi\n        /* \"#utility.yul\":16048:16049   */\n      0x00\n        /* \"#utility.yul\":16065:16071   */\n      dup5\n        /* \"#utility.yul\":16062:16139   */\n      iszero\n      tag_314\n      jumpi\n        /* \"#utility.yul\":16114:16123   */\n      dup3\n        /* \"#utility.yul\":16109:16112   */\n      dup8\n        /* \"#utility.yul\":16105:16124   */\n      add\n        /* \"#utility.yul\":16099:16125   */\n      mload\n        /* \"#utility.yul\":16090:16125   */\n      swap1\n      pop\n        /* \"#utility.yul\":16062:16139   */\n    tag_314:\n        /* \"#utility.yul\":16165:16232   */\n      tag_315\n        /* \"#utility.yul\":16225:16231   */\n      dup6\n        /* \"#utility.yul\":16218:16223   */\n      dup3\n        /* \"#utility.yul\":16165:16232   */\n      tag_142\n      jump\t// in\n    tag_315:\n        /* \"#utility.yul\":16159:16163   */\n      dup7\n        /* \"#utility.yul\":16152:16233   */\n      sstore\n        /* \"#utility.yul\":16021:16243   */\n      pop\n        /* \"#utility.yul\":15356:16243   */\n      jump(tag_312)\n        /* \"#utility.yul\":15386:16004   */\n    tag_313:\n        /* \"#utility.yul\":15438:15442   */\n      0x1f\n        /* \"#utility.yul\":15434:15443   */\n      not\n        /* \"#utility.yul\":15426:15432   */\n      dup5\n        /* \"#utility.yul\":15422:15444   */\n      and\n        /* \"#utility.yul\":15472:15509   */\n      tag_316\n        /* \"#utility.yul\":15504:15508   */\n      dup7\n        /* \"#utility.yul\":15472:15509   */\n      tag_128\n      jump\t// in\n    tag_316:\n        /* \"#utility.yul\":15531:15532   */\n      0x00\n        /* \"#utility.yul\":15545:15753   */\n    tag_317:\n        /* \"#utility.yul\":15559:15566   */\n      dup3\n        /* \"#utility.yul\":15556:15557   */\n      dup2\n        /* \"#utility.yul\":15553:15567   */\n      lt\n        /* \"#utility.yul\":15545:15753   */\n      iszero\n      tag_319\n      jumpi\n        /* \"#utility.yul\":15638:15647   */\n      dup5\n        /* \"#utility.yul\":15633:15636   */\n      dup10\n        /* \"#utility.yul\":15629:15648   */\n      add\n        /* \"#utility.yul\":15623:15649   */\n      mload\n        /* \"#utility.yul\":15615:15621   */\n      dup3\n        /* \"#utility.yul\":15608:15650   */\n      sstore\n        /* \"#utility.yul\":15689:15690   */\n      0x01\n        /* \"#utility.yul\":15681:15687   */\n      dup3\n        /* \"#utility.yul\":15677:15691   */\n      add\n        /* \"#utility.yul\":15667:15691   */\n      swap2\n      pop\n        /* \"#utility.yul\":15736:15738   */\n      0x20\n        /* \"#utility.yul\":15725:15734   */\n      dup6\n        /* \"#utility.yul\":15721:15739   */\n      add\n        /* \"#utility.yul\":15708:15739   */\n      swap5\n      pop\n        /* \"#utility.yul\":15582:15586   */\n      0x20\n        /* \"#utility.yul\":15579:15580   */\n      dup2\n        /* \"#utility.yul\":15575:15587   */\n      add\n        /* \"#utility.yul\":15570:15587   */\n      swap1\n      pop\n        /* \"#utility.yul\":15545:15753   */\n      jump(tag_317)\n    tag_319:\n        /* \"#utility.yul\":15781:15787   */\n      dup7\n        /* \"#utility.yul\":15772:15779   */\n      dup4\n        /* \"#utility.yul\":15769:15788   */\n      lt\n        /* \"#utility.yul\":15766:15945   */\n      iszero\n      tag_320\n      jumpi\n        /* \"#utility.yul\":15839:15848   */\n      dup5\n        /* \"#utility.yul\":15834:15837   */\n      dup10\n        /* \"#utility.yul\":15830:15849   */\n      add\n        /* \"#utility.yul\":15824:15850   */\n      mload\n        /* \"#utility.yul\":15882:15930   */\n      tag_321\n        /* \"#utility.yul\":15924:15928   */\n      0x1f\n        /* \"#utility.yul\":15916:15922   */\n      dup10\n        /* \"#utility.yul\":15912:15929   */\n      and\n        /* \"#utility.yul\":15901:15910   */\n      dup3\n        /* \"#utility.yul\":15882:15930   */\n      tag_141\n      jump\t// in\n    tag_321:\n        /* \"#utility.yul\":15874:15880   */\n      dup4\n        /* \"#utility.yul\":15867:15931   */\n      sstore\n        /* \"#utility.yul\":15789:15945   */\n      pop\n        /* \"#utility.yul\":15766:15945   */\n    tag_320:\n        /* \"#utility.yul\":15991:15992   */\n      0x01\n        /* \"#utility.yul\":15987:15988   */\n      0x02\n        /* \"#utility.yul\":15979:15985   */\n      dup9\n        /* \"#utility.yul\":15975:15989   */\n      mul\n        /* \"#utility.yul\":15971:15993   */\n      add\n        /* \"#utility.yul\":15965:15969   */\n      dup9\n        /* \"#utility.yul\":15958:15994   */\n      sstore\n        /* \"#utility.yul\":15393:16004   */\n      pop\n      pop\n      pop\n        /* \"#utility.yul\":15356:16243   */\n    tag_312:\n      pop\n        /* \"#utility.yul\":14946:16249   */\n      pop\n      pop\n      pop\n        /* \"#utility.yul\":14854:16249   */\n      pop\n      pop\n      jump\t// out\n\n    auxdata: 0xa26469706673582212200e14b3b3e33b508adc70d563e5daad702c9b97644cb057622bde2def0a8ff67f64736f6c63430008130033\n}\n",
				"bytecode": {
					"linkReferences": {},
					"object": "608060405234801561001057600080fd5b50610fc0806100206000396000f3fe6080604052600436106100705760003560e01c8063daa6296b1161004e578063daa6296b146100fa578063ee42319414610137578063f03a2aec14610153578063f83cf1201461019057610070565b8063858310791461007557806391a2fa95146100b5578063b6a46b3b146100d1575b600080fd5b34801561008157600080fd5b5061009c600480360381019061009791906106f0565b6101bb565b6040516100ac94939291906107bc565b60405180910390f35b6100cf60048036038101906100ca91906106f0565b610283565b005b3480156100dd57600080fd5b506100f860048036038101906100f3919061086d565b61032a565b005b34801561010657600080fd5b50610121600480360381019061011c9190610918565b61052b565b60405161012e9190610958565b60405180910390f35b610151600480360381019061014c91906106f0565b61055c565b005b34801561015f57600080fd5b5061017a600480360381019061017591906106f0565b610603565b6040516101879190610958565b60405180910390f35b34801561019c57600080fd5b506101a561061b565b6040516101b29190610a31565b60405180910390f35b600081815481106101cb57600080fd5b90600052602060002090600402016000915090508060000154908060010180546101f490610a82565b80601f016020809104026020016040519081016040528092919081815260200182805461022090610a82565b801561026d5780601f106102425761010080835404028352916020019161026d565b820191906000526020600020905b81548152906001019060200180831161025057829003601f168201915b5050505050908060020154908060030154905084565b662386f26fc1000034146102cc576040517f08c379a00000000000000000000000000000000000000000000000000000000081526004016102c390610aff565b60405180910390fd5b60006001600083815260200190815260200160002054905060008082815481106102f9576102f8610b1f565b5b90600052602060002090600402019050606481600301600082825461031e9190610b7d565b92505081905550505050565b600060056103e884844260405160200161034693929190610c11565b6040516020818303038152906040528051906020012060001c6103699190610c6a565b6103739190610c9b565b90506000603c606485854260405160200161039093929190610c11565b6040516020818303038152906040528051906020012060001c6103b39190610c6a565b6103bd9190610c9b565b9050600060016000805490506103d39190610b7d565b90506000604051806080016040528083815260200187878080601f016020809104026020016040519081016040528093929190818152602001838380828437600081840152601f19601f820116905080830192505050505050508152602001858152602001848152509050600080549050600160008481526020019081526020016000208190555060008190806001815401808255809150506001900390600052602060002090600402016000909190919091506000820151816000015560208201518160010190816104a69190610eb8565b5060408201518160020155606082015181600301555050600260003373ffffffffffffffffffffffffffffffffffffffff1673ffffffffffffffffffffffffffffffffffffffff168152602001908152602001600020829080600181540180825580915050600190039060005260206000200160009091909190915055505050505050565b6002602052816000526040600020818154811061054757600080fd5b90600052602060002001600091509150505481565b662386f26fc1000034146105a5576040517f08c379a000000000000000000000000000000000000000000000000000000000815260040161059c90610aff565b60405180910390fd5b60006001600083815260200190815260200160002054905060008082815481106105d2576105d1610b1f565b5b9060005260206000209060040201905060648160020160008282546105f79190610b7d565b92505081905550505050565b60016020528060005260406000206000915090505481565b6060600260003373ffffffffffffffffffffffffffffffffffffffff1673ffffffffffffffffffffffffffffffffffffffff1681526020019081526020016000208054806020026020016040519081016040528092919081815260200182805480156106a657602002820191906000526020600020905b815481526020019060010190808311610692575b5050505050905090565b600080fd5b600080fd5b6000819050919050565b6106cd816106ba565b81146106d857600080fd5b50565b6000813590506106ea816106c4565b92915050565b600060208284031215610706576107056106b0565b5b6000610714848285016106db565b91505092915050565b610726816106ba565b82525050565b600081519050919050565b600082825260208201905092915050565b60005b8381101561076657808201518184015260208101905061074b565b60008484015250505050565b6000601f19601f8301169050919050565b600061078e8261072c565b6107988185610737565b93506107a8818560208601610748565b6107b181610772565b840191505092915050565b60006080820190506107d1600083018761071d565b81810360208301526107e38186610783565b90506107f2604083018561071d565b6107ff606083018461071d565b95945050505050565b600080fd5b600080fd5b600080fd5b60008083601f84011261082d5761082c610808565b5b8235905067ffffffffffffffff81111561084a5761084961080d565b5b60208301915083600182028301111561086657610865610812565b5b9250929050565b60008060208385031215610884576108836106b0565b5b600083013567ffffffffffffffff8111156108a2576108a16106b5565b5b6108ae85828601610817565b92509250509250929050565b600073ffffffffffffffffffffffffffffffffffffffff82169050919050565b60006108e5826108ba565b9050919050565b6108f5816108da565b811461090057600080fd5b50565b600081359050610912816108ec565b92915050565b6000806040838503121561092f5761092e6106b0565b5b600061093d85828601610903565b925050602061094e858286016106db565b9150509250929050565b600060208201905061096d600083018461071d565b92915050565b600081519050919050565b600082825260208201905092915050565b6000819050602082019050919050565b6109a8816106ba565b82525050565b60006109ba838361099f565b60208301905092915050565b6000602082019050919050565b60006109de82610973565b6109e8818561097e565b93506109f38361098f565b8060005b83811015610a24578151610a0b88826109ae565b9750610a16836109c6565b9250506001810190506109f7565b5085935050505092915050565b60006020820190508181036000830152610a4b81846109d3565b905092915050565b7f4e487b7100000000000000000000000000000000000000000000000000000000600052602260045260246000fd5b60006002820490506001821680610a9a57607f821691505b602082108103610aad57610aac610a53565b5b50919050565b7f416d6f756e742073686f756c6420626520302e30312045746865720000000000600082015250565b6000610ae9601b83610737565b9150610af482610ab3565b602082019050919050565b60006020820190508181036000830152610b1881610adc565b9050919050565b7f4e487b7100000000000000000000000000000000000000000000000000000000600052603260045260246000fd5b7f4e487b7100000000000000000000000000000000000000000000000000000000600052601160045260246000fd5b6000610b88826106ba565b9150610b93836106ba565b9250828201905080821115610bab57610baa610b4e565b5b92915050565b600081905092915050565b82818337600083830152505050565b6000610bd78385610bb1565b9350610be4838584610bbc565b82840190509392505050565b6000819050919050565b610c0b610c06826106ba565b610bf0565b82525050565b6000610c1e828587610bcb565b9150610c2a8284610bfa565b602082019150819050949350505050565b7f4e487b7100000000000000000000000000000000000000000000000000000000600052601260045260246000fd5b6000610c75826106ba565b9150610c80836106ba565b925082610c9057610c8f610c3b565b5b828206905092915050565b6000610ca6826106ba565b9150610cb1836106ba565b9250828202610cbf816106ba565b91508282048414831517610cd657610cd5610b4e565b5b5092915050565b7f4e487b7100000000000000000000000000000000000000000000000000000000600052604160045260246000fd5b60008190508160005260206000209050919050565b60006020601f8301049050919050565b600082821b905092915050565b600060088302610d6e7fffffffffffffffffffffffffffffffffffffffffffffffffffffffffffffffff82610d31565b610d788683610d31565b95508019841693508086168417925050509392505050565b6000819050919050565b6000610db5610db0610dab846106ba565b610d90565b6106ba565b9050919050565b6000819050919050565b610dcf83610d9a565b610de3610ddb82610dbc565b848454610d3e565b825550505050565b600090565b610df8610deb565b610e03818484610dc6565b505050565b5b81811015610e2757610e1c600082610df0565b600181019050610e09565b5050565b601f821115610e6c57610e3d81610d0c565b610e4684610d21565b81016020851015610e55578190505b610e69610e6185610d21565b830182610e08565b50505b505050565b600082821c905092915050565b6000610e8f60001984600802610e71565b1980831691505092915050565b6000610ea88383610e7e565b9150826002028217905092915050565b610ec18261072c565b67ffffffffffffffff811115610eda57610ed9610cdd565b5b610ee48254610a82565b610eef828285610e2b565b600060209050601f831160018114610f225760008415610f10578287015190505b610f1a8582610e9c565b865550610f82565b601f198416610f3086610d0c565b60005b82811015610f5857848901518255600182019150602085019450602081019050610f33565b86831015610f755784890151610f71601f891682610e7e565b8355505b6001600288020188555050505b50505050505056fea26469706673582212200e14b3b3e33b508adc70d563e5daad702c9b97644cb057622bde2def0a8ff67f64736f6c63430008130033",
					"opcodes": "PUSH1 0x80 PUSH1 0x40 MSTORE CALLVALUE DUP1 ISZERO PUSH2 0x10 JUMPI PUSH1 0x0 DUP1 REVERT JUMPDEST POP PUSH2 0xFC0 DUP1 PUSH2 0x20 PUSH1 0x0 CODECOPY PUSH1 0x0 RETURN INVALID PUSH1 0x80 PUSH1 0x40 MSTORE PUSH1 0x4 CALLDATASIZE LT PUSH2 0x70 JUMPI PUSH1 0x0 CALLDATALOAD PUSH1 0xE0 SHR DUP1 PUSH4 0xDAA6296B GT PUSH2 0x4E JUMPI DUP1 PUSH4 0xDAA6296B EQ PUSH2 0xFA JUMPI DUP1 PUSH4 0xEE423194 EQ PUSH2 0x137 JUMPI DUP1 PUSH4 0xF03A2AEC EQ PUSH2 0x153 JUMPI DUP1 PUSH4 0xF83CF120 EQ PUSH2 0x190 JUMPI PUSH2 0x70 JUMP JUMPDEST DUP1 PUSH4 0x85831079 EQ PUSH2 0x75 JUMPI DUP1 PUSH4 0x91A2FA95 EQ PUSH2 0xB5 JUMPI DUP1 PUSH4 0xB6A46B3B EQ PUSH2 0xD1 JUMPI JUMPDEST PUSH1 0x0 DUP1 REVERT JUMPDEST CALLVALUE DUP1 ISZERO PUSH2 0x81 JUMPI PUSH1 0x0 DUP1 REVERT JUMPDEST POP PUSH2 0x9C PUSH1 0x4 DUP1 CALLDATASIZE SUB DUP2 ADD SWAP1 PUSH2 0x97 SWAP2 SWAP1 PUSH2 0x6F0 JUMP JUMPDEST PUSH2 0x1BB JUMP JUMPDEST PUSH1 0x40 MLOAD PUSH2 0xAC SWAP5 SWAP4 SWAP3 SWAP2 SWAP1 PUSH2 0x7BC JUMP JUMPDEST PUSH1 0x40 MLOAD DUP1 SWAP2 SUB SWAP1 RETURN JUMPDEST PUSH2 0xCF PUSH1 0x4 DUP1 CALLDATASIZE SUB DUP2 ADD SWAP1 PUSH2 0xCA SWAP2 SWAP1 PUSH2 0x6F0 JUMP JUMPDEST PUSH2 0x283 JUMP JUMPDEST STOP JUMPDEST CALLVALUE DUP1 ISZERO PUSH2 0xDD JUMPI PUSH1 0x0 DUP1 REVERT JUMPDEST POP PUSH2 0xF8 PUSH1 0x4 DUP1 CALLDATASIZE SUB DUP2 ADD SWAP1 PUSH2 0xF3 SWAP2 SWAP1 PUSH2 0x86D JUMP JUMPDEST PUSH2 0x32A JUMP JUMPDEST STOP JUMPDEST CALLVALUE DUP1 ISZERO PUSH2 0x106 JUMPI PUSH1 0x0 DUP1 REVERT JUMPDEST POP PUSH2 0x121 PUSH1 0x4 DUP1 CALLDATASIZE SUB DUP2 ADD SWAP1 PUSH2 0x11C SWAP2 SWAP1 PUSH2 0x918 JUMP JUMPDEST PUSH2 0x52B JUMP JUMPDEST PUSH1 0x40 MLOAD PUSH2 0x12E SWAP2 SWAP1 PUSH2 0x958 JUMP JUMPDEST PUSH1 0x40 MLOAD DUP1 SWAP2 SUB SWAP1 RETURN JUMPDEST PUSH2 0x151 PUSH1 0x4 DUP1 CALLDATASIZE SUB DUP2 ADD SWAP1 PUSH2 0x14C SWAP2 SWAP1 PUSH2 0x6F0 JUMP JUMPDEST PUSH2 0x55C JUMP JUMPDEST STOP JUMPDEST CALLVALUE DUP1 ISZERO PUSH2 0x15F JUMPI PUSH1 0x0 DUP1 REVERT JUMPDEST POP PUSH2 0x17A PUSH1 0x4 DUP1 CALLDATASIZE SUB DUP2 ADD SWAP1 PUSH2 0x175 SWAP2 SWAP1 PUSH2 0x6F0 JUMP JUMPDEST PUSH2 0x603 JUMP JUMPDEST PUSH1 0x40 MLOAD PUSH2 0x187 SWAP2 SWAP1 PUSH2 0x958 JUMP JUMPDEST PUSH1 0x40 MLOAD DUP1 SWAP2 SUB SWAP1 RETURN JUMPDEST CALLVALUE DUP1 ISZERO PUSH2 0x19C JUMPI PUSH1 0x0 DUP1 REVERT JUMPDEST POP PUSH2 0x1A5 PUSH2 0x61B JUMP JUMPDEST PUSH1 0x40 MLOAD PUSH2 0x1B2 SWAP2 SWAP1 PUSH2 0xA31 JUMP JUMPDEST PUSH1 0x40 MLOAD DUP1 SWAP2 SUB SWAP1 RETURN JUMPDEST PUSH1 0x0 DUP2 DUP2 SLOAD DUP2 LT PUSH2 0x1CB JUMPI PUSH1 0x0 DUP1 REVERT JUMPDEST SWAP1 PUSH1 0x0 MSTORE PUSH1 0x20 PUSH1 0x0 KECCAK256 SWAP1 PUSH1 0x4 MUL ADD PUSH1 0x0 SWAP2 POP SWAP1 POP DUP1 PUSH1 0x0 ADD SLOAD SWAP1 DUP1 PUSH1 0x1 ADD DUP1 SLOAD PUSH2 0x1F4 SWAP1 PUSH2 0xA82 JUMP JUMPDEST DUP1 PUSH1 0x1F ADD PUSH1 0x20 DUP1 SWAP2 DIV MUL PUSH1 0x20 ADD PUSH1 0x40 MLOAD SWAP1 DUP2 ADD PUSH1 0x40 MSTORE DUP1 SWAP3 SWAP2 SWAP1 DUP2 DUP2 MSTORE PUSH1 0x20 ADD DUP3 DUP1 SLOAD PUSH2 0x220 SWAP1 PUSH2 0xA82 JUMP JUMPDEST DUP1 ISZERO PUSH2 0x26D JUMPI DUP1 PUSH1 0x1F LT PUSH2 0x242 JUMPI PUSH2 0x100 DUP1 DUP4 SLOAD DIV MUL DUP4 MSTORE SWAP2 PUSH1 0x20 ADD SWAP2 PUSH2 0x26D JUMP JUMPDEST DUP3 ADD SWAP2 SWAP1 PUSH1 0x0 MSTORE PUSH1 0x20 PUSH1 0x0 KECCAK256 SWAP1 JUMPDEST DUP2 SLOAD DUP2 MSTORE SWAP1 PUSH1 0x1 ADD SWAP1 PUSH1 0x20 ADD DUP1 DUP4 GT PUSH2 0x250 JUMPI DUP3 SWAP1 SUB PUSH1 0x1F AND DUP3 ADD SWAP2 JUMPDEST POP POP POP POP POP SWAP1 DUP1 PUSH1 0x2 ADD SLOAD SWAP1 DUP1 PUSH1 0x3 ADD SLOAD SWAP1 POP DUP5 JUMP JUMPDEST PUSH7 0x2386F26FC10000 CALLVALUE EQ PUSH2 0x2CC JUMPI PUSH1 0x40 MLOAD PUSH32 0x8C379A000000000000000000000000000000000000000000000000000000000 DUP2 MSTORE PUSH1 0x4 ADD PUSH2 0x2C3 SWAP1 PUSH2 0xAFF JUMP JUMPDEST PUSH1 0x40 MLOAD DUP1 SWAP2 SUB SWAP1 REVERT JUMPDEST PUSH1 0x0 PUSH1 0x1 PUSH1 0x0 DUP4 DUP2 MSTORE PUSH1 0x20 ADD SWAP1 DUP2 MSTORE PUSH1 0x20 ADD PUSH1 0x0 KECCAK256 SLOAD SWAP1 POP PUSH1 0x0 DUP1 DUP3 DUP2 SLOAD DUP2 LT PUSH2 0x2F9 JUMPI PUSH2 0x2F8 PUSH2 0xB1F JUMP JUMPDEST JUMPDEST SWAP1 PUSH1 0x0 MSTORE PUSH1 0x20 PUSH1 0x0 KECCAK256 SWAP1 PUSH1 0x4 MUL ADD SWAP1 POP PUSH1 0x64 DUP2 PUSH1 0x3 ADD PUSH1 0x0 DUP3 DUP3 SLOAD PUSH2 0x31E SWAP2 SWAP1 PUSH2 0xB7D JUMP JUMPDEST SWAP3 POP POP DUP2 SWAP1 SSTORE POP POP POP POP JUMP JUMPDEST PUSH1 0x0 PUSH1 0x5 PUSH2 0x3E8 DUP5 DUP5 TIMESTAMP PUSH1 0x40 MLOAD PUSH1 0x20 ADD PUSH2 0x346 SWAP4 SWAP3 SWAP2 SWAP1 PUSH2 0xC11 JUMP JUMPDEST PUSH1 0x40 MLOAD PUSH1 0x20 DUP2 DUP4 SUB SUB DUP2 MSTORE SWAP1 PUSH1 0x40 MSTORE DUP1 MLOAD SWAP1 PUSH1 0x20 ADD KECCAK256 PUSH1 0x0 SHR PUSH2 0x369 SWAP2 SWAP1 PUSH2 0xC6A JUMP JUMPDEST PUSH2 0x373 SWAP2 SWAP1 PUSH2 0xC9B JUMP JUMPDEST SWAP1 POP PUSH1 0x0 PUSH1 0x3C PUSH1 0x64 DUP6 DUP6 TIMESTAMP PUSH1 0x40 MLOAD PUSH1 0x20 ADD PUSH2 0x390 SWAP4 SWAP3 SWAP2 SWAP1 PUSH2 0xC11 JUMP JUMPDEST PUSH1 0x40 MLOAD PUSH1 0x20 DUP2 DUP4 SUB SUB DUP2 MSTORE SWAP1 PUSH1 0x40 MSTORE DUP1 MLOAD SWAP1 PUSH1 0x20 ADD KECCAK256 PUSH1 0x0 SHR PUSH2 0x3B3 SWAP2 SWAP1 PUSH2 0xC6A JUMP JUMPDEST PUSH2 0x3BD SWAP2 SWAP1 PUSH2 0xC9B JUMP JUMPDEST SWAP1 POP PUSH1 0x0 PUSH1 0x1 PUSH1 0x0 DUP1 SLOAD SWAP1 POP PUSH2 0x3D3 SWAP2 SWAP1 PUSH2 0xB7D JUMP JUMPDEST SWAP1 POP PUSH1 0x0 PUSH1 0x40 MLOAD DUP1 PUSH1 0x80 ADD PUSH1 0x40 MSTORE DUP1 DUP4 DUP2 MSTORE PUSH1 0x20 ADD DUP8 DUP8 DUP1 DUP1 PUSH1 0x1F ADD PUSH1 0x20 DUP1 SWAP2 DIV MUL PUSH1 0x20 ADD PUSH1 0x40 MLOAD SWAP1 DUP2 ADD PUSH1 0x40 MSTORE DUP1 SWAP4 SWAP3 SWAP2 SWAP1 DUP2 DUP2 MSTORE PUSH1 0x20 ADD DUP4 DUP4 DUP1 DUP3 DUP5 CALLDATACOPY PUSH1 0x0 DUP2 DUP5 ADD MSTORE PUSH1 0x1F NOT PUSH1 0x1F DUP3 ADD AND SWAP1 POP DUP1 DUP4 ADD SWAP3 POP POP POP POP POP POP POP DUP2 MSTORE PUSH1 0x20 ADD DUP6 DUP2 MSTORE PUSH1 0x20 ADD DUP5 DUP2 MSTORE POP SWAP1 POP PUSH1 0x0 DUP1 SLOAD SWAP1 POP PUSH1 0x1 PUSH1 0x0 DUP5 DUP2 MSTORE PUSH1 0x20 ADD SWAP1 DUP2 MSTORE PUSH1 0x20 ADD PUSH1 0x0 KECCAK256 DUP2 SWAP1 SSTORE POP PUSH1 0x0 DUP2 SWAP1 DUP1 PUSH1 0x1 DUP2 SLOAD ADD DUP1 DUP3 SSTORE DUP1 SWAP2 POP POP PUSH1 0x1 SWAP1 SUB SWAP1 PUSH1 0x0 MSTORE PUSH1 0x20 PUSH1 0x0 KECCAK256 SWAP1 PUSH1 0x4 MUL ADD PUSH1 0x0 SWAP1 SWAP2 SWAP1 SWAP2 SWAP1 SWAP2 POP PUSH1 0x0 DUP3 ADD MLOAD DUP2 PUSH1 0x0 ADD SSTORE PUSH1 0x20 DUP3 ADD MLOAD DUP2 PUSH1 0x1 ADD SWAP1 DUP2 PUSH2 0x4A6 SWAP2 SWAP1 PUSH2 0xEB8 JUMP JUMPDEST POP PUSH1 0x40 DUP3 ADD MLOAD DUP2 PUSH1 0x2 ADD SSTORE PUSH1 0x60 DUP3 ADD MLOAD DUP2 PUSH1 0x3 ADD SSTORE POP POP PUSH1 0x2 PUSH1 0x0 CALLER PUSH20 0xFFFFFFFFFFFFFFFFFFFFFFFFFFFFFFFFFFFFFFFF AND PUSH20 0xFFFFFFFFFFFFFFFFFFFFFFFFFFFFFFFFFFFFFFFF AND DUP2 MSTORE PUSH1 0x20 ADD SWAP1 DUP2 MSTORE PUSH1 0x20 ADD PUSH1 0x0 KECCAK256 DUP3 SWAP1 DUP1 PUSH1 0x1 DUP2 SLOAD ADD DUP1 DUP3 SSTORE DUP1 SWAP2 POP POP PUSH1 0x1 SWAP1 SUB SWAP1 PUSH1 0x0 MSTORE PUSH1 0x20 PUSH1 0x0 KECCAK256 ADD PUSH1 0x0 SWAP1 SWAP2 SWAP1 SWAP2 SWAP1 SWAP2 POP SSTORE POP POP POP POP POP POP JUMP JUMPDEST PUSH1 0x2 PUSH1 0x20 MSTORE DUP2 PUSH1 0x0 MSTORE PUSH1 0x40 PUSH1 0x0 KECCAK256 DUP2 DUP2 SLOAD DUP2 LT PUSH2 0x547 JUMPI PUSH1 0x0 DUP1 REVERT JUMPDEST SWAP1 PUSH1 0x0 MSTORE PUSH1 0x20 PUSH1 0x0 KECCAK256 ADD PUSH1 0x0 SWAP2 POP SWAP2 POP POP SLOAD DUP2 JUMP JUMPDEST PUSH7 0x2386F26FC10000 CALLVALUE EQ PUSH2 0x5A5 JUMPI PUSH1 0x40 MLOAD PUSH32 0x8C379A000000000000000000000000000000000000000000000000000000000 DUP2 MSTORE PUSH1 0x4 ADD PUSH2 0x59C SWAP1 PUSH2 0xAFF JUMP JUMPDEST PUSH1 0x40 MLOAD DUP1 SWAP2 SUB SWAP1 REVERT JUMPDEST PUSH1 0x0 PUSH1 0x1 PUSH1 0x0 DUP4 DUP2 MSTORE PUSH1 0x20 ADD SWAP1 DUP2 MSTORE PUSH1 0x20 ADD PUSH1 0x0 KECCAK256 SLOAD SWAP1 POP PUSH1 0x0 DUP1 DUP3 DUP2 SLOAD DUP2 LT PUSH2 0x5D2 JUMPI PUSH2 0x5D1 PUSH2 0xB1F JUMP JUMPDEST JUMPDEST SWAP1 PUSH1 0x0 MSTORE PUSH1 0x20 PUSH1 0x0 KECCAK256 SWAP1 PUSH1 0x4 MUL ADD SWAP1 POP PUSH1 0x64 DUP2 PUSH1 0x2 ADD PUSH1 0x0 DUP3 DUP3 SLOAD PUSH2 0x5F7 SWAP2 SWAP1 PUSH2 0xB7D JUMP JUMPDEST SWAP3 POP POP DUP2 SWAP1 SSTORE POP POP POP POP JUMP JUMPDEST PUSH1 0x1 PUSH1 0x20 MSTORE DUP1 PUSH1 0x0 MSTORE PUSH1 0x40 PUSH1 0x0 KECCAK256 PUSH1 0x0 SWAP2 POP SWAP1 POP SLOAD DUP2 JUMP JUMPDEST PUSH1 0x60 PUSH1 0x2 PUSH1 0x0 CALLER PUSH20 0xFFFFFFFFFFFFFFFFFFFFFFFFFFFFFFFFFFFFFFFF AND PUSH20 0xFFFFFFFFFFFFFFFFFFFFFFFFFFFFFFFFFFFFFFFF AND DUP2 MSTORE PUSH1 0x20 ADD SWAP1 DUP2 MSTORE PUSH1 0x20 ADD PUSH1 0x0 KECCAK256 DUP1 SLOAD DUP1 PUSH1 0x20 MUL PUSH1 0x20 ADD PUSH1 0x40 MLOAD SWAP1 DUP2 ADD PUSH1 0x40 MSTORE DUP1 SWAP3 SWAP2 SWAP1 DUP2 DUP2 MSTORE PUSH1 0x20 ADD DUP3 DUP1 SLOAD DUP1 ISZERO PUSH2 0x6A6 JUMPI PUSH1 0x20 MUL DUP3 ADD SWAP2 SWAP1 PUSH1 0x0 MSTORE PUSH1 0x20 PUSH1 0x0 KECCAK256 SWAP1 JUMPDEST DUP2 SLOAD DUP2 MSTORE PUSH1 0x20 ADD SWAP1 PUSH1 0x1 ADD SWAP1 DUP1 DUP4 GT PUSH2 0x692 JUMPI JUMPDEST POP POP POP POP POP SWAP1 POP SWAP1 JUMP JUMPDEST PUSH1 0x0 DUP1 REVERT JUMPDEST PUSH1 0x0 DUP1 REVERT JUMPDEST PUSH1 0x0 DUP2 SWAP1 POP SWAP2 SWAP1 POP JUMP JUMPDEST PUSH2 0x6CD DUP2 PUSH2 0x6BA JUMP JUMPDEST DUP2 EQ PUSH2 0x6D8 JUMPI PUSH1 0x0 DUP1 REVERT JUMPDEST POP JUMP JUMPDEST PUSH1 0x0 DUP2 CALLDATALOAD SWAP1 POP PUSH2 0x6EA DUP2 PUSH2 0x6C4 JUMP JUMPDEST SWAP3 SWAP2 POP POP JUMP JUMPDEST PUSH1 0x0 PUSH1 0x20 DUP3 DUP5 SUB SLT ISZERO PUSH2 0x706 JUMPI PUSH2 0x705 PUSH2 0x6B0 JUMP JUMPDEST JUMPDEST PUSH1 0x0 PUSH2 0x714 DUP5 DUP3 DUP6 ADD PUSH2 0x6DB JUMP JUMPDEST SWAP2 POP POP SWAP3 SWAP2 POP POP JUMP JUMPDEST PUSH2 0x726 DUP2 PUSH2 0x6BA JUMP JUMPDEST DUP3 MSTORE POP POP JUMP JUMPDEST PUSH1 0x0 DUP2 MLOAD SWAP1 POP SWAP2 SWAP1 POP JUMP JUMPDEST PUSH1 0x0 DUP3 DUP3 MSTORE PUSH1 0x20 DUP3 ADD SWAP1 POP SWAP3 SWAP2 POP POP JUMP JUMPDEST PUSH1 0x0 JUMPDEST DUP4 DUP2 LT ISZERO PUSH2 0x766 JUMPI DUP1 DUP3 ADD MLOAD DUP2 DUP5 ADD MSTORE PUSH1 0x20 DUP2 ADD SWAP1 POP PUSH2 0x74B JUMP JUMPDEST PUSH1 0x0 DUP5 DUP5 ADD MSTORE POP POP POP POP JUMP JUMPDEST PUSH1 0x0 PUSH1 0x1F NOT PUSH1 0x1F DUP4 ADD AND SWAP1 POP SWAP2 SWAP1 POP JUMP JUMPDEST PUSH1 0x0 PUSH2 0x78E DUP3 PUSH2 0x72C JUMP JUMPDEST PUSH2 0x798 DUP2 DUP6 PUSH2 0x737 JUMP JUMPDEST SWAP4 POP PUSH2 0x7A8 DUP2 DUP6 PUSH1 0x20 DUP7 ADD PUSH2 0x748 JUMP JUMPDEST PUSH2 0x7B1 DUP2 PUSH2 0x772 JUMP JUMPDEST DUP5 ADD SWAP2 POP POP SWAP3 SWAP2 POP POP JUMP JUMPDEST PUSH1 0x0 PUSH1 0x80 DUP3 ADD SWAP1 POP PUSH2 0x7D1 PUSH1 0x0 DUP4 ADD DUP8 PUSH2 0x71D JUMP JUMPDEST DUP2 DUP2 SUB PUSH1 0x20 DUP4 ADD MSTORE PUSH2 0x7E3 DUP2 DUP7 PUSH2 0x783 JUMP JUMPDEST SWAP1 POP PUSH2 0x7F2 PUSH1 0x40 DUP4 ADD DUP6 PUSH2 0x71D JUMP JUMPDEST PUSH2 0x7FF PUSH1 0x60 DUP4 ADD DUP5 PUSH2 0x71D JUMP JUMPDEST SWAP6 SWAP5 POP POP POP POP POP JUMP JUMPDEST PUSH1 0x0 DUP1 REVERT JUMPDEST PUSH1 0x0 DUP1 REVERT JUMPDEST PUSH1 0x0 DUP1 REVERT JUMPDEST PUSH1 0x0 DUP1 DUP4 PUSH1 0x1F DUP5 ADD SLT PUSH2 0x82D JUMPI PUSH2 0x82C PUSH2 0x808 JUMP JUMPDEST JUMPDEST DUP3 CALLDATALOAD SWAP1 POP PUSH8 0xFFFFFFFFFFFFFFFF DUP2 GT ISZERO PUSH2 0x84A JUMPI PUSH2 0x849 PUSH2 0x80D JUMP JUMPDEST JUMPDEST PUSH1 0x20 DUP4 ADD SWAP2 POP DUP4 PUSH1 0x1 DUP3 MUL DUP4 ADD GT ISZERO PUSH2 0x866 JUMPI PUSH2 0x865 PUSH2 0x812 JUMP JUMPDEST JUMPDEST SWAP3 POP SWAP3 SWAP1 POP JUMP JUMPDEST PUSH1 0x0 DUP1 PUSH1 0x20 DUP4 DUP6 SUB SLT ISZERO PUSH2 0x884 JUMPI PUSH2 0x883 PUSH2 0x6B0 JUMP JUMPDEST JUMPDEST PUSH1 0x0 DUP4 ADD CALLDATALOAD PUSH8 0xFFFFFFFFFFFFFFFF DUP2 GT ISZERO PUSH2 0x8A2 JUMPI PUSH2 0x8A1 PUSH2 0x6B5 JUMP JUMPDEST JUMPDEST PUSH2 0x8AE DUP6 DUP3 DUP7 ADD PUSH2 0x817 JUMP JUMPDEST SWAP3 POP SWAP3 POP POP SWAP3 POP SWAP3 SWAP1 POP JUMP JUMPDEST PUSH1 0x0 PUSH20 0xFFFFFFFFFFFFFFFFFFFFFFFFFFFFFFFFFFFFFFFF DUP3 AND SWAP1 POP SWAP2 SWAP1 POP JUMP JUMPDEST PUSH1 0x0 PUSH2 0x8E5 DUP3 PUSH2 0x8BA JUMP JUMPDEST SWAP1 POP SWAP2 SWAP1 POP JUMP JUMPDEST PUSH2 0x8F5 DUP2 PUSH2 0x8DA JUMP JUMPDEST DUP2 EQ PUSH2 0x900 JUMPI PUSH1 0x0 DUP1 REVERT JUMPDEST POP JUMP JUMPDEST PUSH1 0x0 DUP2 CALLDATALOAD SWAP1 POP PUSH2 0x912 DUP2 PUSH2 0x8EC JUMP JUMPDEST SWAP3 SWAP2 POP POP JUMP JUMPDEST PUSH1 0x0 DUP1 PUSH1 0x40 DUP4 DUP6 SUB SLT ISZERO PUSH2 0x92F JUMPI PUSH2 0x92E PUSH2 0x6B0 JUMP JUMPDEST JUMPDEST PUSH1 0x0 PUSH2 0x93D DUP6 DUP3 DUP7 ADD PUSH2 0x903 JUMP JUMPDEST SWAP3 POP POP PUSH1 0x20 PUSH2 0x94E DUP6 DUP3 DUP7 ADD PUSH2 0x6DB JUMP JUMPDEST SWAP2 POP POP SWAP3 POP SWAP3 SWAP1 POP JUMP JUMPDEST PUSH1 0x0 PUSH1 0x20 DUP3 ADD SWAP1 POP PUSH2 0x96D PUSH1 0x0 DUP4 ADD DUP5 PUSH2 0x71D JUMP JUMPDEST SWAP3 SWAP2 POP POP JUMP JUMPDEST PUSH1 0x0 DUP2 MLOAD SWAP1 POP SWAP2 SWAP1 POP JUMP JUMPDEST PUSH1 0x0 DUP3 DUP3 MSTORE PUSH1 0x20 DUP3 ADD SWAP1 POP SWAP3 SWAP2 POP POP JUMP JUMPDEST PUSH1 0x0 DUP2 SWAP1 POP PUSH1 0x20 DUP3 ADD SWAP1 POP SWAP2 SWAP1 POP JUMP JUMPDEST PUSH2 0x9A8 DUP2 PUSH2 0x6BA JUMP JUMPDEST DUP3 MSTORE POP POP JUMP JUMPDEST PUSH1 0x0 PUSH2 0x9BA DUP4 DUP4 PUSH2 0x99F JUMP JUMPDEST PUSH1 0x20 DUP4 ADD SWAP1 POP SWAP3 SWAP2 POP POP JUMP JUMPDEST PUSH1 0x0 PUSH1 0x20 DUP3 ADD SWAP1 POP SWAP2 SWAP1 POP JUMP JUMPDEST PUSH1 0x0 PUSH2 0x9DE DUP3 PUSH2 0x973 JUMP JUMPDEST PUSH2 0x9E8 DUP2 DUP6 PUSH2 0x97E JUMP JUMPDEST SWAP4 POP PUSH2 0x9F3 DUP4 PUSH2 0x98F JUMP JUMPDEST DUP1 PUSH1 0x0 JUMPDEST DUP4 DUP2 LT ISZERO PUSH2 0xA24 JUMPI DUP2 MLOAD PUSH2 0xA0B DUP9 DUP3 PUSH2 0x9AE JUMP JUMPDEST SWAP8 POP PUSH2 0xA16 DUP4 PUSH2 0x9C6 JUMP JUMPDEST SWAP3 POP POP PUSH1 0x1 DUP2 ADD SWAP1 POP PUSH2 0x9F7 JUMP JUMPDEST POP DUP6 SWAP4 POP POP POP POP SWAP3 SWAP2 POP POP JUMP JUMPDEST PUSH1 0x0 PUSH1 0x20 DUP3 ADD SWAP1 POP DUP2 DUP2 SUB PUSH1 0x0 DUP4 ADD MSTORE PUSH2 0xA4B DUP2 DUP5 PUSH2 0x9D3 JUMP JUMPDEST SWAP1 POP SWAP3 SWAP2 POP POP JUMP JUMPDEST PUSH32 0x4E487B7100000000000000000000000000000000000000000000000000000000 PUSH1 0x0 MSTORE PUSH1 0x22 PUSH1 0x4 MSTORE PUSH1 0x24 PUSH1 0x0 REVERT JUMPDEST PUSH1 0x0 PUSH1 0x2 DUP3 DIV SWAP1 POP PUSH1 0x1 DUP3 AND DUP1 PUSH2 0xA9A JUMPI PUSH1 0x7F DUP3 AND SWAP2 POP JUMPDEST PUSH1 0x20 DUP3 LT DUP2 SUB PUSH2 0xAAD JUMPI PUSH2 0xAAC PUSH2 0xA53 JUMP JUMPDEST JUMPDEST POP SWAP2 SWAP1 POP JUMP JUMPDEST PUSH32 0x416D6F756E742073686F756C6420626520302E30312045746865720000000000 PUSH1 0x0 DUP3 ADD MSTORE POP JUMP JUMPDEST PUSH1 0x0 PUSH2 0xAE9 PUSH1 0x1B DUP4 PUSH2 0x737 JUMP JUMPDEST SWAP2 POP PUSH2 0xAF4 DUP3 PUSH2 0xAB3 JUMP JUMPDEST PUSH1 0x20 DUP3 ADD SWAP1 POP SWAP2 SWAP1 POP JUMP JUMPDEST PUSH1 0x0 PUSH1 0x20 DUP3 ADD SWAP1 POP DUP2 DUP2 SUB PUSH1 0x0 DUP4 ADD MSTORE PUSH2 0xB18 DUP2 PUSH2 0xADC JUMP JUMPDEST SWAP1 POP SWAP2 SWAP1 POP JUMP JUMPDEST PUSH32 0x4E487B7100000000000000000000000000000000000000000000000000000000 PUSH1 0x0 MSTORE PUSH1 0x32 PUSH1 0x4 MSTORE PUSH1 0x24 PUSH1 0x0 REVERT JUMPDEST PUSH32 0x4E487B7100000000000000000000000000000000000000000000000000000000 PUSH1 0x0 MSTORE PUSH1 0x11 PUSH1 0x4 MSTORE PUSH1 0x24 PUSH1 0x0 REVERT JUMPDEST PUSH1 0x0 PUSH2 0xB88 DUP3 PUSH2 0x6BA JUMP JUMPDEST SWAP2 POP PUSH2 0xB93 DUP4 PUSH2 0x6BA JUMP JUMPDEST SWAP3 POP DUP3 DUP3 ADD SWAP1 POP DUP1 DUP3 GT ISZERO PUSH2 0xBAB JUMPI PUSH2 0xBAA PUSH2 0xB4E JUMP JUMPDEST JUMPDEST SWAP3 SWAP2 POP POP JUMP JUMPDEST PUSH1 0x0 DUP2 SWAP1 POP SWAP3 SWAP2 POP POP JUMP JUMPDEST DUP3 DUP2 DUP4 CALLDATACOPY PUSH1 0x0 DUP4 DUP4 ADD MSTORE POP POP POP JUMP JUMPDEST PUSH1 0x0 PUSH2 0xBD7 DUP4 DUP6 PUSH2 0xBB1 JUMP JUMPDEST SWAP4 POP PUSH2 0xBE4 DUP4 DUP6 DUP5 PUSH2 0xBBC JUMP JUMPDEST DUP3 DUP5 ADD SWAP1 POP SWAP4 SWAP3 POP POP POP JUMP JUMPDEST PUSH1 0x0 DUP2 SWAP1 POP SWAP2 SWAP1 POP JUMP JUMPDEST PUSH2 0xC0B PUSH2 0xC06 DUP3 PUSH2 0x6BA JUMP JUMPDEST PUSH2 0xBF0 JUMP JUMPDEST DUP3 MSTORE POP POP JUMP JUMPDEST PUSH1 0x0 PUSH2 0xC1E DUP3 DUP6 DUP8 PUSH2 0xBCB JUMP JUMPDEST SWAP2 POP PUSH2 0xC2A DUP3 DUP5 PUSH2 0xBFA JUMP JUMPDEST PUSH1 0x20 DUP3 ADD SWAP2 POP DUP2 SWAP1 POP SWAP5 SWAP4 POP POP POP POP JUMP JUMPDEST PUSH32 0x4E487B7100000000000000000000000000000000000000000000000000000000 PUSH1 0x0 MSTORE PUSH1 0x12 PUSH1 0x4 MSTORE PUSH1 0x24 PUSH1 0x0 REVERT JUMPDEST PUSH1 0x0 PUSH2 0xC75 DUP3 PUSH2 0x6BA JUMP JUMPDEST SWAP2 POP PUSH2 0xC80 DUP4 PUSH2 0x6BA JUMP JUMPDEST SWAP3 POP DUP3 PUSH2 0xC90 JUMPI PUSH2 0xC8F PUSH2 0xC3B JUMP JUMPDEST JUMPDEST DUP3 DUP3 MOD SWAP1 POP SWAP3 SWAP2 POP POP JUMP JUMPDEST PUSH1 0x0 PUSH2 0xCA6 DUP3 PUSH2 0x6BA JUMP JUMPDEST SWAP2 POP PUSH2 0xCB1 DUP4 PUSH2 0x6BA JUMP JUMPDEST SWAP3 POP DUP3 DUP3 MUL PUSH2 0xCBF DUP2 PUSH2 0x6BA JUMP JUMPDEST SWAP2 POP DUP3 DUP3 DIV DUP5 EQ DUP4 ISZERO OR PUSH2 0xCD6 JUMPI PUSH2 0xCD5 PUSH2 0xB4E JUMP JUMPDEST JUMPDEST POP SWAP3 SWAP2 POP POP JUMP JUMPDEST PUSH32 0x4E487B7100000000000000000000000000000000000000000000000000000000 PUSH1 0x0 MSTORE PUSH1 0x41 PUSH1 0x4 MSTORE PUSH1 0x24 PUSH1 0x0 REVERT JUMPDEST PUSH1 0x0 DUP2 SWAP1 POP DUP2 PUSH1 0x0 MSTORE PUSH1 0x20 PUSH1 0x0 KECCAK256 SWAP1 POP SWAP2 SWAP1 POP JUMP JUMPDEST PUSH1 0x0 PUSH1 0x20 PUSH1 0x1F DUP4 ADD DIV SWAP1 POP SWAP2 SWAP1 POP JUMP JUMPDEST PUSH1 0x0 DUP3 DUP3 SHL SWAP1 POP SWAP3 SWAP2 POP POP JUMP JUMPDEST PUSH1 0x0 PUSH1 0x8 DUP4 MUL PUSH2 0xD6E PUSH32 0xFFFFFFFFFFFFFFFFFFFFFFFFFFFFFFFFFFFFFFFFFFFFFFFFFFFFFFFFFFFFFFFF DUP3 PUSH2 0xD31 JUMP JUMPDEST PUSH2 0xD78 DUP7 DUP4 PUSH2 0xD31 JUMP JUMPDEST SWAP6 POP DUP1 NOT DUP5 AND SWAP4 POP DUP1 DUP7 AND DUP5 OR SWAP3 POP POP POP SWAP4 SWAP3 POP POP POP JUMP JUMPDEST PUSH1 0x0 DUP2 SWAP1 POP SWAP2 SWAP1 POP JUMP JUMPDEST PUSH1 0x0 PUSH2 0xDB5 PUSH2 0xDB0 PUSH2 0xDAB DUP5 PUSH2 0x6BA JUMP JUMPDEST PUSH2 0xD90 JUMP JUMPDEST PUSH2 0x6BA JUMP JUMPDEST SWAP1 POP SWAP2 SWAP1 POP JUMP JUMPDEST PUSH1 0x0 DUP2 SWAP1 POP SWAP2 SWAP1 POP JUMP JUMPDEST PUSH2 0xDCF DUP4 PUSH2 0xD9A JUMP JUMPDEST PUSH2 0xDE3 PUSH2 0xDDB DUP3 PUSH2 0xDBC JUMP JUMPDEST DUP5 DUP5 SLOAD PUSH2 0xD3E JUMP JUMPDEST DUP3 SSTORE POP POP POP POP JUMP JUMPDEST PUSH1 0x0 SWAP1 JUMP JUMPDEST PUSH2 0xDF8 PUSH2 0xDEB JUMP JUMPDEST PUSH2 0xE03 DUP2 DUP5 DUP5 PUSH2 0xDC6 JUMP JUMPDEST POP POP POP JUMP JUMPDEST JUMPDEST DUP2 DUP2 LT ISZERO PUSH2 0xE27 JUMPI PUSH2 0xE1C PUSH1 0x0 DUP3 PUSH2 0xDF0 JUMP JUMPDEST PUSH1 0x1 DUP2 ADD SWAP1 POP PUSH2 0xE09 JUMP JUMPDEST POP POP JUMP JUMPDEST PUSH1 0x1F DUP3 GT ISZERO PUSH2 0xE6C JUMPI PUSH2 0xE3D DUP2 PUSH2 0xD0C JUMP JUMPDEST PUSH2 0xE46 DUP5 PUSH2 0xD21 JUMP JUMPDEST DUP2 ADD PUSH1 0x20 DUP6 LT ISZERO PUSH2 0xE55 JUMPI DUP2 SWAP1 POP JUMPDEST PUSH2 0xE69 PUSH2 0xE61 DUP6 PUSH2 0xD21 JUMP JUMPDEST DUP4 ADD DUP3 PUSH2 0xE08 JUMP JUMPDEST POP POP JUMPDEST POP POP POP JUMP JUMPDEST PUSH1 0x0 DUP3 DUP3 SHR SWAP1 POP SWAP3 SWAP2 POP POP JUMP JUMPDEST PUSH1 0x0 PUSH2 0xE8F PUSH1 0x0 NOT DUP5 PUSH1 0x8 MUL PUSH2 0xE71 JUMP JUMPDEST NOT DUP1 DUP4 AND SWAP2 POP POP SWAP3 SWAP2 POP POP JUMP JUMPDEST PUSH1 0x0 PUSH2 0xEA8 DUP4 DUP4 PUSH2 0xE7E JUMP JUMPDEST SWAP2 POP DUP3 PUSH1 0x2 MUL DUP3 OR SWAP1 POP SWAP3 SWAP2 POP POP JUMP JUMPDEST PUSH2 0xEC1 DUP3 PUSH2 0x72C JUMP JUMPDEST PUSH8 0xFFFFFFFFFFFFFFFF DUP2 GT ISZERO PUSH2 0xEDA JUMPI PUSH2 0xED9 PUSH2 0xCDD JUMP JUMPDEST JUMPDEST PUSH2 0xEE4 DUP3 SLOAD PUSH2 0xA82 JUMP JUMPDEST PUSH2 0xEEF DUP3 DUP3 DUP6 PUSH2 0xE2B JUMP JUMPDEST PUSH1 0x0 PUSH1 0x20 SWAP1 POP PUSH1 0x1F DUP4 GT PUSH1 0x1 DUP2 EQ PUSH2 0xF22 JUMPI PUSH1 0x0 DUP5 ISZERO PUSH2 0xF10 JUMPI DUP3 DUP8 ADD MLOAD SWAP1 POP JUMPDEST PUSH2 0xF1A DUP6 DUP3 PUSH2 0xE9C JUMP JUMPDEST DUP7 SSTORE POP PUSH2 0xF82 JUMP JUMPDEST PUSH1 0x1F NOT DUP5 AND PUSH2 0xF30 DUP7 PUSH2 0xD0C JUMP JUMPDEST PUSH1 0x0 JUMPDEST DUP3 DUP2 LT ISZERO PUSH2 0xF58 JUMPI DUP5 DUP10 ADD MLOAD DUP3 SSTORE PUSH1 0x1 DUP3 ADD SWAP2 POP PUSH1 0x20 DUP6 ADD SWAP5 POP PUSH1 0x20 DUP2 ADD SWAP1 POP PUSH2 0xF33 JUMP JUMPDEST DUP7 DUP4 LT ISZERO PUSH2 0xF75 JUMPI DUP5 DUP10 ADD MLOAD PUSH2 0xF71 PUSH1 0x1F DUP10 AND DUP3 PUSH2 0xE7E JUMP JUMPDEST DUP4 SSTORE POP JUMPDEST PUSH1 0x1 PUSH1 0x2 DUP9 MUL ADD DUP9 SSTORE POP POP POP JUMPDEST POP POP POP POP POP POP JUMP INVALID LOG2 PUSH5 0x6970667358 0x22 SLT KECCAK256 0xE EQ 0xB3 0xB3 0xE3 EXTCODESIZE POP DUP11 0xDC PUSH17 0xD563E5DAAD702C9B97644CB057622BDE2D 0xEF EXP DUP16 0xF6 PUSH32 0x64736F6C63430008130033000000000000000000000000000000000000000000 "
				},
				"gasEstimates": {
					"creation": {
						"codeDepositCost": "806400",
						"executionCost": "838",
						"totalCost": "807238"
					},
					"external": {
						"addAttack(uint256)": "infinite",
						"addDefense(uint256)": "infinite",
						"create(string)": "infinite",
						"listMyPokemons()": "infinite",
						"ownerToPokemonIds(address,uint256)": "infinite",
						"pokemonIdToIdx(uint256)": "infinite",
						"pokemons(uint256)": "infinite"
					}
				},
				"methodIdentifiers": {
					"addAttack(uint256)": "ee423194",
					"addDefense(uint256)": "91a2fa95",
					"create(string)": "b6a46b3b",
					"listMyPokemons()": "f83cf120",
					"ownerToPokemonIds(address,uint256)": "daa6296b",
					"pokemonIdToIdx(uint256)": "f03a2aec",
					"pokemons(uint256)": "85831079"
				}
			},
			"storageLayout": {
				"storage": [
					{
						"astId": 14,
						"contract": "appworks_blockchain_batch2/contracts/wk4/PokemonGame.sol:PokemonGame",
						"label": "pokemons",
						"offset": 0,
						"slot": "0",
						"type": "t_array(t_struct(Pokemon)10_storage)dyn_storage"
					},
					{
						"astId": 18,
						"contract": "appworks_blockchain_batch2/contracts/wk4/PokemonGame.sol:PokemonGame",
						"label": "pokemonIdToIdx",
						"offset": 0,
						"slot": "1",
						"type": "t_mapping(t_uint256,t_uint256)"
					},
					{
						"astId": 23,
						"contract": "appworks_blockchain_batch2/contracts/wk4/PokemonGame.sol:PokemonGame",
						"label": "ownerToPokemonIds",
						"offset": 0,
						"slot": "2",
						"type": "t_mapping(t_address,t_array(t_uint256)dyn_storage)"
					}
				],
				"types": {
					"t_address": {
						"encoding": "inplace",
						"label": "address",
						"numberOfBytes": "20"
					},
					"t_array(t_struct(Pokemon)10_storage)dyn_storage": {
						"base": "t_struct(Pokemon)10_storage",
						"encoding": "dynamic_array",
						"label": "struct PokemonGame.Pokemon[]",
						"numberOfBytes": "32"
					},
					"t_array(t_uint256)dyn_storage": {
						"base": "t_uint256",
						"encoding": "dynamic_array",
						"label": "uint256[]",
						"numberOfBytes": "32"
					},
					"t_mapping(t_address,t_array(t_uint256)dyn_storage)": {
						"encoding": "mapping",
						"key": "t_address",
						"label": "mapping(address => uint256[])",
						"numberOfBytes": "32",
						"value": "t_array(t_uint256)dyn_storage"
					},
					"t_mapping(t_uint256,t_uint256)": {
						"encoding": "mapping",
						"key": "t_uint256",
						"label": "mapping(uint256 => uint256)",
						"numberOfBytes": "32",
						"value": "t_uint256"
					},
					"t_string_storage": {
						"encoding": "bytes",
						"label": "string",
						"numberOfBytes": "32"
					},
					"t_struct(Pokemon)10_storage": {
						"encoding": "inplace",
						"label": "struct PokemonGame.Pokemon",
						"members": [
							{
								"astId": 3,
								"contract": "appworks_blockchain_batch2/contracts/wk4/PokemonGame.sol:PokemonGame",
								"label": "id",
								"offset": 0,
								"slot": "0",
								"type": "t_uint256"
							},
							{
								"astId": 5,
								"contract": "appworks_blockchain_batch2/contracts/wk4/PokemonGame.sol:PokemonGame",
								"label": "name",
								"offset": 0,
								"slot": "1",
								"type": "t_string_storage"
							},
							{
								"astId": 7,
								"contract": "appworks_blockchain_batch2/contracts/wk4/PokemonGame.sol:PokemonGame",
								"label": "attack",
								"offset": 0,
								"slot": "2",
								"type": "t_uint256"
							},
							{
								"astId": 9,
								"contract": "appworks_blockchain_batch2/contracts/wk4/PokemonGame.sol:PokemonGame",
								"label": "defense",
								"offset": 0,
								"slot": "3",
								"type": "t_uint256"
							}
						],
						"numberOfBytes": "128"
					},
					"t_uint256": {
						"encoding": "inplace",
						"label": "uint256",
						"numberOfBytes": "32"
					}
				}
			},
			"userdoc": {
				"kind": "user",
				"methods": {},
				"version": 1
			}
		}
	}
}