{
	"appworks_blockchain_batch2/contracts/wk4/PokemonGame.sol": {
		"PokemonGame": {
			"abi": [
				{
					"inputs": [
						{
							"internalType": "uint256",
							"name": "_id",
							"type": "uint256"
						}
					],
					"name": "addAttack",
					"outputs": [],
					"stateMutability": "payable",
					"type": "function"
				},
				{
					"inputs": [
						{
							"internalType": "uint256",
							"name": "_id",
							"type": "uint256"
						}
					],
					"name": "addDefense",
					"outputs": [],
					"stateMutability": "payable",
					"type": "function"
				},
				{
					"inputs": [
						{
							"internalType": "string",
							"name": "_name",
							"type": "string"
						}
					],
					"name": "create",
					"outputs": [],
					"stateMutability": "nonpayable",
					"type": "function"
				},
				{
					"inputs": [],
					"name": "listMyPokemons",
					"outputs": [
						{
							"internalType": "uint256[]",
							"name": "",
							"type": "uint256[]"
						}
					],
					"stateMutability": "view",
					"type": "function"
				},
				{
					"inputs": [
						{
							"internalType": "address",
							"name": "",
							"type": "address"
						},
						{
							"internalType": "uint256",
							"name": "",
							"type": "uint256"
						}
					],
					"name": "ownerToPokemonIds",
					"outputs": [
						{
							"internalType": "uint256",
							"name": "",
							"type": "uint256"
						}
					],
					"stateMutability": "view",
					"type": "function"
				},
				{
					"inputs": [
						{
							"internalType": "uint256",
							"name": "",
							"type": "uint256"
						}
					],
					"name": "pokemons",
					"outputs": [
						{
							"internalType": "uint256",
							"name": "id",
							"type": "uint256"
						},
						{
							"internalType": "string",
							"name": "name",
							"type": "string"
						},
						{
							"internalType": "uint256",
							"name": "attack",
							"type": "uint256"
						},
						{
							"internalType": "uint256",
							"name": "defense",
							"type": "uint256"
						}
					],
					"stateMutability": "view",
					"type": "function"
				}
			],
			"devdoc": {
				"kind": "dev",
				"methods": {},
				"version": 1
			},
			"evm": {
				"assembly": "    /* \"appworks_blockchain_batch2/contracts/wk4/PokemonGame.sol\":418:2691  contract PokemonGame {... */\n  mstore(0x40, 0x80)\n  callvalue\n  dup1\n  iszero\n  tag_1\n  jumpi\n  0x00\n  dup1\n  revert\ntag_1:\n  pop\n  dataSize(sub_0)\n  dup1\n  dataOffset(sub_0)\n  0x00\n  codecopy\n  0x00\n  return\nstop\n\nsub_0: assembly {\n        /* \"appworks_blockchain_batch2/contracts/wk4/PokemonGame.sol\":418:2691  contract PokemonGame {... */\n      mstore(0x40, 0x80)\n      jumpi(tag_1, lt(calldatasize, 0x04))\n      shr(0xe0, calldataload(0x00))\n      dup1\n      0x85831079\n      eq\n      tag_2\n      jumpi\n      dup1\n      0x91a2fa95\n      eq\n      tag_3\n      jumpi\n      dup1\n      0xb6a46b3b\n      eq\n      tag_4\n      jumpi\n      dup1\n      0xdaa6296b\n      eq\n      tag_5\n      jumpi\n      dup1\n      0xee423194\n      eq\n      tag_6\n      jumpi\n      dup1\n      0xf83cf120\n      eq\n      tag_7\n      jumpi\n    tag_1:\n      0x00\n      dup1\n      revert\n        /* \"appworks_blockchain_batch2/contracts/wk4/PokemonGame.sol\":672:697  Pokemon[] public pokemons */\n    tag_2:\n      callvalue\n      dup1\n      iszero\n      tag_8\n      jumpi\n      0x00\n      dup1\n      revert\n    tag_8:\n      pop\n      tag_9\n      0x04\n      dup1\n      calldatasize\n      sub\n      dup2\n      add\n      swap1\n      tag_10\n      swap2\n      swap1\n      tag_11\n      jump\t// in\n    tag_10:\n      tag_12\n      jump\t// in\n    tag_9:\n      mload(0x40)\n      tag_13\n      swap5\n      swap4\n      swap3\n      swap2\n      swap1\n      tag_14\n      jump\t// in\n    tag_13:\n      mload(0x40)\n      dup1\n      swap2\n      sub\n      swap1\n      return\n        /* \"appworks_blockchain_batch2/contracts/wk4/PokemonGame.sol\":2462:2689  function addDefense(uint _id) external payable {... */\n    tag_3:\n      tag_15\n      0x04\n      dup1\n      calldatasize\n      sub\n      dup2\n      add\n      swap1\n      tag_16\n      swap2\n      swap1\n      tag_11\n      jump\t// in\n    tag_16:\n      tag_17\n      jump\t// in\n    tag_15:\n      stop\n        /* \"appworks_blockchain_batch2/contracts/wk4/PokemonGame.sol\":1383:1944  function create(string calldata _name) external {... */\n    tag_4:\n      callvalue\n      dup1\n      iszero\n      tag_18\n      jumpi\n      0x00\n      dup1\n      revert\n    tag_18:\n      pop\n      tag_19\n      0x04\n      dup1\n      calldatasize\n      sub\n      dup2\n      add\n      swap1\n      tag_20\n      swap2\n      swap1\n      tag_21\n      jump\t// in\n    tag_20:\n      tag_22\n      jump\t// in\n    tag_19:\n      stop\n        /* \"appworks_blockchain_batch2/contracts/wk4/PokemonGame.sol\":703:755  mapping (address => uint[]) public ownerToPokemonIds */\n    tag_5:\n      callvalue\n      dup1\n      iszero\n      tag_23\n      jumpi\n      0x00\n      dup1\n      revert\n    tag_23:\n      pop\n      tag_24\n      0x04\n      dup1\n      calldatasize\n      sub\n      dup2\n      add\n      swap1\n      tag_25\n      swap2\n      swap1\n      tag_26\n      jump\t// in\n    tag_25:\n      tag_27\n      jump\t// in\n    tag_24:\n      mload(0x40)\n      tag_28\n      swap2\n      swap1\n      tag_29\n      jump\t// in\n    tag_28:\n      mload(0x40)\n      dup1\n      swap2\n      sub\n      swap1\n      return\n        /* \"appworks_blockchain_batch2/contracts/wk4/PokemonGame.sol\":2171:2396  function addAttack(uint _id) external payable {... */\n    tag_6:\n      tag_30\n      0x04\n      dup1\n      calldatasize\n      sub\n      dup2\n      add\n      swap1\n      tag_31\n      swap2\n      swap1\n      tag_11\n      jump\t// in\n    tag_31:\n      tag_32\n      jump\t// in\n    tag_30:\n      stop\n        /* \"appworks_blockchain_batch2/contracts/wk4/PokemonGame.sol\":1989:2106  function listMyPokemons() external view returns (uint[] memory) {... */\n    tag_7:\n      callvalue\n      dup1\n      iszero\n      tag_33\n      jumpi\n      0x00\n      dup1\n      revert\n    tag_33:\n      pop\n      tag_34\n      tag_35\n      jump\t// in\n    tag_34:\n      mload(0x40)\n      tag_36\n      swap2\n      swap1\n      tag_37\n      jump\t// in\n    tag_36:\n      mload(0x40)\n      dup1\n      swap2\n      sub\n      swap1\n      return\n        /* \"appworks_blockchain_batch2/contracts/wk4/PokemonGame.sol\":672:697  Pokemon[] public pokemons */\n    tag_12:\n      0x00\n      dup2\n      dup2\n      sload\n      dup2\n      lt\n      tag_38\n      jumpi\n      0x00\n      dup1\n      revert\n    tag_38:\n      swap1\n      0x00\n      mstore\n      keccak256(0x00, 0x20)\n      swap1\n      0x04\n      mul\n      add\n      0x00\n      swap2\n      pop\n      swap1\n      pop\n      dup1\n      0x00\n      add\n      sload\n      swap1\n      dup1\n      0x01\n      add\n      dup1\n      sload\n      tag_40\n      swap1\n      tag_41\n      jump\t// in\n    tag_40:\n      dup1\n      0x1f\n      add\n      0x20\n      dup1\n      swap2\n      div\n      mul\n      0x20\n      add\n      mload(0x40)\n      swap1\n      dup2\n      add\n      0x40\n      mstore\n      dup1\n      swap3\n      swap2\n      swap1\n      dup2\n      dup2\n      mstore\n      0x20\n      add\n      dup3\n      dup1\n      sload\n      tag_42\n      swap1\n      tag_41\n      jump\t// in\n    tag_42:\n      dup1\n      iszero\n      tag_43\n      jumpi\n      dup1\n      0x1f\n      lt\n      tag_44\n      jumpi\n      0x0100\n      dup1\n      dup4\n      sload\n      div\n      mul\n      dup4\n      mstore\n      swap2\n      0x20\n      add\n      swap2\n      jump(tag_43)\n    tag_44:\n      dup3\n      add\n      swap2\n      swap1\n      0x00\n      mstore\n      keccak256(0x00, 0x20)\n      swap1\n    tag_45:\n      dup2\n      sload\n      dup2\n      mstore\n      swap1\n      0x01\n      add\n      swap1\n      0x20\n      add\n      dup1\n      dup4\n      gt\n      tag_45\n      jumpi\n      dup3\n      swap1\n      sub\n      0x1f\n      and\n      dup3\n      add\n      swap2\n    tag_43:\n      pop\n      pop\n      pop\n      pop\n      pop\n      swap1\n      dup1\n      0x02\n      add\n      sload\n      swap1\n      dup1\n      0x03\n      add\n      sload\n      swap1\n      pop\n      dup5\n      jump\t// out\n        /* \"appworks_blockchain_batch2/contracts/wk4/PokemonGame.sol\":2462:2689  function addDefense(uint _id) external payable {... */\n    tag_17:\n        /* \"appworks_blockchain_batch2/contracts/wk4/PokemonGame.sol\":2541:2551  0.01 ether */\n      0x2386f26fc10000\n        /* \"appworks_blockchain_batch2/contracts/wk4/PokemonGame.sol\":2528:2537  msg.value */\n      callvalue\n        /* \"appworks_blockchain_batch2/contracts/wk4/PokemonGame.sol\":2528:2551  msg.value == 0.01 ether */\n      eq\n        /* \"appworks_blockchain_batch2/contracts/wk4/PokemonGame.sol\":2519:2584  require((msg.value == 0.01 ether), \"Amount should be 0.01 Ether\") */\n      tag_47\n      jumpi\n      mload(0x40)\n      0x08c379a000000000000000000000000000000000000000000000000000000000\n      dup2\n      mstore\n      0x04\n      add\n      tag_48\n      swap1\n      tag_49\n      jump\t// in\n    tag_48:\n      mload(0x40)\n      dup1\n      swap2\n      sub\n      swap1\n      revert\n    tag_47:\n        /* \"appworks_blockchain_batch2/contracts/wk4/PokemonGame.sol\":2603:2627  Pokemon storage _pokemon */\n      0x00\n        /* \"appworks_blockchain_batch2/contracts/wk4/PokemonGame.sol\":2630:2638  pokemons */\n      dup1\n        /* \"appworks_blockchain_batch2/contracts/wk4/PokemonGame.sol\":2646:2647  1 */\n      0x01\n        /* \"appworks_blockchain_batch2/contracts/wk4/PokemonGame.sol\":2640:2643  _id */\n      dup4\n        /* \"appworks_blockchain_batch2/contracts/wk4/PokemonGame.sol\":2640:2647  _id - 1 */\n      tag_50\n      swap2\n      swap1\n      tag_51\n      jump\t// in\n    tag_50:\n        /* \"appworks_blockchain_batch2/contracts/wk4/PokemonGame.sol\":2630:2649  pokemons[(_id - 1)] */\n      dup2\n      sload\n      dup2\n      lt\n      tag_52\n      jumpi\n      tag_53\n      tag_54\n      jump\t// in\n    tag_53:\n    tag_52:\n      swap1\n      0x00\n      mstore\n      keccak256(0x00, 0x20)\n      swap1\n      0x04\n      mul\n      add\n        /* \"appworks_blockchain_batch2/contracts/wk4/PokemonGame.sol\":2603:2649  Pokemon storage _pokemon = pokemons[(_id - 1)] */\n      swap1\n      pop\n        /* \"appworks_blockchain_batch2/contracts/wk4/PokemonGame.sol\":2679:2682  100 */\n      0x64\n        /* \"appworks_blockchain_batch2/contracts/wk4/PokemonGame.sol\":2659:2667  _pokemon */\n      dup2\n        /* \"appworks_blockchain_batch2/contracts/wk4/PokemonGame.sol\":2659:2675  _pokemon.defense */\n      0x03\n      add\n      0x00\n        /* \"appworks_blockchain_batch2/contracts/wk4/PokemonGame.sol\":2659:2682  _pokemon.defense += 100 */\n      dup3\n      dup3\n      sload\n      tag_56\n      swap2\n      swap1\n      tag_57\n      jump\t// in\n    tag_56:\n      swap3\n      pop\n      pop\n      dup2\n      swap1\n      sstore\n      pop\n        /* \"appworks_blockchain_batch2/contracts/wk4/PokemonGame.sol\":2509:2689  {... */\n      pop\n        /* \"appworks_blockchain_batch2/contracts/wk4/PokemonGame.sol\":2462:2689  function addDefense(uint _id) external payable {... */\n      pop\n      jump\t// out\n        /* \"appworks_blockchain_batch2/contracts/wk4/PokemonGame.sol\":1383:1944  function create(string calldata _name) external {... */\n    tag_22:\n        /* \"appworks_blockchain_batch2/contracts/wk4/PokemonGame.sol\":1492:1504  uint _attack */\n      0x00\n        /* \"appworks_blockchain_batch2/contracts/wk4/PokemonGame.sol\":1574:1575  5 */\n      0x05\n        /* \"appworks_blockchain_batch2/contracts/wk4/PokemonGame.sol\":1567:1571  1000 */\n      0x03e8\n        /* \"appworks_blockchain_batch2/contracts/wk4/PokemonGame.sol\":1539:1544  _name */\n      dup5\n      dup5\n        /* \"appworks_blockchain_batch2/contracts/wk4/PokemonGame.sol\":1546:1561  block.timestamp */\n      timestamp\n        /* \"appworks_blockchain_batch2/contracts/wk4/PokemonGame.sol\":1522:1562  abi.encodePacked(_name, block.timestamp) */\n      add(0x20, mload(0x40))\n      tag_59\n      swap4\n      swap3\n      swap2\n      swap1\n      tag_60\n      jump\t// in\n    tag_59:\n      mload(0x40)\n      0x20\n      dup2\n      dup4\n      sub\n      sub\n      dup2\n      mstore\n      swap1\n      0x40\n      mstore\n        /* \"appworks_blockchain_batch2/contracts/wk4/PokemonGame.sol\":1512:1563  keccak256(abi.encodePacked(_name, block.timestamp)) */\n      dup1\n      mload\n      swap1\n      0x20\n      add\n      keccak256\n        /* \"appworks_blockchain_batch2/contracts/wk4/PokemonGame.sol\":1507:1564  uint(keccak256(abi.encodePacked(_name, block.timestamp))) */\n      0x00\n      shr\n        /* \"appworks_blockchain_batch2/contracts/wk4/PokemonGame.sol\":1507:1571  uint(keccak256(abi.encodePacked(_name, block.timestamp))) % 1000 */\n      tag_61\n      swap2\n      swap1\n      tag_62\n      jump\t// in\n    tag_61:\n        /* \"appworks_blockchain_batch2/contracts/wk4/PokemonGame.sol\":1507:1575  uint(keccak256(abi.encodePacked(_name, block.timestamp))) % 1000 * 5 */\n      tag_63\n      swap2\n      swap1\n      tag_64\n      jump\t// in\n    tag_63:\n        /* \"appworks_blockchain_batch2/contracts/wk4/PokemonGame.sol\":1492:1575  uint _attack = uint(keccak256(abi.encodePacked(_name, block.timestamp))) % 1000 * 5 */\n      swap1\n      pop\n        /* \"appworks_blockchain_batch2/contracts/wk4/PokemonGame.sol\":1585:1598  uint _defense */\n      0x00\n        /* \"appworks_blockchain_batch2/contracts/wk4/PokemonGame.sol\":1667:1669  60 */\n      0x3c\n        /* \"appworks_blockchain_batch2/contracts/wk4/PokemonGame.sol\":1661:1664  100 */\n      0x64\n        /* \"appworks_blockchain_batch2/contracts/wk4/PokemonGame.sol\":1633:1638  _name */\n      dup6\n      dup6\n        /* \"appworks_blockchain_batch2/contracts/wk4/PokemonGame.sol\":1640:1655  block.timestamp */\n      timestamp\n        /* \"appworks_blockchain_batch2/contracts/wk4/PokemonGame.sol\":1616:1656  abi.encodePacked(_name, block.timestamp) */\n      add(0x20, mload(0x40))\n      tag_65\n      swap4\n      swap3\n      swap2\n      swap1\n      tag_60\n      jump\t// in\n    tag_65:\n      mload(0x40)\n      0x20\n      dup2\n      dup4\n      sub\n      sub\n      dup2\n      mstore\n      swap1\n      0x40\n      mstore\n        /* \"appworks_blockchain_batch2/contracts/wk4/PokemonGame.sol\":1606:1657  keccak256(abi.encodePacked(_name, block.timestamp)) */\n      dup1\n      mload\n      swap1\n      0x20\n      add\n      keccak256\n        /* \"appworks_blockchain_batch2/contracts/wk4/PokemonGame.sol\":1601:1658  uint(keccak256(abi.encodePacked(_name, block.timestamp))) */\n      0x00\n      shr\n        /* \"appworks_blockchain_batch2/contracts/wk4/PokemonGame.sol\":1601:1664  uint(keccak256(abi.encodePacked(_name, block.timestamp))) % 100 */\n      tag_66\n      swap2\n      swap1\n      tag_62\n      jump\t// in\n    tag_66:\n        /* \"appworks_blockchain_batch2/contracts/wk4/PokemonGame.sol\":1601:1669  uint(keccak256(abi.encodePacked(_name, block.timestamp))) % 100 * 60 */\n      tag_67\n      swap2\n      swap1\n      tag_64\n      jump\t// in\n    tag_67:\n        /* \"appworks_blockchain_batch2/contracts/wk4/PokemonGame.sol\":1585:1669  uint _defense = uint(keccak256(abi.encodePacked(_name, block.timestamp))) % 100 * 60 */\n      swap1\n      pop\n        /* \"appworks_blockchain_batch2/contracts/wk4/PokemonGame.sol\":1708:1716  uint _id */\n      0x00\n        /* \"appworks_blockchain_batch2/contracts/wk4/PokemonGame.sol\":1737:1738  1 */\n      0x01\n        /* \"appworks_blockchain_batch2/contracts/wk4/PokemonGame.sol\":1719:1727  pokemons */\n      0x00\n        /* \"appworks_blockchain_batch2/contracts/wk4/PokemonGame.sol\":1719:1734  pokemons.length */\n      dup1\n      sload\n      swap1\n      pop\n        /* \"appworks_blockchain_batch2/contracts/wk4/PokemonGame.sol\":1719:1738  pokemons.length + 1 */\n      tag_68\n      swap2\n      swap1\n      tag_57\n      jump\t// in\n    tag_68:\n        /* \"appworks_blockchain_batch2/contracts/wk4/PokemonGame.sol\":1708:1738  uint _id = pokemons.length + 1 */\n      swap1\n      pop\n        /* \"appworks_blockchain_batch2/contracts/wk4/PokemonGame.sol\":1748:1771  Pokemon memory _pokemon */\n      0x00\n        /* \"appworks_blockchain_batch2/contracts/wk4/PokemonGame.sol\":1774:1812  Pokemon(_id, _name, _attack, _defense) */\n      mload(0x40)\n      dup1\n      0x80\n      add\n      0x40\n      mstore\n      dup1\n        /* \"appworks_blockchain_batch2/contracts/wk4/PokemonGame.sol\":1782:1785  _id */\n      dup4\n        /* \"appworks_blockchain_batch2/contracts/wk4/PokemonGame.sol\":1774:1812  Pokemon(_id, _name, _attack, _defense) */\n      dup2\n      mstore\n      0x20\n      add\n        /* \"appworks_blockchain_batch2/contracts/wk4/PokemonGame.sol\":1787:1792  _name */\n      dup8\n      dup8\n        /* \"appworks_blockchain_batch2/contracts/wk4/PokemonGame.sol\":1774:1812  Pokemon(_id, _name, _attack, _defense) */\n      dup1\n      dup1\n      0x1f\n      add\n      0x20\n      dup1\n      swap2\n      div\n      mul\n      0x20\n      add\n      mload(0x40)\n      swap1\n      dup2\n      add\n      0x40\n      mstore\n      dup1\n      swap4\n      swap3\n      swap2\n      swap1\n      dup2\n      dup2\n      mstore\n      0x20\n      add\n      dup4\n      dup4\n      dup1\n      dup3\n      dup5\n      calldatacopy\n      0x00\n      dup2\n      dup5\n      add\n      mstore\n      not(0x1f)\n      0x1f\n      dup3\n      add\n      and\n      swap1\n      pop\n      dup1\n      dup4\n      add\n      swap3\n      pop\n      pop\n      pop\n      pop\n      pop\n      pop\n      pop\n      dup2\n      mstore\n      0x20\n      add\n        /* \"appworks_blockchain_batch2/contracts/wk4/PokemonGame.sol\":1794:1801  _attack */\n      dup6\n        /* \"appworks_blockchain_batch2/contracts/wk4/PokemonGame.sol\":1774:1812  Pokemon(_id, _name, _attack, _defense) */\n      dup2\n      mstore\n      0x20\n      add\n        /* \"appworks_blockchain_batch2/contracts/wk4/PokemonGame.sol\":1803:1811  _defense */\n      dup5\n        /* \"appworks_blockchain_batch2/contracts/wk4/PokemonGame.sol\":1774:1812  Pokemon(_id, _name, _attack, _defense) */\n      dup2\n      mstore\n      pop\n        /* \"appworks_blockchain_batch2/contracts/wk4/PokemonGame.sol\":1748:1812  Pokemon memory _pokemon = Pokemon(_id, _name, _attack, _defense) */\n      swap1\n      pop\n        /* \"appworks_blockchain_batch2/contracts/wk4/PokemonGame.sol\":1865:1873  pokemons */\n      0x00\n        /* \"appworks_blockchain_batch2/contracts/wk4/PokemonGame.sol\":1879:1887  _pokemon */\n      dup2\n        /* \"appworks_blockchain_batch2/contracts/wk4/PokemonGame.sol\":1865:1888  pokemons.push(_pokemon) */\n      swap1\n      dup1\n      0x01\n      dup2\n      sload\n      add\n      dup1\n      dup3\n      sstore\n      dup1\n      swap2\n      pop\n      pop\n      0x01\n      swap1\n      sub\n      swap1\n      0x00\n      mstore\n      keccak256(0x00, 0x20)\n      swap1\n      0x04\n      mul\n      add\n      0x00\n      swap1\n      swap2\n      swap1\n      swap2\n      swap1\n      swap2\n      pop\n      0x00\n      dup3\n      add\n      mload\n      dup2\n      0x00\n      add\n      sstore\n      0x20\n      dup3\n      add\n      mload\n      dup2\n      0x01\n      add\n      swap1\n      dup2\n      tag_70\n      swap2\n      swap1\n      tag_71\n      jump\t// in\n    tag_70:\n      pop\n      0x40\n      dup3\n      add\n      mload\n      dup2\n      0x02\n      add\n      sstore\n      0x60\n      dup3\n      add\n      mload\n      dup2\n      0x03\n      add\n      sstore\n      pop\n      pop\n        /* \"appworks_blockchain_batch2/contracts/wk4/PokemonGame.sol\":1898:1915  ownerToPokemonIds */\n      0x01\n        /* \"appworks_blockchain_batch2/contracts/wk4/PokemonGame.sol\":1898:1927  ownerToPokemonIds[msg.sender] */\n      0x00\n        /* \"appworks_blockchain_batch2/contracts/wk4/PokemonGame.sol\":1916:1926  msg.sender */\n      caller\n        /* \"appworks_blockchain_batch2/contracts/wk4/PokemonGame.sol\":1898:1927  ownerToPokemonIds[msg.sender] */\n      0xffffffffffffffffffffffffffffffffffffffff\n      and\n      0xffffffffffffffffffffffffffffffffffffffff\n      and\n      dup2\n      mstore\n      0x20\n      add\n      swap1\n      dup2\n      mstore\n      0x20\n      add\n      0x00\n      keccak256\n        /* \"appworks_blockchain_batch2/contracts/wk4/PokemonGame.sol\":1933:1936  _id */\n      dup3\n        /* \"appworks_blockchain_batch2/contracts/wk4/PokemonGame.sol\":1898:1937  ownerToPokemonIds[msg.sender].push(_id) */\n      swap1\n      dup1\n      0x01\n      dup2\n      sload\n      add\n      dup1\n      dup3\n      sstore\n      dup1\n      swap2\n      pop\n      pop\n      0x01\n      swap1\n      sub\n      swap1\n      0x00\n      mstore\n      keccak256(0x00, 0x20)\n      add\n      0x00\n      swap1\n      swap2\n      swap1\n      swap2\n      swap1\n      swap2\n      pop\n      sstore\n        /* \"appworks_blockchain_batch2/contracts/wk4/PokemonGame.sol\":1431:1944  {... */\n      pop\n      pop\n      pop\n      pop\n        /* \"appworks_blockchain_batch2/contracts/wk4/PokemonGame.sol\":1383:1944  function create(string calldata _name) external {... */\n      pop\n      pop\n      jump\t// out\n        /* \"appworks_blockchain_batch2/contracts/wk4/PokemonGame.sol\":703:755  mapping (address => uint[]) public ownerToPokemonIds */\n    tag_27:\n      mstore(0x20, 0x01)\n      dup2\n      0x00\n      mstore\n      keccak256(0x00, 0x40)\n      dup2\n      dup2\n      sload\n      dup2\n      lt\n      tag_73\n      jumpi\n      0x00\n      dup1\n      revert\n    tag_73:\n      swap1\n      0x00\n      mstore\n      keccak256(0x00, 0x20)\n      add\n      0x00\n      swap2\n      pop\n      swap2\n      pop\n      pop\n      sload\n      dup2\n      jump\t// out\n        /* \"appworks_blockchain_batch2/contracts/wk4/PokemonGame.sol\":2171:2396  function addAttack(uint _id) external payable {... */\n    tag_32:\n        /* \"appworks_blockchain_batch2/contracts/wk4/PokemonGame.sol\":2249:2259  0.01 ether */\n      0x2386f26fc10000\n        /* \"appworks_blockchain_batch2/contracts/wk4/PokemonGame.sol\":2236:2245  msg.value */\n      callvalue\n        /* \"appworks_blockchain_batch2/contracts/wk4/PokemonGame.sol\":2236:2259  msg.value == 0.01 ether */\n      eq\n        /* \"appworks_blockchain_batch2/contracts/wk4/PokemonGame.sol\":2227:2292  require((msg.value == 0.01 ether), \"Amount should be 0.01 Ether\") */\n      tag_76\n      jumpi\n      mload(0x40)\n      0x08c379a000000000000000000000000000000000000000000000000000000000\n      dup2\n      mstore\n      0x04\n      add\n      tag_77\n      swap1\n      tag_49\n      jump\t// in\n    tag_77:\n      mload(0x40)\n      dup1\n      swap2\n      sub\n      swap1\n      revert\n    tag_76:\n        /* \"appworks_blockchain_batch2/contracts/wk4/PokemonGame.sol\":2311:2335  Pokemon storage _pokemon */\n      0x00\n        /* \"appworks_blockchain_batch2/contracts/wk4/PokemonGame.sol\":2338:2346  pokemons */\n      dup1\n        /* \"appworks_blockchain_batch2/contracts/wk4/PokemonGame.sol\":2354:2355  1 */\n      0x01\n        /* \"appworks_blockchain_batch2/contracts/wk4/PokemonGame.sol\":2348:2351  _id */\n      dup4\n        /* \"appworks_blockchain_batch2/contracts/wk4/PokemonGame.sol\":2348:2355  _id - 1 */\n      tag_78\n      swap2\n      swap1\n      tag_51\n      jump\t// in\n    tag_78:\n        /* \"appworks_blockchain_batch2/contracts/wk4/PokemonGame.sol\":2338:2357  pokemons[(_id - 1)] */\n      dup2\n      sload\n      dup2\n      lt\n      tag_79\n      jumpi\n      tag_80\n      tag_54\n      jump\t// in\n    tag_80:\n    tag_79:\n      swap1\n      0x00\n      mstore\n      keccak256(0x00, 0x20)\n      swap1\n      0x04\n      mul\n      add\n        /* \"appworks_blockchain_batch2/contracts/wk4/PokemonGame.sol\":2311:2357  Pokemon storage _pokemon = pokemons[(_id - 1)] */\n      swap1\n      pop\n        /* \"appworks_blockchain_batch2/contracts/wk4/PokemonGame.sol\":2386:2389  100 */\n      0x64\n        /* \"appworks_blockchain_batch2/contracts/wk4/PokemonGame.sol\":2367:2375  _pokemon */\n      dup2\n        /* \"appworks_blockchain_batch2/contracts/wk4/PokemonGame.sol\":2367:2382  _pokemon.attack */\n      0x02\n      add\n      0x00\n        /* \"appworks_blockchain_batch2/contracts/wk4/PokemonGame.sol\":2367:2389  _pokemon.attack += 100 */\n      dup3\n      dup3\n      sload\n      tag_82\n      swap2\n      swap1\n      tag_57\n      jump\t// in\n    tag_82:\n      swap3\n      pop\n      pop\n      dup2\n      swap1\n      sstore\n      pop\n        /* \"appworks_blockchain_batch2/contracts/wk4/PokemonGame.sol\":2217:2396  {... */\n      pop\n        /* \"appworks_blockchain_batch2/contracts/wk4/PokemonGame.sol\":2171:2396  function addAttack(uint _id) external payable {... */\n      pop\n      jump\t// out\n        /* \"appworks_blockchain_batch2/contracts/wk4/PokemonGame.sol\":1989:2106  function listMyPokemons() external view returns (uint[] memory) {... */\n    tag_35:\n        /* \"appworks_blockchain_batch2/contracts/wk4/PokemonGame.sol\":2038:2051  uint[] memory */\n      0x60\n        /* \"appworks_blockchain_batch2/contracts/wk4/PokemonGame.sol\":2070:2087  ownerToPokemonIds */\n      0x01\n        /* \"appworks_blockchain_batch2/contracts/wk4/PokemonGame.sol\":2070:2099  ownerToPokemonIds[msg.sender] */\n      0x00\n        /* \"appworks_blockchain_batch2/contracts/wk4/PokemonGame.sol\":2088:2098  msg.sender */\n      caller\n        /* \"appworks_blockchain_batch2/contracts/wk4/PokemonGame.sol\":2070:2099  ownerToPokemonIds[msg.sender] */\n      0xffffffffffffffffffffffffffffffffffffffff\n      and\n      0xffffffffffffffffffffffffffffffffffffffff\n      and\n      dup2\n      mstore\n      0x20\n      add\n      swap1\n      dup2\n      mstore\n      0x20\n      add\n      0x00\n      keccak256\n        /* \"appworks_blockchain_batch2/contracts/wk4/PokemonGame.sol\":2063:2099  return ownerToPokemonIds[msg.sender] */\n      dup1\n      sload\n      dup1\n      0x20\n      mul\n      0x20\n      add\n      mload(0x40)\n      swap1\n      dup2\n      add\n      0x40\n      mstore\n      dup1\n      swap3\n      swap2\n      swap1\n      dup2\n      dup2\n      mstore\n      0x20\n      add\n      dup3\n      dup1\n      sload\n      dup1\n      iszero\n      tag_84\n      jumpi\n      0x20\n      mul\n      dup3\n      add\n      swap2\n      swap1\n      0x00\n      mstore\n      keccak256(0x00, 0x20)\n      swap1\n    tag_85:\n      dup2\n      sload\n      dup2\n      mstore\n      0x20\n      add\n      swap1\n      0x01\n      add\n      swap1\n      dup1\n      dup4\n      gt\n      tag_85\n      jumpi\n    tag_84:\n      pop\n      pop\n      pop\n      pop\n      pop\n      swap1\n      pop\n        /* \"appworks_blockchain_batch2/contracts/wk4/PokemonGame.sol\":1989:2106  function listMyPokemons() external view returns (uint[] memory) {... */\n      swap1\n      jump\t// out\n        /* \"#utility.yul\":88:205   */\n    tag_87:\n        /* \"#utility.yul\":197:198   */\n      0x00\n        /* \"#utility.yul\":194:195   */\n      dup1\n        /* \"#utility.yul\":187:199   */\n      revert\n        /* \"#utility.yul\":211:328   */\n    tag_88:\n        /* \"#utility.yul\":320:321   */\n      0x00\n        /* \"#utility.yul\":317:318   */\n      dup1\n        /* \"#utility.yul\":310:322   */\n      revert\n        /* \"#utility.yul\":334:411   */\n    tag_89:\n        /* \"#utility.yul\":371:378   */\n      0x00\n        /* \"#utility.yul\":400:405   */\n      dup2\n        /* \"#utility.yul\":389:405   */\n      swap1\n      pop\n        /* \"#utility.yul\":334:411   */\n      swap2\n      swap1\n      pop\n      jump\t// out\n        /* \"#utility.yul\":417:539   */\n    tag_90:\n        /* \"#utility.yul\":490:514   */\n      tag_145\n        /* \"#utility.yul\":508:513   */\n      dup2\n        /* \"#utility.yul\":490:514   */\n      tag_89\n      jump\t// in\n    tag_145:\n        /* \"#utility.yul\":483:488   */\n      dup2\n        /* \"#utility.yul\":480:515   */\n      eq\n        /* \"#utility.yul\":470:533   */\n      tag_146\n      jumpi\n        /* \"#utility.yul\":529:530   */\n      0x00\n        /* \"#utility.yul\":526:527   */\n      dup1\n        /* \"#utility.yul\":519:531   */\n      revert\n        /* \"#utility.yul\":470:533   */\n    tag_146:\n        /* \"#utility.yul\":417:539   */\n      pop\n      jump\t// out\n        /* \"#utility.yul\":545:684   */\n    tag_91:\n        /* \"#utility.yul\":591:596   */\n      0x00\n        /* \"#utility.yul\":629:635   */\n      dup2\n        /* \"#utility.yul\":616:636   */\n      calldataload\n        /* \"#utility.yul\":607:636   */\n      swap1\n      pop\n        /* \"#utility.yul\":645:678   */\n      tag_148\n        /* \"#utility.yul\":672:677   */\n      dup2\n        /* \"#utility.yul\":645:678   */\n      tag_90\n      jump\t// in\n    tag_148:\n        /* \"#utility.yul\":545:684   */\n      swap3\n      swap2\n      pop\n      pop\n      jump\t// out\n        /* \"#utility.yul\":690:1019   */\n    tag_11:\n        /* \"#utility.yul\":749:755   */\n      0x00\n        /* \"#utility.yul\":798:800   */\n      0x20\n        /* \"#utility.yul\":786:795   */\n      dup3\n        /* \"#utility.yul\":777:784   */\n      dup5\n        /* \"#utility.yul\":773:796   */\n      sub\n        /* \"#utility.yul\":769:801   */\n      slt\n        /* \"#utility.yul\":766:885   */\n      iszero\n      tag_150\n      jumpi\n        /* \"#utility.yul\":804:883   */\n      tag_151\n      tag_87\n      jump\t// in\n    tag_151:\n        /* \"#utility.yul\":766:885   */\n    tag_150:\n        /* \"#utility.yul\":924:925   */\n      0x00\n        /* \"#utility.yul\":949:1002   */\n      tag_152\n        /* \"#utility.yul\":994:1001   */\n      dup5\n        /* \"#utility.yul\":985:991   */\n      dup3\n        /* \"#utility.yul\":974:983   */\n      dup6\n        /* \"#utility.yul\":970:992   */\n      add\n        /* \"#utility.yul\":949:1002   */\n      tag_91\n      jump\t// in\n    tag_152:\n        /* \"#utility.yul\":939:1002   */\n      swap2\n      pop\n        /* \"#utility.yul\":895:1012   */\n      pop\n        /* \"#utility.yul\":690:1019   */\n      swap3\n      swap2\n      pop\n      pop\n      jump\t// out\n        /* \"#utility.yul\":1025:1143   */\n    tag_92:\n        /* \"#utility.yul\":1112:1136   */\n      tag_154\n        /* \"#utility.yul\":1130:1135   */\n      dup2\n        /* \"#utility.yul\":1112:1136   */\n      tag_89\n      jump\t// in\n    tag_154:\n        /* \"#utility.yul\":1107:1110   */\n      dup3\n        /* \"#utility.yul\":1100:1137   */\n      mstore\n        /* \"#utility.yul\":1025:1143   */\n      pop\n      pop\n      jump\t// out\n        /* \"#utility.yul\":1149:1248   */\n    tag_93:\n        /* \"#utility.yul\":1201:1207   */\n      0x00\n        /* \"#utility.yul\":1235:1240   */\n      dup2\n        /* \"#utility.yul\":1229:1241   */\n      mload\n        /* \"#utility.yul\":1219:1241   */\n      swap1\n      pop\n        /* \"#utility.yul\":1149:1248   */\n      swap2\n      swap1\n      pop\n      jump\t// out\n        /* \"#utility.yul\":1254:1423   */\n    tag_94:\n        /* \"#utility.yul\":1338:1349   */\n      0x00\n        /* \"#utility.yul\":1372:1378   */\n      dup3\n        /* \"#utility.yul\":1367:1370   */\n      dup3\n        /* \"#utility.yul\":1360:1379   */\n      mstore\n        /* \"#utility.yul\":1412:1416   */\n      0x20\n        /* \"#utility.yul\":1407:1410   */\n      dup3\n        /* \"#utility.yul\":1403:1417   */\n      add\n        /* \"#utility.yul\":1388:1417   */\n      swap1\n      pop\n        /* \"#utility.yul\":1254:1423   */\n      swap3\n      swap2\n      pop\n      pop\n      jump\t// out\n        /* \"#utility.yul\":1429:1675   */\n    tag_95:\n        /* \"#utility.yul\":1510:1511   */\n      0x00\n        /* \"#utility.yul\":1520:1633   */\n    tag_158:\n        /* \"#utility.yul\":1534:1540   */\n      dup4\n        /* \"#utility.yul\":1531:1532   */\n      dup2\n        /* \"#utility.yul\":1528:1541   */\n      lt\n        /* \"#utility.yul\":1520:1633   */\n      iszero\n      tag_160\n      jumpi\n        /* \"#utility.yul\":1619:1620   */\n      dup1\n        /* \"#utility.yul\":1614:1617   */\n      dup3\n        /* \"#utility.yul\":1610:1621   */\n      add\n        /* \"#utility.yul\":1604:1622   */\n      mload\n        /* \"#utility.yul\":1600:1601   */\n      dup2\n        /* \"#utility.yul\":1595:1598   */\n      dup5\n        /* \"#utility.yul\":1591:1602   */\n      add\n        /* \"#utility.yul\":1584:1623   */\n      mstore\n        /* \"#utility.yul\":1556:1558   */\n      0x20\n        /* \"#utility.yul\":1553:1554   */\n      dup2\n        /* \"#utility.yul\":1549:1559   */\n      add\n        /* \"#utility.yul\":1544:1559   */\n      swap1\n      pop\n        /* \"#utility.yul\":1520:1633   */\n      jump(tag_158)\n    tag_160:\n        /* \"#utility.yul\":1667:1668   */\n      0x00\n        /* \"#utility.yul\":1658:1664   */\n      dup5\n        /* \"#utility.yul\":1653:1656   */\n      dup5\n        /* \"#utility.yul\":1649:1665   */\n      add\n        /* \"#utility.yul\":1642:1669   */\n      mstore\n        /* \"#utility.yul\":1491:1675   */\n      pop\n        /* \"#utility.yul\":1429:1675   */\n      pop\n      pop\n      pop\n      jump\t// out\n        /* \"#utility.yul\":1681:1783   */\n    tag_96:\n        /* \"#utility.yul\":1722:1728   */\n      0x00\n        /* \"#utility.yul\":1773:1775   */\n      0x1f\n        /* \"#utility.yul\":1769:1776   */\n      not\n        /* \"#utility.yul\":1764:1766   */\n      0x1f\n        /* \"#utility.yul\":1757:1762   */\n      dup4\n        /* \"#utility.yul\":1753:1767   */\n      add\n        /* \"#utility.yul\":1749:1777   */\n      and\n        /* \"#utility.yul\":1739:1777   */\n      swap1\n      pop\n        /* \"#utility.yul\":1681:1783   */\n      swap2\n      swap1\n      pop\n      jump\t// out\n        /* \"#utility.yul\":1789:2166   */\n    tag_97:\n        /* \"#utility.yul\":1877:1880   */\n      0x00\n        /* \"#utility.yul\":1905:1944   */\n      tag_163\n        /* \"#utility.yul\":1938:1943   */\n      dup3\n        /* \"#utility.yul\":1905:1944   */\n      tag_93\n      jump\t// in\n    tag_163:\n        /* \"#utility.yul\":1960:2031   */\n      tag_164\n        /* \"#utility.yul\":2024:2030   */\n      dup2\n        /* \"#utility.yul\":2019:2022   */\n      dup6\n        /* \"#utility.yul\":1960:2031   */\n      tag_94\n      jump\t// in\n    tag_164:\n        /* \"#utility.yul\":1953:2031   */\n      swap4\n      pop\n        /* \"#utility.yul\":2040:2105   */\n      tag_165\n        /* \"#utility.yul\":2098:2104   */\n      dup2\n        /* \"#utility.yul\":2093:2096   */\n      dup6\n        /* \"#utility.yul\":2086:2090   */\n      0x20\n        /* \"#utility.yul\":2079:2084   */\n      dup7\n        /* \"#utility.yul\":2075:2091   */\n      add\n        /* \"#utility.yul\":2040:2105   */\n      tag_95\n      jump\t// in\n    tag_165:\n        /* \"#utility.yul\":2130:2159   */\n      tag_166\n        /* \"#utility.yul\":2152:2158   */\n      dup2\n        /* \"#utility.yul\":2130:2159   */\n      tag_96\n      jump\t// in\n    tag_166:\n        /* \"#utility.yul\":2125:2128   */\n      dup5\n        /* \"#utility.yul\":2121:2160   */\n      add\n        /* \"#utility.yul\":2114:2160   */\n      swap2\n      pop\n        /* \"#utility.yul\":1881:2166   */\n      pop\n        /* \"#utility.yul\":1789:2166   */\n      swap3\n      swap2\n      pop\n      pop\n      jump\t// out\n        /* \"#utility.yul\":2172:2816   */\n    tag_14:\n        /* \"#utility.yul\":2369:2373   */\n      0x00\n        /* \"#utility.yul\":2407:2410   */\n      0x80\n        /* \"#utility.yul\":2396:2405   */\n      dup3\n        /* \"#utility.yul\":2392:2411   */\n      add\n        /* \"#utility.yul\":2384:2411   */\n      swap1\n      pop\n        /* \"#utility.yul\":2421:2492   */\n      tag_168\n        /* \"#utility.yul\":2489:2490   */\n      0x00\n        /* \"#utility.yul\":2478:2487   */\n      dup4\n        /* \"#utility.yul\":2474:2491   */\n      add\n        /* \"#utility.yul\":2465:2471   */\n      dup8\n        /* \"#utility.yul\":2421:2492   */\n      tag_92\n      jump\t// in\n    tag_168:\n        /* \"#utility.yul\":2539:2548   */\n      dup2\n        /* \"#utility.yul\":2533:2537   */\n      dup2\n        /* \"#utility.yul\":2529:2549   */\n      sub\n        /* \"#utility.yul\":2524:2526   */\n      0x20\n        /* \"#utility.yul\":2513:2522   */\n      dup4\n        /* \"#utility.yul\":2509:2527   */\n      add\n        /* \"#utility.yul\":2502:2550   */\n      mstore\n        /* \"#utility.yul\":2567:2645   */\n      tag_169\n        /* \"#utility.yul\":2640:2644   */\n      dup2\n        /* \"#utility.yul\":2631:2637   */\n      dup7\n        /* \"#utility.yul\":2567:2645   */\n      tag_97\n      jump\t// in\n    tag_169:\n        /* \"#utility.yul\":2559:2645   */\n      swap1\n      pop\n        /* \"#utility.yul\":2655:2727   */\n      tag_170\n        /* \"#utility.yul\":2723:2725   */\n      0x40\n        /* \"#utility.yul\":2712:2721   */\n      dup4\n        /* \"#utility.yul\":2708:2726   */\n      add\n        /* \"#utility.yul\":2699:2705   */\n      dup6\n        /* \"#utility.yul\":2655:2727   */\n      tag_92\n      jump\t// in\n    tag_170:\n        /* \"#utility.yul\":2737:2809   */\n      tag_171\n        /* \"#utility.yul\":2805:2807   */\n      0x60\n        /* \"#utility.yul\":2794:2803   */\n      dup4\n        /* \"#utility.yul\":2790:2808   */\n      add\n        /* \"#utility.yul\":2781:2787   */\n      dup5\n        /* \"#utility.yul\":2737:2809   */\n      tag_92\n      jump\t// in\n    tag_171:\n        /* \"#utility.yul\":2172:2816   */\n      swap6\n      swap5\n      pop\n      pop\n      pop\n      pop\n      pop\n      jump\t// out\n        /* \"#utility.yul\":2822:2939   */\n    tag_98:\n        /* \"#utility.yul\":2931:2932   */\n      0x00\n        /* \"#utility.yul\":2928:2929   */\n      dup1\n        /* \"#utility.yul\":2921:2933   */\n      revert\n        /* \"#utility.yul\":2945:3062   */\n    tag_99:\n        /* \"#utility.yul\":3054:3055   */\n      0x00\n        /* \"#utility.yul\":3051:3052   */\n      dup1\n        /* \"#utility.yul\":3044:3056   */\n      revert\n        /* \"#utility.yul\":3068:3185   */\n    tag_100:\n        /* \"#utility.yul\":3177:3178   */\n      0x00\n        /* \"#utility.yul\":3174:3175   */\n      dup1\n        /* \"#utility.yul\":3167:3179   */\n      revert\n        /* \"#utility.yul\":3205:3758   */\n    tag_101:\n        /* \"#utility.yul\":3263:3271   */\n      0x00\n        /* \"#utility.yul\":3273:3279   */\n      dup1\n        /* \"#utility.yul\":3323:3326   */\n      dup4\n        /* \"#utility.yul\":3316:3320   */\n      0x1f\n        /* \"#utility.yul\":3308:3314   */\n      dup5\n        /* \"#utility.yul\":3304:3321   */\n      add\n        /* \"#utility.yul\":3300:3327   */\n      slt\n        /* \"#utility.yul\":3290:3412   */\n      tag_176\n      jumpi\n        /* \"#utility.yul\":3331:3410   */\n      tag_177\n      tag_98\n      jump\t// in\n    tag_177:\n        /* \"#utility.yul\":3290:3412   */\n    tag_176:\n        /* \"#utility.yul\":3444:3450   */\n      dup3\n        /* \"#utility.yul\":3431:3451   */\n      calldataload\n        /* \"#utility.yul\":3421:3451   */\n      swap1\n      pop\n        /* \"#utility.yul\":3474:3492   */\n      0xffffffffffffffff\n        /* \"#utility.yul\":3466:3472   */\n      dup2\n        /* \"#utility.yul\":3463:3493   */\n      gt\n        /* \"#utility.yul\":3460:3577   */\n      iszero\n      tag_178\n      jumpi\n        /* \"#utility.yul\":3496:3575   */\n      tag_179\n      tag_99\n      jump\t// in\n    tag_179:\n        /* \"#utility.yul\":3460:3577   */\n    tag_178:\n        /* \"#utility.yul\":3610:3614   */\n      0x20\n        /* \"#utility.yul\":3602:3608   */\n      dup4\n        /* \"#utility.yul\":3598:3615   */\n      add\n        /* \"#utility.yul\":3586:3615   */\n      swap2\n      pop\n        /* \"#utility.yul\":3664:3667   */\n      dup4\n        /* \"#utility.yul\":3656:3660   */\n      0x01\n        /* \"#utility.yul\":3648:3654   */\n      dup3\n        /* \"#utility.yul\":3644:3661   */\n      mul\n        /* \"#utility.yul\":3634:3642   */\n      dup4\n        /* \"#utility.yul\":3630:3662   */\n      add\n        /* \"#utility.yul\":3627:3668   */\n      gt\n        /* \"#utility.yul\":3624:3752   */\n      iszero\n      tag_180\n      jumpi\n        /* \"#utility.yul\":3671:3750   */\n      tag_181\n      tag_100\n      jump\t// in\n    tag_181:\n        /* \"#utility.yul\":3624:3752   */\n    tag_180:\n        /* \"#utility.yul\":3205:3758   */\n      swap3\n      pop\n      swap3\n      swap1\n      pop\n      jump\t// out\n        /* \"#utility.yul\":3764:4293   */\n    tag_21:\n        /* \"#utility.yul\":3835:3841   */\n      0x00\n        /* \"#utility.yul\":3843:3849   */\n      dup1\n        /* \"#utility.yul\":3892:3894   */\n      0x20\n        /* \"#utility.yul\":3880:3889   */\n      dup4\n        /* \"#utility.yul\":3871:3878   */\n      dup6\n        /* \"#utility.yul\":3867:3890   */\n      sub\n        /* \"#utility.yul\":3863:3895   */\n      slt\n        /* \"#utility.yul\":3860:3979   */\n      iszero\n      tag_183\n      jumpi\n        /* \"#utility.yul\":3898:3977   */\n      tag_184\n      tag_87\n      jump\t// in\n    tag_184:\n        /* \"#utility.yul\":3860:3979   */\n    tag_183:\n        /* \"#utility.yul\":4046:4047   */\n      0x00\n        /* \"#utility.yul\":4035:4044   */\n      dup4\n        /* \"#utility.yul\":4031:4048   */\n      add\n        /* \"#utility.yul\":4018:4049   */\n      calldataload\n        /* \"#utility.yul\":4076:4094   */\n      0xffffffffffffffff\n        /* \"#utility.yul\":4068:4074   */\n      dup2\n        /* \"#utility.yul\":4065:4095   */\n      gt\n        /* \"#utility.yul\":4062:4179   */\n      iszero\n      tag_185\n      jumpi\n        /* \"#utility.yul\":4098:4177   */\n      tag_186\n      tag_88\n      jump\t// in\n    tag_186:\n        /* \"#utility.yul\":4062:4179   */\n    tag_185:\n        /* \"#utility.yul\":4211:4276   */\n      tag_187\n        /* \"#utility.yul\":4268:4275   */\n      dup6\n        /* \"#utility.yul\":4259:4265   */\n      dup3\n        /* \"#utility.yul\":4248:4257   */\n      dup7\n        /* \"#utility.yul\":4244:4266   */\n      add\n        /* \"#utility.yul\":4211:4276   */\n      tag_101\n      jump\t// in\n    tag_187:\n        /* \"#utility.yul\":4193:4276   */\n      swap3\n      pop\n      swap3\n      pop\n        /* \"#utility.yul\":3989:4286   */\n      pop\n        /* \"#utility.yul\":3764:4293   */\n      swap3\n      pop\n      swap3\n      swap1\n      pop\n      jump\t// out\n        /* \"#utility.yul\":4299:4425   */\n    tag_102:\n        /* \"#utility.yul\":4336:4343   */\n      0x00\n        /* \"#utility.yul\":4376:4418   */\n      0xffffffffffffffffffffffffffffffffffffffff\n        /* \"#utility.yul\":4369:4374   */\n      dup3\n        /* \"#utility.yul\":4365:4419   */\n      and\n        /* \"#utility.yul\":4354:4419   */\n      swap1\n      pop\n        /* \"#utility.yul\":4299:4425   */\n      swap2\n      swap1\n      pop\n      jump\t// out\n        /* \"#utility.yul\":4431:4527   */\n    tag_103:\n        /* \"#utility.yul\":4468:4475   */\n      0x00\n        /* \"#utility.yul\":4497:4521   */\n      tag_190\n        /* \"#utility.yul\":4515:4520   */\n      dup3\n        /* \"#utility.yul\":4497:4521   */\n      tag_102\n      jump\t// in\n    tag_190:\n        /* \"#utility.yul\":4486:4521   */\n      swap1\n      pop\n        /* \"#utility.yul\":4431:4527   */\n      swap2\n      swap1\n      pop\n      jump\t// out\n        /* \"#utility.yul\":4533:4655   */\n    tag_104:\n        /* \"#utility.yul\":4606:4630   */\n      tag_192\n        /* \"#utility.yul\":4624:4629   */\n      dup2\n        /* \"#utility.yul\":4606:4630   */\n      tag_103\n      jump\t// in\n    tag_192:\n        /* \"#utility.yul\":4599:4604   */\n      dup2\n        /* \"#utility.yul\":4596:4631   */\n      eq\n        /* \"#utility.yul\":4586:4649   */\n      tag_193\n      jumpi\n        /* \"#utility.yul\":4645:4646   */\n      0x00\n        /* \"#utility.yul\":4642:4643   */\n      dup1\n        /* \"#utility.yul\":4635:4647   */\n      revert\n        /* \"#utility.yul\":4586:4649   */\n    tag_193:\n        /* \"#utility.yul\":4533:4655   */\n      pop\n      jump\t// out\n        /* \"#utility.yul\":4661:4800   */\n    tag_105:\n        /* \"#utility.yul\":4707:4712   */\n      0x00\n        /* \"#utility.yul\":4745:4751   */\n      dup2\n        /* \"#utility.yul\":4732:4752   */\n      calldataload\n        /* \"#utility.yul\":4723:4752   */\n      swap1\n      pop\n        /* \"#utility.yul\":4761:4794   */\n      tag_195\n        /* \"#utility.yul\":4788:4793   */\n      dup2\n        /* \"#utility.yul\":4761:4794   */\n      tag_104\n      jump\t// in\n    tag_195:\n        /* \"#utility.yul\":4661:4800   */\n      swap3\n      swap2\n      pop\n      pop\n      jump\t// out\n        /* \"#utility.yul\":4806:5280   */\n    tag_26:\n        /* \"#utility.yul\":4874:4880   */\n      0x00\n        /* \"#utility.yul\":4882:4888   */\n      dup1\n        /* \"#utility.yul\":4931:4933   */\n      0x40\n        /* \"#utility.yul\":4919:4928   */\n      dup4\n        /* \"#utility.yul\":4910:4917   */\n      dup6\n        /* \"#utility.yul\":4906:4929   */\n      sub\n        /* \"#utility.yul\":4902:4934   */\n      slt\n        /* \"#utility.yul\":4899:5018   */\n      iszero\n      tag_197\n      jumpi\n        /* \"#utility.yul\":4937:5016   */\n      tag_198\n      tag_87\n      jump\t// in\n    tag_198:\n        /* \"#utility.yul\":4899:5018   */\n    tag_197:\n        /* \"#utility.yul\":5057:5058   */\n      0x00\n        /* \"#utility.yul\":5082:5135   */\n      tag_199\n        /* \"#utility.yul\":5127:5134   */\n      dup6\n        /* \"#utility.yul\":5118:5124   */\n      dup3\n        /* \"#utility.yul\":5107:5116   */\n      dup7\n        /* \"#utility.yul\":5103:5125   */\n      add\n        /* \"#utility.yul\":5082:5135   */\n      tag_105\n      jump\t// in\n    tag_199:\n        /* \"#utility.yul\":5072:5135   */\n      swap3\n      pop\n        /* \"#utility.yul\":5028:5145   */\n      pop\n        /* \"#utility.yul\":5184:5186   */\n      0x20\n        /* \"#utility.yul\":5210:5263   */\n      tag_200\n        /* \"#utility.yul\":5255:5262   */\n      dup6\n        /* \"#utility.yul\":5246:5252   */\n      dup3\n        /* \"#utility.yul\":5235:5244   */\n      dup7\n        /* \"#utility.yul\":5231:5253   */\n      add\n        /* \"#utility.yul\":5210:5263   */\n      tag_91\n      jump\t// in\n    tag_200:\n        /* \"#utility.yul\":5200:5263   */\n      swap2\n      pop\n        /* \"#utility.yul\":5155:5273   */\n      pop\n        /* \"#utility.yul\":4806:5280   */\n      swap3\n      pop\n      swap3\n      swap1\n      pop\n      jump\t// out\n        /* \"#utility.yul\":5286:5508   */\n    tag_29:\n        /* \"#utility.yul\":5379:5383   */\n      0x00\n        /* \"#utility.yul\":5417:5419   */\n      0x20\n        /* \"#utility.yul\":5406:5415   */\n      dup3\n        /* \"#utility.yul\":5402:5420   */\n      add\n        /* \"#utility.yul\":5394:5420   */\n      swap1\n      pop\n        /* \"#utility.yul\":5430:5501   */\n      tag_202\n        /* \"#utility.yul\":5498:5499   */\n      0x00\n        /* \"#utility.yul\":5487:5496   */\n      dup4\n        /* \"#utility.yul\":5483:5500   */\n      add\n        /* \"#utility.yul\":5474:5480   */\n      dup5\n        /* \"#utility.yul\":5430:5501   */\n      tag_92\n      jump\t// in\n    tag_202:\n        /* \"#utility.yul\":5286:5508   */\n      swap3\n      swap2\n      pop\n      pop\n      jump\t// out\n        /* \"#utility.yul\":5514:5628   */\n    tag_106:\n        /* \"#utility.yul\":5581:5587   */\n      0x00\n        /* \"#utility.yul\":5615:5620   */\n      dup2\n        /* \"#utility.yul\":5609:5621   */\n      mload\n        /* \"#utility.yul\":5599:5621   */\n      swap1\n      pop\n        /* \"#utility.yul\":5514:5628   */\n      swap2\n      swap1\n      pop\n      jump\t// out\n        /* \"#utility.yul\":5634:5818   */\n    tag_107:\n        /* \"#utility.yul\":5733:5744   */\n      0x00\n        /* \"#utility.yul\":5767:5773   */\n      dup3\n        /* \"#utility.yul\":5762:5765   */\n      dup3\n        /* \"#utility.yul\":5755:5774   */\n      mstore\n        /* \"#utility.yul\":5807:5811   */\n      0x20\n        /* \"#utility.yul\":5802:5805   */\n      dup3\n        /* \"#utility.yul\":5798:5812   */\n      add\n        /* \"#utility.yul\":5783:5812   */\n      swap1\n      pop\n        /* \"#utility.yul\":5634:5818   */\n      swap3\n      swap2\n      pop\n      pop\n      jump\t// out\n        /* \"#utility.yul\":5824:5956   */\n    tag_108:\n        /* \"#utility.yul\":5891:5895   */\n      0x00\n        /* \"#utility.yul\":5914:5917   */\n      dup2\n        /* \"#utility.yul\":5906:5917   */\n      swap1\n      pop\n        /* \"#utility.yul\":5944:5948   */\n      0x20\n        /* \"#utility.yul\":5939:5942   */\n      dup3\n        /* \"#utility.yul\":5935:5949   */\n      add\n        /* \"#utility.yul\":5927:5949   */\n      swap1\n      pop\n        /* \"#utility.yul\":5824:5956   */\n      swap2\n      swap1\n      pop\n      jump\t// out\n        /* \"#utility.yul\":5962:6070   */\n    tag_109:\n        /* \"#utility.yul\":6039:6063   */\n      tag_207\n        /* \"#utility.yul\":6057:6062   */\n      dup2\n        /* \"#utility.yul\":6039:6063   */\n      tag_89\n      jump\t// in\n    tag_207:\n        /* \"#utility.yul\":6034:6037   */\n      dup3\n        /* \"#utility.yul\":6027:6064   */\n      mstore\n        /* \"#utility.yul\":5962:6070   */\n      pop\n      pop\n      jump\t// out\n        /* \"#utility.yul\":6076:6255   */\n    tag_110:\n        /* \"#utility.yul\":6145:6155   */\n      0x00\n        /* \"#utility.yul\":6166:6212   */\n      tag_209\n        /* \"#utility.yul\":6208:6211   */\n      dup4\n        /* \"#utility.yul\":6200:6206   */\n      dup4\n        /* \"#utility.yul\":6166:6212   */\n      tag_109\n      jump\t// in\n    tag_209:\n        /* \"#utility.yul\":6244:6248   */\n      0x20\n        /* \"#utility.yul\":6239:6242   */\n      dup4\n        /* \"#utility.yul\":6235:6249   */\n      add\n        /* \"#utility.yul\":6221:6249   */\n      swap1\n      pop\n        /* \"#utility.yul\":6076:6255   */\n      swap3\n      swap2\n      pop\n      pop\n      jump\t// out\n        /* \"#utility.yul\":6261:6374   */\n    tag_111:\n        /* \"#utility.yul\":6331:6335   */\n      0x00\n        /* \"#utility.yul\":6363:6367   */\n      0x20\n        /* \"#utility.yul\":6358:6361   */\n      dup3\n        /* \"#utility.yul\":6354:6368   */\n      add\n        /* \"#utility.yul\":6346:6368   */\n      swap1\n      pop\n        /* \"#utility.yul\":6261:6374   */\n      swap2\n      swap1\n      pop\n      jump\t// out\n        /* \"#utility.yul\":6410:7142   */\n    tag_112:\n        /* \"#utility.yul\":6529:6532   */\n      0x00\n        /* \"#utility.yul\":6558:6612   */\n      tag_212\n        /* \"#utility.yul\":6606:6611   */\n      dup3\n        /* \"#utility.yul\":6558:6612   */\n      tag_106\n      jump\t// in\n    tag_212:\n        /* \"#utility.yul\":6628:6714   */\n      tag_213\n        /* \"#utility.yul\":6707:6713   */\n      dup2\n        /* \"#utility.yul\":6702:6705   */\n      dup6\n        /* \"#utility.yul\":6628:6714   */\n      tag_107\n      jump\t// in\n    tag_213:\n        /* \"#utility.yul\":6621:6714   */\n      swap4\n      pop\n        /* \"#utility.yul\":6738:6794   */\n      tag_214\n        /* \"#utility.yul\":6788:6793   */\n      dup4\n        /* \"#utility.yul\":6738:6794   */\n      tag_108\n      jump\t// in\n    tag_214:\n        /* \"#utility.yul\":6817:6824   */\n      dup1\n        /* \"#utility.yul\":6848:6849   */\n      0x00\n        /* \"#utility.yul\":6833:7117   */\n    tag_215:\n        /* \"#utility.yul\":6858:6864   */\n      dup4\n        /* \"#utility.yul\":6855:6856   */\n      dup2\n        /* \"#utility.yul\":6852:6865   */\n      lt\n        /* \"#utility.yul\":6833:7117   */\n      iszero\n      tag_217\n      jumpi\n        /* \"#utility.yul\":6934:6940   */\n      dup2\n        /* \"#utility.yul\":6928:6941   */\n      mload\n        /* \"#utility.yul\":6961:7024   */\n      tag_218\n        /* \"#utility.yul\":7020:7023   */\n      dup9\n        /* \"#utility.yul\":7005:7018   */\n      dup3\n        /* \"#utility.yul\":6961:7024   */\n      tag_110\n      jump\t// in\n    tag_218:\n        /* \"#utility.yul\":6954:7024   */\n      swap8\n      pop\n        /* \"#utility.yul\":7047:7107   */\n      tag_219\n        /* \"#utility.yul\":7100:7106   */\n      dup4\n        /* \"#utility.yul\":7047:7107   */\n      tag_111\n      jump\t// in\n    tag_219:\n        /* \"#utility.yul\":7037:7107   */\n      swap3\n      pop\n        /* \"#utility.yul\":6893:7117   */\n      pop\n        /* \"#utility.yul\":6880:6881   */\n      0x01\n        /* \"#utility.yul\":6877:6878   */\n      dup2\n        /* \"#utility.yul\":6873:6882   */\n      add\n        /* \"#utility.yul\":6868:6882   */\n      swap1\n      pop\n        /* \"#utility.yul\":6833:7117   */\n      jump(tag_215)\n    tag_217:\n        /* \"#utility.yul\":6837:6851   */\n      pop\n        /* \"#utility.yul\":7133:7136   */\n      dup6\n        /* \"#utility.yul\":7126:7136   */\n      swap4\n      pop\n        /* \"#utility.yul\":6534:7142   */\n      pop\n      pop\n      pop\n        /* \"#utility.yul\":6410:7142   */\n      swap3\n      swap2\n      pop\n      pop\n      jump\t// out\n        /* \"#utility.yul\":7148:7521   */\n    tag_37:\n        /* \"#utility.yul\":7291:7295   */\n      0x00\n        /* \"#utility.yul\":7329:7331   */\n      0x20\n        /* \"#utility.yul\":7318:7327   */\n      dup3\n        /* \"#utility.yul\":7314:7332   */\n      add\n        /* \"#utility.yul\":7306:7332   */\n      swap1\n      pop\n        /* \"#utility.yul\":7378:7387   */\n      dup2\n        /* \"#utility.yul\":7372:7376   */\n      dup2\n        /* \"#utility.yul\":7368:7388   */\n      sub\n        /* \"#utility.yul\":7364:7365   */\n      0x00\n        /* \"#utility.yul\":7353:7362   */\n      dup4\n        /* \"#utility.yul\":7349:7366   */\n      add\n        /* \"#utility.yul\":7342:7389   */\n      mstore\n        /* \"#utility.yul\":7406:7514   */\n      tag_221\n        /* \"#utility.yul\":7509:7513   */\n      dup2\n        /* \"#utility.yul\":7500:7506   */\n      dup5\n        /* \"#utility.yul\":7406:7514   */\n      tag_112\n      jump\t// in\n    tag_221:\n        /* \"#utility.yul\":7398:7514   */\n      swap1\n      pop\n        /* \"#utility.yul\":7148:7521   */\n      swap3\n      swap2\n      pop\n      pop\n      jump\t// out\n        /* \"#utility.yul\":7527:7707   */\n    tag_113:\n        /* \"#utility.yul\":7575:7652   */\n      0x4e487b7100000000000000000000000000000000000000000000000000000000\n        /* \"#utility.yul\":7572:7573   */\n      0x00\n        /* \"#utility.yul\":7565:7653   */\n      mstore\n        /* \"#utility.yul\":7672:7676   */\n      0x22\n        /* \"#utility.yul\":7669:7670   */\n      0x04\n        /* \"#utility.yul\":7662:7677   */\n      mstore\n        /* \"#utility.yul\":7696:7700   */\n      0x24\n        /* \"#utility.yul\":7693:7694   */\n      0x00\n        /* \"#utility.yul\":7686:7701   */\n      revert\n        /* \"#utility.yul\":7713:8033   */\n    tag_41:\n        /* \"#utility.yul\":7757:7763   */\n      0x00\n        /* \"#utility.yul\":7794:7795   */\n      0x02\n        /* \"#utility.yul\":7788:7792   */\n      dup3\n        /* \"#utility.yul\":7784:7796   */\n      div\n        /* \"#utility.yul\":7774:7796   */\n      swap1\n      pop\n        /* \"#utility.yul\":7841:7842   */\n      0x01\n        /* \"#utility.yul\":7835:7839   */\n      dup3\n        /* \"#utility.yul\":7831:7843   */\n      and\n        /* \"#utility.yul\":7862:7880   */\n      dup1\n        /* \"#utility.yul\":7852:7933   */\n      tag_224\n      jumpi\n        /* \"#utility.yul\":7918:7922   */\n      0x7f\n        /* \"#utility.yul\":7910:7916   */\n      dup3\n        /* \"#utility.yul\":7906:7923   */\n      and\n        /* \"#utility.yul\":7896:7923   */\n      swap2\n      pop\n        /* \"#utility.yul\":7852:7933   */\n    tag_224:\n        /* \"#utility.yul\":7980:7982   */\n      0x20\n        /* \"#utility.yul\":7972:7978   */\n      dup3\n        /* \"#utility.yul\":7969:7983   */\n      lt\n        /* \"#utility.yul\":7949:7967   */\n      dup2\n        /* \"#utility.yul\":7946:7984   */\n      sub\n        /* \"#utility.yul\":7943:8027   */\n      tag_225\n      jumpi\n        /* \"#utility.yul\":7999:8017   */\n      tag_226\n      tag_113\n      jump\t// in\n    tag_226:\n        /* \"#utility.yul\":7943:8027   */\n    tag_225:\n        /* \"#utility.yul\":7764:8033   */\n      pop\n        /* \"#utility.yul\":7713:8033   */\n      swap2\n      swap1\n      pop\n      jump\t// out\n        /* \"#utility.yul\":8039:8216   */\n    tag_114:\n        /* \"#utility.yul\":8179:8208   */\n      0x416d6f756e742073686f756c6420626520302e30312045746865720000000000\n        /* \"#utility.yul\":8175:8176   */\n      0x00\n        /* \"#utility.yul\":8167:8173   */\n      dup3\n        /* \"#utility.yul\":8163:8177   */\n      add\n        /* \"#utility.yul\":8156:8209   */\n      mstore\n        /* \"#utility.yul\":8039:8216   */\n      pop\n      jump\t// out\n        /* \"#utility.yul\":8222:8588   */\n    tag_115:\n        /* \"#utility.yul\":8364:8367   */\n      0x00\n        /* \"#utility.yul\":8385:8452   */\n      tag_229\n        /* \"#utility.yul\":8449:8451   */\n      0x1b\n        /* \"#utility.yul\":8444:8447   */\n      dup4\n        /* \"#utility.yul\":8385:8452   */\n      tag_94\n      jump\t// in\n    tag_229:\n        /* \"#utility.yul\":8378:8452   */\n      swap2\n      pop\n        /* \"#utility.yul\":8461:8554   */\n      tag_230\n        /* \"#utility.yul\":8550:8553   */\n      dup3\n        /* \"#utility.yul\":8461:8554   */\n      tag_114\n      jump\t// in\n    tag_230:\n        /* \"#utility.yul\":8579:8581   */\n      0x20\n        /* \"#utility.yul\":8574:8577   */\n      dup3\n        /* \"#utility.yul\":8570:8582   */\n      add\n        /* \"#utility.yul\":8563:8582   */\n      swap1\n      pop\n        /* \"#utility.yul\":8222:8588   */\n      swap2\n      swap1\n      pop\n      jump\t// out\n        /* \"#utility.yul\":8594:9013   */\n    tag_49:\n        /* \"#utility.yul\":8760:8764   */\n      0x00\n        /* \"#utility.yul\":8798:8800   */\n      0x20\n        /* \"#utility.yul\":8787:8796   */\n      dup3\n        /* \"#utility.yul\":8783:8801   */\n      add\n        /* \"#utility.yul\":8775:8801   */\n      swap1\n      pop\n        /* \"#utility.yul\":8847:8856   */\n      dup2\n        /* \"#utility.yul\":8841:8845   */\n      dup2\n        /* \"#utility.yul\":8837:8857   */\n      sub\n        /* \"#utility.yul\":8833:8834   */\n      0x00\n        /* \"#utility.yul\":8822:8831   */\n      dup4\n        /* \"#utility.yul\":8818:8835   */\n      add\n        /* \"#utility.yul\":8811:8858   */\n      mstore\n        /* \"#utility.yul\":8875:9006   */\n      tag_232\n        /* \"#utility.yul\":9001:9005   */\n      dup2\n        /* \"#utility.yul\":8875:9006   */\n      tag_115\n      jump\t// in\n    tag_232:\n        /* \"#utility.yul\":8867:9006   */\n      swap1\n      pop\n        /* \"#utility.yul\":8594:9013   */\n      swap2\n      swap1\n      pop\n      jump\t// out\n        /* \"#utility.yul\":9019:9199   */\n    tag_116:\n        /* \"#utility.yul\":9067:9144   */\n      0x4e487b7100000000000000000000000000000000000000000000000000000000\n        /* \"#utility.yul\":9064:9065   */\n      0x00\n        /* \"#utility.yul\":9057:9145   */\n      mstore\n        /* \"#utility.yul\":9164:9168   */\n      0x11\n        /* \"#utility.yul\":9161:9162   */\n      0x04\n        /* \"#utility.yul\":9154:9169   */\n      mstore\n        /* \"#utility.yul\":9188:9192   */\n      0x24\n        /* \"#utility.yul\":9185:9186   */\n      0x00\n        /* \"#utility.yul\":9178:9193   */\n      revert\n        /* \"#utility.yul\":9205:9399   */\n    tag_51:\n        /* \"#utility.yul\":9245:9249   */\n      0x00\n        /* \"#utility.yul\":9265:9285   */\n      tag_235\n        /* \"#utility.yul\":9283:9284   */\n      dup3\n        /* \"#utility.yul\":9265:9285   */\n      tag_89\n      jump\t// in\n    tag_235:\n        /* \"#utility.yul\":9260:9285   */\n      swap2\n      pop\n        /* \"#utility.yul\":9299:9319   */\n      tag_236\n        /* \"#utility.yul\":9317:9318   */\n      dup4\n        /* \"#utility.yul\":9299:9319   */\n      tag_89\n      jump\t// in\n    tag_236:\n        /* \"#utility.yul\":9294:9319   */\n      swap3\n      pop\n        /* \"#utility.yul\":9343:9344   */\n      dup3\n        /* \"#utility.yul\":9340:9341   */\n      dup3\n        /* \"#utility.yul\":9336:9345   */\n      sub\n        /* \"#utility.yul\":9328:9345   */\n      swap1\n      pop\n        /* \"#utility.yul\":9367:9368   */\n      dup2\n        /* \"#utility.yul\":9361:9365   */\n      dup2\n        /* \"#utility.yul\":9358:9369   */\n      gt\n        /* \"#utility.yul\":9355:9392   */\n      iszero\n      tag_237\n      jumpi\n        /* \"#utility.yul\":9372:9390   */\n      tag_238\n      tag_116\n      jump\t// in\n    tag_238:\n        /* \"#utility.yul\":9355:9392   */\n    tag_237:\n        /* \"#utility.yul\":9205:9399   */\n      swap3\n      swap2\n      pop\n      pop\n      jump\t// out\n        /* \"#utility.yul\":9405:9585   */\n    tag_54:\n        /* \"#utility.yul\":9453:9530   */\n      0x4e487b7100000000000000000000000000000000000000000000000000000000\n        /* \"#utility.yul\":9450:9451   */\n      0x00\n        /* \"#utility.yul\":9443:9531   */\n      mstore\n        /* \"#utility.yul\":9550:9554   */\n      0x32\n        /* \"#utility.yul\":9547:9548   */\n      0x04\n        /* \"#utility.yul\":9540:9555   */\n      mstore\n        /* \"#utility.yul\":9574:9578   */\n      0x24\n        /* \"#utility.yul\":9571:9572   */\n      0x00\n        /* \"#utility.yul\":9564:9579   */\n      revert\n        /* \"#utility.yul\":9591:9782   */\n    tag_57:\n        /* \"#utility.yul\":9631:9634   */\n      0x00\n        /* \"#utility.yul\":9650:9670   */\n      tag_241\n        /* \"#utility.yul\":9668:9669   */\n      dup3\n        /* \"#utility.yul\":9650:9670   */\n      tag_89\n      jump\t// in\n    tag_241:\n        /* \"#utility.yul\":9645:9670   */\n      swap2\n      pop\n        /* \"#utility.yul\":9684:9704   */\n      tag_242\n        /* \"#utility.yul\":9702:9703   */\n      dup4\n        /* \"#utility.yul\":9684:9704   */\n      tag_89\n      jump\t// in\n    tag_242:\n        /* \"#utility.yul\":9679:9704   */\n      swap3\n      pop\n        /* \"#utility.yul\":9727:9728   */\n      dup3\n        /* \"#utility.yul\":9724:9725   */\n      dup3\n        /* \"#utility.yul\":9720:9729   */\n      add\n        /* \"#utility.yul\":9713:9729   */\n      swap1\n      pop\n        /* \"#utility.yul\":9748:9751   */\n      dup1\n        /* \"#utility.yul\":9745:9746   */\n      dup3\n        /* \"#utility.yul\":9742:9752   */\n      gt\n        /* \"#utility.yul\":9739:9775   */\n      iszero\n      tag_243\n      jumpi\n        /* \"#utility.yul\":9755:9773   */\n      tag_244\n      tag_116\n      jump\t// in\n    tag_244:\n        /* \"#utility.yul\":9739:9775   */\n    tag_243:\n        /* \"#utility.yul\":9591:9782   */\n      swap3\n      swap2\n      pop\n      pop\n      jump\t// out\n        /* \"#utility.yul\":9788:9936   */\n    tag_117:\n        /* \"#utility.yul\":9890:9901   */\n      0x00\n        /* \"#utility.yul\":9927:9930   */\n      dup2\n        /* \"#utility.yul\":9912:9930   */\n      swap1\n      pop\n        /* \"#utility.yul\":9788:9936   */\n      swap3\n      swap2\n      pop\n      pop\n      jump\t// out\n        /* \"#utility.yul\":9942:10088   */\n    tag_118:\n        /* \"#utility.yul\":10039:10045   */\n      dup3\n        /* \"#utility.yul\":10034:10037   */\n      dup2\n        /* \"#utility.yul\":10029:10032   */\n      dup4\n        /* \"#utility.yul\":10016:10046   */\n      calldatacopy\n        /* \"#utility.yul\":10080:10081   */\n      0x00\n        /* \"#utility.yul\":10071:10077   */\n      dup4\n        /* \"#utility.yul\":10066:10069   */\n      dup4\n        /* \"#utility.yul\":10062:10078   */\n      add\n        /* \"#utility.yul\":10055:10082   */\n      mstore\n        /* \"#utility.yul\":9942:10088   */\n      pop\n      pop\n      pop\n      jump\t// out\n        /* \"#utility.yul\":10118:10448   */\n    tag_119:\n        /* \"#utility.yul\":10234:10237   */\n      0x00\n        /* \"#utility.yul\":10255:10344   */\n      tag_248\n        /* \"#utility.yul\":10337:10343   */\n      dup4\n        /* \"#utility.yul\":10332:10335   */\n      dup6\n        /* \"#utility.yul\":10255:10344   */\n      tag_117\n      jump\t// in\n    tag_248:\n        /* \"#utility.yul\":10248:10344   */\n      swap4\n      pop\n        /* \"#utility.yul\":10354:10410   */\n      tag_249\n        /* \"#utility.yul\":10403:10409   */\n      dup4\n        /* \"#utility.yul\":10398:10401   */\n      dup6\n        /* \"#utility.yul\":10391:10396   */\n      dup5\n        /* \"#utility.yul\":10354:10410   */\n      tag_118\n      jump\t// in\n    tag_249:\n        /* \"#utility.yul\":10435:10441   */\n      dup3\n        /* \"#utility.yul\":10430:10433   */\n      dup5\n        /* \"#utility.yul\":10426:10442   */\n      add\n        /* \"#utility.yul\":10419:10442   */\n      swap1\n      pop\n        /* \"#utility.yul\":10118:10448   */\n      swap4\n      swap3\n      pop\n      pop\n      pop\n      jump\t// out\n        /* \"#utility.yul\":10454:10533   */\n    tag_120:\n        /* \"#utility.yul\":10493:10500   */\n      0x00\n        /* \"#utility.yul\":10522:10527   */\n      dup2\n        /* \"#utility.yul\":10511:10527   */\n      swap1\n      pop\n        /* \"#utility.yul\":10454:10533   */\n      swap2\n      swap1\n      pop\n      jump\t// out\n        /* \"#utility.yul\":10539:10696   */\n    tag_121:\n        /* \"#utility.yul\":10644:10689   */\n      tag_252\n        /* \"#utility.yul\":10664:10688   */\n      tag_253\n        /* \"#utility.yul\":10682:10687   */\n      dup3\n        /* \"#utility.yul\":10664:10688   */\n      tag_89\n      jump\t// in\n    tag_253:\n        /* \"#utility.yul\":10644:10689   */\n      tag_120\n      jump\t// in\n    tag_252:\n        /* \"#utility.yul\":10639:10642   */\n      dup3\n        /* \"#utility.yul\":10632:10690   */\n      mstore\n        /* \"#utility.yul\":10539:10696   */\n      pop\n      pop\n      jump\t// out\n        /* \"#utility.yul\":10702:11138   */\n    tag_60:\n        /* \"#utility.yul\":10872:10875   */\n      0x00\n        /* \"#utility.yul\":10894:10999   */\n      tag_255\n        /* \"#utility.yul\":10995:10998   */\n      dup3\n        /* \"#utility.yul\":10986:10992   */\n      dup6\n        /* \"#utility.yul\":10978:10984   */\n      dup8\n        /* \"#utility.yul\":10894:10999   */\n      tag_119\n      jump\t// in\n    tag_255:\n        /* \"#utility.yul\":10887:10999   */\n      swap2\n      pop\n        /* \"#utility.yul\":11009:11084   */\n      tag_256\n        /* \"#utility.yul\":11080:11083   */\n      dup3\n        /* \"#utility.yul\":11071:11077   */\n      dup5\n        /* \"#utility.yul\":11009:11084   */\n      tag_121\n      jump\t// in\n    tag_256:\n        /* \"#utility.yul\":11109:11111   */\n      0x20\n        /* \"#utility.yul\":11104:11107   */\n      dup3\n        /* \"#utility.yul\":11100:11112   */\n      add\n        /* \"#utility.yul\":11093:11112   */\n      swap2\n      pop\n        /* \"#utility.yul\":11129:11132   */\n      dup2\n        /* \"#utility.yul\":11122:11132   */\n      swap1\n      pop\n        /* \"#utility.yul\":10702:11138   */\n      swap5\n      swap4\n      pop\n      pop\n      pop\n      pop\n      jump\t// out\n        /* \"#utility.yul\":11144:11324   */\n    tag_122:\n        /* \"#utility.yul\":11192:11269   */\n      0x4e487b7100000000000000000000000000000000000000000000000000000000\n        /* \"#utility.yul\":11189:11190   */\n      0x00\n        /* \"#utility.yul\":11182:11270   */\n      mstore\n        /* \"#utility.yul\":11289:11293   */\n      0x12\n        /* \"#utility.yul\":11286:11287   */\n      0x04\n        /* \"#utility.yul\":11279:11294   */\n      mstore\n        /* \"#utility.yul\":11313:11317   */\n      0x24\n        /* \"#utility.yul\":11310:11311   */\n      0x00\n        /* \"#utility.yul\":11303:11318   */\n      revert\n        /* \"#utility.yul\":11330:11506   */\n    tag_62:\n        /* \"#utility.yul\":11362:11363   */\n      0x00\n        /* \"#utility.yul\":11379:11399   */\n      tag_259\n        /* \"#utility.yul\":11397:11398   */\n      dup3\n        /* \"#utility.yul\":11379:11399   */\n      tag_89\n      jump\t// in\n    tag_259:\n        /* \"#utility.yul\":11374:11399   */\n      swap2\n      pop\n        /* \"#utility.yul\":11413:11433   */\n      tag_260\n        /* \"#utility.yul\":11431:11432   */\n      dup4\n        /* \"#utility.yul\":11413:11433   */\n      tag_89\n      jump\t// in\n    tag_260:\n        /* \"#utility.yul\":11408:11433   */\n      swap3\n      pop\n        /* \"#utility.yul\":11452:11453   */\n      dup3\n        /* \"#utility.yul\":11442:11477   */\n      tag_261\n      jumpi\n        /* \"#utility.yul\":11457:11475   */\n      tag_262\n      tag_122\n      jump\t// in\n    tag_262:\n        /* \"#utility.yul\":11442:11477   */\n    tag_261:\n        /* \"#utility.yul\":11498:11499   */\n      dup3\n        /* \"#utility.yul\":11495:11496   */\n      dup3\n        /* \"#utility.yul\":11491:11500   */\n      mod\n        /* \"#utility.yul\":11486:11500   */\n      swap1\n      pop\n        /* \"#utility.yul\":11330:11506   */\n      swap3\n      swap2\n      pop\n      pop\n      jump\t// out\n        /* \"#utility.yul\":11512:11922   */\n    tag_64:\n        /* \"#utility.yul\":11552:11559   */\n      0x00\n        /* \"#utility.yul\":11575:11595   */\n      tag_264\n        /* \"#utility.yul\":11593:11594   */\n      dup3\n        /* \"#utility.yul\":11575:11595   */\n      tag_89\n      jump\t// in\n    tag_264:\n        /* \"#utility.yul\":11570:11595   */\n      swap2\n      pop\n        /* \"#utility.yul\":11609:11629   */\n      tag_265\n        /* \"#utility.yul\":11627:11628   */\n      dup4\n        /* \"#utility.yul\":11609:11629   */\n      tag_89\n      jump\t// in\n    tag_265:\n        /* \"#utility.yul\":11604:11629   */\n      swap3\n      pop\n        /* \"#utility.yul\":11664:11665   */\n      dup3\n        /* \"#utility.yul\":11661:11662   */\n      dup3\n        /* \"#utility.yul\":11657:11666   */\n      mul\n        /* \"#utility.yul\":11686:11716   */\n      tag_266\n        /* \"#utility.yul\":11704:11715   */\n      dup2\n        /* \"#utility.yul\":11686:11716   */\n      tag_89\n      jump\t// in\n    tag_266:\n        /* \"#utility.yul\":11675:11716   */\n      swap2\n      pop\n        /* \"#utility.yul\":11865:11866   */\n      dup3\n        /* \"#utility.yul\":11856:11863   */\n      dup3\n        /* \"#utility.yul\":11852:11867   */\n      div\n        /* \"#utility.yul\":11849:11850   */\n      dup5\n        /* \"#utility.yul\":11846:11868   */\n      eq\n        /* \"#utility.yul\":11826:11827   */\n      dup4\n        /* \"#utility.yul\":11819:11828   */\n      iszero\n        /* \"#utility.yul\":11799:11882   */\n      or\n        /* \"#utility.yul\":11776:11915   */\n      tag_267\n      jumpi\n        /* \"#utility.yul\":11895:11913   */\n      tag_268\n      tag_116\n      jump\t// in\n    tag_268:\n        /* \"#utility.yul\":11776:11915   */\n    tag_267:\n        /* \"#utility.yul\":11560:11922   */\n      pop\n        /* \"#utility.yul\":11512:11922   */\n      swap3\n      swap2\n      pop\n      pop\n      jump\t// out\n        /* \"#utility.yul\":11928:12108   */\n    tag_123:\n        /* \"#utility.yul\":11976:12053   */\n      0x4e487b7100000000000000000000000000000000000000000000000000000000\n        /* \"#utility.yul\":11973:11974   */\n      0x00\n        /* \"#utility.yul\":11966:12054   */\n      mstore\n        /* \"#utility.yul\":12073:12077   */\n      0x41\n        /* \"#utility.yul\":12070:12071   */\n      0x04\n        /* \"#utility.yul\":12063:12078   */\n      mstore\n        /* \"#utility.yul\":12097:12101   */\n      0x24\n        /* \"#utility.yul\":12094:12095   */\n      0x00\n        /* \"#utility.yul\":12087:12102   */\n      revert\n        /* \"#utility.yul\":12114:12255   */\n    tag_124:\n        /* \"#utility.yul\":12163:12167   */\n      0x00\n        /* \"#utility.yul\":12186:12189   */\n      dup2\n        /* \"#utility.yul\":12178:12189   */\n      swap1\n      pop\n        /* \"#utility.yul\":12209:12212   */\n      dup2\n        /* \"#utility.yul\":12206:12207   */\n      0x00\n        /* \"#utility.yul\":12199:12213   */\n      mstore\n        /* \"#utility.yul\":12243:12247   */\n      0x20\n        /* \"#utility.yul\":12240:12241   */\n      0x00\n        /* \"#utility.yul\":12230:12248   */\n      keccak256\n        /* \"#utility.yul\":12222:12248   */\n      swap1\n      pop\n        /* \"#utility.yul\":12114:12255   */\n      swap2\n      swap1\n      pop\n      jump\t// out\n        /* \"#utility.yul\":12261:12354   */\n    tag_125:\n        /* \"#utility.yul\":12298:12304   */\n      0x00\n        /* \"#utility.yul\":12345:12347   */\n      0x20\n        /* \"#utility.yul\":12340:12342   */\n      0x1f\n        /* \"#utility.yul\":12333:12338   */\n      dup4\n        /* \"#utility.yul\":12329:12343   */\n      add\n        /* \"#utility.yul\":12325:12348   */\n      div\n        /* \"#utility.yul\":12315:12348   */\n      swap1\n      pop\n        /* \"#utility.yul\":12261:12354   */\n      swap2\n      swap1\n      pop\n      jump\t// out\n        /* \"#utility.yul\":12360:12467   */\n    tag_126:\n        /* \"#utility.yul\":12404:12412   */\n      0x00\n        /* \"#utility.yul\":12454:12459   */\n      dup3\n        /* \"#utility.yul\":12448:12452   */\n      dup3\n        /* \"#utility.yul\":12444:12460   */\n      shl\n        /* \"#utility.yul\":12423:12460   */\n      swap1\n      pop\n        /* \"#utility.yul\":12360:12467   */\n      swap3\n      swap2\n      pop\n      pop\n      jump\t// out\n        /* \"#utility.yul\":12473:12866   */\n    tag_127:\n        /* \"#utility.yul\":12542:12548   */\n      0x00\n        /* \"#utility.yul\":12592:12593   */\n      0x08\n        /* \"#utility.yul\":12580:12590   */\n      dup4\n        /* \"#utility.yul\":12576:12594   */\n      mul\n        /* \"#utility.yul\":12615:12712   */\n      tag_274\n        /* \"#utility.yul\":12645:12711   */\n      0xffffffffffffffffffffffffffffffffffffffffffffffffffffffffffffffff\n        /* \"#utility.yul\":12634:12643   */\n      dup3\n        /* \"#utility.yul\":12615:12712   */\n      tag_126\n      jump\t// in\n    tag_274:\n        /* \"#utility.yul\":12733:12772   */\n      tag_275\n        /* \"#utility.yul\":12763:12771   */\n      dup7\n        /* \"#utility.yul\":12752:12761   */\n      dup4\n        /* \"#utility.yul\":12733:12772   */\n      tag_126\n      jump\t// in\n    tag_275:\n        /* \"#utility.yul\":12721:12772   */\n      swap6\n      pop\n        /* \"#utility.yul\":12805:12809   */\n      dup1\n        /* \"#utility.yul\":12801:12810   */\n      not\n        /* \"#utility.yul\":12794:12799   */\n      dup5\n        /* \"#utility.yul\":12790:12811   */\n      and\n        /* \"#utility.yul\":12781:12811   */\n      swap4\n      pop\n        /* \"#utility.yul\":12854:12858   */\n      dup1\n        /* \"#utility.yul\":12844:12852   */\n      dup7\n        /* \"#utility.yul\":12840:12859   */\n      and\n        /* \"#utility.yul\":12833:12838   */\n      dup5\n        /* \"#utility.yul\":12830:12860   */\n      or\n        /* \"#utility.yul\":12820:12860   */\n      swap3\n      pop\n        /* \"#utility.yul\":12549:12866   */\n      pop\n      pop\n        /* \"#utility.yul\":12473:12866   */\n      swap4\n      swap3\n      pop\n      pop\n      pop\n      jump\t// out\n        /* \"#utility.yul\":12872:12932   */\n    tag_128:\n        /* \"#utility.yul\":12900:12903   */\n      0x00\n        /* \"#utility.yul\":12921:12926   */\n      dup2\n        /* \"#utility.yul\":12914:12926   */\n      swap1\n      pop\n        /* \"#utility.yul\":12872:12932   */\n      swap2\n      swap1\n      pop\n      jump\t// out\n        /* \"#utility.yul\":12938:13080   */\n    tag_129:\n        /* \"#utility.yul\":12988:12997   */\n      0x00\n        /* \"#utility.yul\":13021:13074   */\n      tag_278\n        /* \"#utility.yul\":13039:13073   */\n      tag_279\n        /* \"#utility.yul\":13048:13072   */\n      tag_280\n        /* \"#utility.yul\":13066:13071   */\n      dup5\n        /* \"#utility.yul\":13048:13072   */\n      tag_89\n      jump\t// in\n    tag_280:\n        /* \"#utility.yul\":13039:13073   */\n      tag_128\n      jump\t// in\n    tag_279:\n        /* \"#utility.yul\":13021:13074   */\n      tag_89\n      jump\t// in\n    tag_278:\n        /* \"#utility.yul\":13008:13074   */\n      swap1\n      pop\n        /* \"#utility.yul\":12938:13080   */\n      swap2\n      swap1\n      pop\n      jump\t// out\n        /* \"#utility.yul\":13086:13161   */\n    tag_130:\n        /* \"#utility.yul\":13129:13132   */\n      0x00\n        /* \"#utility.yul\":13150:13155   */\n      dup2\n        /* \"#utility.yul\":13143:13155   */\n      swap1\n      pop\n        /* \"#utility.yul\":13086:13161   */\n      swap2\n      swap1\n      pop\n      jump\t// out\n        /* \"#utility.yul\":13167:13436   */\n    tag_131:\n        /* \"#utility.yul\":13277:13316   */\n      tag_283\n        /* \"#utility.yul\":13308:13315   */\n      dup4\n        /* \"#utility.yul\":13277:13316   */\n      tag_129\n      jump\t// in\n    tag_283:\n        /* \"#utility.yul\":13338:13429   */\n      tag_284\n        /* \"#utility.yul\":13387:13428   */\n      tag_285\n        /* \"#utility.yul\":13411:13427   */\n      dup3\n        /* \"#utility.yul\":13387:13428   */\n      tag_130\n      jump\t// in\n    tag_285:\n        /* \"#utility.yul\":13379:13385   */\n      dup5\n        /* \"#utility.yul\":13372:13376   */\n      dup5\n        /* \"#utility.yul\":13366:13377   */\n      sload\n        /* \"#utility.yul\":13338:13429   */\n      tag_127\n      jump\t// in\n    tag_284:\n        /* \"#utility.yul\":13332:13336   */\n      dup3\n        /* \"#utility.yul\":13325:13430   */\n      sstore\n        /* \"#utility.yul\":13243:13436   */\n      pop\n        /* \"#utility.yul\":13167:13436   */\n      pop\n      pop\n      pop\n      jump\t// out\n        /* \"#utility.yul\":13442:13515   */\n    tag_132:\n        /* \"#utility.yul\":13487:13490   */\n      0x00\n        /* \"#utility.yul\":13442:13515   */\n      swap1\n      jump\t// out\n        /* \"#utility.yul\":13521:13710   */\n    tag_133:\n        /* \"#utility.yul\":13598:13630   */\n      tag_288\n      tag_132\n      jump\t// in\n    tag_288:\n        /* \"#utility.yul\":13639:13704   */\n      tag_289\n        /* \"#utility.yul\":13697:13703   */\n      dup2\n        /* \"#utility.yul\":13689:13695   */\n      dup5\n        /* \"#utility.yul\":13683:13687   */\n      dup5\n        /* \"#utility.yul\":13639:13704   */\n      tag_131\n      jump\t// in\n    tag_289:\n        /* \"#utility.yul\":13574:13710   */\n      pop\n        /* \"#utility.yul\":13521:13710   */\n      pop\n      pop\n      jump\t// out\n        /* \"#utility.yul\":13716:13902   */\n    tag_134:\n        /* \"#utility.yul\":13776:13896   */\n    tag_291:\n        /* \"#utility.yul\":13793:13796   */\n      dup2\n        /* \"#utility.yul\":13786:13791   */\n      dup2\n        /* \"#utility.yul\":13783:13797   */\n      lt\n        /* \"#utility.yul\":13776:13896   */\n      iszero\n      tag_293\n      jumpi\n        /* \"#utility.yul\":13847:13886   */\n      tag_294\n        /* \"#utility.yul\":13884:13885   */\n      0x00\n        /* \"#utility.yul\":13877:13882   */\n      dup3\n        /* \"#utility.yul\":13847:13886   */\n      tag_133\n      jump\t// in\n    tag_294:\n        /* \"#utility.yul\":13820:13821   */\n      0x01\n        /* \"#utility.yul\":13813:13818   */\n      dup2\n        /* \"#utility.yul\":13809:13822   */\n      add\n        /* \"#utility.yul\":13800:13822   */\n      swap1\n      pop\n        /* \"#utility.yul\":13776:13896   */\n      jump(tag_291)\n    tag_293:\n        /* \"#utility.yul\":13716:13902   */\n      pop\n      pop\n      jump\t// out\n        /* \"#utility.yul\":13908:14451   */\n    tag_135:\n        /* \"#utility.yul\":14009:14011   */\n      0x1f\n        /* \"#utility.yul\":14004:14007   */\n      dup3\n        /* \"#utility.yul\":14001:14012   */\n      gt\n        /* \"#utility.yul\":13998:14444   */\n      iszero\n      tag_296\n      jumpi\n        /* \"#utility.yul\":14043:14081   */\n      tag_297\n        /* \"#utility.yul\":14075:14080   */\n      dup2\n        /* \"#utility.yul\":14043:14081   */\n      tag_124\n      jump\t// in\n    tag_297:\n        /* \"#utility.yul\":14127:14156   */\n      tag_298\n        /* \"#utility.yul\":14145:14155   */\n      dup5\n        /* \"#utility.yul\":14127:14156   */\n      tag_125\n      jump\t// in\n    tag_298:\n        /* \"#utility.yul\":14117:14125   */\n      dup2\n        /* \"#utility.yul\":14113:14157   */\n      add\n        /* \"#utility.yul\":14310:14312   */\n      0x20\n        /* \"#utility.yul\":14298:14308   */\n      dup6\n        /* \"#utility.yul\":14295:14313   */\n      lt\n        /* \"#utility.yul\":14292:14341   */\n      iszero\n      tag_299\n      jumpi\n        /* \"#utility.yul\":14331:14339   */\n      dup2\n        /* \"#utility.yul\":14316:14339   */\n      swap1\n      pop\n        /* \"#utility.yul\":14292:14341   */\n    tag_299:\n        /* \"#utility.yul\":14354:14434   */\n      tag_300\n        /* \"#utility.yul\":14410:14432   */\n      tag_301\n        /* \"#utility.yul\":14428:14431   */\n      dup6\n        /* \"#utility.yul\":14410:14432   */\n      tag_125\n      jump\t// in\n    tag_301:\n        /* \"#utility.yul\":14400:14408   */\n      dup4\n        /* \"#utility.yul\":14396:14433   */\n      add\n        /* \"#utility.yul\":14383:14394   */\n      dup3\n        /* \"#utility.yul\":14354:14434   */\n      tag_134\n      jump\t// in\n    tag_300:\n        /* \"#utility.yul\":14013:14444   */\n      pop\n      pop\n        /* \"#utility.yul\":13998:14444   */\n    tag_296:\n        /* \"#utility.yul\":13908:14451   */\n      pop\n      pop\n      pop\n      jump\t// out\n        /* \"#utility.yul\":14457:14574   */\n    tag_136:\n        /* \"#utility.yul\":14511:14519   */\n      0x00\n        /* \"#utility.yul\":14561:14566   */\n      dup3\n        /* \"#utility.yul\":14555:14559   */\n      dup3\n        /* \"#utility.yul\":14551:14567   */\n      shr\n        /* \"#utility.yul\":14530:14567   */\n      swap1\n      pop\n        /* \"#utility.yul\":14457:14574   */\n      swap3\n      swap2\n      pop\n      pop\n      jump\t// out\n        /* \"#utility.yul\":14580:14749   */\n    tag_137:\n        /* \"#utility.yul\":14624:14630   */\n      0x00\n        /* \"#utility.yul\":14657:14708   */\n      tag_304\n        /* \"#utility.yul\":14705:14706   */\n      0x00\n        /* \"#utility.yul\":14701:14707   */\n      not\n        /* \"#utility.yul\":14693:14698   */\n      dup5\n        /* \"#utility.yul\":14690:14691   */\n      0x08\n        /* \"#utility.yul\":14686:14699   */\n      mul\n        /* \"#utility.yul\":14657:14708   */\n      tag_136\n      jump\t// in\n    tag_304:\n        /* \"#utility.yul\":14653:14709   */\n      not\n        /* \"#utility.yul\":14738:14742   */\n      dup1\n        /* \"#utility.yul\":14732:14736   */\n      dup4\n        /* \"#utility.yul\":14728:14743   */\n      and\n        /* \"#utility.yul\":14718:14743   */\n      swap2\n      pop\n        /* \"#utility.yul\":14631:14749   */\n      pop\n        /* \"#utility.yul\":14580:14749   */\n      swap3\n      swap2\n      pop\n      pop\n      jump\t// out\n        /* \"#utility.yul\":14754:15049   */\n    tag_138:\n        /* \"#utility.yul\":14830:14834   */\n      0x00\n        /* \"#utility.yul\":14976:15005   */\n      tag_306\n        /* \"#utility.yul\":15001:15004   */\n      dup4\n        /* \"#utility.yul\":14995:14999   */\n      dup4\n        /* \"#utility.yul\":14976:15005   */\n      tag_137\n      jump\t// in\n    tag_306:\n        /* \"#utility.yul\":14968:15005   */\n      swap2\n      pop\n        /* \"#utility.yul\":15038:15041   */\n      dup3\n        /* \"#utility.yul\":15035:15036   */\n      0x02\n        /* \"#utility.yul\":15031:15042   */\n      mul\n        /* \"#utility.yul\":15025:15029   */\n      dup3\n        /* \"#utility.yul\":15022:15043   */\n      or\n        /* \"#utility.yul\":15014:15043   */\n      swap1\n      pop\n        /* \"#utility.yul\":14754:15049   */\n      swap3\n      swap2\n      pop\n      pop\n      jump\t// out\n        /* \"#utility.yul\":15054:16449   */\n    tag_71:\n        /* \"#utility.yul\":15171:15208   */\n      tag_308\n        /* \"#utility.yul\":15204:15207   */\n      dup3\n        /* \"#utility.yul\":15171:15208   */\n      tag_93\n      jump\t// in\n    tag_308:\n        /* \"#utility.yul\":15273:15291   */\n      0xffffffffffffffff\n        /* \"#utility.yul\":15265:15271   */\n      dup2\n        /* \"#utility.yul\":15262:15292   */\n      gt\n        /* \"#utility.yul\":15259:15315   */\n      iszero\n      tag_309\n      jumpi\n        /* \"#utility.yul\":15295:15313   */\n      tag_310\n      tag_123\n      jump\t// in\n    tag_310:\n        /* \"#utility.yul\":15259:15315   */\n    tag_309:\n        /* \"#utility.yul\":15339:15377   */\n      tag_311\n        /* \"#utility.yul\":15371:15375   */\n      dup3\n        /* \"#utility.yul\":15365:15376   */\n      sload\n        /* \"#utility.yul\":15339:15377   */\n      tag_41\n      jump\t// in\n    tag_311:\n        /* \"#utility.yul\":15424:15491   */\n      tag_312\n        /* \"#utility.yul\":15484:15490   */\n      dup3\n        /* \"#utility.yul\":15476:15482   */\n      dup3\n        /* \"#utility.yul\":15470:15474   */\n      dup6\n        /* \"#utility.yul\":15424:15491   */\n      tag_135\n      jump\t// in\n    tag_312:\n        /* \"#utility.yul\":15518:15519   */\n      0x00\n        /* \"#utility.yul\":15542:15546   */\n      0x20\n        /* \"#utility.yul\":15529:15546   */\n      swap1\n      pop\n        /* \"#utility.yul\":15574:15576   */\n      0x1f\n        /* \"#utility.yul\":15566:15572   */\n      dup4\n        /* \"#utility.yul\":15563:15577   */\n      gt\n        /* \"#utility.yul\":15591:15592   */\n      0x01\n        /* \"#utility.yul\":15586:16204   */\n      dup2\n      eq\n      tag_314\n      jumpi\n        /* \"#utility.yul\":16248:16249   */\n      0x00\n        /* \"#utility.yul\":16265:16271   */\n      dup5\n        /* \"#utility.yul\":16262:16339   */\n      iszero\n      tag_315\n      jumpi\n        /* \"#utility.yul\":16314:16323   */\n      dup3\n        /* \"#utility.yul\":16309:16312   */\n      dup8\n        /* \"#utility.yul\":16305:16324   */\n      add\n        /* \"#utility.yul\":16299:16325   */\n      mload\n        /* \"#utility.yul\":16290:16325   */\n      swap1\n      pop\n        /* \"#utility.yul\":16262:16339   */\n    tag_315:\n        /* \"#utility.yul\":16365:16432   */\n      tag_316\n        /* \"#utility.yul\":16425:16431   */\n      dup6\n        /* \"#utility.yul\":16418:16423   */\n      dup3\n        /* \"#utility.yul\":16365:16432   */\n      tag_138\n      jump\t// in\n    tag_316:\n        /* \"#utility.yul\":16359:16363   */\n      dup7\n        /* \"#utility.yul\":16352:16433   */\n      sstore\n        /* \"#utility.yul\":16221:16443   */\n      pop\n        /* \"#utility.yul\":15556:16443   */\n      jump(tag_313)\n        /* \"#utility.yul\":15586:16204   */\n    tag_314:\n        /* \"#utility.yul\":15638:15642   */\n      0x1f\n        /* \"#utility.yul\":15634:15643   */\n      not\n        /* \"#utility.yul\":15626:15632   */\n      dup5\n        /* \"#utility.yul\":15622:15644   */\n      and\n        /* \"#utility.yul\":15672:15709   */\n      tag_317\n        /* \"#utility.yul\":15704:15708   */\n      dup7\n        /* \"#utility.yul\":15672:15709   */\n      tag_124\n      jump\t// in\n    tag_317:\n        /* \"#utility.yul\":15731:15732   */\n      0x00\n        /* \"#utility.yul\":15745:15953   */\n    tag_318:\n        /* \"#utility.yul\":15759:15766   */\n      dup3\n        /* \"#utility.yul\":15756:15757   */\n      dup2\n        /* \"#utility.yul\":15753:15767   */\n      lt\n        /* \"#utility.yul\":15745:15953   */\n      iszero\n      tag_320\n      jumpi\n        /* \"#utility.yul\":15838:15847   */\n      dup5\n        /* \"#utility.yul\":15833:15836   */\n      dup10\n        /* \"#utility.yul\":15829:15848   */\n      add\n        /* \"#utility.yul\":15823:15849   */\n      mload\n        /* \"#utility.yul\":15815:15821   */\n      dup3\n        /* \"#utility.yul\":15808:15850   */\n      sstore\n        /* \"#utility.yul\":15889:15890   */\n      0x01\n        /* \"#utility.yul\":15881:15887   */\n      dup3\n        /* \"#utility.yul\":15877:15891   */\n      add\n        /* \"#utility.yul\":15867:15891   */\n      swap2\n      pop\n        /* \"#utility.yul\":15936:15938   */\n      0x20\n        /* \"#utility.yul\":15925:15934   */\n      dup6\n        /* \"#utility.yul\":15921:15939   */\n      add\n        /* \"#utility.yul\":15908:15939   */\n      swap5\n      pop\n        /* \"#utility.yul\":15782:15786   */\n      0x20\n        /* \"#utility.yul\":15779:15780   */\n      dup2\n        /* \"#utility.yul\":15775:15787   */\n      add\n        /* \"#utility.yul\":15770:15787   */\n      swap1\n      pop\n        /* \"#utility.yul\":15745:15953   */\n      jump(tag_318)\n    tag_320:\n        /* \"#utility.yul\":15981:15987   */\n      dup7\n        /* \"#utility.yul\":15972:15979   */\n      dup4\n        /* \"#utility.yul\":15969:15988   */\n      lt\n        /* \"#utility.yul\":15966:16145   */\n      iszero\n      tag_321\n      jumpi\n        /* \"#utility.yul\":16039:16048   */\n      dup5\n        /* \"#utility.yul\":16034:16037   */\n      dup10\n        /* \"#utility.yul\":16030:16049   */\n      add\n        /* \"#utility.yul\":16024:16050   */\n      mload\n        /* \"#utility.yul\":16082:16130   */\n      tag_322\n        /* \"#utility.yul\":16124:16128   */\n      0x1f\n        /* \"#utility.yul\":16116:16122   */\n      dup10\n        /* \"#utility.yul\":16112:16129   */\n      and\n        /* \"#utility.yul\":16101:16110   */\n      dup3\n        /* \"#utility.yul\":16082:16130   */\n      tag_137\n      jump\t// in\n    tag_322:\n        /* \"#utility.yul\":16074:16080   */\n      dup4\n        /* \"#utility.yul\":16067:16131   */\n      sstore\n        /* \"#utility.yul\":15989:16145   */\n      pop\n        /* \"#utility.yul\":15966:16145   */\n    tag_321:\n        /* \"#utility.yul\":16191:16192   */\n      0x01\n        /* \"#utility.yul\":16187:16188   */\n      0x02\n        /* \"#utility.yul\":16179:16185   */\n      dup9\n        /* \"#utility.yul\":16175:16189   */\n      mul\n        /* \"#utility.yul\":16171:16193   */\n      add\n        /* \"#utility.yul\":16165:16169   */\n      dup9\n        /* \"#utility.yul\":16158:16194   */\n      sstore\n        /* \"#utility.yul\":15593:16204   */\n      pop\n      pop\n      pop\n        /* \"#utility.yul\":15556:16443   */\n    tag_313:\n      pop\n        /* \"#utility.yul\":15146:16449   */\n      pop\n      pop\n      pop\n        /* \"#utility.yul\":15054:16449   */\n      pop\n      pop\n      jump\t// out\n\n    auxdata: 0xa26469706673582212206e775f7742c0969589c5a1a1f174ad6d35c7f9d62c6b8086e2af8b228ca0ae1864736f6c63430008130033\n}\n",
				"bytecode": {
					"linkReferences": {},
					"object": "608060405234801561001057600080fd5b50610f4d806100206000396000f3fe6080604052600436106100555760003560e01c8063858310791461005a57806391a2fa951461009a578063b6a46b3b146100b6578063daa6296b146100df578063ee4231941461011c578063f83cf12014610138575b600080fd5b34801561006657600080fd5b50610081600480360381019061007c9190610649565b610163565b6040516100919493929190610715565b60405180910390f35b6100b460048036038101906100af9190610649565b61022b565b005b3480156100c257600080fd5b506100dd60048036038101906100d891906107c6565b6102c5565b005b3480156100eb57600080fd5b5061010660048036038101906101019190610871565b6104a9565b60405161011391906108b1565b60405180910390f35b61013660048036038101906101319190610649565b6104da565b005b34801561014457600080fd5b5061014d610574565b60405161015a919061098a565b60405180910390f35b6000818154811061017357600080fd5b906000526020600020906004020160009150905080600001549080600101805461019c906109db565b80601f01602080910402602001604051908101604052809291908181526020018280546101c8906109db565b80156102155780601f106101ea57610100808354040283529160200191610215565b820191906000526020600020905b8154815290600101906020018083116101f857829003601f168201915b5050505050908060020154908060030154905084565b662386f26fc100003414610274576040517f08c379a000000000000000000000000000000000000000000000000000000000815260040161026b90610a58565b60405180910390fd5b6000806001836102849190610aa7565b8154811061029557610294610adb565b5b9060005260206000209060040201905060648160030160008282546102ba9190610b0a565b925050819055505050565b600060056103e88484426040516020016102e193929190610b9e565b6040516020818303038152906040528051906020012060001c6103049190610bf7565b61030e9190610c28565b90506000603c606485854260405160200161032b93929190610b9e565b6040516020818303038152906040528051906020012060001c61034e9190610bf7565b6103589190610c28565b90506000600160008054905061036e9190610b0a565b90506000604051806080016040528083815260200187878080601f016020809104026020016040519081016040528093929190818152602001838380828437600081840152601f19601f82011690508083019250505050505050815260200185815260200184815250905060008190806001815401808255809150506001900390600052602060002090600402016000909190919091506000820151816000015560208201518160010190816104249190610e45565b5060408201518160020155606082015181600301555050600160003373ffffffffffffffffffffffffffffffffffffffff1673ffffffffffffffffffffffffffffffffffffffff168152602001908152602001600020829080600181540180825580915050600190039060005260206000200160009091909190915055505050505050565b600160205281600052604060002081815481106104c557600080fd5b90600052602060002001600091509150505481565b662386f26fc100003414610523576040517f08c379a000000000000000000000000000000000000000000000000000000000815260040161051a90610a58565b60405180910390fd5b6000806001836105339190610aa7565b8154811061054457610543610adb565b5b9060005260206000209060040201905060648160020160008282546105699190610b0a565b925050819055505050565b6060600160003373ffffffffffffffffffffffffffffffffffffffff1673ffffffffffffffffffffffffffffffffffffffff1681526020019081526020016000208054806020026020016040519081016040528092919081815260200182805480156105ff57602002820191906000526020600020905b8154815260200190600101908083116105eb575b5050505050905090565b600080fd5b600080fd5b6000819050919050565b61062681610613565b811461063157600080fd5b50565b6000813590506106438161061d565b92915050565b60006020828403121561065f5761065e610609565b5b600061066d84828501610634565b91505092915050565b61067f81610613565b82525050565b600081519050919050565b600082825260208201905092915050565b60005b838110156106bf5780820151818401526020810190506106a4565b60008484015250505050565b6000601f19601f8301169050919050565b60006106e782610685565b6106f18185610690565b93506107018185602086016106a1565b61070a816106cb565b840191505092915050565b600060808201905061072a6000830187610676565b818103602083015261073c81866106dc565b905061074b6040830185610676565b6107586060830184610676565b95945050505050565b600080fd5b600080fd5b600080fd5b60008083601f84011261078657610785610761565b5b8235905067ffffffffffffffff8111156107a3576107a2610766565b5b6020830191508360018202830111156107bf576107be61076b565b5b9250929050565b600080602083850312156107dd576107dc610609565b5b600083013567ffffffffffffffff8111156107fb576107fa61060e565b5b61080785828601610770565b92509250509250929050565b600073ffffffffffffffffffffffffffffffffffffffff82169050919050565b600061083e82610813565b9050919050565b61084e81610833565b811461085957600080fd5b50565b60008135905061086b81610845565b92915050565b6000806040838503121561088857610887610609565b5b60006108968582860161085c565b92505060206108a785828601610634565b9150509250929050565b60006020820190506108c66000830184610676565b92915050565b600081519050919050565b600082825260208201905092915050565b6000819050602082019050919050565b61090181610613565b82525050565b600061091383836108f8565b60208301905092915050565b6000602082019050919050565b6000610937826108cc565b61094181856108d7565b935061094c836108e8565b8060005b8381101561097d5781516109648882610907565b975061096f8361091f565b925050600181019050610950565b5085935050505092915050565b600060208201905081810360008301526109a4818461092c565b905092915050565b7f4e487b7100000000000000000000000000000000000000000000000000000000600052602260045260246000fd5b600060028204905060018216806109f357607f821691505b602082108103610a0657610a056109ac565b5b50919050565b7f416d6f756e742073686f756c6420626520302e30312045746865720000000000600082015250565b6000610a42601b83610690565b9150610a4d82610a0c565b602082019050919050565b60006020820190508181036000830152610a7181610a35565b9050919050565b7f4e487b7100000000000000000000000000000000000000000000000000000000600052601160045260246000fd5b6000610ab282610613565b9150610abd83610613565b9250828203905081811115610ad557610ad4610a78565b5b92915050565b7f4e487b7100000000000000000000000000000000000000000000000000000000600052603260045260246000fd5b6000610b1582610613565b9150610b2083610613565b9250828201905080821115610b3857610b37610a78565b5b92915050565b600081905092915050565b82818337600083830152505050565b6000610b648385610b3e565b9350610b71838584610b49565b82840190509392505050565b6000819050919050565b610b98610b9382610613565b610b7d565b82525050565b6000610bab828587610b58565b9150610bb78284610b87565b602082019150819050949350505050565b7f4e487b7100000000000000000000000000000000000000000000000000000000600052601260045260246000fd5b6000610c0282610613565b9150610c0d83610613565b925082610c1d57610c1c610bc8565b5b828206905092915050565b6000610c3382610613565b9150610c3e83610613565b9250828202610c4c81610613565b91508282048414831517610c6357610c62610a78565b5b5092915050565b7f4e487b7100000000000000000000000000000000000000000000000000000000600052604160045260246000fd5b60008190508160005260206000209050919050565b60006020601f8301049050919050565b600082821b905092915050565b600060088302610cfb7fffffffffffffffffffffffffffffffffffffffffffffffffffffffffffffffff82610cbe565b610d058683610cbe565b95508019841693508086168417925050509392505050565b6000819050919050565b6000610d42610d3d610d3884610613565b610d1d565b610613565b9050919050565b6000819050919050565b610d5c83610d27565b610d70610d6882610d49565b848454610ccb565b825550505050565b600090565b610d85610d78565b610d90818484610d53565b505050565b5b81811015610db457610da9600082610d7d565b600181019050610d96565b5050565b601f821115610df957610dca81610c99565b610dd384610cae565b81016020851015610de2578190505b610df6610dee85610cae565b830182610d95565b50505b505050565b600082821c905092915050565b6000610e1c60001984600802610dfe565b1980831691505092915050565b6000610e358383610e0b565b9150826002028217905092915050565b610e4e82610685565b67ffffffffffffffff811115610e6757610e66610c6a565b5b610e7182546109db565b610e7c828285610db8565b600060209050601f831160018114610eaf5760008415610e9d578287015190505b610ea78582610e29565b865550610f0f565b601f198416610ebd86610c99565b60005b82811015610ee557848901518255600182019150602085019450602081019050610ec0565b86831015610f025784890151610efe601f891682610e0b565b8355505b6001600288020188555050505b50505050505056fea26469706673582212206e775f7742c0969589c5a1a1f174ad6d35c7f9d62c6b8086e2af8b228ca0ae1864736f6c63430008130033",
					"opcodes": "PUSH1 0x80 PUSH1 0x40 MSTORE CALLVALUE DUP1 ISZERO PUSH2 0x10 JUMPI PUSH1 0x0 DUP1 REVERT JUMPDEST POP PUSH2 0xF4D DUP1 PUSH2 0x20 PUSH1 0x0 CODECOPY PUSH1 0x0 RETURN INVALID PUSH1 0x80 PUSH1 0x40 MSTORE PUSH1 0x4 CALLDATASIZE LT PUSH2 0x55 JUMPI PUSH1 0x0 CALLDATALOAD PUSH1 0xE0 SHR DUP1 PUSH4 0x85831079 EQ PUSH2 0x5A JUMPI DUP1 PUSH4 0x91A2FA95 EQ PUSH2 0x9A JUMPI DUP1 PUSH4 0xB6A46B3B EQ PUSH2 0xB6 JUMPI DUP1 PUSH4 0xDAA6296B EQ PUSH2 0xDF JUMPI DUP1 PUSH4 0xEE423194 EQ PUSH2 0x11C JUMPI DUP1 PUSH4 0xF83CF120 EQ PUSH2 0x138 JUMPI JUMPDEST PUSH1 0x0 DUP1 REVERT JUMPDEST CALLVALUE DUP1 ISZERO PUSH2 0x66 JUMPI PUSH1 0x0 DUP1 REVERT JUMPDEST POP PUSH2 0x81 PUSH1 0x4 DUP1 CALLDATASIZE SUB DUP2 ADD SWAP1 PUSH2 0x7C SWAP2 SWAP1 PUSH2 0x649 JUMP JUMPDEST PUSH2 0x163 JUMP JUMPDEST PUSH1 0x40 MLOAD PUSH2 0x91 SWAP5 SWAP4 SWAP3 SWAP2 SWAP1 PUSH2 0x715 JUMP JUMPDEST PUSH1 0x40 MLOAD DUP1 SWAP2 SUB SWAP1 RETURN JUMPDEST PUSH2 0xB4 PUSH1 0x4 DUP1 CALLDATASIZE SUB DUP2 ADD SWAP1 PUSH2 0xAF SWAP2 SWAP1 PUSH2 0x649 JUMP JUMPDEST PUSH2 0x22B JUMP JUMPDEST STOP JUMPDEST CALLVALUE DUP1 ISZERO PUSH2 0xC2 JUMPI PUSH1 0x0 DUP1 REVERT JUMPDEST POP PUSH2 0xDD PUSH1 0x4 DUP1 CALLDATASIZE SUB DUP2 ADD SWAP1 PUSH2 0xD8 SWAP2 SWAP1 PUSH2 0x7C6 JUMP JUMPDEST PUSH2 0x2C5 JUMP JUMPDEST STOP JUMPDEST CALLVALUE DUP1 ISZERO PUSH2 0xEB JUMPI PUSH1 0x0 DUP1 REVERT JUMPDEST POP PUSH2 0x106 PUSH1 0x4 DUP1 CALLDATASIZE SUB DUP2 ADD SWAP1 PUSH2 0x101 SWAP2 SWAP1 PUSH2 0x871 JUMP JUMPDEST PUSH2 0x4A9 JUMP JUMPDEST PUSH1 0x40 MLOAD PUSH2 0x113 SWAP2 SWAP1 PUSH2 0x8B1 JUMP JUMPDEST PUSH1 0x40 MLOAD DUP1 SWAP2 SUB SWAP1 RETURN JUMPDEST PUSH2 0x136 PUSH1 0x4 DUP1 CALLDATASIZE SUB DUP2 ADD SWAP1 PUSH2 0x131 SWAP2 SWAP1 PUSH2 0x649 JUMP JUMPDEST PUSH2 0x4DA JUMP JUMPDEST STOP JUMPDEST CALLVALUE DUP1 ISZERO PUSH2 0x144 JUMPI PUSH1 0x0 DUP1 REVERT JUMPDEST POP PUSH2 0x14D PUSH2 0x574 JUMP JUMPDEST PUSH1 0x40 MLOAD PUSH2 0x15A SWAP2 SWAP1 PUSH2 0x98A JUMP JUMPDEST PUSH1 0x40 MLOAD DUP1 SWAP2 SUB SWAP1 RETURN JUMPDEST PUSH1 0x0 DUP2 DUP2 SLOAD DUP2 LT PUSH2 0x173 JUMPI PUSH1 0x0 DUP1 REVERT JUMPDEST SWAP1 PUSH1 0x0 MSTORE PUSH1 0x20 PUSH1 0x0 KECCAK256 SWAP1 PUSH1 0x4 MUL ADD PUSH1 0x0 SWAP2 POP SWAP1 POP DUP1 PUSH1 0x0 ADD SLOAD SWAP1 DUP1 PUSH1 0x1 ADD DUP1 SLOAD PUSH2 0x19C SWAP1 PUSH2 0x9DB JUMP JUMPDEST DUP1 PUSH1 0x1F ADD PUSH1 0x20 DUP1 SWAP2 DIV MUL PUSH1 0x20 ADD PUSH1 0x40 MLOAD SWAP1 DUP2 ADD PUSH1 0x40 MSTORE DUP1 SWAP3 SWAP2 SWAP1 DUP2 DUP2 MSTORE PUSH1 0x20 ADD DUP3 DUP1 SLOAD PUSH2 0x1C8 SWAP1 PUSH2 0x9DB JUMP JUMPDEST DUP1 ISZERO PUSH2 0x215 JUMPI DUP1 PUSH1 0x1F LT PUSH2 0x1EA JUMPI PUSH2 0x100 DUP1 DUP4 SLOAD DIV MUL DUP4 MSTORE SWAP2 PUSH1 0x20 ADD SWAP2 PUSH2 0x215 JUMP JUMPDEST DUP3 ADD SWAP2 SWAP1 PUSH1 0x0 MSTORE PUSH1 0x20 PUSH1 0x0 KECCAK256 SWAP1 JUMPDEST DUP2 SLOAD DUP2 MSTORE SWAP1 PUSH1 0x1 ADD SWAP1 PUSH1 0x20 ADD DUP1 DUP4 GT PUSH2 0x1F8 JUMPI DUP3 SWAP1 SUB PUSH1 0x1F AND DUP3 ADD SWAP2 JUMPDEST POP POP POP POP POP SWAP1 DUP1 PUSH1 0x2 ADD SLOAD SWAP1 DUP1 PUSH1 0x3 ADD SLOAD SWAP1 POP DUP5 JUMP JUMPDEST PUSH7 0x2386F26FC10000 CALLVALUE EQ PUSH2 0x274 JUMPI PUSH1 0x40 MLOAD PUSH32 0x8C379A000000000000000000000000000000000000000000000000000000000 DUP2 MSTORE PUSH1 0x4 ADD PUSH2 0x26B SWAP1 PUSH2 0xA58 JUMP JUMPDEST PUSH1 0x40 MLOAD DUP1 SWAP2 SUB SWAP1 REVERT JUMPDEST PUSH1 0x0 DUP1 PUSH1 0x1 DUP4 PUSH2 0x284 SWAP2 SWAP1 PUSH2 0xAA7 JUMP JUMPDEST DUP2 SLOAD DUP2 LT PUSH2 0x295 JUMPI PUSH2 0x294 PUSH2 0xADB JUMP JUMPDEST JUMPDEST SWAP1 PUSH1 0x0 MSTORE PUSH1 0x20 PUSH1 0x0 KECCAK256 SWAP1 PUSH1 0x4 MUL ADD SWAP1 POP PUSH1 0x64 DUP2 PUSH1 0x3 ADD PUSH1 0x0 DUP3 DUP3 SLOAD PUSH2 0x2BA SWAP2 SWAP1 PUSH2 0xB0A JUMP JUMPDEST SWAP3 POP POP DUP2 SWAP1 SSTORE POP POP POP JUMP JUMPDEST PUSH1 0x0 PUSH1 0x5 PUSH2 0x3E8 DUP5 DUP5 TIMESTAMP PUSH1 0x40 MLOAD PUSH1 0x20 ADD PUSH2 0x2E1 SWAP4 SWAP3 SWAP2 SWAP1 PUSH2 0xB9E JUMP JUMPDEST PUSH1 0x40 MLOAD PUSH1 0x20 DUP2 DUP4 SUB SUB DUP2 MSTORE SWAP1 PUSH1 0x40 MSTORE DUP1 MLOAD SWAP1 PUSH1 0x20 ADD KECCAK256 PUSH1 0x0 SHR PUSH2 0x304 SWAP2 SWAP1 PUSH2 0xBF7 JUMP JUMPDEST PUSH2 0x30E SWAP2 SWAP1 PUSH2 0xC28 JUMP JUMPDEST SWAP1 POP PUSH1 0x0 PUSH1 0x3C PUSH1 0x64 DUP6 DUP6 TIMESTAMP PUSH1 0x40 MLOAD PUSH1 0x20 ADD PUSH2 0x32B SWAP4 SWAP3 SWAP2 SWAP1 PUSH2 0xB9E JUMP JUMPDEST PUSH1 0x40 MLOAD PUSH1 0x20 DUP2 DUP4 SUB SUB DUP2 MSTORE SWAP1 PUSH1 0x40 MSTORE DUP1 MLOAD SWAP1 PUSH1 0x20 ADD KECCAK256 PUSH1 0x0 SHR PUSH2 0x34E SWAP2 SWAP1 PUSH2 0xBF7 JUMP JUMPDEST PUSH2 0x358 SWAP2 SWAP1 PUSH2 0xC28 JUMP JUMPDEST SWAP1 POP PUSH1 0x0 PUSH1 0x1 PUSH1 0x0 DUP1 SLOAD SWAP1 POP PUSH2 0x36E SWAP2 SWAP1 PUSH2 0xB0A JUMP JUMPDEST SWAP1 POP PUSH1 0x0 PUSH1 0x40 MLOAD DUP1 PUSH1 0x80 ADD PUSH1 0x40 MSTORE DUP1 DUP4 DUP2 MSTORE PUSH1 0x20 ADD DUP8 DUP8 DUP1 DUP1 PUSH1 0x1F ADD PUSH1 0x20 DUP1 SWAP2 DIV MUL PUSH1 0x20 ADD PUSH1 0x40 MLOAD SWAP1 DUP2 ADD PUSH1 0x40 MSTORE DUP1 SWAP4 SWAP3 SWAP2 SWAP1 DUP2 DUP2 MSTORE PUSH1 0x20 ADD DUP4 DUP4 DUP1 DUP3 DUP5 CALLDATACOPY PUSH1 0x0 DUP2 DUP5 ADD MSTORE PUSH1 0x1F NOT PUSH1 0x1F DUP3 ADD AND SWAP1 POP DUP1 DUP4 ADD SWAP3 POP POP POP POP POP POP POP DUP2 MSTORE PUSH1 0x20 ADD DUP6 DUP2 MSTORE PUSH1 0x20 ADD DUP5 DUP2 MSTORE POP SWAP1 POP PUSH1 0x0 DUP2 SWAP1 DUP1 PUSH1 0x1 DUP2 SLOAD ADD DUP1 DUP3 SSTORE DUP1 SWAP2 POP POP PUSH1 0x1 SWAP1 SUB SWAP1 PUSH1 0x0 MSTORE PUSH1 0x20 PUSH1 0x0 KECCAK256 SWAP1 PUSH1 0x4 MUL ADD PUSH1 0x0 SWAP1 SWAP2 SWAP1 SWAP2 SWAP1 SWAP2 POP PUSH1 0x0 DUP3 ADD MLOAD DUP2 PUSH1 0x0 ADD SSTORE PUSH1 0x20 DUP3 ADD MLOAD DUP2 PUSH1 0x1 ADD SWAP1 DUP2 PUSH2 0x424 SWAP2 SWAP1 PUSH2 0xE45 JUMP JUMPDEST POP PUSH1 0x40 DUP3 ADD MLOAD DUP2 PUSH1 0x2 ADD SSTORE PUSH1 0x60 DUP3 ADD MLOAD DUP2 PUSH1 0x3 ADD SSTORE POP POP PUSH1 0x1 PUSH1 0x0 CALLER PUSH20 0xFFFFFFFFFFFFFFFFFFFFFFFFFFFFFFFFFFFFFFFF AND PUSH20 0xFFFFFFFFFFFFFFFFFFFFFFFFFFFFFFFFFFFFFFFF AND DUP2 MSTORE PUSH1 0x20 ADD SWAP1 DUP2 MSTORE PUSH1 0x20 ADD PUSH1 0x0 KECCAK256 DUP3 SWAP1 DUP1 PUSH1 0x1 DUP2 SLOAD ADD DUP1 DUP3 SSTORE DUP1 SWAP2 POP POP PUSH1 0x1 SWAP1 SUB SWAP1 PUSH1 0x0 MSTORE PUSH1 0x20 PUSH1 0x0 KECCAK256 ADD PUSH1 0x0 SWAP1 SWAP2 SWAP1 SWAP2 SWAP1 SWAP2 POP SSTORE POP POP POP POP POP POP JUMP JUMPDEST PUSH1 0x1 PUSH1 0x20 MSTORE DUP2 PUSH1 0x0 MSTORE PUSH1 0x40 PUSH1 0x0 KECCAK256 DUP2 DUP2 SLOAD DUP2 LT PUSH2 0x4C5 JUMPI PUSH1 0x0 DUP1 REVERT JUMPDEST SWAP1 PUSH1 0x0 MSTORE PUSH1 0x20 PUSH1 0x0 KECCAK256 ADD PUSH1 0x0 SWAP2 POP SWAP2 POP POP SLOAD DUP2 JUMP JUMPDEST PUSH7 0x2386F26FC10000 CALLVALUE EQ PUSH2 0x523 JUMPI PUSH1 0x40 MLOAD PUSH32 0x8C379A000000000000000000000000000000000000000000000000000000000 DUP2 MSTORE PUSH1 0x4 ADD PUSH2 0x51A SWAP1 PUSH2 0xA58 JUMP JUMPDEST PUSH1 0x40 MLOAD DUP1 SWAP2 SUB SWAP1 REVERT JUMPDEST PUSH1 0x0 DUP1 PUSH1 0x1 DUP4 PUSH2 0x533 SWAP2 SWAP1 PUSH2 0xAA7 JUMP JUMPDEST DUP2 SLOAD DUP2 LT PUSH2 0x544 JUMPI PUSH2 0x543 PUSH2 0xADB JUMP JUMPDEST JUMPDEST SWAP1 PUSH1 0x0 MSTORE PUSH1 0x20 PUSH1 0x0 KECCAK256 SWAP1 PUSH1 0x4 MUL ADD SWAP1 POP PUSH1 0x64 DUP2 PUSH1 0x2 ADD PUSH1 0x0 DUP3 DUP3 SLOAD PUSH2 0x569 SWAP2 SWAP1 PUSH2 0xB0A JUMP JUMPDEST SWAP3 POP POP DUP2 SWAP1 SSTORE POP POP POP JUMP JUMPDEST PUSH1 0x60 PUSH1 0x1 PUSH1 0x0 CALLER PUSH20 0xFFFFFFFFFFFFFFFFFFFFFFFFFFFFFFFFFFFFFFFF AND PUSH20 0xFFFFFFFFFFFFFFFFFFFFFFFFFFFFFFFFFFFFFFFF AND DUP2 MSTORE PUSH1 0x20 ADD SWAP1 DUP2 MSTORE PUSH1 0x20 ADD PUSH1 0x0 KECCAK256 DUP1 SLOAD DUP1 PUSH1 0x20 MUL PUSH1 0x20 ADD PUSH1 0x40 MLOAD SWAP1 DUP2 ADD PUSH1 0x40 MSTORE DUP1 SWAP3 SWAP2 SWAP1 DUP2 DUP2 MSTORE PUSH1 0x20 ADD DUP3 DUP1 SLOAD DUP1 ISZERO PUSH2 0x5FF JUMPI PUSH1 0x20 MUL DUP3 ADD SWAP2 SWAP1 PUSH1 0x0 MSTORE PUSH1 0x20 PUSH1 0x0 KECCAK256 SWAP1 JUMPDEST DUP2 SLOAD DUP2 MSTORE PUSH1 0x20 ADD SWAP1 PUSH1 0x1 ADD SWAP1 DUP1 DUP4 GT PUSH2 0x5EB JUMPI JUMPDEST POP POP POP POP POP SWAP1 POP SWAP1 JUMP JUMPDEST PUSH1 0x0 DUP1 REVERT JUMPDEST PUSH1 0x0 DUP1 REVERT JUMPDEST PUSH1 0x0 DUP2 SWAP1 POP SWAP2 SWAP1 POP JUMP JUMPDEST PUSH2 0x626 DUP2 PUSH2 0x613 JUMP JUMPDEST DUP2 EQ PUSH2 0x631 JUMPI PUSH1 0x0 DUP1 REVERT JUMPDEST POP JUMP JUMPDEST PUSH1 0x0 DUP2 CALLDATALOAD SWAP1 POP PUSH2 0x643 DUP2 PUSH2 0x61D JUMP JUMPDEST SWAP3 SWAP2 POP POP JUMP JUMPDEST PUSH1 0x0 PUSH1 0x20 DUP3 DUP5 SUB SLT ISZERO PUSH2 0x65F JUMPI PUSH2 0x65E PUSH2 0x609 JUMP JUMPDEST JUMPDEST PUSH1 0x0 PUSH2 0x66D DUP5 DUP3 DUP6 ADD PUSH2 0x634 JUMP JUMPDEST SWAP2 POP POP SWAP3 SWAP2 POP POP JUMP JUMPDEST PUSH2 0x67F DUP2 PUSH2 0x613 JUMP JUMPDEST DUP3 MSTORE POP POP JUMP JUMPDEST PUSH1 0x0 DUP2 MLOAD SWAP1 POP SWAP2 SWAP1 POP JUMP JUMPDEST PUSH1 0x0 DUP3 DUP3 MSTORE PUSH1 0x20 DUP3 ADD SWAP1 POP SWAP3 SWAP2 POP POP JUMP JUMPDEST PUSH1 0x0 JUMPDEST DUP4 DUP2 LT ISZERO PUSH2 0x6BF JUMPI DUP1 DUP3 ADD MLOAD DUP2 DUP5 ADD MSTORE PUSH1 0x20 DUP2 ADD SWAP1 POP PUSH2 0x6A4 JUMP JUMPDEST PUSH1 0x0 DUP5 DUP5 ADD MSTORE POP POP POP POP JUMP JUMPDEST PUSH1 0x0 PUSH1 0x1F NOT PUSH1 0x1F DUP4 ADD AND SWAP1 POP SWAP2 SWAP1 POP JUMP JUMPDEST PUSH1 0x0 PUSH2 0x6E7 DUP3 PUSH2 0x685 JUMP JUMPDEST PUSH2 0x6F1 DUP2 DUP6 PUSH2 0x690 JUMP JUMPDEST SWAP4 POP PUSH2 0x701 DUP2 DUP6 PUSH1 0x20 DUP7 ADD PUSH2 0x6A1 JUMP JUMPDEST PUSH2 0x70A DUP2 PUSH2 0x6CB JUMP JUMPDEST DUP5 ADD SWAP2 POP POP SWAP3 SWAP2 POP POP JUMP JUMPDEST PUSH1 0x0 PUSH1 0x80 DUP3 ADD SWAP1 POP PUSH2 0x72A PUSH1 0x0 DUP4 ADD DUP8 PUSH2 0x676 JUMP JUMPDEST DUP2 DUP2 SUB PUSH1 0x20 DUP4 ADD MSTORE PUSH2 0x73C DUP2 DUP7 PUSH2 0x6DC JUMP JUMPDEST SWAP1 POP PUSH2 0x74B PUSH1 0x40 DUP4 ADD DUP6 PUSH2 0x676 JUMP JUMPDEST PUSH2 0x758 PUSH1 0x60 DUP4 ADD DUP5 PUSH2 0x676 JUMP JUMPDEST SWAP6 SWAP5 POP POP POP POP POP JUMP JUMPDEST PUSH1 0x0 DUP1 REVERT JUMPDEST PUSH1 0x0 DUP1 REVERT JUMPDEST PUSH1 0x0 DUP1 REVERT JUMPDEST PUSH1 0x0 DUP1 DUP4 PUSH1 0x1F DUP5 ADD SLT PUSH2 0x786 JUMPI PUSH2 0x785 PUSH2 0x761 JUMP JUMPDEST JUMPDEST DUP3 CALLDATALOAD SWAP1 POP PUSH8 0xFFFFFFFFFFFFFFFF DUP2 GT ISZERO PUSH2 0x7A3 JUMPI PUSH2 0x7A2 PUSH2 0x766 JUMP JUMPDEST JUMPDEST PUSH1 0x20 DUP4 ADD SWAP2 POP DUP4 PUSH1 0x1 DUP3 MUL DUP4 ADD GT ISZERO PUSH2 0x7BF JUMPI PUSH2 0x7BE PUSH2 0x76B JUMP JUMPDEST JUMPDEST SWAP3 POP SWAP3 SWAP1 POP JUMP JUMPDEST PUSH1 0x0 DUP1 PUSH1 0x20 DUP4 DUP6 SUB SLT ISZERO PUSH2 0x7DD JUMPI PUSH2 0x7DC PUSH2 0x609 JUMP JUMPDEST JUMPDEST PUSH1 0x0 DUP4 ADD CALLDATALOAD PUSH8 0xFFFFFFFFFFFFFFFF DUP2 GT ISZERO PUSH2 0x7FB JUMPI PUSH2 0x7FA PUSH2 0x60E JUMP JUMPDEST JUMPDEST PUSH2 0x807 DUP6 DUP3 DUP7 ADD PUSH2 0x770 JUMP JUMPDEST SWAP3 POP SWAP3 POP POP SWAP3 POP SWAP3 SWAP1 POP JUMP JUMPDEST PUSH1 0x0 PUSH20 0xFFFFFFFFFFFFFFFFFFFFFFFFFFFFFFFFFFFFFFFF DUP3 AND SWAP1 POP SWAP2 SWAP1 POP JUMP JUMPDEST PUSH1 0x0 PUSH2 0x83E DUP3 PUSH2 0x813 JUMP JUMPDEST SWAP1 POP SWAP2 SWAP1 POP JUMP JUMPDEST PUSH2 0x84E DUP2 PUSH2 0x833 JUMP JUMPDEST DUP2 EQ PUSH2 0x859 JUMPI PUSH1 0x0 DUP1 REVERT JUMPDEST POP JUMP JUMPDEST PUSH1 0x0 DUP2 CALLDATALOAD SWAP1 POP PUSH2 0x86B DUP2 PUSH2 0x845 JUMP JUMPDEST SWAP3 SWAP2 POP POP JUMP JUMPDEST PUSH1 0x0 DUP1 PUSH1 0x40 DUP4 DUP6 SUB SLT ISZERO PUSH2 0x888 JUMPI PUSH2 0x887 PUSH2 0x609 JUMP JUMPDEST JUMPDEST PUSH1 0x0 PUSH2 0x896 DUP6 DUP3 DUP7 ADD PUSH2 0x85C JUMP JUMPDEST SWAP3 POP POP PUSH1 0x20 PUSH2 0x8A7 DUP6 DUP3 DUP7 ADD PUSH2 0x634 JUMP JUMPDEST SWAP2 POP POP SWAP3 POP SWAP3 SWAP1 POP JUMP JUMPDEST PUSH1 0x0 PUSH1 0x20 DUP3 ADD SWAP1 POP PUSH2 0x8C6 PUSH1 0x0 DUP4 ADD DUP5 PUSH2 0x676 JUMP JUMPDEST SWAP3 SWAP2 POP POP JUMP JUMPDEST PUSH1 0x0 DUP2 MLOAD SWAP1 POP SWAP2 SWAP1 POP JUMP JUMPDEST PUSH1 0x0 DUP3 DUP3 MSTORE PUSH1 0x20 DUP3 ADD SWAP1 POP SWAP3 SWAP2 POP POP JUMP JUMPDEST PUSH1 0x0 DUP2 SWAP1 POP PUSH1 0x20 DUP3 ADD SWAP1 POP SWAP2 SWAP1 POP JUMP JUMPDEST PUSH2 0x901 DUP2 PUSH2 0x613 JUMP JUMPDEST DUP3 MSTORE POP POP JUMP JUMPDEST PUSH1 0x0 PUSH2 0x913 DUP4 DUP4 PUSH2 0x8F8 JUMP JUMPDEST PUSH1 0x20 DUP4 ADD SWAP1 POP SWAP3 SWAP2 POP POP JUMP JUMPDEST PUSH1 0x0 PUSH1 0x20 DUP3 ADD SWAP1 POP SWAP2 SWAP1 POP JUMP JUMPDEST PUSH1 0x0 PUSH2 0x937 DUP3 PUSH2 0x8CC JUMP JUMPDEST PUSH2 0x941 DUP2 DUP6 PUSH2 0x8D7 JUMP JUMPDEST SWAP4 POP PUSH2 0x94C DUP4 PUSH2 0x8E8 JUMP JUMPDEST DUP1 PUSH1 0x0 JUMPDEST DUP4 DUP2 LT ISZERO PUSH2 0x97D JUMPI DUP2 MLOAD PUSH2 0x964 DUP9 DUP3 PUSH2 0x907 JUMP JUMPDEST SWAP8 POP PUSH2 0x96F DUP4 PUSH2 0x91F JUMP JUMPDEST SWAP3 POP POP PUSH1 0x1 DUP2 ADD SWAP1 POP PUSH2 0x950 JUMP JUMPDEST POP DUP6 SWAP4 POP POP POP POP SWAP3 SWAP2 POP POP JUMP JUMPDEST PUSH1 0x0 PUSH1 0x20 DUP3 ADD SWAP1 POP DUP2 DUP2 SUB PUSH1 0x0 DUP4 ADD MSTORE PUSH2 0x9A4 DUP2 DUP5 PUSH2 0x92C JUMP JUMPDEST SWAP1 POP SWAP3 SWAP2 POP POP JUMP JUMPDEST PUSH32 0x4E487B7100000000000000000000000000000000000000000000000000000000 PUSH1 0x0 MSTORE PUSH1 0x22 PUSH1 0x4 MSTORE PUSH1 0x24 PUSH1 0x0 REVERT JUMPDEST PUSH1 0x0 PUSH1 0x2 DUP3 DIV SWAP1 POP PUSH1 0x1 DUP3 AND DUP1 PUSH2 0x9F3 JUMPI PUSH1 0x7F DUP3 AND SWAP2 POP JUMPDEST PUSH1 0x20 DUP3 LT DUP2 SUB PUSH2 0xA06 JUMPI PUSH2 0xA05 PUSH2 0x9AC JUMP JUMPDEST JUMPDEST POP SWAP2 SWAP1 POP JUMP JUMPDEST PUSH32 0x416D6F756E742073686F756C6420626520302E30312045746865720000000000 PUSH1 0x0 DUP3 ADD MSTORE POP JUMP JUMPDEST PUSH1 0x0 PUSH2 0xA42 PUSH1 0x1B DUP4 PUSH2 0x690 JUMP JUMPDEST SWAP2 POP PUSH2 0xA4D DUP3 PUSH2 0xA0C JUMP JUMPDEST PUSH1 0x20 DUP3 ADD SWAP1 POP SWAP2 SWAP1 POP JUMP JUMPDEST PUSH1 0x0 PUSH1 0x20 DUP3 ADD SWAP1 POP DUP2 DUP2 SUB PUSH1 0x0 DUP4 ADD MSTORE PUSH2 0xA71 DUP2 PUSH2 0xA35 JUMP JUMPDEST SWAP1 POP SWAP2 SWAP1 POP JUMP JUMPDEST PUSH32 0x4E487B7100000000000000000000000000000000000000000000000000000000 PUSH1 0x0 MSTORE PUSH1 0x11 PUSH1 0x4 MSTORE PUSH1 0x24 PUSH1 0x0 REVERT JUMPDEST PUSH1 0x0 PUSH2 0xAB2 DUP3 PUSH2 0x613 JUMP JUMPDEST SWAP2 POP PUSH2 0xABD DUP4 PUSH2 0x613 JUMP JUMPDEST SWAP3 POP DUP3 DUP3 SUB SWAP1 POP DUP2 DUP2 GT ISZERO PUSH2 0xAD5 JUMPI PUSH2 0xAD4 PUSH2 0xA78 JUMP JUMPDEST JUMPDEST SWAP3 SWAP2 POP POP JUMP JUMPDEST PUSH32 0x4E487B7100000000000000000000000000000000000000000000000000000000 PUSH1 0x0 MSTORE PUSH1 0x32 PUSH1 0x4 MSTORE PUSH1 0x24 PUSH1 0x0 REVERT JUMPDEST PUSH1 0x0 PUSH2 0xB15 DUP3 PUSH2 0x613 JUMP JUMPDEST SWAP2 POP PUSH2 0xB20 DUP4 PUSH2 0x613 JUMP JUMPDEST SWAP3 POP DUP3 DUP3 ADD SWAP1 POP DUP1 DUP3 GT ISZERO PUSH2 0xB38 JUMPI PUSH2 0xB37 PUSH2 0xA78 JUMP JUMPDEST JUMPDEST SWAP3 SWAP2 POP POP JUMP JUMPDEST PUSH1 0x0 DUP2 SWAP1 POP SWAP3 SWAP2 POP POP JUMP JUMPDEST DUP3 DUP2 DUP4 CALLDATACOPY PUSH1 0x0 DUP4 DUP4 ADD MSTORE POP POP POP JUMP JUMPDEST PUSH1 0x0 PUSH2 0xB64 DUP4 DUP6 PUSH2 0xB3E JUMP JUMPDEST SWAP4 POP PUSH2 0xB71 DUP4 DUP6 DUP5 PUSH2 0xB49 JUMP JUMPDEST DUP3 DUP5 ADD SWAP1 POP SWAP4 SWAP3 POP POP POP JUMP JUMPDEST PUSH1 0x0 DUP2 SWAP1 POP SWAP2 SWAP1 POP JUMP JUMPDEST PUSH2 0xB98 PUSH2 0xB93 DUP3 PUSH2 0x613 JUMP JUMPDEST PUSH2 0xB7D JUMP JUMPDEST DUP3 MSTORE POP POP JUMP JUMPDEST PUSH1 0x0 PUSH2 0xBAB DUP3 DUP6 DUP8 PUSH2 0xB58 JUMP JUMPDEST SWAP2 POP PUSH2 0xBB7 DUP3 DUP5 PUSH2 0xB87 JUMP JUMPDEST PUSH1 0x20 DUP3 ADD SWAP2 POP DUP2 SWAP1 POP SWAP5 SWAP4 POP POP POP POP JUMP JUMPDEST PUSH32 0x4E487B7100000000000000000000000000000000000000000000000000000000 PUSH1 0x0 MSTORE PUSH1 0x12 PUSH1 0x4 MSTORE PUSH1 0x24 PUSH1 0x0 REVERT JUMPDEST PUSH1 0x0 PUSH2 0xC02 DUP3 PUSH2 0x613 JUMP JUMPDEST SWAP2 POP PUSH2 0xC0D DUP4 PUSH2 0x613 JUMP JUMPDEST SWAP3 POP DUP3 PUSH2 0xC1D JUMPI PUSH2 0xC1C PUSH2 0xBC8 JUMP JUMPDEST JUMPDEST DUP3 DUP3 MOD SWAP1 POP SWAP3 SWAP2 POP POP JUMP JUMPDEST PUSH1 0x0 PUSH2 0xC33 DUP3 PUSH2 0x613 JUMP JUMPDEST SWAP2 POP PUSH2 0xC3E DUP4 PUSH2 0x613 JUMP JUMPDEST SWAP3 POP DUP3 DUP3 MUL PUSH2 0xC4C DUP2 PUSH2 0x613 JUMP JUMPDEST SWAP2 POP DUP3 DUP3 DIV DUP5 EQ DUP4 ISZERO OR PUSH2 0xC63 JUMPI PUSH2 0xC62 PUSH2 0xA78 JUMP JUMPDEST JUMPDEST POP SWAP3 SWAP2 POP POP JUMP JUMPDEST PUSH32 0x4E487B7100000000000000000000000000000000000000000000000000000000 PUSH1 0x0 MSTORE PUSH1 0x41 PUSH1 0x4 MSTORE PUSH1 0x24 PUSH1 0x0 REVERT JUMPDEST PUSH1 0x0 DUP2 SWAP1 POP DUP2 PUSH1 0x0 MSTORE PUSH1 0x20 PUSH1 0x0 KECCAK256 SWAP1 POP SWAP2 SWAP1 POP JUMP JUMPDEST PUSH1 0x0 PUSH1 0x20 PUSH1 0x1F DUP4 ADD DIV SWAP1 POP SWAP2 SWAP1 POP JUMP JUMPDEST PUSH1 0x0 DUP3 DUP3 SHL SWAP1 POP SWAP3 SWAP2 POP POP JUMP JUMPDEST PUSH1 0x0 PUSH1 0x8 DUP4 MUL PUSH2 0xCFB PUSH32 0xFFFFFFFFFFFFFFFFFFFFFFFFFFFFFFFFFFFFFFFFFFFFFFFFFFFFFFFFFFFFFFFF DUP3 PUSH2 0xCBE JUMP JUMPDEST PUSH2 0xD05 DUP7 DUP4 PUSH2 0xCBE JUMP JUMPDEST SWAP6 POP DUP1 NOT DUP5 AND SWAP4 POP DUP1 DUP7 AND DUP5 OR SWAP3 POP POP POP SWAP4 SWAP3 POP POP POP JUMP JUMPDEST PUSH1 0x0 DUP2 SWAP1 POP SWAP2 SWAP1 POP JUMP JUMPDEST PUSH1 0x0 PUSH2 0xD42 PUSH2 0xD3D PUSH2 0xD38 DUP5 PUSH2 0x613 JUMP JUMPDEST PUSH2 0xD1D JUMP JUMPDEST PUSH2 0x613 JUMP JUMPDEST SWAP1 POP SWAP2 SWAP1 POP JUMP JUMPDEST PUSH1 0x0 DUP2 SWAP1 POP SWAP2 SWAP1 POP JUMP JUMPDEST PUSH2 0xD5C DUP4 PUSH2 0xD27 JUMP JUMPDEST PUSH2 0xD70 PUSH2 0xD68 DUP3 PUSH2 0xD49 JUMP JUMPDEST DUP5 DUP5 SLOAD PUSH2 0xCCB JUMP JUMPDEST DUP3 SSTORE POP POP POP POP JUMP JUMPDEST PUSH1 0x0 SWAP1 JUMP JUMPDEST PUSH2 0xD85 PUSH2 0xD78 JUMP JUMPDEST PUSH2 0xD90 DUP2 DUP5 DUP5 PUSH2 0xD53 JUMP JUMPDEST POP POP POP JUMP JUMPDEST JUMPDEST DUP2 DUP2 LT ISZERO PUSH2 0xDB4 JUMPI PUSH2 0xDA9 PUSH1 0x0 DUP3 PUSH2 0xD7D JUMP JUMPDEST PUSH1 0x1 DUP2 ADD SWAP1 POP PUSH2 0xD96 JUMP JUMPDEST POP POP JUMP JUMPDEST PUSH1 0x1F DUP3 GT ISZERO PUSH2 0xDF9 JUMPI PUSH2 0xDCA DUP2 PUSH2 0xC99 JUMP JUMPDEST PUSH2 0xDD3 DUP5 PUSH2 0xCAE JUMP JUMPDEST DUP2 ADD PUSH1 0x20 DUP6 LT ISZERO PUSH2 0xDE2 JUMPI DUP2 SWAP1 POP JUMPDEST PUSH2 0xDF6 PUSH2 0xDEE DUP6 PUSH2 0xCAE JUMP JUMPDEST DUP4 ADD DUP3 PUSH2 0xD95 JUMP JUMPDEST POP POP JUMPDEST POP POP POP JUMP JUMPDEST PUSH1 0x0 DUP3 DUP3 SHR SWAP1 POP SWAP3 SWAP2 POP POP JUMP JUMPDEST PUSH1 0x0 PUSH2 0xE1C PUSH1 0x0 NOT DUP5 PUSH1 0x8 MUL PUSH2 0xDFE JUMP JUMPDEST NOT DUP1 DUP4 AND SWAP2 POP POP SWAP3 SWAP2 POP POP JUMP JUMPDEST PUSH1 0x0 PUSH2 0xE35 DUP4 DUP4 PUSH2 0xE0B JUMP JUMPDEST SWAP2 POP DUP3 PUSH1 0x2 MUL DUP3 OR SWAP1 POP SWAP3 SWAP2 POP POP JUMP JUMPDEST PUSH2 0xE4E DUP3 PUSH2 0x685 JUMP JUMPDEST PUSH8 0xFFFFFFFFFFFFFFFF DUP2 GT ISZERO PUSH2 0xE67 JUMPI PUSH2 0xE66 PUSH2 0xC6A JUMP JUMPDEST JUMPDEST PUSH2 0xE71 DUP3 SLOAD PUSH2 0x9DB JUMP JUMPDEST PUSH2 0xE7C DUP3 DUP3 DUP6 PUSH2 0xDB8 JUMP JUMPDEST PUSH1 0x0 PUSH1 0x20 SWAP1 POP PUSH1 0x1F DUP4 GT PUSH1 0x1 DUP2 EQ PUSH2 0xEAF JUMPI PUSH1 0x0 DUP5 ISZERO PUSH2 0xE9D JUMPI DUP3 DUP8 ADD MLOAD SWAP1 POP JUMPDEST PUSH2 0xEA7 DUP6 DUP3 PUSH2 0xE29 JUMP JUMPDEST DUP7 SSTORE POP PUSH2 0xF0F JUMP JUMPDEST PUSH1 0x1F NOT DUP5 AND PUSH2 0xEBD DUP7 PUSH2 0xC99 JUMP JUMPDEST PUSH1 0x0 JUMPDEST DUP3 DUP2 LT ISZERO PUSH2 0xEE5 JUMPI DUP5 DUP10 ADD MLOAD DUP3 SSTORE PUSH1 0x1 DUP3 ADD SWAP2 POP PUSH1 0x20 DUP6 ADD SWAP5 POP PUSH1 0x20 DUP2 ADD SWAP1 POP PUSH2 0xEC0 JUMP JUMPDEST DUP7 DUP4 LT ISZERO PUSH2 0xF02 JUMPI DUP5 DUP10 ADD MLOAD PUSH2 0xEFE PUSH1 0x1F DUP10 AND DUP3 PUSH2 0xE0B JUMP JUMPDEST DUP4 SSTORE POP JUMPDEST PUSH1 0x1 PUSH1 0x2 DUP9 MUL ADD DUP9 SSTORE POP POP POP JUMPDEST POP POP POP POP POP POP JUMP INVALID LOG2 PUSH5 0x6970667358 0x22 SLT KECCAK256 PUSH15 0x775F7742C0969589C5A1A1F174AD6D CALLDATALOAD 0xC7 0xF9 0xD6 0x2C PUSH12 0x8086E2AF8B228CA0AE186473 PUSH16 0x6C634300081300330000000000000000 "
				},
				"gasEstimates": {
					"creation": {
						"codeDepositCost": "783400",
						"executionCost": "818",
						"totalCost": "784218"
					},
					"external": {
						"addAttack(uint256)": "infinite",
						"addDefense(uint256)": "infinite",
						"create(string)": "infinite",
						"listMyPokemons()": "infinite",
						"ownerToPokemonIds(address,uint256)": "infinite",
						"pokemons(uint256)": "infinite"
					},
					"internal": {
						"findById(uint256)": "infinite",
						"findByName(string calldata)": "infinite"
					}
				},
				"methodIdentifiers": {
					"addAttack(uint256)": "ee423194",
					"addDefense(uint256)": "91a2fa95",
					"create(string)": "b6a46b3b",
					"listMyPokemons()": "f83cf120",
					"ownerToPokemonIds(address,uint256)": "daa6296b",
					"pokemons(uint256)": "85831079"
				}
			},
			"storageLayout": {
				"storage": [
					{
						"astId": 14,
						"contract": "appworks_blockchain_batch2/contracts/wk4/PokemonGame.sol:PokemonGame",
						"label": "pokemons",
						"offset": 0,
						"slot": "0",
						"type": "t_array(t_struct(Pokemon)10_storage)dyn_storage"
					},
					{
						"astId": 19,
						"contract": "appworks_blockchain_batch2/contracts/wk4/PokemonGame.sol:PokemonGame",
						"label": "ownerToPokemonIds",
						"offset": 0,
						"slot": "1",
						"type": "t_mapping(t_address,t_array(t_uint256)dyn_storage)"
					}
				],
				"types": {
					"t_address": {
						"encoding": "inplace",
						"label": "address",
						"numberOfBytes": "20"
					},
					"t_array(t_struct(Pokemon)10_storage)dyn_storage": {
						"base": "t_struct(Pokemon)10_storage",
						"encoding": "dynamic_array",
						"label": "struct PokemonGame.Pokemon[]",
						"numberOfBytes": "32"
					},
					"t_array(t_uint256)dyn_storage": {
						"base": "t_uint256",
						"encoding": "dynamic_array",
						"label": "uint256[]",
						"numberOfBytes": "32"
					},
					"t_mapping(t_address,t_array(t_uint256)dyn_storage)": {
						"encoding": "mapping",
						"key": "t_address",
						"label": "mapping(address => uint256[])",
						"numberOfBytes": "32",
						"value": "t_array(t_uint256)dyn_storage"
					},
					"t_string_storage": {
						"encoding": "bytes",
						"label": "string",
						"numberOfBytes": "32"
					},
					"t_struct(Pokemon)10_storage": {
						"encoding": "inplace",
						"label": "struct PokemonGame.Pokemon",
						"members": [
							{
								"astId": 3,
								"contract": "appworks_blockchain_batch2/contracts/wk4/PokemonGame.sol:PokemonGame",
								"label": "id",
								"offset": 0,
								"slot": "0",
								"type": "t_uint256"
							},
							{
								"astId": 5,
								"contract": "appworks_blockchain_batch2/contracts/wk4/PokemonGame.sol:PokemonGame",
								"label": "name",
								"offset": 0,
								"slot": "1",
								"type": "t_string_storage"
							},
							{
								"astId": 7,
								"contract": "appworks_blockchain_batch2/contracts/wk4/PokemonGame.sol:PokemonGame",
								"label": "attack",
								"offset": 0,
								"slot": "2",
								"type": "t_uint256"
							},
							{
								"astId": 9,
								"contract": "appworks_blockchain_batch2/contracts/wk4/PokemonGame.sol:PokemonGame",
								"label": "defense",
								"offset": 0,
								"slot": "3",
								"type": "t_uint256"
							}
						],
						"numberOfBytes": "128"
					},
					"t_uint256": {
						"encoding": "inplace",
						"label": "uint256",
						"numberOfBytes": "32"
					}
				}
			},
			"userdoc": {
				"kind": "user",
				"methods": {},
				"version": 1
			}
		}
	}
}