{
	"appworks_blockchain_batch2/contracts/wk4/Bytes.sol": {
		"Bytes": {
			"abi": [
				{
					"inputs": [],
					"name": "b",
					"outputs": [
						{
							"internalType": "bytes",
							"name": "",
							"type": "bytes"
						}
					],
					"stateMutability": "view",
					"type": "function"
				},
				{
					"inputs": [],
					"name": "b1",
					"outputs": [
						{
							"internalType": "bytes1",
							"name": "",
							"type": "bytes1"
						}
					],
					"stateMutability": "view",
					"type": "function"
				},
				{
					"inputs": [],
					"name": "b32",
					"outputs": [
						{
							"internalType": "bytes32",
							"name": "",
							"type": "bytes32"
						}
					],
					"stateMutability": "view",
					"type": "function"
				},
				{
					"inputs": [
						{
							"internalType": "bytes",
							"name": "_bytes",
							"type": "bytes"
						}
					],
					"name": "setBytes",
					"outputs": [],
					"stateMutability": "nonpayable",
					"type": "function"
				},
				{
					"inputs": [
						{
							"internalType": "bytes1",
							"name": "_bytes",
							"type": "bytes1"
						}
					],
					"name": "setBytes1",
					"outputs": [],
					"stateMutability": "nonpayable",
					"type": "function"
				},
				{
					"inputs": [
						{
							"internalType": "bytes32",
							"name": "_bytes",
							"type": "bytes32"
						}
					],
					"name": "setBytes32",
					"outputs": [],
					"stateMutability": "nonpayable",
					"type": "function"
				}
			],
			"devdoc": {
				"kind": "dev",
				"methods": {},
				"version": 1
			},
			"evm": {
				"assembly": "    /* \"appworks_blockchain_batch2/contracts/wk4/Bytes.sol\":58:398  contract Bytes {... */\n  mstore(0x40, 0x80)\n  callvalue\n  dup1\n  iszero\n  tag_1\n  jumpi\n  0x00\n  dup1\n  revert\ntag_1:\n  pop\n  dataSize(sub_0)\n  dup1\n  dataOffset(sub_0)\n  0x00\n  codecopy\n  0x00\n  return\nstop\n\nsub_0: assembly {\n        /* \"appworks_blockchain_batch2/contracts/wk4/Bytes.sol\":58:398  contract Bytes {... */\n      mstore(0x40, 0x80)\n      callvalue\n      dup1\n      iszero\n      tag_1\n      jumpi\n      0x00\n      dup1\n      revert\n    tag_1:\n      pop\n      jumpi(tag_2, lt(calldatasize, 0x04))\n      shr(0xe0, calldataload(0x00))\n      dup1\n      0x4df7e3d0\n      eq\n      tag_3\n      jumpi\n      dup1\n      0xc2b12a73\n      eq\n      tag_4\n      jumpi\n      dup1\n      0xda359dc8\n      eq\n      tag_5\n      jumpi\n      dup1\n      0xee495002\n      eq\n      tag_6\n      jumpi\n      dup1\n      0xf8aab238\n      eq\n      tag_7\n      jumpi\n      dup1\n      0xfba1a1c3\n      eq\n      tag_8\n      jumpi\n    tag_2:\n      0x00\n      dup1\n      revert\n        /* \"appworks_blockchain_batch2/contracts/wk4/Bytes.sol\":79:93  bytes public b */\n    tag_3:\n      tag_9\n      tag_10\n      jump\t// in\n    tag_9:\n      mload(0x40)\n      tag_11\n      swap2\n      swap1\n      tag_12\n      jump\t// in\n    tag_11:\n      mload(0x40)\n      dup1\n      swap2\n      sub\n      swap1\n      return\n        /* \"appworks_blockchain_batch2/contracts/wk4/Bytes.sol\":227:310  function setBytes32(bytes32 _bytes) external {... */\n    tag_4:\n      tag_13\n      0x04\n      dup1\n      calldatasize\n      sub\n      dup2\n      add\n      swap1\n      tag_14\n      swap2\n      swap1\n      tag_15\n      jump\t// in\n    tag_14:\n      tag_16\n      jump\t// in\n    tag_13:\n      stop\n        /* \"appworks_blockchain_batch2/contracts/wk4/Bytes.sol\":146:221  function setBytes(bytes memory _bytes) external {... */\n    tag_5:\n      tag_17\n      0x04\n      dup1\n      calldatasize\n      sub\n      dup2\n      add\n      swap1\n      tag_18\n      swap2\n      swap1\n      tag_19\n      jump\t// in\n    tag_18:\n      tag_20\n      jump\t// in\n    tag_17:\n      stop\n        /* \"appworks_blockchain_batch2/contracts/wk4/Bytes.sol\":123:139  bytes1 public b1 */\n    tag_6:\n      tag_21\n      tag_22\n      jump\t// in\n    tag_21:\n      mload(0x40)\n      tag_23\n      swap2\n      swap1\n      tag_24\n      jump\t// in\n    tag_23:\n      mload(0x40)\n      dup1\n      swap2\n      sub\n      swap1\n      return\n        /* \"appworks_blockchain_batch2/contracts/wk4/Bytes.sol\":99:117  bytes32 public b32 */\n    tag_7:\n      tag_25\n      tag_26\n      jump\t// in\n    tag_25:\n      mload(0x40)\n      tag_27\n      swap2\n      swap1\n      tag_28\n      jump\t// in\n    tag_27:\n      mload(0x40)\n      dup1\n      swap2\n      sub\n      swap1\n      return\n        /* \"appworks_blockchain_batch2/contracts/wk4/Bytes.sol\":316:395  function setBytes1(bytes1 _bytes) external {... */\n    tag_8:\n      tag_29\n      0x04\n      dup1\n      calldatasize\n      sub\n      dup2\n      add\n      swap1\n      tag_30\n      swap2\n      swap1\n      tag_31\n      jump\t// in\n    tag_30:\n      tag_32\n      jump\t// in\n    tag_29:\n      stop\n        /* \"appworks_blockchain_batch2/contracts/wk4/Bytes.sol\":79:93  bytes public b */\n    tag_10:\n      0x00\n      dup1\n      sload\n      tag_33\n      swap1\n      tag_34\n      jump\t// in\n    tag_33:\n      dup1\n      0x1f\n      add\n      0x20\n      dup1\n      swap2\n      div\n      mul\n      0x20\n      add\n      mload(0x40)\n      swap1\n      dup2\n      add\n      0x40\n      mstore\n      dup1\n      swap3\n      swap2\n      swap1\n      dup2\n      dup2\n      mstore\n      0x20\n      add\n      dup3\n      dup1\n      sload\n      tag_35\n      swap1\n      tag_34\n      jump\t// in\n    tag_35:\n      dup1\n      iszero\n      tag_36\n      jumpi\n      dup1\n      0x1f\n      lt\n      tag_37\n      jumpi\n      0x0100\n      dup1\n      dup4\n      sload\n      div\n      mul\n      dup4\n      mstore\n      swap2\n      0x20\n      add\n      swap2\n      jump(tag_36)\n    tag_37:\n      dup3\n      add\n      swap2\n      swap1\n      0x00\n      mstore\n      keccak256(0x00, 0x20)\n      swap1\n    tag_38:\n      dup2\n      sload\n      dup2\n      mstore\n      swap1\n      0x01\n      add\n      swap1\n      0x20\n      add\n      dup1\n      dup4\n      gt\n      tag_38\n      jumpi\n      dup3\n      swap1\n      sub\n      0x1f\n      and\n      dup3\n      add\n      swap2\n    tag_36:\n      pop\n      pop\n      pop\n      pop\n      pop\n      dup2\n      jump\t// out\n        /* \"appworks_blockchain_batch2/contracts/wk4/Bytes.sol\":227:310  function setBytes32(bytes32 _bytes) external {... */\n    tag_16:\n        /* \"appworks_blockchain_batch2/contracts/wk4/Bytes.sol\":296:302  _bytes */\n      dup1\n        /* \"appworks_blockchain_batch2/contracts/wk4/Bytes.sol\":282:285  b32 */\n      0x01\n        /* \"appworks_blockchain_batch2/contracts/wk4/Bytes.sol\":282:303  b32 = bytes32(_bytes) */\n      dup2\n      swap1\n      sstore\n      pop\n        /* \"appworks_blockchain_batch2/contracts/wk4/Bytes.sol\":227:310  function setBytes32(bytes32 _bytes) external {... */\n      pop\n      jump\t// out\n        /* \"appworks_blockchain_batch2/contracts/wk4/Bytes.sol\":146:221  function setBytes(bytes memory _bytes) external {... */\n    tag_20:\n        /* \"appworks_blockchain_batch2/contracts/wk4/Bytes.sol\":208:214  _bytes */\n      dup1\n        /* \"appworks_blockchain_batch2/contracts/wk4/Bytes.sol\":204:205  b */\n      0x00\n        /* \"appworks_blockchain_batch2/contracts/wk4/Bytes.sol\":204:214  b = _bytes */\n      swap1\n      dup2\n      tag_41\n      swap2\n      swap1\n      tag_42\n      jump\t// in\n    tag_41:\n      pop\n        /* \"appworks_blockchain_batch2/contracts/wk4/Bytes.sol\":146:221  function setBytes(bytes memory _bytes) external {... */\n      pop\n      jump\t// out\n        /* \"appworks_blockchain_batch2/contracts/wk4/Bytes.sol\":123:139  bytes1 public b1 */\n    tag_22:\n      0x02\n      0x00\n      swap1\n      sload\n      swap1\n      0x0100\n      exp\n      swap1\n      div\n      0xf8\n      shl\n      dup2\n      jump\t// out\n        /* \"appworks_blockchain_batch2/contracts/wk4/Bytes.sol\":99:117  bytes32 public b32 */\n    tag_26:\n      sload(0x01)\n      dup2\n      jump\t// out\n        /* \"appworks_blockchain_batch2/contracts/wk4/Bytes.sol\":316:395  function setBytes1(bytes1 _bytes) external {... */\n    tag_32:\n        /* \"appworks_blockchain_batch2/contracts/wk4/Bytes.sol\":381:387  _bytes */\n      dup1\n        /* \"appworks_blockchain_batch2/contracts/wk4/Bytes.sol\":369:371  b1 */\n      0x02\n      0x00\n        /* \"appworks_blockchain_batch2/contracts/wk4/Bytes.sol\":369:388  b1 = bytes1(_bytes) */\n      0x0100\n      exp\n      dup2\n      sload\n      dup2\n      0xff\n      mul\n      not\n      and\n      swap1\n      dup4\n      0xf8\n      shr\n      mul\n      or\n      swap1\n      sstore\n      pop\n        /* \"appworks_blockchain_batch2/contracts/wk4/Bytes.sol\":316:395  function setBytes1(bytes1 _bytes) external {... */\n      pop\n      jump\t// out\n        /* \"#utility.yul\":7:105   */\n    tag_44:\n        /* \"#utility.yul\":58:64   */\n      0x00\n        /* \"#utility.yul\":92:97   */\n      dup2\n        /* \"#utility.yul\":86:98   */\n      mload\n        /* \"#utility.yul\":76:98   */\n      swap1\n      pop\n        /* \"#utility.yul\":7:105   */\n      swap2\n      swap1\n      pop\n      jump\t// out\n        /* \"#utility.yul\":111:279   */\n    tag_45:\n        /* \"#utility.yul\":194:205   */\n      0x00\n        /* \"#utility.yul\":228:234   */\n      dup3\n        /* \"#utility.yul\":223:226   */\n      dup3\n        /* \"#utility.yul\":216:235   */\n      mstore\n        /* \"#utility.yul\":268:272   */\n      0x20\n        /* \"#utility.yul\":263:266   */\n      dup3\n        /* \"#utility.yul\":259:273   */\n      add\n        /* \"#utility.yul\":244:273   */\n      swap1\n      pop\n        /* \"#utility.yul\":111:279   */\n      swap3\n      swap2\n      pop\n      pop\n      jump\t// out\n        /* \"#utility.yul\":285:531   */\n    tag_46:\n        /* \"#utility.yul\":366:367   */\n      0x00\n        /* \"#utility.yul\":376:489   */\n    tag_90:\n        /* \"#utility.yul\":390:396   */\n      dup4\n        /* \"#utility.yul\":387:388   */\n      dup2\n        /* \"#utility.yul\":384:397   */\n      lt\n        /* \"#utility.yul\":376:489   */\n      iszero\n      tag_92\n      jumpi\n        /* \"#utility.yul\":475:476   */\n      dup1\n        /* \"#utility.yul\":470:473   */\n      dup3\n        /* \"#utility.yul\":466:477   */\n      add\n        /* \"#utility.yul\":460:478   */\n      mload\n        /* \"#utility.yul\":456:457   */\n      dup2\n        /* \"#utility.yul\":451:454   */\n      dup5\n        /* \"#utility.yul\":447:458   */\n      add\n        /* \"#utility.yul\":440:479   */\n      mstore\n        /* \"#utility.yul\":412:414   */\n      0x20\n        /* \"#utility.yul\":409:410   */\n      dup2\n        /* \"#utility.yul\":405:415   */\n      add\n        /* \"#utility.yul\":400:415   */\n      swap1\n      pop\n        /* \"#utility.yul\":376:489   */\n      jump(tag_90)\n    tag_92:\n        /* \"#utility.yul\":523:524   */\n      0x00\n        /* \"#utility.yul\":514:520   */\n      dup5\n        /* \"#utility.yul\":509:512   */\n      dup5\n        /* \"#utility.yul\":505:521   */\n      add\n        /* \"#utility.yul\":498:525   */\n      mstore\n        /* \"#utility.yul\":347:531   */\n      pop\n        /* \"#utility.yul\":285:531   */\n      pop\n      pop\n      pop\n      jump\t// out\n        /* \"#utility.yul\":537:639   */\n    tag_47:\n        /* \"#utility.yul\":578:584   */\n      0x00\n        /* \"#utility.yul\":629:631   */\n      0x1f\n        /* \"#utility.yul\":625:632   */\n      not\n        /* \"#utility.yul\":620:622   */\n      0x1f\n        /* \"#utility.yul\":613:618   */\n      dup4\n        /* \"#utility.yul\":609:623   */\n      add\n        /* \"#utility.yul\":605:633   */\n      and\n        /* \"#utility.yul\":595:633   */\n      swap1\n      pop\n        /* \"#utility.yul\":537:639   */\n      swap2\n      swap1\n      pop\n      jump\t// out\n        /* \"#utility.yul\":645:1018   */\n    tag_48:\n        /* \"#utility.yul\":731:734   */\n      0x00\n        /* \"#utility.yul\":759:797   */\n      tag_95\n        /* \"#utility.yul\":791:796   */\n      dup3\n        /* \"#utility.yul\":759:797   */\n      tag_44\n      jump\t// in\n    tag_95:\n        /* \"#utility.yul\":813:883   */\n      tag_96\n        /* \"#utility.yul\":876:882   */\n      dup2\n        /* \"#utility.yul\":871:874   */\n      dup6\n        /* \"#utility.yul\":813:883   */\n      tag_45\n      jump\t// in\n    tag_96:\n        /* \"#utility.yul\":806:883   */\n      swap4\n      pop\n        /* \"#utility.yul\":892:957   */\n      tag_97\n        /* \"#utility.yul\":950:956   */\n      dup2\n        /* \"#utility.yul\":945:948   */\n      dup6\n        /* \"#utility.yul\":938:942   */\n      0x20\n        /* \"#utility.yul\":931:936   */\n      dup7\n        /* \"#utility.yul\":927:943   */\n      add\n        /* \"#utility.yul\":892:957   */\n      tag_46\n      jump\t// in\n    tag_97:\n        /* \"#utility.yul\":982:1011   */\n      tag_98\n        /* \"#utility.yul\":1004:1010   */\n      dup2\n        /* \"#utility.yul\":982:1011   */\n      tag_47\n      jump\t// in\n    tag_98:\n        /* \"#utility.yul\":977:980   */\n      dup5\n        /* \"#utility.yul\":973:1012   */\n      add\n        /* \"#utility.yul\":966:1012   */\n      swap2\n      pop\n        /* \"#utility.yul\":735:1018   */\n      pop\n        /* \"#utility.yul\":645:1018   */\n      swap3\n      swap2\n      pop\n      pop\n      jump\t// out\n        /* \"#utility.yul\":1024:1333   */\n    tag_12:\n        /* \"#utility.yul\":1135:1139   */\n      0x00\n        /* \"#utility.yul\":1173:1175   */\n      0x20\n        /* \"#utility.yul\":1162:1171   */\n      dup3\n        /* \"#utility.yul\":1158:1176   */\n      add\n        /* \"#utility.yul\":1150:1176   */\n      swap1\n      pop\n        /* \"#utility.yul\":1222:1231   */\n      dup2\n        /* \"#utility.yul\":1216:1220   */\n      dup2\n        /* \"#utility.yul\":1212:1232   */\n      sub\n        /* \"#utility.yul\":1208:1209   */\n      0x00\n        /* \"#utility.yul\":1197:1206   */\n      dup4\n        /* \"#utility.yul\":1193:1210   */\n      add\n        /* \"#utility.yul\":1186:1233   */\n      mstore\n        /* \"#utility.yul\":1250:1326   */\n      tag_100\n        /* \"#utility.yul\":1321:1325   */\n      dup2\n        /* \"#utility.yul\":1312:1318   */\n      dup5\n        /* \"#utility.yul\":1250:1326   */\n      tag_48\n      jump\t// in\n    tag_100:\n        /* \"#utility.yul\":1242:1326   */\n      swap1\n      pop\n        /* \"#utility.yul\":1024:1333   */\n      swap3\n      swap2\n      pop\n      pop\n      jump\t// out\n        /* \"#utility.yul\":1339:1414   */\n    tag_49:\n        /* \"#utility.yul\":1372:1378   */\n      0x00\n        /* \"#utility.yul\":1405:1407   */\n      0x40\n        /* \"#utility.yul\":1399:1408   */\n      mload\n        /* \"#utility.yul\":1389:1408   */\n      swap1\n      pop\n        /* \"#utility.yul\":1339:1414   */\n      swap1\n      jump\t// out\n        /* \"#utility.yul\":1420:1537   */\n    tag_50:\n        /* \"#utility.yul\":1529:1530   */\n      0x00\n        /* \"#utility.yul\":1526:1527   */\n      dup1\n        /* \"#utility.yul\":1519:1531   */\n      revert\n        /* \"#utility.yul\":1543:1660   */\n    tag_51:\n        /* \"#utility.yul\":1652:1653   */\n      0x00\n        /* \"#utility.yul\":1649:1650   */\n      dup1\n        /* \"#utility.yul\":1642:1654   */\n      revert\n        /* \"#utility.yul\":1666:1743   */\n    tag_52:\n        /* \"#utility.yul\":1703:1710   */\n      0x00\n        /* \"#utility.yul\":1732:1737   */\n      dup2\n        /* \"#utility.yul\":1721:1737   */\n      swap1\n      pop\n        /* \"#utility.yul\":1666:1743   */\n      swap2\n      swap1\n      pop\n      jump\t// out\n        /* \"#utility.yul\":1749:1871   */\n    tag_53:\n        /* \"#utility.yul\":1822:1846   */\n      tag_106\n        /* \"#utility.yul\":1840:1845   */\n      dup2\n        /* \"#utility.yul\":1822:1846   */\n      tag_52\n      jump\t// in\n    tag_106:\n        /* \"#utility.yul\":1815:1820   */\n      dup2\n        /* \"#utility.yul\":1812:1847   */\n      eq\n        /* \"#utility.yul\":1802:1865   */\n      tag_107\n      jumpi\n        /* \"#utility.yul\":1861:1862   */\n      0x00\n        /* \"#utility.yul\":1858:1859   */\n      dup1\n        /* \"#utility.yul\":1851:1863   */\n      revert\n        /* \"#utility.yul\":1802:1865   */\n    tag_107:\n        /* \"#utility.yul\":1749:1871   */\n      pop\n      jump\t// out\n        /* \"#utility.yul\":1877:2016   */\n    tag_54:\n        /* \"#utility.yul\":1923:1928   */\n      0x00\n        /* \"#utility.yul\":1961:1967   */\n      dup2\n        /* \"#utility.yul\":1948:1968   */\n      calldataload\n        /* \"#utility.yul\":1939:1968   */\n      swap1\n      pop\n        /* \"#utility.yul\":1977:2010   */\n      tag_109\n        /* \"#utility.yul\":2004:2009   */\n      dup2\n        /* \"#utility.yul\":1977:2010   */\n      tag_53\n      jump\t// in\n    tag_109:\n        /* \"#utility.yul\":1877:2016   */\n      swap3\n      swap2\n      pop\n      pop\n      jump\t// out\n        /* \"#utility.yul\":2022:2351   */\n    tag_15:\n        /* \"#utility.yul\":2081:2087   */\n      0x00\n        /* \"#utility.yul\":2130:2132   */\n      0x20\n        /* \"#utility.yul\":2118:2127   */\n      dup3\n        /* \"#utility.yul\":2109:2116   */\n      dup5\n        /* \"#utility.yul\":2105:2128   */\n      sub\n        /* \"#utility.yul\":2101:2133   */\n      slt\n        /* \"#utility.yul\":2098:2217   */\n      iszero\n      tag_111\n      jumpi\n        /* \"#utility.yul\":2136:2215   */\n      tag_112\n      tag_50\n      jump\t// in\n    tag_112:\n        /* \"#utility.yul\":2098:2217   */\n    tag_111:\n        /* \"#utility.yul\":2256:2257   */\n      0x00\n        /* \"#utility.yul\":2281:2334   */\n      tag_113\n        /* \"#utility.yul\":2326:2333   */\n      dup5\n        /* \"#utility.yul\":2317:2323   */\n      dup3\n        /* \"#utility.yul\":2306:2315   */\n      dup6\n        /* \"#utility.yul\":2302:2324   */\n      add\n        /* \"#utility.yul\":2281:2334   */\n      tag_54\n      jump\t// in\n    tag_113:\n        /* \"#utility.yul\":2271:2334   */\n      swap2\n      pop\n        /* \"#utility.yul\":2227:2344   */\n      pop\n        /* \"#utility.yul\":2022:2351   */\n      swap3\n      swap2\n      pop\n      pop\n      jump\t// out\n        /* \"#utility.yul\":2357:2474   */\n    tag_55:\n        /* \"#utility.yul\":2466:2467   */\n      0x00\n        /* \"#utility.yul\":2463:2464   */\n      dup1\n        /* \"#utility.yul\":2456:2468   */\n      revert\n        /* \"#utility.yul\":2480:2597   */\n    tag_56:\n        /* \"#utility.yul\":2589:2590   */\n      0x00\n        /* \"#utility.yul\":2586:2587   */\n      dup1\n        /* \"#utility.yul\":2579:2591   */\n      revert\n        /* \"#utility.yul\":2603:2783   */\n    tag_57:\n        /* \"#utility.yul\":2651:2728   */\n      0x4e487b7100000000000000000000000000000000000000000000000000000000\n        /* \"#utility.yul\":2648:2649   */\n      0x00\n        /* \"#utility.yul\":2641:2729   */\n      mstore\n        /* \"#utility.yul\":2748:2752   */\n      0x41\n        /* \"#utility.yul\":2745:2746   */\n      0x04\n        /* \"#utility.yul\":2738:2753   */\n      mstore\n        /* \"#utility.yul\":2772:2776   */\n      0x24\n        /* \"#utility.yul\":2769:2770   */\n      0x00\n        /* \"#utility.yul\":2762:2777   */\n      revert\n        /* \"#utility.yul\":2789:3070   */\n    tag_58:\n        /* \"#utility.yul\":2872:2899   */\n      tag_118\n        /* \"#utility.yul\":2894:2898   */\n      dup3\n        /* \"#utility.yul\":2872:2899   */\n      tag_47\n      jump\t// in\n    tag_118:\n        /* \"#utility.yul\":2864:2870   */\n      dup2\n        /* \"#utility.yul\":2860:2900   */\n      add\n        /* \"#utility.yul\":3002:3008   */\n      dup2\n        /* \"#utility.yul\":2990:3000   */\n      dup2\n        /* \"#utility.yul\":2987:3009   */\n      lt\n        /* \"#utility.yul\":2966:2984   */\n      0xffffffffffffffff\n        /* \"#utility.yul\":2954:2964   */\n      dup3\n        /* \"#utility.yul\":2951:2985   */\n      gt\n        /* \"#utility.yul\":2948:3010   */\n      or\n        /* \"#utility.yul\":2945:3033   */\n      iszero\n      tag_119\n      jumpi\n        /* \"#utility.yul\":3013:3031   */\n      tag_120\n      tag_57\n      jump\t// in\n    tag_120:\n        /* \"#utility.yul\":2945:3033   */\n    tag_119:\n        /* \"#utility.yul\":3053:3063   */\n      dup1\n        /* \"#utility.yul\":3049:3051   */\n      0x40\n        /* \"#utility.yul\":3042:3064   */\n      mstore\n        /* \"#utility.yul\":2832:3070   */\n      pop\n        /* \"#utility.yul\":2789:3070   */\n      pop\n      pop\n      jump\t// out\n        /* \"#utility.yul\":3076:3205   */\n    tag_59:\n        /* \"#utility.yul\":3110:3116   */\n      0x00\n        /* \"#utility.yul\":3137:3157   */\n      tag_122\n      tag_49\n      jump\t// in\n    tag_122:\n        /* \"#utility.yul\":3127:3157   */\n      swap1\n      pop\n        /* \"#utility.yul\":3166:3199   */\n      tag_123\n        /* \"#utility.yul\":3194:3198   */\n      dup3\n        /* \"#utility.yul\":3186:3192   */\n      dup3\n        /* \"#utility.yul\":3166:3199   */\n      tag_58\n      jump\t// in\n    tag_123:\n        /* \"#utility.yul\":3076:3205   */\n      swap2\n      swap1\n      pop\n      jump\t// out\n        /* \"#utility.yul\":3211:3518   */\n    tag_60:\n        /* \"#utility.yul\":3272:3276   */\n      0x00\n        /* \"#utility.yul\":3362:3380   */\n      0xffffffffffffffff\n        /* \"#utility.yul\":3354:3360   */\n      dup3\n        /* \"#utility.yul\":3351:3381   */\n      gt\n        /* \"#utility.yul\":3348:3404   */\n      iszero\n      tag_125\n      jumpi\n        /* \"#utility.yul\":3384:3402   */\n      tag_126\n      tag_57\n      jump\t// in\n    tag_126:\n        /* \"#utility.yul\":3348:3404   */\n    tag_125:\n        /* \"#utility.yul\":3422:3451   */\n      tag_127\n        /* \"#utility.yul\":3444:3450   */\n      dup3\n        /* \"#utility.yul\":3422:3451   */\n      tag_47\n      jump\t// in\n    tag_127:\n        /* \"#utility.yul\":3414:3451   */\n      swap1\n      pop\n        /* \"#utility.yul\":3506:3510   */\n      0x20\n        /* \"#utility.yul\":3500:3504   */\n      dup2\n        /* \"#utility.yul\":3496:3511   */\n      add\n        /* \"#utility.yul\":3488:3511   */\n      swap1\n      pop\n        /* \"#utility.yul\":3211:3518   */\n      swap2\n      swap1\n      pop\n      jump\t// out\n        /* \"#utility.yul\":3524:3670   */\n    tag_61:\n        /* \"#utility.yul\":3621:3627   */\n      dup3\n        /* \"#utility.yul\":3616:3619   */\n      dup2\n        /* \"#utility.yul\":3611:3614   */\n      dup4\n        /* \"#utility.yul\":3598:3628   */\n      calldatacopy\n        /* \"#utility.yul\":3662:3663   */\n      0x00\n        /* \"#utility.yul\":3653:3659   */\n      dup4\n        /* \"#utility.yul\":3648:3651   */\n      dup4\n        /* \"#utility.yul\":3644:3660   */\n      add\n        /* \"#utility.yul\":3637:3664   */\n      mstore\n        /* \"#utility.yul\":3524:3670   */\n      pop\n      pop\n      pop\n      jump\t// out\n        /* \"#utility.yul\":3676:4099   */\n    tag_62:\n        /* \"#utility.yul\":3753:3758   */\n      0x00\n        /* \"#utility.yul\":3778:3843   */\n      tag_130\n        /* \"#utility.yul\":3794:3842   */\n      tag_131\n        /* \"#utility.yul\":3835:3841   */\n      dup5\n        /* \"#utility.yul\":3794:3842   */\n      tag_60\n      jump\t// in\n    tag_131:\n        /* \"#utility.yul\":3778:3843   */\n      tag_59\n      jump\t// in\n    tag_130:\n        /* \"#utility.yul\":3769:3843   */\n      swap1\n      pop\n        /* \"#utility.yul\":3866:3872   */\n      dup3\n        /* \"#utility.yul\":3859:3864   */\n      dup2\n        /* \"#utility.yul\":3852:3873   */\n      mstore\n        /* \"#utility.yul\":3904:3908   */\n      0x20\n        /* \"#utility.yul\":3897:3902   */\n      dup2\n        /* \"#utility.yul\":3893:3909   */\n      add\n        /* \"#utility.yul\":3942:3945   */\n      dup5\n        /* \"#utility.yul\":3933:3939   */\n      dup5\n        /* \"#utility.yul\":3928:3931   */\n      dup5\n        /* \"#utility.yul\":3924:3940   */\n      add\n        /* \"#utility.yul\":3921:3946   */\n      gt\n        /* \"#utility.yul\":3918:4030   */\n      iszero\n      tag_132\n      jumpi\n        /* \"#utility.yul\":3949:4028   */\n      tag_133\n      tag_56\n      jump\t// in\n    tag_133:\n        /* \"#utility.yul\":3918:4030   */\n    tag_132:\n        /* \"#utility.yul\":4039:4093   */\n      tag_134\n        /* \"#utility.yul\":4086:4092   */\n      dup5\n        /* \"#utility.yul\":4081:4084   */\n      dup3\n        /* \"#utility.yul\":4076:4079   */\n      dup6\n        /* \"#utility.yul\":4039:4093   */\n      tag_61\n      jump\t// in\n    tag_134:\n        /* \"#utility.yul\":3759:4099   */\n      pop\n        /* \"#utility.yul\":3676:4099   */\n      swap4\n      swap3\n      pop\n      pop\n      pop\n      jump\t// out\n        /* \"#utility.yul\":4118:4456   */\n    tag_63:\n        /* \"#utility.yul\":4173:4178   */\n      0x00\n        /* \"#utility.yul\":4222:4225   */\n      dup3\n        /* \"#utility.yul\":4215:4219   */\n      0x1f\n        /* \"#utility.yul\":4207:4213   */\n      dup4\n        /* \"#utility.yul\":4203:4220   */\n      add\n        /* \"#utility.yul\":4199:4226   */\n      slt\n        /* \"#utility.yul\":4189:4311   */\n      tag_136\n      jumpi\n        /* \"#utility.yul\":4230:4309   */\n      tag_137\n      tag_55\n      jump\t// in\n    tag_137:\n        /* \"#utility.yul\":4189:4311   */\n    tag_136:\n        /* \"#utility.yul\":4347:4353   */\n      dup2\n        /* \"#utility.yul\":4334:4354   */\n      calldataload\n        /* \"#utility.yul\":4372:4450   */\n      tag_138\n        /* \"#utility.yul\":4446:4449   */\n      dup5\n        /* \"#utility.yul\":4438:4444   */\n      dup3\n        /* \"#utility.yul\":4431:4435   */\n      0x20\n        /* \"#utility.yul\":4423:4429   */\n      dup7\n        /* \"#utility.yul\":4419:4436   */\n      add\n        /* \"#utility.yul\":4372:4450   */\n      tag_62\n      jump\t// in\n    tag_138:\n        /* \"#utility.yul\":4363:4450   */\n      swap2\n      pop\n        /* \"#utility.yul\":4179:4456   */\n      pop\n        /* \"#utility.yul\":4118:4456   */\n      swap3\n      swap2\n      pop\n      pop\n      jump\t// out\n        /* \"#utility.yul\":4462:4969   */\n    tag_19:\n        /* \"#utility.yul\":4530:4536   */\n      0x00\n        /* \"#utility.yul\":4579:4581   */\n      0x20\n        /* \"#utility.yul\":4567:4576   */\n      dup3\n        /* \"#utility.yul\":4558:4565   */\n      dup5\n        /* \"#utility.yul\":4554:4577   */\n      sub\n        /* \"#utility.yul\":4550:4582   */\n      slt\n        /* \"#utility.yul\":4547:4666   */\n      iszero\n      tag_140\n      jumpi\n        /* \"#utility.yul\":4585:4664   */\n      tag_141\n      tag_50\n      jump\t// in\n    tag_141:\n        /* \"#utility.yul\":4547:4666   */\n    tag_140:\n        /* \"#utility.yul\":4733:4734   */\n      0x00\n        /* \"#utility.yul\":4722:4731   */\n      dup3\n        /* \"#utility.yul\":4718:4735   */\n      add\n        /* \"#utility.yul\":4705:4736   */\n      calldataload\n        /* \"#utility.yul\":4763:4781   */\n      0xffffffffffffffff\n        /* \"#utility.yul\":4755:4761   */\n      dup2\n        /* \"#utility.yul\":4752:4782   */\n      gt\n        /* \"#utility.yul\":4749:4866   */\n      iszero\n      tag_142\n      jumpi\n        /* \"#utility.yul\":4785:4864   */\n      tag_143\n      tag_51\n      jump\t// in\n    tag_143:\n        /* \"#utility.yul\":4749:4866   */\n    tag_142:\n        /* \"#utility.yul\":4890:4952   */\n      tag_144\n        /* \"#utility.yul\":4944:4951   */\n      dup5\n        /* \"#utility.yul\":4935:4941   */\n      dup3\n        /* \"#utility.yul\":4924:4933   */\n      dup6\n        /* \"#utility.yul\":4920:4942   */\n      add\n        /* \"#utility.yul\":4890:4952   */\n      tag_63\n      jump\t// in\n    tag_144:\n        /* \"#utility.yul\":4880:4952   */\n      swap2\n      pop\n        /* \"#utility.yul\":4676:4962   */\n      pop\n        /* \"#utility.yul\":4462:4969   */\n      swap3\n      swap2\n      pop\n      pop\n      jump\t// out\n        /* \"#utility.yul\":4975:5124   */\n    tag_64:\n        /* \"#utility.yul\":5011:5018   */\n      0x00\n        /* \"#utility.yul\":5051:5117   */\n      0xff00000000000000000000000000000000000000000000000000000000000000\n        /* \"#utility.yul\":5044:5049   */\n      dup3\n        /* \"#utility.yul\":5040:5118   */\n      and\n        /* \"#utility.yul\":5029:5118   */\n      swap1\n      pop\n        /* \"#utility.yul\":4975:5124   */\n      swap2\n      swap1\n      pop\n      jump\t// out\n        /* \"#utility.yul\":5130:5245   */\n    tag_65:\n        /* \"#utility.yul\":5215:5238   */\n      tag_147\n        /* \"#utility.yul\":5232:5237   */\n      dup2\n        /* \"#utility.yul\":5215:5238   */\n      tag_64\n      jump\t// in\n    tag_147:\n        /* \"#utility.yul\":5210:5213   */\n      dup3\n        /* \"#utility.yul\":5203:5239   */\n      mstore\n        /* \"#utility.yul\":5130:5245   */\n      pop\n      pop\n      jump\t// out\n        /* \"#utility.yul\":5251:5469   */\n    tag_24:\n        /* \"#utility.yul\":5342:5346   */\n      0x00\n        /* \"#utility.yul\":5380:5382   */\n      0x20\n        /* \"#utility.yul\":5369:5378   */\n      dup3\n        /* \"#utility.yul\":5365:5383   */\n      add\n        /* \"#utility.yul\":5357:5383   */\n      swap1\n      pop\n        /* \"#utility.yul\":5393:5462   */\n      tag_149\n        /* \"#utility.yul\":5459:5460   */\n      0x00\n        /* \"#utility.yul\":5448:5457   */\n      dup4\n        /* \"#utility.yul\":5444:5461   */\n      add\n        /* \"#utility.yul\":5435:5441   */\n      dup5\n        /* \"#utility.yul\":5393:5462   */\n      tag_65\n      jump\t// in\n    tag_149:\n        /* \"#utility.yul\":5251:5469   */\n      swap3\n      swap2\n      pop\n      pop\n      jump\t// out\n        /* \"#utility.yul\":5475:5593   */\n    tag_66:\n        /* \"#utility.yul\":5562:5586   */\n      tag_151\n        /* \"#utility.yul\":5580:5585   */\n      dup2\n        /* \"#utility.yul\":5562:5586   */\n      tag_52\n      jump\t// in\n    tag_151:\n        /* \"#utility.yul\":5557:5560   */\n      dup3\n        /* \"#utility.yul\":5550:5587   */\n      mstore\n        /* \"#utility.yul\":5475:5593   */\n      pop\n      pop\n      jump\t// out\n        /* \"#utility.yul\":5599:5821   */\n    tag_28:\n        /* \"#utility.yul\":5692:5696   */\n      0x00\n        /* \"#utility.yul\":5730:5732   */\n      0x20\n        /* \"#utility.yul\":5719:5728   */\n      dup3\n        /* \"#utility.yul\":5715:5733   */\n      add\n        /* \"#utility.yul\":5707:5733   */\n      swap1\n      pop\n        /* \"#utility.yul\":5743:5814   */\n      tag_153\n        /* \"#utility.yul\":5811:5812   */\n      0x00\n        /* \"#utility.yul\":5800:5809   */\n      dup4\n        /* \"#utility.yul\":5796:5813   */\n      add\n        /* \"#utility.yul\":5787:5793   */\n      dup5\n        /* \"#utility.yul\":5743:5814   */\n      tag_66\n      jump\t// in\n    tag_153:\n        /* \"#utility.yul\":5599:5821   */\n      swap3\n      swap2\n      pop\n      pop\n      jump\t// out\n        /* \"#utility.yul\":5827:5947   */\n    tag_67:\n        /* \"#utility.yul\":5899:5922   */\n      tag_155\n        /* \"#utility.yul\":5916:5921   */\n      dup2\n        /* \"#utility.yul\":5899:5922   */\n      tag_64\n      jump\t// in\n    tag_155:\n        /* \"#utility.yul\":5892:5897   */\n      dup2\n        /* \"#utility.yul\":5889:5923   */\n      eq\n        /* \"#utility.yul\":5879:5941   */\n      tag_156\n      jumpi\n        /* \"#utility.yul\":5937:5938   */\n      0x00\n        /* \"#utility.yul\":5934:5935   */\n      dup1\n        /* \"#utility.yul\":5927:5939   */\n      revert\n        /* \"#utility.yul\":5879:5941   */\n    tag_156:\n        /* \"#utility.yul\":5827:5947   */\n      pop\n      jump\t// out\n        /* \"#utility.yul\":5953:6090   */\n    tag_68:\n        /* \"#utility.yul\":5998:6003   */\n      0x00\n        /* \"#utility.yul\":6036:6042   */\n      dup2\n        /* \"#utility.yul\":6023:6043   */\n      calldataload\n        /* \"#utility.yul\":6014:6043   */\n      swap1\n      pop\n        /* \"#utility.yul\":6052:6084   */\n      tag_158\n        /* \"#utility.yul\":6078:6083   */\n      dup2\n        /* \"#utility.yul\":6052:6084   */\n      tag_67\n      jump\t// in\n    tag_158:\n        /* \"#utility.yul\":5953:6090   */\n      swap3\n      swap2\n      pop\n      pop\n      jump\t// out\n        /* \"#utility.yul\":6096:6423   */\n    tag_31:\n        /* \"#utility.yul\":6154:6160   */\n      0x00\n        /* \"#utility.yul\":6203:6205   */\n      0x20\n        /* \"#utility.yul\":6191:6200   */\n      dup3\n        /* \"#utility.yul\":6182:6189   */\n      dup5\n        /* \"#utility.yul\":6178:6201   */\n      sub\n        /* \"#utility.yul\":6174:6206   */\n      slt\n        /* \"#utility.yul\":6171:6290   */\n      iszero\n      tag_160\n      jumpi\n        /* \"#utility.yul\":6209:6288   */\n      tag_161\n      tag_50\n      jump\t// in\n    tag_161:\n        /* \"#utility.yul\":6171:6290   */\n    tag_160:\n        /* \"#utility.yul\":6329:6330   */\n      0x00\n        /* \"#utility.yul\":6354:6406   */\n      tag_162\n        /* \"#utility.yul\":6398:6405   */\n      dup5\n        /* \"#utility.yul\":6389:6395   */\n      dup3\n        /* \"#utility.yul\":6378:6387   */\n      dup6\n        /* \"#utility.yul\":6374:6396   */\n      add\n        /* \"#utility.yul\":6354:6406   */\n      tag_68\n      jump\t// in\n    tag_162:\n        /* \"#utility.yul\":6344:6406   */\n      swap2\n      pop\n        /* \"#utility.yul\":6300:6416   */\n      pop\n        /* \"#utility.yul\":6096:6423   */\n      swap3\n      swap2\n      pop\n      pop\n      jump\t// out\n        /* \"#utility.yul\":6429:6609   */\n    tag_69:\n        /* \"#utility.yul\":6477:6554   */\n      0x4e487b7100000000000000000000000000000000000000000000000000000000\n        /* \"#utility.yul\":6474:6475   */\n      0x00\n        /* \"#utility.yul\":6467:6555   */\n      mstore\n        /* \"#utility.yul\":6574:6578   */\n      0x22\n        /* \"#utility.yul\":6571:6572   */\n      0x04\n        /* \"#utility.yul\":6564:6579   */\n      mstore\n        /* \"#utility.yul\":6598:6602   */\n      0x24\n        /* \"#utility.yul\":6595:6596   */\n      0x00\n        /* \"#utility.yul\":6588:6603   */\n      revert\n        /* \"#utility.yul\":6615:6935   */\n    tag_34:\n        /* \"#utility.yul\":6659:6665   */\n      0x00\n        /* \"#utility.yul\":6696:6697   */\n      0x02\n        /* \"#utility.yul\":6690:6694   */\n      dup3\n        /* \"#utility.yul\":6686:6698   */\n      div\n        /* \"#utility.yul\":6676:6698   */\n      swap1\n      pop\n        /* \"#utility.yul\":6743:6744   */\n      0x01\n        /* \"#utility.yul\":6737:6741   */\n      dup3\n        /* \"#utility.yul\":6733:6745   */\n      and\n        /* \"#utility.yul\":6764:6782   */\n      dup1\n        /* \"#utility.yul\":6754:6835   */\n      tag_165\n      jumpi\n        /* \"#utility.yul\":6820:6824   */\n      0x7f\n        /* \"#utility.yul\":6812:6818   */\n      dup3\n        /* \"#utility.yul\":6808:6825   */\n      and\n        /* \"#utility.yul\":6798:6825   */\n      swap2\n      pop\n        /* \"#utility.yul\":6754:6835   */\n    tag_165:\n        /* \"#utility.yul\":6882:6884   */\n      0x20\n        /* \"#utility.yul\":6874:6880   */\n      dup3\n        /* \"#utility.yul\":6871:6885   */\n      lt\n        /* \"#utility.yul\":6851:6869   */\n      dup2\n        /* \"#utility.yul\":6848:6886   */\n      sub\n        /* \"#utility.yul\":6845:6929   */\n      tag_166\n      jumpi\n        /* \"#utility.yul\":6901:6919   */\n      tag_167\n      tag_69\n      jump\t// in\n    tag_167:\n        /* \"#utility.yul\":6845:6929   */\n    tag_166:\n        /* \"#utility.yul\":6666:6935   */\n      pop\n        /* \"#utility.yul\":6615:6935   */\n      swap2\n      swap1\n      pop\n      jump\t// out\n        /* \"#utility.yul\":6941:7081   */\n    tag_70:\n        /* \"#utility.yul\":6989:6993   */\n      0x00\n        /* \"#utility.yul\":7012:7015   */\n      dup2\n        /* \"#utility.yul\":7004:7015   */\n      swap1\n      pop\n        /* \"#utility.yul\":7035:7038   */\n      dup2\n        /* \"#utility.yul\":7032:7033   */\n      0x00\n        /* \"#utility.yul\":7025:7039   */\n      mstore\n        /* \"#utility.yul\":7069:7073   */\n      0x20\n        /* \"#utility.yul\":7066:7067   */\n      0x00\n        /* \"#utility.yul\":7056:7074   */\n      keccak256\n        /* \"#utility.yul\":7048:7074   */\n      swap1\n      pop\n        /* \"#utility.yul\":6941:7081   */\n      swap2\n      swap1\n      pop\n      jump\t// out\n        /* \"#utility.yul\":7087:7180   */\n    tag_71:\n        /* \"#utility.yul\":7124:7130   */\n      0x00\n        /* \"#utility.yul\":7171:7173   */\n      0x20\n        /* \"#utility.yul\":7166:7168   */\n      0x1f\n        /* \"#utility.yul\":7159:7164   */\n      dup4\n        /* \"#utility.yul\":7155:7169   */\n      add\n        /* \"#utility.yul\":7151:7174   */\n      div\n        /* \"#utility.yul\":7141:7174   */\n      swap1\n      pop\n        /* \"#utility.yul\":7087:7180   */\n      swap2\n      swap1\n      pop\n      jump\t// out\n        /* \"#utility.yul\":7186:7293   */\n    tag_72:\n        /* \"#utility.yul\":7230:7238   */\n      0x00\n        /* \"#utility.yul\":7280:7285   */\n      dup3\n        /* \"#utility.yul\":7274:7278   */\n      dup3\n        /* \"#utility.yul\":7270:7286   */\n      shl\n        /* \"#utility.yul\":7249:7286   */\n      swap1\n      pop\n        /* \"#utility.yul\":7186:7293   */\n      swap3\n      swap2\n      pop\n      pop\n      jump\t// out\n        /* \"#utility.yul\":7299:7692   */\n    tag_73:\n        /* \"#utility.yul\":7368:7374   */\n      0x00\n        /* \"#utility.yul\":7418:7419   */\n      0x08\n        /* \"#utility.yul\":7406:7416   */\n      dup4\n        /* \"#utility.yul\":7402:7420   */\n      mul\n        /* \"#utility.yul\":7441:7538   */\n      tag_172\n        /* \"#utility.yul\":7471:7537   */\n      0xffffffffffffffffffffffffffffffffffffffffffffffffffffffffffffffff\n        /* \"#utility.yul\":7460:7469   */\n      dup3\n        /* \"#utility.yul\":7441:7538   */\n      tag_72\n      jump\t// in\n    tag_172:\n        /* \"#utility.yul\":7559:7598   */\n      tag_173\n        /* \"#utility.yul\":7589:7597   */\n      dup7\n        /* \"#utility.yul\":7578:7587   */\n      dup4\n        /* \"#utility.yul\":7559:7598   */\n      tag_72\n      jump\t// in\n    tag_173:\n        /* \"#utility.yul\":7547:7598   */\n      swap6\n      pop\n        /* \"#utility.yul\":7631:7635   */\n      dup1\n        /* \"#utility.yul\":7627:7636   */\n      not\n        /* \"#utility.yul\":7620:7625   */\n      dup5\n        /* \"#utility.yul\":7616:7637   */\n      and\n        /* \"#utility.yul\":7607:7637   */\n      swap4\n      pop\n        /* \"#utility.yul\":7680:7684   */\n      dup1\n        /* \"#utility.yul\":7670:7678   */\n      dup7\n        /* \"#utility.yul\":7666:7685   */\n      and\n        /* \"#utility.yul\":7659:7664   */\n      dup5\n        /* \"#utility.yul\":7656:7686   */\n      or\n        /* \"#utility.yul\":7646:7686   */\n      swap3\n      pop\n        /* \"#utility.yul\":7375:7692   */\n      pop\n      pop\n        /* \"#utility.yul\":7299:7692   */\n      swap4\n      swap3\n      pop\n      pop\n      pop\n      jump\t// out\n        /* \"#utility.yul\":7698:7775   */\n    tag_74:\n        /* \"#utility.yul\":7735:7742   */\n      0x00\n        /* \"#utility.yul\":7764:7769   */\n      dup2\n        /* \"#utility.yul\":7753:7769   */\n      swap1\n      pop\n        /* \"#utility.yul\":7698:7775   */\n      swap2\n      swap1\n      pop\n      jump\t// out\n        /* \"#utility.yul\":7781:7841   */\n    tag_75:\n        /* \"#utility.yul\":7809:7812   */\n      0x00\n        /* \"#utility.yul\":7830:7835   */\n      dup2\n        /* \"#utility.yul\":7823:7835   */\n      swap1\n      pop\n        /* \"#utility.yul\":7781:7841   */\n      swap2\n      swap1\n      pop\n      jump\t// out\n        /* \"#utility.yul\":7847:7989   */\n    tag_76:\n        /* \"#utility.yul\":7897:7906   */\n      0x00\n        /* \"#utility.yul\":7930:7983   */\n      tag_177\n        /* \"#utility.yul\":7948:7982   */\n      tag_178\n        /* \"#utility.yul\":7957:7981   */\n      tag_179\n        /* \"#utility.yul\":7975:7980   */\n      dup5\n        /* \"#utility.yul\":7957:7981   */\n      tag_74\n      jump\t// in\n    tag_179:\n        /* \"#utility.yul\":7948:7982   */\n      tag_75\n      jump\t// in\n    tag_178:\n        /* \"#utility.yul\":7930:7983   */\n      tag_74\n      jump\t// in\n    tag_177:\n        /* \"#utility.yul\":7917:7983   */\n      swap1\n      pop\n        /* \"#utility.yul\":7847:7989   */\n      swap2\n      swap1\n      pop\n      jump\t// out\n        /* \"#utility.yul\":7995:8070   */\n    tag_77:\n        /* \"#utility.yul\":8038:8041   */\n      0x00\n        /* \"#utility.yul\":8059:8064   */\n      dup2\n        /* \"#utility.yul\":8052:8064   */\n      swap1\n      pop\n        /* \"#utility.yul\":7995:8070   */\n      swap2\n      swap1\n      pop\n      jump\t// out\n        /* \"#utility.yul\":8076:8345   */\n    tag_78:\n        /* \"#utility.yul\":8186:8225   */\n      tag_182\n        /* \"#utility.yul\":8217:8224   */\n      dup4\n        /* \"#utility.yul\":8186:8225   */\n      tag_76\n      jump\t// in\n    tag_182:\n        /* \"#utility.yul\":8247:8338   */\n      tag_183\n        /* \"#utility.yul\":8296:8337   */\n      tag_184\n        /* \"#utility.yul\":8320:8336   */\n      dup3\n        /* \"#utility.yul\":8296:8337   */\n      tag_77\n      jump\t// in\n    tag_184:\n        /* \"#utility.yul\":8288:8294   */\n      dup5\n        /* \"#utility.yul\":8281:8285   */\n      dup5\n        /* \"#utility.yul\":8275:8286   */\n      sload\n        /* \"#utility.yul\":8247:8338   */\n      tag_73\n      jump\t// in\n    tag_183:\n        /* \"#utility.yul\":8241:8245   */\n      dup3\n        /* \"#utility.yul\":8234:8339   */\n      sstore\n        /* \"#utility.yul\":8152:8345   */\n      pop\n        /* \"#utility.yul\":8076:8345   */\n      pop\n      pop\n      pop\n      jump\t// out\n        /* \"#utility.yul\":8351:8424   */\n    tag_79:\n        /* \"#utility.yul\":8396:8399   */\n      0x00\n        /* \"#utility.yul\":8351:8424   */\n      swap1\n      jump\t// out\n        /* \"#utility.yul\":8430:8619   */\n    tag_80:\n        /* \"#utility.yul\":8507:8539   */\n      tag_187\n      tag_79\n      jump\t// in\n    tag_187:\n        /* \"#utility.yul\":8548:8613   */\n      tag_188\n        /* \"#utility.yul\":8606:8612   */\n      dup2\n        /* \"#utility.yul\":8598:8604   */\n      dup5\n        /* \"#utility.yul\":8592:8596   */\n      dup5\n        /* \"#utility.yul\":8548:8613   */\n      tag_78\n      jump\t// in\n    tag_188:\n        /* \"#utility.yul\":8483:8619   */\n      pop\n        /* \"#utility.yul\":8430:8619   */\n      pop\n      pop\n      jump\t// out\n        /* \"#utility.yul\":8625:8811   */\n    tag_81:\n        /* \"#utility.yul\":8685:8805   */\n    tag_190:\n        /* \"#utility.yul\":8702:8705   */\n      dup2\n        /* \"#utility.yul\":8695:8700   */\n      dup2\n        /* \"#utility.yul\":8692:8706   */\n      lt\n        /* \"#utility.yul\":8685:8805   */\n      iszero\n      tag_192\n      jumpi\n        /* \"#utility.yul\":8756:8795   */\n      tag_193\n        /* \"#utility.yul\":8793:8794   */\n      0x00\n        /* \"#utility.yul\":8786:8791   */\n      dup3\n        /* \"#utility.yul\":8756:8795   */\n      tag_80\n      jump\t// in\n    tag_193:\n        /* \"#utility.yul\":8729:8730   */\n      0x01\n        /* \"#utility.yul\":8722:8727   */\n      dup2\n        /* \"#utility.yul\":8718:8731   */\n      add\n        /* \"#utility.yul\":8709:8731   */\n      swap1\n      pop\n        /* \"#utility.yul\":8685:8805   */\n      jump(tag_190)\n    tag_192:\n        /* \"#utility.yul\":8625:8811   */\n      pop\n      pop\n      jump\t// out\n        /* \"#utility.yul\":8817:9358   */\n    tag_82:\n        /* \"#utility.yul\":8917:8919   */\n      0x1f\n        /* \"#utility.yul\":8912:8915   */\n      dup3\n        /* \"#utility.yul\":8909:8920   */\n      gt\n        /* \"#utility.yul\":8906:9351   */\n      iszero\n      tag_195\n      jumpi\n        /* \"#utility.yul\":8951:8988   */\n      tag_196\n        /* \"#utility.yul\":8982:8987   */\n      dup2\n        /* \"#utility.yul\":8951:8988   */\n      tag_70\n      jump\t// in\n    tag_196:\n        /* \"#utility.yul\":9034:9063   */\n      tag_197\n        /* \"#utility.yul\":9052:9062   */\n      dup5\n        /* \"#utility.yul\":9034:9063   */\n      tag_71\n      jump\t// in\n    tag_197:\n        /* \"#utility.yul\":9024:9032   */\n      dup2\n        /* \"#utility.yul\":9020:9064   */\n      add\n        /* \"#utility.yul\":9217:9219   */\n      0x20\n        /* \"#utility.yul\":9205:9215   */\n      dup6\n        /* \"#utility.yul\":9202:9220   */\n      lt\n        /* \"#utility.yul\":9199:9248   */\n      iszero\n      tag_198\n      jumpi\n        /* \"#utility.yul\":9238:9246   */\n      dup2\n        /* \"#utility.yul\":9223:9246   */\n      swap1\n      pop\n        /* \"#utility.yul\":9199:9248   */\n    tag_198:\n        /* \"#utility.yul\":9261:9341   */\n      tag_199\n        /* \"#utility.yul\":9317:9339   */\n      tag_200\n        /* \"#utility.yul\":9335:9338   */\n      dup6\n        /* \"#utility.yul\":9317:9339   */\n      tag_71\n      jump\t// in\n    tag_200:\n        /* \"#utility.yul\":9307:9315   */\n      dup4\n        /* \"#utility.yul\":9303:9340   */\n      add\n        /* \"#utility.yul\":9290:9301   */\n      dup3\n        /* \"#utility.yul\":9261:9341   */\n      tag_81\n      jump\t// in\n    tag_199:\n        /* \"#utility.yul\":8921:9351   */\n      pop\n      pop\n        /* \"#utility.yul\":8906:9351   */\n    tag_195:\n        /* \"#utility.yul\":8817:9358   */\n      pop\n      pop\n      pop\n      jump\t// out\n        /* \"#utility.yul\":9364:9481   */\n    tag_83:\n        /* \"#utility.yul\":9418:9426   */\n      0x00\n        /* \"#utility.yul\":9468:9473   */\n      dup3\n        /* \"#utility.yul\":9462:9466   */\n      dup3\n        /* \"#utility.yul\":9458:9474   */\n      shr\n        /* \"#utility.yul\":9437:9474   */\n      swap1\n      pop\n        /* \"#utility.yul\":9364:9481   */\n      swap3\n      swap2\n      pop\n      pop\n      jump\t// out\n        /* \"#utility.yul\":9487:9656   */\n    tag_84:\n        /* \"#utility.yul\":9531:9537   */\n      0x00\n        /* \"#utility.yul\":9564:9615   */\n      tag_203\n        /* \"#utility.yul\":9612:9613   */\n      0x00\n        /* \"#utility.yul\":9608:9614   */\n      not\n        /* \"#utility.yul\":9600:9605   */\n      dup5\n        /* \"#utility.yul\":9597:9598   */\n      0x08\n        /* \"#utility.yul\":9593:9606   */\n      mul\n        /* \"#utility.yul\":9564:9615   */\n      tag_83\n      jump\t// in\n    tag_203:\n        /* \"#utility.yul\":9560:9616   */\n      not\n        /* \"#utility.yul\":9645:9649   */\n      dup1\n        /* \"#utility.yul\":9639:9643   */\n      dup4\n        /* \"#utility.yul\":9635:9650   */\n      and\n        /* \"#utility.yul\":9625:9650   */\n      swap2\n      pop\n        /* \"#utility.yul\":9538:9656   */\n      pop\n        /* \"#utility.yul\":9487:9656   */\n      swap3\n      swap2\n      pop\n      pop\n      jump\t// out\n        /* \"#utility.yul\":9661:9956   */\n    tag_85:\n        /* \"#utility.yul\":9737:9741   */\n      0x00\n        /* \"#utility.yul\":9883:9912   */\n      tag_205\n        /* \"#utility.yul\":9908:9911   */\n      dup4\n        /* \"#utility.yul\":9902:9906   */\n      dup4\n        /* \"#utility.yul\":9883:9912   */\n      tag_84\n      jump\t// in\n    tag_205:\n        /* \"#utility.yul\":9875:9912   */\n      swap2\n      pop\n        /* \"#utility.yul\":9945:9948   */\n      dup3\n        /* \"#utility.yul\":9942:9943   */\n      0x02\n        /* \"#utility.yul\":9938:9949   */\n      mul\n        /* \"#utility.yul\":9932:9936   */\n      dup3\n        /* \"#utility.yul\":9929:9950   */\n      or\n        /* \"#utility.yul\":9921:9950   */\n      swap1\n      pop\n        /* \"#utility.yul\":9661:9956   */\n      swap3\n      swap2\n      pop\n      pop\n      jump\t// out\n        /* \"#utility.yul\":9961:11351   */\n    tag_42:\n        /* \"#utility.yul\":10076:10112   */\n      tag_207\n        /* \"#utility.yul\":10108:10111   */\n      dup3\n        /* \"#utility.yul\":10076:10112   */\n      tag_44\n      jump\t// in\n    tag_207:\n        /* \"#utility.yul\":10177:10195   */\n      0xffffffffffffffff\n        /* \"#utility.yul\":10169:10175   */\n      dup2\n        /* \"#utility.yul\":10166:10196   */\n      gt\n        /* \"#utility.yul\":10163:10219   */\n      iszero\n      tag_208\n      jumpi\n        /* \"#utility.yul\":10199:10217   */\n      tag_209\n      tag_57\n      jump\t// in\n    tag_209:\n        /* \"#utility.yul\":10163:10219   */\n    tag_208:\n        /* \"#utility.yul\":10243:10281   */\n      tag_210\n        /* \"#utility.yul\":10275:10279   */\n      dup3\n        /* \"#utility.yul\":10269:10280   */\n      sload\n        /* \"#utility.yul\":10243:10281   */\n      tag_34\n      jump\t// in\n    tag_210:\n        /* \"#utility.yul\":10328:10394   */\n      tag_211\n        /* \"#utility.yul\":10387:10393   */\n      dup3\n        /* \"#utility.yul\":10379:10385   */\n      dup3\n        /* \"#utility.yul\":10373:10377   */\n      dup6\n        /* \"#utility.yul\":10328:10394   */\n      tag_82\n      jump\t// in\n    tag_211:\n        /* \"#utility.yul\":10421:10422   */\n      0x00\n        /* \"#utility.yul\":10445:10449   */\n      0x20\n        /* \"#utility.yul\":10432:10449   */\n      swap1\n      pop\n        /* \"#utility.yul\":10477:10479   */\n      0x1f\n        /* \"#utility.yul\":10469:10475   */\n      dup4\n        /* \"#utility.yul\":10466:10480   */\n      gt\n        /* \"#utility.yul\":10494:10495   */\n      0x01\n        /* \"#utility.yul\":10489:11106   */\n      dup2\n      eq\n      tag_213\n      jumpi\n        /* \"#utility.yul\":11150:11151   */\n      0x00\n        /* \"#utility.yul\":11167:11173   */\n      dup5\n        /* \"#utility.yul\":11164:11241   */\n      iszero\n      tag_214\n      jumpi\n        /* \"#utility.yul\":11216:11225   */\n      dup3\n        /* \"#utility.yul\":11211:11214   */\n      dup8\n        /* \"#utility.yul\":11207:11226   */\n      add\n        /* \"#utility.yul\":11201:11227   */\n      mload\n        /* \"#utility.yul\":11192:11227   */\n      swap1\n      pop\n        /* \"#utility.yul\":11164:11241   */\n    tag_214:\n        /* \"#utility.yul\":11267:11334   */\n      tag_215\n        /* \"#utility.yul\":11327:11333   */\n      dup6\n        /* \"#utility.yul\":11320:11325   */\n      dup3\n        /* \"#utility.yul\":11267:11334   */\n      tag_85\n      jump\t// in\n    tag_215:\n        /* \"#utility.yul\":11261:11265   */\n      dup7\n        /* \"#utility.yul\":11254:11335   */\n      sstore\n        /* \"#utility.yul\":11123:11345   */\n      pop\n        /* \"#utility.yul\":10459:11345   */\n      jump(tag_212)\n        /* \"#utility.yul\":10489:11106   */\n    tag_213:\n        /* \"#utility.yul\":10541:10545   */\n      0x1f\n        /* \"#utility.yul\":10537:10546   */\n      not\n        /* \"#utility.yul\":10529:10535   */\n      dup5\n        /* \"#utility.yul\":10525:10547   */\n      and\n        /* \"#utility.yul\":10575:10611   */\n      tag_216\n        /* \"#utility.yul\":10606:10610   */\n      dup7\n        /* \"#utility.yul\":10575:10611   */\n      tag_70\n      jump\t// in\n    tag_216:\n        /* \"#utility.yul\":10633:10634   */\n      0x00\n        /* \"#utility.yul\":10647:10855   */\n    tag_217:\n        /* \"#utility.yul\":10661:10668   */\n      dup3\n        /* \"#utility.yul\":10658:10659   */\n      dup2\n        /* \"#utility.yul\":10655:10669   */\n      lt\n        /* \"#utility.yul\":10647:10855   */\n      iszero\n      tag_219\n      jumpi\n        /* \"#utility.yul\":10740:10749   */\n      dup5\n        /* \"#utility.yul\":10735:10738   */\n      dup10\n        /* \"#utility.yul\":10731:10750   */\n      add\n        /* \"#utility.yul\":10725:10751   */\n      mload\n        /* \"#utility.yul\":10717:10723   */\n      dup3\n        /* \"#utility.yul\":10710:10752   */\n      sstore\n        /* \"#utility.yul\":10791:10792   */\n      0x01\n        /* \"#utility.yul\":10783:10789   */\n      dup3\n        /* \"#utility.yul\":10779:10793   */\n      add\n        /* \"#utility.yul\":10769:10793   */\n      swap2\n      pop\n        /* \"#utility.yul\":10838:10840   */\n      0x20\n        /* \"#utility.yul\":10827:10836   */\n      dup6\n        /* \"#utility.yul\":10823:10841   */\n      add\n        /* \"#utility.yul\":10810:10841   */\n      swap5\n      pop\n        /* \"#utility.yul\":10684:10688   */\n      0x20\n        /* \"#utility.yul\":10681:10682   */\n      dup2\n        /* \"#utility.yul\":10677:10689   */\n      add\n        /* \"#utility.yul\":10672:10689   */\n      swap1\n      pop\n        /* \"#utility.yul\":10647:10855   */\n      jump(tag_217)\n    tag_219:\n        /* \"#utility.yul\":10883:10889   */\n      dup7\n        /* \"#utility.yul\":10874:10881   */\n      dup4\n        /* \"#utility.yul\":10871:10890   */\n      lt\n        /* \"#utility.yul\":10868:11047   */\n      iszero\n      tag_220\n      jumpi\n        /* \"#utility.yul\":10941:10950   */\n      dup5\n        /* \"#utility.yul\":10936:10939   */\n      dup10\n        /* \"#utility.yul\":10932:10951   */\n      add\n        /* \"#utility.yul\":10926:10952   */\n      mload\n        /* \"#utility.yul\":10984:11032   */\n      tag_221\n        /* \"#utility.yul\":11026:11030   */\n      0x1f\n        /* \"#utility.yul\":11018:11024   */\n      dup10\n        /* \"#utility.yul\":11014:11031   */\n      and\n        /* \"#utility.yul\":11003:11012   */\n      dup3\n        /* \"#utility.yul\":10984:11032   */\n      tag_84\n      jump\t// in\n    tag_221:\n        /* \"#utility.yul\":10976:10982   */\n      dup4\n        /* \"#utility.yul\":10969:11033   */\n      sstore\n        /* \"#utility.yul\":10891:11047   */\n      pop\n        /* \"#utility.yul\":10868:11047   */\n    tag_220:\n        /* \"#utility.yul\":11093:11094   */\n      0x01\n        /* \"#utility.yul\":11089:11090   */\n      0x02\n        /* \"#utility.yul\":11081:11087   */\n      dup9\n        /* \"#utility.yul\":11077:11091   */\n      mul\n        /* \"#utility.yul\":11073:11095   */\n      add\n        /* \"#utility.yul\":11067:11071   */\n      dup9\n        /* \"#utility.yul\":11060:11096   */\n      sstore\n        /* \"#utility.yul\":10496:11106   */\n      pop\n      pop\n      pop\n        /* \"#utility.yul\":10459:11345   */\n    tag_212:\n      pop\n        /* \"#utility.yul\":10051:11351   */\n      pop\n      pop\n      pop\n        /* \"#utility.yul\":9961:11351   */\n      pop\n      pop\n      jump\t// out\n\n    auxdata: 0xa2646970667358221220ad00dea70736c40e31641ade114b8c4acfe33339309edd213d59f58dc5d8a11d64736f6c63430008130033\n}\n",
				"bytecode": {
					"linkReferences": {},
					"object": "608060405234801561001057600080fd5b50610895806100206000396000f3fe608060405234801561001057600080fd5b50600436106100625760003560e01c80634df7e3d014610067578063c2b12a7314610085578063da359dc8146100a1578063ee495002146100bd578063f8aab238146100db578063fba1a1c3146100f9575b600080fd5b61006f610115565b60405161007c9190610287565b60405180910390f35b61009f600480360381019061009a91906102f3565b6101a3565b005b6100bb60048036038101906100b69190610455565b6101ad565b005b6100c56101c0565b6040516100d291906104d9565b60405180910390f35b6100e36101d3565b6040516100f09190610503565b60405180910390f35b610113600480360381019061010e919061054a565b6101d9565b005b60008054610122906105a6565b80601f016020809104026020016040519081016040528092919081815260200182805461014e906105a6565b801561019b5780601f106101705761010080835404028352916020019161019b565b820191906000526020600020905b81548152906001019060200180831161017e57829003601f168201915b505050505081565b8060018190555050565b80600090816101bc919061078d565b5050565b600260009054906101000a900460f81b81565b60015481565b80600260006101000a81548160ff021916908360f81c021790555050565b600081519050919050565b600082825260208201905092915050565b60005b83811015610231578082015181840152602081019050610216565b60008484015250505050565b6000601f19601f8301169050919050565b6000610259826101f7565b6102638185610202565b9350610273818560208601610213565b61027c8161023d565b840191505092915050565b600060208201905081810360008301526102a1818461024e565b905092915050565b6000604051905090565b600080fd5b600080fd5b6000819050919050565b6102d0816102bd565b81146102db57600080fd5b50565b6000813590506102ed816102c7565b92915050565b600060208284031215610309576103086102b3565b5b6000610317848285016102de565b91505092915050565b600080fd5b600080fd5b7f4e487b7100000000000000000000000000000000000000000000000000000000600052604160045260246000fd5b6103628261023d565b810181811067ffffffffffffffff821117156103815761038061032a565b5b80604052505050565b60006103946102a9565b90506103a08282610359565b919050565b600067ffffffffffffffff8211156103c0576103bf61032a565b5b6103c98261023d565b9050602081019050919050565b82818337600083830152505050565b60006103f86103f3846103a5565b61038a565b90508281526020810184848401111561041457610413610325565b5b61041f8482856103d6565b509392505050565b600082601f83011261043c5761043b610320565b5b813561044c8482602086016103e5565b91505092915050565b60006020828403121561046b5761046a6102b3565b5b600082013567ffffffffffffffff811115610489576104886102b8565b5b61049584828501610427565b91505092915050565b60007fff0000000000000000000000000000000000000000000000000000000000000082169050919050565b6104d38161049e565b82525050565b60006020820190506104ee60008301846104ca565b92915050565b6104fd816102bd565b82525050565b600060208201905061051860008301846104f4565b92915050565b6105278161049e565b811461053257600080fd5b50565b6000813590506105448161051e565b92915050565b6000602082840312156105605761055f6102b3565b5b600061056e84828501610535565b91505092915050565b7f4e487b7100000000000000000000000000000000000000000000000000000000600052602260045260246000fd5b600060028204905060018216806105be57607f821691505b6020821081036105d1576105d0610577565b5b50919050565b60008190508160005260206000209050919050565b60006020601f8301049050919050565b600082821b905092915050565b6000600883026106397fffffffffffffffffffffffffffffffffffffffffffffffffffffffffffffffff826105fc565b61064386836105fc565b95508019841693508086168417925050509392505050565b6000819050919050565b6000819050919050565b600061068a6106856106808461065b565b610665565b61065b565b9050919050565b6000819050919050565b6106a48361066f565b6106b86106b082610691565b848454610609565b825550505050565b600090565b6106cd6106c0565b6106d881848461069b565b505050565b5b818110156106fc576106f16000826106c5565b6001810190506106de565b5050565b601f82111561074157610712816105d7565b61071b846105ec565b8101602085101561072a578190505b61073e610736856105ec565b8301826106dd565b50505b505050565b600082821c905092915050565b600061076460001984600802610746565b1980831691505092915050565b600061077d8383610753565b9150826002028217905092915050565b610796826101f7565b67ffffffffffffffff8111156107af576107ae61032a565b5b6107b982546105a6565b6107c4828285610700565b600060209050601f8311600181146107f757600084156107e5578287015190505b6107ef8582610771565b865550610857565b601f198416610805866105d7565b60005b8281101561082d57848901518255600182019150602085019450602081019050610808565b8683101561084a5784890151610846601f891682610753565b8355505b6001600288020188555050505b50505050505056fea2646970667358221220ad00dea70736c40e31641ade114b8c4acfe33339309edd213d59f58dc5d8a11d64736f6c63430008130033",
					"opcodes": "PUSH1 0x80 PUSH1 0x40 MSTORE CALLVALUE DUP1 ISZERO PUSH2 0x10 JUMPI PUSH1 0x0 DUP1 REVERT JUMPDEST POP PUSH2 0x895 DUP1 PUSH2 0x20 PUSH1 0x0 CODECOPY PUSH1 0x0 RETURN INVALID PUSH1 0x80 PUSH1 0x40 MSTORE CALLVALUE DUP1 ISZERO PUSH2 0x10 JUMPI PUSH1 0x0 DUP1 REVERT JUMPDEST POP PUSH1 0x4 CALLDATASIZE LT PUSH2 0x62 JUMPI PUSH1 0x0 CALLDATALOAD PUSH1 0xE0 SHR DUP1 PUSH4 0x4DF7E3D0 EQ PUSH2 0x67 JUMPI DUP1 PUSH4 0xC2B12A73 EQ PUSH2 0x85 JUMPI DUP1 PUSH4 0xDA359DC8 EQ PUSH2 0xA1 JUMPI DUP1 PUSH4 0xEE495002 EQ PUSH2 0xBD JUMPI DUP1 PUSH4 0xF8AAB238 EQ PUSH2 0xDB JUMPI DUP1 PUSH4 0xFBA1A1C3 EQ PUSH2 0xF9 JUMPI JUMPDEST PUSH1 0x0 DUP1 REVERT JUMPDEST PUSH2 0x6F PUSH2 0x115 JUMP JUMPDEST PUSH1 0x40 MLOAD PUSH2 0x7C SWAP2 SWAP1 PUSH2 0x287 JUMP JUMPDEST PUSH1 0x40 MLOAD DUP1 SWAP2 SUB SWAP1 RETURN JUMPDEST PUSH2 0x9F PUSH1 0x4 DUP1 CALLDATASIZE SUB DUP2 ADD SWAP1 PUSH2 0x9A SWAP2 SWAP1 PUSH2 0x2F3 JUMP JUMPDEST PUSH2 0x1A3 JUMP JUMPDEST STOP JUMPDEST PUSH2 0xBB PUSH1 0x4 DUP1 CALLDATASIZE SUB DUP2 ADD SWAP1 PUSH2 0xB6 SWAP2 SWAP1 PUSH2 0x455 JUMP JUMPDEST PUSH2 0x1AD JUMP JUMPDEST STOP JUMPDEST PUSH2 0xC5 PUSH2 0x1C0 JUMP JUMPDEST PUSH1 0x40 MLOAD PUSH2 0xD2 SWAP2 SWAP1 PUSH2 0x4D9 JUMP JUMPDEST PUSH1 0x40 MLOAD DUP1 SWAP2 SUB SWAP1 RETURN JUMPDEST PUSH2 0xE3 PUSH2 0x1D3 JUMP JUMPDEST PUSH1 0x40 MLOAD PUSH2 0xF0 SWAP2 SWAP1 PUSH2 0x503 JUMP JUMPDEST PUSH1 0x40 MLOAD DUP1 SWAP2 SUB SWAP1 RETURN JUMPDEST PUSH2 0x113 PUSH1 0x4 DUP1 CALLDATASIZE SUB DUP2 ADD SWAP1 PUSH2 0x10E SWAP2 SWAP1 PUSH2 0x54A JUMP JUMPDEST PUSH2 0x1D9 JUMP JUMPDEST STOP JUMPDEST PUSH1 0x0 DUP1 SLOAD PUSH2 0x122 SWAP1 PUSH2 0x5A6 JUMP JUMPDEST DUP1 PUSH1 0x1F ADD PUSH1 0x20 DUP1 SWAP2 DIV MUL PUSH1 0x20 ADD PUSH1 0x40 MLOAD SWAP1 DUP2 ADD PUSH1 0x40 MSTORE DUP1 SWAP3 SWAP2 SWAP1 DUP2 DUP2 MSTORE PUSH1 0x20 ADD DUP3 DUP1 SLOAD PUSH2 0x14E SWAP1 PUSH2 0x5A6 JUMP JUMPDEST DUP1 ISZERO PUSH2 0x19B JUMPI DUP1 PUSH1 0x1F LT PUSH2 0x170 JUMPI PUSH2 0x100 DUP1 DUP4 SLOAD DIV MUL DUP4 MSTORE SWAP2 PUSH1 0x20 ADD SWAP2 PUSH2 0x19B JUMP JUMPDEST DUP3 ADD SWAP2 SWAP1 PUSH1 0x0 MSTORE PUSH1 0x20 PUSH1 0x0 KECCAK256 SWAP1 JUMPDEST DUP2 SLOAD DUP2 MSTORE SWAP1 PUSH1 0x1 ADD SWAP1 PUSH1 0x20 ADD DUP1 DUP4 GT PUSH2 0x17E JUMPI DUP3 SWAP1 SUB PUSH1 0x1F AND DUP3 ADD SWAP2 JUMPDEST POP POP POP POP POP DUP2 JUMP JUMPDEST DUP1 PUSH1 0x1 DUP2 SWAP1 SSTORE POP POP JUMP JUMPDEST DUP1 PUSH1 0x0 SWAP1 DUP2 PUSH2 0x1BC SWAP2 SWAP1 PUSH2 0x78D JUMP JUMPDEST POP POP JUMP JUMPDEST PUSH1 0x2 PUSH1 0x0 SWAP1 SLOAD SWAP1 PUSH2 0x100 EXP SWAP1 DIV PUSH1 0xF8 SHL DUP2 JUMP JUMPDEST PUSH1 0x1 SLOAD DUP2 JUMP JUMPDEST DUP1 PUSH1 0x2 PUSH1 0x0 PUSH2 0x100 EXP DUP2 SLOAD DUP2 PUSH1 0xFF MUL NOT AND SWAP1 DUP4 PUSH1 0xF8 SHR MUL OR SWAP1 SSTORE POP POP JUMP JUMPDEST PUSH1 0x0 DUP2 MLOAD SWAP1 POP SWAP2 SWAP1 POP JUMP JUMPDEST PUSH1 0x0 DUP3 DUP3 MSTORE PUSH1 0x20 DUP3 ADD SWAP1 POP SWAP3 SWAP2 POP POP JUMP JUMPDEST PUSH1 0x0 JUMPDEST DUP4 DUP2 LT ISZERO PUSH2 0x231 JUMPI DUP1 DUP3 ADD MLOAD DUP2 DUP5 ADD MSTORE PUSH1 0x20 DUP2 ADD SWAP1 POP PUSH2 0x216 JUMP JUMPDEST PUSH1 0x0 DUP5 DUP5 ADD MSTORE POP POP POP POP JUMP JUMPDEST PUSH1 0x0 PUSH1 0x1F NOT PUSH1 0x1F DUP4 ADD AND SWAP1 POP SWAP2 SWAP1 POP JUMP JUMPDEST PUSH1 0x0 PUSH2 0x259 DUP3 PUSH2 0x1F7 JUMP JUMPDEST PUSH2 0x263 DUP2 DUP6 PUSH2 0x202 JUMP JUMPDEST SWAP4 POP PUSH2 0x273 DUP2 DUP6 PUSH1 0x20 DUP7 ADD PUSH2 0x213 JUMP JUMPDEST PUSH2 0x27C DUP2 PUSH2 0x23D JUMP JUMPDEST DUP5 ADD SWAP2 POP POP SWAP3 SWAP2 POP POP JUMP JUMPDEST PUSH1 0x0 PUSH1 0x20 DUP3 ADD SWAP1 POP DUP2 DUP2 SUB PUSH1 0x0 DUP4 ADD MSTORE PUSH2 0x2A1 DUP2 DUP5 PUSH2 0x24E JUMP JUMPDEST SWAP1 POP SWAP3 SWAP2 POP POP JUMP JUMPDEST PUSH1 0x0 PUSH1 0x40 MLOAD SWAP1 POP SWAP1 JUMP JUMPDEST PUSH1 0x0 DUP1 REVERT JUMPDEST PUSH1 0x0 DUP1 REVERT JUMPDEST PUSH1 0x0 DUP2 SWAP1 POP SWAP2 SWAP1 POP JUMP JUMPDEST PUSH2 0x2D0 DUP2 PUSH2 0x2BD JUMP JUMPDEST DUP2 EQ PUSH2 0x2DB JUMPI PUSH1 0x0 DUP1 REVERT JUMPDEST POP JUMP JUMPDEST PUSH1 0x0 DUP2 CALLDATALOAD SWAP1 POP PUSH2 0x2ED DUP2 PUSH2 0x2C7 JUMP JUMPDEST SWAP3 SWAP2 POP POP JUMP JUMPDEST PUSH1 0x0 PUSH1 0x20 DUP3 DUP5 SUB SLT ISZERO PUSH2 0x309 JUMPI PUSH2 0x308 PUSH2 0x2B3 JUMP JUMPDEST JUMPDEST PUSH1 0x0 PUSH2 0x317 DUP5 DUP3 DUP6 ADD PUSH2 0x2DE JUMP JUMPDEST SWAP2 POP POP SWAP3 SWAP2 POP POP JUMP JUMPDEST PUSH1 0x0 DUP1 REVERT JUMPDEST PUSH1 0x0 DUP1 REVERT JUMPDEST PUSH32 0x4E487B7100000000000000000000000000000000000000000000000000000000 PUSH1 0x0 MSTORE PUSH1 0x41 PUSH1 0x4 MSTORE PUSH1 0x24 PUSH1 0x0 REVERT JUMPDEST PUSH2 0x362 DUP3 PUSH2 0x23D JUMP JUMPDEST DUP2 ADD DUP2 DUP2 LT PUSH8 0xFFFFFFFFFFFFFFFF DUP3 GT OR ISZERO PUSH2 0x381 JUMPI PUSH2 0x380 PUSH2 0x32A JUMP JUMPDEST JUMPDEST DUP1 PUSH1 0x40 MSTORE POP POP POP JUMP JUMPDEST PUSH1 0x0 PUSH2 0x394 PUSH2 0x2A9 JUMP JUMPDEST SWAP1 POP PUSH2 0x3A0 DUP3 DUP3 PUSH2 0x359 JUMP JUMPDEST SWAP2 SWAP1 POP JUMP JUMPDEST PUSH1 0x0 PUSH8 0xFFFFFFFFFFFFFFFF DUP3 GT ISZERO PUSH2 0x3C0 JUMPI PUSH2 0x3BF PUSH2 0x32A JUMP JUMPDEST JUMPDEST PUSH2 0x3C9 DUP3 PUSH2 0x23D JUMP JUMPDEST SWAP1 POP PUSH1 0x20 DUP2 ADD SWAP1 POP SWAP2 SWAP1 POP JUMP JUMPDEST DUP3 DUP2 DUP4 CALLDATACOPY PUSH1 0x0 DUP4 DUP4 ADD MSTORE POP POP POP JUMP JUMPDEST PUSH1 0x0 PUSH2 0x3F8 PUSH2 0x3F3 DUP5 PUSH2 0x3A5 JUMP JUMPDEST PUSH2 0x38A JUMP JUMPDEST SWAP1 POP DUP3 DUP2 MSTORE PUSH1 0x20 DUP2 ADD DUP5 DUP5 DUP5 ADD GT ISZERO PUSH2 0x414 JUMPI PUSH2 0x413 PUSH2 0x325 JUMP JUMPDEST JUMPDEST PUSH2 0x41F DUP5 DUP3 DUP6 PUSH2 0x3D6 JUMP JUMPDEST POP SWAP4 SWAP3 POP POP POP JUMP JUMPDEST PUSH1 0x0 DUP3 PUSH1 0x1F DUP4 ADD SLT PUSH2 0x43C JUMPI PUSH2 0x43B PUSH2 0x320 JUMP JUMPDEST JUMPDEST DUP2 CALLDATALOAD PUSH2 0x44C DUP5 DUP3 PUSH1 0x20 DUP7 ADD PUSH2 0x3E5 JUMP JUMPDEST SWAP2 POP POP SWAP3 SWAP2 POP POP JUMP JUMPDEST PUSH1 0x0 PUSH1 0x20 DUP3 DUP5 SUB SLT ISZERO PUSH2 0x46B JUMPI PUSH2 0x46A PUSH2 0x2B3 JUMP JUMPDEST JUMPDEST PUSH1 0x0 DUP3 ADD CALLDATALOAD PUSH8 0xFFFFFFFFFFFFFFFF DUP2 GT ISZERO PUSH2 0x489 JUMPI PUSH2 0x488 PUSH2 0x2B8 JUMP JUMPDEST JUMPDEST PUSH2 0x495 DUP5 DUP3 DUP6 ADD PUSH2 0x427 JUMP JUMPDEST SWAP2 POP POP SWAP3 SWAP2 POP POP JUMP JUMPDEST PUSH1 0x0 PUSH32 0xFF00000000000000000000000000000000000000000000000000000000000000 DUP3 AND SWAP1 POP SWAP2 SWAP1 POP JUMP JUMPDEST PUSH2 0x4D3 DUP2 PUSH2 0x49E JUMP JUMPDEST DUP3 MSTORE POP POP JUMP JUMPDEST PUSH1 0x0 PUSH1 0x20 DUP3 ADD SWAP1 POP PUSH2 0x4EE PUSH1 0x0 DUP4 ADD DUP5 PUSH2 0x4CA JUMP JUMPDEST SWAP3 SWAP2 POP POP JUMP JUMPDEST PUSH2 0x4FD DUP2 PUSH2 0x2BD JUMP JUMPDEST DUP3 MSTORE POP POP JUMP JUMPDEST PUSH1 0x0 PUSH1 0x20 DUP3 ADD SWAP1 POP PUSH2 0x518 PUSH1 0x0 DUP4 ADD DUP5 PUSH2 0x4F4 JUMP JUMPDEST SWAP3 SWAP2 POP POP JUMP JUMPDEST PUSH2 0x527 DUP2 PUSH2 0x49E JUMP JUMPDEST DUP2 EQ PUSH2 0x532 JUMPI PUSH1 0x0 DUP1 REVERT JUMPDEST POP JUMP JUMPDEST PUSH1 0x0 DUP2 CALLDATALOAD SWAP1 POP PUSH2 0x544 DUP2 PUSH2 0x51E JUMP JUMPDEST SWAP3 SWAP2 POP POP JUMP JUMPDEST PUSH1 0x0 PUSH1 0x20 DUP3 DUP5 SUB SLT ISZERO PUSH2 0x560 JUMPI PUSH2 0x55F PUSH2 0x2B3 JUMP JUMPDEST JUMPDEST PUSH1 0x0 PUSH2 0x56E DUP5 DUP3 DUP6 ADD PUSH2 0x535 JUMP JUMPDEST SWAP2 POP POP SWAP3 SWAP2 POP POP JUMP JUMPDEST PUSH32 0x4E487B7100000000000000000000000000000000000000000000000000000000 PUSH1 0x0 MSTORE PUSH1 0x22 PUSH1 0x4 MSTORE PUSH1 0x24 PUSH1 0x0 REVERT JUMPDEST PUSH1 0x0 PUSH1 0x2 DUP3 DIV SWAP1 POP PUSH1 0x1 DUP3 AND DUP1 PUSH2 0x5BE JUMPI PUSH1 0x7F DUP3 AND SWAP2 POP JUMPDEST PUSH1 0x20 DUP3 LT DUP2 SUB PUSH2 0x5D1 JUMPI PUSH2 0x5D0 PUSH2 0x577 JUMP JUMPDEST JUMPDEST POP SWAP2 SWAP1 POP JUMP JUMPDEST PUSH1 0x0 DUP2 SWAP1 POP DUP2 PUSH1 0x0 MSTORE PUSH1 0x20 PUSH1 0x0 KECCAK256 SWAP1 POP SWAP2 SWAP1 POP JUMP JUMPDEST PUSH1 0x0 PUSH1 0x20 PUSH1 0x1F DUP4 ADD DIV SWAP1 POP SWAP2 SWAP1 POP JUMP JUMPDEST PUSH1 0x0 DUP3 DUP3 SHL SWAP1 POP SWAP3 SWAP2 POP POP JUMP JUMPDEST PUSH1 0x0 PUSH1 0x8 DUP4 MUL PUSH2 0x639 PUSH32 0xFFFFFFFFFFFFFFFFFFFFFFFFFFFFFFFFFFFFFFFFFFFFFFFFFFFFFFFFFFFFFFFF DUP3 PUSH2 0x5FC JUMP JUMPDEST PUSH2 0x643 DUP7 DUP4 PUSH2 0x5FC JUMP JUMPDEST SWAP6 POP DUP1 NOT DUP5 AND SWAP4 POP DUP1 DUP7 AND DUP5 OR SWAP3 POP POP POP SWAP4 SWAP3 POP POP POP JUMP JUMPDEST PUSH1 0x0 DUP2 SWAP1 POP SWAP2 SWAP1 POP JUMP JUMPDEST PUSH1 0x0 DUP2 SWAP1 POP SWAP2 SWAP1 POP JUMP JUMPDEST PUSH1 0x0 PUSH2 0x68A PUSH2 0x685 PUSH2 0x680 DUP5 PUSH2 0x65B JUMP JUMPDEST PUSH2 0x665 JUMP JUMPDEST PUSH2 0x65B JUMP JUMPDEST SWAP1 POP SWAP2 SWAP1 POP JUMP JUMPDEST PUSH1 0x0 DUP2 SWAP1 POP SWAP2 SWAP1 POP JUMP JUMPDEST PUSH2 0x6A4 DUP4 PUSH2 0x66F JUMP JUMPDEST PUSH2 0x6B8 PUSH2 0x6B0 DUP3 PUSH2 0x691 JUMP JUMPDEST DUP5 DUP5 SLOAD PUSH2 0x609 JUMP JUMPDEST DUP3 SSTORE POP POP POP POP JUMP JUMPDEST PUSH1 0x0 SWAP1 JUMP JUMPDEST PUSH2 0x6CD PUSH2 0x6C0 JUMP JUMPDEST PUSH2 0x6D8 DUP2 DUP5 DUP5 PUSH2 0x69B JUMP JUMPDEST POP POP POP JUMP JUMPDEST JUMPDEST DUP2 DUP2 LT ISZERO PUSH2 0x6FC JUMPI PUSH2 0x6F1 PUSH1 0x0 DUP3 PUSH2 0x6C5 JUMP JUMPDEST PUSH1 0x1 DUP2 ADD SWAP1 POP PUSH2 0x6DE JUMP JUMPDEST POP POP JUMP JUMPDEST PUSH1 0x1F DUP3 GT ISZERO PUSH2 0x741 JUMPI PUSH2 0x712 DUP2 PUSH2 0x5D7 JUMP JUMPDEST PUSH2 0x71B DUP5 PUSH2 0x5EC JUMP JUMPDEST DUP2 ADD PUSH1 0x20 DUP6 LT ISZERO PUSH2 0x72A JUMPI DUP2 SWAP1 POP JUMPDEST PUSH2 0x73E PUSH2 0x736 DUP6 PUSH2 0x5EC JUMP JUMPDEST DUP4 ADD DUP3 PUSH2 0x6DD JUMP JUMPDEST POP POP JUMPDEST POP POP POP JUMP JUMPDEST PUSH1 0x0 DUP3 DUP3 SHR SWAP1 POP SWAP3 SWAP2 POP POP JUMP JUMPDEST PUSH1 0x0 PUSH2 0x764 PUSH1 0x0 NOT DUP5 PUSH1 0x8 MUL PUSH2 0x746 JUMP JUMPDEST NOT DUP1 DUP4 AND SWAP2 POP POP SWAP3 SWAP2 POP POP JUMP JUMPDEST PUSH1 0x0 PUSH2 0x77D DUP4 DUP4 PUSH2 0x753 JUMP JUMPDEST SWAP2 POP DUP3 PUSH1 0x2 MUL DUP3 OR SWAP1 POP SWAP3 SWAP2 POP POP JUMP JUMPDEST PUSH2 0x796 DUP3 PUSH2 0x1F7 JUMP JUMPDEST PUSH8 0xFFFFFFFFFFFFFFFF DUP2 GT ISZERO PUSH2 0x7AF JUMPI PUSH2 0x7AE PUSH2 0x32A JUMP JUMPDEST JUMPDEST PUSH2 0x7B9 DUP3 SLOAD PUSH2 0x5A6 JUMP JUMPDEST PUSH2 0x7C4 DUP3 DUP3 DUP6 PUSH2 0x700 JUMP JUMPDEST PUSH1 0x0 PUSH1 0x20 SWAP1 POP PUSH1 0x1F DUP4 GT PUSH1 0x1 DUP2 EQ PUSH2 0x7F7 JUMPI PUSH1 0x0 DUP5 ISZERO PUSH2 0x7E5 JUMPI DUP3 DUP8 ADD MLOAD SWAP1 POP JUMPDEST PUSH2 0x7EF DUP6 DUP3 PUSH2 0x771 JUMP JUMPDEST DUP7 SSTORE POP PUSH2 0x857 JUMP JUMPDEST PUSH1 0x1F NOT DUP5 AND PUSH2 0x805 DUP7 PUSH2 0x5D7 JUMP JUMPDEST PUSH1 0x0 JUMPDEST DUP3 DUP2 LT ISZERO PUSH2 0x82D JUMPI DUP5 DUP10 ADD MLOAD DUP3 SSTORE PUSH1 0x1 DUP3 ADD SWAP2 POP PUSH1 0x20 DUP6 ADD SWAP5 POP PUSH1 0x20 DUP2 ADD SWAP1 POP PUSH2 0x808 JUMP JUMPDEST DUP7 DUP4 LT ISZERO PUSH2 0x84A JUMPI DUP5 DUP10 ADD MLOAD PUSH2 0x846 PUSH1 0x1F DUP10 AND DUP3 PUSH2 0x753 JUMP JUMPDEST DUP4 SSTORE POP JUMPDEST PUSH1 0x1 PUSH1 0x2 DUP9 MUL ADD DUP9 SSTORE POP POP POP JUMPDEST POP POP POP POP POP POP JUMP INVALID LOG2 PUSH5 0x6970667358 0x22 SLT KECCAK256 0xAD STOP 0xDE 0xA7 SMOD CALLDATASIZE 0xC4 0xE BALANCE PUSH5 0x1ADE114B8C 0x4A 0xCF 0xE3 CALLER CODECOPY ADDRESS SWAP15 0xDD 0x21 RETURNDATASIZE MSIZE CREATE2 DUP14 0xC5 0xD8 LOG1 SAR PUSH5 0x736F6C6343 STOP ADDMOD SGT STOP CALLER "
				},
				"gasEstimates": {
					"creation": {
						"codeDepositCost": "439400",
						"executionCost": "474",
						"totalCost": "439874"
					},
					"external": {
						"b()": "infinite",
						"b1()": "2515",
						"b32()": "2495",
						"setBytes(bytes)": "infinite",
						"setBytes1(bytes1)": "24767",
						"setBytes32(bytes32)": "22520"
					}
				},
				"methodIdentifiers": {
					"b()": "4df7e3d0",
					"b1()": "ee495002",
					"b32()": "f8aab238",
					"setBytes(bytes)": "da359dc8",
					"setBytes1(bytes1)": "fba1a1c3",
					"setBytes32(bytes32)": "c2b12a73"
				}
			},
			"storageLayout": {
				"storage": [
					{
						"astId": 3,
						"contract": "appworks_blockchain_batch2/contracts/wk4/Bytes.sol:Bytes",
						"label": "b",
						"offset": 0,
						"slot": "0",
						"type": "t_bytes_storage"
					},
					{
						"astId": 5,
						"contract": "appworks_blockchain_batch2/contracts/wk4/Bytes.sol:Bytes",
						"label": "b32",
						"offset": 0,
						"slot": "1",
						"type": "t_bytes32"
					},
					{
						"astId": 7,
						"contract": "appworks_blockchain_batch2/contracts/wk4/Bytes.sol:Bytes",
						"label": "b1",
						"offset": 0,
						"slot": "2",
						"type": "t_bytes1"
					}
				],
				"types": {
					"t_bytes1": {
						"encoding": "inplace",
						"label": "bytes1",
						"numberOfBytes": "1"
					},
					"t_bytes32": {
						"encoding": "inplace",
						"label": "bytes32",
						"numberOfBytes": "32"
					},
					"t_bytes_storage": {
						"encoding": "bytes",
						"label": "bytes",
						"numberOfBytes": "32"
					}
				}
			},
			"userdoc": {
				"kind": "user",
				"methods": {},
				"version": 1
			}
		}
	}
}