{
	"appworks_blockchain_batch2/contracts/wk5/Visibility.sol": {
		"VisibilityChild": {
			"abi": [
				{
					"inputs": [],
					"name": "examples",
					"outputs": [],
					"stateMutability": "view",
					"type": "function"
				},
				{
					"inputs": [],
					"name": "examples2",
					"outputs": [],
					"stateMutability": "view",
					"type": "function"
				},
				{
					"inputs": [],
					"name": "externalFunc",
					"outputs": [
						{
							"internalType": "uint256",
							"name": "",
							"type": "uint256"
						}
					],
					"stateMutability": "pure",
					"type": "function"
				},
				{
					"inputs": [],
					"name": "publicFunc",
					"outputs": [
						{
							"internalType": "uint256",
							"name": "",
							"type": "uint256"
						}
					],
					"stateMutability": "pure",
					"type": "function"
				},
				{
					"inputs": [],
					"name": "z",
					"outputs": [
						{
							"internalType": "uint256",
							"name": "",
							"type": "uint256"
						}
					],
					"stateMutability": "view",
					"type": "function"
				}
			],
			"devdoc": {
				"kind": "dev",
				"methods": {},
				"version": 1
			},
			"evm": {
				"assembly": "    /* \"appworks_blockchain_batch2/contracts/wk5/Visibility.sol\":1304:1647  contract VisibilityChild is VisibilityBase {... */\n  mstore(0x40, 0x80)\n    /* \"appworks_blockchain_batch2/contracts/wk5/Visibility.sol\":582:583  0 */\n  0x00\n    /* \"appworks_blockchain_batch2/contracts/wk5/Visibility.sol\":564:583  uint private  x = 0 */\n  dup1\n  sstore\n    /* \"appworks_blockchain_batch2/contracts/wk5/Visibility.sol\":607:608  1 */\n  0x01\n    /* \"appworks_blockchain_batch2/contracts/wk5/Visibility.sol\":589:608  uint internal y = 1 */\n  dup1\n  sstore\n    /* \"appworks_blockchain_batch2/contracts/wk5/Visibility.sol\":632:633  2 */\n  0x02\n    /* \"appworks_blockchain_batch2/contracts/wk5/Visibility.sol\":614:633  uint public   z = 2 */\n  dup1\n  sstore\n    /* \"appworks_blockchain_batch2/contracts/wk5/Visibility.sol\":1304:1647  contract VisibilityChild is VisibilityBase {... */\n  callvalue\n  dup1\n  iszero\n  tag_1\n  jumpi\n  0x00\n  dup1\n  revert\ntag_1:\n  pop\n  dataSize(sub_0)\n  dup1\n  dataOffset(sub_0)\n  0x00\n  codecopy\n  0x00\n  return\nstop\n\nsub_0: assembly {\n        /* \"appworks_blockchain_batch2/contracts/wk5/Visibility.sol\":1304:1647  contract VisibilityChild is VisibilityBase {... */\n      mstore(0x40, 0x80)\n      callvalue\n      dup1\n      iszero\n      tag_1\n      jumpi\n      0x00\n      dup1\n      revert\n    tag_1:\n      pop\n      jumpi(tag_2, lt(calldatasize, 0x04))\n      shr(0xe0, calldataload(0x00))\n      dup1\n      0x335d00c2\n      eq\n      tag_3\n      jumpi\n      dup1\n      0x42b148aa\n      eq\n      tag_4\n      jumpi\n      dup1\n      0x4b73383f\n      eq\n      tag_5\n      jumpi\n      dup1\n      0xc3be8e2c\n      eq\n      tag_6\n      jumpi\n      dup1\n      0xc5d7802e\n      eq\n      tag_7\n      jumpi\n    tag_2:\n      0x00\n      dup1\n      revert\n        /* \"appworks_blockchain_batch2/contracts/wk5/Visibility.sol\":972:1300  function examples() external view {... */\n    tag_3:\n      tag_8\n      tag_9\n      jump\t// in\n    tag_8:\n      stop\n        /* \"appworks_blockchain_batch2/contracts/wk5/Visibility.sol\":887:966  function externalFunc() external pure returns(uint) {... */\n    tag_4:\n      tag_10\n      tag_11\n      jump\t// in\n    tag_10:\n      mload(0x40)\n      tag_12\n      swap2\n      swap1\n      tag_13\n      jump\t// in\n    tag_12:\n      mload(0x40)\n      dup1\n      swap2\n      sub\n      swap1\n      return\n        /* \"appworks_blockchain_batch2/contracts/wk5/Visibility.sol\":806:881  function publicFunc() public pure returns(uint) {... */\n    tag_5:\n      tag_14\n      tag_15\n      jump\t// in\n    tag_14:\n      mload(0x40)\n      tag_16\n      swap2\n      swap1\n      tag_13\n      jump\t// in\n    tag_16:\n      mload(0x40)\n      dup1\n      swap2\n      sub\n      swap1\n      return\n        /* \"appworks_blockchain_batch2/contracts/wk5/Visibility.sol\":1353:1645  function examples2() external view {... */\n    tag_6:\n      tag_17\n      tag_18\n      jump\t// in\n    tag_17:\n      stop\n        /* \"appworks_blockchain_batch2/contracts/wk5/Visibility.sol\":614:633  uint public   z = 2 */\n    tag_7:\n      tag_19\n      tag_20\n      jump\t// in\n    tag_19:\n      mload(0x40)\n      tag_21\n      swap2\n      swap1\n      tag_13\n      jump\t// in\n    tag_21:\n      mload(0x40)\n      dup1\n      swap2\n      sub\n      swap1\n      return\n        /* \"appworks_blockchain_batch2/contracts/wk5/Visibility.sol\":972:1300  function examples() external view {... */\n    tag_9:\n        /* \"appworks_blockchain_batch2/contracts/wk5/Visibility.sol\":1024:1025  z */\n      sload(0x02)\n        /* \"appworks_blockchain_batch2/contracts/wk5/Visibility.sol\":1020:1021  y */\n      sload(0x01)\n        /* \"appworks_blockchain_batch2/contracts/wk5/Visibility.sol\":1016:1017  x */\n      sload(0x00)\n        /* \"appworks_blockchain_batch2/contracts/wk5/Visibility.sol\":1016:1021  x + y */\n      tag_23\n      swap2\n      swap1\n      tag_24\n      jump\t// in\n    tag_23:\n        /* \"appworks_blockchain_batch2/contracts/wk5/Visibility.sol\":1016:1025  x + y + z */\n      tag_25\n      swap2\n      swap1\n      tag_24\n      jump\t// in\n    tag_25:\n      pop\n        /* \"appworks_blockchain_batch2/contracts/wk5/Visibility.sol\":1035:1048  privateFunc() */\n      tag_26\n        /* \"appworks_blockchain_batch2/contracts/wk5/Visibility.sol\":1035:1046  privateFunc */\n      tag_27\n        /* \"appworks_blockchain_batch2/contracts/wk5/Visibility.sol\":1035:1048  privateFunc() */\n      jump\t// in\n    tag_26:\n      pop\n        /* \"appworks_blockchain_batch2/contracts/wk5/Visibility.sol\":1058:1072  internalFunc() */\n      tag_28\n        /* \"appworks_blockchain_batch2/contracts/wk5/Visibility.sol\":1058:1070  internalFunc */\n      tag_29\n        /* \"appworks_blockchain_batch2/contracts/wk5/Visibility.sol\":1058:1072  internalFunc() */\n      jump\t// in\n    tag_28:\n      pop\n        /* \"appworks_blockchain_batch2/contracts/wk5/Visibility.sol\":1082:1094  publicFunc() */\n      tag_30\n        /* \"appworks_blockchain_batch2/contracts/wk5/Visibility.sol\":1082:1092  publicFunc */\n      tag_15\n        /* \"appworks_blockchain_batch2/contracts/wk5/Visibility.sol\":1082:1094  publicFunc() */\n      jump\t// in\n    tag_30:\n      pop\n        /* \"appworks_blockchain_batch2/contracts/wk5/Visibility.sol\":972:1300  function examples() external view {... */\n      jump\t// out\n        /* \"appworks_blockchain_batch2/contracts/wk5/Visibility.sol\":887:966  function externalFunc() external pure returns(uint) {... */\n    tag_11:\n        /* \"appworks_blockchain_batch2/contracts/wk5/Visibility.sol\":933:937  uint */\n      0x00\n        /* \"appworks_blockchain_batch2/contracts/wk5/Visibility.sol\":956:959  300 */\n      0x012c\n        /* \"appworks_blockchain_batch2/contracts/wk5/Visibility.sol\":949:959  return 300 */\n      swap1\n      pop\n        /* \"appworks_blockchain_batch2/contracts/wk5/Visibility.sol\":887:966  function externalFunc() external pure returns(uint) {... */\n      swap1\n      jump\t// out\n        /* \"appworks_blockchain_batch2/contracts/wk5/Visibility.sol\":806:881  function publicFunc() public pure returns(uint) {... */\n    tag_15:\n        /* \"appworks_blockchain_batch2/contracts/wk5/Visibility.sol\":848:852  uint */\n      0x00\n        /* \"appworks_blockchain_batch2/contracts/wk5/Visibility.sol\":871:874  200 */\n      0xc8\n        /* \"appworks_blockchain_batch2/contracts/wk5/Visibility.sol\":864:874  return 200 */\n      swap1\n      pop\n        /* \"appworks_blockchain_batch2/contracts/wk5/Visibility.sol\":806:881  function publicFunc() public pure returns(uint) {... */\n      swap1\n      jump\t// out\n        /* \"appworks_blockchain_batch2/contracts/wk5/Visibility.sol\":1353:1645  function examples2() external view {... */\n    tag_18:\n        /* \"appworks_blockchain_batch2/contracts/wk5/Visibility.sol\":1402:1403  z */\n      sload(0x02)\n        /* \"appworks_blockchain_batch2/contracts/wk5/Visibility.sol\":1398:1399  y */\n      sload(0x01)\n        /* \"appworks_blockchain_batch2/contracts/wk5/Visibility.sol\":1398:1403  y + z */\n      tag_34\n      swap2\n      swap1\n      tag_24\n      jump\t// in\n    tag_34:\n      pop\n        /* \"appworks_blockchain_batch2/contracts/wk5/Visibility.sol\":1544:1558  internalFunc() */\n      tag_35\n        /* \"appworks_blockchain_batch2/contracts/wk5/Visibility.sol\":1544:1556  internalFunc */\n      tag_29\n        /* \"appworks_blockchain_batch2/contracts/wk5/Visibility.sol\":1544:1558  internalFunc() */\n      jump\t// in\n    tag_35:\n      pop\n        /* \"appworks_blockchain_batch2/contracts/wk5/Visibility.sol\":1568:1580  publicFunc() */\n      tag_36\n        /* \"appworks_blockchain_batch2/contracts/wk5/Visibility.sol\":1568:1578  publicFunc */\n      tag_15\n        /* \"appworks_blockchain_batch2/contracts/wk5/Visibility.sol\":1568:1580  publicFunc() */\n      jump\t// in\n    tag_36:\n      pop\n        /* \"appworks_blockchain_batch2/contracts/wk5/Visibility.sol\":1353:1645  function examples2() external view {... */\n      jump\t// out\n        /* \"appworks_blockchain_batch2/contracts/wk5/Visibility.sol\":614:633  uint public   z = 2 */\n    tag_20:\n      sload(0x02)\n      dup2\n      jump\t// out\n        /* \"appworks_blockchain_batch2/contracts/wk5/Visibility.sol\":640:715  function privateFunc() private pure returns(uint) {... */\n    tag_27:\n        /* \"appworks_blockchain_batch2/contracts/wk5/Visibility.sol\":684:688  uint */\n      0x00\n        /* \"appworks_blockchain_batch2/contracts/wk5/Visibility.sol\":640:715  function privateFunc() private pure returns(uint) {... */\n      swap1\n      jump\t// out\n        /* \"appworks_blockchain_batch2/contracts/wk5/Visibility.sol\":721:800  function internalFunc() internal pure returns(uint) {... */\n    tag_29:\n        /* \"appworks_blockchain_batch2/contracts/wk5/Visibility.sol\":767:771  uint */\n      0x00\n        /* \"appworks_blockchain_batch2/contracts/wk5/Visibility.sol\":790:793  100 */\n      0x64\n        /* \"appworks_blockchain_batch2/contracts/wk5/Visibility.sol\":783:793  return 100 */\n      swap1\n      pop\n        /* \"appworks_blockchain_batch2/contracts/wk5/Visibility.sol\":721:800  function internalFunc() internal pure returns(uint) {... */\n      swap1\n      jump\t// out\n        /* \"#utility.yul\":7:84   */\n    tag_39:\n        /* \"#utility.yul\":44:51   */\n      0x00\n        /* \"#utility.yul\":73:78   */\n      dup2\n        /* \"#utility.yul\":62:78   */\n      swap1\n      pop\n        /* \"#utility.yul\":7:84   */\n      swap2\n      swap1\n      pop\n      jump\t// out\n        /* \"#utility.yul\":90:208   */\n    tag_40:\n        /* \"#utility.yul\":177:201   */\n      tag_45\n        /* \"#utility.yul\":195:200   */\n      dup2\n        /* \"#utility.yul\":177:201   */\n      tag_39\n      jump\t// in\n    tag_45:\n        /* \"#utility.yul\":172:175   */\n      dup3\n        /* \"#utility.yul\":165:202   */\n      mstore\n        /* \"#utility.yul\":90:208   */\n      pop\n      pop\n      jump\t// out\n        /* \"#utility.yul\":214:436   */\n    tag_13:\n        /* \"#utility.yul\":307:311   */\n      0x00\n        /* \"#utility.yul\":345:347   */\n      0x20\n        /* \"#utility.yul\":334:343   */\n      dup3\n        /* \"#utility.yul\":330:348   */\n      add\n        /* \"#utility.yul\":322:348   */\n      swap1\n      pop\n        /* \"#utility.yul\":358:429   */\n      tag_47\n        /* \"#utility.yul\":426:427   */\n      0x00\n        /* \"#utility.yul\":415:424   */\n      dup4\n        /* \"#utility.yul\":411:428   */\n      add\n        /* \"#utility.yul\":402:408   */\n      dup5\n        /* \"#utility.yul\":358:429   */\n      tag_40\n      jump\t// in\n    tag_47:\n        /* \"#utility.yul\":214:436   */\n      swap3\n      swap2\n      pop\n      pop\n      jump\t// out\n        /* \"#utility.yul\":442:622   */\n    tag_41:\n        /* \"#utility.yul\":490:567   */\n      0x4e487b7100000000000000000000000000000000000000000000000000000000\n        /* \"#utility.yul\":487:488   */\n      0x00\n        /* \"#utility.yul\":480:568   */\n      mstore\n        /* \"#utility.yul\":587:591   */\n      0x11\n        /* \"#utility.yul\":584:585   */\n      0x04\n        /* \"#utility.yul\":577:592   */\n      mstore\n        /* \"#utility.yul\":611:615   */\n      0x24\n        /* \"#utility.yul\":608:609   */\n      0x00\n        /* \"#utility.yul\":601:616   */\n      revert\n        /* \"#utility.yul\":628:819   */\n    tag_24:\n        /* \"#utility.yul\":668:671   */\n      0x00\n        /* \"#utility.yul\":687:707   */\n      tag_50\n        /* \"#utility.yul\":705:706   */\n      dup3\n        /* \"#utility.yul\":687:707   */\n      tag_39\n      jump\t// in\n    tag_50:\n        /* \"#utility.yul\":682:707   */\n      swap2\n      pop\n        /* \"#utility.yul\":721:741   */\n      tag_51\n        /* \"#utility.yul\":739:740   */\n      dup4\n        /* \"#utility.yul\":721:741   */\n      tag_39\n      jump\t// in\n    tag_51:\n        /* \"#utility.yul\":716:741   */\n      swap3\n      pop\n        /* \"#utility.yul\":764:765   */\n      dup3\n        /* \"#utility.yul\":761:762   */\n      dup3\n        /* \"#utility.yul\":757:766   */\n      add\n        /* \"#utility.yul\":750:766   */\n      swap1\n      pop\n        /* \"#utility.yul\":785:788   */\n      dup1\n        /* \"#utility.yul\":782:783   */\n      dup3\n        /* \"#utility.yul\":779:789   */\n      gt\n        /* \"#utility.yul\":776:812   */\n      iszero\n      tag_52\n      jumpi\n        /* \"#utility.yul\":792:810   */\n      tag_53\n      tag_41\n      jump\t// in\n    tag_53:\n        /* \"#utility.yul\":776:812   */\n    tag_52:\n        /* \"#utility.yul\":628:819   */\n      swap3\n      swap2\n      pop\n      pop\n      jump\t// out\n\n    auxdata: 0xa2646970667358221220d43109593e85f3d675dc2b96b3eeea82d4d7961acee96e3546336d33661fe59564736f6c63430008130033\n}\n",
				"bytecode": {
					"linkReferences": {},
					"object": "608060405260008055600180556002805534801561001c57600080fd5b5061021e8061002c6000396000f3fe608060405234801561001057600080fd5b50600436106100575760003560e01c8063335d00c21461005c57806342b148aa146100665780634b73383f14610084578063c3be8e2c146100a2578063c5d7802e146100ac575b600080fd5b6100646100ca565b005b61006e610105565b60405161007b919061016a565b60405180910390f35b61008c61010f565b604051610099919061016a565b60405180910390f35b6100aa610118565b005b6100b461013d565b6040516100c1919061016a565b60405180910390f35b6002546001546000546100dd91906101b4565b6100e791906101b4565b506100f0610143565b506100f9610148565b5061010261010f565b50565b600061012c905090565b600060c8905090565b60025460015461012891906101b4565b50610131610148565b5061013a61010f565b50565b60025481565b600090565b60006064905090565b6000819050919050565b61016481610151565b82525050565b600060208201905061017f600083018461015b565b92915050565b7f4e487b7100000000000000000000000000000000000000000000000000000000600052601160045260246000fd5b60006101bf82610151565b91506101ca83610151565b92508282019050808211156101e2576101e1610185565b5b9291505056fea2646970667358221220d43109593e85f3d675dc2b96b3eeea82d4d7961acee96e3546336d33661fe59564736f6c63430008130033",
					"opcodes": "PUSH1 0x80 PUSH1 0x40 MSTORE PUSH1 0x0 DUP1 SSTORE PUSH1 0x1 DUP1 SSTORE PUSH1 0x2 DUP1 SSTORE CALLVALUE DUP1 ISZERO PUSH2 0x1C JUMPI PUSH1 0x0 DUP1 REVERT JUMPDEST POP PUSH2 0x21E DUP1 PUSH2 0x2C PUSH1 0x0 CODECOPY PUSH1 0x0 RETURN INVALID PUSH1 0x80 PUSH1 0x40 MSTORE CALLVALUE DUP1 ISZERO PUSH2 0x10 JUMPI PUSH1 0x0 DUP1 REVERT JUMPDEST POP PUSH1 0x4 CALLDATASIZE LT PUSH2 0x57 JUMPI PUSH1 0x0 CALLDATALOAD PUSH1 0xE0 SHR DUP1 PUSH4 0x335D00C2 EQ PUSH2 0x5C JUMPI DUP1 PUSH4 0x42B148AA EQ PUSH2 0x66 JUMPI DUP1 PUSH4 0x4B73383F EQ PUSH2 0x84 JUMPI DUP1 PUSH4 0xC3BE8E2C EQ PUSH2 0xA2 JUMPI DUP1 PUSH4 0xC5D7802E EQ PUSH2 0xAC JUMPI JUMPDEST PUSH1 0x0 DUP1 REVERT JUMPDEST PUSH2 0x64 PUSH2 0xCA JUMP JUMPDEST STOP JUMPDEST PUSH2 0x6E PUSH2 0x105 JUMP JUMPDEST PUSH1 0x40 MLOAD PUSH2 0x7B SWAP2 SWAP1 PUSH2 0x16A JUMP JUMPDEST PUSH1 0x40 MLOAD DUP1 SWAP2 SUB SWAP1 RETURN JUMPDEST PUSH2 0x8C PUSH2 0x10F JUMP JUMPDEST PUSH1 0x40 MLOAD PUSH2 0x99 SWAP2 SWAP1 PUSH2 0x16A JUMP JUMPDEST PUSH1 0x40 MLOAD DUP1 SWAP2 SUB SWAP1 RETURN JUMPDEST PUSH2 0xAA PUSH2 0x118 JUMP JUMPDEST STOP JUMPDEST PUSH2 0xB4 PUSH2 0x13D JUMP JUMPDEST PUSH1 0x40 MLOAD PUSH2 0xC1 SWAP2 SWAP1 PUSH2 0x16A JUMP JUMPDEST PUSH1 0x40 MLOAD DUP1 SWAP2 SUB SWAP1 RETURN JUMPDEST PUSH1 0x2 SLOAD PUSH1 0x1 SLOAD PUSH1 0x0 SLOAD PUSH2 0xDD SWAP2 SWAP1 PUSH2 0x1B4 JUMP JUMPDEST PUSH2 0xE7 SWAP2 SWAP1 PUSH2 0x1B4 JUMP JUMPDEST POP PUSH2 0xF0 PUSH2 0x143 JUMP JUMPDEST POP PUSH2 0xF9 PUSH2 0x148 JUMP JUMPDEST POP PUSH2 0x102 PUSH2 0x10F JUMP JUMPDEST POP JUMP JUMPDEST PUSH1 0x0 PUSH2 0x12C SWAP1 POP SWAP1 JUMP JUMPDEST PUSH1 0x0 PUSH1 0xC8 SWAP1 POP SWAP1 JUMP JUMPDEST PUSH1 0x2 SLOAD PUSH1 0x1 SLOAD PUSH2 0x128 SWAP2 SWAP1 PUSH2 0x1B4 JUMP JUMPDEST POP PUSH2 0x131 PUSH2 0x148 JUMP JUMPDEST POP PUSH2 0x13A PUSH2 0x10F JUMP JUMPDEST POP JUMP JUMPDEST PUSH1 0x2 SLOAD DUP2 JUMP JUMPDEST PUSH1 0x0 SWAP1 JUMP JUMPDEST PUSH1 0x0 PUSH1 0x64 SWAP1 POP SWAP1 JUMP JUMPDEST PUSH1 0x0 DUP2 SWAP1 POP SWAP2 SWAP1 POP JUMP JUMPDEST PUSH2 0x164 DUP2 PUSH2 0x151 JUMP JUMPDEST DUP3 MSTORE POP POP JUMP JUMPDEST PUSH1 0x0 PUSH1 0x20 DUP3 ADD SWAP1 POP PUSH2 0x17F PUSH1 0x0 DUP4 ADD DUP5 PUSH2 0x15B JUMP JUMPDEST SWAP3 SWAP2 POP POP JUMP JUMPDEST PUSH32 0x4E487B7100000000000000000000000000000000000000000000000000000000 PUSH1 0x0 MSTORE PUSH1 0x11 PUSH1 0x4 MSTORE PUSH1 0x24 PUSH1 0x0 REVERT JUMPDEST PUSH1 0x0 PUSH2 0x1BF DUP3 PUSH2 0x151 JUMP JUMPDEST SWAP2 POP PUSH2 0x1CA DUP4 PUSH2 0x151 JUMP JUMPDEST SWAP3 POP DUP3 DUP3 ADD SWAP1 POP DUP1 DUP3 GT ISZERO PUSH2 0x1E2 JUMPI PUSH2 0x1E1 PUSH2 0x185 JUMP JUMPDEST JUMPDEST SWAP3 SWAP2 POP POP JUMP INVALID LOG2 PUSH5 0x6970667358 0x22 SLT KECCAK256 0xD4 BALANCE MULMOD MSIZE RETURNDATACOPY DUP6 RETURN 0xD6 PUSH22 0xDC2B96B3EEEA82D4D7961ACEE96E3546336D33661FE5 SWAP6 PUSH5 0x736F6C6343 STOP ADDMOD SGT STOP CALLER "
				},
				"gasEstimates": {
					"creation": {
						"codeDepositCost": "108400",
						"executionCost": "49371",
						"totalCost": "157771"
					},
					"external": {
						"examples()": "infinite",
						"examples2()": "infinite",
						"externalFunc()": "337",
						"publicFunc()": "359",
						"z()": "2495"
					}
				},
				"methodIdentifiers": {
					"examples()": "335d00c2",
					"examples2()": "c3be8e2c",
					"externalFunc()": "42b148aa",
					"publicFunc()": "4b73383f",
					"z()": "c5d7802e"
				}
			},
			"storageLayout": {
				"storage": [
					{
						"astId": 4,
						"contract": "appworks_blockchain_batch2/contracts/wk5/Visibility.sol:VisibilityChild",
						"label": "x",
						"offset": 0,
						"slot": "0",
						"type": "t_uint256"
					},
					{
						"astId": 7,
						"contract": "appworks_blockchain_batch2/contracts/wk5/Visibility.sol:VisibilityChild",
						"label": "y",
						"offset": 0,
						"slot": "1",
						"type": "t_uint256"
					},
					{
						"astId": 10,
						"contract": "appworks_blockchain_batch2/contracts/wk5/Visibility.sol:VisibilityChild",
						"label": "z",
						"offset": 0,
						"slot": "2",
						"type": "t_uint256"
					}
				],
				"types": {
					"t_uint256": {
						"encoding": "inplace",
						"label": "uint256",
						"numberOfBytes": "32"
					}
				}
			},
			"userdoc": {
				"kind": "user",
				"methods": {},
				"version": 1
			}
		}
	}
}