{
	"data": {
		"bytecode": {
			"linkReferences": {},
			"object": "60c06040526010600155600154600a6200001a91906200028b565b6002553480156200002a57600080fd5b50738103b0a8a00be2ddc778e6e7eaa21791cd36462573779877a7b0d9e8603169ddbd7836e478b46247898173ffffffffffffffffffffffffffffffffffffffff1660a08173ffffffffffffffffffffffffffffffffffffffff16815250508073ffffffffffffffffffffffffffffffffffffffff1660808173ffffffffffffffffffffffffffffffffffffffff168152505050507f474e34a077df58807dbe9c96d3c009b23b3c6d0cce433e59bbf5b34f823bc56c60001b6003819055506703782dace9d90000600481905550620002dc565b7f4e487b7100000000000000000000000000000000000000000000000000000000600052601160045260246000fd5b60008160011c9050919050565b6000808291508390505b60018511156200018c57808604811115620001645762000163620000fe565b5b6001851615620001745780820291505b808102905062000184856200012d565b945062000144565b94509492505050565b600082620001a757600190506200027a565b81620001b757600090506200027a565b8160018114620001d05760028114620001db5762000211565b60019150506200027a565b60ff841115620001f057620001ef620000fe565b5b8360020a9150848211156200020a5762000209620000fe565b5b506200027a565b5060208310610133831016604e8410600b84101617156200024b5782820a905083811115620002455762000244620000fe565b5b6200027a565b6200025a84848460016200013a565b92509050818404811115620002745762000273620000fe565b5b81810290505b9392505050565b6000819050919050565b6000620002988262000281565b9150620002a58362000281565b9250620002d47fffffffffffffffffffffffffffffffffffffffffffffffffffffffffffffffff848462000195565b905092915050565b60805160a0516109e162000309600039600081816101f601526102f6015260006102ba01526109e16000f3fe608060405234801561001057600080fd5b50600436106100625760003560e01c80632052465e1461006757806342619f661461009857806361728f39146100b657806394985ddd146100d4578063dbdff2c1146100f0578063ddca3f431461010e575b600080fd5b610081600480360381019061007c91906104b0565b61012c565b60405161008f92919061057c565b60405180910390f35b6100a06101e8565b6040516100ad91906105ac565b60405180910390f35b6100be6101ee565b6040516100cb91906105e0565b60405180910390f35b6100ee60048036038101906100e99190610627565b6101f4565b005b6100f8610290565b60405161010591906105e0565b60405180910390f35b6101166102a5565b60405161012391906105ac565b60405180910390f35b6006818154811061013c57600080fd5b906000526020600020906002020160009150905080600001805461015f90610696565b80601f016020809104026020016040519081016040528092919081815260200182805461018b90610696565b80156101d85780601f106101ad576101008083540402835291602001916101d8565b820191906000526020600020905b8154815290600101906020018083116101bb57829003601f168201915b5050505050908060010154905082565b60055481565b60035481565b7f000000000000000000000000000000000000000000000000000000000000000073ffffffffffffffffffffffffffffffffffffffff163373ffffffffffffffffffffffffffffffffffffffff1614610282576040517f08c379a000000000000000000000000000000000000000000000000000000000815260040161027990610713565b60405180910390fd5b61028c82826102ab565b5050565b60006102a06003546004546102b6565b905090565b60045481565b806005819055505050565b60007f000000000000000000000000000000000000000000000000000000000000000073ffffffffffffffffffffffffffffffffffffffff16634000aea07f00000000000000000000000000000000000000000000000000000000000000008486600060405160200161032a929190610733565b6040516020818303038152906040526040518463ffffffff1660e01b8152600401610357939291906107f2565b6020604051808303816000875af1158015610376573d6000803e3d6000fd5b505050506040513d601f19601f8201168201806040525081019061039a9190610868565b5060006103bc8460003060008089815260200190815260200160002054610406565b90506001600080868152602001908152602001600020546103dd91906108c4565b600080868152602001908152602001600020819055506103fd8482610442565b91505092915050565b60008484848460405160200161041f94939291906108f8565b6040516020818303038152906040528051906020012060001c9050949350505050565b6000828260405160200161045792919061097f565b60405160208183030381529060405280519060200120905092915050565b600080fd5b6000819050919050565b61048d8161047a565b811461049857600080fd5b50565b6000813590506104aa81610484565b92915050565b6000602082840312156104c6576104c5610475565b5b60006104d48482850161049b565b91505092915050565b600081519050919050565b600082825260208201905092915050565b60005b838110156105175780820151818401526020810190506104fc565b60008484015250505050565b6000601f19601f8301169050919050565b600061053f826104dd565b61054981856104e8565b93506105598185602086016104f9565b61056281610523565b840191505092915050565b6105768161047a565b82525050565b600060408201905081810360008301526105968185610534565b90506105a5602083018461056d565b9392505050565b60006020820190506105c1600083018461056d565b92915050565b6000819050919050565b6105da816105c7565b82525050565b60006020820190506105f560008301846105d1565b92915050565b610604816105c7565b811461060f57600080fd5b50565b600081359050610621816105fb565b92915050565b6000806040838503121561063e5761063d610475565b5b600061064c85828601610612565b925050602061065d8582860161049b565b9150509250929050565b7f4e487b7100000000000000000000000000000000000000000000000000000000600052602260045260246000fd5b600060028204905060018216806106ae57607f821691505b6020821081036106c1576106c0610667565b5b50919050565b7f4f6e6c7920565246436f6f7264696e61746f722063616e2066756c66696c6c00600082015250565b60006106fd601f836104e8565b9150610708826106c7565b602082019050919050565b6000602082019050818103600083015261072c816106f0565b9050919050565b600060408201905061074860008301856105d1565b610755602083018461056d565b9392505050565b600073ffffffffffffffffffffffffffffffffffffffff82169050919050565b60006107878261075c565b9050919050565b6107978161077c565b82525050565b600081519050919050565b600082825260208201905092915050565b60006107c48261079d565b6107ce81856107a8565b93506107de8185602086016104f9565b6107e781610523565b840191505092915050565b6000606082019050610807600083018661078e565b610814602083018561056d565b818103604083015261082681846107b9565b9050949350505050565b60008115159050919050565b61084581610830565b811461085057600080fd5b50565b6000815190506108628161083c565b92915050565b60006020828403121561087e5761087d610475565b5b600061088c84828501610853565b91505092915050565b7f4e487b7100000000000000000000000000000000000000000000000000000000600052601160045260246000fd5b60006108cf8261047a565b91506108da8361047a565b92508282019050808211156108f2576108f1610895565b5b92915050565b600060808201905061090d60008301876105d1565b61091a602083018661056d565b610927604083018561078e565b610934606083018461056d565b95945050505050565b6000819050919050565b610958610953826105c7565b61093d565b82525050565b6000819050919050565b6109796109748261047a565b61095e565b82525050565b600061098b8285610947565b60208201915061099b8284610968565b602082019150819050939250505056fea26469706673582212204b6a348552d883692e540af4d40aa872e559754faa8c59f8c44fac694f89fdeb64736f6c63430008120033",
			"opcodes": "PUSH1 0xC0 PUSH1 0x40 MSTORE PUSH1 0x10 PUSH1 0x1 SSTORE PUSH1 0x1 SLOAD PUSH1 0xA PUSH3 0x1A SWAP2 SWAP1 PUSH3 0x28B JUMP JUMPDEST PUSH1 0x2 SSTORE CALLVALUE DUP1 ISZERO PUSH3 0x2A JUMPI PUSH1 0x0 DUP1 REVERT JUMPDEST POP PUSH20 0x8103B0A8A00BE2DDC778E6E7EAA21791CD364625 PUSH20 0x779877A7B0D9E8603169DDBD7836E478B4624789 DUP2 PUSH20 0xFFFFFFFFFFFFFFFFFFFFFFFFFFFFFFFFFFFFFFFF AND PUSH1 0xA0 DUP2 PUSH20 0xFFFFFFFFFFFFFFFFFFFFFFFFFFFFFFFFFFFFFFFF AND DUP2 MSTORE POP POP DUP1 PUSH20 0xFFFFFFFFFFFFFFFFFFFFFFFFFFFFFFFFFFFFFFFF AND PUSH1 0x80 DUP2 PUSH20 0xFFFFFFFFFFFFFFFFFFFFFFFFFFFFFFFFFFFFFFFF AND DUP2 MSTORE POP POP POP POP PUSH32 0x474E34A077DF58807DBE9C96D3C009B23B3C6D0CCE433E59BBF5B34F823BC56C PUSH1 0x0 SHL PUSH1 0x3 DUP2 SWAP1 SSTORE POP PUSH8 0x3782DACE9D90000 PUSH1 0x4 DUP2 SWAP1 SSTORE POP PUSH3 0x2DC JUMP JUMPDEST PUSH32 0x4E487B7100000000000000000000000000000000000000000000000000000000 PUSH1 0x0 MSTORE PUSH1 0x11 PUSH1 0x4 MSTORE PUSH1 0x24 PUSH1 0x0 REVERT JUMPDEST PUSH1 0x0 DUP2 PUSH1 0x1 SHR SWAP1 POP SWAP2 SWAP1 POP JUMP JUMPDEST PUSH1 0x0 DUP1 DUP3 SWAP2 POP DUP4 SWAP1 POP JUMPDEST PUSH1 0x1 DUP6 GT ISZERO PUSH3 0x18C JUMPI DUP1 DUP7 DIV DUP2 GT ISZERO PUSH3 0x164 JUMPI PUSH3 0x163 PUSH3 0xFE JUMP JUMPDEST JUMPDEST PUSH1 0x1 DUP6 AND ISZERO PUSH3 0x174 JUMPI DUP1 DUP3 MUL SWAP2 POP JUMPDEST DUP1 DUP2 MUL SWAP1 POP PUSH3 0x184 DUP6 PUSH3 0x12D JUMP JUMPDEST SWAP5 POP PUSH3 0x144 JUMP JUMPDEST SWAP5 POP SWAP5 SWAP3 POP POP POP JUMP JUMPDEST PUSH1 0x0 DUP3 PUSH3 0x1A7 JUMPI PUSH1 0x1 SWAP1 POP PUSH3 0x27A JUMP JUMPDEST DUP2 PUSH3 0x1B7 JUMPI PUSH1 0x0 SWAP1 POP PUSH3 0x27A JUMP JUMPDEST DUP2 PUSH1 0x1 DUP2 EQ PUSH3 0x1D0 JUMPI PUSH1 0x2 DUP2 EQ PUSH3 0x1DB JUMPI PUSH3 0x211 JUMP JUMPDEST PUSH1 0x1 SWAP2 POP POP PUSH3 0x27A JUMP JUMPDEST PUSH1 0xFF DUP5 GT ISZERO PUSH3 0x1F0 JUMPI PUSH3 0x1EF PUSH3 0xFE JUMP JUMPDEST JUMPDEST DUP4 PUSH1 0x2 EXP SWAP2 POP DUP5 DUP3 GT ISZERO PUSH3 0x20A JUMPI PUSH3 0x209 PUSH3 0xFE JUMP JUMPDEST JUMPDEST POP PUSH3 0x27A JUMP JUMPDEST POP PUSH1 0x20 DUP4 LT PUSH2 0x133 DUP4 LT AND PUSH1 0x4E DUP5 LT PUSH1 0xB DUP5 LT AND OR ISZERO PUSH3 0x24B JUMPI DUP3 DUP3 EXP SWAP1 POP DUP4 DUP2 GT ISZERO PUSH3 0x245 JUMPI PUSH3 0x244 PUSH3 0xFE JUMP JUMPDEST JUMPDEST PUSH3 0x27A JUMP JUMPDEST PUSH3 0x25A DUP5 DUP5 DUP5 PUSH1 0x1 PUSH3 0x13A JUMP JUMPDEST SWAP3 POP SWAP1 POP DUP2 DUP5 DIV DUP2 GT ISZERO PUSH3 0x274 JUMPI PUSH3 0x273 PUSH3 0xFE JUMP JUMPDEST JUMPDEST DUP2 DUP2 MUL SWAP1 POP JUMPDEST SWAP4 SWAP3 POP POP POP JUMP JUMPDEST PUSH1 0x0 DUP2 SWAP1 POP SWAP2 SWAP1 POP JUMP JUMPDEST PUSH1 0x0 PUSH3 0x298 DUP3 PUSH3 0x281 JUMP JUMPDEST SWAP2 POP PUSH3 0x2A5 DUP4 PUSH3 0x281 JUMP JUMPDEST SWAP3 POP PUSH3 0x2D4 PUSH32 0xFFFFFFFFFFFFFFFFFFFFFFFFFFFFFFFFFFFFFFFFFFFFFFFFFFFFFFFFFFFFFFFF DUP5 DUP5 PUSH3 0x195 JUMP JUMPDEST SWAP1 POP SWAP3 SWAP2 POP POP JUMP JUMPDEST PUSH1 0x80 MLOAD PUSH1 0xA0 MLOAD PUSH2 0x9E1 PUSH3 0x309 PUSH1 0x0 CODECOPY PUSH1 0x0 DUP2 DUP2 PUSH2 0x1F6 ADD MSTORE PUSH2 0x2F6 ADD MSTORE PUSH1 0x0 PUSH2 0x2BA ADD MSTORE PUSH2 0x9E1 PUSH1 0x0 RETURN INVALID PUSH1 0x80 PUSH1 0x40 MSTORE CALLVALUE DUP1 ISZERO PUSH2 0x10 JUMPI PUSH1 0x0 DUP1 REVERT JUMPDEST POP PUSH1 0x4 CALLDATASIZE LT PUSH2 0x62 JUMPI PUSH1 0x0 CALLDATALOAD PUSH1 0xE0 SHR DUP1 PUSH4 0x2052465E EQ PUSH2 0x67 JUMPI DUP1 PUSH4 0x42619F66 EQ PUSH2 0x98 JUMPI DUP1 PUSH4 0x61728F39 EQ PUSH2 0xB6 JUMPI DUP1 PUSH4 0x94985DDD EQ PUSH2 0xD4 JUMPI DUP1 PUSH4 0xDBDFF2C1 EQ PUSH2 0xF0 JUMPI DUP1 PUSH4 0xDDCA3F43 EQ PUSH2 0x10E JUMPI JUMPDEST PUSH1 0x0 DUP1 REVERT JUMPDEST PUSH2 0x81 PUSH1 0x4 DUP1 CALLDATASIZE SUB DUP2 ADD SWAP1 PUSH2 0x7C SWAP2 SWAP1 PUSH2 0x4B0 JUMP JUMPDEST PUSH2 0x12C JUMP JUMPDEST PUSH1 0x40 MLOAD PUSH2 0x8F SWAP3 SWAP2 SWAP1 PUSH2 0x57C JUMP JUMPDEST PUSH1 0x40 MLOAD DUP1 SWAP2 SUB SWAP1 RETURN JUMPDEST PUSH2 0xA0 PUSH2 0x1E8 JUMP JUMPDEST PUSH1 0x40 MLOAD PUSH2 0xAD SWAP2 SWAP1 PUSH2 0x5AC JUMP JUMPDEST PUSH1 0x40 MLOAD DUP1 SWAP2 SUB SWAP1 RETURN JUMPDEST PUSH2 0xBE PUSH2 0x1EE JUMP JUMPDEST PUSH1 0x40 MLOAD PUSH2 0xCB SWAP2 SWAP1 PUSH2 0x5E0 JUMP JUMPDEST PUSH1 0x40 MLOAD DUP1 SWAP2 SUB SWAP1 RETURN JUMPDEST PUSH2 0xEE PUSH1 0x4 DUP1 CALLDATASIZE SUB DUP2 ADD SWAP1 PUSH2 0xE9 SWAP2 SWAP1 PUSH2 0x627 JUMP JUMPDEST PUSH2 0x1F4 JUMP JUMPDEST STOP JUMPDEST PUSH2 0xF8 PUSH2 0x290 JUMP JUMPDEST PUSH1 0x40 MLOAD PUSH2 0x105 SWAP2 SWAP1 PUSH2 0x5E0 JUMP JUMPDEST PUSH1 0x40 MLOAD DUP1 SWAP2 SUB SWAP1 RETURN JUMPDEST PUSH2 0x116 PUSH2 0x2A5 JUMP JUMPDEST PUSH1 0x40 MLOAD PUSH2 0x123 SWAP2 SWAP1 PUSH2 0x5AC JUMP JUMPDEST PUSH1 0x40 MLOAD DUP1 SWAP2 SUB SWAP1 RETURN JUMPDEST PUSH1 0x6 DUP2 DUP2 SLOAD DUP2 LT PUSH2 0x13C JUMPI PUSH1 0x0 DUP1 REVERT JUMPDEST SWAP1 PUSH1 0x0 MSTORE PUSH1 0x20 PUSH1 0x0 KECCAK256 SWAP1 PUSH1 0x2 MUL ADD PUSH1 0x0 SWAP2 POP SWAP1 POP DUP1 PUSH1 0x0 ADD DUP1 SLOAD PUSH2 0x15F SWAP1 PUSH2 0x696 JUMP JUMPDEST DUP1 PUSH1 0x1F ADD PUSH1 0x20 DUP1 SWAP2 DIV MUL PUSH1 0x20 ADD PUSH1 0x40 MLOAD SWAP1 DUP2 ADD PUSH1 0x40 MSTORE DUP1 SWAP3 SWAP2 SWAP1 DUP2 DUP2 MSTORE PUSH1 0x20 ADD DUP3 DUP1 SLOAD PUSH2 0x18B SWAP1 PUSH2 0x696 JUMP JUMPDEST DUP1 ISZERO PUSH2 0x1D8 JUMPI DUP1 PUSH1 0x1F LT PUSH2 0x1AD JUMPI PUSH2 0x100 DUP1 DUP4 SLOAD DIV MUL DUP4 MSTORE SWAP2 PUSH1 0x20 ADD SWAP2 PUSH2 0x1D8 JUMP JUMPDEST DUP3 ADD SWAP2 SWAP1 PUSH1 0x0 MSTORE PUSH1 0x20 PUSH1 0x0 KECCAK256 SWAP1 JUMPDEST DUP2 SLOAD DUP2 MSTORE SWAP1 PUSH1 0x1 ADD SWAP1 PUSH1 0x20 ADD DUP1 DUP4 GT PUSH2 0x1BB JUMPI DUP3 SWAP1 SUB PUSH1 0x1F AND DUP3 ADD SWAP2 JUMPDEST POP POP POP POP POP SWAP1 DUP1 PUSH1 0x1 ADD SLOAD SWAP1 POP DUP3 JUMP JUMPDEST PUSH1 0x5 SLOAD DUP2 JUMP JUMPDEST PUSH1 0x3 SLOAD DUP2 JUMP JUMPDEST PUSH32 0x0 PUSH20 0xFFFFFFFFFFFFFFFFFFFFFFFFFFFFFFFFFFFFFFFF AND CALLER PUSH20 0xFFFFFFFFFFFFFFFFFFFFFFFFFFFFFFFFFFFFFFFF AND EQ PUSH2 0x282 JUMPI PUSH1 0x40 MLOAD PUSH32 0x8C379A000000000000000000000000000000000000000000000000000000000 DUP2 MSTORE PUSH1 0x4 ADD PUSH2 0x279 SWAP1 PUSH2 0x713 JUMP JUMPDEST PUSH1 0x40 MLOAD DUP1 SWAP2 SUB SWAP1 REVERT JUMPDEST PUSH2 0x28C DUP3 DUP3 PUSH2 0x2AB JUMP JUMPDEST POP POP JUMP JUMPDEST PUSH1 0x0 PUSH2 0x2A0 PUSH1 0x3 SLOAD PUSH1 0x4 SLOAD PUSH2 0x2B6 JUMP JUMPDEST SWAP1 POP SWAP1 JUMP JUMPDEST PUSH1 0x4 SLOAD DUP2 JUMP JUMPDEST DUP1 PUSH1 0x5 DUP2 SWAP1 SSTORE POP POP POP JUMP JUMPDEST PUSH1 0x0 PUSH32 0x0 PUSH20 0xFFFFFFFFFFFFFFFFFFFFFFFFFFFFFFFFFFFFFFFF AND PUSH4 0x4000AEA0 PUSH32 0x0 DUP5 DUP7 PUSH1 0x0 PUSH1 0x40 MLOAD PUSH1 0x20 ADD PUSH2 0x32A SWAP3 SWAP2 SWAP1 PUSH2 0x733 JUMP JUMPDEST PUSH1 0x40 MLOAD PUSH1 0x20 DUP2 DUP4 SUB SUB DUP2 MSTORE SWAP1 PUSH1 0x40 MSTORE PUSH1 0x40 MLOAD DUP5 PUSH4 0xFFFFFFFF AND PUSH1 0xE0 SHL DUP2 MSTORE PUSH1 0x4 ADD PUSH2 0x357 SWAP4 SWAP3 SWAP2 SWAP1 PUSH2 0x7F2 JUMP JUMPDEST PUSH1 0x20 PUSH1 0x40 MLOAD DUP1 DUP4 SUB DUP2 PUSH1 0x0 DUP8 GAS CALL ISZERO DUP1 ISZERO PUSH2 0x376 JUMPI RETURNDATASIZE PUSH1 0x0 DUP1 RETURNDATACOPY RETURNDATASIZE PUSH1 0x0 REVERT JUMPDEST POP POP POP POP PUSH1 0x40 MLOAD RETURNDATASIZE PUSH1 0x1F NOT PUSH1 0x1F DUP3 ADD AND DUP3 ADD DUP1 PUSH1 0x40 MSTORE POP DUP2 ADD SWAP1 PUSH2 0x39A SWAP2 SWAP1 PUSH2 0x868 JUMP JUMPDEST POP PUSH1 0x0 PUSH2 0x3BC DUP5 PUSH1 0x0 ADDRESS PUSH1 0x0 DUP1 DUP10 DUP2 MSTORE PUSH1 0x20 ADD SWAP1 DUP2 MSTORE PUSH1 0x20 ADD PUSH1 0x0 KECCAK256 SLOAD PUSH2 0x406 JUMP JUMPDEST SWAP1 POP PUSH1 0x1 PUSH1 0x0 DUP1 DUP7 DUP2 MSTORE PUSH1 0x20 ADD SWAP1 DUP2 MSTORE PUSH1 0x20 ADD PUSH1 0x0 KECCAK256 SLOAD PUSH2 0x3DD SWAP2 SWAP1 PUSH2 0x8C4 JUMP JUMPDEST PUSH1 0x0 DUP1 DUP7 DUP2 MSTORE PUSH1 0x20 ADD SWAP1 DUP2 MSTORE PUSH1 0x20 ADD PUSH1 0x0 KECCAK256 DUP2 SWAP1 SSTORE POP PUSH2 0x3FD DUP5 DUP3 PUSH2 0x442 JUMP JUMPDEST SWAP2 POP POP SWAP3 SWAP2 POP POP JUMP JUMPDEST PUSH1 0x0 DUP5 DUP5 DUP5 DUP5 PUSH1 0x40 MLOAD PUSH1 0x20 ADD PUSH2 0x41F SWAP5 SWAP4 SWAP3 SWAP2 SWAP1 PUSH2 0x8F8 JUMP JUMPDEST PUSH1 0x40 MLOAD PUSH1 0x20 DUP2 DUP4 SUB SUB DUP2 MSTORE SWAP1 PUSH1 0x40 MSTORE DUP1 MLOAD SWAP1 PUSH1 0x20 ADD KECCAK256 PUSH1 0x0 SHR SWAP1 POP SWAP5 SWAP4 POP POP POP POP JUMP JUMPDEST PUSH1 0x0 DUP3 DUP3 PUSH1 0x40 MLOAD PUSH1 0x20 ADD PUSH2 0x457 SWAP3 SWAP2 SWAP1 PUSH2 0x97F JUMP JUMPDEST PUSH1 0x40 MLOAD PUSH1 0x20 DUP2 DUP4 SUB SUB DUP2 MSTORE SWAP1 PUSH1 0x40 MSTORE DUP1 MLOAD SWAP1 PUSH1 0x20 ADD KECCAK256 SWAP1 POP SWAP3 SWAP2 POP POP JUMP JUMPDEST PUSH1 0x0 DUP1 REVERT JUMPDEST PUSH1 0x0 DUP2 SWAP1 POP SWAP2 SWAP1 POP JUMP JUMPDEST PUSH2 0x48D DUP2 PUSH2 0x47A JUMP JUMPDEST DUP2 EQ PUSH2 0x498 JUMPI PUSH1 0x0 DUP1 REVERT JUMPDEST POP JUMP JUMPDEST PUSH1 0x0 DUP2 CALLDATALOAD SWAP1 POP PUSH2 0x4AA DUP2 PUSH2 0x484 JUMP JUMPDEST SWAP3 SWAP2 POP POP JUMP JUMPDEST PUSH1 0x0 PUSH1 0x20 DUP3 DUP5 SUB SLT ISZERO PUSH2 0x4C6 JUMPI PUSH2 0x4C5 PUSH2 0x475 JUMP JUMPDEST JUMPDEST PUSH1 0x0 PUSH2 0x4D4 DUP5 DUP3 DUP6 ADD PUSH2 0x49B JUMP JUMPDEST SWAP2 POP POP SWAP3 SWAP2 POP POP JUMP JUMPDEST PUSH1 0x0 DUP2 MLOAD SWAP1 POP SWAP2 SWAP1 POP JUMP JUMPDEST PUSH1 0x0 DUP3 DUP3 MSTORE PUSH1 0x20 DUP3 ADD SWAP1 POP SWAP3 SWAP2 POP POP JUMP JUMPDEST PUSH1 0x0 JUMPDEST DUP4 DUP2 LT ISZERO PUSH2 0x517 JUMPI DUP1 DUP3 ADD MLOAD DUP2 DUP5 ADD MSTORE PUSH1 0x20 DUP2 ADD SWAP1 POP PUSH2 0x4FC JUMP JUMPDEST PUSH1 0x0 DUP5 DUP5 ADD MSTORE POP POP POP POP JUMP JUMPDEST PUSH1 0x0 PUSH1 0x1F NOT PUSH1 0x1F DUP4 ADD AND SWAP1 POP SWAP2 SWAP1 POP JUMP JUMPDEST PUSH1 0x0 PUSH2 0x53F DUP3 PUSH2 0x4DD JUMP JUMPDEST PUSH2 0x549 DUP2 DUP6 PUSH2 0x4E8 JUMP JUMPDEST SWAP4 POP PUSH2 0x559 DUP2 DUP6 PUSH1 0x20 DUP7 ADD PUSH2 0x4F9 JUMP JUMPDEST PUSH2 0x562 DUP2 PUSH2 0x523 JUMP JUMPDEST DUP5 ADD SWAP2 POP POP SWAP3 SWAP2 POP POP JUMP JUMPDEST PUSH2 0x576 DUP2 PUSH2 0x47A JUMP JUMPDEST DUP3 MSTORE POP POP JUMP JUMPDEST PUSH1 0x0 PUSH1 0x40 DUP3 ADD SWAP1 POP DUP2 DUP2 SUB PUSH1 0x0 DUP4 ADD MSTORE PUSH2 0x596 DUP2 DUP6 PUSH2 0x534 JUMP JUMPDEST SWAP1 POP PUSH2 0x5A5 PUSH1 0x20 DUP4 ADD DUP5 PUSH2 0x56D JUMP JUMPDEST SWAP4 SWAP3 POP POP POP JUMP JUMPDEST PUSH1 0x0 PUSH1 0x20 DUP3 ADD SWAP1 POP PUSH2 0x5C1 PUSH1 0x0 DUP4 ADD DUP5 PUSH2 0x56D JUMP JUMPDEST SWAP3 SWAP2 POP POP JUMP JUMPDEST PUSH1 0x0 DUP2 SWAP1 POP SWAP2 SWAP1 POP JUMP JUMPDEST PUSH2 0x5DA DUP2 PUSH2 0x5C7 JUMP JUMPDEST DUP3 MSTORE POP POP JUMP JUMPDEST PUSH1 0x0 PUSH1 0x20 DUP3 ADD SWAP1 POP PUSH2 0x5F5 PUSH1 0x0 DUP4 ADD DUP5 PUSH2 0x5D1 JUMP JUMPDEST SWAP3 SWAP2 POP POP JUMP JUMPDEST PUSH2 0x604 DUP2 PUSH2 0x5C7 JUMP JUMPDEST DUP2 EQ PUSH2 0x60F JUMPI PUSH1 0x0 DUP1 REVERT JUMPDEST POP JUMP JUMPDEST PUSH1 0x0 DUP2 CALLDATALOAD SWAP1 POP PUSH2 0x621 DUP2 PUSH2 0x5FB JUMP JUMPDEST SWAP3 SWAP2 POP POP JUMP JUMPDEST PUSH1 0x0 DUP1 PUSH1 0x40 DUP4 DUP6 SUB SLT ISZERO PUSH2 0x63E JUMPI PUSH2 0x63D PUSH2 0x475 JUMP JUMPDEST JUMPDEST PUSH1 0x0 PUSH2 0x64C DUP6 DUP3 DUP7 ADD PUSH2 0x612 JUMP JUMPDEST SWAP3 POP POP PUSH1 0x20 PUSH2 0x65D DUP6 DUP3 DUP7 ADD PUSH2 0x49B JUMP JUMPDEST SWAP2 POP POP SWAP3 POP SWAP3 SWAP1 POP JUMP JUMPDEST PUSH32 0x4E487B7100000000000000000000000000000000000000000000000000000000 PUSH1 0x0 MSTORE PUSH1 0x22 PUSH1 0x4 MSTORE PUSH1 0x24 PUSH1 0x0 REVERT JUMPDEST PUSH1 0x0 PUSH1 0x2 DUP3 DIV SWAP1 POP PUSH1 0x1 DUP3 AND DUP1 PUSH2 0x6AE JUMPI PUSH1 0x7F DUP3 AND SWAP2 POP JUMPDEST PUSH1 0x20 DUP3 LT DUP2 SUB PUSH2 0x6C1 JUMPI PUSH2 0x6C0 PUSH2 0x667 JUMP JUMPDEST JUMPDEST POP SWAP2 SWAP1 POP JUMP JUMPDEST PUSH32 0x4F6E6C7920565246436F6F7264696E61746F722063616E2066756C66696C6C00 PUSH1 0x0 DUP3 ADD MSTORE POP JUMP JUMPDEST PUSH1 0x0 PUSH2 0x6FD PUSH1 0x1F DUP4 PUSH2 0x4E8 JUMP JUMPDEST SWAP2 POP PUSH2 0x708 DUP3 PUSH2 0x6C7 JUMP JUMPDEST PUSH1 0x20 DUP3 ADD SWAP1 POP SWAP2 SWAP1 POP JUMP JUMPDEST PUSH1 0x0 PUSH1 0x20 DUP3 ADD SWAP1 POP DUP2 DUP2 SUB PUSH1 0x0 DUP4 ADD MSTORE PUSH2 0x72C DUP2 PUSH2 0x6F0 JUMP JUMPDEST SWAP1 POP SWAP2 SWAP1 POP JUMP JUMPDEST PUSH1 0x0 PUSH1 0x40 DUP3 ADD SWAP1 POP PUSH2 0x748 PUSH1 0x0 DUP4 ADD DUP6 PUSH2 0x5D1 JUMP JUMPDEST PUSH2 0x755 PUSH1 0x20 DUP4 ADD DUP5 PUSH2 0x56D JUMP JUMPDEST SWAP4 SWAP3 POP POP POP JUMP JUMPDEST PUSH1 0x0 PUSH20 0xFFFFFFFFFFFFFFFFFFFFFFFFFFFFFFFFFFFFFFFF DUP3 AND SWAP1 POP SWAP2 SWAP1 POP JUMP JUMPDEST PUSH1 0x0 PUSH2 0x787 DUP3 PUSH2 0x75C JUMP JUMPDEST SWAP1 POP SWAP2 SWAP1 POP JUMP JUMPDEST PUSH2 0x797 DUP2 PUSH2 0x77C JUMP JUMPDEST DUP3 MSTORE POP POP JUMP JUMPDEST PUSH1 0x0 DUP2 MLOAD SWAP1 POP SWAP2 SWAP1 POP JUMP JUMPDEST PUSH1 0x0 DUP3 DUP3 MSTORE PUSH1 0x20 DUP3 ADD SWAP1 POP SWAP3 SWAP2 POP POP JUMP JUMPDEST PUSH1 0x0 PUSH2 0x7C4 DUP3 PUSH2 0x79D JUMP JUMPDEST PUSH2 0x7CE DUP2 DUP6 PUSH2 0x7A8 JUMP JUMPDEST SWAP4 POP PUSH2 0x7DE DUP2 DUP6 PUSH1 0x20 DUP7 ADD PUSH2 0x4F9 JUMP JUMPDEST PUSH2 0x7E7 DUP2 PUSH2 0x523 JUMP JUMPDEST DUP5 ADD SWAP2 POP POP SWAP3 SWAP2 POP POP JUMP JUMPDEST PUSH1 0x0 PUSH1 0x60 DUP3 ADD SWAP1 POP PUSH2 0x807 PUSH1 0x0 DUP4 ADD DUP7 PUSH2 0x78E JUMP JUMPDEST PUSH2 0x814 PUSH1 0x20 DUP4 ADD DUP6 PUSH2 0x56D JUMP JUMPDEST DUP2 DUP2 SUB PUSH1 0x40 DUP4 ADD MSTORE PUSH2 0x826 DUP2 DUP5 PUSH2 0x7B9 JUMP JUMPDEST SWAP1 POP SWAP5 SWAP4 POP POP POP POP JUMP JUMPDEST PUSH1 0x0 DUP2 ISZERO ISZERO SWAP1 POP SWAP2 SWAP1 POP JUMP JUMPDEST PUSH2 0x845 DUP2 PUSH2 0x830 JUMP JUMPDEST DUP2 EQ PUSH2 0x850 JUMPI PUSH1 0x0 DUP1 REVERT JUMPDEST POP JUMP JUMPDEST PUSH1 0x0 DUP2 MLOAD SWAP1 POP PUSH2 0x862 DUP2 PUSH2 0x83C JUMP JUMPDEST SWAP3 SWAP2 POP POP JUMP JUMPDEST PUSH1 0x0 PUSH1 0x20 DUP3 DUP5 SUB SLT ISZERO PUSH2 0x87E JUMPI PUSH2 0x87D PUSH2 0x475 JUMP JUMPDEST JUMPDEST PUSH1 0x0 PUSH2 0x88C DUP5 DUP3 DUP6 ADD PUSH2 0x853 JUMP JUMPDEST SWAP2 POP POP SWAP3 SWAP2 POP POP JUMP JUMPDEST PUSH32 0x4E487B7100000000000000000000000000000000000000000000000000000000 PUSH1 0x0 MSTORE PUSH1 0x11 PUSH1 0x4 MSTORE PUSH1 0x24 PUSH1 0x0 REVERT JUMPDEST PUSH1 0x0 PUSH2 0x8CF DUP3 PUSH2 0x47A JUMP JUMPDEST SWAP2 POP PUSH2 0x8DA DUP4 PUSH2 0x47A JUMP JUMPDEST SWAP3 POP DUP3 DUP3 ADD SWAP1 POP DUP1 DUP3 GT ISZERO PUSH2 0x8F2 JUMPI PUSH2 0x8F1 PUSH2 0x895 JUMP JUMPDEST JUMPDEST SWAP3 SWAP2 POP POP JUMP JUMPDEST PUSH1 0x0 PUSH1 0x80 DUP3 ADD SWAP1 POP PUSH2 0x90D PUSH1 0x0 DUP4 ADD DUP8 PUSH2 0x5D1 JUMP JUMPDEST PUSH2 0x91A PUSH1 0x20 DUP4 ADD DUP7 PUSH2 0x56D JUMP JUMPDEST PUSH2 0x927 PUSH1 0x40 DUP4 ADD DUP6 PUSH2 0x78E JUMP JUMPDEST PUSH2 0x934 PUSH1 0x60 DUP4 ADD DUP5 PUSH2 0x56D JUMP JUMPDEST SWAP6 SWAP5 POP POP POP POP POP JUMP JUMPDEST PUSH1 0x0 DUP2 SWAP1 POP SWAP2 SWAP1 POP JUMP JUMPDEST PUSH2 0x958 PUSH2 0x953 DUP3 PUSH2 0x5C7 JUMP JUMPDEST PUSH2 0x93D JUMP JUMPDEST DUP3 MSTORE POP POP JUMP JUMPDEST PUSH1 0x0 DUP2 SWAP1 POP SWAP2 SWAP1 POP JUMP JUMPDEST PUSH2 0x979 PUSH2 0x974 DUP3 PUSH2 0x47A JUMP JUMPDEST PUSH2 0x95E JUMP JUMPDEST DUP3 MSTORE POP POP JUMP JUMPDEST PUSH1 0x0 PUSH2 0x98B DUP3 DUP6 PUSH2 0x947 JUMP JUMPDEST PUSH1 0x20 DUP3 ADD SWAP2 POP PUSH2 0x99B DUP3 DUP5 PUSH2 0x968 JUMP JUMPDEST PUSH1 0x20 DUP3 ADD SWAP2 POP DUP2 SWAP1 POP SWAP4 SWAP3 POP POP POP JUMP INVALID LOG2 PUSH5 0x6970667358 0x22 SLT KECCAK256 0x4B PUSH11 0x348552D883692E540AF4D4 EXP 0xA8 PUSH19 0xE559754FAA8C59F8C44FAC694F89FDEB64736F PUSH13 0x63430008120033000000000000 "
		},
		"gasEstimates": {
			"creation": {
				"codeDepositCost": "505800",
				"executionCost": "infinite",
				"totalCost": "infinite"
			},
			"external": {
				"fee()": "2517",
				"getRandomNumber()": "infinite",
				"keyHash()": "2451",
				"randomResult()": "2429",
				"rawFulfillRandomness(bytes32,uint256)": "infinite",
				"zombies(uint256)": "infinite"
			},
			"internal": {
				"_createZombie(string memory,uint256)": "infinite",
				"fulfillRandomness(bytes32,uint256)": "22127"
			}
		},
		"methodIdentifiers": {
			"fee()": "ddca3f43",
			"getRandomNumber()": "dbdff2c1",
			"keyHash()": "61728f39",
			"randomResult()": "42619f66",
			"rawFulfillRandomness(bytes32,uint256)": "94985ddd",
			"zombies(uint256)": "2052465e"
		}
	},
	"abi": [
		{
			"inputs": [],
			"stateMutability": "nonpayable",
			"type": "constructor"
		},
		{
			"inputs": [],
			"name": "fee",
			"outputs": [
				{
					"internalType": "uint256",
					"name": "",
					"type": "uint256"
				}
			],
			"stateMutability": "view",
			"type": "function"
		},
		{
			"inputs": [],
			"name": "getRandomNumber",
			"outputs": [
				{
					"internalType": "bytes32",
					"name": "requestId",
					"type": "bytes32"
				}
			],
			"stateMutability": "nonpayable",
			"type": "function"
		},
		{
			"inputs": [],
			"name": "keyHash",
			"outputs": [
				{
					"internalType": "bytes32",
					"name": "",
					"type": "bytes32"
				}
			],
			"stateMutability": "view",
			"type": "function"
		},
		{
			"inputs": [],
			"name": "randomResult",
			"outputs": [
				{
					"internalType": "uint256",
					"name": "",
					"type": "uint256"
				}
			],
			"stateMutability": "view",
			"type": "function"
		},
		{
			"inputs": [
				{
					"internalType": "bytes32",
					"name": "requestId",
					"type": "bytes32"
				},
				{
					"internalType": "uint256",
					"name": "randomness",
					"type": "uint256"
				}
			],
			"name": "rawFulfillRandomness",
			"outputs": [],
			"stateMutability": "nonpayable",
			"type": "function"
		},
		{
			"inputs": [
				{
					"internalType": "uint256",
					"name": "",
					"type": "uint256"
				}
			],
			"name": "zombies",
			"outputs": [
				{
					"internalType": "string",
					"name": "name",
					"type": "string"
				},
				{
					"internalType": "uint256",
					"name": "dna",
					"type": "uint256"
				}
			],
			"stateMutability": "view",
			"type": "function"
		}
	]
}