{
	"data": {
		"bytecode": {
			"linkReferences": {},
			"object": "608060405234801561001057600080fd5b50610f82806100206000396000f3fe608060405234801561001057600080fd5b506004361061004c5760003560e01c8063335d00c2146100515780638766cdb51461006f578063a701d7331461009f578063b43c5d33146100cf575b600080fd5b610059610100565b6040516100669190610651565b60405180910390f35b61008960048036038101906100849190610742565b61036c565b6040516100969190610872565b60405180910390f35b6100b960048036038101906100b49190610ab3565b610409565b6040516100c69190610872565b60405180910390f35b6100e960048036038101906100e49190610b89565b6104a5565b6040516100f7929190610c0f565b60405180910390f35b610108610551565b6040518060400160405280607b81526020016040518060400160405280600581526020017f616c6f68610000000000000000000000000000000000000000000000000000008152508152506000803373ffffffffffffffffffffffffffffffffffffffff1673ffffffffffffffffffffffffffffffffffffffff1681526020019081526020016000206000820151816000015560208201518160010190816101b09190610e4b565b5090505060008060003373ffffffffffffffffffffffffffffffffffffffff1673ffffffffffffffffffffffffffffffffffffffff16815260200190815260200160002090506040518060400160405280600581526020017f68656c6c6f00000000000000000000000000000000000000000000000000000081525081600101908161023c9190610e4b565b5060008060003373ffffffffffffffffffffffffffffffffffffffff1673ffffffffffffffffffffffffffffffffffffffff168152602001908152602001600020604051806040016040529081600082015481526020016001820180546102a290610c6e565b80601f01602080910402602001604051908101604052809291908181526020018280546102ce90610c6e565b801561031b5780601f106102f05761010080835404028352916020019161031b565b820191906000526020600020905b8154815290600101906020018083116102fe57829003601f168201915b50505050508152505090506040518060400160405280600781526020017f626f6e6a6f7572000000000000000000000000000000000000000000000000008152508160200181905250809250505090565b60606000600367ffffffffffffffff81111561038b5761038a610894565b5b6040519080825280602002602001820160405280156103b95781602001602082028036833780820191505090505b5090506000868660008181106103d2576103d1610f1d565b5b90506020020135905080826000815181106103f0576103ef610f1d565b5b6020026020010181815250508192505050949350505050565b60606000600367ffffffffffffffff81111561042857610427610894565b5b6040519080825280602002602001820160405280156104565781602001602082028036833780820191505090505b50905060008460008151811061046f5761046e610f1d565b5b60200260200101519050808260008151811061048e5761048d610f1d565b5b602002602001018181525050819250505092915050565b60006020528060005260406000206000915090508060000154908060010180546104ce90610c6e565b80601f01602080910402602001604051908101604052809291908181526020018280546104fa90610c6e565b80156105475780601f1061051c57610100808354040283529160200191610547565b820191906000526020600020905b81548152906001019060200180831161052a57829003601f168201915b5050505050905082565b604051806040016040528060008152602001606081525090565b6000819050919050565b61057e8161056b565b82525050565b600081519050919050565b600082825260208201905092915050565b60005b838110156105be5780820151818401526020810190506105a3565b60008484015250505050565b6000601f19601f8301169050919050565b60006105e682610584565b6105f0818561058f565b93506106008185602086016105a0565b610609816105ca565b840191505092915050565b600060408301600083015161062c6000860182610575565b506020830151848203602086015261064482826105db565b9150508091505092915050565b6000602082019050818103600083015261066b8184610614565b905092915050565b6000604051905090565b600080fd5b600080fd5b600080fd5b600080fd5b600080fd5b60008083601f8401126106ac576106ab610687565b5b8235905067ffffffffffffffff8111156106c9576106c861068c565b5b6020830191508360208202830111156106e5576106e4610691565b5b9250929050565b60008083601f84011261070257610701610687565b5b8235905067ffffffffffffffff81111561071f5761071e61068c565b5b60208301915083600182028301111561073b5761073a610691565b5b9250929050565b6000806000806040858703121561075c5761075b61067d565b5b600085013567ffffffffffffffff81111561077a57610779610682565b5b61078687828801610696565b9450945050602085013567ffffffffffffffff8111156107a9576107a8610682565b5b6107b5878288016106ec565b925092505092959194509250565b600081519050919050565b600082825260208201905092915050565b6000819050602082019050919050565b60006107fb8383610575565b60208301905092915050565b6000602082019050919050565b600061081f826107c3565b61082981856107ce565b9350610834836107df565b8060005b8381101561086557815161084c88826107ef565b975061085783610807565b925050600181019050610838565b5085935050505092915050565b6000602082019050818103600083015261088c8184610814565b905092915050565b7f4e487b7100000000000000000000000000000000000000000000000000000000600052604160045260246000fd5b6108cc826105ca565b810181811067ffffffffffffffff821117156108eb576108ea610894565b5b80604052505050565b60006108fe610673565b905061090a82826108c3565b919050565b600067ffffffffffffffff82111561092a57610929610894565b5b602082029050602081019050919050565b6109448161056b565b811461094f57600080fd5b50565b6000813590506109618161093b565b92915050565b600061097a6109758461090f565b6108f4565b9050808382526020820190506020840283018581111561099d5761099c610691565b5b835b818110156109c657806109b28882610952565b84526020840193505060208101905061099f565b5050509392505050565b600082601f8301126109e5576109e4610687565b5b81356109f5848260208601610967565b91505092915050565b600080fd5b600067ffffffffffffffff821115610a1e57610a1d610894565b5b610a27826105ca565b9050602081019050919050565b82818337600083830152505050565b6000610a56610a5184610a03565b6108f4565b905082815260208101848484011115610a7257610a716109fe565b5b610a7d848285610a34565b509392505050565b600082601f830112610a9a57610a99610687565b5b8135610aaa848260208601610a43565b91505092915050565b60008060408385031215610aca57610ac961067d565b5b600083013567ffffffffffffffff811115610ae857610ae7610682565b5b610af4858286016109d0565b925050602083013567ffffffffffffffff811115610b1557610b14610682565b5b610b2185828601610a85565b9150509250929050565b600073ffffffffffffffffffffffffffffffffffffffff82169050919050565b6000610b5682610b2b565b9050919050565b610b6681610b4b565b8114610b7157600080fd5b50565b600081359050610b8381610b5d565b92915050565b600060208284031215610b9f57610b9e61067d565b5b6000610bad84828501610b74565b91505092915050565b610bbf8161056b565b82525050565b600082825260208201905092915050565b6000610be182610584565b610beb8185610bc5565b9350610bfb8185602086016105a0565b610c04816105ca565b840191505092915050565b6000604082019050610c246000830185610bb6565b8181036020830152610c368184610bd6565b90509392505050565b7f4e487b7100000000000000000000000000000000000000000000000000000000600052602260045260246000fd5b60006002820490506001821680610c8657607f821691505b602082108103610c9957610c98610c3f565b5b50919050565b60008190508160005260206000209050919050565b60006020601f8301049050919050565b600082821b905092915050565b600060088302610d017fffffffffffffffffffffffffffffffffffffffffffffffffffffffffffffffff82610cc4565b610d0b8683610cc4565b95508019841693508086168417925050509392505050565b6000819050919050565b6000610d48610d43610d3e8461056b565b610d23565b61056b565b9050919050565b6000819050919050565b610d6283610d2d565b610d76610d6e82610d4f565b848454610cd1565b825550505050565b600090565b610d8b610d7e565b610d96818484610d59565b505050565b5b81811015610dba57610daf600082610d83565b600181019050610d9c565b5050565b601f821115610dff57610dd081610c9f565b610dd984610cb4565b81016020851015610de8578190505b610dfc610df485610cb4565b830182610d9b565b50505b505050565b600082821c905092915050565b6000610e2260001984600802610e04565b1980831691505092915050565b6000610e3b8383610e11565b9150826002028217905092915050565b610e5482610584565b67ffffffffffffffff811115610e6d57610e6c610894565b5b610e778254610c6e565b610e82828285610dbe565b600060209050601f831160018114610eb55760008415610ea3578287015190505b610ead8582610e2f565b865550610f15565b601f198416610ec386610c9f565b60005b82811015610eeb57848901518255600182019150602085019450602081019050610ec6565b86831015610f085784890151610f04601f891682610e11565b8355505b6001600288020188555050505b505050505050565b7f4e487b7100000000000000000000000000000000000000000000000000000000600052603260045260246000fdfea26469706673582212203b5d556ed4b7513381a685ff4fa887713b3ec9a1e6d503f1a153657d328e01db64736f6c63430008130033",
			"opcodes": "PUSH1 0x80 PUSH1 0x40 MSTORE CALLVALUE DUP1 ISZERO PUSH2 0x10 JUMPI PUSH1 0x0 DUP1 REVERT JUMPDEST POP PUSH2 0xF82 DUP1 PUSH2 0x20 PUSH1 0x0 CODECOPY PUSH1 0x0 RETURN INVALID PUSH1 0x80 PUSH1 0x40 MSTORE CALLVALUE DUP1 ISZERO PUSH2 0x10 JUMPI PUSH1 0x0 DUP1 REVERT JUMPDEST POP PUSH1 0x4 CALLDATASIZE LT PUSH2 0x4C JUMPI PUSH1 0x0 CALLDATALOAD PUSH1 0xE0 SHR DUP1 PUSH4 0x335D00C2 EQ PUSH2 0x51 JUMPI DUP1 PUSH4 0x8766CDB5 EQ PUSH2 0x6F JUMPI DUP1 PUSH4 0xA701D733 EQ PUSH2 0x9F JUMPI DUP1 PUSH4 0xB43C5D33 EQ PUSH2 0xCF JUMPI JUMPDEST PUSH1 0x0 DUP1 REVERT JUMPDEST PUSH2 0x59 PUSH2 0x100 JUMP JUMPDEST PUSH1 0x40 MLOAD PUSH2 0x66 SWAP2 SWAP1 PUSH2 0x651 JUMP JUMPDEST PUSH1 0x40 MLOAD DUP1 SWAP2 SUB SWAP1 RETURN JUMPDEST PUSH2 0x89 PUSH1 0x4 DUP1 CALLDATASIZE SUB DUP2 ADD SWAP1 PUSH2 0x84 SWAP2 SWAP1 PUSH2 0x742 JUMP JUMPDEST PUSH2 0x36C JUMP JUMPDEST PUSH1 0x40 MLOAD PUSH2 0x96 SWAP2 SWAP1 PUSH2 0x872 JUMP JUMPDEST PUSH1 0x40 MLOAD DUP1 SWAP2 SUB SWAP1 RETURN JUMPDEST PUSH2 0xB9 PUSH1 0x4 DUP1 CALLDATASIZE SUB DUP2 ADD SWAP1 PUSH2 0xB4 SWAP2 SWAP1 PUSH2 0xAB3 JUMP JUMPDEST PUSH2 0x409 JUMP JUMPDEST PUSH1 0x40 MLOAD PUSH2 0xC6 SWAP2 SWAP1 PUSH2 0x872 JUMP JUMPDEST PUSH1 0x40 MLOAD DUP1 SWAP2 SUB SWAP1 RETURN JUMPDEST PUSH2 0xE9 PUSH1 0x4 DUP1 CALLDATASIZE SUB DUP2 ADD SWAP1 PUSH2 0xE4 SWAP2 SWAP1 PUSH2 0xB89 JUMP JUMPDEST PUSH2 0x4A5 JUMP JUMPDEST PUSH1 0x40 MLOAD PUSH2 0xF7 SWAP3 SWAP2 SWAP1 PUSH2 0xC0F JUMP JUMPDEST PUSH1 0x40 MLOAD DUP1 SWAP2 SUB SWAP1 RETURN JUMPDEST PUSH2 0x108 PUSH2 0x551 JUMP JUMPDEST PUSH1 0x40 MLOAD DUP1 PUSH1 0x40 ADD PUSH1 0x40 MSTORE DUP1 PUSH1 0x7B DUP2 MSTORE PUSH1 0x20 ADD PUSH1 0x40 MLOAD DUP1 PUSH1 0x40 ADD PUSH1 0x40 MSTORE DUP1 PUSH1 0x5 DUP2 MSTORE PUSH1 0x20 ADD PUSH32 0x616C6F6861000000000000000000000000000000000000000000000000000000 DUP2 MSTORE POP DUP2 MSTORE POP PUSH1 0x0 DUP1 CALLER PUSH20 0xFFFFFFFFFFFFFFFFFFFFFFFFFFFFFFFFFFFFFFFF AND PUSH20 0xFFFFFFFFFFFFFFFFFFFFFFFFFFFFFFFFFFFFFFFF AND DUP2 MSTORE PUSH1 0x20 ADD SWAP1 DUP2 MSTORE PUSH1 0x20 ADD PUSH1 0x0 KECCAK256 PUSH1 0x0 DUP3 ADD MLOAD DUP2 PUSH1 0x0 ADD SSTORE PUSH1 0x20 DUP3 ADD MLOAD DUP2 PUSH1 0x1 ADD SWAP1 DUP2 PUSH2 0x1B0 SWAP2 SWAP1 PUSH2 0xE4B JUMP JUMPDEST POP SWAP1 POP POP PUSH1 0x0 DUP1 PUSH1 0x0 CALLER PUSH20 0xFFFFFFFFFFFFFFFFFFFFFFFFFFFFFFFFFFFFFFFF AND PUSH20 0xFFFFFFFFFFFFFFFFFFFFFFFFFFFFFFFFFFFFFFFF AND DUP2 MSTORE PUSH1 0x20 ADD SWAP1 DUP2 MSTORE PUSH1 0x20 ADD PUSH1 0x0 KECCAK256 SWAP1 POP PUSH1 0x40 MLOAD DUP1 PUSH1 0x40 ADD PUSH1 0x40 MSTORE DUP1 PUSH1 0x5 DUP2 MSTORE PUSH1 0x20 ADD PUSH32 0x68656C6C6F000000000000000000000000000000000000000000000000000000 DUP2 MSTORE POP DUP2 PUSH1 0x1 ADD SWAP1 DUP2 PUSH2 0x23C SWAP2 SWAP1 PUSH2 0xE4B JUMP JUMPDEST POP PUSH1 0x0 DUP1 PUSH1 0x0 CALLER PUSH20 0xFFFFFFFFFFFFFFFFFFFFFFFFFFFFFFFFFFFFFFFF AND PUSH20 0xFFFFFFFFFFFFFFFFFFFFFFFFFFFFFFFFFFFFFFFF AND DUP2 MSTORE PUSH1 0x20 ADD SWAP1 DUP2 MSTORE PUSH1 0x20 ADD PUSH1 0x0 KECCAK256 PUSH1 0x40 MLOAD DUP1 PUSH1 0x40 ADD PUSH1 0x40 MSTORE SWAP1 DUP2 PUSH1 0x0 DUP3 ADD SLOAD DUP2 MSTORE PUSH1 0x20 ADD PUSH1 0x1 DUP3 ADD DUP1 SLOAD PUSH2 0x2A2 SWAP1 PUSH2 0xC6E JUMP JUMPDEST DUP1 PUSH1 0x1F ADD PUSH1 0x20 DUP1 SWAP2 DIV MUL PUSH1 0x20 ADD PUSH1 0x40 MLOAD SWAP1 DUP2 ADD PUSH1 0x40 MSTORE DUP1 SWAP3 SWAP2 SWAP1 DUP2 DUP2 MSTORE PUSH1 0x20 ADD DUP3 DUP1 SLOAD PUSH2 0x2CE SWAP1 PUSH2 0xC6E JUMP JUMPDEST DUP1 ISZERO PUSH2 0x31B JUMPI DUP1 PUSH1 0x1F LT PUSH2 0x2F0 JUMPI PUSH2 0x100 DUP1 DUP4 SLOAD DIV MUL DUP4 MSTORE SWAP2 PUSH1 0x20 ADD SWAP2 PUSH2 0x31B JUMP JUMPDEST DUP3 ADD SWAP2 SWAP1 PUSH1 0x0 MSTORE PUSH1 0x20 PUSH1 0x0 KECCAK256 SWAP1 JUMPDEST DUP2 SLOAD DUP2 MSTORE SWAP1 PUSH1 0x1 ADD SWAP1 PUSH1 0x20 ADD DUP1 DUP4 GT PUSH2 0x2FE JUMPI DUP3 SWAP1 SUB PUSH1 0x1F AND DUP3 ADD SWAP2 JUMPDEST POP POP POP POP POP DUP2 MSTORE POP POP SWAP1 POP PUSH1 0x40 MLOAD DUP1 PUSH1 0x40 ADD PUSH1 0x40 MSTORE DUP1 PUSH1 0x7 DUP2 MSTORE PUSH1 0x20 ADD PUSH32 0x626F6E6A6F757200000000000000000000000000000000000000000000000000 DUP2 MSTORE POP DUP2 PUSH1 0x20 ADD DUP2 SWAP1 MSTORE POP DUP1 SWAP3 POP POP POP SWAP1 JUMP JUMPDEST PUSH1 0x60 PUSH1 0x0 PUSH1 0x3 PUSH8 0xFFFFFFFFFFFFFFFF DUP2 GT ISZERO PUSH2 0x38B JUMPI PUSH2 0x38A PUSH2 0x894 JUMP JUMPDEST JUMPDEST PUSH1 0x40 MLOAD SWAP1 DUP1 DUP3 MSTORE DUP1 PUSH1 0x20 MUL PUSH1 0x20 ADD DUP3 ADD PUSH1 0x40 MSTORE DUP1 ISZERO PUSH2 0x3B9 JUMPI DUP2 PUSH1 0x20 ADD PUSH1 0x20 DUP3 MUL DUP1 CALLDATASIZE DUP4 CALLDATACOPY DUP1 DUP3 ADD SWAP2 POP POP SWAP1 POP JUMPDEST POP SWAP1 POP PUSH1 0x0 DUP7 DUP7 PUSH1 0x0 DUP2 DUP2 LT PUSH2 0x3D2 JUMPI PUSH2 0x3D1 PUSH2 0xF1D JUMP JUMPDEST JUMPDEST SWAP1 POP PUSH1 0x20 MUL ADD CALLDATALOAD SWAP1 POP DUP1 DUP3 PUSH1 0x0 DUP2 MLOAD DUP2 LT PUSH2 0x3F0 JUMPI PUSH2 0x3EF PUSH2 0xF1D JUMP JUMPDEST JUMPDEST PUSH1 0x20 MUL PUSH1 0x20 ADD ADD DUP2 DUP2 MSTORE POP POP DUP2 SWAP3 POP POP POP SWAP5 SWAP4 POP POP POP POP JUMP JUMPDEST PUSH1 0x60 PUSH1 0x0 PUSH1 0x3 PUSH8 0xFFFFFFFFFFFFFFFF DUP2 GT ISZERO PUSH2 0x428 JUMPI PUSH2 0x427 PUSH2 0x894 JUMP JUMPDEST JUMPDEST PUSH1 0x40 MLOAD SWAP1 DUP1 DUP3 MSTORE DUP1 PUSH1 0x20 MUL PUSH1 0x20 ADD DUP3 ADD PUSH1 0x40 MSTORE DUP1 ISZERO PUSH2 0x456 JUMPI DUP2 PUSH1 0x20 ADD PUSH1 0x20 DUP3 MUL DUP1 CALLDATASIZE DUP4 CALLDATACOPY DUP1 DUP3 ADD SWAP2 POP POP SWAP1 POP JUMPDEST POP SWAP1 POP PUSH1 0x0 DUP5 PUSH1 0x0 DUP2 MLOAD DUP2 LT PUSH2 0x46F JUMPI PUSH2 0x46E PUSH2 0xF1D JUMP JUMPDEST JUMPDEST PUSH1 0x20 MUL PUSH1 0x20 ADD ADD MLOAD SWAP1 POP DUP1 DUP3 PUSH1 0x0 DUP2 MLOAD DUP2 LT PUSH2 0x48E JUMPI PUSH2 0x48D PUSH2 0xF1D JUMP JUMPDEST JUMPDEST PUSH1 0x20 MUL PUSH1 0x20 ADD ADD DUP2 DUP2 MSTORE POP POP DUP2 SWAP3 POP POP POP SWAP3 SWAP2 POP POP JUMP JUMPDEST PUSH1 0x0 PUSH1 0x20 MSTORE DUP1 PUSH1 0x0 MSTORE PUSH1 0x40 PUSH1 0x0 KECCAK256 PUSH1 0x0 SWAP2 POP SWAP1 POP DUP1 PUSH1 0x0 ADD SLOAD SWAP1 DUP1 PUSH1 0x1 ADD DUP1 SLOAD PUSH2 0x4CE SWAP1 PUSH2 0xC6E JUMP JUMPDEST DUP1 PUSH1 0x1F ADD PUSH1 0x20 DUP1 SWAP2 DIV MUL PUSH1 0x20 ADD PUSH1 0x40 MLOAD SWAP1 DUP2 ADD PUSH1 0x40 MSTORE DUP1 SWAP3 SWAP2 SWAP1 DUP2 DUP2 MSTORE PUSH1 0x20 ADD DUP3 DUP1 SLOAD PUSH2 0x4FA SWAP1 PUSH2 0xC6E JUMP JUMPDEST DUP1 ISZERO PUSH2 0x547 JUMPI DUP1 PUSH1 0x1F LT PUSH2 0x51C JUMPI PUSH2 0x100 DUP1 DUP4 SLOAD DIV MUL DUP4 MSTORE SWAP2 PUSH1 0x20 ADD SWAP2 PUSH2 0x547 JUMP JUMPDEST DUP3 ADD SWAP2 SWAP1 PUSH1 0x0 MSTORE PUSH1 0x20 PUSH1 0x0 KECCAK256 SWAP1 JUMPDEST DUP2 SLOAD DUP2 MSTORE SWAP1 PUSH1 0x1 ADD SWAP1 PUSH1 0x20 ADD DUP1 DUP4 GT PUSH2 0x52A JUMPI DUP3 SWAP1 SUB PUSH1 0x1F AND DUP3 ADD SWAP2 JUMPDEST POP POP POP POP POP SWAP1 POP DUP3 JUMP JUMPDEST PUSH1 0x40 MLOAD DUP1 PUSH1 0x40 ADD PUSH1 0x40 MSTORE DUP1 PUSH1 0x0 DUP2 MSTORE PUSH1 0x20 ADD PUSH1 0x60 DUP2 MSTORE POP SWAP1 JUMP JUMPDEST PUSH1 0x0 DUP2 SWAP1 POP SWAP2 SWAP1 POP JUMP JUMPDEST PUSH2 0x57E DUP2 PUSH2 0x56B JUMP JUMPDEST DUP3 MSTORE POP POP JUMP JUMPDEST PUSH1 0x0 DUP2 MLOAD SWAP1 POP SWAP2 SWAP1 POP JUMP JUMPDEST PUSH1 0x0 DUP3 DUP3 MSTORE PUSH1 0x20 DUP3 ADD SWAP1 POP SWAP3 SWAP2 POP POP JUMP JUMPDEST PUSH1 0x0 JUMPDEST DUP4 DUP2 LT ISZERO PUSH2 0x5BE JUMPI DUP1 DUP3 ADD MLOAD DUP2 DUP5 ADD MSTORE PUSH1 0x20 DUP2 ADD SWAP1 POP PUSH2 0x5A3 JUMP JUMPDEST PUSH1 0x0 DUP5 DUP5 ADD MSTORE POP POP POP POP JUMP JUMPDEST PUSH1 0x0 PUSH1 0x1F NOT PUSH1 0x1F DUP4 ADD AND SWAP1 POP SWAP2 SWAP1 POP JUMP JUMPDEST PUSH1 0x0 PUSH2 0x5E6 DUP3 PUSH2 0x584 JUMP JUMPDEST PUSH2 0x5F0 DUP2 DUP6 PUSH2 0x58F JUMP JUMPDEST SWAP4 POP PUSH2 0x600 DUP2 DUP6 PUSH1 0x20 DUP7 ADD PUSH2 0x5A0 JUMP JUMPDEST PUSH2 0x609 DUP2 PUSH2 0x5CA JUMP JUMPDEST DUP5 ADD SWAP2 POP POP SWAP3 SWAP2 POP POP JUMP JUMPDEST PUSH1 0x0 PUSH1 0x40 DUP4 ADD PUSH1 0x0 DUP4 ADD MLOAD PUSH2 0x62C PUSH1 0x0 DUP7 ADD DUP3 PUSH2 0x575 JUMP JUMPDEST POP PUSH1 0x20 DUP4 ADD MLOAD DUP5 DUP3 SUB PUSH1 0x20 DUP7 ADD MSTORE PUSH2 0x644 DUP3 DUP3 PUSH2 0x5DB JUMP JUMPDEST SWAP2 POP POP DUP1 SWAP2 POP POP SWAP3 SWAP2 POP POP JUMP JUMPDEST PUSH1 0x0 PUSH1 0x20 DUP3 ADD SWAP1 POP DUP2 DUP2 SUB PUSH1 0x0 DUP4 ADD MSTORE PUSH2 0x66B DUP2 DUP5 PUSH2 0x614 JUMP JUMPDEST SWAP1 POP SWAP3 SWAP2 POP POP JUMP JUMPDEST PUSH1 0x0 PUSH1 0x40 MLOAD SWAP1 POP SWAP1 JUMP JUMPDEST PUSH1 0x0 DUP1 REVERT JUMPDEST PUSH1 0x0 DUP1 REVERT JUMPDEST PUSH1 0x0 DUP1 REVERT JUMPDEST PUSH1 0x0 DUP1 REVERT JUMPDEST PUSH1 0x0 DUP1 REVERT JUMPDEST PUSH1 0x0 DUP1 DUP4 PUSH1 0x1F DUP5 ADD SLT PUSH2 0x6AC JUMPI PUSH2 0x6AB PUSH2 0x687 JUMP JUMPDEST JUMPDEST DUP3 CALLDATALOAD SWAP1 POP PUSH8 0xFFFFFFFFFFFFFFFF DUP2 GT ISZERO PUSH2 0x6C9 JUMPI PUSH2 0x6C8 PUSH2 0x68C JUMP JUMPDEST JUMPDEST PUSH1 0x20 DUP4 ADD SWAP2 POP DUP4 PUSH1 0x20 DUP3 MUL DUP4 ADD GT ISZERO PUSH2 0x6E5 JUMPI PUSH2 0x6E4 PUSH2 0x691 JUMP JUMPDEST JUMPDEST SWAP3 POP SWAP3 SWAP1 POP JUMP JUMPDEST PUSH1 0x0 DUP1 DUP4 PUSH1 0x1F DUP5 ADD SLT PUSH2 0x702 JUMPI PUSH2 0x701 PUSH2 0x687 JUMP JUMPDEST JUMPDEST DUP3 CALLDATALOAD SWAP1 POP PUSH8 0xFFFFFFFFFFFFFFFF DUP2 GT ISZERO PUSH2 0x71F JUMPI PUSH2 0x71E PUSH2 0x68C JUMP JUMPDEST JUMPDEST PUSH1 0x20 DUP4 ADD SWAP2 POP DUP4 PUSH1 0x1 DUP3 MUL DUP4 ADD GT ISZERO PUSH2 0x73B JUMPI PUSH2 0x73A PUSH2 0x691 JUMP JUMPDEST JUMPDEST SWAP3 POP SWAP3 SWAP1 POP JUMP JUMPDEST PUSH1 0x0 DUP1 PUSH1 0x0 DUP1 PUSH1 0x40 DUP6 DUP8 SUB SLT ISZERO PUSH2 0x75C JUMPI PUSH2 0x75B PUSH2 0x67D JUMP JUMPDEST JUMPDEST PUSH1 0x0 DUP6 ADD CALLDATALOAD PUSH8 0xFFFFFFFFFFFFFFFF DUP2 GT ISZERO PUSH2 0x77A JUMPI PUSH2 0x779 PUSH2 0x682 JUMP JUMPDEST JUMPDEST PUSH2 0x786 DUP8 DUP3 DUP9 ADD PUSH2 0x696 JUMP JUMPDEST SWAP5 POP SWAP5 POP POP PUSH1 0x20 DUP6 ADD CALLDATALOAD PUSH8 0xFFFFFFFFFFFFFFFF DUP2 GT ISZERO PUSH2 0x7A9 JUMPI PUSH2 0x7A8 PUSH2 0x682 JUMP JUMPDEST JUMPDEST PUSH2 0x7B5 DUP8 DUP3 DUP9 ADD PUSH2 0x6EC JUMP JUMPDEST SWAP3 POP SWAP3 POP POP SWAP3 SWAP6 SWAP2 SWAP5 POP SWAP3 POP JUMP JUMPDEST PUSH1 0x0 DUP2 MLOAD SWAP1 POP SWAP2 SWAP1 POP JUMP JUMPDEST PUSH1 0x0 DUP3 DUP3 MSTORE PUSH1 0x20 DUP3 ADD SWAP1 POP SWAP3 SWAP2 POP POP JUMP JUMPDEST PUSH1 0x0 DUP2 SWAP1 POP PUSH1 0x20 DUP3 ADD SWAP1 POP SWAP2 SWAP1 POP JUMP JUMPDEST PUSH1 0x0 PUSH2 0x7FB DUP4 DUP4 PUSH2 0x575 JUMP JUMPDEST PUSH1 0x20 DUP4 ADD SWAP1 POP SWAP3 SWAP2 POP POP JUMP JUMPDEST PUSH1 0x0 PUSH1 0x20 DUP3 ADD SWAP1 POP SWAP2 SWAP1 POP JUMP JUMPDEST PUSH1 0x0 PUSH2 0x81F DUP3 PUSH2 0x7C3 JUMP JUMPDEST PUSH2 0x829 DUP2 DUP6 PUSH2 0x7CE JUMP JUMPDEST SWAP4 POP PUSH2 0x834 DUP4 PUSH2 0x7DF JUMP JUMPDEST DUP1 PUSH1 0x0 JUMPDEST DUP4 DUP2 LT ISZERO PUSH2 0x865 JUMPI DUP2 MLOAD PUSH2 0x84C DUP9 DUP3 PUSH2 0x7EF JUMP JUMPDEST SWAP8 POP PUSH2 0x857 DUP4 PUSH2 0x807 JUMP JUMPDEST SWAP3 POP POP PUSH1 0x1 DUP2 ADD SWAP1 POP PUSH2 0x838 JUMP JUMPDEST POP DUP6 SWAP4 POP POP POP POP SWAP3 SWAP2 POP POP JUMP JUMPDEST PUSH1 0x0 PUSH1 0x20 DUP3 ADD SWAP1 POP DUP2 DUP2 SUB PUSH1 0x0 DUP4 ADD MSTORE PUSH2 0x88C DUP2 DUP5 PUSH2 0x814 JUMP JUMPDEST SWAP1 POP SWAP3 SWAP2 POP POP JUMP JUMPDEST PUSH32 0x4E487B7100000000000000000000000000000000000000000000000000000000 PUSH1 0x0 MSTORE PUSH1 0x41 PUSH1 0x4 MSTORE PUSH1 0x24 PUSH1 0x0 REVERT JUMPDEST PUSH2 0x8CC DUP3 PUSH2 0x5CA JUMP JUMPDEST DUP2 ADD DUP2 DUP2 LT PUSH8 0xFFFFFFFFFFFFFFFF DUP3 GT OR ISZERO PUSH2 0x8EB JUMPI PUSH2 0x8EA PUSH2 0x894 JUMP JUMPDEST JUMPDEST DUP1 PUSH1 0x40 MSTORE POP POP POP JUMP JUMPDEST PUSH1 0x0 PUSH2 0x8FE PUSH2 0x673 JUMP JUMPDEST SWAP1 POP PUSH2 0x90A DUP3 DUP3 PUSH2 0x8C3 JUMP JUMPDEST SWAP2 SWAP1 POP JUMP JUMPDEST PUSH1 0x0 PUSH8 0xFFFFFFFFFFFFFFFF DUP3 GT ISZERO PUSH2 0x92A JUMPI PUSH2 0x929 PUSH2 0x894 JUMP JUMPDEST JUMPDEST PUSH1 0x20 DUP3 MUL SWAP1 POP PUSH1 0x20 DUP2 ADD SWAP1 POP SWAP2 SWAP1 POP JUMP JUMPDEST PUSH2 0x944 DUP2 PUSH2 0x56B JUMP JUMPDEST DUP2 EQ PUSH2 0x94F JUMPI PUSH1 0x0 DUP1 REVERT JUMPDEST POP JUMP JUMPDEST PUSH1 0x0 DUP2 CALLDATALOAD SWAP1 POP PUSH2 0x961 DUP2 PUSH2 0x93B JUMP JUMPDEST SWAP3 SWAP2 POP POP JUMP JUMPDEST PUSH1 0x0 PUSH2 0x97A PUSH2 0x975 DUP5 PUSH2 0x90F JUMP JUMPDEST PUSH2 0x8F4 JUMP JUMPDEST SWAP1 POP DUP1 DUP4 DUP3 MSTORE PUSH1 0x20 DUP3 ADD SWAP1 POP PUSH1 0x20 DUP5 MUL DUP4 ADD DUP6 DUP2 GT ISZERO PUSH2 0x99D JUMPI PUSH2 0x99C PUSH2 0x691 JUMP JUMPDEST JUMPDEST DUP4 JUMPDEST DUP2 DUP2 LT ISZERO PUSH2 0x9C6 JUMPI DUP1 PUSH2 0x9B2 DUP9 DUP3 PUSH2 0x952 JUMP JUMPDEST DUP5 MSTORE PUSH1 0x20 DUP5 ADD SWAP4 POP POP PUSH1 0x20 DUP2 ADD SWAP1 POP PUSH2 0x99F JUMP JUMPDEST POP POP POP SWAP4 SWAP3 POP POP POP JUMP JUMPDEST PUSH1 0x0 DUP3 PUSH1 0x1F DUP4 ADD SLT PUSH2 0x9E5 JUMPI PUSH2 0x9E4 PUSH2 0x687 JUMP JUMPDEST JUMPDEST DUP2 CALLDATALOAD PUSH2 0x9F5 DUP5 DUP3 PUSH1 0x20 DUP7 ADD PUSH2 0x967 JUMP JUMPDEST SWAP2 POP POP SWAP3 SWAP2 POP POP JUMP JUMPDEST PUSH1 0x0 DUP1 REVERT JUMPDEST PUSH1 0x0 PUSH8 0xFFFFFFFFFFFFFFFF DUP3 GT ISZERO PUSH2 0xA1E JUMPI PUSH2 0xA1D PUSH2 0x894 JUMP JUMPDEST JUMPDEST PUSH2 0xA27 DUP3 PUSH2 0x5CA JUMP JUMPDEST SWAP1 POP PUSH1 0x20 DUP2 ADD SWAP1 POP SWAP2 SWAP1 POP JUMP JUMPDEST DUP3 DUP2 DUP4 CALLDATACOPY PUSH1 0x0 DUP4 DUP4 ADD MSTORE POP POP POP JUMP JUMPDEST PUSH1 0x0 PUSH2 0xA56 PUSH2 0xA51 DUP5 PUSH2 0xA03 JUMP JUMPDEST PUSH2 0x8F4 JUMP JUMPDEST SWAP1 POP DUP3 DUP2 MSTORE PUSH1 0x20 DUP2 ADD DUP5 DUP5 DUP5 ADD GT ISZERO PUSH2 0xA72 JUMPI PUSH2 0xA71 PUSH2 0x9FE JUMP JUMPDEST JUMPDEST PUSH2 0xA7D DUP5 DUP3 DUP6 PUSH2 0xA34 JUMP JUMPDEST POP SWAP4 SWAP3 POP POP POP JUMP JUMPDEST PUSH1 0x0 DUP3 PUSH1 0x1F DUP4 ADD SLT PUSH2 0xA9A JUMPI PUSH2 0xA99 PUSH2 0x687 JUMP JUMPDEST JUMPDEST DUP2 CALLDATALOAD PUSH2 0xAAA DUP5 DUP3 PUSH1 0x20 DUP7 ADD PUSH2 0xA43 JUMP JUMPDEST SWAP2 POP POP SWAP3 SWAP2 POP POP JUMP JUMPDEST PUSH1 0x0 DUP1 PUSH1 0x40 DUP4 DUP6 SUB SLT ISZERO PUSH2 0xACA JUMPI PUSH2 0xAC9 PUSH2 0x67D JUMP JUMPDEST JUMPDEST PUSH1 0x0 DUP4 ADD CALLDATALOAD PUSH8 0xFFFFFFFFFFFFFFFF DUP2 GT ISZERO PUSH2 0xAE8 JUMPI PUSH2 0xAE7 PUSH2 0x682 JUMP JUMPDEST JUMPDEST PUSH2 0xAF4 DUP6 DUP3 DUP7 ADD PUSH2 0x9D0 JUMP JUMPDEST SWAP3 POP POP PUSH1 0x20 DUP4 ADD CALLDATALOAD PUSH8 0xFFFFFFFFFFFFFFFF DUP2 GT ISZERO PUSH2 0xB15 JUMPI PUSH2 0xB14 PUSH2 0x682 JUMP JUMPDEST JUMPDEST PUSH2 0xB21 DUP6 DUP3 DUP7 ADD PUSH2 0xA85 JUMP JUMPDEST SWAP2 POP POP SWAP3 POP SWAP3 SWAP1 POP JUMP JUMPDEST PUSH1 0x0 PUSH20 0xFFFFFFFFFFFFFFFFFFFFFFFFFFFFFFFFFFFFFFFF DUP3 AND SWAP1 POP SWAP2 SWAP1 POP JUMP JUMPDEST PUSH1 0x0 PUSH2 0xB56 DUP3 PUSH2 0xB2B JUMP JUMPDEST SWAP1 POP SWAP2 SWAP1 POP JUMP JUMPDEST PUSH2 0xB66 DUP2 PUSH2 0xB4B JUMP JUMPDEST DUP2 EQ PUSH2 0xB71 JUMPI PUSH1 0x0 DUP1 REVERT JUMPDEST POP JUMP JUMPDEST PUSH1 0x0 DUP2 CALLDATALOAD SWAP1 POP PUSH2 0xB83 DUP2 PUSH2 0xB5D JUMP JUMPDEST SWAP3 SWAP2 POP POP JUMP JUMPDEST PUSH1 0x0 PUSH1 0x20 DUP3 DUP5 SUB SLT ISZERO PUSH2 0xB9F JUMPI PUSH2 0xB9E PUSH2 0x67D JUMP JUMPDEST JUMPDEST PUSH1 0x0 PUSH2 0xBAD DUP5 DUP3 DUP6 ADD PUSH2 0xB74 JUMP JUMPDEST SWAP2 POP POP SWAP3 SWAP2 POP POP JUMP JUMPDEST PUSH2 0xBBF DUP2 PUSH2 0x56B JUMP JUMPDEST DUP3 MSTORE POP POP JUMP JUMPDEST PUSH1 0x0 DUP3 DUP3 MSTORE PUSH1 0x20 DUP3 ADD SWAP1 POP SWAP3 SWAP2 POP POP JUMP JUMPDEST PUSH1 0x0 PUSH2 0xBE1 DUP3 PUSH2 0x584 JUMP JUMPDEST PUSH2 0xBEB DUP2 DUP6 PUSH2 0xBC5 JUMP JUMPDEST SWAP4 POP PUSH2 0xBFB DUP2 DUP6 PUSH1 0x20 DUP7 ADD PUSH2 0x5A0 JUMP JUMPDEST PUSH2 0xC04 DUP2 PUSH2 0x5CA JUMP JUMPDEST DUP5 ADD SWAP2 POP POP SWAP3 SWAP2 POP POP JUMP JUMPDEST PUSH1 0x0 PUSH1 0x40 DUP3 ADD SWAP1 POP PUSH2 0xC24 PUSH1 0x0 DUP4 ADD DUP6 PUSH2 0xBB6 JUMP JUMPDEST DUP2 DUP2 SUB PUSH1 0x20 DUP4 ADD MSTORE PUSH2 0xC36 DUP2 DUP5 PUSH2 0xBD6 JUMP JUMPDEST SWAP1 POP SWAP4 SWAP3 POP POP POP JUMP JUMPDEST PUSH32 0x4E487B7100000000000000000000000000000000000000000000000000000000 PUSH1 0x0 MSTORE PUSH1 0x22 PUSH1 0x4 MSTORE PUSH1 0x24 PUSH1 0x0 REVERT JUMPDEST PUSH1 0x0 PUSH1 0x2 DUP3 DIV SWAP1 POP PUSH1 0x1 DUP3 AND DUP1 PUSH2 0xC86 JUMPI PUSH1 0x7F DUP3 AND SWAP2 POP JUMPDEST PUSH1 0x20 DUP3 LT DUP2 SUB PUSH2 0xC99 JUMPI PUSH2 0xC98 PUSH2 0xC3F JUMP JUMPDEST JUMPDEST POP SWAP2 SWAP1 POP JUMP JUMPDEST PUSH1 0x0 DUP2 SWAP1 POP DUP2 PUSH1 0x0 MSTORE PUSH1 0x20 PUSH1 0x0 KECCAK256 SWAP1 POP SWAP2 SWAP1 POP JUMP JUMPDEST PUSH1 0x0 PUSH1 0x20 PUSH1 0x1F DUP4 ADD DIV SWAP1 POP SWAP2 SWAP1 POP JUMP JUMPDEST PUSH1 0x0 DUP3 DUP3 SHL SWAP1 POP SWAP3 SWAP2 POP POP JUMP JUMPDEST PUSH1 0x0 PUSH1 0x8 DUP4 MUL PUSH2 0xD01 PUSH32 0xFFFFFFFFFFFFFFFFFFFFFFFFFFFFFFFFFFFFFFFFFFFFFFFFFFFFFFFFFFFFFFFF DUP3 PUSH2 0xCC4 JUMP JUMPDEST PUSH2 0xD0B DUP7 DUP4 PUSH2 0xCC4 JUMP JUMPDEST SWAP6 POP DUP1 NOT DUP5 AND SWAP4 POP DUP1 DUP7 AND DUP5 OR SWAP3 POP POP POP SWAP4 SWAP3 POP POP POP JUMP JUMPDEST PUSH1 0x0 DUP2 SWAP1 POP SWAP2 SWAP1 POP JUMP JUMPDEST PUSH1 0x0 PUSH2 0xD48 PUSH2 0xD43 PUSH2 0xD3E DUP5 PUSH2 0x56B JUMP JUMPDEST PUSH2 0xD23 JUMP JUMPDEST PUSH2 0x56B JUMP JUMPDEST SWAP1 POP SWAP2 SWAP1 POP JUMP JUMPDEST PUSH1 0x0 DUP2 SWAP1 POP SWAP2 SWAP1 POP JUMP JUMPDEST PUSH2 0xD62 DUP4 PUSH2 0xD2D JUMP JUMPDEST PUSH2 0xD76 PUSH2 0xD6E DUP3 PUSH2 0xD4F JUMP JUMPDEST DUP5 DUP5 SLOAD PUSH2 0xCD1 JUMP JUMPDEST DUP3 SSTORE POP POP POP POP JUMP JUMPDEST PUSH1 0x0 SWAP1 JUMP JUMPDEST PUSH2 0xD8B PUSH2 0xD7E JUMP JUMPDEST PUSH2 0xD96 DUP2 DUP5 DUP5 PUSH2 0xD59 JUMP JUMPDEST POP POP POP JUMP JUMPDEST JUMPDEST DUP2 DUP2 LT ISZERO PUSH2 0xDBA JUMPI PUSH2 0xDAF PUSH1 0x0 DUP3 PUSH2 0xD83 JUMP JUMPDEST PUSH1 0x1 DUP2 ADD SWAP1 POP PUSH2 0xD9C JUMP JUMPDEST POP POP JUMP JUMPDEST PUSH1 0x1F DUP3 GT ISZERO PUSH2 0xDFF JUMPI PUSH2 0xDD0 DUP2 PUSH2 0xC9F JUMP JUMPDEST PUSH2 0xDD9 DUP5 PUSH2 0xCB4 JUMP JUMPDEST DUP2 ADD PUSH1 0x20 DUP6 LT ISZERO PUSH2 0xDE8 JUMPI DUP2 SWAP1 POP JUMPDEST PUSH2 0xDFC PUSH2 0xDF4 DUP6 PUSH2 0xCB4 JUMP JUMPDEST DUP4 ADD DUP3 PUSH2 0xD9B JUMP JUMPDEST POP POP JUMPDEST POP POP POP JUMP JUMPDEST PUSH1 0x0 DUP3 DUP3 SHR SWAP1 POP SWAP3 SWAP2 POP POP JUMP JUMPDEST PUSH1 0x0 PUSH2 0xE22 PUSH1 0x0 NOT DUP5 PUSH1 0x8 MUL PUSH2 0xE04 JUMP JUMPDEST NOT DUP1 DUP4 AND SWAP2 POP POP SWAP3 SWAP2 POP POP JUMP JUMPDEST PUSH1 0x0 PUSH2 0xE3B DUP4 DUP4 PUSH2 0xE11 JUMP JUMPDEST SWAP2 POP DUP3 PUSH1 0x2 MUL DUP3 OR SWAP1 POP SWAP3 SWAP2 POP POP JUMP JUMPDEST PUSH2 0xE54 DUP3 PUSH2 0x584 JUMP JUMPDEST PUSH8 0xFFFFFFFFFFFFFFFF DUP2 GT ISZERO PUSH2 0xE6D JUMPI PUSH2 0xE6C PUSH2 0x894 JUMP JUMPDEST JUMPDEST PUSH2 0xE77 DUP3 SLOAD PUSH2 0xC6E JUMP JUMPDEST PUSH2 0xE82 DUP3 DUP3 DUP6 PUSH2 0xDBE JUMP JUMPDEST PUSH1 0x0 PUSH1 0x20 SWAP1 POP PUSH1 0x1F DUP4 GT PUSH1 0x1 DUP2 EQ PUSH2 0xEB5 JUMPI PUSH1 0x0 DUP5 ISZERO PUSH2 0xEA3 JUMPI DUP3 DUP8 ADD MLOAD SWAP1 POP JUMPDEST PUSH2 0xEAD DUP6 DUP3 PUSH2 0xE2F JUMP JUMPDEST DUP7 SSTORE POP PUSH2 0xF15 JUMP JUMPDEST PUSH1 0x1F NOT DUP5 AND PUSH2 0xEC3 DUP7 PUSH2 0xC9F JUMP JUMPDEST PUSH1 0x0 JUMPDEST DUP3 DUP2 LT ISZERO PUSH2 0xEEB JUMPI DUP5 DUP10 ADD MLOAD DUP3 SSTORE PUSH1 0x1 DUP3 ADD SWAP2 POP PUSH1 0x20 DUP6 ADD SWAP5 POP PUSH1 0x20 DUP2 ADD SWAP1 POP PUSH2 0xEC6 JUMP JUMPDEST DUP7 DUP4 LT ISZERO PUSH2 0xF08 JUMPI DUP5 DUP10 ADD MLOAD PUSH2 0xF04 PUSH1 0x1F DUP10 AND DUP3 PUSH2 0xE11 JUMP JUMPDEST DUP4 SSTORE POP JUMPDEST PUSH1 0x1 PUSH1 0x2 DUP9 MUL ADD DUP9 SSTORE POP POP POP JUMPDEST POP POP POP POP POP POP JUMP JUMPDEST PUSH32 0x4E487B7100000000000000000000000000000000000000000000000000000000 PUSH1 0x0 MSTORE PUSH1 0x32 PUSH1 0x4 MSTORE PUSH1 0x24 PUSH1 0x0 REVERT INVALID LOG2 PUSH5 0x6970667358 0x22 SLT KECCAK256 EXTCODESIZE 0x5D SSTORE PUSH15 0xD4B7513381A685FF4FA887713B3EC9 LOG1 0xE6 0xD5 SUB CALL LOG1 MSTORE8 PUSH6 0x7D328E01DB64 PUSH20 0x6F6C634300081300330000000000000000000000 "
		},
		"gasEstimates": {
			"creation": {
				"codeDepositCost": "794000",
				"executionCost": "831",
				"totalCost": "794831"
			},
			"external": {
				"examples()": "infinite",
				"examples2(uint256[],string)": "infinite",
				"examples3(uint256[],string)": "infinite",
				"myStructs(address)": "infinite"
			}
		},
		"methodIdentifiers": {
			"examples()": "335d00c2",
			"examples2(uint256[],string)": "a701d733",
			"examples3(uint256[],string)": "8766cdb5",
			"myStructs(address)": "b43c5d33"
		}
	},
	"abi": [
		{
			"inputs": [],
			"name": "examples",
			"outputs": [
				{
					"components": [
						{
							"internalType": "uint256",
							"name": "foo",
							"type": "uint256"
						},
						{
							"internalType": "string",
							"name": "text",
							"type": "string"
						}
					],
					"internalType": "struct DataLocations.MyStruct",
					"name": "",
					"type": "tuple"
				}
			],
			"stateMutability": "nonpayable",
			"type": "function"
		},
		{
			"inputs": [
				{
					"internalType": "uint256[]",
					"name": "y",
					"type": "uint256[]"
				},
				{
					"internalType": "string",
					"name": "s",
					"type": "string"
				}
			],
			"name": "examples2",
			"outputs": [
				{
					"internalType": "uint256[]",
					"name": "",
					"type": "uint256[]"
				}
			],
			"stateMutability": "pure",
			"type": "function"
		},
		{
			"inputs": [
				{
					"internalType": "uint256[]",
					"name": "y",
					"type": "uint256[]"
				},
				{
					"internalType": "string",
					"name": "s",
					"type": "string"
				}
			],
			"name": "examples3",
			"outputs": [
				{
					"internalType": "uint256[]",
					"name": "",
					"type": "uint256[]"
				}
			],
			"stateMutability": "pure",
			"type": "function"
		},
		{
			"inputs": [
				{
					"internalType": "address",
					"name": "",
					"type": "address"
				}
			],
			"name": "myStructs",
			"outputs": [
				{
					"internalType": "uint256",
					"name": "foo",
					"type": "uint256"
				},
				{
					"internalType": "string",
					"name": "text",
					"type": "string"
				}
			],
			"stateMutability": "view",
			"type": "function"
		}
	]
}